:100000000C94750E0C94A60E0C94A60E0C94A60ED1
:100010000C94A60E0C94A60E0C94A60E0C94A60E90
:100020000C94A60E0C94D82A0C94262B0C94FF2A20
:100030000C94A60E0C94A60E0C94A60E0C94A60E70
:100040000C94A60E0C94404B0C94A60E0C94A60E89
:100050000C94A60E0C94A60E0C948D4A0C943B5A4C
:100060000C94A60E0C94D3160C94A60E0C94A60E0B
:100070000C94A60E0C94A60E0C94A60E0C94A60E30
:100080000C94A60E0C94A60E0C94A60E0C94A60E20
:100090000C94A60E0C94A60E0C94A60E0C94A60E10
:1000A0000C94A60E0C94A60E0C94A60E0C94A60E00
:1000B0000C94A60E0C94A60E0C94A60E0C94A60EF0
:1000C0000C94A60E0C94A60E0C94A60E0C94A60EE0
:1000D0000C94A60E0C94A60E0C94A60E0C94A60ED0
:1000E0000C94A60EB858BB58AA58AE58B458F2583B
:1000F000BF58C358C958CD58D158D758DB58DF58C6
:10010000F258E558E958ED5857595C5961596B59FF
:100110007559EE597F5987598F599959A359AD5936
:10012000BC59C659EE59D059DA59E459084AD73B57
:100130003BCE016E84BCBFFDC12F3D6C74319ABDB6
:1001400056833DDA3D00C77F11BED9E4BB4C3E91DA
:100150006BAAAABE000000803F05A84CCDB2D44EC9
:10016000B93836A9020C50B9918688083CA6AAAACB
:100170002ABE000000803F004E414E494E4954596E
:10018000494E46CDCCCC3D0AD7233C17B7D1387762
:10019000CC2B329595E6241FB14F0A000020410078
:1001A00000C84200401C4620BCBE4CCA1B0E5AAEC2
:1001B000C59D74434F4D4D554E49434154494F4E93
:1001C0000044525952554E004552524F5253004925
:1001D0004E464F004543484F0047322F4733206279
:1001E000616420706172616D65746572730A0025C7
:1001F00069730025696D20256973002569682025CC
:10020000696D2025697300256964202569682025AA
:10021000696D202569730025697920256964202589
:1002200069682025696D20256973005072696E74B4
:100230002074696D653A2000D401CF01C801C10165
:10024000B3016F66660044454255473A004B494C3E
:100250004C45442E20004D3131332053006F6B004C
:1002600020573A002C20002C2000544845524D4184
:100270004C5F50524F54454354494F4E00415554E2
:100280004F5245504F52545F53445F53544154555D
:100290005300454D455247454E43595F50415253D7
:1002A000455200434153455F4C494748545F4252D1
:1002B000494748544E45535300544F47474C455FB8
:1002C0004C494748545300534F4654574152455F99
:1002D000504F574552004255494C445F5045524398
:1002E000454E54004C4556454C494E475F44415499
:1002F00041005A5F50524F4245004155544F4C45C2
:1003000056454C005052494E545F4A4F420050529D
:100310004F4752455353004155544F5245504F5249
:10032000545F54454D5000564F4C554D455452491D
:100330004300454550524F4D0053455249414C5F93
:10034000584F4E5F584F4646004649524D5741520E
:10035000455F4E414D453A4D61726C696E20627544
:10036000676669782D312E312E78202847697468A8
:1003700075622920534F555243455F434F44455FB3
:1003800055524C3A68747470733A2F2F67697468C9
:1003900075622E636F6D2F4D61726C696E46697266
:1003A0006D776172652F4D61726C696E2050524F8E
:1003B000544F434F4C5F56455253494F4E3A312E9E
:1003C00030204D414348494E455F545950453A33DA
:1003D00044205072696E74657220455854525544D9
:1003E00045525F434F554E543A3120555549443A92
:1003F00063656465326132662D343161322D343784
:1004000034382D396231322D6335356336326633F7
:10041000363766660A002F2F200020540020520035
:10042000416363656C65726174696F6E3A20500058
:10043000000000000000000000000000546F6F206A
:100440006661722066726F6D207265666572656E98
:10045000636520706F696E740A00FFFFFF205A0009
:10046000205900580020204D61783A2000205A0081
:10047000205900580020204D696E3A20004F6E2010
:10048000004F666600536F667420656E6473746F08
:1004900070733A200020466C6F773A2000000125E7
:1004A000311D40FFFFFF2924301C45FFFFFF27239C
:1004B0002F1B0AFFFFFFFF43FFFF040806FFFF2279
:1004C0002B1AFFFF42043803FF3620643A002069EC
:1004D0003A0020703A00496E76616C696420657854
:1004E0007472756465720A0043290A0061626C6562
:1004F0006420286D696E2074656D702000436F6CF8
:10050000642065787472756465732061726520007B
:100510004E6F2063617365206C696768740A0045DB
:100520004550524F4D2064697361626C65640A00E6
:100530004163746976652045787472756465723AB2
:100540002000496E76616C69642065787472756408
:1005500065720A006F6B00205A3A0020593A002059
:10056000583A00656E6473746F7073206869743AEA
:100570002000656E7175657565696E672022004B98
:10058000494C4C45442E20005072696E74657220AF
:1005900073746F707065642064756520746F206576
:1005A00072726F72732E20466978207468652065B8
:1005B00072726F7220616E6420757365204D3939D7
:1005C0003920746F20726573746172742E20285400
:1005D000656D7065726174757265206973207265EE
:1005E0007365742E20536574206974206166746588
:1005F000722072657374617274696E67290A004EA5
:100600006F20436865636B73756D2077697468202C
:100610006C696E65206E756D6265722C204C61731D
:1006200074204C696E653A2000636865636B73756E
:100630006D206D69736D617463682C204C617374F7
:10064000204C696E653A20004C696E65204E756DD0
:10065000626572206973206E6F74204C6173742020
:100660004C696E65204E756D6265722B312C204C85
:10067000617374204C696E653A20004D3131300051
:1006800020496E76616C6964206578747275646562
:1006900072200000000000000000000000000000C8
:1006A000005C420000484300004843486F6D696E9B
:1006B00067206661696C65640050726F746563746D
:1006C00065642050696E0A00205A3A0020593A00A9
:1006D00020436F756E7420583A0020453A00205A26
:1006E0003A0020593A00583A003A004361703A0003
:1006F000526573656E643A200020746F6F206C6FD2
:100700006E6720657874727573696F6E207072659C
:1007100076656E7465640A0020636F6C642065788A
:1007200074727573696F6E2070726576656E74652C
:10073000640A0024F4D43050C38E20C2A240178231
:100740008B7011127A910D816CD90AA861E108C7EA
:10075000586607615143061E4B5D05C145A7041A43
:10076000411104093D9803713931034036DB0265BC
:10077000339102D4305402802E1D02632CEE017599
:100780002AC501B028A001102781018F2564012B03
:10079000244B01E0223401AC211F018D200D01808A
:1007A0001FFC00841EED00971DDF00B81CD200E680
:1007B0001BC600201BBC00641AB200B219A8000AB4
:1007C00019A0006A189900D117910040178B00B545
:1007D00016840031167E00B31579003A157300C7F0
:1007E000146F0058146A00EE136600881363002526
:1007F000135E00C7125B006C12570015125400C143
:1008000011510070114F0021114B00D61049008D7D
:100810001047004610440002104200C00F40008004
:100820000F3E00420F3C00060F3B00CB0E380093FA
:100830000E37005C0E3500270E3400F30D3200C178
:100840000D3100900D3000600D2E00320D2D000591
:100850000D2C00D90C2B00AE0C2900850C29005C56
:100860000C2700350C27000E0C2600E80B2400C4D2
:100870000B2400A00B23007D0B23005A0B21003911
:100880000B2100180B2000F80A1F00D90A1E00BB1C
:100890000A1E009D0A1D00800A1D00630A1C0047F5
:1008A0000A1B002C0A1B00110A1A00F7091A00DDA6
:1008B000091900C4091900AB091900920917007B36
:1008C000091800630917004C0916003609160020A4
:1008D0000916000A091500F5081500E0081400CCF7
:1008E000081400B8081400A4081400900813007D30
:1008F0000812006B08130058081200460812003452
:10090000081100230811001208110001081100F05D
:10091000071000E0071000D0071000C0071000B05B
:10092000070F00A107100091070E0083070F007446
:10093000070F0065070E0057070E0049070E003B22
:10094000070D002E070E0020070D0013070D0006EF
:10095000070D00F9060C00ED060D00E0060C00D4B2
:10096000060C00C8060C00BC060C00B0060C00A467
:10097000060B0099060C008D060B0082060B007713
:10098000060B006C060B0061060A0057060B004CB4
:10099000060A0042060A0038060A002E060A00244B
:1009A000060A001A060A001006090007060A00FDDA
:1009B000050900F4050900EB050900E2050900D965
:1009C000050900D0050900C7050900BE050900B5E5
:1009D000050800AD050800A50509009C0508009460
:1009E0000508008C050800840508007C05080074D3
:1009F0000508006C050700650508005D0507005641
:100A00000508004E050700470507004005080038A7
:100A1000050700310507002A050700230507001C0C
:100A2000050600160507000F050700080506000269
:100A3000050700FB040600F5040700EE040600E8C5
:100A4000040600E2040700DB040600D5040600CF1C
:100A5000040600C9040600C3040600BD040600B76E
:100A6000040600B1040500AC040600A6040600A0BC
:100A70000405009B04060095040500900406008A06
:100A800004050085040500800406007A040500754D
:100A9000040500700405006B040500660405006190
:100AA0000405005C04050057040500520405004DD0
:100AB00004050048040500430405003E0404003A10
:100AC00004050035040500300404002C040500274B
:100AD000040400230405001E0404001A0404001684
:100AE000040500110404000D0404000904050004B9
:100AF00004040000040400FC030400F8030400F4F0
:100B0000030400F0030400EC030400E8030400E421
:100B1000030400E0030400DC030400D8030400D451
:100B2000030400D0030400CC030400C8030300C581
:100B300003030024F404D9201BC40C5C0E9804C4E5
:100B4000095F0265077101F405F900FB04B3004871
:100B5000048700C10369005803550003034500BE24
:100B6000023A008402310053022A002902250004BF
:100B7000022000E4011C00C8011900AF0117009811
:100B80000114008401130071011000610110005173
:100B9000010E0043010D0036010B002B010B00205C
:100BA000010B00150109000C01090003010800FBFD
:100BB000000800F3000800EB000700E4000600DE78
:100BC000000600D8000600D2000600CC000500C7D1
:100BD000000500C2000500BD000400B9000400B516
:100BE000000400B1000400AD000400A9000400A549
:100BF000000300A20003009F0004009B0003009874
:100C00000003009500020093000300900003008D94
:100C10000002008B000300880002008600020084AE
:100C2000000300810002007F0002007D0002007BC3
:100C300000020079000200770001007600020074D3
:100C400000020072000100710002006F0002006DDE
:100C50000001006C0002006A0001006900020067E8
:100C600000010066000100650001006400020062EE
:100C700000010061000100600001005F0002005DF2
:100C80000001005C0001005B0001005A00010059F6
:100C900000010058000100570001005600010055F6
:100CA00000010054000100530000005300010052F5
:100CB00000010051000100500001004F0001004EF2
:100CC0000000004E0001004D0001004C0001004BEF
:100CD0000000004B0001004A0001004900010048EB
:100CE00000000048000100470001004600000046E7
:100CF00000010045000000450001004400010043E0
:100D000000000043000100420000004200010041D9
:100D100000000041000100400001003F0000003FD2
:100D20000001003E0000003E0001003D0000003DCB
:100D30000001003C0000003C0000003C0001003BC2
:100D40000000003B0001003A0000003A00010039B9
:100D500000000039000100380000003800000038B1
:100D600000010037000000370001003600000036A7
:100D7000000000360001003500000035000000359D
:100D80000001003400000034000000340001003392
:100D90000000003300000033000100320000003288
:100DA000000000320001003100000031000000317D
:100DB0000001003000000030000000300001002F72
:100DC0000000002F0000002F0000002F0001002E67
:100DD0000000002E0000002E0001002D0000002D5C
:100DE0000000002D0000002D0001002C0000002C50
:100DF0000000002C0000002C0001002B0000002B44
:100E00000000002B0000002B0001002A0000002A37
:100E10000000002A0000002A00010029000000292B
:100E2000000000290000002900000029000100281E
:100E30000000002800000028000000280000002812
:100E40000001002700000027000000270000002705
:100E500000000027000100260000002600000026F8
:100E600000000026000000260001002500000025EB
:100E700000000025000000250000002500000025DE
:100E800000010024000000240000002400000024D1
:100E900000000024000100230000002300000023C4
:100EA00000000023000000230000002300000023B6
:100EB00000010022000000220000002200000022A9
:100EC000000000220000002200010021000000219B
:100ED000000000210000002100000021000000218E
:100EE0000000002100010020000000200000002080
:100EF0000000002000000020000000200000002072
:100F0000000000200001001F0000001F0000001F63
:100F10000000001F0000001F0000001F0000001F55
:100F20000001001E0000001E0000001E0000001E48
:100F3000000000393000003325000087190000B0A0
:100F40000F0000DB080000BD040000740200003F39
:100F5000010000627573793A2070617573656420D1
:100F6000666F7220696E7075740A00627573793AE3
:100F70002070617573656420666F72207573657289
:100F80000A00627573793A2070726F6365737369D2
:100F90006E670A004B494C4C45442E20004B494C8F
:100FA0004C2063617573656420627920746F6F20D3
:100FB0006D75636820696E61637469766520746914
:100FC0006D65202D2063757272656E7420636F6D80
:100FD0006D616E643A20005072696E7465722068AB
:100FE000616C7465642E206B696C6C2829206361C8
:100FF0006C6C6564210A002020506C616E6E657215
:1010000042756666657242797465733A20002046BF
:10101000726565204D656D6F72793A2000436F6D82
:1010200070696C65643A204D61722032352032302F
:1010300031390A00207C20417574686F723A203281
:101040003031392D30332D31313B20566F6C756D79
:101050006574726963204C756D656E20776974687C
:101060002045696E737920616E642049475553208D
:10107000616E642042415249435544412066697281
:101080006D77617265204F4E0A00323031382D3055
:10109000372D333100204C617374205570646174B6
:1010A00065643A20006275676669782D312E312EAD
:1010B000780A004D61726C696E0020536F66747718
:1010C0006172652052657365740A0020576174630C
:1010D00068646F672052657365740A002042726FFE
:1010E000776E206F75742052657365740A00204511
:1010F000787465726E616C2052657365740A005075
:101100006F77657255700A0073746172740A0020FB
:101110006472697665722063757272656E743A20C6
:10112000005761726E696E673A20486F6D696E672D
:101130002042756D702044697669736F72203C207F
:10114000310A000202040000803F0000000000009D
:10115000004000005C4200004843000048434861F2
:101160007264636F6465642044656661756C7420A5
:1011700053657474696E6773204C6F616465640AAB
:101180000032000000320000003200000010270092
:10119000000000803F0000A0400000A0400000C808
:1011A00041000020440000204400002044000020B2
:1011B0004420204D3930360020286D6D2900202034
:1011C0004D39313400205A00205900205800536511
:1011D0006E736F726C65737320686F6D696E6720D4
:1011E0007468726573686F6C643A0A00205430202A
:1011F0004500205A00205900205800537465707033
:101200006572206472697665722063757272656EAC
:10121000743A0A0020440020490020204D33303128
:101220002050005049442073657474696E67733AA6
:101230000A00205A0020590020204D323036205814
:1012400000486F6D65206F66667365743A0A00200A
:101250004500205A002059002058002054002053F7
:101260000020204D32303520510020453C6D617802
:101270005F655F6A65726B3E0020583C6D61785F08
:10128000785F6A65726B3E20593C6D61785F795F6B
:101290006A65726B3E205A3C6D61785F7A5F6A6561
:1012A000726B3E00416476616E6365643A20513C26
:1012B0006D696E5F7365676D656E745F74696D658A
:1012C0005F75733E20533C6D696E5F666565647241
:1012D0006174653E20543C6D696E5F747261766521
:1012E0006C5F66656564726174653E002054002021
:1012F000520020204D323034205000416363656C31
:1013000065726174696F6E2028756E6974732F73CE
:1013100032293A20503C7072696E745F6163636574
:101320006C3E20523C726574726163745F616363EA
:10133000656C3E20543C74726176656C5F616363DA
:10134000656C3E0A00204500205A002059002020EC
:101350004D3230312058004D6178696D756D2041F6
:101360006363656C65726174696F6E2028756E6960
:1013700074732F7332293A0A00204500205A002046
:10138000590020204D3230332058004D6178696D6E
:10139000756D206665656472617465732028756E6D
:1013A0006974732F73293A0A00204500205A0020DF
:1013B000590020204D393220580053746570732035
:1013C00070657220756E69743A0A0020204D3230C3
:1013D000302044300A0020204D323030204400209C
:1013E00044697361626C65640A0046696C616D658D
:1013F0006E742073657474696E67733A00202047B9
:101400003231202020203B00545249474745524565
:1014100044006F70656E003A20007A5F6D696E005F
:10142000795F6D696E00785F6D696E005265706FEF
:101430007274696E6720656E6473746F7020737464
:10144000617475730A0000000001000000010000D3
:101450008000555555000000400033333300AAAAE0
:101460002A004992240000002000C7711C009999AD
:101470001900D1451700555515003BB113002449FB
:10148000120011111100000010000F0F0F00E338BF
:101490000E0043790D00CCCC0C00C3300C00E8A248
:1014A0000B0064210B00AAAA0A00703D0A009DD817
:1014B0000900427B090092240900DCD308008888D7
:1014C00008001042080000000800F0C107008787EC
:1014D000070075500700711C07003EEB0600A1BC19
:1014E00006006990060066660600703E06006118F8
:1014F000060017F4050074D105005BB00500B2903A
:101500000500627205005555050078390500B81EC2
:101510000500050505004EEC040087D40400A1BDBC
:10152000040090A7040049920400C17D0400EE6904
:101530000400C7560400444404005C32040008213F
:10154000040041100400000004003FF00300F8E034
:10155000030026D20300C3C30300CCB503003AA89E
:1015600003000A9B0300388E0300C08103009F75AF
:101570000300D0690300505E03001D53030034488C
:101580000300913D03003333030016290300381F85
:10159000030097150300300C0300030303000BFA4C
:1015A000020049F10200BAE802005CE002002DD816
:1015B00002002DD0020059C80200B0C0020031B9AB
:1015C0000200DAB10200AAAA0200A0A30200BC9C99
:1015D0000200FA9502005C8F0200DF88020082821E
:1015E0000200457C02002776020027700200436A51
:1015F00002007C640200D05E02003F590200C85322
:1016000002002066697273740A005A00590058007B
:10161000486F6D6520000000404000004040000021
:1016200040400000000020746F6F206C6F6E6720D8
:10163000657874727573696F6E2070726576656E09
:101640007465640A0020636F6C6420657874727539
:1016500073696F6E2070726576656E7465640A00DA
:101660006563686F3A0000000A0B02090C0D0E0852
:10167000070304010000000000000000000000005B
:10168000000000000000000000000000000000005A
:101690000000121110000000000000000000000017
:1016A000000000000000000000000000000000003A
:1016B000000000000000000000000000556E6B6E8E
:1016C0006F776E20636F6D6D616E643A202200004B
:1016D0000020002300260029002C002F00320000EB
:1016E0000100000301060109010000220025002875
:1016F000002B002E0031003400020100000501081B
:10170000010B010505050507050808080802020286
:10171000020A0A080804040404010101010101018C
:10172000010303030303030303040707070C0C0C63
:101730000C0C0C0C0C02020202060606060606063B
:10174000060B0B0B0B0B0B0B0B07070A0A0A0A0AFB
:101750000A050505040404080801021020200808F1
:101760001020401020408002010201080402010103
:1017700002040810204080804020100804020180EC
:101780000402018040201008040201080402010143
:10179000020408102040800102040810204080103C
:1017A000080408801020400440801020400480700D
:1017B000012C0190012701B0012201C0011D01F09F
:1017C0000118011002130130020E0160020901909C
:1017D000020401C002FF000003FA004003F500808C
:1017E00003F000D003EB002004E6007004E100E009
:1017F00004DC004005D700C005D2004006CD00D073
:1018000006C8008007C3003008BE00F008B900C059
:1018100009B400B00AAF00B00BAA00D00CA50000BC
:101820000EA000500F9B00C01096005012910000B7
:10183000148C00C0158700B0178200B0197D00D04D
:101840001B7800001E730040206E0090226900F09B
:1018500024640040275F0090295A00E02B550010B7
:101860002E500020304B0010324600E033410090F3
:10187000353C001037370070383200A0392D00B0E9
:101880003A2800A03B2300603C1E00103D19009048
:101890003D1400103E0F00703E0A00C03E050000DF
:1018A0003F0000403FFBFF803FF6FFC03FF1FF4598
:1018B00034004533004532004531004530005A328E
:1018C000005932005832005A005900580045312062
:1018D0004572723A204D415854454D50004D415883
:1018E00054454D50207472696767657265640045A0
:1018F00031204572723A204D494E54454D50004DAD
:10190000494E54454D50207472696767657265642D
:1019100000202F0020403A00CB18C918C718C4185F
:10192000C118BE18BB18B818B518B218AF18747221
:1019300075650066616C7365002074656D70657215
:101940006174757265207072657761726E20747251
:10195000696767657265643A200020707265776117
:10196000726E20666C616720636C65617265640AE3
:101970000020686F6D696E672073656E73697469A6
:10198000766974793A2000FFFDFCFAF8F6F4F2F07B
:10199000EEECEAE9E7E5E3E1E0DEDCDAD9D7D5D43D
:1019A000D2D0CFCDCBCAC8C7C5C3C2C0BFBDBCBAD9
:1019B000B9B7B6B4B3B2B0AFADACAAA9A8A6A5A446
:1019C000A2A1A09E9D9C9A99989795949392908F8E
:1019D0008E8D8B8A8988878684838281807F7E7DB5
:1019E0007B7A797877767574737271706F6E6D6CBF
:1019F0006B6A696867666564636261605F5E5D5CAF
:101A00005B5A5958585756555453525150504F4E8F
:101A10004D4C4B4A4A494847464645444342424159
:101A2000403F3E3E3D3C3B3B3A3938383736353512
:101A3000343332323130302F2E2E2D2C2B2B2A29BD
:101A40002928272726252524232322212120201F5A
:101A50001E1E1D1C1C1B1B1A1919181817161615EB
:101A60001514131312121111100F0F0E0E0D0D0C71
:101A70000C0B0A0A090908080707060605050404ED
:101A80000303020201000023646566696E65204459
:101A9000454641554C545F4B64200023646566699C
:101AA0006E652044454641554C545F4B69200023E8
:101AB000646566696E652044454641554C545F4BEC
:101AC000702000504944204175746F74756E652014
:101AD00066696E6973686564212050757420746846
:101AE00065206C617374204B702C204B6920616EF3
:101AF00064204B6420636F6E7374616E7473206630
:101B0000726F6D2062656C6F7720696E746F204311
:101B10006F6E66696775726174696F6E2E680A0010
:101B2000504944204175746F74756E652066616913
:101B30006C6564212074696D656F75740A004531A8
:101B400020544845524D414C2052554E4157415921
:101B500000546865726D616C2052756E61776179B1
:101B60000045312048656174696E67206661696C63
:101B700065640048656174696E67206661696C65BB
:101B80006400504944204175746F74756E65206619
:101B900061696C6564212054656D7065726174754E
:101BA000726520746F6F20686967680A00204B6453
:101BB0003A2000204B693A2000204B703A20000A5E
:101BC00020436C617373696320504944200A0020EC
:101BD00054753A2000204B753A2000206D61783A08
:101BE0002000206D696E3A200020643A20002062B7
:101BF0006961733A2000504944204175746F7475CF
:101C00006E65206661696C6564212054656D706540
:101C100072617475726520746F6F20686967680AF5
:101C200000504944204175746F74756E652073745B
:101C30006172740A00504944204175746F74756E66
:101C400065206661696C6564212042616420657865
:101C5000747275646572206E756D6265720A0062D9
:101C600065640A002C2073797374656D2073746F3A
:101C70007070656421204865617465725F49443AFB
:101C80002000453120544845524D414C2052554E7C
:101C90004157415900546865726D616C2052756EF0
:101CA000617761790045312048656174696E67200C
:101CB0006661696C65640048656174696E67206679
:101CC00061696C65640000002100240027002A007F
:101CD0002D003000330001010000040107010A015A
:101CE0004572726F723A0000327011241FBECFEF3E
:101CF000D1E2DEBFCDBF00E00CBF12E0A0E0B2E059
:101D0000EEE8F7EF00E00BBF02C007900D92A83598
:101D1000B107D9F72FE0A8E5B2E001C01D92A931C3
:101D2000B207E1F71EE0C5E7DEE000E006C021975C
:101D30000109802FFE010E948A7BC437D10780E011
:101D40000807A9F70E94B75A0C94C57B0C940000B1
:101D500080918F0590919005981759F0E92FF0E048
:101D6000E15FFA4F80819F5F9F779093900590E0AD
:101D700008958FEF9FEF0895813039F018F0823089
:101D800039F0089581E79EE005C088EF9DE002C02C
:101D90008FE79DE00C940248FF920F931F93CF931F
:101DA000DF93FC0120812B3319F1D0918D04D430C5
:101DB000F8F4F62EBC01C091A9040C2F10E0F0E657
:101DC000CF9FC0011124855F9C4F0E94B37BF80117
:101DD000EF5FFC4FF082CF5FC43018F4C093A904CA
:101DE00002C01092A904DF5FD0938D0481E001C08E
:101DF00080E0DF91CF911F910F91FF900895CF93D5
:101E0000DF9380E00E94C34FC7EAD2E06883798302
:101E10008A839B8381E00E94C34F6C837D838E8382
:101E20009F8382E00E94C34F688779878A879B8758
:101E3000DF91CF910895CF92DF92EF920F931F938E
:101E4000CF93DF9300D01F92CDB7DEB7E090940C14
:101E500019821A821B821C82CE0101966C010EE14E
:101E600012E020E036E04CEF55E068EF75E084EFDB
:101E700095E00E949F300F900F900F900F90DF9190
:101E8000CF911F910F91EF90DF90CF9008950F9316
:101E90001F93CF93DF9394E0899FE00111248E017B
:101EA00008521D4FFE01E453FD4FDE01AA57BD4FFE
:101EB0002D913D914D915C916081718182819381E1
:101EC0000E949678F8016083718382839383FE0178
:101ED000ED56F94F85919591A591B491FE01EC5184
:101EE000FD4F80839183A283B383FE01E156F94FB6
:101EF00085919591A591B491CB5FDD4F88839983AE
:101F0000AA83BB83DF91CF911F910F91089520E0A9
:101F100036E04CEF55E068EF75E084EF95E00C9407
:101F2000C14E80916F00982F927081FF05C0809103
:101F30006F008D7F80936F008091EE0E8093ED0E89
:101F40008093EC0E8093EB0E84E68093EA0E28EEED
:101F500033E030938B0C20938A0C992329F08091E5
:101F60006F00826080936F0081E08093C50C0E94B7
:101F7000B14E45DF8CE0E7EAF2E0A4EFB5E0019076
:101F80000D928A95E1F7C3CF2F923F924F925F92C5
:101F90006F927F929F92AF92BF92CF92DF92EF9219
:101FA000FF920F931F93CF93DF93CDB7DEB72897A0
:101FB0000FB6F894DEBF0FBECDBFA82E1A012B01BD
:101FC000922EB32EC82ED12CF601E65AFB4FE49187
:101FD000EE24E3941E160CF4E12CFF24F39420E08D
:101FE00030E0A901C201B1010E94BC7A18160CF0C0
:101FF000F12CFE2419F061E08A2DBEDECC0CDD1C34
:10200000CC0CDD1CC6018C509A4F3C01FC011082A7
:102010001182128213827BDFF3012082318242829D
:102020005382E090940C20E030E0A901B801892DA2
:102030009B2D0E94827481110AC0F601EA5EF94E5E
:1020400085919591A591B4918C019A2EBB2EC801D2
:10205000A92DBB2D8D839E83AF83B88719821A82E9
:102060001B821C82CE0101966C018E010B5F1F4FFB
:1020700020E036E04CEF55E068EF75E084EF95E046
:102080000E949F300E94B14EFF2071F080918B041E
:10209000882331F010928B0460E08A2D6DDE04C03D
:1020A0008BEA96E00E946D2428960FB6F894DEBF66
:1020B0000FBECDBFDF91CF911F910F91FF90EF9099
:1020C000DF90CF90BF90AF909F907F906F905F9088
:1020D0004F903F902F9008958091CA029091CB022B
:1020E000009731F04AE050E060E070E00C94D67167
:1020F00060E070E0CB010895EFDF97FD0AC0ECDFF0
:102100006F3F71058105910509F02CF4E5DF862FFD
:10211000089580E008958FEF08958091CA0290910C
:10212000CB02892B31F0E8DF91E0811103C090E010
:1021300001C091E0892F08950F931F93CF93809151
:10214000CA029091CB02009711F1FC018F01C1915D
:102150002C2F2F7DA9F0C53411F0C536B9F7F80141
:10216000108260E070E08091CA029091CB020E94E0
:102170008370F801C083562F472F382F292F0BC0AB
:1021800060E070E0CF911F910F910C94837050E04C
:1021900040E030E020E0652F742F832F922FCF9105
:1021A0001F910F91089581548A3108F042C0E82FA1
:1021B000F0E040917202509173026091740270914C
:1021C000750204C076956795579547958A95D2F71D
:1021D000842F817040FF2FC0E85AFD4F90819923D2
:1021E00009F1E091920CF091930CE90FF11D9081AF
:1021F00020ED290F2A3098F09E3211F491810CC005
:102200009D3211F09B3271F4918120ED290F2A301B
:1022100030F09E3239F4928190539A3018F42E2F78
:102220009F2F02C020E090E02093CA029093CB023F
:10223000089580E008950895B6DF882341F081E095
:102240002091CA023091CB02232B09F480E008953B
:102250009F92AF92BF92CF92DF92EF92FF920F9335
:102260001F93CF93DF938EE3A82E82E0B82E04EE67
:1022700015E0C4EFD5E098EDC92E92E0D92E25E007
:10228000E22E23E0F22E912CF50181915F018BDF8C
:10229000882301F151DFF7012081211104C0209131
:1022A0000903222339F0288139814A815B810E9408
:1022B00096780AC0F3E09F1639F0F601208131814B
:1022C000428153810E949578F801608371838283F3
:1022D000938309C088819981AA81BB81F801808399
:1022E0009183A283B38393940C5F1F4F2496F4E0F1
:1022F000CF0ED11C2FEFE21AF20A84E09812C4CF5D
:1023000086E49ADF8823B9F017DF20E030E0A901E6
:102310000E94BC7A18167CF40FDF20E030E040E722
:1023200052E40E94727960931E0270931F028093A0
:10233000200290932102DF91CF911F910F91FF9086
:10234000EF90DF90CF90BF90AF909F9008959091C5
:10235000C00095FFFCCF8093C60008958F929F9296
:10236000AF92BF92CF92DF92EF92FF920F931F93A3
:10237000CF93DF93CDB7DEB728970FB6F894DEBFC3
:102380000FBECDBF80912802882321F084EE95E016
:102390000E945D208091790C83FDA1C0C090F00562
:1023A000D090F105E090F205F090F3052091000641
:1023B000309101064091020650910306C701B60113
:1023C0000E948274882309F48AC080916406811176
:1023D0002FC06091650670916606809167069091A6
:1023E00068060E94DA79209126023091270262174E
:1023F0007307F4F4C0920006D0920106E092020640
:10240000F0920306E0E6F6E184918F010F5F1F4F23
:10241000882319F09CDFF801F7CFE8E1F7E0849119
:102420008F010F5F1F4F882319F091DFF801F7CF5D
:102430008090F0059090F105A090F205B090F30522
:10244000209100063091010640910206509103064A
:10245000C501B4010E9495786B017C0120E030E059
:10246000A9010E94BC7A87FF04C0F7FAF094F7F83C
:10247000F094E091940C84E0E89FF0011124EE5D6B
:10248000FD4F2081318142815381C701B6010E94F5
:10249000E77420E030E048E453E40E94BC7A181668
:1024A000F4F48092000690920106A0920206B09287
:1024B0000306E0E6F6E184918F010F5F1F4F88234A
:1024C00019F045DFF801F7CFE9EFF6E084918F01CD
:1024D0000F5F1F4F882319F03ADFF801F7CF6091A3
:1024E000290270912A02072E000C880B990B0E947A
:1024F000887420911E0230911F0240912002509159
:1025000021020E94E7742AE037ED43E25CE30E9477
:10251000E7746D837E838F839887E090940C198293
:102520001A821B821C82CE0101966C018E010B5F08
:102530001F4F20EF35E04CEE55E068EE75E084EE7D
:1025400095E00E949F3080E1E4EEF5E0A4EFB5E075
:1025500001900D928A95E1F728960FB6F894DEBFA8
:102560000FBECDBFDF91CF911F910F91FF90EF90E4
:10257000DF90CF90BF90AF909F908F900895CF93B2
:10258000DF93E0EEFCE18491EF012196882319F0BE
:10259000DEDEFE01F8CFE9EBF6E08491EF01219653
:1025A000882319F0D4DEFE01F8CFDF91CF91089592
:1025B000CF92DF92EF92FF920F931F93CF93DF930F
:1025C00080918D04843008F01BC1C2DBAC0197FD03
:1025D00017C1982F2091000D3091010D8A3019F00C
:1025E0009D3009F0DCC010920E052115310519F45B
:1025F0000E94F050E5CFF901E255FB4F1082109296
:10260000010D1092000DCEEAD4E0FE0181918032DE
:1026100011F4EF01FACF8E3409F07EC0209709F44F
:102620007BC06BE776E0CE010E943A748C01892B67
:1026300041F06EE470E0CE0104960E949F7B00970B
:1026400009F4CE014AE050E060E070E001960E949B
:10265000D6716093AA047093AB048093AC049093FA
:10266000AD04C090020DD090030DE090040DF090E9
:10267000050D2FEFC21AD20AE20AF20A6C157D0587
:102680008E059F0529F0012B19F488E496E02AC0F5
:102690006AE270E0CE010E94BA7B9C01009701F1D2
:1026A000982F9C1B10E0992339F09150FE01E90FFF
:1026B000F11D80811827F7CF4AE050E060E070E01C
:1026C000C90101960E94D671012F10E020E030E090
:1026D000601771078207930779F089E296E002C0DC
:1026E0008FEF95E0DF91CF911F910F91FF90EF90C9
:1026F000DF90CF900C94855A8091AA049091AB04FE
:10270000A091AC04B091AD048093020D9093030DA1
:10271000A093040DB093050D8091130281111EC08A
:1027200067E470E0CE010E949F7B0097B9F04AE019
:1027300050E060E070E001960E94D671643071054F
:102740008105910558F4E8E8F5E084918F010F5F69
:102750001F4F882319F0FBDDF801F7CF69E472E021
:10276000CE010E94AA7B892B11F4109214026EE410
:1027700072E0CE010E94AA7B892B21F48FE795E0BD
:102780000E946D2463E572E0CE010E94AA7B892B32
:1027900009F4C7DB61E08EEA94E0FEDA11CF2F3551
:1027A00031050CF00DCF9C35B9F4D2DA97FD08CF86
:1027B00020910E05211104CF2091000D3091010DC3
:1027C000A9014F5F5F4F5093010D4093000DF90138
:1027D000E255FB4F8083F4CE9B3319F481E0809364
:1027E0000E0580910E058111EBCEC90101969093E3
:1027F000010D8093000DF901E255FB4F4083E0CEBF
:10280000DF91CF911F910F91FF90EF90DF90CF90CC
:102810000895BF92CF92DF92EF92FF920F931F9392
:10282000CF93DF93CDB7DEB76E970FB6F894DEBFC8
:102830000FBECDBF6091A7047091A804611571050A
:1028400051F14DE150E0CE0101967C010E942B74C4
:102850001E8EF7018F010E191F09B190BB2021F1C7
:102860009AE0B912F7CF20C0B70182E795E00E9445
:10287000AB4C82E26CDD8AE06ADDBB2051F10F5F78
:102880001F4F8091A7049091A804080F191F10935F
:10289000A8040093A70481E02091A7043091A80424
:1028A000232BD1F480E018C0F701E00FF11F108254
:1028B00060E0C70171DA882371F3E0E6F6E1849104
:1028C0006F019FEFC91AD90A882371F240DDF60122
:1028D000F6CF00E010E0DBCF6E960FB6F894DEBFC7
:1028E0000FBECDBFDF91CF911F910F91FF90EF9061
:1028F000DF90CF90BF9008958F929F92AF92BF923A
:10290000EF92FF920F931F93CF93DF93CDB7DEB774
:10291000A0970FB6F894DEBF0FBECDBF611571054D
:102920008105910589F100E0842E912CA12CB12C18
:10293000102FEE24E394F12CEC0EFD1EE00EF11CA2
:1029400007FDFA94A50194010E945A78F70160836B
:10295000B901CA010F5F611571058105910541F744
:102960001F3F21F1E1E0F0E0EC0FFD1FE10FF11D51
:1029700017FDFA9580818A3010F097E301C090E34B
:10298000890FE5DC1150ECCF80E3A0960FB6F894E8
:10299000DEBF0FBECDBFDF91CF911F910F91FF9092
:1029A000EF90BF90AF909F908F90D1CCA0960FB634
:1029B000F894DEBF0FBECDBFDF91CF911F910F9175
:1029C000FF90EF90BF90AF909F908F900895EF92FF
:1029D000FF920F931F93CF93DF937C0184E52CDC50
:1029E000D82F882321F188DBC82F1816E4F4E0E6FD
:1029F000F6E184918F010F5F1F4F882319F0A7DC48
:102A0000F801F7CF8DE4A3DCB70180E090E04AE065
:102A100073DF6C2FCC0F770B80E896E00E94924C0E
:102A20008AE095DC08C080930003D0E004C0809168
:102A3000940C809300038D2FDF91CF911F910F9104
:102A4000FF90EF900895CF92DF92EF92FF926B018B
:102A50007C0197FF0AC08DE27ADCF094E094D09478
:102A6000C094C11CD11CE11CF11C4AE0C701B60195
:102A7000FF90EF90DF90CF903FCFCF93DF93809187
:102A80008F0580939005E0EFF6E08491EF012196A9
:102A9000882319F05CDCFE01F8CF8091020D909143
:102AA000030DA091040DB091050DBC01CD016F5F28
:102AB0007F4F8F4F9F4FC7DF8AE049DCE0918C0446
:102AC000F0E0EF5FFC4F8081882321F0DF91CF9110
:102AD0000C94EF20DF91CF910895FF920F931F93F5
:102AE000CF93DF93F82E092F162FEBEEF6E08491AB
:102AF000EF012196882319F02ADCFE01F8CFEF2D93
:102B0000F02F8491EF012196882319F020DCFE013B
:102B1000F8CFE9EEF6E08491EF012196882319F0D1
:102B200016DCFE01F8CF612F70E080E090E08BDFD3
:102B30008AE0DF91CF911F910F91FF9008CC4F92C7
:102B40005F926F927F928F929F92AF92BF92CF923D
:102B5000DF92EF92FF92CF93DF932091D8023091D2
:102B6000D9024091DA025091DB026091F405709134
:102B7000F5058091F6059091F7050E949678AB01D6
:102B8000BC0186EE96E00E94754C2091DC023091EB
:102B9000DD024091DE025091DF026091F8057091F4
:102BA000F9058091FA059091FB050E949678AB019A
:102BB000BC0182EE96E00E94754C2091E0023091BB
:102BC000E1024091E2025091E3026091FC057091B4
:102BD000FD058091FE059091FF050E949678AB015E
:102BE000BC018EED96E00E94754C4091000650911C
:102BF000010660910206709103068AED96E00E943C
:102C0000754C80916F00982F927081FF05C0809164
:102C10006F008D7F80936F00409076025090770216
:102C2000609078027090790280907A0290907B0296
:102C3000A0907C02B0907D02C0907E02D0907F0276
:102C4000E0908002F0908102992329F080916F003A
:102C5000826080936F00E0EDF6E08491EF012196B1
:102C6000882319F074DBFE01F8CFC301B201EBDE5B
:102C7000ECECF6E08491EF012196882319F067DBF4
:102C8000FE01F8CFC501B401DEDEE8ECF6E0849188
:102C9000EF012196882319F05ADBFE01F8CFC70116
:102CA000B601D1DE8AE0DF91CF91FF90EF90DF9007
:102CB000CF90BF90AF909F908F907F906F905F90DC
:102CC0004F9045CB8F929F92AF92BF92CF92DF925F
:102CD000EF92FF92CF936B017C01B42E20E030E0A5
:102CE000A9010E94827487FF06C08DE230DBF7FAEB
:102CF000F094F7F8F094C0E060E070E080E09FE3CB
:102D0000CB1541F02DEC3CEC4CEC5DE30E94E774FC
:102D1000CF5FF6CF9B01AC01C701B6010E94967848
:102D20006B017C010E94DF794B015C014AE0E4DD2C
:102D3000CC2379F1C501B4010E9486749B01AC01DA
:102D4000C701B6010E9495786B017C018EE2FFDA23
:102D500020E030E040E251E4C701B6010E94E77490
:102D60004B015C010E94DA796B01770FEE08FF08D6
:102D7000C701B60168DEC701B6010E9488749B01D5
:102D8000AC01C501B4010E9495786B017C01C15072
:102D9000F9F6CF91FF90EF90DF90CF90BF90AF907A
:102DA0009F908F9008951F920F920FB60F9211244B
:102DB0000BB60F922F938F939F93EF93FF932091D6
:102DC0009005E0918F0581E08E0F8F779091C6007E
:102DD000281729F0F0E0E15FFA4F9083E82FE093A5
:102DE0008F05FF91EF919F918F912F910F900BBEC7
:102DF0000F900FBE0F901F9018952F923F924F92F9
:102E00005F926F927F928F929F92AF92BF92CF927A
:102E1000DF92EF92FF920F931F93CF93DF93CDB783
:102E2000DEB72F970FB6F894DEBF0FBECDBFF89474
:102E30008FEF9FEF9093890080938800BAE0DB2E9C
:102E40001F861E8678948091D5059091D605A09115
:102E5000D705B091D805892B8A2B8B2B09F0C5C1DA
:102E60008091C50C8823D1F01092C50C8091C30CC1
:102E70009091C40C892B91F0109296051092C40C7D
:102E80001092C30C9091ED0E8091EE0E981731F0D8
:102E90008091EE0E8F5F8F708093EE0E8091C30C49
:102EA0009091C40C892B09F4A0C10091D105109117
:102EB000D2052091D3053091D4058091CD05909114
:102EC000CE05A091CF05B091D0054091C40550E04A
:102ED00060E070E0801B910BA20BB30B4817590701
:102EE0006A077B0710F4DB01CA01482F800F911F8E
:102EF000A21FB31F8093D1059093D205A093D30551
:102F0000B093D40580918400909185004C96809078
:102F1000AB059090AC05A090AD05B090AE050091CA
:102F20009B0510919C0520919D0530919E05080DF3
:102F3000191D2A1D3B1D0093AB051093AC05209372
:102F4000AD053093AE0537FD1CC0409A0091760266
:102F500010917702209178023091790280901502C9
:102F6000082C000C9908AA08BB08080D191D2A1D79
:102F70003B1D0093760210937702209378023093E2
:102F800079028090AF059090B005A090B105B09007
:102F9000B20500919F051091A0052091A1053091E7
:102FA000A205080D191D2A1D3B1D0093AF051093A6
:102FB000B0052093B1053093B20537FD1CC0419A8E
:102FC00000917A0210917B0220917C0230917D0267
:102FD00080901602082C000C9908AA08BB08080D5E
:102FE000191D2A1D3B1D00937A0210937B0220932A
:102FF0007C0230937D028090B3059090B405A09040
:10300000B505B090B6050091A3051091A4052091D7
:10301000A5053091A605080D191D2A1D3B1D00931D
:10302000B3051093B4052093B5053093B60537FD6D
:103030001CC0429A00917E0210917F022091800272
:103040003091810280901702082C000C9908AA0880
:10305000BB08080D191D2A1D3B1D00937E0210930D
:103060007F0220938002309381028090B705909078
:10307000B805A090B905B090BA050091A7051091C8
:10308000A8052091A9053091AA05080D191D2A1D32
:103090003B1D0093B7051093B8052093B9053093F5
:1030A000BA0537FD1CC0439A009182021091830239
:1030B000209184023091850280901802082C000C27
:1030C0009908AA08BB08080D191D2A1D3B1D00936D
:1030D0008202109383022093840230938502009130
:1030E000AB051091AC052091AD053091AE0537FDD3
:1030F00015C08090970590909805A0909905B09084
:103100009A05081919092A093B090093AB05109380
:10311000AC052093AD053093AE0540980091AF0506
:103120001091B0052091B1053091B20537FD15C061
:103130008090970590909805A0909905B0909A0579
:10314000081919092A093B090093AF051093B00526
:103150002093B1053093B20541980091B3051091C9
:10316000B4052091B5053091B60537FD15C08090A6
:10317000970590909805A0909905B0909A05081928
:1031800019092A093B090093B3051093B40520934C
:10319000B5053093B60542980091B7051091B80572
:1031A0002091B9053091BA0537FD15C0809097057B
:1031B00090909805A0909905B0909A050819190962
:1031C0002A093B090093B7051093B8052093B90568
:1031D0003093BA054398415041F0209184003091DA
:1031E000850028173907C8F392CE8091D5059091B4
:1031F000D605A091D705B091D805892B8A2B8B2BAA
:1032000009F0CEC5E091C30CF091C40C309709F4DD
:103210004DC78091D1059091D205A091D305B09171
:10322000D4054091CD055091CE056091CF057091A8
:10323000D00584179507A607B707D0F0109296051A
:103240001092C40C1092C30C9091ED0E8091EE0E72
:10325000981709F42BC78091EE0E8F5F8F708093C3
:10326000EE0EA0ED4A2EA7E05A2E612C712CE5C37C
:103270004091C9055091CA056091CB057091CC056C
:10328000481759076A077B0708F4A4C18090C50551
:103290009090C605A090C705B090C80586A997A9CB
:1032A000A0ADB1AD88169906AA06BB0608F076C196
:1032B00081149104A104B10449F480919205909184
:1032C0009305A0919405B091950564C1B0E0AC2D33
:1032D000882D392D2A2DF981EA817B816C815D81D0
:1032E0004E819F815091BF0C589F712D6627409150
:1032F000C00C489F700D611D1090C10C189E600D90
:10330000539F700D611D439F600D529F600DF72FFD
:10331000E62FF79F512D44279927F69F500D411D09
:103320009B1FE79F500D411D9B1FE69F400D911D68
:10333000F42FE92FF79FA12D44279927F69FA00D81
:10334000411D9B1FE79FA00D411D9B1FE69F400D48
:10335000911DF42FE92F5527809192053091930507
:10336000209194050090A6040B2A09F483C0409193
:10337000A2044F9F51198B0B3B0B2B0B9091A30475
:103380009F9F501981093B0B2B0BA091A404AF9F69
:10339000801931092B0B4E9F501981093B0B2B0BC8
:1033A0009E9F801931092B0BAE9F30192109F79F81
:1033B000A12D44279927F69FA00D411D9B1FE79F34
:1033C000A00D411D9B1FE69F400D911DF42FE92F7D
:1033D00040919E044F9F510D8B1F3B1F2B1F9091BF
:1033E0009F049F9F500D811D3B1F2B1FA091A00488
:1033F000AF9F800D311D2B1F4E9F500D811D3B1F18
:103400002B1F9E9F800D311D2B1FAE9F300D211D48
:10341000F79FA12D44279927F69FA00D411D9B1FC3
:10342000E79FA00D411D9B1FE69F400D911DF42FAE
:10343000E92F40919A044F9F51198B0B3B0B2B0B9B
:1034400090919B049F9F501981093B0B2B0BA091DE
:103450009C04AF9F801931092B0B4E9F5019810995
:103460003B0B2B0B9E9F801931092B0BAE9F301904
:10347000210982C04091A2044F9F510D8B1F3B1F19
:103480002B1F9091A3049F9F500D811D3B1F2B1F4D
:10349000A091A404AF9F800D311D2B1F4E9F500D96
:1034A000811D3B1F2B1F9E9F800D311D2B1FAE9F2B
:1034B000300D211DF79FA12D44279927F69FA00DC0
:1034C000411D9B1FE79FA00D411D9B1FE69F400DC7
:1034D000911DF42FE92F40919E044F9F51198B0BA2
:1034E0003B0B2B0B90919F049F9F501981093B0B25
:1034F0002B0BA091A004AF9F801931092B0B4E9F7D
:10350000501981093B0B2B0B9E9F801931092B0B06
:10351000AE9F30192109F79FA12D44279927F69FC7
:10352000A00D411D9B1FE79FA00D411D9B1FE69F06
:10353000400D911DF42FE92F40919A044F9F510D9A
:103540008B1F3B1F2B1F90919B049F9F500D811D34
:103550003B1F2B1FA0919C04AF9F800D311D2B1F83
:103560004E9F500D811D3B1F2B1F9E9F800D311DB7
:103570002B1FAE9F300D211D1124CA2EF983EA8323
:103580007B836C835D834E839F8390E0932BA0E0CD
:10359000B0E0A22B23E33FE011E011C082A993A980
:1035A000A4A9B5A9F7CFB695A79597958795110FBB
:1035B0002C5F3F4F4FE02F34340709F446C4F90124
:1035C0004591559165917491481759076A077B0792
:1035D00050F33BC44091C0055091C1056091C205B4
:1035E0007091C305481759076A077B0708F0B8C1EF
:1035F0008091BF0581111FC0DF01AE5BBF4FED9011
:10360000FD900D911C9113971D962D913D914D911B
:103610005C9162A973A984A995A90E94804B51E08D
:103620005093BF05E091C30CF091C40C82A893A8FD
:10363000A4A8B5A886C18091BB059091BC05A091B6
:10364000BD05B091BE0542AD53AD64AD75AD8417F7
:103650009507A607B70708F06EC10097A105B10549
:1036600049F48090920590909305A0909405B090B5
:10367000950567C130E04885882E292F8A2FE98576
:103680007A856B855C859D859091BF0C989D612D99
:1036900055272090C00C289C600D511D1090C10C26
:1036A000189C500D929F600D511D229E500D989FA9
:1036B000500DE62F752FE69F912D22243324E59F90
:1036C000900D211C331E769F900D211C331E759F7B
:1036D000200C311CE22D732DE69F412D2224332432
:1036E000E59F400D211C331E769F400D211C331E8B
:1036F000759F200C311CE22D732D99278090920527
:1037000020919305809194050090A604032A09F462
:1037100083C02090A2042E9E9119830A230B830B51
:103720003090A3043E9E90198108230B830B409197
:10373000A4044E9F80182109830B279E90198108AD
:10374000230B830B379E80182109830B479F201979
:103750008109E69F412D22243324E59F400D211C41
:10376000331E769F400D211C331E759F200C311C8B
:10377000E22D732D20909E042E9E910D831E231FFB
:10378000831F30909F043E9E900D811C231F831F3A
:103790004091A0044E9F800C211D831F279E900DF9
:1037A000811C231F831F379E800C211D831F479F71
:1037B000200D811DE69F412D22243324E59F400DDD
:1037C000211C331E769F400D211C331E759F200C3B
:1037D000311CE22D732D20909A042E9E9119830A9C
:1037E000230B830B30909B043E9E90198108230B82
:1037F000830B40919C044E9F80182109830B279EC8
:1038000090198108230B830B379E80182109830BA5
:10381000479F2019810982C02090A2042E9E910DFD
:10382000831E231F831F3090A3043E9E900D811C96
:10383000231F831F4091A4044E9F800C211D831FD2
:10384000279E900D811C231F831F379E800C211DF6
:10385000831F479F200D811DE69F412D2224332485
:10386000E59F400D211C331E769F400D211C331E09
:10387000759F200C311CE22D732D20909E042E9EEE
:103880009119830A230B830B30909F043E9E90195D
:103890008108230B830B4091A0044E9F80182109BF
:1038A000830B279E90198108230B830B379E80186A
:1038B0002109830B479F20198109E69F412D22246E
:1038C0003324E59F400D211C331E769F400D211CA3
:1038D000331E759F200C311CE22D732D20909A040D
:1038E0002E9E910D831E231F831F30909B043E9EAE
:1038F000900D811C231F831F40919C044E9F800CC0
:10390000211D831F279E900D811C231F831F379E1F
:10391000800C211D831F479F200D811D1124488786
:10392000E9877A876B875C879D87912C922AA12CE7
:10393000B12CA82A06C0E15BFF4F80809180A28055
:10394000B38083E39FE021E0FC01459155916591AF
:103950007491481559056A057B0508F4D9C2E3C27C
:1039600080911A0290911B02A0911C02B0911D023D
:10397000B7FF5BC0E95BFF4F80809180A280B3807E
:1039800083E39FE021E0FC0145915591659174919D
:10399000481559056A057B0550F4B694A794979489
:1039A0008794220F0496AFE08F349A0761F7209333
:1039B000C405B0E28B169104A104B10408F447C316
:1039C00020E2821A9108A108B108811438E0930618
:1039D000A104B10408F417C344E0949EC00111246B
:1039E0008D5C944FFC01329625913491782D662799
:1039F000739FA001729F410D561F0694461F561FCC
:103A0000112460E070E0FC0125913491C901A0E02F
:103A1000B0E0841B950BA60BB70B80931A02909312
:103A20001B02A0931C02B0931D0240901A025090FA
:103A30001B0260901C0270901D028091C30C90913B
:103A4000C40C892B09F0A4C10E94234C9093C40C90
:103A50008093C30C892B09F49BC1E091C30CF091B6
:103A6000C40C808183FF3EC085899689A789B08D6B
:103A70008093760290937702A0937802B0937902B4
:103A8000818D928DA38DB48D80937A0290937B0269
:103A9000A0937C02B0937D02858D968DA78DB0A1F9
:103AA00080937E0290937F02A0938002B093810264
:103AB00081A192A1A3A1B4A18093820290938302D9
:103AC000A0938402B09385029091ED0E8091EE0E4A
:103AD000981709F4B9CF8091EE0E8F5F8F708093A5
:103AE000EE0EB2CF058916892789308D81E0011548
:103AF00011052105310509F480E0818C928CA38C9D
:103B0000B48C81149104A104B10409F08260458D44
:103B1000568D678D70A1411551056105710509F03C
:103B20008460809396051092BB051092BC0510929C
:103B3000BD051092BE051092C5051092C6051092E3
:103B4000C7051092C80585A196A1A7A1B0A580932D
:103B5000CD059093CE05A093CF05B093D005442416
:103B600055243201481A590A6A0A7B0A4092B7055D
:103B70005092B8056092B9057092BA054092B305AB
:103B80005092B4056092B5057092B6054092AF05AB
:103B90005092B0056092B1057092B2054092AB05AB
:103BA0005092AC056092AD057092AE05000F111FEA
:103BB000221F331F00939B0510939C0520939D05A6
:103BC00030939E05880C991CAA1CBB1C80929F05F3
:103BD0009092A005A092A105B092A205440F551F96
:103BE000661F771F4093A3055093A4056093A50516
:103BF0007093A60541A152A163A174A1440F551F62
:103C0000661F771F4093A7055093A8056093A905E9
:103C10007093AA05880F991FAA1FBB1F8093970551
:103C200090939805A0939905B0939A051092D105A9
:103C30001092D2051092D3051092D40582A593A5B7
:103C4000A4A5B5A58093C9059093CA05A093CB05FB
:103C5000B093CC0586A597A5A0A9B1A98093C0056E
:103C60009093C105A093C205B093C30541A5EA5B3B
:103C7000FF4F50818091910558130AC0809119021D
:103C800090E0242F042E000C330B2817390731F055
:103C900050939105409319020E94D24B0E944B2AE7
:103CA0008FEF9FEFDC0180931A0290931B02A09389
:103CB0001C02B0931D02E091C30CF091C40CDF0113
:103CC000DE96ED90FD900D911C9122A933A944A997
:103CD00055A9E55BFF4F60817181828193810E94CC
:103CE000804B1092BF05E091C30CF091C40CE55BD2
:103CF000FF4F80809180A280B38083E39FE021E02A
:103D0000FC014591559165917491481559056A05D5
:103D10007B0558F4B694A79497948794220F049641
:103D20004FE45FE04817590759F72093C40550E264
:103D300085169104A104B10408F4B2C190E2891A75
:103D40009108A108B1088114A8E09A06A104B10461
:103D500008F483C1B4E09B9EC00111248D5C944F94
:103D6000FC01329625913491782D6627739FA0012E
:103D7000729F410D561F0694461F561F1124FC01C9
:103D800045905490612C712C441A550A61087108B1
:103D90004092D5055092D6056092D7057092D8050D
:103DA0008091D5059091D605A091D705B091D80501
:103DB000AC01BD01009721E0A207B10520F04FEF53
:103DC0005FEF60E070E0841B950BA60BB70B809350
:103DD000D5059093D605A093D705B093D805F89450
:103DE00080918400909185004096DA94DD2059F00E
:103DF000AE85BF85A40FB51FBF87AE87A817B907CB
:103E000008F420C802C09F878E872E853F85309397
:103E100089002093880078942F960FB6F894DEBF1F
:103E20000FBECDBFDF91CF911F910F91FF90EF900B
:103E3000DF90CF90BF90AF909F908F907F906F90CA
:103E40005F904F903F902F9008951093C40580325B
:103E50009105A105B10508F456C08097A109B109E3
:103E6000811528E09207A105B105F0F044E0949F88
:103E7000900111242D5C344FF901329645915491F3
:103E8000EE27859FB001849F610D7E1F06946E1FF3
:103E90007E1F1124F90145905490612C712C461A13
:103EA000570A6108710822C0AC01BD01769567957B
:103EB00057954795FA01EC7FAF014D5C584FFA01D9
:103EC00025913491FA013296659174918770869F9D
:103ED000A001879F500D1124F3E056954795FA9560
:103EE000E1F72901441A550A612C712C840C951CA8
:103EF000A61CB71C8092C5059092C605A092C70566
:103F0000B092C8059ACD80E290E0A0E0B0E0A5CFE5
:103F1000B694A79497948794220F04965FE08F3409
:103F2000950709F011CD2093C40570E2871691041E
:103F3000A104B10408F461C070E2871A9108A108D5
:103F4000B108811488E09806A104B104F8F0A4E057
:103F50009A9EC00111248D5C944FFC0132962591EC
:103F60003491B82D6627B39FA001B29F410D561F13
:103F70000694461F561F1124FC0145905490612C55
:103F8000712C441A550A6108710822C0D501C40178
:103F9000B695A79597958795FC01EC7FCF018D5C31
:103FA000984FFC0145905490FC0132962591349134
:103FB000482D4770429FC001439F900D112463E03C
:103FC000969587956A95E1F7481A590A612C712CE4
:103FD0008091BB059091BC05A091BD05B091BE0537
:103FE000840D951DA61DB71D8093BB059093BC0540
:103FF000A093BD05B093BE0520CD60E2862E912C26
:10400000A12CB12C99CFD501C401B695A795979550
:104010008795FC01EC7FCF018D5C984FFC012591C9
:104020003491FC01329645915491682D6770649FDC
:10403000C001659F900D112443E0969587954A95A0
:10404000E1F7281B390BC901A0E0B0E0E6CC40E263
:10405000842E912CA12CB12CB3CCD501C401B695E2
:10406000A79597958795FC01EC7FCF018D5C984FC4
:10407000FC0145905490FC01329625913491482DD5
:104080004770429FC001439F900D1124A3E0969575
:104090008795AA95E1F7481A590A612C712C78CEB8
:1040A00090E2892E912CA12CB12C48CE80ED482E87
:1040B00087E0582E612C712CC7CCCF92DF92EF9203
:1040C000FF92CF93DF93EC01C090E402D090E50221
:1040D000E090E602F090E702A701960168817981FD
:1040E0008A819B810E94827487FF04C0C882D98222
:1040F000EA82FB82C090E802D090E902E090EA02F6
:10410000F090EB02A70196016C817D818E819F81E9
:104110000E94827487FF04C0CC82DD82EE82FF821F
:10412000C0900502D0900602E0900702F0900802CD
:10413000A7019601688179818A819B810E94BC7A5E
:10414000181624F4C882D982EA82FB82C090090240
:10415000D0900A02E0900B02F0900C02A7019601A9
:104160006C817D818E819F810E94BC7A181624F417
:10417000CC82DD82EE82FF82C090EC02D090ED0214
:10418000E090EE02F090EF02A70196016885798534
:104190008A859B850E94827487FF04C0C886D98661
:1041A000EA86FB86C0900D02D0900E02E0900F02CE
:1041B000F0901002A7019601688579858A859B8514
:1041C0000E94BC7A181624F4C886D986EA86FB8633
:1041D000DF91CF91FF90EF90DF90CF900895CF9334
:1041E000DF93E4E5F5E08491EF012196882321F047
:1041F0000E94A711FE01F7CF8AE0DF91CF910C94C6
:10420000A7114F925F926F927F928F929F92AF927F
:10421000BF92DF92EF92FF920F931F93CF93DF93A2
:10422000D82EC82FD0E0FE01E65AFB4F64917E01E4
:10423000EE0CFF1CEE0CFF1CF701EE5AFE4E4590F3
:10424000559065907490062E000C770B880B990B97
:104250000E9488744B015C0120E030E040EC5FE399
:10426000C301B2010E94E774A50194010E94E774A2
:10427000AB01BC0100E010E098018D2D0E94C40F3D
:10428000F701EA5BFE4E2591359145915491C501A8
:10429000B4010E94E7744B015C0120E030E0A90109
:1042A0000E948274882309F447C000E010E098015E
:1042B000B501A40170588D2D0E94C40FFE01ED5B65
:1042C000FE4E6491611117C0E0E6F6E18491EF01C2
:1042D0002196882321F00E94A711FE01F7CFE1E289
:1042E000F1E18491EF012196882321F00E94A7112A
:1042F000FE01F7CF6AE0F701EA5EF94E459055906E
:104300006590749070E080E090E00E9488749B015A
:10431000AC01C301B2010E9472792B013C01A501DD
:104320009401C501B4010E949678AB01BC019301D0
:1043300082018D2D0E94C40F81E090E00D2C01C000
:10434000880F0A94EAF79091A202982B9093A20208
:104350009091E305892B8093E305F701EA57FD4F20
:1043600010821182128213828D2D0E94470FF70155
:10437000E05DFB4F85919591A591B491E701CC50FB
:10438000DA4F88839983AA83BB830E94870FF70142
:10439000EC51FA4F88819981AA81BB8180839183F6
:1043A000A283B383DF91CF911F910F91FF90EF9084
:1043B000DF90BF90AF909F908F907F906F905F90B5
:1043C0004F900895CF93DF938A589F4FFC01C0818F
:1043D000D181862F0E946848BE018FE091E10E9442
:1043E000924C8AE0DF91CF910C94A7110C94D53FA9
:1043F000EF92FF920F931F93CF93DF931F921F9221
:10440000CDB7DEB782E08093C0001092C50087E090
:104410008093C4008091C10080618093C10080912D
:10442000C10088608093C1008091C1008068809342
:10443000C100E8E0F1E184918F010F5F1F4F8823F5
:1044400021F00E94A711F801F6CFE0E6F6E1849191
:104450008F010F5F1F4F882321F00E94A711F801E1
:10446000F6CF989AA09A9A9AA29A809107018062B0
:1044700080930701809108018095807280930601E6
:1044800080910701806180930701809108018095E8
:1044900080718093060114B710FF0DC0EFEFF0E1BB
:1044A00084917F019FEFE91AF90A882321F00E9485
:1044B000A711F701F5CF11FF0DC0EEEEF0E18491E9
:1044C0007F019FEFE91AF90A882321F00E94A711C2
:1044D000F701F5CF12FF0DC0ECEDF0E184917F0103
:1044E0009FEFE91AF90A882321F00E94A711F7012A
:1044F000F5CF13FF0DC0EBECF0E184917F019FEF4E
:10450000E91AF90A882321F00E94A711F701F5CFD3
:1045100015FF0CC0EAEBF0E184918F010F5F1F4F94
:10452000882321F00E94A711F801F6CF14BEE3EB17
:10453000F0E184918F010F5F1F4F882321F00E94CB
:10454000A711F801F6CF80E20E94A711E5EAF0E199
:1045500084918F010F5F1F4F882321F00E94A711C4
:10456000F801F6CF8AE00E94A711E0E6F6E1849117
:104570008F010F5F1F4F882321F00E94A711F801C0
:10458000F6CFE5E9F0E184918F010F5F1F4F88239B
:1045900021F00E94A711F801F6CFEAE8F0E184913A
:1045A0008F010F5F1F4F882321F00E94A711F80190
:1045B000F6CFE4E3F0E184918F010F5F1F4F882372
:1045C00021F00E94A711F801F6CFE0E6F6E1849110
:1045D0008F010F5F1F4F882321F00E94A711F80160
:1045E000F6CFEDE1F0E184918F010F5F1F4F88233B
:1045F00021F00E94A711F801F6CFE0E6F6E18491E0
:104600008F010F5F1F4F882321F00E94A711F8012F
:10461000F6CF2091130F3091140FCE010196211582
:10462000310519F489519F4002C0821B930B9A8374
:10463000898369817A818EE090E10E94924C60E1E9
:1046400076E087EF9FE00E94924C8AE00E94A711DB
:1046500081E080930103809302038093030380939E
:1046600004030E942B2F80E00E944D2B8CE0ECEC89
:10467000F2E0A4EFB5E001900D928A95E1F70E9477
:10468000870F6D9A80910101806280930101809172
:10469000010188608093010187ED80937A00109278
:1046A0007E0010927D0080917E00816080937E006C
:1046B00080E888BD80916E00846080936E006AEF10
:1046C00070E080E090E00E94F75985E090E09093E0
:1046D000D30C8093D20C60E080912B0290912C023D
:1046E0000E94D54820E030E040EA50E40E94827405
:1046F00087FF0AC080912B0290912C0240979093E3
:104700002C0280932B02E7CF83E191E0909331025A
:104710008093300260E08091AB0C9091AC0C0E94D1
:10472000D54820E030E849E853E40E94BC7A1816E6
:1047300054F48091AB0C9091AC0C40969093AC0CDF
:104740008093AB0CE7CF0E94EC57809107018B7FE1
:104750008093070180910801809584708093060101
:10476000809107018F7780930701809108018095E0
:1047700080788093060124982C9A80916D00846043
:1047800080936D00DA9A809168008460809368005D
:1047900080916D00806880936D00DA9A8091680046
:1047A00084608093680080916B00806180936B00CF
:1047B000D89A809168008160809368001092B4025A
:1047C0001092B30268D680910A01816080930A0139
:1047D00080910A01826080930A0180910A018460BD
:1047E00080930A0180910A01806480930A010F9AE4
:1047F000179A0E9A169A0D9A159A0C9A149A389A34
:104800004098179A8091A2028E7F8093A202399AD3
:104810004198169A8091A2028D7F8093A2023A9AC3
:104820004298159A8091A2028B7F8093A2023B9AB4
:104830004398149A809180008C7F809380008091AF
:104840008100877E886080938100809180008F73D3
:104850008093800080918100887F826080938100B6
:1048600080E090E490938900809388001092850006
:104870001092840080916F00826080936F0081E0CD
:104880008093B40208D678940E94D24B98E288E1D3
:104890000FB6F894A895809360000FBE90936000C7
:1048A0000F900F90DF91CF911F910F91FF90EF909C
:1048B0000895179A8091A2028E7F8093A202169A81
:1048C0008091A2028D7F8093A202159A8091A2020C
:1048D0008B7F8093A202149A0895E0EEFCE184910C
:1048E000EF012196882321F00E94A711FE01F7CF46
:1048F000E7EDFFE08491EF012196882321F00E94EB
:10490000A711FE01F7CF0E94204BD3DF2FEF8BE4DE
:104910009DE1215080409040E1F700C00000F894F4
:104920002FEF84E39CE0215080409040E1F700C0ED
:1049300000000E94204BA895FECF2F923F924F92ED
:104940005F926F927F928F929F92AF92BF92CF921F
:10495000DF92EF92FF920F931F93CF93DF9300D0DC
:104960001F92CDB7DEB70E942F5A6B017C01809158
:104970000002882309F47BC080910A03882309F48C
:1049800076C04091DA055091DB056091DC057091AD
:10499000DD0597018601041B150B260B370B37FD30
:1049A00079C0833051F134F481300CF460C0E0E61A
:1049B000F6E106C0843009F05AC0E0E6F6E13BC0FB
:1049C00084918F010F5F1F4F1B830A83882329F077
:1049D0000E94A711EA81FB81F3CFE2E8FFE0849116
:1049E0008F010F5F1F4F1B830A83882309F43FC089
:1049F0000E94A711EA81FB81F2CFE0E6F6E1849103
:104A00008F010F5F1F4F1B830A83882329F00E94A9
:104A1000A711EA81FB81F3CFEBE6FFE084918F01E0
:104A20000F5F1F4F1B830A83882309F10E94A71180
:104A3000EA81FB81F3CF84918F010F5F1F4F1B83AE
:104A40000A83882329F00E94A711EA81FB81F3CF12
:104A5000E3E5FFE084918F010F5F1F4F1B830A8303
:104A6000882329F00E94A711EA81FB81F3CF2091CE
:104A7000000230E0A8EEB3E00E948678C60ED71E92
:104A8000E81EF91EC092DA05D092DB05E092DC0543
:104A9000F092DD0580918D04843030F40E94091479
:104AA000811102C00E94D8120E942F5AC090A30206
:104AB000D090A402E090A502F090A602C114D10407
:104AC000E104F10489F100919C0210919D02209172
:104AD0009E0230919F020C0D1D1D2E1D3F1D6B016E
:104AE0007C01C01AD10AE20AF30AF7FC1DC0E0EE0D
:104AF000FCE184918F010F5F1F4F1B830A83882382
:104B000029F00E94A711EA81FB81F3CF6091920CFA
:104B10007091930C8DE99FE00E94AB4C8AE00E945B
:104B2000A71184E99FE0D9DEC0900102D090020273
:104B3000E0900302F0900402C114D104E104F104F6
:104B4000B1F13091ED0E2091EE0E321749F06093E5
:104B50009C0270939D0280939E0290939F0227C0B7
:104B600000919C0210919D0220919E0230919F0223
:104B70000C0D1D1D2E1D3F1DDC01CB01801B910B5B
:104B8000A20BB30BB7FD13C0179A8091A2028E7FC0
:104B90008093A202169A8091A2028D7F8093A20236
:104BA000159A8091A2028B7F8093A202149A909111
:104BB000ED0E8091EE0E981306C060916006109184
:104BC000620619831DC0E091EE0E81E68E9FF00112
:104BD0001124E054F94F6081E091EE0E8E9FF001B8
:104BE0001124EE53F94FC080C9828091EE0E80915E
:104BF000EE0E9091ED0E981719F08F5F8F70F9CF30
:104C000070E088E00E942F59D9806D2D70E086E019
:104C10000E942F598091AA0C882309F4F7C00091B3
:104C2000360210913702E0903802EC82F09039029F
:104C3000FA826091A0027091A1026E5F7F4F072EF1
:104C4000000C880B990B0E9488749801A7010E94A0
:104C5000827487FDDBC0F090EE0E212C312CE12C0C
:104C600019828091ED0E8F1509F460C08F2D90E0B0
:104C700021E6289FF001299FF00D1124E759F94FF3
:104C8000458956896789708D452B462B472B81F4C2
:104C9000418D528D638D748D452B462B472B41F4EE
:104CA000458D568D678D70A1452B462B472BC9F13D
:104CB00041E6489F9001499F300D1124C901875951
:104CC000994F6C01FC0161817281838194810E9402
:104CD000017B4B015C01F60161A172A183A194A14A
:104CE0000E9486742B013C01F60165A176A187A183
:104CF00090A50E9486749B01AC01C301B2010E9481
:104D00007279A50194010E94E7745B016C01910125
:104D10004E2D59810E94BC7A18161CF41501EC2CFA
:104D2000D98281E08F0D8F70F82E9BCF20913A02AF
:104D300030913B0240913C0250913D02B1018E2DD9
:104D400099810E94E77498014C815A810E9496785B
:104D50006B017C019B01AC01B8018C819A810E949E
:104D6000BC7A1816B4F00091320210913302F0911F
:104D70003402FC83209135022A8398014F2F5A81F7
:104D8000B601C7010E94BC7A18161CF08601EC829D
:104D9000FA82C090DE05D090DF05E090E005F0904B
:104DA000E10598014C815A81C701B6010E94BC7A85
:104DB0001816D4F420E037ED43EA5CE3B8018C81A7
:104DC0009A810E94E7744B015C0128E431EE4AE7C6
:104DD0005FE3C701B6010E94E774A50194010E9438
:104DE00096788B018C839A83C801AC81BA818093B9
:104DF000DE059093DF05A093E005B093E105B801CF
:104E0000CD010E94DA79CB010E94104B0E94F05034
:104E100080919B02882309F444C00E942F5A00917C
:104E20009702109198022091990230919A02DC0128
:104E3000CB01801B910BA20BB30BB7FD32C00E94BC
:104E40002F5A6B017C0120919B0230E0A8EEB3E069
:104E50000E948678C60ED71EE81EF91EC0929702E1
:104E6000D0929802E0929902F0929A020E946949C7
:104E70008AE00F900F900F900F90DF91CF911F91CC
:104E80000F91FF90EF90DF90CF90BF90AF909F90E9
:104E90008F907F906F905F904F903F902F900C94E9
:104EA000A7110F900F900F900F90DF91CF911F914E
:104EB0000F91FF90EF90DF90CF90BF90AF909F90B9
:104EC0008F907F906F905F904F903F902F900895BC
:104ED0001F93CF93DF93182F6115710519F4E7E144
:104EE000F4E10AC0FB018491EF0121968823B9F314
:104EF0000E94A711FE01F7CF8491EF01219688232C
:104F000021F00E94A711FE01F7CF111103C0E2E1C9
:104F1000F4E102C0E8E0F4E18491EF0121968823F6
:104F200021F00E94A711FE01F7CF8AE0DF91CF9117
:104F30001F910C94A711CF93DF93E1EBF1E18491E2
:104F4000EF012196882321F00E94A711FE01F7CFDF
:104F5000DF91CF9108952F923F924F925F926F927F
:104F60007F928F929F92AF92BF92CF92DF92EF92F9
:104F7000FF920F931F93CF93DF93CDB7DEB76C975C
:104F80000FB6F894DEBF0FBECDBF8C015B015A8314
:104F90004983FC01E95BFF4F2081318142815381CC
:104FA0002D8B3E8B4F8B588FCA01B9010E9486749E
:104FB0006B017C01D5012D913D914D915C910E9439
:104FC000E7740E945C790E94DF796D877E878F8706
:104FD000988BE981FA812081318142815381C70117
:104FE000B6010E94E7740E945C790E94DF79698BA8
:104FF0007A8B8B8B9C8B2D853E854F8558892837E6
:1050000031054105510540F448E750E060E070E0AB
:105010004D875E876F87788B69897A898B899C89B0
:10502000683771058105910540F488E790E0A0E0BC
:10503000B0E0898B9A8BAB8BBC8BF801ED5AFF4F9C
:1050400020813181428153812D833E834F83588754
:10505000CA01B9010E9488742B013C016D857E85CF
:105060008F8598890E94867469877A878B879C8749
:1050700020E030E0A901C301B2010E9482748823BC
:1050800029F1A7019601C701B6010E94E7744B01FF
:105090005C0129853A854B855C85CA01B9010E946E
:1050A000E7749B01AC01C501B4010E9495784B01E6
:1050B0005C01A3019201C301B2010E9496789B0199
:1050C000AC01C501B4010E94727903C060E070E0D8
:1050D000CB010E945C790E94DF7969837A838B839C
:1050E0009C836D817E818F81988590958095709548
:1050F00061957F4F8F4F9F4F0E9488744B015C01D9
:1051000069897A898B899C890E9486746D837E83E4
:105110008F83988720E030E0A901C501B4010E9487
:105120008274882349F12D813E814F815885CA01BF
:10513000B9010E94E774698F7A8F8B8F9C8FA701CA
:105140009601C701B6010E94E7749B01AC01698D0D
:105150007A8D8B8D9C8D0E9495786B017C01A501C9
:105160009401C501B4010E9496789B01AC01C7016E
:10517000B6010E94727903C060E070E0CB010E942A
:105180000B7AD80195968D909D90AD90BC90989794
:105190007501640129813A814B815C81C21AD30A6D
:1051A000E40AF50A0E94DF79C61AD70AE80AF90A62
:1051B000F7FEA1C020E030E0A901C301B2010E94C6
:1051C0008274882309F443C0C501B4010E94867427
:1051D0006B017C01A3019201C301B2010E94967888
:1051E0009B01AC01C701B6010E94E7746B017C0111
:1051F00029853A854B855C85CA01B9010E94E7740F
:105200009B01AC01C701B6010E9495786B017C013E
:105210002D813E814F815885CA01B9010E94E774F2
:105220009B01AC01C701B6010E9496786B017C011D
:1052300020E030E040E850E4C301B2010E94E7748E
:105240009B01AC01C701B6010E94727903C060E006
:1052500070E0CB010E945C797B018D83998320E013
:1052600030E0A9010E94BC7A181624F0E12CF12C40
:105270001D821982B7018D8199810E94DF7969832E
:105280007A838B839C8386169706A806B90620F43A
:1052900089829A82AB82BC82A3019201C301B201CE
:1052A0000E9496786B017C0169817A818B819C8157
:1052B0000E9486749B01AC01C701B6010E94E7748D
:1052C0006B017C0129853A854B855C85CA01B90152
:1052D0000E94E7749B01AC01C701B6010E94967859
:1052E0000E94017B0E94DF796D8B7E8B8F8B988F64
:1052F000C12CD12C76016D897E898F89988D2D8561
:105300003E854F855889621B730B840B950B0E9459
:105310008674A30192010E94727920E034E244EF86
:1053200059E40E94E7740E94DF794B015C016D89AA
:105330007E898F89988D29893A894B895C89621B7E
:10534000730B840B950B0E948674A30192010E943B
:10535000727920E034E244EF59E40E94E7740E943D
:10536000DF792B013C013FE683169104A104B104CF
:1053700080F4F401EE0FFF1FEE0FFF1FEA5BFB4E00
:1053800085919591A591B4918D83292E3A2EB98757
:1053900008C0C501B4010E94C64C6D83272E382E6B
:1053A00099874FE6441651046104710470F4F201C8
:1053B000EE0FFF1FEE0FFF1FEA5BFB4E459155916D
:1053C000659174919A01CB0105C0C301B2010E949D
:1053D000C64C9B0149815A816B817C81D8019A9688
:1053E0004D935D936D937C939D974C0D5D1D6E1D4C
:1053F0007F1DF80146A757A760AB71ABE55BFF4F78
:105400004D855E856F857889408351836283738380
:10541000D6968D929D92AD92BC92D997F80142AEEC
:1054200053AE64AE75AEFE964D81408321823282CA
:1054300059855383349620833183828393836D8986
:105440007E898F89988DD2966D937D938D939C9351
:10545000D5973D9629893A894B895C892083318388
:10546000428353836C960FB6F894DEBF0FBECDBF58
:10547000DF91CF911F910F91FF90EF90DF90CF9030
:10548000BF90AF909F908F907F906F905F904F9064
:105490003F902F9008958091B402882309F45BC057
:1054A000909106018091E20592FD02C0816001C0E9
:1054B0008E7F8093E205909106018091E20597FD31
:1054C00002C0826001C08D7F8093E2058091E20579
:1054D0001C9902C0846001C08B7F8093E20580919B
:1054E000960580FF10C08091910580FF0CC08091CF
:1054F000E20580FF08C080918B04816080938B045B
:1055000080E00E943C588091960581FF10C08091F8
:10551000910581FF0CC08091E20581FF08C0809158
:105520008B04826080938B0481E00E943C588091C0
:10553000960582FF10C08091910582FF0CC080917A
:10554000E20582FF08C080918B04846080938B0405
:1055500082E00C943C580895CF93DF93ECE2F4E1A1
:105560008491882349F0CDE2D4E10E94A711FE0185
:10557000849121968111F9CF80910601C1E082FBCF
:10558000882780F966E274E18C27A2DC809106010D
:10559000809560E274E1881F8827881F99DC83B1B9
:1055A000829581706AE174E18C27DF91CF9190CC74
:1055B0001F920F920FB60F9211240BB60F922F93DA
:1055C0003F934F935F936F937F938F939F93AF938B
:1055D000BF93EF93FF935FDFFF91EF91BF91AF9187
:1055E0009F918F917F916F915F914F913F912F91FB
:1055F0000F900BBE0F900FBE0F901F9018951F922B
:105600000F920FB60F9211240BB60F922F933F9368
:105610004F935F936F937F938F939F93AF93BF93BA
:10562000EF93FF93C5DFFF91EF91BF91AF919F91F2
:105630008F917F916F915F914F913F912F910F903B
:105640000BBE0F900FBE0F901F9018951F920F92D8
:105650000FB60F9211240BB60F922F933F934F93D7
:105660005F936F937F938F939F93AF93BF93EF93CA
:10567000FF939EDFFF91EF91BF91AF919F918F912B
:105680007F916F915F914F913F912F910F900BBE42
:105690000F900FBE0F901F9018950F931F93CF93ED
:1056A000C82F882319F0EDEFF3E10CC0E0E6F6E136
:1056B00084918F010F5F1F4F8823A9F30E94A711C8
:1056C000F801F6CF84918F010F5F1F4F882321F0DF
:1056D0000E94A711F801F6CFE8EBF1E184918F0168
:1056E0000F5F1F4F882321F00E94A711F801F6CF0A
:1056F0008AE00E94A7118AE00E94A711C1112CC064
:10570000E0E6F6E184918F010F5F1F4F882321F0BF
:105710000E94A711F801F6CFEAEEF3E184918F0120
:105720000F5F1F4F882321F00E94A711F801F6CFC9
:105730008091B902882321F08AE00E94A7113AC023
:10574000EFEDF3E184918F010F5F1F4F882391F1FB
:105750000E94A711F801F6CF4091B5025091B60210
:105760006091B7027091B80286ED93E10E94754C8A
:105770008AE00E94A7118091B902811127C0CC2331
:1057800019F0EBECF3E10CC0E0E6F6E184918F0157
:105790000F5F1F4F8823A9F30E94A711F801F6CFCE
:1057A00084918F010F5F1F4F882381F00E94A71102
:1057B000F801F6CFE0E6F6E184918F010F5F1F4F0D
:1057C000882351F20E94A711F801F6CFC11124C01D
:1057D000E0E6F6E184918F010F5F1F4F882321F0EF
:1057E0000E94A711F801F6CFEAEBF3E184918F0153
:1057F0000F5F1F4F882321F00E94A711F801F6CFF9
:10580000E0E6F6E184918F010F5F1F4F882321F0BE
:105810000E94A711F801F6CF40917A0C50917B0CB1
:1058200060917C0C70917D0C82EB93E10E94754C31
:1058300040917E0C50917F0C6091800C7091810C96
:105840008FEA93E10E94754C4091820C5091830C39
:105850006091840C7091850C8CEA93E10E94754CE8
:105860004091860C5091870C6091880C7091890C46
:1058700089EA93E10E94754C8AE00E94A711C11148
:1058800024C0E0E6F6E184918F010F5F1F4F88236B
:1058900021F00E94A711F801F6CFEBE8F3E1849123
:1058A0008F010F5F1F4F882321F00E94A711F8017D
:1058B000F6CFE0E6F6E184918F010F5F1F4F88235A
:1058C00021F00E94A711F801F6CF409134065091C3
:1058D0003506609136067091370682E893E10E94A2
:1058E000754C409138065091390660913A06709196
:1058F0003B068FE793E10E94754C40913C06509126
:105900003D0660913E0670913F068CE793E10E9450
:10591000754C40914006509141066091420670914D
:10592000430689E793E10E94754C8AE00E94A71123
:10593000C11124C0E0E6F6E184918F010F5F1F4F93
:10594000882321F00E94A711F801F6CFE7E5F3E1E3
:1059500084918F010F5F1F4F882321F00E94A711B0
:10596000F801F6CFE0E6F6E184918F010F5F1F4F5B
:10597000882321F00E94A711F801F6CF4091BA02C6
:105980005091BB026091BC027091BD028EE493E124
:105990000E94584C4091BE025091BF026091C002DB
:1059A0007091C1028BE493E10E94584C4091C20275
:1059B0005091C3026091C4027091C50288E493E1E2
:1059C0000E94584C4091C6025091C7026091C80293
:1059D0007091C90285E493E10E94584C8AE00E94CC
:1059E000A711C11124C0E0E6F6E184918F010F5F99
:1059F0001F4F882321F00E94A711F801F6CFEBEF8B
:105A0000F2E184918F010F5F1F4F882321F00E94E4
:105A1000A711F801F6CFE0E6F6E184918F010F5F60
:105A20001F4F882321F00E94A711F801F6CF409163
:105A30002C0650912D0660912E0670912F0682EF54
:105A400092E10E94754C4091300650913106609170
:105A50003206709133068FEE92E10E94754C4091B0
:105A600028065091290660912A0670912B068CEE2B
:105A700092E10E94754C8AE00E94A711C1113FC0BB
:105A8000E0E6F6E184918F010F5F1F4F882321F03C
:105A90000E94A711F801F6CFE4EAF2E184918F01A8
:105AA0000F5F1F4F882321F00E94A711F801F6CF46
:105AB000E9E7F2E184918F010F5F1F4F882321F006
:105AC0000E94A711F801F6CFEAE6F2E184918F0176
:105AD0000F5F1F4F882321F00E94A711F801F6CF16
