:100000000C94340E0C94650E0C94650E0C94650ED5
:100010000C94650E0C94650E0C94650E0C94650E94
:100020000C94650E0C94650E0C94650E0C94650E84
:100030000C94650E0C94650E0C94650E0C94650E74
:100040000C94650E0C9487590C94650E0C94650EF7
:100050000C94650E0C94650E0C94D94F0C94604E64
:100060000C94650E0C94C7590C94650E0C94650E97
:100070000C94650E0C94650E0C94650E0C94650E34
:100080000C94650E0C94650E0C94650E0C94650E24
:100090000C94650E0C94650E0C94650E0C94650E14
:1000A0000C94650E0C94650E0C94650E0C94650E04
:1000B0000C94650E0C94650E0C94650E0C94650EF4
:1000C0000C94650E0C94650E0C94650E0C94650EE4
:1000D0000C94650E0C94650E0C94650E0C94650ED4
:1000E0000C94650E084AD73B3BCE016E84BCBFFD25
:1000F000C12F3D6C74319ABD56833DDA3D00C77FF8
:1001000011BED9E4BB4C3E916BAAAABE0000008090
:100110003F05A84CCDB2D44EB93836A9020C50B91F
:10012000918688083CA6AAAA2ABE000000803F004B
:100130004E414E494E495459494E46CDCCCC3D0ACC
:10014000D7233C17B7D13877CC2B329595E6241FAF
:10015000B14F0A000020410000C84200401C462068
:10016000BCBE4CCA1B0E5AAEC59D7410001900F0DF
:100170003F19004534004533004532004531004504
:1001800030005A32005932005832005A0059005893
:1001900000434F4D4D554E49434154494F4E004445
:1001A000525952554E004552524F525300494E46F5
:1001B0004F004543484F00656E7175657565696E02
:1001C000672022005072696E7465722073746F70BC
:1001D0007065642064756520746F206572726F723B
:1001E000732E2046697820746865206572726F727C
:1001F00020616E6420757365204D39393920746F24
:1002000020726573746172742E202854656D706558
:100210007261747572652069732072657365742EDE
:10022000205365742069742061667465722072655C
:100230007374617274696E67290A004E6F20436897
:1002400065636B73756D2077697468206C696E6582
:10025000206E756D6265722C204C617374204C6940
:100260006E653A2000636865636B73756D206D6918
:10027000736D617463682C204C617374204C696EDB
:10028000653A20004C696E65204E756D626572207E
:100290006973206E6F74204C617374204C696E65B5
:1002A000204E756D6265722B312C204C6173742069
:1002B0004C696E653A20004D3131300020496E7630
:1002C000616C6964206578747275646572200000E1
:1002D00000000000000000000000000000A042003C
:1002E0000048430000484350726F7465637465644E
:1002F0002050696E0A0020573A00205A3A002059CF
:100300003A0020436F756E7420583A0020453A0039
:10031000205A3A0020593A00583A003A0043617096
:100320003A00526573656E643A200020746F6F2046
:100330006C6F6E6720657874727573696F6E20706C
:10034000726576656E7465640A0020636F6C642064
:10035000657874727573696F6E2070726576656EFC
:100360007465640A00627573793A2070617573650B
:100370006420666F7220696E7075740A006275730E
:10038000793A2070617573656420666F72207573A9
:1003900065720A00627573793A2070726F636573D3
:1003A00073696E670A004B494C4C20636175736535
:1003B0006420627920746F6F206D75636820696EA8
:1003C0006163746976652074696D65202D2063759D
:1003D0007272656E7420636F6D6D616E643A200099
:1003E0002020506C616E6E65724275666665724261
:1003F000797465733A20002046726565204D656DFD
:100400006F72793A2000436F6D70696C65643A20B1
:1004100046656220313720323032300A00207C209D
:10042000417574686F723A20323032302D30322D7F
:1004300031372D4C756D656E580A00323031382DCC
:1004400030372D333100204C617374205570646156
:100450007465643A20006275676669782D312E31C3
:100460002E780A004D61726C696E0020536F6674BD
:10047000776172652052657365740A002057617454
:100480006368646F672052657365740A0020427266
:100490006F776E206F75742052657365740A002043
:1004A00045787465726E616C2052657365740A00DC
:1004B000506F77657255700A0073746172740A0028
:1004C000206472697665722063757272656E743A23
:1004D00020005761726E696E673A20486F6D696ED1
:1004E000672042756D702044697669736F72203C95
:1004F00020310A000202040000803F0000000000DA
:100500000000400000A04200004843000048436F44
:100510006B0048617264636F646564204465666162
:10052000756C742053657474696E6773204C6F61C9
:100530006465640A003200000032000000320000EE
:100540000032000000000020410000204100002097
:100550004100002041000048440000484400004899
:10056000440000484420204D3930360020286D6D6D
:100570002900205430204500205A002059002058DE
:1005800000537465707065722064726976657220BC
:1005900063757272656E743A0A0020440020490047
:1005A00020204D3330312050005049442073657471
:1005B00074696E67733A0A00205A0020590020209F
:1005C0004D323036205800486F6D65206F66667377
:1005D00065743A0A00204500205A0020590020582E
:1005E0000020540020530020204D3230352051008F
:1005F00020453C6D61785F655F6A65726B3E0020E7
:10060000583C6D61785F785F6A65726B3E20593C3B
:100610006D61785F795F6A65726B3E205A3C6D61EF
:10062000785F7A5F6A65726B3E00416476616E63E3
:1006300065643A20513C6D696E5F7365676D656EE8
:10064000745F74696D655F75733E20533C6D696EB0
:100650005F66656564726174653E20543C6D696EC9
:100660005F74726176656C5F6665656472617465FE
:100670003E0020540020520020204D3230342050C3
:1006800000416363656C65726174696F6E202875E3
:100690006E6974732F7332293A20503C7072696E00
:1006A000745F616363656C3E20523C726574726175
:1006B00063745F616363656C3E20543C7472617661
:1006C000656C5F616363656C3E0A00204500205ADB
:1006D0000020590020204D3230312058004D6178E3
:1006E000696D756D20416363656C65726174696FD6
:1006F0006E2028756E6974732F7332293A0A0020B0
:100700004500205A0020590020204D323033205817
:10071000004D6178696D756D206665656472617400
:1007200065732028756E6974732F73293A0A002047
:100730004500205A0020590020204D393220580011
:1007400053746570732070657220756E69743A0A0F
:100750000020204D3230302044300A0020204D321D
:1007600030302044002044697361626C65640A0083
:1007700046696C616D656E742073657474696E672B
:10078000733A002020473231202020203B00545271
:1007900049474745524544006F70656E003A200056
:1007A0007A5F6D696E00795F6D696E00785F6D616B
:1007B0007800785F6D696E005265706F7274696E53
:1007C0006720656E6473746F7020737461747573E1
:1007D0000A000000000100000001000080005555E3
:1007E00055000000400033333300AAAA2A00499282
:1007F000240000002000C7711C0099991900D14500
:100800001700555515003BB1130024491200111172
:100810001100000010000F0F0F00E3380E004379A5
:100820000D00CCCC0C00C3300C00E8A20B006421FE
:100830000B00AAAA0A00703D0A009DD80900427B5D
:10084000090092240900DCD30800888808001042BF
:10085000080000000800F0C10700878707007550F6
:100860000700711C07003EEB0600A1BC0600699062
:10087000060066660600703E06006118060017F462
:10088000050074D105005BB00500B29005006272EE
:1008900005005555050078390500B81E0500050509
:1008A00005004EEC040087D40400A1BD040090A70D
:1008B000040049920400C17D0400EE690400C7569B
:1008C0000400444404005C32040008210400411088
:1008D0000400000004003FF00300F8E0030026D20B
:1008E0000300C3C30300CCB503003AA803000A9B6E
:1008F0000300388E0300C08103009F750300D06998
:100900000300505E03001D53030034480300913D73
:1009100003003333030016290300381F0300971523
:100920000300300C0300030303000BFA020049F13B
:100930000200BAE802005CE002002DD802002DD0CF
:10094000020059C80200B0C0020031B90200DAB199
:100950000200AAAA0200A0A30200BC9C0200FA9511
:1009600002005C8F0200DF88020082820200457C68
:1009700002002776020027700200436A02007C64AE
:100980000200D05E02003F590200C8530200FFFD82
:10099000FCFAF8F6F4F2F0EEECEAE9E7E5E3E1E080
:1009A000DEDCDAD9D7D5D4D2D0CFCDCBCAC8C7C533
:1009B000C3C2C0BFBDBCBAB9B7B6B4B3B2B0AFADB5
:1009C000ACAAA9A8A6A5A4A2A1A09E9D9C9A99980C
:1009D0009795949392908F8E8D8B8A898887868441
:1009E000838281807F7E7D7B7A7978777675747358
:1009F0007271706F6E6D6C6B6A696867666564634F
:100A00006261605F5E5D5C5B5A5958585756555439
:100A100053525150504F4E4D4C4B4A4A494847460D
:100A200046454443424241403F3E3E3D3C3B3B3ACB
:100A300039383837363535343332323130302F2E7D
:100A40002E2D2C2B2B2A2929282727262525242320
:100A50002322212120201F1E1E1D1C1C1B1B1A19B6
:100A60001918181716161515141313121211111040
:100A70000F0F0E0E0D0D0C0C0B0A0A0909080807C2
:100A8000070606050504040303020201000024F41E
:100A9000D43050C38E20C2A24017828B7011127ABC
:100AA000910D816CD90AA861E108C75866076151A8
:100AB00043061E4B5D05C145A7041A411104093DBB
:100AC0009803713931034036DB0265339102D4302B
:100AD0005402802E1D02632CEE01752AC501B02838
:100AE000A001102781018F2564012B244B01E022F6
:100AF0003401AC211F018D200D01801FFC00841EDC
:100B0000ED00971DDF00B81CD200E61BC600201BBD
:100B1000BC00641AB200B219A8000A19A0006A1831
:100B20009900D117910040178B00B516840031163B
:100B30007E00B31579003A157300C7146F0058147E
:100B40006A00EE1366008813630025135E00C71267
:100B50005B006C12570015125400C1115100701146
:100B60004F0021114B00D61049008D104700461050
:100B7000440002104200C00F4000800F3E00420FB0
:100B80003C00060F3B00CB0E3800930E37005C0E86
:100B90003500270E3400F30D3200C10D3100900DE9
:100BA0003000600D2E00320D2D00050D2C00D90CEB
:100BB0002B00AE0C2900850C29005C0C2700350C9D
:100BC00027000E0C2600E80B2400C40B2400A00B09
:100BD00023007D0B23005A0B2100390B2100180B39
:100BE0002000F80A1F00D90A1E00BB0A1E009D0A39
:100BF0001D00800A1D00630A1C00470A1B002C0A06
:100C00001B00110A1A00F7091A00DD091900C409AE
:100C10001900AB091900920917007B091800630934
:100C200017004C09160036091600200916000A099B
:100C30001500F5081500E0081400CC081400B808E9
:100C40001400A4081400900813007D0812006B081B
:100C50001300580812004608120034081100230837
:100C600011001208110001081100F0071000E00740
:100C70001000D0071000C0071000B0070F00A10738
:100C8000100091070E0083070F0074070F0065071F
:100C90000E0057070E0049070E003B070D002E07F8
:100CA0000E0020070D0013070D0006070D00F906C2
:100CB0000C00ED060D00E0060C00D4060C00C80682
:100CC0000C00BC060C00B0060C00A4060B00990634
:100CD0000C008D060B0082060B0077060B006C06DD
:100CE0000B0061060A0057060B004C060A0042067C
:100CF0000A0038060A002E060A0024060A001A0610
:100D00000A001006090007060A00FD050900F4059F
:100D10000900EB050900E2050900D9050900D00525
:100D20000900C7050900BE050900B5050800AD05A5
:100D30000800A50509009C050800940508008C051D
:100D40000800840508007C050800740508006C058F
:100D50000700650508005D050700560508004E05FB
:100D60000700470507004005080038050700310562
:100D700007002A050700230507001C0506001605C5
:100D800007000F0507000805060002050700FB0421
:100D90000600F5040700EE040600E8040600E2047D
:100DA0000700DB040600D5040600CF040600C904D2
:100DB0000600C3040600BD040600B7040600B10423
:100DC0000500AC040600A6040600A00405009B0470
:100DD000060095040500900406008A0405008504B9
:100DE0000500800406007A040500750405007004FF
:100DF00005006B04050066040500610405005C0441
:100E0000050057040500520405004D040500480480
:100E10000500430405003E0404003A0405003504BF
:100E20000500300404002C040500270404002304FA
:100E300005001E0404001A04040016040500110431
:100E400004000D0404000904050004040400000467
:100E50000400FC030400F8030400F4030400F0039E
:100E60000400EC030400E8030400E4030400E003CE
:100E70000400DC030400D8030400D4030400D003FE
:100E80000400CC030400C8030300C503030024F4DA
:100E900004D9201BC40C5C0E9804C4095F026507CA
:100EA0007101F405F900FB04B30048048700C10395
:100EB00069005803550003034500BE023A0084024E
:100EC000310053022A002902250004022000E40117
:100ED0001C00C8011900AF0117009801140084011B
:100EE0001300710110006101100051010E00430157
:100EF0000D0036010B002B010B0020010B0015012A
:100F000009000C01090003010800FB000800F300C0
:100F10000800EB000700E4000600DE000600D80031
:100F20000600D2000600CC000500C7000500C20084
:100F30000500BD000400B9000400B5000400B100C4
:100F40000400AD000400A9000400A5000300A200F5
:100F500003009F0004009B0003009800030095001D
:100F6000020093000300900003008D0002008B003C
:100F70000300880002008600020084000300810054
:100F800002007F0002007D0002007B000200790069
:100F90000200770001007600020074000200720077
:100FA0000100710002006F0002006D0001006C0082
:100FB00002006A000100690002006700010066008B
:100FC0000100650001006400020062000100610090
:100FD0000100600001005F0002005D0001005C0094
:100FE00001005B0001005A00010059000100580097
:100FF0000100570001005600010055000100540097
:101000000100530000005300010052000100510094
:101010000100500001004F0001004E0000004E0092
:1010200001004D0001004C0001004B0000004B008E
:1010300001004A000100490001004800000048008A
:101040000100470001004600000046000100450085
:10105000000045000100440001004300000043007F
:101060000100420000004200010041000000410078
:101070000100400001003F0000003F0001003E0071
:1010800000003E0001003D0000003D0001003C006A
:1010900000003C0000003C0001003B0000003B0061
:1010A00001003A0000003A00010039000000390058
:1010B000010038000000380000003800010037004F
:1010C0000000370001003600000036000000360046
:1010D000010035000000350000003500010034003B
:1010E0000000340000003400010033000000330031
:1010F0000000330001003200000032000000320026
:10110000010031000000310000003100010030001A
:10111000000030000000300001002F0000002F0010
:1011200000002F0000002F0001002E0000002E0004
:1011300000002E0001002D0000002D0000002D00F9
:1011400000002D0001002C0000002C0000002C00ED
:1011500000002C0001002B0000002B0000002B00E1
:1011600000002B0001002A0000002A0000002A00D5
:1011700000002A00010029000000290000002900C9
:1011800000002900000029000100280000002800BC
:1011900000002800000028000000280001002700AF
:1011A00000002700000027000000270000002700A3
:1011B0000100260000002600000026000000260096
:1011C0000000260001002500000025000000250089
:1011D000000025000000250000002500010024007B
:1011E000000024000000240000002400000024006F
:1011F0000100230000002300000023000000230062
:101200000000230000002300000023000100220052
:101210000000220000002200000022000000220046
:101220000000220001002100000021000000210038
:10123000000021000000210000002100000021002A
:10124000010020000000200000002000000020001D
:10125000000020000000200000002000000020000E
:1012600001001F0000001F0000001F0000001F0001
:1012700000001F0000001F0000001F0001001E00F2
:1012800000001E0000001E0000001E00000039309B
:1012900000003325000087190000B00F0000DB08B4
:1012A0000000BD040000740200003F010000236440
:1012B0006566696E652044454641554C545F4B64F4
:1012C000200023646566696E652044454641554C9F
:1012D000545F4B69200023646566696E6520444550
:1012E0004641554C545F4B70200050494420417595
:1012F000746F74756E652066696E697368656421C4
:101300002050757420746865206C617374204B7074
:101310002C204B6920616E64204B6420636F6E73D8
:1013200074616E74732066726F6D2062656C6F7786
:1013300020696E746F20436F6E66696775726174A1
:10134000696F6E2E680A00504944204175746F74AD
:10135000756E65206661696C6564212074696D65D0
:101360006F75740A00453120544845524D414C2058
:1013700052554E4157415900546865726D616C2059
:1013800052756E61776179004531204865617469F5
:101390006E67206661696C65640048656174696E9A
:1013A00067206661696C656400504944204175742A
:1013B0006F74756E65206661696C65642120546583
:1013C0006D706572617475726520746F6F206869E5
:1013D00067680A00204B643A2000204B693A2000DD
:1013E000204B703A20000A20436C617373696320BC
:1013F000504944200A002054753A2000204B753A89
:101400002000206D61783A2000206D696E3A20003E
:1014100020643A200020626961733A2000504944F8
:10142000204175746F74756E652073746172740AEF
:1014300000504944204175746F74756E6520666173
:10144000696C6564212054656D7065726174757294
:101450006520746F6F20686967680A0050494420EE
:101460004175746F74756E65206661696C65642181
:1014700020426164206578747275646572206E75AF
:101480006D6265720A006265640A002C20737973CC
:1014900074656D2073746F70706564212048656198
:1014A0007465725F49443A20004265642068656152
:1014B00074696E67206661696C6564004865617473
:1014C000696E67206661696C656400453120486516
:1014D0006174696E67206661696C65640048656166
:1014E00074696E67206661696C65640070012C0127
:1014F00090012701B0012201C0011D01F001180176
:101500001002130130020E01600209019002040171
:10151000C002FF000003FA004003F5008003F00062
:10152000D003EB002004E6007004E100E004DC00DE
:101530004005D700C005D2004006CD00D006C80047
:101540008007C3003008BE00F008B900C009B4002D
:10155000B00AAF00B00BAA00D00CA500000EA0008E
:10156000500F9B00C01096005012910000148C0088
:10157000C0158700B0178200B0197D00D01B78001D
:10158000001E730040206E0090226900F024640069
:1015900040275F0090295A00E02B5500102E500084
:1015A00020304B0010324600E033410090353C00C3
:1015B0001037370070383200A0392D00B03A2800BB
:1015C000A03B2300603C1E00103D1900903D14001C
:1015D000103E0F00703E0A00C03E0500003F0000B4
:1015E000403FFBFF803FF6FFC03FF1FF45312054F5
:1015F0004845524D414C2052554E415741590042A9
:10160000454420544845524D414C2052554E415777
:10161000415900546865726D616C2052756E617736
:101620006179004531204572723A204D4158544548
:101630004D50004572723A204D415854454D50204E
:10164000424544004D415854454D502074726967DD
:101650006765726564004531204572723A204D49D4
:101660004E54454D50004572723A204D494E5445F6
:101670004D5020424544004D494E54454D50207434
:10168000726967676572656400202F002042403AE6
:101690000020403A008F018D018B01880185018275
:1016A000017F017C01790176017301747275650017
:1016B00066616C7365002074656D70657261747528
:1016C0007265207072657761726E207472696767E7
:1016D000657265643A2000207072657761726E20D1
:1016E000666C616720636C65617265640A00000066
:1016F0002100240027002A002D00300033000101C2
:101700000000040107010A0100000A0B02090C0D88
:101710000E080703040100000000000000000000A4
:1017200000000000000000000000000000000000B9
:101730000000000012111000000000000000000076
:101740000000000000000000000000000000000099
:101750000000000000000000000000000000473210
:101760002F47332062616420706172616D6574651A
:1017700072730A000000A0400000A0400000A040DA
:10178000000000002569730025696D20256973003C
:101790002569682025696D20256973002569642005
:1017A0002569682025696D202569730025697920E0
:1017B000256964202569682025696D2025697300E5
:1017C0005072696E742074696D653A20006F6666A8
:1017D00000B201AD01A6019F019101444542554768
:1017E0003A004D3131332053006F6B0020573A00DF
:1017F0002C20002C2000544845524D414C5F505243
:101800004F54454354494F4E004155544F52455053
:101810004F52545F53445F53544154555300454D08
:10182000455247454E43595F50415253455200433C
:101830004153455F4C494748545F425249474854D9
:101840004E45535300544F47474C455F4C4947481A
:10185000545300534F4654574152455F504F5745DC
:1018600052004255494C445F50455243454E540046
:101870004C4556454C494E475F44415441005A5FE0
:1018800050524F4245004155544F4C4556454C002F
:101890005052494E545F4A4F420050524F475245B2
:1018A0005353004155544F5245504F52545F544585
:1018B0004D5000564F4C554D4554524943004545F7
:1018C00050524F4D0053455249414C5F584F4E5F67
:1018D000584F4646004649524D574152455F4E418A
:1018E0004D453A4D61726C696E2062756766697824
:1018F0002D312E312E782028476974687562292091
:10190000534F555243455F434F44455F55524C3A00
:1019100068747470733A2F2F6769746875622E63E8
:101920006F6D2F4D61726C696E4669726D77617271
:10193000652F4D61726C696E2050524F544F434F6A
:101940004C5F56455253494F4E3A312E30204D414F
:101950004348494E455F545950453A3344205072EC
:10196000696E7465722045585452554445525F4320
:101970004F554E543A3120555549443A6365646594
:10198000326132662D343161322D343734382D399D
:101990006231322D633535633632663336376666EB
:1019A0000A002F2F2000205400205200416363655D
:1019B0006C65726174696F6E3A20500020666972BE
:1019C00073740A005A0059005800486F6D65200072
:1019D000000000000000000000000000546F6F20B5
:1019E0006661722066726F6D207265666572656EE3
:1019F000636520706F696E740A00FFFFFF205A0054
:101A0000205900580020204D61783A2000205A00CB
:101A1000205900580020204D696E3A20004F66661C
:101A200000536F667420656E6473746F70733A2030
:101A30000020466C6F773A2000000125311D0C51C3
:101A4000FFFF2924301C0BFFFFFF27232F1B0AFF5A
:101A5000FFFFFF43FFFF040806FFFF222B1AFFFFD3
:101A600042043803FF36496E76616C6964206578FC
:101A70007472756465720A0020643A0020693A0045
:101A800020703A0043290A0061626C656420286D69
:101A9000696E2074656D702000436F6C64206578FA
:101AA0007472756465732061726520004E6F2063E7
:101AB000617365206C696768740A00454550524F30
:101AC0004D2064697361626C65640A0041637469E6
:101AD00076652045787472756465723A2000496EA7
:101AE00076616C69642065787472756465720A0049
:101AF000205A3A0020593A0020583A00656E647323
:101B0000746F7073206869743A2000556E6B6E6F45
:101B1000776E20636F6D6D616E643A202200000065
:101B200020002300260029002C002F003200000195
:101B30000000030106010901000022002500280021
:101B40002B002E00310034000201000005010801C5
:101B50000B01050505050705080808080202020231
:101B60000A0A080804040404010101010101010139
:101B70000303030303030303040707070C0C0C0C04
:101B80000C0C0C0C020202020606060606060606ED
:101B90000B0B0B0B0B0B0B0B07070A0A0A0A0A0AA3
:101BA0000505050404040808010210202008081097
:101BB00020401020408002010201080402010102BD
:101BC0000408102040808040201008040201800496
:101BD00002018040201008040201080402010102F1
:101BE00004081020408001020408102040801008E2
:101BF000040880102040044080102040048020749D
:101C00006F6F206C6F6E6720657874727573696F83
:101C10006E2070726576656E7465640A0020636F6D
:101C20006C6420657874727573696F6E207072656C
:101C300076656E7465640A006563686F3A00507279
:101C4000696E7465722068616C7465642E206B69BE
:101C50006C6C28292063616C6C6564210A004572F4
:101C6000726F723A0000BF5A11241FBECFEFD1E24B
:101C7000DEBFCDBF00E00CBF12E0A0E0B2E0ECE8B8
:101C8000F6EF00E00BBF02C007900D92AA35B10736
:101C9000D9F72FE0AAE5B2E001C01D92A633B20742
:101CA000E1F71EE0C4E3DEE000E006C02197010991
:101CB000802FFE010E94097BC333D10780E0080713
:101CC000A9F70E94105B0C94447B0C9400000CB4A8
:101CD00005FC0DC01EBC00000DB407FEFDCF9EB577
:101CE0001EBC00000DB407FEFDCF8EB508951EBCCE
:101CF00000000DB407FEFDCF8EB51EBC00000DB474
:101D000007FEFDCF9EB5089527E030E060E0A82FE4
:101D1000B0E0722FE0918206F091830690917F06E9
:101D2000AD01022E02C0559547950A94E2F78081D5
:101D300040FF2BC0982B9083E0918606F091870698
:101D4000808190918106892B8083E0918406F091B7
:101D50008506808190918006892341E050E009F456
:101D600040E001C0440F7A95EAF7642BE0918606C3
:101D7000F0918706808190918106909598239083B9
:101D80002150310930F6862F089590959823D3CFAE
:101D9000CF9380E0B9DFC82F80E0B6DF9C2FCF91D2
:101DA00008958150823108F05AC0E82FF0E088276A
:101DB000E352F14F8F4F0C94097BFD0E010FEF0E94
:101DC000F50EF90E2F0F040F0A0F0E0F140F180F38
:101DD0001C0F220F260F2F0F2A0F300F340F809168
:101DE00080008F77809380000895809180008F7DA0
:101DF000F9CF80918000877FF5CF84B58F7784BD40
:101E0000089584B58F7DFBCF8091B0008F7780934C
:101E1000B00008958091B0008F7DF9CF809190003F
:101E20008F77809390000895809190008F7DF9CFF7
:101E300080919000877FF5CF8091A0008F7780936D
:101E4000A00008958091A0008F7DF9CF8091A0001F
:101E5000877FF5CF809120018F77809320010895AF
:101E6000809120018F7DF9CF80912001877FF5CF70
:101E7000CF93DF93282F30E0F901E85FF84E84918B
:101E8000F901E855F44ED491F901EE5AF44EC4919B
:101E9000CC2399F0811185DFEC2FF0E0EE0FFF1FCE
:101EA000E25EF44EA591B491EC91ED2381E090E0D7
:101EB00009F480E0DF91CF91089580E090E0FACFBF
:101EC0001F93CF93DF93282F30E0F901E85FF84E9E
:101ED0008491F901E855F44ED491F901EE5AF44E8B
:101EE000C491CC23A1F0162F81115BDFEC2FF0E021
:101EF000EE0FFF1FE85CF44EA591B4918FB7F894F4
:101F0000EC91111108C0D095DE23DC938FBFDF91D7
:101F1000CF911F910895DE2BF8CFCF93DF9390E000
:101F2000FC01E855F44E24918E5A944EFC018491A4
:101F30008823C9F090E0880F991FFC01E251F94E07
:101F4000A591B491FC01E85CF44EC591D491611166
:101F50000DC09FB7F8948C91209582238C93888133
:101F6000282328839FBFDF91CF910895623051F4D9
:101F70009FB7F8943C91822F809583238C93E881BE
:101F80002E2BEFCF8FB7F894EC912E2B2C938FBF85
:101F9000EACF1F93CF93DF93182FEB0161E0BDDFF2
:101FA000209731F460E0812FDF91CF911F9188CF8E
:101FB000CF3FD10511F461E0F6CFE12FF0E0E85F0B
:101FC000F84EE491E150E23108F0B3C0F0E0882728
:101FD000E351F04F8F4F0C94097BFF0F07100C104B
:101FE0001610201099102A1032103A1044104E107A
:101FF00058106710711099107B1085108F1084B5E0
:10200000806884BDC7BDDF91CF911F91089584B5CD
:10201000806284BDC8BDF7CF8091800080688093C6
:102020008000D0938900C0938800EDCF809180001C
:10203000806280938000D0938B00C0938A00E3CFAE
:1020400080918000886080938000D0938D00C09341
:102050008C00D9CF8091B00080688093B000C0938D
:10206000B300D1CF8091B00080628093B000C09364
:10207000B400C9CF80919000806880939000D09385
:102080009900C0939800BFCF8091900080628093A8
:102090009000D0939B00C0939A00B5CF80919000A0
:1020A000886080939000D0939D00C0939C00ABCF3C
:1020B0008091A00080688093A0008091A0008F7B19
:1020C0008093A000D093A900C093A8009CCF8091DA
:1020D000A00080628093A000D093AB00C093AA00C0
:1020E00092CF8091A00088608093A000D093AD0033
:1020F000C093AC0088CF809120018068809320013C
:10210000D0932901C09328017ECF80912001806265
:1021100080932001D0932B01C0932A0174CF80912A
:102120002001886080932001D0932D01C0932C0161
:102130006ACFC038D1050CF03ECF34CF3FB7F8940A
:1021400080910B0490910C04A0910D04B0910E04A9
:1021500026B5A89B05C02F3F19F00196A11DB11D02
:102160003FBFBA2FA92F982F8827BC01CD01620F3E
:10217000711D811D911D42E0660F771F881F991FF9
:102180004A95D1F708958F929F92AF92BF92CF92C6
:10219000DF92EF92FF926B017C01D0DF4B015C017B
:1021A000C114D104E104F104B1F0C8DF6819790960
:1021B0008A099B09683E73408105910588F321E0F7
:1021C000C21AD108E108F10888EE880E83E0981E53
:1021D000A11CB11CE5CFFF90EF90DF90CF90BF9096
:1021E000AF909F908F9008952FB7F8946091070457
:1021F000709108048091090490910A042FBF0895FA
:10220000CF92DF92EF92FF92C0901F0DD090200DE1
:10221000E090210DF090220D60911D0D70911E0D2A
:1022200066507109072E000C880B990B0E941B74D5
:102230009B01AC01C701B6010E94157487FF20C045
:1022400020E030E040E050E4C701B6010E9415787C
:102250000E945E7970931C0D60931B0DC5DF605E5C
:10226000714B8F4F9F4F6093170D7093180D809394
:10227000190D90931A0DFF90EF90DF90CF90089575
:102280001092170D1092180D1092190D10921A0D30
:10229000F2CF8EBD00000DB407FEFDCF8EB50895C0
:1022A000CF92DF92EF92FF920F931F93CF93DF9322
:1022B0008C01D62EEA01E62EF12CEE0CEF2CEE1C52
:1022C000FF08FC01E858FF4F8081882309F461C0B2
:1022D00060E0F8018285F4DD8D2D16DDF801848340
:1022E000EF28A1F08B8110DD8A810EDD89810CDD64
:1022F00088810ADD61E0F8018285DF91CF911F912D
:102300000F91FF90EF90DF90CF90DACD41DD40DD6F
:1023100061E0F8018285D4DD60E0F8018285D0DDDE
:102320008D2DF2DC80E0F0DC90E0B0E0A0E0BA2F90
:10233000A92F982F882788839983AA83BB8380E05D
:10234000E3DC488159816A817B81482B762F652F98
:10235000542F4427488359836A837B8380E0D4DCED
:10236000488159816A817B81482B762F652F542FB4
:102370004427488359836A837B8380E0C5DC488196
:1023800059816A817B81482B488359836A837B8387
:10239000B1CFCFB6F89480910504811123C0E7E84E
:1023A000FBE18491EDEDFBE19491E82FF0E0EE0F7D
:1023B000FF1FE251F94EA591B491EC91E92319F474
:1023C00061E085E37DDD61E085E3A7DD8CB58061BB
:1023D0008CBD8CB580648CBD61E084E39EDD61E0E2
:1023E00083E39BDD809105048F5F80930504CFBE5E
:1023F0008DE58CBD81E08DBD60E0F801828560DDFA
:102400008D2D47DFF8018483EF2849F08B8141DF70
:102410008A813FDF89813DDF88813BDF6BCF57DCDD
:1024200056DC61E0F80182854BDD60E0F8018285D1
:1024300047DD8D2D2EDF80E02CDF90E0B0E0A0E0C6
:10244000BA2FA92F982F882788839983AA83BB83C3
:1024500080E01FDF488159816A817B81482B762F7C
:10246000652F542F4427488359836A837B8380E0F8
:1024700010DF488159816A817B81482B762F652F37
:10248000542F4427488359836A837B8380E001DF8C
:1024900076CF8F929F92AF92BF92DF92EF92FF9290
:1024A0000F931F93CF93DF93EC017B018EEA97E4A8
:1024B000A1EEBDE388839983AA83BB8390E080E08B
:1024C0000E94197425ED34E045E352E40E947A74C9
:1024D00020E030E04AE754E40E94F1784B015C01CF
:1024E00028EB3EE145E05EE30E947A7426E636E69C
:1024F00046EA5EE30E94F17820E030E040E85FE3E6
:102500000E9414780E945E79D62E8E010E5A1F4FBB
:102510008FE08D1508F478C0F80180819181A28147
:10252000B381A26080839183A283B383A8016CEE00
:10253000CE01B6DE2AE037ED43EA5CE368817981BB
:102540008A819B810E941578A50194010E947A746A
:102550002CEE31E548E35EE30E94F17820E030E0C4
:1025600040E85FE30E9414780E945E79D62E8A8943
:102570009B89AC89BD89907E4D2D50E070E060E074
:10258000762F652F542F442744275F7166277727BE
:10259000842B952BA62BB72B8A8B9B8BAC8BBD8B5F
:1025A0008E010E5E1F4FA80160E9CE0179DE6D2D10
:1025B00070E090E080E00E941B7420E030E040E09A
:1025C0005FE30E947A740E945E796F718A899B89A9
:1025D000AC89BD89807E862B8A8B9B8BAC8BBD8B17
:1025E000A80160E9CE015CDECA58DF4FF982E882BB
:1025F000DF91CF911F910F91FF90EF90DF90BF90EF
:10260000AF909F908F900895A8016CE6CE0148DEB0
:10261000F80180819181A281B381A1FFA8CFAD7F14
:1026200080839183A283B383A8016CEECE0138DE50
:102630009ECF20911C0230911D022F50310982172C
:1026400093070CF49C0130931E0D20931D0DD8CDE3
:102650008F929F92AF92BF92CF92DF92EF92FF92B2
:102660000F931F93CF93DF93B2E0A0E06A2F70E047
:10267000AB014B0F511D559547954A1711F0B413F7
:1026800019C0E1E7F1E065917491072E000C880B09
:10269000990B0E941B74DF91CF911F910F91FF90B6
:1026A000EF90DF90CF90BF90AF909F908F90089564
:1026B000B42FDECF9A0121503109220F331F220F90
:1026C000331FF901E559FE4FE590F490F901E15906
:1026D000FE4FC591D4918E159F0554F3A42FC817B2
:1026E000D9070CF4C3CFF901E359FE4F05911491BA
:1026F000F901EF58FE4FC590D490BC016E197F09C7
:10270000072E000C880B990B0E941B744B015C0177
:10271000B601601B710B072E000C880B990B0E94F1
:102720001B749B01AC01C501B4010E947A744B017A
:102730005C01BE016E197F09072E000C880B990BF6
:102740000E941B749B01AC01C501B4010E94F17889
:102750006B017C01B801110F880B990B0E941B744F
:102760009B01AC01C701B6010E94157894CFCF92AE
:10277000DF92EF92FF92C0905D04D0905E04E090F3
:102780005F04F0906004609161047091620466508F
:102790007109072E000C880B990B0E941B74A7016E
:1027A00096010E943B7A181604F520E030E040E0E4
:1027B00050E4C701B6010E9415780E945E797093BB
:1027C000E0036093DF0310DD605A75418F4F9F4F28
:1027D0006093DB037093DC038093DD039093DE034F
:1027E000FF90EF90DF90CF9008951092DB0310924E
:1027F000DC031092DD031092DE03F2CF8F929F92E2
:10280000AF92BF92CF92DF92EF92FF920F931F93FE
:10281000CF93DF93B0E4A0E06A2F70E0AB014B0FE1
:10282000511D55954795A41711F0B41319C0EAEE40
:10283000F5E165917491072E000C880B990B0E94AD
:102840001B74DF91CF911F910F91FF90EF90DF905C
:10285000CF90BF90AF909F908F900895B42FDECF10
:102860009A0121503109220F331F220F331FF90122
:10287000E451FB4EE590F490F901E051FB4EC59117
:10288000D4918E159F0554F3A42FC817D9070CF4C3
:10289000C3CFF901E251FB4E05911491F901EE50BD
:1028A000FB4EC590D490BC016E197F09072E000C19
:1028B000880B990B0E941B744B015C01B601601BD5
:1028C000710B072E000C880B990B0E941B749B0147
:1028D000AC01C501B4010E947A744B015C01BE01D8
:1028E0006E197F09072E000C880B990B0E941B7430
:1028F0009B01AC01C501B4010E94F1786B017C0120
:10290000B801110F880B990B0E941B749B01AC013D
:10291000C701B6010E94157894CF0F931F93809141
:102920005304813011F560DC0091B9031091BA03B2
:102930002091BB033091BC03601B710B820B930B86
:1029400028EE33E040E050E00E94D9776091B50373
:102950007091B6038091B7039091B803620F731F13
:10296000841F951F1F910F91089560914F047091DE
:1029700050048091510490915204D6CF1092530488
:102980001092B9031092BA031092BB031092BC03C9
:1029900010924F041092500410925104109252045D
:1029A0001092B5031092B6031092B7031092B803B9
:1029B0000895809153048130D9F08230B9F4ADDFAD
:1029C0006093B5037093B6038093B7039093B803F5
:1029D00081E08093530408DC6093B9037093BA03D9
:1029E0008093BB039093BC0381E00895C7DFF0CFD1
:1029F00080E00895809153048150823068F41092F1
:102A00005304F2DB60934F0470935004809351049D
:102A10009093520481E0089580E008951092E903B4
:102A200090E080E006DE10926204109261049FDE66
:102A3000E1DF90E080E0FDDD1092030475981092D4
:102A400062041092610410920404A5980895909174
:102A50006F00292F227091FF05C090916F009D7F1C
:102A600090936F0034E0839FC0011124FC01ED5C62
:102A7000FB4F408151816281738187559C4FFC01DE
:102A8000408351836283738381E08093A803222370
:102A900029F080916F00826080936F000895BC01DF
:102AA0002091A6033091A7034091A6035091A7035C
:102AB0002417350731F481E02617370709F080E045
:102AC00008959A01F1CFEF92FF920F931F93E09236
:102AD0006702F09268020093690210936A026093A1
:102AE0006B0270936C0280936D029FEFFF27621B55
:102AF000730B840B30F4809570956195790B890B7D
:102B0000992790936602A6E06A9F00925A02512D7F
:102B1000EE277A9F500DE11D8A9FE00D50935B02D6
:102B2000E0935C02AFE06A9F00925E02512DEE27B7
:102B30007A9F500DE11D8A9FE00D50935F02E09354
:102B40006002AAE06A9F00926202512DEE277A9FEE
:102B5000500DE11D8A9FE00D50936302E0936402E3
:102B60001F910F91FF90EF9008958091620380FF75
:102B70002FC080910B0180958170809309018FEFA8
:102B800080930C028091620381FF29C080910B0128
:102B900080958270809309018FEF80930D02809160
:102BA000620382FF23C080910B018470809309012E
:102BB0008FEF80930E028091620383FF1FC080918C
:102BC0000B018074809309018FEF80930F020895A9
:102BD00080910B0181708093090181E0D1CF8091B8
:102BE0000B0182708093090181E0D7CF80910B01A6
:102BF000809584708093090181E0DBCF80910B0187
:102C0000809580748093090181E0DFCF80910A0F65
:102C100090910B0F891B8F7019F490E080E008955C
:102C20009091070F992351F0833030F48FEF890F83
:102C300019F08093070FF1CF1092070F80910B0FBF
:102C400021E6829FC00111248251994FFC0120810D
:102C500020FDE3CF20910B0F2F5F2F702093080FE3
:102C600030910B0F2091090F321304C02091080FEF
:102C70002093090F08959F92AF92BF92CF92DF9257
:102C8000EF92FF920F931F93CF93DF9300D01F9289
:102C90001F92CDB7DEB7EEE8F9E00027BB27462F3D
:102CA000572FA82FAA2341F4A52F542FB85FAA238A
:102CB00019F4A52F5527B85FA03138F45295A29585
:102CC000452F4F70507FA42BBC5FA03428F4550FC4
:102CD000AA1F550FAA1FBE5FA03818F4550FAA1FD0
:102CE000B395550FAA1FEA0FF01F449151E0AA2790
:102CF000B85079F1C0F0B0FF02C0440F551FB1FFCA
:102D000004C0440F551F440F551FB2FF06C0529513
:102D10004295142F1F70407F512BB3FF1AC0A52F6F
:102D2000542F442716C0B195B0FF02C05595479562
:102D3000B1FF04C05595479555954795B2FF05C01D
:102D40005295407F4295452B5F70B3FF02C0452FDF
:102D50005527DD24CC24BB24B2E0649FD018C108E1
:102D6000B00AB00B749FC018B108B00B849FB018A4
:102D7000B109659FC018B108B00B759FB018B109B3
:102D8000859FB0196A9FB018B1097A9FB0194D9DFF
:102D9000A12C99243327992722275D9DA00C911CF3
:102DA000301F901F201FAD9D900C311D901F201FC4
:102DB0004C9DA00C911C301F901F201F5C9D900CFF
:102DC000311D901F201FAC9D300D911D201F4B9D6C
:102DD000900C311D901F201F5B9D300D911D201FF9
:102DE000AB9D900D211D4B9F300D911D201F5B9FB2
:102DF000900D211DAB9F200DB1E0BB24CC24DD2420
:102E0000639FD018C108B00AB00B739FC018B108F7
:102E1000B00B839FB018B109699FC018B108B00BFF
:102E2000799FB018B109899FB019629FB018B10994
:102E3000729FB019D61AC70AB80A20F0B1E03B0F4A
:102E4000901F201F1124792F632F90E0822F0F9065
:102E50000F900F900F900F90DF91CF911F910F91D6
:102E6000FF90EF90DF90CF90BF90AF909F9008952C
:102E70004F925F926F927F928F929F92AF92BF928A
:102E8000EF92FF920F931F93CF93DF93CDE7D4E0A0
:102E90008FEFE82E8CE0F82E0CE916E0412C512C37
:102EA000320143946991799189919991F7018190C7
:102EB0009190A190B1907F010E941974A501940195
:102EC0000E947A740E945E79F801619371938193F4
:102ED00091938F01461657066806790610F42B0168
:102EE0003C01F4E0CD38DF07E9F66FEF7FEFCB016F
:102EF000A30192010E94D9772093AC063093AD06CE
:102F00004093AE065093AF06DF91CF911F910F9182
:102F1000FF90EF90BF90AF909F908F907F906F90B9
:102F20005F904F900895CF93DF9390916F00292F7A
:102F3000227091FF05C090916F009D7F90936F006C
:102F400094E0899FA0011124FA01ED5CFB4F6081A0
:102F5000718182819381222329F020916F00226068
:102F600020936F00EA01C053D94F0E941B7428813F
:102F700039814A815B810E947A74DF91CF910895F3
:102F8000CF93DF9390916F00292F227091FF05C09E
:102F900090916F009D7F90936F0094E0899FA001B6
:102FA0001124FA01E755FC4F608171818281938180
:102FB000222329F020916F00226020936F00EA0104
:102FC000C053D94F0E941B74288139814A815B818B
:102FD0000E947A74DF91CF910895CF92DF92EF92A1
:102FE000FF9280917C04882309F457C0C090780434
:102FF000D0907904E0907A04F0907B0420E030E0F7
:10300000A901C701B6010E941574882309F445C0BF
:1030100020E030E040E05FE3C701B6010E947A742F
:103020009B01AC010E947A742BED3FE049E450E42F
:103030000E947A749B01AC0160E070E080E89FE33D
:103040000E94F1786B017C01C092B404D092B50467
:10305000E092B604F092B70460912F0270913002B2
:10306000072E000C880B990B0E941B742AE037ED89
:1030700043E25CE30E947A74A70196010E947A748D
:103080006093390270933A0280933B0290933C0222
:10309000FF90EF90DF90CF900895C12CD12C80E865
:1030A000E82E8FE3F82ED0CFCF93DF93809161038A
:1030B0001E994FC0816080936103809161034C9998
:1030C0004AC0806180936103809161031D9945C06E
:1030D000826080936103809161031C9940C0846089
:1030E00080936103C0919903C0FF0FC08091610379
:1030F0009091620390FF35C080FF07C08091530616
:1031000081608093530680E0A2DCC1FF0FC08091F4
:10311000620381FF0BC08091610381FF07C0809132
:10312000530682608093530681E091DCC2FF1FC08A
:103130008091620382FF1BC08091610382FF17C0F0
:103140008091530684608093530682E0DF91CF9193
:103150007ECC8E7FB0CF8F7EB5CF8D7FBACF8B7F69
:10316000BFCF84FFD2CF809153068061CACFDF9159
:10317000CF9108958EC9179A809163048E7F8093B2
:103180006304169A809163048D7F80936304159A7B
:10319000809163048B7F80936304149A0895CF9386
:1031A000DF9380E0C0DEC8E6D4E0688379838A8359
:1031B0009B8381E0B8DE6C837D838E839F8382E076
:1031C000B2DE688779878A879B87DF91CF910895E0
:1031D0000F931F93CF93DF9394E0899FE001112415
:1031E0008E0104561B4FFE01E057FB4FDE01AD5B25
:1031F000BB4F2D913D914D915C9160817181828198
:1032000093810E941578F801608371838283938390
:10321000FE01E153FD4F85919591A591B491FE0179
:10322000E855FB4F80839183A283B383FE01E5526F
:10323000FD4F85919591A591B491CD5DDD4F88832A
:103240009983AA83BB83DF91CF911F910F9108953A
:1032500090917102E92FF0E0EB53FB4F80839F5F69
:10326000943040F490937102809155068F5F809363
:103270005506089510927102F7CF2FEB280F2A31CF
:1032800008F042C0E22FF0E08091290490912A04D6
:10329000A0912B04B0912C0404C0B695A7959795E6
:1032A00087952A95D2F780FD02C081700895E15F6D
:1032B000FB4FE081EE2329F180915606909157064D
:1032C000E80FF92FF11D808190ED980F9A3030F0C2
:1032D0008E3251F4818180538A3098F4F0938E04B9
:1032E000E0938D0481E008958D3211F08B3249F422
:1032F000818190ED980F9A3088F38E3211F482819B
:10330000EACFF0E0E0E0EACF80E00895B6DF88237E
:1033100041F081E020918D0430918E04232B09F43B
:1033200080E008959091C00095FFFCCF8093C60087
:103330000895CF93DF93E82FEE0FFF0BEB56F94E76
:10334000C591D491FE0184912196882311F0EADF82
:10335000F9CFDF91CF910895CF93DF93EADFC7EDE7
:10336000D6E1FE0184912196882311F0DBDFF9CFAD
:10337000DF91CF9108951F93CF93DF93162FD9DF5D
:10338000C6EBD6E1FE0184912196882311F0CADFB5
:10339000F9CFC0EBD6E1112311F0CBEAD6E1FE0163
:1033A00084912196882311F0BDDFF9CF8AE0DF9167
:1033B000CF911F91B7CF0F931F93CF93DF93162F0A
:1033C000072FEC01FE0184912196811107C0C12FC6
:1033D000D02F8991882321F0A5DFFBCFA3DFF2CF87
:1033E000DF91CF911F910F910895CF93DF93C8E3A1
:1033F000DCE1FE0184912196882311F093DFF9CF5F
:1034000060915606709157068BE09BE1D4DF82E213
:1034100089DF8AE0DF91CF9185CF1F93CF93DF9330
:10342000182FEB01FE0184912196811109C0CDE98D
:10343000D7E0FE0184912196882321F073DFF9CF34
:1034400071DFF0CFC8E9D7E0112311F0CEE8D7E063
:10345000FE0184912196882311F064DFF9CF8AE080
:10346000DF91CF911F915ECFCF93DF93E8EBF7E031
:103470008491882341F0C9EBD7E054DFFE018491A9
:1034800021968111FACF83B1C1E086FB882780F9AC
:1034900062EB77E08C27C1DF89B1829581706CEA9D
:1034A00077E08C27BADF83B185FB882780F966EA4D
:1034B00077E08C27B2DF83B18295817060EA77E094
:1034C0008C27DF91CF91A9CFCF93DF93C5E6D5E0CD
:1034D000FE0184912196882311F024DFF9CFDF913A
:1034E000CF910895CF93DF93CFE0D5E0FE01849193
:1034F0002196882311F016DFF9CF8AE0DF91CF9172
:1035000011CFCF93DF93CEE5DCE1FE0184912196CC
:10351000811109C0C7EED2E0FE0184912196882373
:1035200021F000DFF9CFFEDEF0CFDF91CF910895DB
:1035300080915703909158032FEF3FEF981751F068
:10354000E92FF0E0E952FD4F208130E09F5F9F7747
:1035500090935803C9010895CEE5DCE1FE01849102
:103560002196811109C0CEE3DCE1FE018491219610
:10357000882321F0D7DEF9CFD5DEF0CF4FDAFBDD9F
:10358000FFEF2BE48DE1F15020408040E1F700C0D7
:103590000000F8949FEFE4E3FCE09150E040F0403D
:1035A000E1F700C000003ADAA895FECF8F929F9213
:1035B000AF92BF92CF92DF92EF92FF920F931F9341
:1035C000CF93DF93EC017B0168EC70E080E090E04A
:1035D0000E94C3108E819F818F3F980739F061E070
:1035E0000E948D0F61E08E810E94600F8C859D8509
:1035F0008F3F980719F061E00E948D0F88859985AB
:103600008F3F980739F061E00E948D0F60E0888558
:103610000E94600F61E08A850E948D0F61E08A85BB
:103620000E94600FFE01E858FF4F8081882309F453
:103630005AC061E0809179060E948D0F61E080910F
:103640007D060E948D0F62E080917B060E948D0FA7
:103650004091790650917A06FA01E855F44EE491CA
:10366000E0937F0620917B0630917C06F901E855B6
:10367000F44EE491E093800680917D0690917E0661
:10368000FC01E855F44EE491E0938106FA01EE5A0C
:10369000F44EE491F0E0EE0FFF1FE85CF44E45912C
:1036A00054915093830640938206F901EE5AF44EEA
:1036B000E491F0E0EE0FFF1FE25EF44E25913491AD
:1036C0003093850620938406FC01EE5AF44EE49173
:1036D000F0E0EE0FFF1FE85CF44E8591949190931B
:1036E0008706809386065E012EE0A20EB11CA5011E
:1036F00060E8CE010E945011AE014E5E5F4F60E95E
:10370000CE010E9450114E0186E6880E911CF401F4
:1037100080819181A281B3819927AA27BB278083C9
:103720009183A283B383A40161E9CE010E94501169
:10373000AE01465E5F4F63E9CE010E945011AE01BB
:10374000425E5F4F64E9CE010E945011AE014E5DB2
:103750005F4F65E9CE010E945011AE014A5D5F4F97
:103760006DEACE010E945011AE01465D5F4F63EBE2
:10377000CE010E9450118E010E5A1F4FA8016CEE0F
:10378000CE010E945011AE014A5A5F4F6DEECE013C
:103790000E9450116E01FEE5CF0ED11CA60160EF14
:1037A000CE010E945011AE0146595F4FFA0180814F
:1037B0009181A281B3819927AA27BB278083918316
:1037C000A283B38362EFCE010E945011F801808181
:1037D0009181A281B381807F886080839183A2835D
:1037E000B383A8016CEECE010E945011F8018081D4
:1037F0009181A281B3819F77AE7F9068808391830E
:10380000A283B383A8016CEECE010E945011B701D0
:10381000CE010E944912F80180819181A281B38179
:10382000B07FB46080839183A283B383A8016CEEE0
:10383000CE010E945011F80180819181A281B38153
:103840009F77AE7F906880839183A283B383A80122
:103850006CEECE010E945011F80180819181A2810D
:10386000B381807F856080839183A283B383A80125
:103870006CEECE010E945011F80180819181A281ED
:10388000B381B06180839183A283B383A8016CEE7E
:10389000CE010E94501180E890E0A0E0B0E0F40179
:1038A00080839183A283B383A40161E9CE010E9446
:1038B0005011F80180819181A281B3818F7880625B
:1038C00080839183A283B383A8016CEECE010E9412
:1038D0005011F80180819181A281B3818F77987F07
:1038E0008068926080839183A283B383A8016CEE89
:1038F000CE010E945011F60180819181A281B38195
:10390000AC7FA16080839183A283B383A60160EF23
:10391000CE010E945011F60180819181A281B38174
:10392000A46080839183A283B383A60160EFCE015C
:103930000E945011F60180819181A281B381992763
:10394000956080839183A283B383A60160EFCE014B
:103950000E945011F60180819181A281B3818F6F05
:1039600080839183A283B383A60160EFCE010E947E
:1039700050118E859F85A889B98984608E879F871D
:10398000A88BB98BA50160E8CE010E945011AE0151
:103990004E595F4FFA01108211821282138261E048
:1039A000CE01DF91CF911F910F91FF90EF90DF90AB
:1039B000CF90BF90AF909F908F900C9450118091BA
:1039C000F0039091F1030E94281360931F0D7093F0
:1039D000200D8093210D9093220D8091EC03909106
:1039E000ED030E94FE1360935D0470935E04809368
:1039F0005F0490936004A8951092F2030895CF920B
:103A0000DF92EF92FF920F931F93CF93DF93CDB787
:103A1000DEB7A0970FB6F894DEBF0FBECDBF61151D
:103A200071058105910571F100E0C42ED12CF12CB6
:103A3000E12CA70196010E94D97711E0100FE1E077
:103A4000F0E0EC0FFD1FE00FF11D07FDFA9560831C
:103A5000B901CA01012F611571058105910549F769
:103A6000115000F1E1E0F0E0EC0FFD1FE10FF11D5E
:103A700017FDFA95908187E39A3008F480E3890F67
:103A800051DCEECF80E3A0960FB6F894DEBF0FBEF8
:103A9000CDBFDF91CF911F910F91FF90EF90DF90FD
:103AA000CF9040CCA0960FB6F894DEBF0FBECDBF2E
:103AB000DF91CF911F910F91FF90EF90DF90CF900A
:103AC0000895CF92DF92EF92FF92CF93DF936A0136
:103AD0007B01EC01FE0184912196882311F022DC08
:103AE000F9CF4AE0C701B601DF91CF91FF90EF9087
:103AF000DF90CF9084CFCF92DF92EF92FF926B0155
:103B00007C01F7FE0AC08DE20DDCF094E094D094C5
:103B1000C094C11CD11CE11CF11C4AE0C701B601D4
:103B2000FF90EF90DF90CF906ACF0F931F93CF93CA
:103B3000DF93EB018C01F80184910F5F1F4F882305
:103B400011F0F0DBF8CFBE01DD0F880B990BDF9190
:103B5000CF911F910F91CFCFCF93DF938A589F4F73
:103B6000FC01C081D181862FE4DBBE0180EC94E0B2
:103B7000DCDF8AE0DF91CF91D5CBFF920F931F93CB
:103B8000CF93DF93182F062FF72E809131028823D1
:103B900029F1CEE5DCE1FE0184912196811110C06E
:103BA000C02FDF2DFE018491219681110BC0CBE83F
:103BB000D4E1FE0184912196882331F0B3DBF9CF63
:103BC000B1DBE9CFAFDBEECFC6E8D4E1111110C015
:103BD00060E070E0CB018FDF8AE0A4DB8091BD0361
:103BE00081110DC01092310281E08093BD03B4DCDD
:103BF000FE0184912196882389F394DBF9CFDF912C
:103C0000CF911F910F91FF900C940E152F923F9220
:103C10004F925F926F927F928F929F92AF92BF92DC
:103C2000CF92DF92EF92FF920F931F93CF93DF9388
:103C300000D0CDB7DEB75C011B014A01098381E0EA
:103C400090E09B838A83011102C01B821A82F901D2
:103C500040805180628073808A819B81880F991F88
:103C6000880F991F9B838A838C010F511C4FA301DE
:103C70009201F80160817181828193810E941574A3
:103C8000882391F0F801408251826282738211E0B0
:103C900020E030E0A901C301B2010E943B7A18166E
:103CA0000CF010E0F5011083F50180818230D1F035
:103CB000833009F46FC0813009F046C0EA81FB818E
:103CC000EF51FC4F2081318142815381F4016081A9
:103CD0007181828193810E94157487FD35C082E0D5
:103CE000F50180838A819B818F519C4F9B838A83BE
:103CF000B60190E080E00E9419749B01AC01EA815A
:103D0000FB8160817181828193810E9414789B0183
:103D1000AC01F40160817181828193810E943B7AC0
:103D200087FD28C00E94F4104B015C019701A8EEAA
:103D3000B3E00E940578860E971EA81EB91EF101F9
:103D400080829182A282B3820F900F900F90DF91B8
:103D5000CF911F910F91FF90EF90DF90CF90BF9088
:103D6000AF909F908F907F906F905F904F903F901B
:103D70002F9008950E94F410F10100811181228199
:103D80003381601B710B820B930B97FDDDCF83E0BA
:103D9000F5018083F9814CEE55E1FF3F11F44FEFBF
:103DA00055E163E176E189810F900F900F90DF91EB
:103DB000CF911F910F91FF90EF90DF90CF90BF9028
:103DC000AF909F908F907F906F905F904F903F90BB
:103DD0002F90D3CE4F925F926F927F928F929F924D
:103DE000AF92BF92CF92DF92EF92FF920F931F9309
:103DF000CF93DF93CDB7DEB760970FB6F894DEBFF1
:103E00000FBECDBF8091F203811117C060960FB62F
:103E1000F894DEBF0FBECDBFDF91CF911F910F9100
:103E2000FF90EF90DF90CF90BF90AF909F908F90DA
:103E30007F906F905F904F900895C1DD0E94F410C5
:103E40004B015C0160911D0D70911E0D072E000C41
:103E5000880B990B0E941B7469837A838B839C83E4
:103E600034E0C32ED12C48E2E42EF12C00E09E0178
:103E70002F5F3F4F4FE15DE066ED73E08AED93E029
:103E8000C5DEC0901F0DD090200DE090210DF09068
:103E9000220D6091D4037091D503072E000C880B7E
:103EA000990B0E941B749B01AC01C701B6010E94D3
:103EB0003B7A18160CF01EC160911C0270911D0215
:103EC000072E000C880B990B0E941B749B01AC0100
:103ED000C701B6010E94157487FF0CC100911D0D2A
:103EE00010911E0DB801012E000C880B990B0E9439
:103EF0001B74A70196010E9414786D837E838F83C3
:103F0000988720ED3CEC4CE45DE36091B80470913F
:103F1000B9048091BA049091BB040E947A742B0179
:103F20003C012091C7033091C8034091C9035091CF
:103F3000CA03C701B6010E9414789B01AC01C301FA
:103F4000B2010E947A742B013C0123E333E343E77F
:103F50005FE36091C3037091C4038091C5039091A6
:103F6000C6030E947A749B01AC01C301B2010E9496
:103F700015782B013C014092C3035092C403609218
:103F8000C5037092C603C092C703D092C803E092E3
:103F9000C903F092CA0320E030E040E251E46D81B1
:103FA0007E818F8198850E943B7A18160CF47EC121
:103FB00020E030E040E251EC6D817E818F81988578
:103FC0000E94157487FD77C1012B09F474C180919B
:103FD000C203811176C12091BE033091BF0340918D
:103FE000C0035091C10329873A874B875C87209192
:103FF000C0043091C1044091C2045091C3046D814A
:104000007E818F8198850E947A746D877E878F87E5
:10401000988B2D813E814F81588569857A858B8566
:104020009C850E94157869877A878B879C87609327
:10403000BE037093BF038093C0039093C10320918C
:10404000BC043091BD044091BE045091BF040E9455
:104050007A742D853E854F8558890E941578A30175
:1040600092010E9414782B013C0120E030E046E9E7
:1040700052E40E943B7A20E030E0A90118160CF0CF
:1040800027C16D817E818F8198850E943B7A1816A9
:1040900094F42D813E814F81588569857A858B8581
:1040A0009C850E9414786093BE037093BF03809335
:1040B000C0039093C10365E21EC020E030E0A90177
:1040C0006D817E818F8198850E94157487FF12C053
:1040D0002D813E814F81588569857A858B859C85A8
:1040E0000E9414786093BE037093BF038093C00353
:1040F0009093C10360E0609303048091170D909149
:10410000180DA091190DB0911A0D0097A105B105D8
:1041100001F1A5019401281B390B4A0B5B0BDA0155
:10412000C901B7FD16C060911B0D70911C0D90E088
:1041300080E00E9419749B01AC01C701B6010E9486
:10414000157487FFADC04BEC54E16DED74E180E078
:1041500014DD8091DB039091DC03A091DD03B0912D
:10416000DE030097A105B10531F1A5019401281BDB
:10417000390B4A0B5B0BDA01C901B7FD1CC060911A
:10418000DF037091E00390E080E00E9419749B01CE
:10419000AC0160915D0470915E0480915F04909128
:1041A00060040E94157487FF7EC049EA54E16CEBFD
:1041B00074E18FEFE2DC8091D0039091D103A09164
:1041C000D203B091D303A5019401281B390B4A0BEC
:1041D0005B0BDA01C901B7FD19CE38E8830E33E174
:1041E000931EA11CB11C8092D0039092D103A09287
:1041F000D203B092D3036091610470916204072EE0
:10420000000C880B990B0E941B7469837A838B8343
:104210009C8382E0C82ED12C94E1E92EF12C0FEF83
:104220009E012F5F3F4F4DE554E06BEC73E08FEC48
:1042300093E0ECDCC0905D04D0905E04E0905F04FD
:10424000F090600420E030E040EA50E4C701B6019D
:104250000E943B7A87FD20C020E030E048EC52E429
:10426000C701B6010E9415741816B4F0609161047C
:1042700070916204072E000C880B990B0E941B742E
:104280009B01AC01C701B6010E94157487FD17C0E0
:1042900080E080930404BACD10920404A598B6CDB2
:1042A0000E94001156CF0E94B71385CF81E0809302
:1042B000C20365E220CF81E08093C2031BCF8FE76A
:1042C000E8CF1092C20319861A861B861C868FCEF1
:1042D000C301B2010E94157487FDEFCEC301B20184
:1042E0000E9459797595679506CFCF93DF9380919A
:1042F000570380935803C2E2D3E0FE0184912196D4
:10430000882311F00FD8F9CF6091130D7091140D1F
:104310008091150D9091160D6F5F7F4F8F4F9F4FBE
:10432000EADB8AE00E949219E0915406F0E0EB5338
:10433000FB4F8081882319F0DF91CF91D3C8DF91A3
:10434000CF9108950F931F93CF93DF93182F092FC9
:10435000CEE5DCE1FE018491219681110AC0C12FD6
:10436000D02FFE0184912196882331F00E9492196A
:10437000F8CF0E949219EECF6091130D7091140D39
:104380008091150D9091160DB6DB8AE00E9492196E
:10439000ACDF1092120D1092110DDF91CF911F9191
:1043A0000F910895FF920F931F93CF93DF93082FE0
:1043B000F92E162FCDE1D3E0FE01849121968111D3
:1043C00011C0C02FDF2DFE018491219681110DC0F7
:1043D000CBE1D3E0FE0184912196882349F00E942D
:1043E0009219F8CF0E949219E7CF0E949219EBCF51
:1043F000612F70E090E080E07EDB8AE0DF91CF917A
:104400001F910F91FF900C9492198F929F92AF92EF
:10441000BF92CF92DF92EF92FF92CF936B017C011C
:10442000B42E20E030E0A9010E94157487FF07C078
:104430008DE20E949219F7FAF094F7F8F094C0E038
:1044400060E070E080E09FE3CB1541F02DEC3CECA8
:104450004CEC5DE30E947A74CF5FF6CF9B01AC0118
:10446000C701B6010E9415786B017C010E945E793C
:104470004B015C014AE0C3DACC2389F1C501B401E8
:104480000E9419749B01AC01C701B6010E94147807
:104490006B017C018EE20E949219C15000F120E074
:1044A00030E040E251E4C701B6010E947A744B014A
:1044B0005C010E9459796B01770FEE08FF08C70174
:1044C000B60119DBC701B6010E941B749B01AC0148
:1044D000C501B4010E9414786B017C01DECFCF913D
:1044E000FF90EF90DF90CF90BF90AF909F908F9014
:1044F0000895CF92DF92EF92FF92CF93DF936A01FC
:104500007B01EC01FE0184912196882319F00E9421
:104510009219F8CF42E0C701B601DF91CF91FF9029
:10452000EF90DF90CF9071CFFF920F931F93CF93B7
:10453000DF938C01EB01F42E80E20E9492198FEF41
:10454000F816F9F084E50E9492198AE30E94921904
:10455000F801608171818281938142E056DF488158
:1045600059816A817B8189E896E1C3DF62E070E06E
:1045700080E090E0DF91CF911F910F91FF900C941C
:10458000C31082E4E0CF0F931F93CF93DF9300D04B
:1045900000D01F921F92CDB7DEB760911D0D7091B4
:1045A0001E0D072E000C880B990B0E941B746D8347
:1045B0007E838F83988780911F0D9091200DA0910D
:1045C000210DB091220D89839A83AB83BC834DEF7B
:1045D000BE016B5F7F4FCE010196A6DF6091610443
:1045E00070916204072E000C880B990B0E941B74BB
:1045F0006D837E838F83988780915D0490915E04A4
:10460000A0915F04B091600489839A83AB83BC83DB
:104610004FEFBE016B5F7F4FCE01019685DF01E951
:1046200016E1F80184910F5F1F4F882319F00E9453
:104630009219F7CFE091C404F0E0ED5FFB4F608189
:1046400070E090E080E057DA0CE816E1F801849120
:104650000F5F1F4F882319F00E949219F7CF6091C6
:10466000040470E090E080E046DA28960FB6F894F3
:10467000DEBF0FBECDBFDF91CF911F910F91089587
:104680002F923F924F925F926F927F928F929F9262
:10469000AF92BF92CF92DF92EF92FF920F931F9350
:1046A000CF93DF93CDB7DEB7C254D1090FB6F894DC
:1046B000DEBF0FBECDBF9A8389836F834B832BAF41
:1046C0000E94F4106B877C878D879E874F804420E3
:1046D00081F02CE534E13A832983E981FA818491E0
:1046E0003196FA83E983882309F45FC30E94921903
:1046F000F4CFA981BA814D905D906D907C904AA6CF
:104700005BA66CA67DA660911C0270911D026F5085
:104710007109072E000C880B990B0E941B749B01DA
:10472000AC01C301B2010E943B7A0DE114E11816FD
:1047300084F4E1E3F4E1FA83E983E981FA81849185
:104740003196FA83E983882309F42FC30E949219D2
:10475000F4CFF80184910F5F1F4F882319F00E9456
:104760009219F7CF2B853C854D855E85205E314BB8
:104770004F4F5F4F2AAB3BAB4CAB5DAB0E940E156E
:1047800085E28093030481E0809332024B845C8451
:104790006D847E8449A25AA26BA27CA24EA65FA61B
:1047A00068AA79AA19A61EAA1FAA18AE19AE1D8A50
:1047B00020E42E8B3CE13F8B46E4488F198A1A8A0D
:1047C0001B8A1C8A1D8E1E8E1F8E18A2198E1A8E91
:1047D0001B8E1C8E812C912C540175E2472E512C7E
:1047E000612C712C4F82588669867A86E5E2CE2E3E
:1047F000D12CE12CF12C1DA21EA21FA218A621E093
:104800002EAF188A1F86212C312C00E010E04B803F
:10481000042C000C55085DAE4CAE8091320288230A
:1048200009F4DDC20E94F4106B837C838D839E8328
:104830005090F2035AAE552009F47DC0C0D82090A4
:104840001F0D3090200D0091210D1091220D91012E
:10485000A80169897A898B899C890E94157487FFD0
:1048600004C0298A3A8A0B8B1C8B9101A8016D899F
:104870007E898F89988D0E943B7A181624F42D8AA0
:104880003E8A0F8B188FA981BA814C9011965C904B
:10489000119712966C90129713967C90BEAD910171
:1048A000A801B201C301BB2309F4B4C20E9415746C
:1048B00087FF5EC12B813C814D815E8189A19AA1D8
:1048C000ABA1BCA1281B390B4A0B5B0B23962CAF69
:1048D0003DAF4EAF5FAF2397DA01C90188589341CE
:1048E000A109B109B7FD47C1D701C6012F8138859C
:1048F00049855A85821B930BA40BB50BB595A795DB
:10490000979587958093030423968CAD9DADAEADAE
:10491000BFAD23978DA39EA3AFA3B8A7498A5A8A98
:104920006B8A7C8A4B805C806D807E804B865C8647
:104930006D867E861EAE20E030E040EA51E4A9811B
:10494000BA816D917D918D919C910E941578910114
:10495000A8010E94157487FF11C1E9EAF3E1FA8307
:10496000E983E981FA8184913196FA83E983882386
:1049700009F435C20E949219F4CF44E1C42ED12C1F
:10498000E12CF12C24E130E040E050E02F83388727
:1049900049875A87A1C2CF82D886E986FA869CC207
:1049A000C701B601A8D820E134E13AA329A3E9A1BF
:1049B000FAA184913196FAA3E9A3882319F00E9401
:1049C0009219F5CF6F81788589859A8594D84D891C
:1049D0005E896F89788D89E094E18BDD49895A89F8
:1049E0006B897C8982E094E184DD2F8538892330CE
:1049F00031050CF48DC06F81788589859A850E9478
:104A00001B7420E030E040E850E40E947A744B01CF
:104A10005C012D893E894F89588D69897A898B89F6
:104A20009C890E9414782BED3FE049E450E40E94F9
:104A30007A7420E030E040E05FE30E947A749B01EA
:104A4000AC01C501B4010E94F1784B015C01C301C6
:104A5000B2010E941B742FE632E143E85AE30E9440
:104A60007A742B013C01B501A4018CEF93E141DD87
:104A7000B301A20186EF93E13CDD2AE939E949E17E
:104A80005FE3C501B4010E947A744B015C01AC0183
:104A90009B010E941578A30192010E94F178698F11
:104AA0007A8F8B8F9C8FA5019401C301B2010E9464
:104AB0007A7420E030E040E05EE30E947A746D8F0B
:104AC0007E8F8F8F98A346EE53E15AA349A3E9A1A5
:104AD000FAA184913196FAA3E9A3882319F00E94E0
:104AE0009219F5CFB501A40180EE93E102DD498D65
:104AF0005A8D6B8D7C8D8AED93E1FBDC4D8D5E8D47
:104B00006F8D78A184ED93E1F4DC8AE00E94921924
:104B10008F819885A985BA858C0D9D1DAE1DBF1D01
:104B2000B595A79597958795809303042F85388928
:104B30002F5F3F4F388B2F87A981BA81BC91BD8BE6
:104B4000E981FA81F181FE8BA981BA811296BC912B
:104B5000BF8BE981FA81F381F88F4B805C806D8097
:104B60007E8049A25AA26BA27CA25AAC5EAEE3CE72
:104B700021E02EAFE0CE31E03EAFDDCE8B819C81D7
:104B8000AD81BE814EA45FA468A879A88419950957
:104B9000A609B709B7FD4BC0F6DC8AE00E9492195E
:104BA0002B813C814D815E812053384F4F4F5F4FA9
:104BB0002EA73FA748AB59AB49A441107CC02EA9F2
:104BC0003FA948AD59ADB101C8010E943B7A181602
:104BD0000CF05BC020E030E040E050E4B101C801DF
:104BE0000E9415786EAB7FAB88AF99AF2B813C816B
:104BF0004D815E81205E314B4F4F5F4F2AAB3BAB07
:104C00004CAB5DAB20E030E040EC50E46AA57BA506
:104C10008CA59DA50E9414789B01AC0181E089A719
:104C2000B101C8010E943B7A18160CF019A68B81BD
:104C30009C81AD81BE81880F991FAA1FBB1F4B8528
:104C40005C856D857E8549A05AA06BA07CA0440D33
:104C5000551D661D771D841B950BA60BB70B813860
:104C60009F44A241B10508F43EC047E453E15A8392
:104C70004983E981FA8184913196FA83E983882313
:104C800009F4ADC00E949219F4CF8B819C81AD8153
:104C9000BE814AA85BA86CA87DA884199509A609BD
:104CA000B70948E853E16AE973E1B7FDC0CF80E096
:104CB0000E94BD1DBCCF20E030E040EA51E4A98154
:104CC000BA816D917D918D919C910E941478910192
:104CD000A8010E943B7A18160CF0A9CF45E653E1D3
:104CE00068E773E1E4CF4CAC5DAC6F847888461420
:104CF00057040CF092CD2AEE32E13A832983E98100
:104D0000FA8184913196FA83E983882319F00E940D
:104D10009219F5CFB501A40186ED92E1EADB8AE0B4
:104D20000E949219498D5A8D6B8D7C8D82EC92E197
:104D3000E0DB8AE00E9492194D8D5E8D6F8D78A127
:104D40008EEA92E1D6DB8AE00E9492194BAC4420B5
:104D500061F18092C0049092C104A092C204B0920A
:104D6000C3042CEA35EC47E25EE3698D7A8D8B8DC6
:104D70009C8D0E947A746093BC047093BD048093F0
:104D8000BE049093BF042CEA35EC47E25EE36D8DE0
:104D90007E8D8F8D98A10E94F1786093B8047093F6
:104DA000B9048093BA049093BB04CE5BDF4F0FB677
:104DB000F894DEBF0FBECDBFDF91CF911F910F9151
:104DC000FF90EF90DF90CF90BF90AF909F908F902B
:104DD0007F906F905F904F903F902F900895CE5BA3
:104DE000DF4F0FB6F894DEBF0FBECDBFDF91CF917E
:104DF0001F910F91FF90EF90DF90CF90BF90AF90F9
:104E00009F908F907F906F905F904F903F902F90EA
:104E10000C940E150E943B7A18160CF08CCD8B81E9
:104E20009C81AD81BE814B845C846D847E848419B9
:104E30009509A609B709AC01BD014858534161095C
:104E4000710977FD78CD6F847888672809F460CE82
:104E50004DA05EA06FA078A4480E591E6A1E7B1E4E
:104E60002DA13EA14FA158A5281B390B4A0B5B0B66
:104E70006F81788589859A850E94CA77A3019201FE
:104E80000E94ED7ADA01C9018C0D9D1DAE1DBF1D7A
:104E900084319105A105B1050CF46FCD6C017D0144
:104EA00028E3C216D104E104F1042CF057E3C52E27
:104EB000D12CE12CF12C8697A105B1050CF46BCD1A
:104EC0008AE490E0A0E0B0E08C199D09AE09BF092A
:104ED0008F839887A987BA8745E154E15AA349A3EC
:104EE000E9A1FAA184913196FAA3E9A3882309F4F0
:104EF00057CD0E949219F4CFEF92FF920F931F9318
:104F0000CF93DF93C82F08E31CE1882399F003E8CF
:104F100017E0F80184910F5F1F4F811114C00CE658
:104F200015E0F80184910F5F1F4F882379F00E94EC
:104F30009219F7CFF80184910F5F1F4F882339F33F
:104F40000E949219F7CF0E949219E3CF8AE00E9443
:104F500092198AE00E949219C1112CC008E31CE149
:104F60007801F7018491FFEFEF1AFF0A81110EC05B
:104F7000A0E7EA2EA7E0FA2EF7018491FFEFEF1ADF
:104F8000FF0A882331F00E949219F6CF0E949219ED
:104F9000E8CF80917C04F5E6EF2EF7E0FF2E882322
:104FA00051F18AE00E949219F80184910F5F1F4F1E
:104FB0008111F8CF409178045091790460917A047E
:104FC00070917B048CE597E094DA8AE00E94921954
:104FD00080917C04811122C008E31CE1CC23A9F05C
:104FE00001E517E0F80184910F5F1F4F8823B1F0AE
:104FF0000E949219F7CFF7018491FFEFEF1AFF0A91
:10500000882391F20E949219F6CFF80184910F5FE4
:105010001F4F882329F30E949219F7CFC11124C092
:1050200008E31CE17801F7018491FFEFEF1AFF0A12
:1050300081110EC0E0E4EE2EE7E0FE2EF701849130
:10504000FFEFEF1AFF0A882331F00E949219F6CF82
:105050000E949219E8CFF80184910F5F1F4F8823B7
:1050600019F00E949219F7CF4091FF0C5091000D5A
:105070006091010D7091020D88E397E03ADA40915A
:10508000030D5091040D6091050D7091060D85E39F
:1050900097E02FDA4091070D5091080D6091090DAE
:1050A00070910A0D82E397E024DA40910B0D509144
:1050B0000C0D60910D0D70910E0D8FE297E019DAD5
:1050C0008AE00E949219C11124C008E31CE1780112
:1050D000F7018491FFEFEF1AFF0A81110EC071E111
:1050E000E72E77E0F72EF7018491FFEFEF1AFF0A22
:1050F000882331F00E949219F6CF0E949219E8CFCE
:10510000F80184910F5F1F4F882319F00E949219B4
:10511000F7CF4091BC065091BD066091BE067091DC
:10512000BF0688E097E0E5D94091C0065091C106DE
:105130006091C2067091C30685E097E0DAD940918C
:10514000C4065091C5066091C6067091C70682E0FC
:1051500097E0CFD94091C8065091C9066091CA0620
:105160007091CB068FEF96E0C4D98AE00E94921925
:10517000C11124C008E31CE17801F7018491FFEF1D
:10518000EF1AFF0A81110EC06DEDE62E66E0F62ED5
:10519000F7018491FFEFEF1AFF0A882331F00E9494
:1051A0009219F6CF0E949219E8CFF80184910F5F0F
:1051B0001F4F882319F00E949219F7CF40917D0468
:1051C00050917E0460917F047091800484ED96E09C
:1051D0000E94611D4091810450918204609183047A
:1051E0007091840481ED96E00E94611D40918504D8
:1051F0005091860460918704709188048EEC96E04B
:105200000E94611D4091890450918A0460918B0431
:1052100070918C048BEC96E00E94611D8AE00E94E4
:105220009219C11124C008E31CE17801F7018491AF
:10523000FFEFEF1AFF0A81110EC051E8E52E56E08C
:10524000F52EF7018491FFEFEF1AFF0A882331F062
:105250000E949219F6CF0E949219E8CFF80184912A
:105260000F5F1F4F882319F00E949219F7CF4091CA
:10527000B4065091B5066091B6067091B70688E7FE
:1052800096E037D94091B8065091B9066091BA06B8
:105290007091BB0685E796E02CD94091B0065091FD
:1052A000B1066091B2067091B30682E796E021D90B
:1052B0008AE00E949219C11140C008E31CE1780104
:1052C000F7018491FFEFEF1AFF0A811124C04AE22F
:1052D000E42E46E0F42EF7018491FFEFEF1AFF0A67
:1052E00081111CC03FEFE32E35E0F32EF7018491CE
:1052F000FFEFEF1AFF0A811114C020EFE22E25E024
:10530000F22EF7018491FFEFEF1AFF0A882361F074
:105310000E949219F6CF0E949219D2CF0E94921940
:10532000DACF0E949219E2CF8AE00E949219F80126
:1053300084910F5F1F4F8111F8CF4091CC0650919F
:10534000CD066091CE067091CF0687EE95E00E9463
:10535000611D4091E4065091E5066091E60670916A
:10536000E70684EE95E0C5D84091E0065091E1064D
:105370006091E2067091E30681EE95E0BAD8409123
:105380008C0650918D0660918E0670918F068EED81
:1053900095E0AFD8409190065091910660919206A9
:1053A000709193068BED95E0A4D8409194065091AE
:1053B0009506609196067091970688ED95E099D8CC
:1053C000409198065091990660919A0670919B06BB
:1053D00085ED95E08ED88AE00E949219C11124C013
:1053E00008E31CE17801F7018491FFEFEF1AFF0A4F
:1053F00081110EC097ECE92E95E0F92EF70184910A
:10540000FFEFEF1AFF0A882331F00E949219F6CFBE
:105410000E949219E8CFF80184910F5F1F4F8823F3
:1054200019F00E949219F7CF409190045091910485
:1054300060919204709193048EEB95E05AD840915C
:1054400094045091950460919604709197048BEBAD
:1054500095E04FD8409198045091990460919A0436
:1054600070919B0488EB95E044D88AE00E949219E1
:10547000C11124C008E31CE17801F7018491FFEF1A
:10548000EF1AFF0A81110EC089EAE82E85E0F82E96
:10549000F7018491FFEFEF1AFF0A882331F00E9491
:1054A0009219F6CF0E949219E8CFF80184910F5F0C
:1054B0001F4F882319F00E949219F7CF4091C00422
:1054C0005091C1046091C2047091C30480EA95E0D8
:1054D00010D82CEA35EC47E25EE36091BC04709191
:1054E000BD048091BE049091BF040E94F178AB018D
:1054F000BC018DE995E00E9479222CEA35EC47E267
:105500005EE36091B8047091B9048091BA049091FF
:10551000BB040E947A74AB01BC018AE995E00E9449
:1055200079228AE00E949219C1111FC0C8E3DCE110
:105530008E01F80184910F5F1F4F81110BC001E8AC
:1055400015E0F80184910F5F1F4F882331F00E940E
:105550009219F7CF0E949219ECCFFE018491219607
:10556000882319F00E949219F8CF0E94641A609162
:10557000040F7091050F8EE795E00E94951D6091D4
:105580008B0E70918C0E8BE795E00E94951D6091BB
:10559000120E7091130E88E795E00E94951D8AE027
:1055A0000E9492190E94641A6091990D70919A0D4F
:1055B00082E795E00E94951D8AE00E9492198AE098
:1055C000DF91CF911F910F91FF90EF900C94921962
:1055D0004F925F926F927F928F929F92AF92BF9203
:1055E000CF92DF92EF92FF92CF93DF9320919C04B2
:1055F00030919D0440919E0450919F0460916906F2
:1056000070916A0680916B0690916C060E941578E5
:10561000AB01BC0188E193E00E9479222091A004B3
:105620003091A1044091A2045091A30460916D06B1
:1056300070916E0680916F06909170060E941578A9
:10564000AB01BC0184E193E00E9479222091A40483
:105650003091A5044091A6045091A7046091710671
:105660007091720680917306909174060E9415786D
:10567000AB01BC0180E193E00E9479224091750664
:105680005091760660917706709178068CE093E0F1
:105690000E94792280916F00982F927081FF05C03F
:1056A00080916F008D7F80936F0040903304509005
:1056B00034046090350470903604809037049090E4
:1056C0003804A0903904B0903A04C0903B04D090C4
:1056D0003C04E0903D04F0903E04992329F0809131
:1056E0006F00826080936F00C2E0D3E0FE0184917E
:1056F0002196882319F00E949219F8CFC301B201B4
:105700000E947B1DCEEFD2E0FE018491219688237A
:1057100019F00E949219F8CFC501B4010E947B1DB7
:10572000CAEFD2E0FE0184912196882319F00E94ED
:105730009219F8CFC701B6010E947B1D8AE0DF9164
:10574000CF91FF90EF90DF90CF90BF90AF909F9060
:105750008F907F906F905F904F900C9492192F9242
:105760003F924F925F926F927F928F929F92AF92F1
:10577000BF92CF92DF92EF92FF920F931F93CF933E
:10578000DF93CDB7DEB76C970FB6F894DEBF0FBED0
:10579000CDBF8C015B015A834983FC01E95BFF4F5C
:1057A0002081318142815381298B3A8B4B8B5C8BD9
:1057B000CA01B9010E9419746B017C01D5012D91B8
:1057C0003D914D915C910E947A740E94DB780E9419
:1057D0005E794B015C01E981FA812081318142814E
:1057E0005381C701B6010E947A740E94DB780E943F
:1057F0005E7989869A86AB86BC8629853A854B85F3
:105800005C85283731054105510540F428E730E033
:1058100040E050E029873A874B875C876D837E8321
:105820008F8398874D815E816F81788548375105D8
:105830006105710540F468E770E080E090E06D83F9
:105840007E838F839887F801ED5AFF4F4080518007
:1058500062807380C301B2010E941B7469837A83E2
:105860008B839C8369857A858B859C850E941974BE
:105870006D8B7E8B8F8B988F20E030E0A901698142
:105880007A818B819C810E941574882309F4E1C17F
:10589000A7019601C701B6010E947A744B015C0111
:1058A0002D893E894F89588DCA01B9010E947A74A9
:1058B0009B01AC01C501B4010E9414784B015C014D
:1058C00029813A814B815C81CA01B9010E94157816
:1058D0009B01AC01C501B4010E94F1780E94DB7804
:1058E0000E945E796D877E878F87988B66277727E2
:1058F000CB0164197509860997090E941B744B0135
:105900005C016D817E818F8198850E9419742B01C5
:105910003C0120E030E0A901C501B4010E941574EA
:10592000882309F49AC1A3019201C301B2010E9424
:105930007A74698F7A8F8B8F9C8FA7019601C7012C
:10594000B6010E947A749B01AC01698D7A8D8B8DB2
:105950009C8D0E9414786B017C01A5019401C50106
:10596000B4010E9415789B01AC01C701B6010E94E9
:10597000F1780E948A79D80195968D909D90AD908E
:10598000BC909897750164012D853E854F85588997
:10599000C21AD30AE40AF50A0E945E79C61AD70A27
:1059A000E80AF90AF7FE8EC02D893E894F89588D85
:1059B000CA01B9010E947A746B017C0129813A8184
:1059C0004B815C81CA01B9010E941578698B7A8B81
:1059D0008B8B9C8B20E030E0A90169817A818B81DF
:1059E0009C810E941574882309F43BC1C501B40150
:1059F0000E94197429893A894B895C890E947A74BA
:105A0000A70196010E9414786D877E878F87988BF7
:105A1000A3019201C301B2010E947A749B01AC01FF
:105A20006D857E858F8598890E9415782B013C01B4
:105A300020E030E040E850E469817A818B819C81EC
:105A40000E947A749B01AC01C301B2010E94F178FB
:105A50000E94DB782B013C0120E030E0A9010E948C
:105A60003B7A18161CF0412C512C3201C301B201B3
:105A70000E945E796D877E878F87988B8616970642
:105A8000A806B90620F48D869E86AF86B88A6D85F5
:105A90007E858F8598890E94197429893A894B8956
:105AA0005C890E947A74A70196010E9415780E9471
:105AB000807A0E945E79698B7A8B8B8B9C8BC12C50
:105AC000D12C760169897A898B899C8929853A85C7
:105AD0004B855C85621B730B840B950B0E941974BC
