:100000000C94920C0C94C30C0C94C30C0C94C30C65
:100010000C94C30C0C94C30C0C94C30C0C94C30C24
:100020000C94C30C0C94C30C0C94C30C0C94C30C14
:100030000C94C30C0C94C30C0C94C30C0C94C30C04
:100040000C94C30C0C940F230C94C30C0C94C30C91
:100050000C94C30C0C94C30C0C946A3C0C94B84DD7
:100060000C94C30C0C9445140C94C30C0C94C30C4A
:100070000C94C30C0C94C30C0C94C30C0C94C30CC4
:100080000C94C30C0C94C30C0C94C30C0C94C30CB4
:100090000C94C30C0C94C30C0C94C30C0C94C30CA4
:1000A0000C94C30C0C94C30C0C94C30C0C94C30C94
:1000B0000C94C30C0C94C30C0C94C30C0C94C30C84
:1000C0000C94C30C0C94C30C0C94C30C0C94C30C74
:1000D0000C94C30C0C94C30C0C94C30C0C94C30C64
:1000E0000C94C30C2547284717471B4721475F47F8
:1000F0002C47304736473A473E47444748474C47E6
:100100005F47524756475A47D44CD94CDE4CE84CCF
:10011000F24C6B4DFC4C044D0C4D164D204D2A4DB0
:10012000394D434D6B4D4D4D574D614D084AD73BB1
:100130003BCE016E84BCBFFDC12F3D6C74319ABDB6
:1001400056833DDA3D00C77F11BED9E4BB4C3E91DA
:100150006BAAAABE000000803F05A84CCDB2D44EC9
:10016000B93836A9020C50B9918688083CA6AAAACB
:100170002ABE000000803F004E414E494E4954596E
:10018000494E46CDCCCC3D0AD7233C17B7D1387762
:10019000CC2B329595E6241FB14F0A000020410078
:1001A00000C84200401C4620BCBE4CCA1B0E5AAEC2
:1001B000C59D74434F4D4D554E49434154494F4E93
:1001C0000044525952554E004552524F5253004925
:1001D0004E464F004543484F0047322F4733206279
:1001E000616420706172616D65746572730A0000EC
:1001F0000048420000484200008040000000002506
:1002000069730025696D20256973002569682025BB
:10021000696D20256973002569642025696820259A
:10022000696D202569730025697920256964202579
:1002300069682025696D20256973005072696E74A4
:100240002074696D653A200050726F74656374653F
:10025000642050696E0A00D401CF01C801C101B306
:10026000016F66660044454255473A004B494C4C85
:1002700045442E20004D3131332053006F6B002058
:10028000573A0020573A004361703A454D4552476E
:10029000454E43595F5041525345523A300A00434C
:1002A00061703A434153455F4C494748545F42525D
:1002B000494748544E4553533A300A004361703A17
:1002C000544F47474C455F4C49474854533A300ACE
:1002D000004361703A534F4654574152455F504F67
:1002E0005745523A300A004361703A4255494C44EE
:1002F0005F50455243454E543A300A004361703ACC
:100300004C4556454C494E475F444154413A300AAA
:10031000004361703A5A5F50524F42453A300A00EA
:100320004361703A4155544F4C4556454C3A300A5A
:10033000004361703A5052494E545F4A4F423A313D
:100340000A004361703A50524F47524553533A3076
:100350000A004361703A4155544F5245504F525430
:100360005F54454D503A310A004361703A4545505B
:10037000524F4D3A300A004361703A534552494159
:100380004C5F584F4E5F584F46463A300A00464938
:10039000524D574152455F4E414D453A4D61726C49
:1003A000696E20312E312E372028476974687562B6
:1003B0002920534F555243455F434F44455F5552A3
:1003C0004C3A68747470733A2F2F67697468756259
:1003D0002E636F6D2F4D61726C696E4669726D7719
:1003E0006172652F4D61726C696E2050524F544F8F
:1003F000434F4C5F56455253494F4E3A312E3020B1
:100400004D414348494E455F545950453A33442085
:100410005072696E74657220455854525544455265
:100420005F434F554E543A3120555549443A636520
:100430006465326132662D343161322D343734389F
:100440002D396231322D63353563363266333637B6
:1004500066660A002F2F200053657474696E67204A
:1004600054726176656C20416363656C657261747A
:10047000696F6E3A200053657474696E6720526527
:10048000747261637420416363656C657261746941
:100490006F6E3A200053657474696E6720507269FC
:1004A0006E7420416363656C65726174696F6E3A46
:1004B000200053657474696E67205072696E7420F1
:1004C000616E642054726176656C20416363656C73
:1004D00065726174696F6E3A2000205A00205900DD
:1004E000580020204D61783A2000205A0020590001
:1004F000580020204D696E3A20004F6E20004F6654
:100500006600536F667420656E6473746F70733A1F
:100510002000000125301D0CFF24311C0BFF232F70
:100520001B0AFFFFFF040806FFFF222B1A414204AB
:100530003803FF3628294527444320643A002069C0
:100540003A0020703A0043290A0061626C65642019
:10055000286D696E2074656D702000436F6C642097
:10056000657874727564657320617265200000009F
:1005700000000000000000000000546F6F20666162
:10058000722066726F6D207265666572656E636556
:1005900020706F696E740A00FFFFFF454550524F8F
:1005A0004D2064697361626C65640A004E6F20635C
:1005B000617365206C696768740A004163746976C9
:1005C000652045787472756465723A2000556E6BCB
:1005D0006E6F776E20636F6D6D616E643A202200DE
:1005E000205A3A0020593A0020583A00656E647348
:1005F000746F7073206869743A2000656E71756558
:100600007565696E672022004B494C4C45442E208D
:10061000005072696E7465722073746F70706564D7
:100620002064756520746F206572726F72732E205E
:1006300046697820746865206572726F7220616EF9
:100640006420757365204D39393920746F207265C7
:1006500073746172742E202854656D7065726174B4
:100660007572652069732072657365742E205365F9
:100670007420697420616674657220726573746198
:100680007274696E67290A004E6F20436865636B58
:1006900073756D2077697468206C696E65206E755E
:1006A0006D6265722C204C617374204C696E653AE2
:1006B0002000636865636B73756D206D69736D6190
:1006C0007463682C204C617374204C696E653A2009
:1006D000004C696E65204E756D62657220697320ED
:1006E0006E6F74204C617374204C696E65204E757A
:1006F0006D6265722B312C204C617374204C696ED5
:10070000653A20004D3131300020496E76616C69C8
:1007100064206578747275646572200000000000C2
:1007200000000000000000000000484300004843B3
:1007300000009642205A3A0020593A0020436F7533
:100740006E7420583A0020453A00205A3A00205949
:100750003A00583A00526573656E643A20006F6B38
:100760000020746F6F206C6F6E67206578747275EF
:1007700073696F6E2070726576656E7465640A00C9
:1007800020636F6C6420657874727573696F6E2076
:1007900070726576656E7465640A004861726463A0
:1007A0006F6465642044656661756C74205365747C
:1007B00074696E6773204C6F616465640A00B80BDE
:1007C0000000B80B000064000000102700000000CB
:1007D0009643000096430000A0400000C84100007E
:1007E000A0420000A0420000C8430000FA43204598
:1007F00000205A0020204D393037205800537465AE
:1008000070706572206D6F746F722063757272659F
:100810006E74733A0A0020440020490020204D33B2
:1008200030312050005049442073657474696E67FC
:10083000733A0A00205A0020590020204D323036E9
:10084000205800486F6D65206F66667365743A0ABC
:1008500000204500205A0020590020580020420066
:1008600020540020204D3230352053004164766101
:100870006E6365643A20533C6D696E5F66656564BE
:10088000726174653E20543C6D696E5F747261766E
:10089000656C5F66656564726174653E20423C6D9F
:1008A000696E5F7365676D656E745F74696D655FB2
:1008B00075733E20583C6D61785F78795F6A657228
:1008C0006B3E205A3C6D61785F7A5F6A65726B3E61
:1008D00020453C6D61785F655F6A65726B3E0A001A
:1008E00020540020520020204D323034205000414E
:1008F0006363656C65726174696F6E2028756E69DB
:1009000074732F7332293A20503C7072696E745F91
:10091000616363656C3E20523C72657472616374FE
:100920005F616363656C3E20543C74726176656CF4
:100930005F616363656C3E0A00204500205A002019
:10094000590020204D3230312058004D6178696DBA
:10095000756D20416363656C65726174696F6E20AB
:1009600028756E6974732F7332293A0A0020450086
:10097000205A0020590020204D3230332058004D9D
:100980006178696D756D2066656564726174657303
:100990002028756E6974732F73293A0A0020450068
:1009A000205A0020590020204D393220580053741D
:1009B0006570732070657220756E69743A0A002044
:1009C000204D3230302044300A0020204D3230306B
:1009D0002044002044697361626C65640A004669C2
:1009E0006C616D656E742073657474696E67733ABB
:1009F000002020473231202020203B20556E697492
:100A00007320696E206D6D0A007A5F6D696E3A2001
:100A100000795F6D696E3A2000785F6D696E3A20EB
:100A2000005265706F7274696E6720656E647374CE
:100A30006F70207374617475730A00627573793A0C
:100A40002070617573656420666F7220696E7075C1
:100A5000740A00627573793A207061757365642059
:100A6000666F7220757365720A00627573793A2039
:100A700070726F63657373696E670A004B494C4C03
:100A800045442E20004B494C4C20636175736564CE
:100A900020627920746F6F206D75636820696E61C4
:100AA00063746976652074696D65202D20637572A5
:100AB00072656E7420636F6D6D616E643A200050D4
:100AC00072696E7465722068616C7465642E206B47
:100AD000696C6C28292063616C6C6564210A0020B4
:100AE00020506C616E6E6572427566666572427901
:100AF0007465733A20002046726565204D656D6F00
:100B000072793A2000436F6D70696C65643A2041D8
:100B1000707220313920323031390A00207C204176
:100B20007574686F723A20286E6F6E652C2064654C
:100B30006661756C7420636F6E666967290A00329E
:100B40003031372D31322D31352031323A303000CD
:100B5000204C61737420557064617465643A2000A0
:100B6000312E312E370A004D61726C696E002053B0
:100B70006F6674776172652052657365740A002030
:100B80005761746368646F672052657365740A0007
:100B90002042726F776E206F757420526573657492
:100BA0000A002045787465726E616C205265736529
:100BB000740A00506F77657255700A007374617221
:100BC000740A005761726E696E673A20486F6D69EA
:100BD0006E672042756D702044697669736F72206C
:100BE0003C20310A000202040000A0400000A040A6
:100BF000000020C000004843000048430000964227
:100C000024F4D43050C38E20C2A24017828B7011BE
:100C1000127A910D816CD90AA861E108C75866075C
:100C2000615143061E4B5D05C145A7041A411104DD
:100C3000093D9803713931034036DB026533910277
:100C4000D4305402802E1D02632CEE01752AC5019A
:100C5000B028A001102781018F2564012B244B01AE
:100C6000E0223401AC211F018D200D01801FFC000A
:100C7000841EED00971DDF00B81CD200E61BC600E5
:100C8000201BBC00641AB200B219A8000A19A00007
:100C90006A189900D117910040178B00B51684008F
:100CA00031167E00B31579003A157300C7146F0032
:100CB00058146A00EE1366008813630025135E0063
:100CC000C7125B006C12570015125400C11151007D
:100CD00070114F0021114B00D61049008D104700B4
:100CE0004610440002104200C00F4000800F3E003A
:100CF000420F3C00060F3B00CB0E3800930E37002E
:100D00005C0E3500270E3400F30D3200C10D3100AA
:100D1000900D3000600D2E00320D2D00050D2C00C1
:100D2000D90C2B00AE0C2900850C29005C0C270087
:100D3000350C27000E0C2600E80B2400C40B240001
:100D4000A00B23007D0B23005A0B2100390B21003F
:100D5000180B2000F80A1F00D90A1E00BB0A1E004B
:100D60009D0A1D00800A1D00630A1C00470A1B0023
:100D70002C0A1B00110A1A00F7091A00DD091900D4
:100D8000C4091900AB091900920917007B09180062
:100D9000630917004C0916003609160020091600D1
:100DA0000A091500F5081500E0081400CC08140025
:100DB000B8081400A4081400900813007D0812005D
:100DC0006B0813005808120046081200340811007E
:100DD000230811001208110001081100F00710008B
:100DE000E0071000D0071000C0071000B0070F0088
:100DF000A107100091070E0083070F0074070F0072
:100E000065070E0057070E0049070E003B070D004F
:100E10002E070E0020070D0013070D0006070D001A
:100E2000F9060C00ED060D00E0060C00D4060C00DF
:100E3000C8060C00BC060C00B0060C00A4060B0093
:100E400099060C008D060B0082060B0077060B003E
:100E50006C060B0061060A0057060B004C060A00E0
:100E600042060A0038060A002E060A0024060A0076
:100E70001A060A001006090007060A00FD05090007
:100E8000F4050900EB050900E2050900D905090090
:100E9000D0050900C7050900BE050900B505080011
:100EA000AD050800A50509009C050800940508008B
:100EB0008C050800840508007C05080074050800FE
:100EC0006C050700650508005D050700560508006C
:100ED0004E050700470507004005080038050700D4
:100EE000310507002A050700230507001C05060039
:100EF000160507000F050700080506000205070094
:100F0000FB040600F5040700EE040600E8040600F2
:100F1000E2040700DB040600D5040600CF04060047
:100F2000C9040600C3040600BD040600B704060099
:100F3000B1040500AC040600A6040600A0040500E8
:100F40009B04060095040500900406008A04050031
:100F500085040500800406007A0405007504050078
:100F6000700405006B0405006604050061040500BB
:100F70005C04050057040500520405004D040500FB
:100F800048040500430405003E0404003A0405003B
:100F900035040500300404002C0405002704040077
:100FA000230405001E0404001A04040016040500AE
:100FB000110404000D0404000904050004040400E5
:100FC00000040400FC030400F8030400F40304001C
:100FD000F0030400EC030400E8030400E40304004D
:100FE000E0030400DC030400D8030400D40304007D
:100FF000D0030400CC030400C8030300C5030300AE
:1010000024F404D9201BC40C5C0E9804C4095F02AC
:1010100065077101F405F900FB04B300480487007B
:10102000C10369005803550003034500BE023A009E
:101030008402310053022A00290225000402200004
:10104000E4011C00C8011900AF0117009801140049
:1010500084011300710110006101100051010E00A4
:1010600043010D0036010B002B010B0020010B008A
:10107000150109000C01090003010800FB0008002C
:10108000F3000800EB000700E4000600DE000600A5
:10109000D8000600D2000600CC000500C7000500FD
:1010A000C2000500BD000400B9000400B500040042
:1010B000B1000400AD000400A9000400A500030075
:1010C000A20003009F0004009B000300980003009F
:1010D0009500020093000300900003008D000200C1
:1010E0008B000300880002008600020084000300D9
:1010F000810002007F0002007D0002007B000200F0
:1011000079000200770001007600020074000200FE
:1011100072000100710002006F0002006D0001000A
:101120006C0002006A000100690002006700010013
:101130006600010065000100640002006200010019
:1011400061000100600001005F0002005D0001001D
:101150005C0001005B0001005A0001005900010021
:101160005800010057000100560001005500010021
:101170005400010053000000530001005200010020
:1011800051000100500001004F0001004E0000001E
:101190004E0001004D0001004C0001004B0000001A
:1011A0004B0001004A000100490001004800000016
:1011B0004800010047000100460000004600010011
:1011C000450000004500010044000100430000000C
:1011D0004300010042000000420001004100000005
:1011E00041000100400001003F0000003F000100FD
:1011F0003E0000003E0001003D0000003D000100F7
:101200003C0000003C0000003C0001003B000000EE
:101210003B0001003A0000003A00010039000000E4
:1012200039000100380000003800000038000100DB
:1012300037000000370001003600000036000000D3
:1012400036000100350000003500000035000100C7
:1012500034000000340000003400010033000000BE
:1012600033000000330001003200000032000000B3
:1012700032000100310000003100000031000100A7
:101280003000000030000000300001002F0000009E
:101290002F0000002F0000002F0001002E00000092
:1012A0002E0000002E0001002D0000002D00000087
:1012B0002D0000002D0001002C0000002C0000007B
:1012C0002C0000002C0001002B0000002B0000006F
:1012D0002B0000002B0001002A0000002A00000063
:1012E0002A0000002A000100290000002900000057
:1012F000290000002900000029000100280000004A
:10130000280000002800000028000000280001003C
:101310002700000027000000270000002700000031
:101320002700010026000000260000002600000023
:101330002600000026000100250000002500000016
:101340002500000025000000250000002500010008
:1013500024000000240000002400000024000000FD
:1013600024000100230000002300000023000000EF
:1013700023000000230000002300000023000100E0
:1013800022000000220000002200000022000000D5
:1013900022000000220001002100000021000000C6
:1013A00021000000210000002100000021000000B9
:1013B00021000100200000002000000020000000AB
:1013C000200000002000000020000000200000009D
:1013D000200001001F0000001F0000001F0000008F
:1013E0001F0000001F0000001F0000001F00010080
:1013F0001E0000001E0000001E0000001E00000075
:1014000020746F6F206C6F6E6720657874727573CF
:10141000696F6E2070726576656E7465640A00206F
:10142000636F6C6420657874727573696F6E207079
:10143000726576656E7465640A006265640A002CE4
:101440002073797374656D2073746F707065642197
:10145000204865617465725F49443A2000486561BF
:1014600074696E67206661696C65640048656174C3
:10147000696E67206661696C6564004865617469BE
:101480006E67206661696C65640048656174696EA9
:1014900067206661696C65640070012C019001270A
:1014A00001B0012201C0011D01F001180110021359
:1014B0000130020E016002090190020401C002FF26
:1014C000000003FA004003F5008003F000D003EBB6
:1014D000002004E6007004E100E004DC004005D7D1
:1014E00000C005D2004006CD00D006C8008007C36A
:1014F000003008BE00F008B900C009B400B00AAF5F
:1015000000B00BAA00D00CA500000EA000500F9B4D
:1015100000C01096005012910000148C00C0158776
:1015200000B0178200B0197D00D01B7800001E7338
:101530000040206E0090226900F024640040275F84
:101540000090295A00E02B5500102E500020304BFF
:101550000010324600E033410090353C0010373730
:101560000070383200A0392D00B03A2800A03B238B
:1015700000603C1E00103D1900903D1400103E0F0D
:1015800000703E0A00C03E0500003F0000403FFBE7
:10159000FF803FF6FFC03FF1FF544845524D414C9C
:1015A0002052554E4157415900546865726D616C27
:1015B0002052756E61776179004572723A204D490B
:1015C0004E54454D5020424544004572723A204DDC
:1015D000494E54454D50004D494E54454D50207490
:1015E0007269676765726564004572723A204D41A1
:1015F0005854454D5020424544004572723A204DA2
:10160000415854454D50004D415854454D5020745B
:10161000726967676572656400202F002042403A56
:101620000020403A0045303A20005A3A2000593A0A
:101630002000583A20004D53312C4D533220506930
:101640006E730A0023646566696E65202044454612
:1016500041554C545F4B64200023646566696E6598
:10166000202044454641554C545F4B69200023647B
:101670006566696E65202044454641554C545F4B74
:10168000702000504944204175746F74756E652058
:1016900066696E697368656421205075742074688A
:1016A00065206C617374204B702C204B6920616E37
:1016B00064204B6420636F6E7374616E7473206674
:1016C000726F6D2062656C6F7720696E746F204356
:1016D0006F6E66696775726174696F6E2E680A0055
:1016E000504944204175746F74756E652066616958
:1016F0006C6564212074696D656F75740A005448C7
:1017000045524D414C2052554E4157415900546865
:1017100065726D616C2052756E6177617900486504
:101720006174696E67206661696C65640048656113
:1017300074696E67206661696C6564005049442075
:101740004175746F74756E65206661696C6564219E
:101750002054656D706572617475726520746F6F69
:1017600020686967680A00204B643A2000204B69B2
:101770003A2000204B703A20000A20436C617373BA
:10178000696320504944200A002054753A20002003
:101790004B753A2000206D61783A2000206D696E0B
:1017A0003A200020643A200020626961733A2000E8
:1017B00000002200250028002B002E0031003400FC
:1017C00002010000050108010B01000020002300B8
:1017D000260029002C002F00320000010000030128
:1017E00006010901050505050705080808080202A4
:1017F00002020A0A080804040404010101010101AB
:1018000001010303030303030303040707070C0C8D
:101810000C0C0C0C0C0C0202020206060606060654
:1018200006060B0B0B0B0B0B0B0B07070A0A0A0A1E
:101830000A0A05050504040408080102102020080E
:10184000081020401020408002010201080402011B
:10185000010204081020408080402010080402018A
:1018600080040201804020100804020108040201E3
:10187000010204081020408001020408102040806A
:10188000100804088010204004408010204004808C
:1018900000000A0B02090C0D0E08070304010000EA
:1018A0000000000000000000000000000000000038
:1018B00000000000000000000000000012111000F5
:1018C0000000000000000000000000000000000018
:1018D0000000000000000000000000000000000008
:1018E0000000000000002066697273740A005A004C
:1018F00059005800486F6D6520006563686F3A00B5
:101900004572726F723A0000002100240027002AFD
:10191000002D003000330001010000040107010A1E
:1019200001007D6311241FBECFEFD1E2DEBFCDBF2A
:1019300000E00CBF12E0A0E0B2E0ECEEFDED00E054
:101940000BBF02C007900D92A23DB107D9F72CE062
:10195000A2EDB2E001C01D92AD37B207E1F71CE085
:10196000C2E9DCE000E006C021970109802FFE01FA
:101970000E94B36EC139D10780E00807A9F70E9421
:10198000024E0C94F46E0C9400008FB7F894909172
:101990007E0620917D06921759F0E92FF0E0E35082
:1019A000FA4F208130E09F5F9F7790937E0602C0C0
:1019B0002FEF3FEF8FBFC9010895FF920F931F9341
:1019C000CF93DF93FC0120812B3319F1D0917D055A
:1019D000D430F8F4F62EBC01C0918B050C2F10E02A
:1019E000F0E6CF9FC001112481529C4F0E94E26E0D
:1019F000F801EF57F94FF082CF5FC43018F4C0936D
:101A00008B0502C010928B05DF5FD0937D0581E0CE
:101A100001C080E0DF91CF911F910F91FF90089559
:101A2000179A169A159A149A0895EF920F931F9386
:101A3000E0901E0C03E312E02BE23CE047E25CE0A6
:101A400063E27CE08FE19CE00E94C2371F910F911E
:101A5000EF9008950F931F93CF93DF93EC01CC0F7A
:101A6000DD1FCC0FDD1F8E0105561C4FFE01E75315
:101A7000FC4FDE01AC5FBC4F2D913D914D915C91CF
:101A800060817181828193810E94BF6BF8016083C4
:101A9000718382839383FE01E45EF84F8591959173
:101AA000A591B491FE01E955FC4F80839183A283F7
:101AB000B383FE01E85DF84F85919591A591B491AE
:101AC000CB5FDD4F88839983AA83BB83DF91CF915E
:101AD0001F910F9108952BE23CE047E25CE063E246
:101AE0007CE08FE19CE00C94092B4F925F926F9207
:101AF0007F928F929F92BF92CF92DF92EF92FF924E
:101B00000F931F93CF93DF9300D01F92CDB7DEB713
:101B10002A013B01B22EF32E6C01CC0CDD1CCC0C47
:101B2000DD1CC601815E934F4C01FC0110821182C5
:101B300012821382D0DFF40140825182628273826A
:101B4000E0901E0C20E030E0A901B8018B2D9F2D04
:101B50000E94AB6781110AC0F601E151FE4F8591E9
:101B60009591A591B4918C01BA2EFB2EC801AB2D95
:101B7000BF2D89839A83AB83BC838E010F5F1F4F78
:101B80002BE23CE047E25CE063E27CE08FE19CE03A
:101B90000E94C2370E94FC4610927B050F900F9066
:101BA0000F900F90DF91CF911F910F91FF90EF90C9
:101BB000DF90CF90BF909F908F907F906F905F90BD
:101BC0004F90089580917D0390917E03009731F0AE
:101BD0004AE050E060E070E00C94FF6460E070E088
:101BE000CB010895EFDF97FD0AC0ECDF6F3F710571
:101BF0008105910509F02CF4E5DF862F089580E03A
:101C000008958FEF089580917D0390917E03892B35
:101C100031F0E8DF91E0811103C090E001C091E074
:101C2000892F08950F931F93CF9380917D039091F7
:101C30007E03009711F1FC018F01C1912C2F2F7DA4
:101C4000A9F0C53411F0C536B9F7F801108260E08B
:101C500070E080917D0390917E030E94AC63F80157
:101C6000C083562F472F382F292F0BC060E070E01C
:101C7000CF911F910F910C94AC6350E040E030E0A5
:101C800020E0652F742F832F922FCF911F910F91FA
:101C9000089581548A3150F5482F50E0FA0193E0BD
:101CA000F595E7959A95E1F7E451FD4F208130E0F5
:101CB000877002C0359527958A95E2F7822F81704B
:101CC00020FF15C0FA01EE52FD4F9081992339F0A3
:101CD0002091D5033091D603290F311D02C020E099
:101CE00030E030937E0320937D03089580E00895D3
:101CF000D0DF882341F081E020917D0330917E0385
:101D0000232B09F480E008954F925F926F927F92A7
:101D10009F92AF92BF92CF92DF92EF92FF920F937A
:101D20001F93CF93DF9389E3A82E82E0B82E0EE0B5
:101D30001CE0CFE1DCE09BE9C92E93E0D92E27ED32
:101D4000E22E23E0F22E912CF50181915F01A1DFBB
:101D5000882361F167DF9B01AC01F701808181116C
:101D600004C08091DB03882329F0688179818A810E
:101D70009B8103C060E070E0CB010E94BF6BF3E089
:101D80009F1659F0F60120813181428153812B0148
:101D90003C01C301B2010E94BE6B462F572FBC010C
:101DA000F801408351836283738309C088819981DC
:101DB000AA81BB81F80180839183A283B38393942A
:101DC0000C5F1F4F2496F4E0CF0ED11C2FEFE21AC8
:101DD000F20A84E09812B8CF86E48ADF8823B9F04B
:101DE00021DF20E030E0A9010E94E56D18167CF4A7
:101DF00019DF20E030E040E752E40E949B6C6093E2
:101E00003302709334028093350290933602DF914F
:101E1000CF911F910F91FF90EF90DF90CF90BF90E7
:101E2000AF909F907F906F905F904F90089520911A
:101E30005C0C90915D0C81E0291301C080E0089555
:101E400088E893E19093010C8093000C80916F00DF
:101E50008D7F80936F00EBDF882351F0E8DF8823CC
:101E6000D1F380915D0C8F5F8F7080935D0CF3CF09
:101E70001092FF0B1092FE0B80916F008260809396
:101E80006F000E94FC4680E090E00E94DD46609377
:101E9000F1057093F2058093F3059093F40581E0CA
:101EA00090E00E94DD466093F5057093F6058093FF
:101EB000F7059093F80582E090E00E94DD4660937C
:101EC000F9057093FA058093FB059093FC058CE06F
:101ED000E1EFF5E0AFE1BCE001900D928A95E1F70A
:101EE000FACD80E1EEE0FCE0AFE1BCE001900D92C4
:101EF0008A95E1F708950E94AC4D6093F0027093CB
:101F0000F1028093F2029093F30208959091C00041
:101F100095FFFCCF8093C6000895CF92DF92EF9299
:101F2000FF920F931F93CF93DF9300D01F92CDB7F3
:101F3000DEB780913202882321F08EE09CE00E947F
:101F4000F21BD9DF8091DE0383FD82C0C0901A0CA2
:101F5000D0901B0CE0901C0CF0901D0C20912B0CD1
:101F600030912C0C40912D0C50912E0CC701B601D4
:101F70000E94AB67882309F46BC00E945E2A882305
:101F8000F1F0C0922B0CD0922C0CE0922D0CF09220
:101F90002E0CEAEFF8E184918F010F5F1F4F882329
:101FA00019F0B4DFF801F7CFE0E8F7E084918F0192
:101FB0000F5F1F4F882319F0A9DFF801F7CFC090FA
:101FC0001A0CD0901B0CE0901C0CF0901D0C209172
:101FD0002B0C30912C0C40912D0C50912E0CC701E4
:101FE000B6010E94BE6B9F77E0911E0C24E0E29F39
:101FF000F0011124ED54FC4F208131814281538145
:102000000E94106820E030E048E453E40E94E56D4F
:102010001816F4F4C0922B0CD0922C0CE0922D0CDC
:10202000F0922E0CEAEFF8E184918F010F5F1F4FC1
:10203000882319F06BDFF801F7CFE1E6F7E0849130
:102040008F010F5F1F4F882319F060DFF801F7CF72
:102050006091370270913802072E000C880B990BA3
:102060000E94B167209133023091340240913502D1
:10207000509136020E9410682AE037ED43E25CE39B
:102080000E94106869837A838B839C83E0901E0C86
:102090008E010F5F1F4F2AE13CE046E15CE062E108
:1020A0007CE08EE09CE00E94C2371BDF0F900F9017
:1020B0000F900F90DF91CF911F910F91FF90EF90B4
:1020C000DF90CF900895CF93DF9315DFE0917C05EB
:1020D000F0E0EF57F94F8081882371F0EEE5F7E0EB
:1020E0008491EF012196882319F010DFFE01F8CFCB
:1020F0008AE0DF91CF910ACFDF91CF910895CF92FF
:10210000DF92EF92FF920F931F93CF93DF93809113
:102110007D05843008F016C138DCAC0197FD12C192
:10212000982F2091320C3091330C8A3019F09D3069
:1021300009F0D7C01092F0052115310541F3F901DE
:10214000E057FA4F10821092330C1092320CC0E913
:10215000D5E0FE018191803211F4EF01FACF8E3487
:1021600009F07EC0209709F47BC064E077E0CE01DF
:102170000E9463678C01892B41F06EE470E0CE0110
:1021800004960E94CE6E009709F4CE014AE050E01A
:1021900060E070E001960E94FF6460938C0570938C
:1021A0008D0580938E0590938F05C090340CD09050
:1021B000350CE090360CF090370C2FEFC21AD20A93
:1021C000E20AF20A6C157D058E059F0529F0012BA8
:1021D00019F481ED96E02AC06AE270E0CE010E9417
:1021E000E96E9C01009701F1982F9C1B10E0992348
:1021F00039F09150FE01E90FF11D80811827F7CFCA
:102200004AE050E060E070E0C90101960E94FF647E
:10221000012F10E020E030E060177107820793077C
:1022200079F082EB96E002C088E896E0DF91CF91EA
:102230001F910F91FF90EF90DF90CF900C94844707
:1022400080918C0590918D05A0918E05B0918F05A0
:102250008093340C9093350CA093360CB093370CCC
:102260008091150281111CC067E470E0CE010E94CC
:10227000CE6E0097A9F04AE050E060E070E0019671
:102280000E94FF646430710558F4E1E1F6E0849146
:102290008F010F5F1F4F882319F038DEF801F7CF49
:1022A00063E672E0CE010E94D96E892B11F4109280
:1022B000160268E672E0CE010E94D96E892B21F4E5
:1022C00088E096E00E94D51F6DE672E0CE010E9484
:1022D000D96E892B09F4B4DD61E080E995E06DDB0E
:1022E00016CF2F3531050CF012CF9C35B9F44DDBEC
:1022F00097FD0DCF2091F005211109CF2091320CCF
:102300003091330CA9014F5F5F4F5093330C4093D2
:10231000320CF901E057FA4F8083F9CE9B3319F460
:1023200081E08093F0058091F0058111F0CEC90124
:1023300001969093330C8093320CF901E057FA4FD9
:102340004083E5CEDF91CF911F910F91FF90EF90E9
:10235000DF90CF900895BF92CF92DF92EF92FF92DD
:102360000F931F93CF93DF93CDB7DEB76E970FB662
:10237000F894DEBF0FBECDBF6091890570918A05CC
:102380006115710551F14DE150E0CE0101967C01DE
:102390000E9454671E8EF7018F010E191F09B1901C
:1023A000BB2021F19AE0B912F7CF20C0B7018BEF23
:1023B00095E00E94D32982E2A9DD8AE0A7DDBB2057
:1023C00051F10F5F1F4F8091890590918A05080F89
:1023D000191F10938A050093890581E020918905D2
:1023E00030918A05232BD1F480E018C0F701E00F6B
:1023F000F11F108260E0C701E0DA882371F3EAEF91
:10240000F8E184916F019FEFC91AD90A882371F20C
:102410007DDDF601F6CF00E010E0DBCF6E960FB663
:10242000F894DEBF0FBECDBFDF91CF911F910F910A
:10243000FF90EF90DF90CF90BF9008958F929F9282
:10244000AF92BF92EF92FF920F931F93CF93DF93C0
:10245000CDB7DEB7A0970FB6F894DEBF0FBECDBFE5
:10246000611571058105910589F100E0842E912C9B
:10247000A12CB12C102FEE24E394F12CEC0EFD1EB8
:10248000E00EF11C07FDFA94A50194010E94836BF4
:10249000F7016083B901CA010F5F611571058105FC
:1024A000910541F71F3F21F1E1E0F0E0EC0FFD1F46
:1024B000E10FF11D17FDFA9580818A3010F097E346
:1024C00001C090E3890F22DD1150ECCF80E3A0968C
:1024D0000FB6F894DEBF0FBECDBFDF91CF911F9135
:1024E0000F91FF90EF90BF90AF909F908F900ECD87
:1024F000A0960FB6F894DEBF0FBECDBFDF91CF918F
:102500001F910F91FF90EF90BF90AF909F908F9091
:102510000895EF92FF920F931F93CF93DF937C0167
:1025200084E5E6DBD82F882321F15CDBC82F181661
:10253000E4F4EAEFF8E184918F010F5F1F4F8823E5
:1025400019F0E4DCF801F7CF8DE4E0DCB70180E0BE
:1025500090E04AE073DF6C2FCC0F770B89E097E0B7
:102560000E94BA298AE0D2DC08C08093C803D0E078
:1025700004C080911E0C8093C8038D2FDF91CF91F2
:102580001F910F91FF90EF900895CF92DF92EF92FD
:10259000FF926B017C0197FF0AC08DE2B7DCF094DB
:1025A000E094D094C094C11CD11CE11CF11C4AE001
:1025B000C701B601FF90EF90DF90CF903FCFCF9350
:1025C000DF938FB7F89490917E0690937D068FBF2E
:1025D000E5E5F7E08491EF012196882319F096DC78
:1025E000FE01F8CF8091340C9091350CA091360CFF
:1025F000B091370CBC01CD016F5F7F4F8F4F9F4F64
:10260000C4DF8AE083DCDF91CF915DCD8F929F9212
:10261000AF92BF92CF92DF92EF92FF92CF936B0176
:102620007C01B42E20E030E0A9010E94AB6787FF57
:1026300006C08DE26BDCF7FAF094F7F8F094C0E096
:1026400060E070E080E09FE3CB1541F02DEC3CECC6
:102650004CEC5DE30E941068CF5FF6CF9B01AC01AC
:10266000C701B6010E94BF6B6B017C010E94086D1F
:102670004B015C014AE0E2DECC2379F1C501B401F3
:102680000E94AF679B01AC01C701B6010E94BE6BFF
:102690006B017C018EE23ADC20E030E040E251E464
:1026A000C701B6010E9410684B015C010E94036DD6
:1026B0006B01770FEE08FF08C701B60166DFC7019F
:1026C000B6010E94B1679B01AC01C501B4010E9433
:1026D000BE6B6B017C01C150F9F6CF91FF90EF907A
:1026E000DF90CF90BF90AF909F908F9008954F92C2
:1026F0005F926F927F928F929F92AF92BF92CF9292
:10270000DF92EF92FF92CF93DF93E2E5F7E08491BF
:10271000EF012196882319F0F9DBFE01F8CF209113
:102720009B0330919C0340919D0350919E036091C7
:102730001F0C7091200C8091210C9091220C0E9412
:10274000BF6B42E063DFEEE4F7E08491EF01219696
:10275000882319F0DBDBFE01F8CF20919F03309135
:10276000A0034091A1035091A2036091230C7091AA
:10277000240C8091250C9091260C0E94BF6B42E0A6
:1027800045DFEAE4F7E08491EF012196882319F010
:10279000BDDBFE01F8CF2091A3033091A40340914B
:1027A000A5035091A6036091270C7091280C80918D
:1027B000290C90912A0C0E94BF6B42E027DFE6E4CF
:1027C000F7E08491EF012196882319F09FDBFE0149
:1027D000F8CF60912B0C70912C0C80912D0C909166
:1027E0002E0C42E013DF8FB7F8944090F402509023
:1027F000F5026090F6027090F7028090F8029090D7
:10280000F902A090FA02B090FB02C090FC02D090B6
:10281000FD02E090FE02F090FF028FBFECE3F7E0D4
:102820008491EF012196882319F070DBFE01F8CF27
:10283000C301B201AADEE8E3F7E08491EF0121963B
:10284000882319F063DBFE01F8CFC501B4019DDEDA
:10285000E4E3F7E08491EF012196882319F056DB39
:10286000FE01F8CFC701B60190DE8AE0DF91CF917B
:10287000FF90EF90DF90CF90BF90AF909F908F90A0
:102880007F906F905F904F9041CB1F920F920FB649
:102890000F9211240BB60F922F938F939F93EF9368
:1028A000FF93E0917D0681E08E0F8F779091C600B7
:1028B00020917E06821731F0F0E0E350FA4F9083CA
:1028C00080937D06FF91EF919F918F912F910F90B3
:1028D0000BBE0F900FBE0F901F9018954F925F92F6
:1028E0006F927F928F929F92AF92BF92CF92DF9220
:1028F000EF92FF920F931F93CF93DF93CDB7DEB785
:102900006A970FB6F894DEBF0FBECDBF9A8F898F3E
:102910005B018A01DC01D7966D917D918D919C912F
:10292000DA970E94AF676B017C01F501208131814C
:10293000428153810E9410680E94856C0E94086D3C
:1029400069877A878B879C87D8012D913D914D911E
:102950005C91C701B6010E9410680E94856C0E94BC
:10296000086D6D877E878F87988B29853A854B8583
:102970005C85283731054105510540F488E790E032
:10298000A0E0B0E089879A87AB87BC872D853E851C
:102990004F855889283731054105510540F488E7AE
:1029A00090E0A0E0B0E08D879E87AF87B88BE98D7F
:1029B000FA8DED5BFF4F20813181428153812D8360
:1029C0003E834F835887CA01B9010E94B16769836A
:1029D0007A838B839C8369857A858B859C850E940D
:1029E000AF67698B7A8B8B8B9C8B20E030E0A901E1
:1029F00069817A818B819C810E94AB67882339F140
:102A0000A7019601C701B6010E9410684B015C0145
:102A100029893A894B895C89CA01B9010E941068E9
:102A20009B01AC01C501B4010E94BE6B4B015C016E
:102A300029813A814B815C81CA01B9010E94BF6B37
:102A40009B01AC01C501B4010E949B6C03C060E016
:102A500070E0CB010E94856C0E94036D2B013C014C
:102A60006D817E818F819885909580957095619517
:102A70007F4F8F4F9F4F0E94B1674B015C016D8567
:102A80007E858F8598890E94AF676D837E838F8353
:102A9000988720E030E0A901C501B4010E94AB672E
:102AA000882349F12D813E814F815885CA01B901A2
:102AB0000E9410686D8B7E8B8F8B988FA70196017B
:102AC000C701B6010E9410689B01AC016D897E8927
:102AD0008F89988D0E94BE6B6B017C01A5019401CA
:102AE000C501B4010E94BF6B9B01AC01C701B601D7
:102AF0000E949B6C03C060E070E0CB010E94346DCB
:102B0000A98DBA8D52968D909D90AD90BC905597A1
:102B100075016401C418D508E608F7080E94036D22
:102B2000C61AD70AE80AF90AF7FE6BC020E030E0BF
:102B3000A90169817A818B819C810E94AB6788237E
:102B400009F447C0C501B4010E94AF676B017C0165
:102B500029813A814B815C81CA01B9010E94BF6B16
:102B60009B01AC01C701B6010E9410686B017C019A
:102B700029893A894B895C89CA01B9010E94106888
:102B80009B01AC01C701B6010E94BE6B6B017C01C9
:102B90002D813E814F815885CA01B9010E9410687C
:102BA0009B01AC01C701B6010E94BF6B6B017C01A8
:102BB00020E030E040E850E469817A818B819C819B
:102BC0000E9410689B01AC01C701B6010E949B6C7A
:102BD00003C060E070E0CB010E94856C0E94036D31
:102BE0002B013C0197FF03C0412C512C32014814AA
:102BF00059046A047B0410F024013501C12CD12C46
:102C000076018FB7F894E98DFA8D908193FD1DC000
:102C1000468A578A608E718EC40CD51CE61CF71C40
:102C2000C28ED38EE48EF58E29853A854B855C85E0
:102C300023AF34AF45AF56AFFF962D853E854F8508
:102C4000588920833183428353838FBF6A960FB69E
:102C5000F894DEBF0FBECDBFDF91CF911F910F91D2
:102C6000FF90EF90DF90CF90BF90AF909F908F90AC
:102C70007F906F905F904F9008950F931F93CF9325
:102C8000DF93E091FE0BF091FF0B82819381A48191
:102C9000B581181619061A061B06E4F480919106F0
:102CA00080FF18C093B18091800696FB992790F918
:102CB0008E7F89278093800690917F06917089236B
:102CC00049F080917B05816080937B0580E090E0F6
:102CD0000E94B446E091FE0BF091FF0B8681978134
:102CE000A085B185181619061A061B0614F58091E1
:102CF000910681FF1EC093B18091800695FB00274D
:102D000000F910E0119501951109082702701127AB
:102D100008270093800680917F068270082349F07F
:102D200080917B05826080937B0581E090E00E942A
:102D3000B446E091FE0BF091FF0B82859385A4854C
:102D4000B585181619061A061B061CF58091910602
:102D500082FF1FC093B18091800692959170C92F18
:102D600090E0D92FD195C195D109C827C470DD272E
:102D7000C827C093800680917F068470C82349F0DD
:102D800080917B05846080937B0582E090E00E94C7
:102D9000B4468091800680937F06DF91CF911F918A
:102DA0000F910895CF93DF93E1E2FAE08491EF0170
:102DB0002196882319F0AAD8FE01F8CFE9E1FAE0BC
:102DC0008491EF012196882319F0A0D8FE01F8CF55
:102DD0001E9903C0C2E7D2E002C0C7E7D2E08991E2
:102DE000882311F093D8FBCF8AE090D8E1E1FAE094
:102DF0008491EF012196882319F088D8FE01F8CF3D
:102E00001D9903C0C2E7D2E002C0C7E7D2E08991B2
:102E1000882311F07BD8FBCF8AE078D8E9E0FAE08C
:102E20008491EF012196882319F070D8FE01F8CF24
:102E30001C9903C0C2E7D2E002C0C7E7D2E0899183
:102E4000882311F063D8FBCF8AE0DF91CF915EC871
:102E5000CF92DF92EF92FF920F931F93CF93DF9366
:102E6000CDB7DEB768970FB6F894DEBF0FBECDBF03
:102E70004CE353E021E633E0A1E5B3E080E090E0ED
:102E8000FC01E252F84FC590D590E590F490FA011C
:102E9000C192D192E192F192AF01FC01E253F84F5D
:102EA000C590D590E590F490F901C192D192E1924C
:102EB000F1929F01FC01E254F84FC590D590E59046
:102EC000F490CD92DD92ED92FD92049680319105C1
:102ED000B9F680E090E8ABE3B5E480937903909392
:102EE0007A03A0937B03B0937C0380937103909348
:102EF0007203A0937303B09374038093750390934C
:102F00007603A0937703B0937803109297031092FF
:102F100098031092990310929A0380E29EE4A0E035
:102F2000B0E080938F0390939003A0939103B093AC
:102F300092031092930310929403109295031092AF
:102F4000960380E090E0A0EAB1E480937F03909341
:102F50008003A0938103B0938203809383039093B3
:102F60008403A0938503B09386038DEC9CECACECBA
:102F7000BEE38093870390938803A0938903B09363
:102F80008A0380E090E0A0EAB0E480938B03909302
:102F90008C03A0938D03B0938E038CE0E9ECF3E0F7
:102FA000DF01982F1D929A95E9F74AE959E961EBFB
:102FB00071E44093C3035093C4036093C5037093BB
:102FC000C60346EA51E365E37EE34093BF035093B3
:102FD000C0036093C1037093C20340E453EF6DE2FA
:102FE00074E44093BB035093BC036093BD037093A0
:102FF000BE031092500340E050E060E470E4409360
:103000004C0350934D0360934E0370934F03109203
:103010005F0C10925E0CEDE3F2E0DE011D96019074
:103020000D928A95E1F713E01150C8F0A4E01A9FC1
:1030300090011124E1E0F0E0EC0FFD1FE20FF31F1F
:103040006485758586859785F901EE5FF34F60830A
:10305000718382839383812F0E946446E5CF8091A0
:103060001F0C9091200CA091210CB091220C89830F
:103070009A83AB83BC838091230C9091240CA09104
:10308000250CB091260C8D839E83AF83B8878091E9
:10309000270C9091280CA091290CB0912A0C8987BB
:1030A0009A87AB87BC870E94AE2A0E94EC3880E0EA
:1030B00090E00E942A0D81E090E00E942A0D82E0BB
:1030C00090E00E942A0D0E94A2460E94CC2B4CE068
:1030D00050E06FE17CE0CE0101960E94C16E892B29
:1030E00009F005DBEAEFF8E184918F010F5F1F4FD4
:1030F000882321F00E94860FF801F6CFEBE9F7E074
:1031000084918F010F5F1F4F882321F00E94860F4B
:10311000F801F6CF68960FB6F894DEBF0FBECDBFAC
:10312000DF91CF911F910F91FF90EF90DF90CF90A3
:1031300008950F931F93CF93C82F882319F0E1EFC1
:10314000F9E00CC0EAEFF8E184918F010F5F1F4FA7
:103150008823A9F30E94860FF801F6CF84918F018E
:103160000F5F1F4F882321F00E94860FF801F6CFD2
:103170008AE00E94860FC1112CC0EAEFF8E1849129
:103180008F010F5F1F4F882321F00E94860FF801E7
:10319000F6CFEEEDF9E084918F010F5F1F4F88238A
:1031A00021F00E94860FF801F6CF8091500388230A
:1031B00021F08AE00E94860F3AC0E3EDF9E08491A5
:1031C0008F010F5F1F4F882391F10E94860FF80136
:1031D000F6CF40914C0350914D0360914E03709196
:1031E0004F038AEC99E00E949D298AE00E94860F95
:1031F00080915003811127C0CC2319F0EFEBF9E047
:103200000CC0EAEFF8E184918F010F5F1F4F882314
:10321000A9F30E94860FF801F6CF84918F010F5F0A
:103220001F4F882381F00E94860FF801F6CFEAEF46
:10323000F8E184918F010F5F1F4F882351F20E94A4
:10324000860FF801F6CFC11124C0EAEFF8E18491AE
:103250008F010F5F1F4F882321F00E94860FF80116
:10326000F6CFEEEAF9E084918F010F5F1F4F8823BC
:1032700021F00E94860FF801F6CFEAEFF8E1849181
:103280008F010F5F1F4F882321F00E94860FF801E6
:10329000F6CF40913C0350913D0360913E03709105
:1032A0003F0386EA99E00E949D2940914003509196
:1032B0004103609142037091430383EA99E00E94C5
:1032C0009D294091440350914503609146037091BC
:1032D000470380EA99E00E949D294091480350915C
:1032E000490360914A0370914B038DE999E00E9474
:1032F0009D298AE00E94860FC11124C0EAEFF8E1FF
:1033000084918F010F5F1F4F882321F00E94860F49
:10331000F801F6CFEFE7F9E084918F010F5F1F4FBF
:10332000882321F00E94860FF801F6CFEAEFF8E13A
:1033300084918F010F5F1F4F882321F00E94860F19
:10334000F801F6CF409161035091620360916303ED
:103350007091640386E799E00E949D29409165037E
:1033600050916603609167037091680383E799E069
:103370000E949D294091690350916A0360916B03FB
:1033800070916C0380E799E00E949D2940916D0344
:1033900050916E0360916F03709170038DE699E018
:1033A0000E949D298AE00E94860FC11124C0EAEF85
:1033B000F8E184918F010F5F1F4F882321F00E9455
:1033C000860FF801F6CFEBE4F9E084918F010F5FEF
:1033D0001F4F882321F00E94860FF801F6CFEAEFF5
:1033E000F8E184918F010F5F1F4F882321F00E9425
:1033F000860FF801F6CF409151035091520360912E
:1034000053037091540382E499E00E948029409113
:1034100055035091560360915703709158038FE301
:1034200099E00E9480294091590350915A0360917C
:103430005B0370915C038CE399E00E9480294091CA
:103440005D0350915E0360915F037091600389E3B7
:1034500099E00E9480298AE00E94860FC11124C051
:10346000EAEFF8E184918F010F5F1F4F882321F06D
:103470000E94860FF801F6CFEFEEF8E084918F01FD
:103480000F5F1F4F882321F00E94860FF801F6CFAF
:10349000EAEFF8E184918F010F5F1F4F882321F03D
:1034A0000E94860FF801F6CF4091790350917A037C
:1034B00060917B0370917C0386EE98E00E949D29C9
:1034C0004091710350917203609173037091740382
:1034D00083EE98E00E949D294091750350917603F8
:1034E000609177037091780380EE98E00E949D29A7
:1034F0008AE00E94860FC11124C0EAEFF8E18491AE
:103500008F010F5F1F4F882321F00E94860FF80163
:10351000F6CFECE6F8E084918F010F5F1F4F882310
:1035200021F00E94860FF801F6CFEAEFF8E18491CE
:103530008F010F5F1F4F882321F00E94860FF80133
:10354000F6CF409197035091980360919903709141
:103550009A0383E698E00E949D294091930350913D
:103560009403609195037091960380E698E00E9421
:103570009D2940918F035091900360919103709128
:1035800092038DE598E00E94802940917F0350913D
:10359000800360918103709182038AE598E00E9424
:1035A0009D2940918303509184036091850370911C
:1035B000860387E598E00E949D29409187035091FA
:1035C00088036091890370918A0384E598E00E94E2
:1035D0009D2940918B0350918C0360918D037091D4
:1035E0008E0381E598E00E949D298AE00E94860F63
:1035F000C11124C0EAEFF8E184918F010F5F1F4FE2
:10360000882321F00E94860FF801F6CFE3E4F8E06A
:1036100084918F010F5F1F4F882321F00E94860F36
:10362000F801F6CFEAEFF8E184918F010F5F1F4FA9
:10363000882321F00E94860FF801F6CF4091C9033C
:103640005091CA036091CB037091CC038AE398E058
:103650000E949D294091CD035091CE036091CF03EC
:103660007091D00387E398E00E949D294091D10397
:103670005091D2036091D3037091D40384E398E016
:103680000E949D298AE00E94860FC11124C0EAEFA2
:10369000F8E184918F010F5F1F4F882321F00E9472
:1036A000860FF801F6CFE5E2F8E084918F010F5F15
:1036B0001F4F882321F00E94860FF801F6CFEAEF12
:1036C000F8E184918F010F5F1F4F882321F00E9442
:1036D000860FF801F6CF4091C3035091C403609167
:1036E000C5037091C6038CE198E00E949D292CEAE5
:1036F00035EC47E25EE36091BF037091C0038091B7
:10370000C1039091C2030E949B6CAB01BC0189E193
:1037100098E00E949D292CEA35EC47E25EE3609137
:10372000BB037091BC038091BD039091BE030E94C6
:103730001068AB01BC0186E198E00E949D298AE0F7
:103740000E94860FC11124C0EAEFF8E184918F0135
:103750000F5F1F4F882321F00E94860FF801F6CFDC
:10376000EDEFF7E084918F010F5F1F4F882321F069
:103770000E94860FF801F6CFEAEFF8E184918F01FD
:103780000F5F1F4F882321F00E94860FF801F6CFAC
:103790004091020C5091030C6091040C7091050C47
:1037A00084EF97E00E9480294091060C5091070C0D
:1037B0006091080C7091090C81EF97E00E948029BC
:1037C00040910A0C50910B0C60910C0C70910D0CF7
:1037D0008EEE97E00E9480298AE0CF911F910F9191
:1037E0000C94860FCF92DF92EF92FF92CF93DF93EC
:1037F000EC01C090A703D090A803E090A903F0903B
:10380000AA03A7019601688179818A819B810E9420
:10381000AB6787FF04C0C882D982EA82FB82C0906E
:10382000AB03D090AC03E090AD03F090AE03A701E2
:1038300096016C817D818E819F810E94AB6787FF9D
:1038400004C0CC82DD82EE82FF82C0900502D0905F
:103850000602E0900702F0900802A7019601688135
:1038600079818A819B810E94E56D181624F4C882B3
:10387000D982EA82FB82C0900902D0900A02E090CD
:103880000B02F0900C02A70196016C817D818E8164
:103890009F810E94E56D181624F4CC82DD82EE82B1
:1038A000FF82C090AF03D090B003E090B103F090DE
:1038B000B203A7019601688579858A859B850E9458
:1038C000AB6787FF04C0C886D986EA86FB86C090AE
:1038D0000D02D0900E02E0900F02F0901002A701AE
:1038E0009601688579858A859B850E94E56D181605
:1038F00024F4C886D986EA86FB86DF91CF91FF90B3
:10390000EF90DF90CF9008954F925F926F927F92E9
:103910008F929F92AF92BF92EF92FF920F931F935D
:10392000CF93DF937C01FC01E856FA4F6491EC01E0
:10393000CC0FDD1FCC0FDD1FFE01EC50F44F459086
:10394000559065907490062E000C770B880B990BA0
:103950000E94B1674B015C0120E030E040EC5FE386
:10396000C301B2010E941068A50194010E94106871
:10397000AB01BC0100E010E09801C7010E94750D89
:10398000FE01E851F44F2591359145915491C501BF
:10399000B4010E9410684B015C0120E030E0A901F5
:1039A0000E94AB67882309F44BC000E010E0980147
:1039B000B501A4017058C7010E94750DF701EB51C4
:1039C000F44F649161111BC0EAEFF8E184913F016B
:1039D0009FEF691A790A882321F00E94860FF3016C
:1039E000F5CFE3ECFBE084913F019FEF691A790A80
:1039F000882321F00E94860FF301F5CF6AE0FE01D3
:103A0000E151FE4F459055906590749070E080E0D4
:103A100090E00E94B1679B01AC01C301B2010E941A
:103A20009B6C2B013C01A5019401C501B4010E94CE
:103A3000BF6BAB01BC0193018201C7010E94750DF0
:103A4000F701E15DF34F81E08083FE01EC5FFC4F05
:103A50001082118212821382C7010E942A0DFE0178
:103A6000E259FA4F85919591A591B4918E01015E2D
:103A7000134FF80180839183A283B3830E946B0D5F
:103A8000C25FD34FF80180819181A281B381888385
:103A90009983AA83BB83DF91CF911F910F91FF90F0
:103AA000EF90BF90AF909F908F907F906F905F90BE
:103AB0004F900895EF92FF920F931F93CF93DF9350
:103AC0001F921F92CDB7DEB782E08093C0001092A4
:103AD000C50080E18093C4008091C1008061809323
:103AE000C1008091C10088608093C1008091C100B5
:103AF00080688093C100ECEBFBE084918F010F5F45
:103B00001F4F882321F00E94860FF801F6CFEAEFBD
:103B1000F8E184918F010F5F1F4F882321F00E94ED
:103B2000860FF801F6CF14B710FF0DC0E3EBFBE0F2
:103B300084917F019FEFE91AF90A882321F00E94FE
:103B4000860FF701F5CF11FF0DC0E2EAFBE084918B
:103B50007F019FEFE91AF90A882321F00E94860F5E
:103B6000F701F5CF12FF0DC0E0E9FBE084917F0182
:103B70009FEFE91AF90A882321F00E94860FF701C6
:103B8000F5CF13FF0DC0EFE7FBE084917F019FEFBE
:103B9000E91AF90A882321F00E94860FF701F5CF70
:103BA00015FF0CC0EEE6FBE084918F010F5F1F4F05
:103BB000882321F00E94860FF801F6CF14BEE7E6B5
:103BC000FBE084918F010F5F1F4F882321F00E943B
:103BD000860FF801F6CF80E20E94860FE0E6FBE058
:103BE00084918F010F5F1F4F882321F00E94860F61
:103BF000F801F6CF8AE00E94860FEAEFF8E184919F
:103C00008F010F5F1F4F882321F00E94860FF8015C
:103C1000F6CFE0E5FBE084918F010F5F1F4F882313
:103C200021F00E94860FF801F6CFEFE3FBE08491CC
:103C30008F010F5F1F4F882321F00E94860FF8012C
:103C4000F6CFECE1FBE084918F010F5F1F4F8823DB
:103C500021F00E94860FF801F6CFEAEFF8E1849197
:103C60008F010F5F1F4F882321F00E94860FF801FC
:103C7000F6CFE5E0FBE084918F010F5F1F4F8823B3
:103C800021F00E94860FF801F6CFEAEFF8E1849167
:103C90008F010F5F1F4F882321F00E94860FF801CC
:103CA000F6CF2091770C3091780CCE01019621153A
:103CB000310519F48D579C4002C0821B930B9A83E7
:103CC000898369817A8186EF9AE00E94BA2960EF40
:103CD00074E08FED9AE00E94BA298AE00E94860F74
:103CE00081E080938106809382068093830680938F
:103CF0008406AED880E01DDA8CE0E9ECF3E0AFE1B9
:103D0000BCE001900D928A95E1F70E946B0D6D9ACF
:103D1000809101018061809301018091010188609F
:103D2000809301019D9A809101018062809301013D
:103D30008091010188608093010187ED80937A0072
:103D400010927E0010927D0080917E0081608093B1
:103D50007E0080917E00846080937E0080E888BD34
:103D600080916E00846080936E006AEF70E080E066
:103D700090E00E94744D85E090E09093AA0B8093B0
:103D8000A90B60E080912C0290912D020E947C3959
:103D900020E030E040EA50E40E94AB6787FF0AC0B1
:103DA00080912C0290912D02409790932D02809348
:103DB0002C02E7CF80E590E09093290280932802BF
:103DC00060E08091AE0B9091AF0B0E947C3920E0B7
:103DD00030E040EA52E40E94E56D181654F48091F8
:103DE000AE0B9091AF0B40969093AF0B8093AE0BC0
:103DF000E7CF80912A0290912B020E94513B20E054
:103E000030E040EA50E40E94AB6787FF0AC080912F
:103E10002A0290912B02409790932B0280932A02C2
:103E2000E8CF8091AC0B9091AD0B0E94513B20E00C
:103E300030E040EA52E40E94E56D181654F4809197
:103E4000AC0B9091AD0B40969093AD0B8093AC0B67
:103E5000E8CF98E288E10FB6F894A89580936000C7
:103E60000FBE9093600080910A01886080930A01E0
:103E700080910A01806180930A0180910A01806229
:103E800080930A010E94A24680912101887F81606F
:103E900080932101999A989A809107018068809374
:103EA00007019A9A809107018064809307018091AD
:103EB00007018062809307018091070188608093E9
:103EC00007018091070180618093070189E4E82E52
:103ED00082E0F82E10E0F70161917F01812F0E94AE
:103EE0004D461F5F1530B9F780910A0182608093BB
:103EF0000A0180910A01816080930A0180910A0180
:103F0000846080930A0180910A01806480930A0191
:103F10000F9A179A0E9A169A0D9A159A0C9A149A45
:103F200026982E9A25982D9A24982C9A389A40985B
:103F3000179A399A4198169A3A9A4298159A3B9A42
:103F40004398149A809180008C7F809380008091A8
:103F50008100877E886080938100809180008F73CC
:103F60008093800080918100887F826080938100AF
:103F700080E090E4909389008093880010928500FF
:103F80001092840080916F00826080936F0081E0C6
:103F900080935F0C7894E2D20F900F90DF91CF91D5
:103FA0001F910F91FF90EF900895E0E0F9E1849167
:103FB000EF012196882321F00E94860FFE01F7CFA2
:103FC000EFEBFAE08491EF012196882321F00E9423
:103FD000860FFE01F7CF0E94313B0E94100D2FEF9C
:103FE0008BE49DE1215080409040E1F700C000004B
:103FF000F8942FEF84E39CE0215080409040E1F75B
:1040000000C000000E94313BA895FECF2F923F9246
:104010004F925F926F927F928F929F92AF92BF92D8
:10402000CF92DF92EF92FF920F931F93CF93DF9384
:1040300000D01F92CDB7DEB70E94AC4D6B017C0162
:1040400080910002882309F46BC08091DC03909179
:10405000DD03009709F464C04091850650918606FF
:10406000609187067091880697018601041B150BE5
:10407000260B370B37FD67C08330910519F130F4FB
:10408000019708F44DC0EAEFF8E106C0049709F083
:1040900047C0EAEFF8E12EC084918F010F5F1F4FF8
:1040A000882321F00E94860FF801F6CFEAE6FAE0B5
:1040B00084918F010F5F1F4F882391F10E94860F1B
:1040C000F801F6CFEAEFF8E184918F010F5F1F4FFF
:1040D000882321F00E94860FF801F6CFE3E5FAE08D
:1040E00084918F010F5F1F4F8823D1F00E94860FAC
:1040F000F801F6CF84918F010F5F1F4F882321F0C5
:104100000E94860FF801F6CFEBE3FAE084918F016D
:104110000F5F1F4F882321F00E94860FF801F6CF12
:104120002091000230E0A8EEB3E00E94AF6BC60E13
:10413000D71EE81EF91EC0928506D0928606E09230
:104140008706F092880680911403882391F00E94DC
:10415000AC4D009110031091110320911203309186
:104160001303DC01CB01801B910BA20BB30BB7FF38
:10417000D3C180917D05843030F40E94AB11811150
:1041800002C00E947F100E94AC4DC0902803D090C6
:104190002903E0902A03F0902B03C114D104E10419
:1041A000F10471F10091F0021091F1022091F202FC
:1041B0003091F3020C0D1D1D2E1D3F1D6B017C0166
:1041C000C01AD10AE20AF30AF7FC1AC0E0E0F9E1EA
:1041D00084918F010F5F1F4F882321F00E94860F6B
:1041E000F801F6CF6091D5037091D60385E89AE087
:1041F0000E94D3298AE00E94860F8CE79AE0D5DEE0
:10420000C0900102D0900202E0900302F0900402FC
:10421000C114D104E104F104C9F00091F00210913D
:10422000F1022091F2023091F3020C0D1D1D2E1DA2
:104230003F1DDC01CB01801B910BA20BB30BB7FD23
:1042400005C00E94170F882309F483C119821A82BE
:104250001B821C820E94170F811105C060912103EF
:10426000109123033AC0E0915D0C8FE48E9FF00122
:104270001124E752F94F6081E0915D0C8E9FF001AF
:104280001124E552F94F108180915D0C90915C0CE6
:10429000981719F1FE0131960FE4809FA0011124B7
:1042A00020E030E0D901A40FB51FAE56B94F1296E9
:1042B000CD90DD90ED90FC901597CD28CE28CF289D
:1042C00019F090819F5F90832C5F3F4F3196203192
:1042D000310541F78F5F8F70D9CF8981811101C07E
:1042E000179A8A81811101C0169A70E088E00E94B5
:1042F000AD4C612F70E086E00E94AD4C8091AB0B1D
:10430000882309F4F1C0E0901B02F0901C02009198
:104310001D0210911E026091190370911A036E5FC5
:104320007F4F072E000C880B990B0E94B1679701F5
:10433000A8010E94AB6787FDD7C0D0905D0C712C9F
:10434000C12C812C912C8FE4682E80915C0C8D15F2
:1043500009F458C08D2D90E0689EF001699EF00D23
:104360001124EE56F94F4281538164817581452BAA
:10437000462B472B81F44681578160857185452BFB
:10438000462B472B41F44285538564857585452B23
:10439000462B472B91F1689E9001699E300D1124A8
:1043A000C9018E56994F5C01FC016685778580892D
:1043B00091890E94B1671B012C01F5016289738903
:1043C000848995890E94AF679B01AC01C201B1014C
:1043D0000E949B6CF50123A134A145A156A10E9426
:1043E00010682B015C01272D3C2DA4010E94E56D76
:1043F00018161CF4742CC52C450181E08D0D8F70AE
:10440000D82EA3CF20911F0230912002409121028B
:1044100050912202672D7C2DC4010E9410689701E3
:10442000A8010E94BF6B962EA72EB82ED92E262F3C
:10443000372F482F592FB701C8010E94E56D181674
:10444000B4F0E0901702F090180200911902109158
:104450001A029701A801692D7A2D8B2D9D2D0E949E
:10446000E56D181624F0E92CFA2C0B2D1D2D8090EB
:10447000890690908A06A0908B06B0908C069701D2
:10448000A801C501B4010E94E56D1816C4F420E02E
:1044900037ED43EA5CE3B701C8010E9410686B0185
:1044A0007C0128E431EE4AE75FE3C501B4010E94D4
:1044B0001068A70196010E94BF6B7B018C01C701A8
:1044C000D8018093890690938A06A0938B06B093B7
:1044D0008C06B701C8010E94036D70931A036093A4
:1044E000190380E00E94E53A0F900F900F900F9013
:1044F000DF91CF911F910F91FF90EF90DF90CF90C0
:10450000BF90AF909F908F907F906F905F904F90F3
:104510003F902F900C94BA3E0E94AC4D6B017C01F1
:104520002091140330E0A8EEB3E00E94AF6BC60EFA
:10453000D71EE81EF91EC0921003D0921103E0921C
:104540001203F09213030E94163A8AE00E94860F2B
:1045500010CE179A169A159A149A78CE80919106D1
:104560009FB780FF09C0F89480910B018D7F8093E5
:104570000B019FBF8FEF08C0F89480910B01826000
:1045800080930B019FBF81E080932302809191066D
:104590009FB781FF09C0F89480910B0181608093DF
:1045A0000B019FBF8FEF08C0F89480910B018E7FA5
:1045B00080930B019FBF81E080932402809191063C
:1045C0009FB782FF09C0F89480910B018B7F809385
:1045D0000B019FBF8FEF08C0F89480910B0184609E
:1045E00080930B019FBF81E080932502809191060B
:1045F0009FB783FF09C0F89480910B018F7B809354
:104600000B019FBF8FEF08C0F89480910B0180646D
:1046100080930B019FBF81E08093260208951F9233
:104620000F920FB60F9211240BB60F92BF92CF923A
:10463000DF92EF92FF920F931F932F933F934F932D
:104640005F936F937F938F939F93AF93BF93EF93FA
:10465000FF93CF93DF9300D000D0CDB7DEB780912A
:104660006E008B7F80936E0080916F008D7F8093B2
:104670006F007894C090A00BD090A10BE090A20B9B
:10468000F090A30BC114D104E104F104B1F18091C5
:104690005F0C882391F10E943D16D701C60109EBFA
:1046A000C0160BE0D006E104F10420F088EB9BE09B
:1046B000A0E0B0E0C81AD90AEA0AFB0AC092A00B2F
:1046C000D092A10BE092A20BF092A30B90938900E1
:1046D0008093880020918800309189008091840027
:1046E0009091850040962817390708F0C3C580913E
:1046F000840090918500409659C18091000C909162
:10470000010C0097E9F197FF21C08091FE0B909179
:10471000FF0B892B51F00E94170F882331F08091F5
:104720005D0C8F5F8F7080935D0C0E94170F882344
:1047300009F4E1C5E0915D0C1FE4E19FF001112453
:10474000EE56F94F808184FDCAC5D5C50E94170F6A
:10475000882331F080915D0C8F5F8F7080935D0CAA
:104760008091000C9091010C01979093010C809323
:10477000000C1092FF0B1092FE0B88EC90E016C11B
:104780000091FE0B1091FF0B1A830983012B09F096
:1047900012C10E94170F882371F010915D0C4FE435
:1047A000149F900111242E56394F3A832983D90141
:1047B0008C9188608C9309811A811093FF0B009370
:1047C000FE0B0115110509F4EFC0D80192965C911A
:1047D00092978091910611964C9158130AC0242FFC
:1047E00030E080912702082E000C990B281739071A
:1047F00029F05093910640932702B0DE10929C0B53
:1048000010929D0B10929E0B10929F0BE091FE0B4D
:10481000F091FF0B87A990AD8134BCE99B0728F488
:104820008132EEE49E0748F002C080E49CE9969550
:1048300087959695879524E007C08131F7E29F0719
:1048400030F09695879522E020939B0B08C021E0DD
:1048500020939B0B8032910510F480E290E08C0154
:10486000005211091A830983011528E01207E8F0A4
:10487000E12FFF27EE0FFF1FEE0FFF1FCF0180502C
:10488000904FFC01329645915491AA27059F9001C3
:10489000049F210D3A1F06942A1F3A1F1124FC0180
:1048A00085919491821B930B22C089819A81969560
:1048B00087958C7F8050944FFC0125913491FC01A9
:1048C00032964591549169817A8167707727649F08
:1048D000C001659F900D749F900D112463E0969523
:1048E00087956A95E1F7A901481B590BCA018436DF
:1048F000910580F401E812E0D8018D918D018823A3
:1049000019F00E94860FF8CF89819A810E94604732
:1049100084E690E090939A0B8093990B80919B0B87
:104920008093980B1092850010928400E091FE0B0A
:10493000F091FF0B82899389A489B589B695A795D3
:1049400097958795B095A095909581959F4FAF4F7E
:10495000BF4F8093940B9093950BA093960BB093BD
:10496000970B8093900B9093910BA093920BB09325
:10497000930B80938C0B90938D0BA0938E0BB09325
:104980008F0B8093880B9093890BA0938A0BB09325
:104990008B0B1092FA0B1092FB0B1092FC0B1092E7
:1049A000FD0B01E0098308C080ED97E0909389003A
:1049B000809388005FC4198280915F0C81110E94EE
:1049C0003D1620919B0B222309F4A1C1E091FE0B1F
:1049D000F091FF0B42815381648175818091880B36
:1049E0009091890BA0918A0BB0918B0B840F951F2E
:1049F000A61FB71F8093880B9093890BA0938A0BF7
:104A0000B0938B0B181619061A061B060CF4409A65
:104A1000E091FE0BF091FF0B468157816085718517
:104A200080918C0B90918D0BA0918E0BB0918F0B80
:104A3000840F951FA61FB71F80938C0B90938D0B2F
:104A4000A0938E0BB0938F0B181619061A061B062F
:104A50000CF4419AE091FE0BF091FF0B42855385D7
:104A6000648575858091900B9091910BA091920B2C
:104A7000B091930B840F951FA61FB71F8093900BC7
:104A80009093910BA093920BB093930B1816190669
:104A90001A061B060CF4429AE091FE0BF091FF0BF4
:104AA00046855785608971898091940B9091950B0B
:104AB000A091960BB091970B840F951FA61FB71F5F
:104AC0008093940B9093950BA093960BB093970BB8
:104AD000181619061A061B060CF4439A8091880BC7
:104AE0009091890BA0918A0BB0918B0B1816190627
:104AF0001A061B0684F5E091FE0BF091FF0B42892C
:104B0000538964897589841B950BA60BB70B809319
:104B1000880B9093890BA0938A0BB0938B0B809199
:104B200023024091F4025091F5026091F6027091D7
:104B3000F702082E000C990BAA0BBB0B840F951FD4
:104B4000A61FB71F8093F4029093F502A093F6027C
:104B5000B093F702409880918C0B90918D0BA091AF
:104B60008E0BB0918F0B181619061A061B0684F5CA
:104B7000E091FE0BF091FF0B42895389648975899E
:104B8000841B950BA60BB70B80938C0B90938D0B0E
:104B9000A0938E0BB0938F0B809124024091F8026A
:104BA0005091F9026091FA027091FB02082E000CFC
:104BB000990BAA0BBB0B840F951FA61FB71F8093E1
:104BC000F8029093F902A093FA02B093FB02419885
:104BD0008091900B9091910BA091920BB091930BBF
:104BE000181619061A061B0684F5E091FE0BF091C3
:104BF000FF0B4289538964897589841B950BA60B29
:104C0000B70B8093900B9093910BA093920BB09362
:104C1000930B809125024091FC025091FD0260911E
:104C2000FE027091FF02082E000C990BAA0BBB0B21
:104C3000840F951FA61FB71F8093FC029093FD025F
:104C4000A093FE02B093FF0242988091940B909142
:104C5000950BA091960BB091970B181619061A0692
:104C60001B0684F5E091FE0BF091FF0B42895389FE
:104C700064897589841B950BA60BB70B8093940BE5
:104C80009093950BA093960BB093970B809126026F
:104C9000409100035091010360910203709103035E
:104CA000082E000C990BAA0BBB0B840F951FA61F97
:104CB000B71F8093000390930103A0930203B09366
:104CC000030343988091FA0B9091FB0BA091FC0B8E
:104CD000B091FD0B0196A11DB11D8093FA0B90932D
:104CE000FB0BA093FC0BB093FD0B2150E091FE0B4E
:104CF000F091FF0B42895389648975898417950760
:104D0000A607B70708F45FCEBB24B39401C0B12C4B
:104D1000E091FE0BF091FF0B8091FA0B9091FB0B51
:104D2000A091FC0BB091FD0B46895789608D718D68
:104D3000481759076A077B0708F430C11981112306
:104D400079F083AD94AD9093870B8093860B10928E
:104D5000820B1092830B1092840B1092850B3BC038
:104D60004091820B5091830B6091840B7091850B65
:104D7000068D178D20A131A1AA27419FB12D529FE9
:104D8000C001629F900D619F800D911D429FB00DEB
:104D9000811D9A1F519FB00D811D9A1F609FB00DFC
:104DA000811D9A1F509FB10D8A1F9A1FB6958A1FA9
:104DB0009A1F349F800D911D359F900D11249A8369
:104DC000898383AD94AD09811A81800F911F9093DF
:104DD000870B8093860B47A950AD61AD72AD809172
:104DE000860B9091870BA0E0B0E0481759076A073F
:104DF0007B0720F45093870B4093860B2091860B02
:104E00003091870B3A83298321344CE9340720F40D
:104E100021323E4478F004C080E49CE99A8389837F
:104E2000A981BA81B695A795B695A795BA83A983A6
:104E300084E00BC0E981FA81E13107E2F00740F03C
:104E4000F695E795FA83E98382E080939B0B0CC08B
:104E500081E080939B0B29813A812032310520F437
:104E600040E250E05A83498309811A8100521109B6
:104E70001A830983011528E01207E8F0E12FFF27C4
:104E8000EE0FFF1FEE0FFF1FCF018050904FFC0170
:104E9000329625913491AA27039FA001029F410DCC
:104EA0005A1F06944A1F5A1F1124FC012591349160
:104EB000241B350B20C089819A81969587958C7F1C
:104EC0008050944FFC0125913491FC01329645911C
:104ED000549169817A8167707727649FC001659FCB
:104EE000900D749F900D1124B3E096958795BA9517
:104EF000E1F7281B390B2436310590F4F1E8EF2E49
:104F0000F2E0FF2ED7018D917D01882319F00E94D8
:104F1000860FF8CF89819A810E94604724E630E0AD
:104F200080915F0C882301F1C901293BBBE03B075D
:104F3000E0F068EB7BE00E94836E883EE3E09E0732
:104F400018F48854944F02C088EB9BE0A901481BD9
:104F5000590B60E070E04093A00B5093A10B60935D
:104F6000A20B7093A30B01C0C90190938900809399
:104F700088008091820B9091830BA091840BB0915B
:104F8000850B820F931FA11DB11D8093820B9093FF
:104F9000830BA093840BB093850B47C18091FA0BD0
:104FA0009091FB0BA091FC0BB091FD0B428D538DAA
:104FB000648D758D481759076A077B0708F005C18E
:104FC00000919C0B10919D0B20919E0B30919F0B9B
:104FD00009831A832B833C83468D578D60A171A171
:104FE000AA27059FB12D169F7001269FF00C259FC3
:104FF000E00CF11C069FB00DE11CFA1E159FB00DD0
:10500000E11CFA1E249FB00DE11CFA1E149FB10D85
:10501000EA1EFA1EB695EA1EFA1E709FE00CF11CFD
:10502000719FF00C11248091860B9091870BFF9655
:10503000E816F90680F48E199F094081518162813A
:1050400073816C01E12CF12CC416D506E606F70637
:1050500020F4CA0102C08081918181341CE991074A
:1050600028F481322EE4920748F002C080E49CE9E3
:10507000969587959695879524E007C0813137E20C
:10508000930730F09695879522E020939B0B08C0FC
:1050900021E020939B0B8032910510F480E290E098
:1050A0008C01005211091E830D83011528E012079F
:1050B000E8F0E12FFF27EE0FFF1FEE0FFF1FCF01DC
:1050C0008050904FFC01329625913491AA27039F7E
:1050D000A001029F410D5A1F06944A1F5A1F112416
:1050E000FC0125913491241B350B20C08D819E81BC
:1050F000969587958C7F8050944FFC012591349133
:10510000FC013296459154916D817E8167707727BD
:10511000649FC001659F900D749F900D112443E022
:10512000969587954A95E1F7281B390B243631056A
:1051300090F481E8E82E82E0F82ED7018D917D0170
:10514000882319F00E94860FF8CF8D819E810E94DE
:10515000604724E630E080915F0C882301F1C901AB
:10516000293BBBE03B07E0F068EB7BE00E94836EED
:10517000883EE3E09E0718F48854944F02C088EB01
:105180009BE0A901481B590B60E070E04093A00B25
:105190005093A10B6093A20B7093A30B01C0C901A4
:1051A000909389008093880089819A81AB81BC812A
:1051B000820F931FA11DB11D80939C0B90939D0B9B
:1051C000A0939E0BB0939F0B30C02091990B309110
:1051D0009A0B80915F0C882301F1293BFBE03F078C
:1051E000E0F0C90168EB7BE00E94836E883E03E03B
:1051F000900718F48854944F02C088EB9BE0A901F3
:10520000481B590B60E070E04093A00B5093A10B3A
:105210006093A20B7093A30B9C01309389002093A1
:1052200088008091980B80939B0B2091880030918F
:105230008900809184009091850040962817390755
:1052400048F4809184009091850040969093890065
:1052500080938800BB2071F01092FF0B1092FE0B20
:105260000E94170F882331F080915D0C8F5F8F7043
:1052700080935D0CF8948091B10B882321F080918C
:105280006E008B7F03C080916E00846080936E00FF
:1052900080916F00826080936F0026960FB6F8941D
:1052A000DEBF0FBECDBFDF91CF91FF91EF91BF91D8
:1052B000AF919F918F917F916F915F914F913F91AE
:1052C0002F911F910F91FF90EF90DF90CF90BF90A3
:1052D0000F900BBE0F900FBE0F901F9018950E945D
:1052E000170F882309F445CA80915D0C8F5F8F707A
:1052F00080935D0C3ECA1092010C1092000C39CACA
:10530000CF92DF92EF92FF92CF93DF936A017B01FE
:10531000FC018491EF012196882321F00E94860FE1
:10532000FE01F7CF4AE0C701B601DF91CF91FF90B0
:10533000EF90DF90CF900C941E12CF92DF92EF92FD
:10534000FF92CF93DF936A017B01FC018491EF010F
:105350002196882321F00E94860FFE01F7CF42E0BC
:10536000C701B601DF91CF91FF90EF90DF90CF9012
:105370000C9406130F931F93CF93DF938B01FC01C3
:105380008491EF012196882321F00E94860FFE016F
:10539000F7CFB801110F880B990BDF91CF911F91B7
:1053A0000F910C94C5120F931F93CF93DF938B0132
:1053B000FC018491EF012196882321F00E94860F41
:1053C000FE01F7CFE8018991882319F00E94860F2A
:1053D000FACFDF91CF911F910F9108954F925F9275
:1053E0006F927F92AF92BF92CF92DF92EF92FF9235
:1053F0000F931F93CF93DF938C01EB01FC0147A028
:1054000050A461A472A4AFA0B8A4C9A4DAA4950161
:10541000A601C301B2010E94AB6787FF40C0A30190
:105420009201C301B2010E9410682B013C01F801F6
:1054300083A994A9A5A9B6A9BC01CD0190589B0147
:10544000AC010E94BF6BF80127A530A941A952A960
:105450000E9410689B01AC01C301B2010E94BE6BA7
:105460000E942A6E7B018C019B01AC01B501C60133
:105470000E94AB6787FF02C0750186019701A801F2
:10548000B501C6010E94AB67882349F0C701D80166
:105490008FA398A7A9A7BAA7888181608883DF9185
:1054A000CF911F910F91FF90EF90DF90CF90BF9021
:1054B000AF907F906F905F904F9008958091C70359
:1054C00081111AC06091130270911402072E000C12
:1054D000880B990B0E94B1679B01AC016091150389
:1054E0007091160380911703909118030E94AB6787
:1054F000881F8827881F089580E0089586E40E9409
:10550000490E8093AB0B882351F00E94120E6093DA
:105510001F0270932002809321029093220283E560
:105520000E94490E882351F00E94120E60931B02C4
:1055300070931C0280931D0290931E0282E40E94CD
:10554000490E882351F00E94120E60931702709347
:1055500018028093190290931A0208954F925F9255
:105560006F927F928F929F92AF92BF92EF92FF9233
:105570000F931F93CF93DF93C1E5D3E08CE3E82E25
:1055800083E0F82E0CE213E0412C512C32014394BD
:105590006991799189919991F70181909190A19068
:1055A000B1907F010E94AF67A50194010E9410682D
:1055B0000E94086DF80161937193819391938F011B
:1055C000461657066806790610F42B013C01F3E0F5
:1055D000C136DF07E9F66FEF7FEFCB01A301920140
:1055E0000E94836B20938D0630938E0640938F0626
:1055F00050939006DF91CF911F910F91FF90EF9004
:10560000BF90AF909F908F907F906F905F904F90E2
:1056100008952F923F924F925F926F927F928F9256
:105620009F92AF92BF92CF92DF92EF92FF920F9331
:105630001F93CF93DF9300D01F92CDB7DEB77B01CE
:105640006A011901ACE3B3E02D913D914D915C915C
:10565000FC0160817181828193810E9410680E94A7
:10566000F06D2B013C010CE41CE0D8016D937D939F
:105670008D939C9313972091400330914103409167
:10568000420350914303F7016081718182819381CC
:105690000E9410680E94F06D4B015C01D8011496C5
:1056A0006D937D938D939C93179720914403309134
:1056B00045034091460350914703F6016081718193
:1056C000828193810E9410680E94F06D6B017C01C1
:1056D000D80118966D937D938D939C931B97209181
:1056E00048033091490340914A0350914B03F10123
:1056F00060817181828193810E9410680E94F06DA7
:1057000069837A838B839C83D8011C966D937D93E8
:105710008D939C931F970E94FC468FB7F894E4EFFB
:10572000F2E0408251826282738284829582A682F4
:10573000B782C086D186E286F38629813A814B8181
:105740005C8124873587468757878FBF1092380C36
:105750001092390C10923A0C10923B0C80E1ECE361
:10576000FCE0DF011D928A95E9F70F900F900F90F2
:105770000F90DF91CF911F910F91FF90EF90DF90ED
:10578000CF90BF90AF909F908F907F906F905F90E1
:105790004F903F902F9008950F931F93CF93DF93D7
:1057A000CCE3D3E00FE515E0299139914991599166
:1057B00060E070E080E89FE30E949B6CF8016193D9
:1057C0007193819391938F01F3E0CC34DF0761F7FC
:1057D0002BE23CE047E25CE063E27CE08FE19CE0AE
:1057E00018DFDF91CF911F910F91B8CE2F923F928A
:1057F0004F925F926F927F928F929F92AF92BF92E1
:10580000CF92DF92EF92FF920F931F93CF93DF938C
:10581000CDB7DEB7CF55D1090FB6F894DEBF0FBEB6
:10582000CDBF28969FAF8EAF28974BA75BAF6CAFCD
:105830007DAF322EDC01CD90DD90ED90FC9080911B
:105840004C0C90914D0CA0914E0CB0914F0CC81A7D
:10585000D90AEA0AFB0A2896EEADFFAD28974481E3
:105860005581668177818091500C9091510CA09167
:10587000520CB091530C4A015B01881A990AAA0A8A
:10588000BB0A8FAA98AEA9AEBAAE40855185628593
:1058900073858091540C9091550CA091560CB09149
:1058A000570C4A015B01881A990AAA0ABB0A8BAAFB
:1058B0009CAAADAABEAA84849584A684B78480914C
:1058C000580C9091590CA0915A0CB0915B0C24018A
:1058D0003501481A590A6A0A7B0A09F482C0EEDDCA
:1058E000882319F18092580C9092590CA0925A0C6E
:1058F000B0925B0CEAEFF8E184918F010F5F1F4FCC
:10590000882321F00E94860FF801F6CFEFE1F4E141
:1059100084918F010F5F1F4F882321F00E94860F13
:10592000F801F6CF412C512C320124E0329E800147
:1059300011240D541C4FC301B2010E94B167D8015C
:105940002D913D914D915C910E9410680E94036DD4
:105950004B015C0197FF08C0B094A0949094809490
:10596000811C911CA11CB11C6091480370914903DA
:1059700080914A0390914B030E94036D9B01AC01FF
:10598000A8ECB0E00E94A56B681579058A059B0517
:105990005CF52896EEADFFAD289784859585A685A4
:1059A000B7858093580C9093590CA0935A0CB093E0
:1059B0005B0CEAEFF8E184918F010F5F1F4F8823A2
:1059C00021F00E94860FF801F6CFE0E0F4E1849127
:1059D0008F010F5F1F4F882321F00E94860FF8016F
:1059E000F6CF412C512C3201D701C6018827B7FDD3
:1059F00083959927AA27BB27182F8FA898ACA9AC05
:105A0000BAACB7FC12608BA89CA8ADA8BEA8B7FC26
:105A1000146077FC186004E0309EC00111249C01E2
:105A20002D543C4F5901C301B2010E94B167D50109
:105A30002D913D914D915C910E9410682B013C018C
:105A400020E030E0A9010E94E56D18164CF420E03A
:105A500030E040E05FE3C301B2010E94BF6B08C0C9
:105A6000A301920160E070E080E09FE30E94BE6BC2
:105A70000E94036D6FA778AB89AB9AAB80915C0CE9
:105A80008F5F8F7060968FAF609780915D0C60968E
:105A90008FAC6097881203C00E940620F6CFE09179
:105AA0005C0CAE2EB12CBAA6A9A60FE4E09FF001C3
:105AB0001124EE56F94F108212A3D701C601F7FE4A
:105AC00007C088279927DC018C199D09AE09BF09F9
:105AD00082839383A483B5838FE489A49AA4889D49
