:100000000C94900E0C94C10E0C94C10E0C94C10E65
:100010000C94C10E0C94C10E0C94C10E0C94C10E24
:100020000C94C10E0C94DB4B0C94B44B0C948D4B84
:100030000C94C10E0C94C10E0C94C10E0C94C10E04
:100040000C94C10E0C94153E0C94C10E0C94C10E70
:100050000C94C10E0C94C10E0C943E620C94494752
:100060000C94C10E0C946F330C94C10E0C94C10E01
:100070000C94C10E0C94C10E0C94C10E0C94C10EC4
:100080000C94C10E0C94C10E0C94C10E0C94C10EB4
:100090000C94C10E0C94C10E0C94C10E0C94C10EA4
:1000A0000C94C10E0C94C10E0C94C10E0C94C10E94
:1000B0000C94C10E0C94C10E0C94C10E0C94C10E84
:1000C0000C94C10E0C94C10E0C94C10E0C94C10E74
:1000D0000C94C10E0C94C10E0C94C10E0C94C10E64
:1000E0000C94C10E4445474536453A4540457E454A
:1000F0004B454F45554559455D45634567456B45FE
:100100007E4571457545794565466A466F4679462F
:100110008346FC468D4695469D46A746B146BB465E
:10012000CA46D446FC46DE46E846F246084AD73B75
:100130003BCE016E84BCBFFDC12F3D6C74319ABDB6
:1001400056833DDA3D00C77F11BED9E4BB4C3E91DA
:100150006BAAAABE000000803F05A84CCDB2D44EC9
:10016000B93836A9020C50B9918688083CA6AAAACB
:100170002ABE000000803F004E414E494E4954596E
:10018000494E46CDCCCC3D0AD7233C17B7D1387762
:10019000CC2B329595E6241FB14F0A000020410078
:1001A00000C84200401C4620BCBE4CCA1B0E5AAEC2
:1001B000C59D74434F4D4D554E49434154494F4E93
:1001C0000044525952554E004552524F5253004925
:1001D0004E464F004543484F0020746F6F206C6FB0
:1001E0006E6720657874727573696F6E20707265C2
:1001F00076656E7465640A0020636F6C64206578B0
:1002000074727573696F6E2070726576656E746551
:10021000640A0047322F47332062616420706172A4
:10022000616D65746572730A002569730025696DD7
:1002300020256973002569682025696D202569736B
:1002400000256964202569682025696D202569736A
:100250000025697920256964202569682025696D54
:1002600020256973005072696E742074696D653A57
:100270002000D401CF01C801C101B3016F6666003F
:1002800044454255473A004B494C4C45442E2000CA
:100290004D3131332053006F6B0020573A002C2032
:1002A000002C2000544845524D414C5F50524F5451
:1002B000454354494F4E004155544F5245504F52BB
:1002C000545F53445F53544154555300454D455278
:1002D00047454E43595F50415253455200434153A5
:1002E000455F4C494748545F4252494748544E4540
:1002F000535300544F47474C455F4C49474854536C
:1003000000534F4654574152455F504F5745520096
:100310004255494C445F50455243454E54004C456C
:1003200056454C494E475F44415441005A5F505234
:100330004F4245004155544F4C4556454C00505294
:10034000494E545F4A4F420050524F475245535313
:10035000004155544F5245504F52545F54454D50F3
:1003600000564F4C554D4554524943004545505257
:100370004F4D0053455249414C5F584F4E5F584FC7
:100380004646004649524D574152455F4E414D4504
:100390003A4D61726C696E206275676669782D31BD
:1003A0002E312E7820284769746875622920534FB2
:1003B000555243455F434F44455F55524C3A68742C
:1003C0007470733A2F2F6769746875622E636F6D4E
:1003D0002F4D61726C696E4669726D776172652F1F
:1003E0004D61726C696E2050524F544F434F4C5FB9
:1003F00056455253494F4E3A312E30204D414348D5
:10040000494E455F545950453A3344205072696E05
:100410007465722045585452554445525F434F55B8
:100420004E543A3120555549443A6365646532610A
:1004300032662D343161322D343734382D39623102
:10044000322D6335356336326633363766660A00D9
:100450002F2F2000205400205200416363656C65FB
:10046000726174696F6E3A2050002066697273740D
:100470000A005A0059005800486F6D652000546FFB
:100480006F206661722066726F6D2072656665729C
:10049000656E636520706F696E740A00205A0020D3
:1004A0005900580020204D61783A2000205A002041
:1004B0005900580020204D696E3A20004F6E2000F0
:1004C0004F666600536F667420656E6473746F7058
:1004D000733A200020466C6F773A200000012531E6
:1004E0001D40FFFFFF2924301C45FFFFFF27232F5E
:1004F0001B0AFFFFFFFF43FFFF040806FFFF222B3D
:100500001AFFFF42043803FF3620643A0020693A9C
:100510000020703A00496E76616C696420657874D9
:1005200072756465720A0043290A0061626C656431
:1005300020286D696E2074656D702000436F6C64B7
:10054000206578747275646573206172652000237C
:10055000646566696E652044454641554C545F4B61
:1005600064200023646566696E65204445464155F4
:100570004C545F4B69200023646566696E652044B6
:10058000454641554C545F4B702000504944204132
:1005900075746F74756E652066696E6973686564DD
:1005A000212050757420746865206C617374204B31
:1005B000702C204B6920616E64204B6420636F6E49
:1005C0007374616E74732066726F6D2062656C6FF8
:1005D0007720696E746F20436F6E6669677572610C
:1005E00074696F6E2E680A00504944204175746F1B
:1005F00074756E65206661696C6564212074696D2F
:10060000656F75740A00453120544845524D414C80
:100610002052554E4157415900546865726D616CC6
:100620002052756E617761790045312048656174AB
:10063000696E67206661696C65640048656174690C
:100640006E67206661696C6564005049442041759D
:10065000746F74756E65206661696C6564212054E1
:10066000656D706572617475726520746F6F206856
:100670006967680A00204B643A2000204B693A20E1
:1006800000204B703A20000A20436C617373696349
:1006900020504944200A002054753A2000204B7510
:1006A0003A2000206D61783A2000206D696E3A2072
:1006B0000020643A200020626961733A20005049AA
:1006C00044204175746F74756E65206661696C6550
:1006D00064212054656D7065726174757265207453
:1006E0006F6F20686967680A00504944204175743B
:1006F0006F74756E652073746172740A005049449A
:10070000204175746F74756E65206661696C6564EF
:100710002120426164206578747275646572206E70
:10072000756D6265720A004E6F2063617365206C9F
:10073000696768740A00454550524F4D20646973DB
:1007400061626C65640A004163746976652045786E
:100750007472756465723A2000496E76616C6964E2
:100760002065787472756465720A004B494C4C457B
:10077000442E2000202D20496E76616C696420652E
:1007800078747275646572206E756D626572202171
:100790000A002020506C616E6E6572427566666557
:1007A0007242797465733A20002046726565204D67
:1007B000656D6F72793A2000436F6D70696C656486
:1007C0003A204D617220313120323031390A002017
:1007D0007C20417574686F723A20323031392D3087
:1007E000332D31313B20566F6C756D6574726963C2
:1007F000204C756D656E20776974682045696E734D
:100800007920616E64204947555320616E6420420F
:1008100041524943554441206669726D7761726562
:10082000204F4E0A00323031382D30372D33310011
:10083000204C61737420557064617465643A2000C3
:100840006275676669782D312E312E780A004D6108
:10085000726C696E0020536F667477617265205206
:10086000657365740A00205761746368646F67205C
:1008700052657365740A002042726F776E206F753F
:10088000742052657365740A002045787465726E31
:10089000616C2052657365740A00506F77657255FC
:1008A000700A0073746172740A00205A3A00205969
:1008B0003A0020583A00656E6473746F7073206854
:1008C00069743A2000656E7175657565696E67209B
:1008D00022004C696E65204E756D626572206973E9
:1008E000206E6F74204C617374204C696E65204ECD
:1008F000756D6265722B312C204C617374204C69CC
:100900006E653A20004B494C4C45442E20005072F5
:10091000696E7465722073746F707065642064759D
:100920006520746F206572726F72732E204669782D
:1009300020746865206572726F7220616E64207524
:100940007365204D39393920746F20726573746175
:1009500072742E202854656D7065726174757265AD
:100960002069732072657365742E20536574206945
:100970007420616674657220726573746172746943
:100980006E67290A004E6F20436865636B73756D4F
:100990002077697468206C696E65206E756D62657C
:1009A000722C204C617374204C696E653A20006390
:1009B0006865636B73756D206D69736D61746368D1
:1009C0002C204C617374204C696E653A20004D31C7
:1009D00031300020496E76616C69642065787472EC
:1009E0007564657220000000000000000000000037
:1009F0000000000096420000484300004843486F52
:100A00006D696E67206661696C65640050726F7411
:100A100065637465642050696E0A0020573A0020AF
:100A20005A3A0020593A0020436F756E7420583AA4
:100A30000020453A00205A3A0020593A00583A001E
:100A40003A004361703A0024F4D43050C38E20C27F
:100A5000A24017828B7011127A910D816CD90AA86D
:100A600061E108C7586607615143061E4B5D05C129
:100A700045A7041A411104093D9803713931034017
:100A800036DB0265339102D4305402802E1D02639E
:100A90002CEE01752AC501B028A001102781018F15
:100AA0002564012B244B01E0223401AC211F018D70
:100AB000200D01801FFC00841EED00971DDF00B893
:100AC0001CD200E61BC600201BBC00641AB200B298
:100AD00019A8000A19A0006A189900D117910040BE
:100AE000178B00B516840031167E00B31579003AD5
:100AF000157300C7146F0058146A00EE136600885F
:100B000013630025135E00C7125B006C12570015BB
:100B1000125400C111510070114F0021114B00D629
:100B20001049008D1047004610440002104200C0DA
:100B30000F4000800F3E00420F3C00060F3B00CBF1
:100B40000E3800930E37005C0E3500270E3400F38C
:100B50000D3200C10D3100900D3000600D2E0032BD
:100B60000D2D00050D2C00D90C2B00AE0C29008595
:100B70000C29005C0C2700350C27000E0C2600E821
:100B80000B2400C40B2400A00B23007D0B23005A70
:100B90000B2100390B2100180B2000F80A1F00D987
:100BA0000A1E00BB0A1E009D0A1D00800A1D00636C
:100BB0000A1C00470A1B002C0A1B00110A1A00F726
:100BC000091A00DD091900C4091900AB09190092BE
:100BD0000917007B091800630917004C0916003635
:100BE000091600200916000A091500F5081500E08D
:100BF000081400CC081400B8081400A408140090CD
:100C00000813007D0812006B0813005808120046F4
:100C10000812003408110023081100120811000105
:100C2000081100F0071000E0071000D0071000C006
:100C3000071000B0070F00A107100091070E0083F6
:100C4000070F0074070F0065070E0057070E0049D5
:100C5000070E003B070D002E070E0020070D0013A6
:100C6000070D0006070D00F9060C00ED060D00E06B
:100C7000060C00D4060C00C8060C00BC060C00B024
:100C8000060C00A4060B0099060C008D060B0082D2
:100C9000060B0077060B006C060B0061060A005776
:100CA000060B004C060A0042060A0038060A002E0F
:100CB000060A0024060A001A060A001006090007A0
:100CC000060A00FD050900F4050900EB050900E22C
:100CD000050900D9050900D0050900C7050900BEAE
:100CE000050900B5050800AD050800A50509009C2B
:100CF000050800940508008C050800840508007CA0
:100D0000050800740508006C050700650508005D0E
:100D1000050700560508004E050700470507004077
:100D200005080038050700310507002A05070023DC
:100D30000507001C050600160507000F050700083B
:100D400005060002050700FB040600F5040700EE97
:100D5000040600E8040600E2040700DB040600D5F0
:100D6000040600CF040600C9040600C3040600BD43
:100D7000040600B7040600B1040500AC040600A692
:100D8000040600A00405009B0406009504050090DD
:100D90000406008A04050085040500800406007A24
:100DA00004050075040500700405006B0405006669
:100DB000040500610405005C0405005704050052A9
:100DC0000405004D04050048040500430405003EE9
:100DD0000404003A04050035040500300404002C26
:100DE00004050027040400230405001E0404001A5F
:100DF00004040016040500110404000D0404000995
:100E00000405000404040000040400FC030400F8CA
:100E1000030400F4030400F0030400EC030400E8FE
:100E2000030400E4030400E0030400DC030400D82E
:100E3000030400D4030400D0030400CC030400C85E
:100E4000030300C503030024F404D9201BC40C5C75
:100E50000E9804C4095F0265077101F405F900FBEF
:100E600004B30048048700C1036900580355000318
:100E7000034500BE023A008402310053022A0029D1
:100E800002250004022000E4011C00C8011900AF83
:100E90000117009801140084011300710110006112
:100EA00001100051010E0043010D0036010B002B13
:100EB000010B0020010B00150109000C01090003C2
:100EC000010800FB000800F3000800EB000700E445
:100ED000000600DE000600D8000600D2000600CCA6
:100EE000000500C7000500C2000500BD000400B9F0
:100EF000000400B5000400B1000400AD000400A926
:100F0000000400A5000300A20003009F0004009B52
:100F10000003009800030095000200930003009076
:100F20000003008D0002008B000300880002008691
:100F300000020084000300810002007F0002007DA7
:100F40000002007B000200790002007700010076B9
:100F50000002007400020072000100710002006FC4
:100F60000002006D0001006C0002006A00010069CF
:100F700000020067000100660001006500010064D6
:100F80000002006200010061000100600001005FDA
:100F90000002005D0001005C0001005B0001005ADE
:100FA00000010059000100580001005700010056DF
:100FB00000010055000100540001005300000053DF
:100FC0000001005200010051000100500001004FDB
:100FD0000001004E0000004E0001004D0001004CD9
:100FE0000001004B0000004B0001004A00010049D5
:100FF00000010048000000480001004700010046D1
:1010000000000046000100450000004500010044CA
:1010100000010043000000430001004200000042C4
:101020000001004100000041000100400001003FBC
:101030000000003F0001003E0000003E0001003DB6
:101040000000003D0001003C0000003C0000003CAE
:101050000001003B0000003B0001003A0000003AA4
:10106000000100390000003900010038000000389C
:101070000000003800010037000000370001003692
:101080000000003600000036000100350000003589
:10109000000000350001003400000034000000347E
:1010A0000001003300000033000000330001003273
:1010B0000000003200000032000100310000003169
:1010C000000000310001003000000030000000305E
:1010D0000001002F0000002F0000002F0000002F53
:1010E0000001002E0000002E0000002E0001002D47
:1010F0000000002D0000002D0000002D0001002C3C
:101100000000002C0000002C0000002C0001002B2F
:101110000000002B0000002B0000002B0001002A23
:101120000000002A0000002A0000002A0001002917
:10113000000000290000002900000029000000290B
:1011400000010028000000280000002800000028FE
:1011500000000028000100270000002700000027F1
:1011600000000027000000270001002600000026E4
:1011700000000026000000260000002600010025D7
:1011800000000025000000250000002500000025CB
:1011900000000025000100240000002400000024BD
:1011A00000000024000000240001002300000023B0
:1011B00000000023000000230000002300000023A3
:1011C0000000002300010022000000220000002295
:1011D0000000002200000022000000220001002187
:1011E000000000210000002100000021000000217B
:1011F000000000210000002100010020000000206C
:10120000000000200000002000000020000000205E
:1012100000000020000000200001001F0000001F4F
:101220000000001F0000001F0000001F0000001F42
:101230000000001F0001001E0000001E0000001E34
:101240000000001E00000039300000332500008738
:10125000190000B00F0000DB080000BD040000749E
:101260000200003F0100005452494747455245449F
:10127000006F70656E003A20007A5F6D696E0079CC
:101280005F6D696E00785F6D696E005265706F7298
:1012900074696E6720656E6473746F702073746117
:1012A0007475730A00FFFDFCFAF8F6F4F2F0EEEC48
:1012B000EAE9E7E5E3E1E0DEDCDAD9D7D5D4D2D05C
:1012C000CFCDCBCAC8C7C5C3C2C0BFBDBCBAB9B7F2
:1012D000B6B4B3B2B0AFADACAAA9A8A6A5A4A2A15A
:1012E000A09E9D9C9A99989795949392908F8E8D9D
:1012F0008B8A8988878684838281807F7E7D7B7AC2
:10130000797877767574737271706F6E6D6C6B6AC5
:10131000696867666564636261605F5E5D5C5B5AB5
:101320005958585756555453525150504F4E4D4C92
:101330004B4A4A4948474646454443424241403F5A
:101340003E3E3D3C3B3B3A39383837363535343311
:1013500032323130302F2E2E2D2C2B2B2A292928BA
:10136000272726252524232322212120201F1E1E56
:101370001D1C1C1B1B1A19191818171616151514E5
:10138000131312121111100F0F0E0E0D0D0C0C0B6A
:101390000A0A0909080807070606050504040303E5
:1013A00002020100000000000100000001000080B6
:1013B00000555555000000400033333300AAAA2AD7
:1013C000004992240000002000C7711C009999195F
:1013D00000D1451700555515003BB11300244912A3
:1013E0000011111100000010000F0F0F00E3380E64
:1013F0000043790D00CCCC0C00C3300C00E8A20BEC
:101400000064210B00AAAA0A00703D0A009DD809B9
:1014100000427B090092240900DCD3080088880878
:10142000001042080000000800F0C107008787078D
:101430000075500700711C07003EEB0600A1BC06BA
:10144000006990060066660600703E060061180698
:101450000017F4050074D105005BB00500B29005DB
:1014600000627205005555050078390500B81E0563
:1014700000050505004EEC040087D40400A1BD045E
:101480000090A7040049920400C17D0400EE6904A5
:1014900000C7560400444404005C320400082104E0
:1014A0000041100400000004003FF00300F8E003D6
:1014B0000026D20300C3C30300CCB503003AA8033F
:1014C000000A9B0300388E0300C08103009F750350
:1014D00000D0690300505E03001D5303003448032D
:1014E00000913D03003333030016290300381F0326
:1014F0000097150300300C0300030303000BFA02EE
:101500000049F10200BAE802005CE002002DD802B6
:10151000002DD0020059C80200B0C0020031B9024B
:1015200000DAB10200AAAA0200A0A30200BC9C0239
:1015300000FA9502005C8F0200DF880200828202BE
:1015400000457C02002776020027700200436A02F1
:10155000007C640200D05E02003F590200C85302C2
:101560000070012C0190012701B0012201C0011D72
:1015700001F00118011002130130020E016002098E
:101580000190020401C002FF000003FA004003F5CD
:10159000008003F000D003EB002004E6007004E1BB
:1015A00000E004DC004005D700C005D2004006CDB5
:1015B00000D006C8008007C3003008BE00F008B99C
:1015C00000C009B400B00AAF00B00BAA00D00CA54F
:1015D00000000EA000500F9B00C01096005012910A
:1015E0000000148C00C0158700B0178200B0197D70
:1015F00000D01B7800001E730040206E009022690E
:1016000000F024640040275F0090295A00E02B5529
:1016100000102E500020304B0010324600E03341C5
:101620000090353C001037370070383200A0392D5B
:1016300000B03A2800A03B2300603C1E00103D197A
:1016400000903D1400103E0F00703E0A00C03E05A1
:1016500000003F0000403FFBFF803FF6FFC03FF12E
:10166000FF45340045330045320045310045300028
:101670005A32005932005832005A0059005800209E
:1016800042403A0020403A007D167B1679167616C5
:10169000731670166D166A166716641661167472E4
:1016A00075650066616C7365002074656D706572A8
:1016B0006174757265207072657761726E207472E4
:1016C000696767657265643A2000207072657761AA
:1016D000726E20666C616720636C65617265640A76
:1016E0000000002100240027002A002D00300033D4
:1016F0000001010000040107010A0100000A0B02B9
:10170000090C0D0E08070304010000000000000092
:1017100000000000000000000000000000000000C9
:101720000000000000000012111000000000000086
:1017300000000000000000000000000000000000A9
:1017400000206472697665722063757272656E74CA
:101750003A200020686F6D696E672073656E73694B
:101760007469766974793A20000000000000000076
:101770000000000000000040400000404000004029
:1017800040000000005761726E696E673A20486F32
:101790006D696E672042756D702044697669736F5C
:1017A00072203C20310A0002020400004040000088
:1017B0000000000000400000964200004843000086
:1017C0004843FFFFFF48617264636F6465642044AF
:1017D000656661756C742053657474696E677320F7
:1017E0004C6F616465640A00320000003200000042
:1017F00032000000102700000000A0400000A040C0
:101800000000A0400000C8410000C8440000C844D7
:101810000000C8440000C84420204D393036002064
:10182000286D6D290020204D39313400205A0020C8
:10183000590020580053656E736F726C6573732086
:10184000686F6D696E67207468726573686F6C6429
:101850003A0A00205430204500205A002059002028
:101860005800537465707065722064726976657291
:101870002063757272656E743A0A00204400204934
:101880000020204D333031205000504944207365F2
:101890007474696E67733A0A00205A002059002058
:1018A000204D323036205800486F6D65206F6666D7
:1018B0007365743A0A00204500205A002059002020
:1018C000580020540020530020204D323035205144
:1018D0000020453C6D61785F655F6A65726B3E0014
:1018E00020583C6D61785F785F6A65726B3E205965
:1018F0003C6D61785F795F6A65726B3E205A3C6D22
:1019000061785F7A5F6A65726B3E00416476616EF2
:101910006365643A20513C6D696E5F7365676D6500
:101920006E745F74696D655F75733E20533C6D69BD
:101930006E5F66656564726174653E20543C6D69D6
:101940006E5F74726176656C5F6665656472617402
:10195000653E0020540020520020204D32303420BB
:101960005000416363656C65726174696F6E202815
:10197000756E6974732F7332293A20503C70726906
:101980006E745F616363656C3E20523C7265747275
:101990006163745F616363656C3E20543C74726183
:1019A00076656C5F616363656C3E0A0020450020CC
:1019B0005A0020590020204D3230312058004D610E
:1019C00078696D756D20416363656C6572617469DA
:1019D0006F6E2028756E6974732F7332293A0A006E
:1019E000204500205A0020590020204D323033205D
:1019F00058004D6178696D756D206665656472612A
:101A00007465732028756E6974732F73293A0A0000
:101A1000204500205A0020590020204D39322058FE
:101A20000053746570732070657220756E69743A26
:101A30000A0020204D3230302044300A0020204D52
:101A40003230302044002044697361626C65640A5E
:101A50000046696C616D656E742073657474696E9F
:101A600067733A002020473231202020203B00209D
:101A7000746F6F206C6F6E67206578747275736910
:101A80006F6E2070726576656E7465640A002063FF
:101A90006F6C6420657874727573696F6E207072F4
:101AA0006576656E7465640A006563686F3A006206
:101AB00065640A002C2073797374656D2073746FEC
:101AC0007070656421204865617465725F49443AAD
:101AD000200045312048656174696E672066616940
:101AE0006C65640048656174696E67206661696C45
:101AF0006564004531204572723A204D4158544585
:101B00004D50004572723A204D415854454D502079
:101B1000424544004D415854454D50207472696708
:101B20006765726564004531204572723A204D49FF
:101B30004E54454D50004572723A204D494E544521
:101B40004D5020424544004D494E54454D5020745F
:101B5000726967676572656400202F00556E6B6E51
:101B60006F776E20636F6D6D616E643A20220000A6
:101B70000020002300260029002C002F0032000046
:101B800001000003010601090100002200250028D0
:101B9000002B002E00310034000201000005010876
:101BA000010B0105050505070508080808020202E2
:101BB000020A0A08080404040401010101010101E8
:101BC000010303030303030303040707070C0C0CBF
:101BD0000C0C0C0C0C020202020606060606060697
:101BE000060B0B0B0B0B0B0B0B0102102020080834
:101BF000102040102040800201020108040201016F
:101C00000204081020408080402010080402018057
:101C100004020180402010080402010804020101AE
:101C20000204081020408001020408102040805265
:101C30006573656E643A20006F6B00627573793A64
:101C40002070617573656420666F7220696E7075AF
:101C5000740A00627573793A207061757365642047
:101C6000666F7220757365720A00627573793A2027
:101C700070726F63657373696E670A004B494C4CF1
:101C800045442E20004B494C4C20636175736564BC
:101C900020627920746F6F206D75636820696E61B2
:101CA00063746976652074696D65202D2063757293
:101CB00072656E7420636F6D6D616E643A200050C2
:101CC00072696E7465722068616C7465642E206B35
:101CD000696C6C28292063616C6C6564210A00457D
:101CE00072726F723A00453120544845524D414C52
:101CF0002052554E415741590042454420544845D1
:101D0000524D414C2052554E41574159005468653F
:101D1000726D616C2052756E617761790000177485
:101D200011241FBECFEFD1E2DEBFCDBF00E00CBF5C
:101D300012E0A0E0B2E0E0EBFFEF00E00BBF02C07A
:101D400007900D92AA35B107D9F72FE0AAE5B2E0C6
:101D500001C01D92AA33B207E1F71EE0C0E9DEE040
:101D600000E006C021970109802FFE010E949B7FA1
:101D7000CF38D10780E00807A9F70E94BA6E0C940B
:101D8000D67F0C9400002F923F924F925F926F92F9
:101D90007F928F929F92AF92BF92CF92DF92EF92FB
:101DA000FF920F931F93CF93DF93CDB7DEB7C15848
:101DB000D1090FB6F894DEBF0FBECDBF21E020934E
:101DC000030D8091CB028D3409F4ADC7843511F435
:101DD0000C94DC27873411F00C9418288091C902E8
:101DE0009091CA028430910509F444C544F497FDEA
:101DF00096C7209137028230910524F51EC08A359E
:101E0000910509F4CEC624F44C9709F468C587C738
:101E10008B35910509F4C9C68C35910509F07FC74A
:101E200060E4262E62E0362E73E4C72E75E0D72ECE
:101E3000E12CF12C00E010E0F5C621110C941F28D4
:101E40000C941A28222311F40C941A2811E00297FA
:101E500009F010E00E948F2D82E50E94832D8823D7
:101E600009F42AC10E94092D6B017C014090950262
:101E7000509096026090970270909802809199021B
:101E800090919A02A0919B02B0919C028AA39BA37D
:101E9000ACA3BDA32091500530915105409152054E
:101EA000509153052EA33FA348A759A780915405ED
:101EB00090915505A0915605B09157058AA79BA70B
:101EC000ACA7BDA720E030E0A901C701B6010E9480
:101ED000A678882309F4B4C4A30192016EA17FA15E
:101EE00088A599A50E94A67881110DC02AA13BA1C1
:101EF0004CA15DA16AA57BA58CA59DA50E94A67895
:101F0000882309F49DC420E030E0A901C701B6018F
:101F10000E94A678881F8827881F181309C020E010
:101F200030E040E85FE32AAF3BAF4CAF5DAF08C0A5
:101F300080E090E0A0E8BFEB8AAF9BAFACAFBDAF55
:101F4000A30192016EA17FA188A599A50E94A67CFC
:101F50006AAB7BAB8CAB9DAB2AA13BA14CA15DA135
:101F60006AA57BA58CA59DA50E94A67C6EAB7FABC8
:101F700088AF99AF2AA93BA94CA95DA9CA01B901AB
:101F80000E940B794B015C012EA93FA948AD59ADC8
:101F9000CA01B9010E940B799B01AC01C501B401D2
:101FA0000E94A77C0E94127F6EA77FA788AB99AB87
:101FB00020E030E040E05FE30E940B794B015C01E0
:101FC000A7019601C701B6010E940B796B017C0144
:101FD000A5019401C501B4010E940B799B01AC01DC
:101FE000C701B6010E94A67C0E94127F9B01AC0132
:101FF0006AAD7BAD8CAD9DAD0E940B794B015C0150
:102000002EA13FA148A559A5C301B2010E94A77CFA
:1020100020E030E040E05FE30E940B796B017C013F
:102020006EA97FA988AD99AD90582EA53FA548A966
:1020300059A90E94837D9B01AC01C501B4010E9496
:102040000B799B01AC01C701B6010E94A77CA301DB
:1020500092010E94A67C6B017C012AA53BA54CA5A0
:102060005DA56AA17BA18CA19DA10E94A77C20E017
:1020700030E040E05FE30E940B792B013C012EA58C
:102080003FA548A959A96AA97BA98CA99DA90E9425
:10209000837D9B01AC01C501B4010E940B799B01BA
:1020A000AC01C301B2010E94A77C2AA13BA14CA1B3
:1020B0005DA10E94A67C14C089E40E94832D882320
:1020C00029F00E94092D6B017C0103C0C12CD12C89
:1020D00076018AE40E94832D8823D9F00E94092D7D
:1020E0006AA77BA78CA79DA720E030E0A901C701C4
:1020F000B6010E94A67881111AC020E030E0A90143
:102100006AA57BA58CA59DA50E94A67881110FC00C
:1021100097C320E030E0A901C701B6010E94A6786C
:10212000882309F48DC31AA61BA61CA61DA6A70109
:10213000960150582AA33BA34CA35DA38AA59BA557
:10214000ACA5BDA5B0588EA39FA3A8A7B9A7CA01E7
:10215000B9010E940B794B015C012EA13FA148A55A
:1021600059A5CA01B9010E940B799B01AC01C501B7
:10217000B4010E94A77C0E94127F2A966CAF7DAFAB
:102180008EAF9FAF2A972091950230919602409191
:102190009702509198022EA73FA748AB59ABA701D1
:1021A00096016EA57FA588A999A90E94A77C6AAF10
:1021B0007BAF8CAF9DAF8091990290919A02A091D4
:1021C0009B02B0919C028AAB9BABACABBDAB2AA58A
:1021D0003BA54CA55DA5BC01CD010E94A77C2E9618
:1021E0006CAF7DAF8EAF9FAF2E9720915005309191
:1021F000510540915205509153052EAB3FAB48AF6E
:1022000059AF2AAD3BAD4CAD5DAD6EA97FA988AD90
:1022100099AD0E94A67C6B017C0180915405909140
:102220005505A0915605B091570522968CAF9DAFEC
:10223000AEAFBFAF22972E962CAD3DAD4EAD5FAD8C
:102240002E97BC01CD010E94A67C4B015C01209120
:102250009D0230919E0240919F025091A0022696CD
:102260002CAF3DAF4EAF5FAF269760915805709190
:10227000590580915A0590915B050E94A67C2B011F
:102280003C0180915C0590915D05A0915E05B09147
:102290005F0566968CAF9DAFAEAFBFAF66972091DE
:1022A000A1023091A2024091A3025091A402629631
:1022B0002CAF3DAF4EAF5FAF6297A70196016AA109
:1022C0007BA18CA19DA10E940B796A966CAF7DAF1A
:1022D0008EAF9FAF6A97A50194016EA17FA188A5DB
:1022E00099A50E940B799B01AC016A966CAD7DADFE
:1022F0008EAD9FAD6A970E94A77C6A966CAF7DAF4A
:102300008EAF9FAF6A97A50194016AA17BA18CA1B2
:102310009DA10E940B794B015C01A70196016EA162
:102320007FA188A599A50E940B799B01AC01C501ED
:10233000B4010E94A67C6A962CAD3DAD4EAD5FAD5A
:102340006A970E941A7D6B017C0120E030E0A901B0
:102350000E94A67887FF0AC02BED3FE049EC50E4CD
:10236000C701B6010E94A77C6B017C01112351F0CB
:102370002BED3FE049EC50E4C701B6010E94A67C7A
:102380006B017C0120E030E0A901C701B6010E9489
:10239000A678811122C02EA93FA948AD59AD6EA5DE
:1023A0007FA588A999A90E94A678811116C02296B6
:1023B0002CAD3DAD4EAD5FAD22976AA97BA98CA92E
:1023C0009DA90E94A678811108C0ABEDCA2EAFE08E
:1023D000DA2EA9ECEA2EA0E4FA2EA70196012A969D
:1023E0006CAD7DAD8EAD9FAD2A970E940B794B01F0
:1023F0005C0120E030E0A901C301B2010E94A6788F
:102400008823C9F0A5019401C501B4010E940B798C
:102410004B015C01A3019201C301B2010E940B793F
:102420009B01AC01C501B4010E94A77C0E94127FF0
:102430004B015C010DC020E030E0A901C501B401F1
:102440000E94CD7E87FF04C0B7FAB094B7F8B0946D
:102450002FE632E143E85AE3C501B4010E94A678B1
:1024600087FF02C00C941A28C501B4010E941C7E8B
:102470000E94F07D1B01672B19F422242394312C38
:10248000B10180E090E00E94AA784B015C019B01C1
:10249000AC01C701B6010E94837D6EA77FA788AB00
:1024A00099ABA5019401C301B2010E94837D2A96D4
:1024B0006CAF7DAF8EAF9FAF2A9762962CAD3DADCE
:1024C0004EAD5FAD629766966CAD7DAD8EAD9FAD46
:1024D00066970E94A67CA50194010E94837D669662
:1024E0006CAF7DAF8EAF9FAF66972EA53FA548A975
:1024F00059A9CA01B9010E940B7920E030E040E0FF
:102500005FE30E940B799B01AC0160E070E080E822
:102510009FE30E94A67C22966CAF7DAF8EAF9FAFEB
:10252000229726968CAD9DADAEADBFAD269789871F
:102530009A87AB87BC8762962CAD3DAD4EAD5FAD43
:1025400062972D873E874F87588B60910502709167
:102550000602072E000C880B990B0E94AC78209184
:1025600000023091010240910202509103020E9448
:102570000B792AE037ED43E25CE30E940B796E8F22
:102580007F8F88A399A30E943D479B01AC012853EC
:102590003F4F4F4F5F4F26962CAF3DAF4EAF5FAFD3
:1025A00026974AA05BA06CA07DA041E050E05FAB05
:1025B0004EAB59E15AAB2EA93FA92215330509F4B8
:1025C00018C10E94C8650E943D47DC01CB012696D8
:1025D0002CAD3DAD4EAD5FAD2697821B930BA40B8A
:1025E000B50BB7FD10C00E943D479B01AC012853BD
:1025F0003F4F4F4F5F4F26962CAF3DAF4EAF5FAF73
:1026000026970E94726A3AA931503AAB332309F4F3
:1026100041C022962CAD3DAD4EAD5FAD22976EA16F
:102620007FA188A599A50E940B796B017C012EA53D
:102630003FA548A959A9B201C3010E940B79A7017E
:1026400096010E94A77C7B018C0122962CAD3DADAA
:102650004EAD5FAD2297B201C3010E940B794B01D1
:102660005C012EA53FA548A959A96EA17FA188A507
:1026700099A50E940B799B01AC01C501B4010E9490
:10268000A67C2B013C01C701D8018EA39FA3A8A75C
:10269000B9A751C04EA95FA9BA0180E090E00E949D
:1026A000AA782EA53FA548A959A90E940B794B01EC
:1026B0005C010E94807D6B017C01C501B4010E9418
:1026C000087F4B015C01A70196016AA17BA18CA147
:1026D0009DA10E940B792B013C01A50194016AA5E3
:1026E0007BA58CA59DA50E940B799B01AC01C30124
:1026F000B2010E94A77C2B013C01A50194016AA1B3
:102700007BA18CA19DA10E940B794B015C01A701CB
:1027100096016AA57BA58CA59DA50E940B799B01BE
:10272000AC01C501B4010E94A67C6EA37FA388A75B
:1027300099A759E15AAB9201A3016AAD7BAD8CAD6B
:102740009DAD0E94A77C69837A838B839C832EA195
:102750003FA148A559A52E966CAD7DAD8EAD9FAD20
:102760002E970E94A77C6D837E838F8398872A96FD
:102770002CAD3DAD4EAD5FAD2A9769857A858B85D1
:102780009C850E94A77C69877A878B879C87669641
:102790002CAD3DAD4EAD5FAD66976D857E858F8569
:1027A00098890E94A77C6D877E878F87988B809100
:1027B0000402882321F0CE0101960E945551E09039
:1027C00066021E8A1F8A188E198ECE0146966C01EB
:1027D0008E01025E1F4F9E01235F3F4FAE01475F98
:1027E0005F4FBE016B5F7F4F45970E940D53811174
:1027F00021C0E09066021A8E1B8E1C8E1D8EDE019B
:102800005A966D018E01025E1F4F2CE535E048E5BA
:1028100055E064E575E080E595E00E940D5380E1A8
:10282000E0E5F5E0A5E9B2E001900D928A95E1F7C7
:102830000C941A28EEA9FFA93196FFABEEABBBCEE4
:10284000EFEDFCE184918F010F5F1F4F882321F092
:102850000E940F2EF801F6CFE3E1F2E084918F01A0
:102860000F5F1F4F882311F40C941A280E940F2E1B
:10287000F801F4CF80E50E94832D882329F00E947F
:10288000C92C6B017C0103C0C12CD12C760183E5DE
:102890000E94832D882361F00E94092D20E030E002
:1028A0004AE754E40E940B790E94F07D6B017C01A1
:1028B0000E9470400E943D47C60ED71EE81EF91EBA
:1028C0000E943D47DC01CB018C199D09AE09BF096F
:1028D000B7FD02C00C941A280E94726AF1CF809151
:1028E00088028770873071F48FE40E94832D8823DB
:1028F00019F00E94FA2C03C08FE40E943C2D811134
:102900000C941A280E94704080910002909101025C
:10291000A0910202B091030280936E0290936F0225
:10292000A0937002B093710280910502909106020B
:1029300090936D0280936C0284E690E0909306027F
:102940008093050211E0109387020E949B4488E562
:102950000E943C2D282E89E50E943C2D082F8AE5F7
:102960000E943C2D382E211004C0011104C01827EC
:1029700005C0011102C010E001C0182F80E1E5E997
:10298000F2E0A0E5B5E001900D928A95E1F782E5CD
:102990000E94832D882369F00E94092D6B017C0120
:1029A00020E030E0A9010E94A678882309F4BFC086
:1029B00006C0C12CD12CE0EAEE2EE0E4FE2E11116F
:1029C00005C0211003C0002309F4C2C0C0925805FD
:1029D000D0925905E0925A05F0925B0580909D02D5
:1029E00090909E02A0909F02B090A002A501940139
:1029F000C701B6010E94CD7E18160CF098C08091D8
:102A0000990290919A02A0919B02B0919C028AA394
:102A10009BA3ACA3BDA32091950230919602409157
:102A20009702509198022EA33FA348A759A78091DF
:102A3000000290910102A0910202B09103028AA7C4
:102A40009BA7ACA7BDA7EDE7F7E145905590659032
:102A50007490A7019601C501B4010E94A67887FF72
:102A600012C04092000250920102609202027092E3
:102A70000302C0929D02D0929E02E0929F02F092C9
:102A8000A0020E94772B85E595E5A5E0B3E480934D
:102A9000000290930102A0930202B09303022EA1C0
:102AA0003FA148A559A520939502309396024093E3
:102AB0009702509398028AA19BA1ACA1BDA18093DB
:102AC000990290939A02A0939B02B0939C020E9459
:102AD000772BA701960160919D0270919E028091D3
:102AE0009F029091A0020E94CD7E181694F440920D
:102AF0000002509201026092020270920302C092A0
:102B00009D02D0929E02E0929F02F092A0020E944B
:102B1000772B0E9470402AA53BA54CA55DA520936C
:102B200000023093010240930202509303021111FC
:102B300005C0211003C0011106C00AC080E00E9438
:102B4000E7511123C1F381E00E94E751111102C046
:102B5000332019F082E00E94E7510E94E32B80911C
:102B60008602809387020E949B4480916E0290911E
:102B70006F02A0917002B091710280930002909355
:102B80000102A0930202B093030280916C02909123
:102B90006D0290930602809305020E94AE300C9461
:102BA0001A2810926B020C941A2820936B020C9432
:102BB0001A280E94092D2B013C01133059F0F7010E
:102BC000E65AFD4F20813181428153810E94A67CCB
:102BD0002B013C01F701EB56FD4F208131814281F1
:102BE0005381C301B2010E94A67C4B015C012DEB15
:102BF00037E346E855EB0E94CD7E87FD1BC02DEBE9
:102C000037E346E855E3C501B4010E94A6781816DB
:102C10008CF01F5FB4E0CB0ED11CE4E0EE0EF11C93
:102C2000143039F1D1018D911D010E94832D88232B
:102C300081F3BFCF133051F44092A1025092A2020F
:102C40006092A3027092A40201E0E3CFA501940177
:102C5000F60160817181828193810E94A77CD601F7
:102C60006D937D938D939C931397812F0E94A32B3B
:102C7000D0CF002309F44FC020E030E0A9016091DB
:102C8000A1027091A2028091A3029091A4020E94DD
:102C9000A77C2091FD0B3091FE0B4091FF0B5091D2
:102CA000000C0E940B790E94D87E6093280F7093CD
:102CB000290F80932A0F90932B0F9091060F8091EC
:102CC000070F981719F00E94124025C00E9470400B
:102CD00080916F0081FB992790F981FF05C0809159
:102CE0006F008D7F80936F004091280F5091290FC6
:102CF00060912A0F70912B0F4093230C5093240C5A
:102D00006093250C7093260C992329F080916F0015
:102D1000826080936F000E94AE300C941A280E944B
:102D2000136A0C941A288091C9029091CA028937BB
:102D3000910509F46CC70CF08EC08936910509F431
:102D400041C30CF04BC08D34910509F444C2CCF45E
:102D50008F31910509F433C14CF48131910509F4A7
:102D600028C1429709F48EC50C94D9278B3491055C
:102D700009F418C20CF01AC28A9709F4C3C10C9462
:102D8000D9278435910509F47DC5D4F482359105A0
:102D900009F46FC50CF071C58135910511F00C94E3
:102DA000D9270E94FE630E9483411092D805109299
:102DB000D7051092DA051092D90500E010E042C55F
:102DC0008C35910509F4ACC58836910509F407C224
:102DD0008535910511F00C94D92787C58037910569
:102DE00009F4BCC2B4F48C36910509F4B3C254F4AE
:102DF0008A36910509F4E7C48B36910509F40AC5B2
:102E00000C94D9278E36910509F420C20CF41CC30A
:102E100030C28537910511F40C941A2874F4823766
:102E2000910509F406C60CF4A1C28337910511F08F
:102E30000C94D927E3E8F3E03AC68737910509F403
:102E4000D9C60CF0DBC60091C7021091C80283E01E
:102E5000D12C40E08EC68E32F1E09F0711F40C9425
:102E6000C6220CF04AC08C3C910509F462C7ECF410
:102E70008E3B910509F4A3C454F48C38910509F4F0
:102E800082C48B39910509F4B8C20C94D927893CC6
:102E9000910509F40CC78B3C910509F42BC7883CBC
:102EA000910511F00C94D927BAC68C3D910511F407
:102EB0000C94812184F48E3C910511F40C947E1FB6
:102EC0000CF4AFC7833D910511F00C94D927E9EAC2
:102ED000FAE10C94AF20823E910511F40C94FC2190
:102EE0008D3231E0930711F40C9425228D3D91052C
:102EF00011F00C94D9270C948E21863F41E0940761
:102F000011F40C94922644F58A39A1E09A0709F449
:102F100029C29CF48336E1E09E0711F40C945B26F1
:102F20008039F1E09F0711F40C9472268F329140A2
:102F300011F00C94D9270C941A23843F31E09307A5
:102F400011F40C94752614F00C948C268C3A914054
:102F500009F4F7C70C94D9278F38A3E09A0711F426
:102F60000C94FC269CF48A38E3E09E0711F40C9440
:102F70009F268B38F3E09F0711F40C941A28873FA3
:102F8000914011F40C9495260C94D927823933E0A2
:102F9000930711F40C947A27873E43E0940711F4C9
:102FA0000C94C9278039934011F00C94D9270C94C4
:102FB000112717981698159814980C941A280E949F
:102FC0007C635CE3C52ED12CE12CF12CA70196018A
:102FD0000E946B7C762E672ECA01B901A70196016B
:102FE0000E946B7C6B017C01CA01B90128E130E0D1
:102FF00040E050E00E946B7C4B015C01C9016DE632
:1030000071E00E946B7F8E010F5F1F4F611571058C
:1030100099F06F927F92DF92CF929F928F929F93BF
:103020008F937F936F9381E592E09F938F931F938C
:103030000F930E94777826C0009789F06F927F9255
:10304000DF92CF929F928F929F938F9381E492E031
:103050009F938F931F930F930E94777813C08114CF
:103060009104A104B104B1F06F927F92DF92CF92EC
:103070009F928F9285E392E09F938F931F930F937C
:103080000E9477780FB6F894DEBF0FBECDBFE9EA95
:10309000FAE123C0C114D104E104F10469F06F9294
:1030A0007F92DF92CF928DE292E09F938F931F9356
:1030B0000F930E947778E6CF6F927F9289E292E039
:1030C0009F938F931F930F930E9477780F900F9089
:1030D0000F900F900F900F90DACF84917F013FEF08
:1030E000E31AF30A882321F00E940F2EF701F5CF8F
:1030F000B80185E692E00E94803F8AE00E940F2E90
:103100000C941A2883E50E94832D882311F40C94D3
:103110001A280E94E92CE82E80E50E94832D88233E
:1031200039F00E94E92C182F87FF03C00C941A284D
:103130001DE089E40E94832D882349F00E94FA2C27
:10314000811111C0ECEDF4E08DE28E0F07C089E42F
:103150000E943C2DF5CF31968E1729F094911913CA
:10316000FACF0C943A2961E0812F0E9402466E2D1D
:10317000812F0E94D345F12CB701812F0E943E463A
:10318000163051F0183011F00C941A28F092D8052E
:10319000E092D7050C941A28F092DA05E092D9054E
:1031A0000C941A280E94B0630C941A28809185020E
:1031B000813011F00C941A2882E0809385020E94DD
:1031C0003D4760937D0270937E0280937F029093CF
:1031D00080020C941A280E94E9630C941A2888E64D
:1031E00090E00E94193081110C941A288091F00B04
:1031F00083FF02C00C941A2883E50E94832D882344
:1032000009F10E94092D0E94EB7D20910C02309162
:103210000D022F503109261737070CF4B9017093AE
:1032200038056093370580E00E9475620E94092D81
:1032300020E030E04AEA52E40E94A678181614F022
:103240000E94E9630E94E7730C941A288EE40E949E
:10325000832D882311F40C941A280E94D92C609392
:103260001B0D70931C0D80931D0D90931E0D0C94DF
:103270001A2883E50E943C2D882359F083E50E949B
:10328000832D882319F00E94E92C01C080E08093EF
:10329000F00BE9EAFAE184918F010F5F1F4F882359
:1032A00021F00E940F2EF801F6CFE0E8F2E08491C1
:1032B0008F010F5F1F4F882321F00E940F2EF8010E
:1032C000F6CF8091F00B8823A1F142E7C42E42E0B3
:1032D000D42EE12CF12C20E08091F00B90E00E2C0C
:1032E00002C0959587950A94E2F780FF17C0BB242A
:1032F000B394B20E222319F08CE20E940F2EF60135
:1033000025913491F901849189010F5F1F4F882322
:1033100021F00E940F2E9801F5CF2B2DFFEFEF1A11
:10332000FF0A32E0C30ED11C45E0E416F104A1F619
:103330000CC0ECE7F2E084918F010F5F1F4F8823F0
:1033400021F00E940F2EF801F6CF8AE00E940F2E86
:103350000C941A28109207020C941A2887E892E01D
:103360000E94446A0E94ED2B0C941A2883E50E9467
:10337000832D882369F00E94E92C8D3320F48093FB
:103380003B020C941A288CE380933B020C941A287D
:10339000E9EAFAE184918F010F5F1F4F882321F042
:1033A0000E940F2EF801F6CF40913B0250E060E002
:1033B00070E080E992E00E942D3F8AE00E940F2E8B
:1033C0000C941A2889E690E00E941930811111C0EE
:1033D000E7E9F2E084918F010F5F1F4F882321F00E
:1033E0000E940F2EF801F6CF0E94F84A8AE00E9450
:1033F0000F2E1092030D0C94062B83E50E94832D53
:10340000882311F40C941A280E94E92C182F8D336C
:1034100008F01CE31093100D0E943D476B017C01E6
:10342000212F30E0A8EEB3E00E94977CC60ED71E95
:10343000E81EF91EC0920C0DD0920D0DE0920E0DFB
:10344000F0920F0D0C941A288DE690E00E9419302E
:1034500081110C941A288091F00B83FF02C00C9408
:103460001A2883E50E94832D8AAF811105C082E569
:103470000E94832D882321F10E94092D0E94EB7D5B
:1034800020910C0230910D022F5031092617370779
:103490000CF4B901709338056093370580E00E9401
:1034A00075620E94092D20E030E04AEA52E40E9451
:1034B000A678181614F40C940C290E94E96381E094
:1034C000ED968FAFED970E94E773ED968FADED9778
:1034D000882311F40C941A2881E0809307021EA21D
:1034E0001FA218A619A62E961CAE1DAE1EAE1FAEAC
:1034F0002E971AA21EAE5CE323965FAF23978CE152
:103500002F968FAF2F9796E427969FAF2797C12CC2
:10351000D12C20E8E22E3FEBF32E812C912C54018C
:103520006091370570913805072E000C880B990BB8
:103530000E94AC78162F072F782E692E262F372F52
:10354000482F592FB601C7010E94A6788823D9F0C9
:103550002091DC053091DD054091DE055091DF05BD
:10356000612F702F872D962D0E94A678881F88279F
:10357000881F8AA3AAADAA2351F0882341F0809125
:1035800007020C941A281C2D0D2D7E2C6F2C0E94E6
:103590003D476B017C01DC01CB012E962CAD3DAD8E
:1035A0004EAD5FAD2E97821B930BA40BB50BB7FDF1
:1035B0003DC0D701C60188519C4FAF4FBF4F2E96DB
:1035C0008CAF9DAFAEAFBFAF2E970E94F84AEAE92D
:1035D000F2E084912F019FEF491A590A882321F0C4
:1035E0000E940F2EF201F5CF81149104A104B104C1
:1035F000B9F0D501C401805F984DAF4FBF4FBC01FA
:10360000CD016C197D098E099F0928EE33E040E059
:1036100050E00E946B7CCA01B9010E94553003C082
:103620008FE30E940F2E8AE00E940F2E0E94726A82
:103630000E943D476093040D7093050D8093060D25
:103640009093070DA091DC05AAA7B091DD05BEA758
:10365000E091DE05EAABF091DF05FEAB9D01AF0125
:10366000612F702F872D962D0E94A67C1B012C01A7
:1036700020E030E0A9010E94CD7E87FF04C057FA08
:10368000509457F8509481149104A104B10459F452
:1036900020E030E040E85FE3C201B1010E94A6787B
:1036A00087FF0DC00AC020E030E040E450E4C201D2
:1036B000B1010E94CD7E181614F4460157012AA1CB
:1036C000222309F444C08EA19FA1A8A5B9A5892BE6
:1036D0008A2B8B2B61F0D701C6012EA13FA148A5F3
:1036E00059A5821B930BA40BB50BB7FD30C02AA5BF
:1036F0003EA54AA95EA96EAD23967FAD23972F966E
:103700008FAD2F9727969FAD27970E94A67C20E02C
:1037100030E040EC5FE30E94A67887FD30CFD70110
:10372000C601805A9541AF4FBF4F8EA39FA3A8A754
:10373000B9A79AA59EAFAEA52396AFAF2397BAA916
:103740002F96BFAF2F97EEA92796EFAF27978091BF
:103750000702882309F413CF81149104A104B10452
:1037600029F4C12ED02EE72CF62CDACEF0E1CF1AB8
:10377000F7E2DF0AE108F108C818D908EA08FB08EF
:10378000F7FEFDCEEECF8091F00B83FF02C00C94CC
:103790001A2883E50E94832D882311F40C941A289B
:1037A0000E94092D0E94EB7D6738710514F067E8CF
:1037B00070E070933605609335050C941A280E94CA
:1037C00072310C941A2880E50E94832D882341F0E1
:1037D0000E94E92C182F823010F00C941A2801C096
:1037E00010E083E50E94832D882319F00E94D92CD4
:1037F00002C06FEF70E0E12FF0E06F3F710510F055
:103800006FEF70E0EE0FFF1FE952FA4F7183608394
:103810000C941A2880E50E94832D882341F00E9491
:10382000D92C6230710510F00C941A2802C060E0A7
:1038300070E0660F771FFB01E952FA4F1182108288
:103840000C941A2862E370E080E090E00E94054743
:103850000E94C8650F5F1F4F0331110599F762E39E
:1038600070E080E090E00E9405470E94C8650C94DB
:103870001A2810926A020C941A2881E080936A0236
:103880000C941A2883E50E94832D8823A1F00E94BE
:10389000092D20E030E04AE754E40E940B790E94B1
:1038A000F07D60933C0270933D0280933E029093C2
:1038B0003F020C941A2888E50E943C2D81110C943B
:1038C000102989E50E943C2D81110C9410298AE56C
:1038D0000E943C2D81110C94102985E40E943C2DFE
:1038E00081110C9410290C94372983E50E943C2DFA
:1038F000882311F40C941A280E94092D20E030E04E
:103900004AE754E40E940B790E94F07D6093080D11
:103910007093090D80930A0D90930B0D0C941A2847
:1039200010E4C12E12E0D12E01EFE02E0BE0F02EBC
:1039300010E0D6018D916D010E943C2D882309F481
:103940006DC0133009F063C00E94092D4B015C016A
:1039500020E030E040EA51E40E94A67887FF4EC0A4
:10396000A50194016091FD0B7091FE0B8091FF0BFE
:103970009091000C0E94837D2B013C019B01AC01C6
:1039800060918705709188058091890590918A05DD
:103990000E940B7960938705709388058093890551
:1039A00090938A05A30192016091B7057091B805C3
:1039B0008091B9059091BA050E940B796093B70583
:1039C0007093B8058093B9059093BA0560919705F7
:1039D000709198058091990590919A050E94AA7816
:1039E000A30192010E940B790E94F07D60939705DC
:1039F000709398058093990590939A058092FD0B9A
:103A00009092FE0BA092FF0BB092000C07C00E9498
:103A1000092DF70160837183828393831F5FF4E034
:103A2000EF0EF11C143009F084CF0E9459410C9420
:103A30001A280E94704083E50E94832D882309F490
:103A40006AC90E94D92C6230710509F064C90E94CC
:103A5000376D8BE50E940F2E6091F70C7091F80C7A
:103A60008091F90C9091FA0C42E00E94FE32409154
:103A7000FB0C5091FC0C6091FD0C7091FE0C81EAE6
:103A800092E00E944A3F4091FF0C5091000D6091DE
:103A9000010D7091020D8EE992E00E944A3F8DE582
:103AA0000E940F2E8AE00E940F2E0C941A288491F7
:103AB0008F010F5F1F4F882321F00E940F2EF80106
:103AC000F6CF60E083E793E00E946F3060E08CE621
:103AD00093E00E946F3061E081E693E00E946F30D6
:103AE00061E081E593E00E946F3060E088E493E05C
:103AF0000E946F3061E08EE393E00E946F3060E0DF
:103B000084E393E00E946F3060E08CE293E00E94D7
:103B10006F3060E08EE193E00E946F3060E080E102
:103B200093E00E946F3060E081E093E00E946F308C
:103B300060E083EF92E00E946F3060E08DED92E0F4
:103B40000E946F3060E08CEC92E00E946F3060E089
:103B500087EB92E00E946F3060E084EA92E00E947E
:103B60006F300C941A28D8019C91292F2B7F213477
:103B700019F08150C1F717C011962C912133C9F764
:103B8000913421F0953421F441E002C0DD24D39436
:103B900098012E5F3F4F89012F5F3F4FF8019081C1
:103BA0009032C9F3E6CF442369F0E9EAFAE184915F
:103BB0007F012FEFE21AF20A882321F00E940F2ED4
:103BC000F701F5CFDD2069F0E0E5F4E084917F01B5
:103BD0003FEFE31AF30A882321F00E940F2EF7012A
:103BE000F5CFD8018D918D01882309F4AECB0E94C9
:103BF0000F2EF7CF0E94FC440C941A2881E080938A
:103C00008702809386020E949B440C941A2810928B
:103C10008702109286020E949B440C941A2888EC1A
:103C200090E00E94193081110C941A2884E40E94BB
:103C30003C2D8823C1F10E94092D11E020E030E0E5
:103C4000A9010E94A678811101C010E0109310050F
:103C5000112349F10E94092DE0913005B4E0EB9F5A
:103C6000F0011124EB5EFA4F6083718382839383AA
:103C700020E030E0A9016091150570911605809152
:103C80001705909118050E94A67881110CC080E05C
:103C900090E0A0E4B0E48093150590931605A093FE
:103CA0001705B09318050E94C1410C941A28A9E188
:103CB000EA2EA5E0FA2E00E412E0B4E0DB2ED00EEE
:103CC000F80181918F010E943C2D882351F00E94C0
:103CD000092D0E94F07DD7016D937D938D939C9368
:103CE0001397B4E0EB0EF11CD012EACF0E94A83F6C
:103CF0000C941A28EBEAEE2EE5E0FE2E00E412E02A
:103D0000F4E0DF2ED00EF80181918F010E943C2D4E
:103D1000882341F00E94092DD7016D937D938D93E7
:103D20009C931397B4E0EB0EF11CD012ECCF0C94E3
:103D30001A2883E50E94832D8823A1F00E94092D73
:103D40006093A3057093A4058093A5059093A605A1
:103D500060939F057093A0058093A1059093A205A1
:103D600010E001C011E080E50E94832D882359F006
:103D70000E94092D6093A3057093A4058093A50567
:103D80009093A60510E082E50E94832D882359F0C8
:103D90000E94092D6093A7057093A8058093A9053B
:103DA0009093AA0510E084E50E94832D882361F09A
:103DB0000E94092D60939F057093A0058093A10533
:103DC0009093A2050C941A28112311F40C941A282C
:103DD0004091A3055091A4056091A5057091A60599
:103DE0008AE594E00E944A3F4091A7055091A805BA
:103DF0006091A9057091AA0587E594E00E944A3F69
:103E000040919F055091A0056091A1057091A20578
:103E100084E594E00E944A3F8AE00E940F2E0C94B1
:103E20001A2881E50E943C2D882351F00E94C92C5C
:103E30006093BB057093BC058093BD059093BE0550
:103E400083E50E943C2D882351F00E94092D609348
:103E5000D3057093D4058093D5059093D60584E55A
:103E60000E943C2D882351F00E94092D6093CF05BC
:103E70007093D0058093D1059093D20588E50E9478
:103E80003C2D882351F00E94092D60937B0570938F
:103E90007C0580937D0590937E0589E50E943C2DED
:103EA000882351F00E94092D60937F05709380054F
:103EB00080938105909382058AE50E943C2D88239A
:103EC00051F00E94092D60938305709384058093BF
:103ED00085059093860585E40E943C2D882311F486
:103EE0000C941A280E94092D609387057093880509
:103EF0008093890590938A050C941A2860E4C62E55
:103F000062E0D62E79E8E72E72E0F72E10E0F60197
:103F100081916F010E943C2D882359F00E94092D48
:103F2000D7016D937D938D939C931397812F0E945E
:103F3000A32B1F5FB4E0EB0EF11C133041F70C9480
:103F40008B1680914F05982F917011E0D92ED126B4
:103F500081FB002700F9012782FB882780F91827B9
:103F6000D11002C0002319F0E9EAFAE114C01111DE
:103F7000FBCF59E6852E57E1952E85E992E09BA36C
:103F80008AA3DE0111965D0102EC17E11D01B3E089
:103F9000B00FBEA353C084917F012FEFE21AF20A43
:103FA000882321F00E940F2EF701F5CFE8E7F4E017
:103FB00084917F013FEFE31AF30A882321F00E94E6
:103FC0000F2EF701F5CFDD2069F0E6E7F4E08491EC
:103FD0007F014FEFE41AF40A882321F00E940F2E8C
:103FE000F701F5CF002369F0E4E7F4E084917F0165
:103FF0005FEFE51AF50A882321F00E940F2EF701E2
:10400000F5CF111103C0EAE6F4E00CC0E2E7F4E0FA
:1040100084918F010F5F1F4F8823A9F30E940F2EF9
:10402000F801F6CF84918F010F5F1F4F882311F4A1
:104030000C941A280E940F2EF801F4CFF401659118
:10404000759185919491EAA1FBA1C190D190E190E5
:10405000F190FBA3EAA3A70196010E94A67C2B0185
:104060003C0120E030E040EA51EC0E94CD7E87FD2B
:1040700011C020E030E040EA51E4C301B2010E94E7
:10408000A67818163CF0D1014D925D926D927C920B
:1040900013970EC0F80184911816ACF7F7FAF09454
:1040A000F7F8F094D101CD92DD92ED92FC92139746
:1040B000D101CD90DD90ED90FD901D0120E030E02C
:1040C00040EA51ECC701B6010E94CD7E87FF03C0D4
:1040D000EFEDFCE10BC020E030E040EA51E4C70125
:1040E000B6010E94A6781816C4F4F2CF84918F010D
:1040F0000F5F1F4F882321F00E940F2EF801F6CF8B
:10410000EEE7F4E084918F010F5F1F4F882309F4DD
:1041100091C70E940F2EF801F5CFB4E08B0E911CD1
:104120000F5F1F4FEEA1E01389CF49E8E42E42E074
:10413000F42E10E0F50181919191A191B1915F016F
:10414000F70181939193A193B1937F01812F0E94F5
:10415000A32B1F5F133071F70E94AE306BC78491A1
:104160008F010F5F1F4F882321F00E940F2EF8014F
:10417000F6CF83E50E943C2D882321F00E94FA2C83
:1041800080930402E4ECF4E084918F010F5F1F4FF1
:10419000882321F00E940F2EF801F6CF80910402AF
:1041A000811103C0E0ECF4E002C0ECEBF4E0849198
:1041B0008F010F5F1F4F882321F00E940F2EF801FF
:1041C000F6CFE4EBF4E084918F010F5F1F4F88235B
:1041D00021F00E940F2EF801F6CF40905A02509025
:1041E0005B0260905C0270905D02209160053091EE
:1041F00061054091620550916305C301B2010E94BF
:10420000A77CAB01BC0182EB94E00E944A3F809006
:104210005E0290905F02A0906002B09061022091D7
:104220006405309165054091660550916705C501AB
:10423000B4010E94A77CAB01BC018FEA94E00E940C
:104240004A3FC0906202D0906302E0906402F09016
:104250006502209168053091690540916A05509189
:104260006B05C701B6010E94A77CAB01BC018CEABB
:1042700094E00E944A3FE4EAF4E084918F010F5FEA
:104280001F4F882321F00E940F2EF801F6CF2091B6
:104290002502309126024091270250912802C30145
:1042A000B2010E94A77CAB01BC0182EA94E00E94AB
:1042B0004A3F2091290230912A0240912B025091CD
:1042C0002C02C501B4010E94A77CAB01BC018FE99F
:1042D00094E00E944A3F20912D0230912E0240919D
:1042E0002F0250913002C701B6010E94A77CAB019A
:1042F000BC018CE994E00E944A3F8AE00E940F2EA4
:1043000099C683E50E94832D882309F493C60E94F1
:10431000D92C70930602609305028CC68DED90E057
:104320000E941930811186C683E50E94832D88235F
:10433000D9F10091300510E00E94D92C000F111F17
:10434000F801E95EFD4F718360838091300590E054
:104350008C01000F111F000F111F98012F5C3D4FA2
:104360007901880F991FFC01E95EFD4F6081718121
:10437000072E000C880B990B0E94AC782AE037EDD1
:1043800043E25CE30E940B79F801EF5EFA4F208173
:104390003181428153810E940B79D7016D937D93C6
:1043A0008D939C93139746C6E9EAFAE184918F01B5
:1043B0000F5F1F4F882321F00E940F2EF801F6CFC8
:1043C00085E40E940F2E80913005805D0E940F2EA3
:1043D000E0913005F0E0EE0FFF1FE95EFD4F6081D8
:1043E000718184ED94E00E94673F85E20E940F2E68
:1043F0008AE00E940F2E1EC680E50E943C2D882375
:1044000009F418C60E94D92C6B017C0183E50E9437
:10441000832D882321F00E94D92C8B0102C00FEF3D
:104420001FEFC8010196039708F004C6D7FC02C627
:104430009C2DECEDF4E08DE28E0F2491921709F49F
:1044400019C731968E13F9CF18C785E40E94832DC2
:10445000811110C080E50E943C2D882391F00E94BC
:10446000092D60932B0C70932C0C80932D0C909342
:104470002E0C07C00E94E92C882361F3EFEDFCE1CC
:104480006EC089E40E943C2D882381F00E94092D92
:104490002CEA35EC47E25EE30E940B796093270C2F
:1044A0007093280C8093290C90932A0C84E40E942A
:1044B0003C2D882381F00E94092D2CEA35EC47E23F
:1044C0005EE30E94837D60932F0C7093300C809389
:1044D000310C9093320CE9EAFAE184918F010F5F7D
:1044E0001F4F882321F00E940F2EF801F6CF409134
:1044F0002B0C50912C0C60912D0C70912E0C81E1A5
:1045000095E00E944A3F2CEA35EC47E25EE3609179
:10451000270C7091280C8091290C90912A0C0E94F4
:10452000837DAB01BC018DE095E00E944A3F2CEAFF
:1045300035EC47E25EE360912F0C7091300C809176
:10454000310C9091320C0E940B79AB01BC0189E0D7
:1045500095E00E944A3F8AE00E940F2E6BC584912D
:104560008F010F5F1F4F882321F00E940F2EF8014B
:10457000F6CFE5E1F5E084918F010F5F1F4F8823AF
:1045800009F458C50E940F2EF801F5CF83E50E946B
:104590003C2D182F882371F00E94092D0E94EB7D7D
:1045A000709336026093350221E0672B09F020E01A
:1045B0002093DB0580E50E943C2D882359F0209153
:1045C000350230913602232B11F00E94FA2C809391
:1045D000DB0530C511112EC5E9EAFAE184918F019E
:1045E0000F5F1F4F882321F00E940F2EF801F6CF96
:1045F0008091DB05811103C067E472E002C064E4CE
:1046000072E08CE395E00E94803F609135027091EA
:1046100036028BE295E00E94673FE7E2F5E0849185
:104620008F010F5F1F4F882309F404C50E940F2ECE
:10463000F801F5CF85E40E94832D882321F00E94A4
:10464000D92C7B0102C0E12CF12C83E40E94832D44
:10465000882331F00E94D92CA4966FAFA49704C090
:10466000B5E0A496BFAFA49785E50E94832D88236B
:1046700019F00E94FA2C03C085E50E943C2DE096BB
:104680008FAFE097F7FC07C0812C912CF6E1AF2E9D
:10469000F3E4BF2E06C0812C912CECE8AE2EE2E4B0
:1046A000BE2E83E50E94832D882321F00E94092DD0
:1046B0004B015C01E114F10411F4109230050E94E9
:1046C0003D472B013C01EE2069F0EDEFF6E08491CF
:1046D0008F010F5F1F4F882309F4ACC40E940F2E77
:1046E000F801F5CFC501B4010E94EB7D072E000C47
:1046F000880B990B0E94AC786AA77EA78AAB9EAB09
:1047000060910C0270910D026F507109072E000C20
:10471000880B990B0E94AC789B01AC016AA57EA521
:104720008AA99EA90E94CD7E18166CF4EEEBF6E0E5
:1047300084918F010F5F1F4F882309F47BC40E946F
:104740000F2EF801F5CFE9EEF6E084917F012FEF0F
:10475000E21AF20A882321F00E940F2EF701F5CF0A
:10476000D301C201805E914BAF4FBF4FEC968CAF2F
:104770009DAFAEAFBFAFEC970E94FE638FE7809313
:104780002E0581E080930702AB964CAE5DAE6EAE17
:104790007FAEAB97E4964CAE5DAE6EAE7FAEE49767
:1047A000A7961FAEA797E8961CAE1DAE1EAE1FAE15
:1047B000E8972B961FAE2B9790E49EAFACE1239623
:1047C000AFAF2397B6E42F96BFAF2F9727961FAEB4
:1047D000279763961FAE639767961FAE67976B9692
:1047E0001FAE6B97A3961CAE1DAE1EAE1FAEA39759
:1047F0006F961CAE1DAE1EAE1FAE6F97C12CD12C96
:1048000076012FE730E040E050E02EA33FA348A719
:1048100059A77FE7872E912CA12CB12CAF961CAE07
:104820001DAE1EAE1FAEAF9731E0A6963FAFA69766
:104830001BAE1AAE10E0212C312C00E0A4964FAD37
:10484000A497042E000C550BA5965FAF4EAFA5970D
:1048500080910702882309F4F1C00E943D476AA3B2
:104860007BA38CA39DA38091340C882309F4CAC038
:104870000E945C631091DC052090DD053090DE0520
:104880000091DF05212F322D432D502F27966FAD3C
:10489000279763967FAD639767968FAD67976B9603
:1048A0009FAD6B970E94A67887FF0CC027961FAF1D
:1048B000279763962FAE639767963FAE67976B9681
:1048C0000FAF6B97212F322D432D502F2B966FADAD
:1048D0002B977EAD23968FAD23972F969FAD2F9765
:1048E0000E94CD7E181654F42B961FAF2B972EAE38
:1048F00023963FAE23972F960FAF2F97A6965FADC7
:10490000A6972AA53EA54AA9552309F45CC05EA92D
:10491000612F722D832D902F0E94CD7E18160CF0E2
:1049200071C08AA19BA1ACA1BDA184199509A6095A
:10493000B709C258DF4F88839983AA83BB83CE57B8
:10494000D04088589341A109B109B7FD5BC0D5019A
:10495000C4012EA13FA148A559A5821B930BA40B0E
:10496000B50BB595A7959795879580932E05C25859
:10497000DF4F88819981AA81BB81CE57D040AF9605
:104980008CAF9DAFAEAFBFAFAF979AA527969FAF45
:104990002797AEA56396AFAF6397BAA96796BFAFE7
:1049A0006797EEA96B96EFAF6B972AA13BA14CA13D
:1049B0005DA1AB962CAF3DAF4EAF5FAFAB97A69668
:1049C0001FAEA6971FC05EA9612F722D832D902F59
:1049D0000E94A67887FF16C08AA19BA1ACA1BDA1A9
:1049E000AB962CAD3DAD4EAD5FADAB97821B930B3F
:1049F000A40BB50BAC01BD014858534161097109C5
:104A000077FF63C420E030E040EA51E46AA57EA568
:104A10008AA99EA90E94A77C9B01AC01612F722DDF
:104A2000832D902F0E94CD7E18167CF4EAE4F6E0E8
:104A300084918F010F5F1F4F811103C00E94FE639D
:104A4000F9C20E940F2EF801F3CF8AA19BA1ACA15D
:104A5000BDA1E4962CAD3DAD4EAD5FADE497821B9C
:104A6000930BA40BB50BB7FD90C00E94F84A8AE0E7
:104A70000E940F2E8AA19BA1ACA1BDA18053984F8B
:104A8000AF4FBF4FE4968CAF9DAFAEAFBFAFE497D3
:104A9000A7969FADA79791115DC0E8962CAD3DAD4F
:104AA0004EAD5FADE897612F722D832D902F0E9440
:104AB000CD7E1816D4F520E030E040E050E4612FC0
:104AC000722D832D902F0E94A77CE8966CAF7DAF4E
:104AD0008EAF9FAFE8972AA13BA14CA15DA1205EBC
:104AE000314B4F4F5F4FEC962CAF3DAF4EAF5FAFAA
:104AF000EC9720E030E040EC50E46AA57EA58AA95E
:104B00009EA90E94A67C9B01AC0181E0A7968FAF75
:104B1000A797612F722D832D902F0E94CD7E18169E
:104B2000A4F1A7961FAEA79730C08AA19BA1ACA104
:104B3000BDA1EC962CAD3DAD4EAD5FADEC97821BAB
:104B4000930BA40BB50BB7FD20C049E256E06BE315
:104B500076E018C020E030E040EA51E46AA57EA586
:104B60008AA99EA90E94A67C9B01AC01612F722D8F
:104B7000832D902F0E94A67887FF07C046E056E05D
:104B800069E176E080E00E9430648AA19BA1ACA13B
:104B9000BDA1880F991FAA1FBB1FAB962CAD3DADC1
:104BA0004EAD5FADAB97821B930BA40BB50B841975
:104BB0009509A609B70981389F44A241B10568F05B
:104BC000E8EEF5E084918F010F5F1F4F882309F411
:104BD00035CF0E940F2EF801F5CF4AAD5BADA596FB
:104BE0008EAD9FADA597841795070CF031CEEBE8FD
:104BF000F5E084918F010F5F1F4F882321F00E9401
:104C00000F2EF801F6CFB701A60187E795E00E94C5
:104C10004A3F8AE00E940F2E6F964CAD5DAD6EAD9F
:104C20007FAD6F9783E695E00E944A3F8AE0F7D711
:104C3000A3964CAD5DAD6EAD7FADA3978FE495E0CF
:104C40000E944A3F8AE0EBD7E0969FADE097992318
:104C500009F4F0C1C0922B0CD0922C0CE0922D0CD8
:104C6000F0922E0C2CEA35EC47E25EE36F966CADC9
:104C70007DAD8EAD9FAD6F970E940B796093270C31
:104C80007093280C8093290C90932A0C2CEA35EC15
:104C900047E25EE3A3966CAD7DAD8EAD9FADA3976D
:104CA0000E94837D60932F0C7093300C8093310CA5
:104CB0009093320CBFC1EFEDFCE184918F010F5F47
:104CC0001F4F882319F0ABD7F801F7CFE7E2F7E0E1
:104CD00084918F010F5F1F4F882309F4ABC19FD7C9
:104CE000F801F6CF0E947040A5C1EFEDFCE1849180
:104CF0008F010F5F1F4F882319F091D7F801F7CF6D
:104D0000E6E3F7E084918F010F5F1F4F882309F4DA
:104D100091C185D7F801F6CF0E94E04F80E00E9454
:104D2000024C88C10E94E04F85C183E5A5D6882347
:104D300019F060D691E089270E94024C7BC189E47A
:104D4000E2D6882319F045D6B82E01C0B12C90E4E4
:104D5000892E92E0992E11E000E0D4018D914D0151
:104D6000D2D6882371F125D66B017C0161157105BE
:104D700041F1023081F00330A1F0013031F0B1E0B7
:104D8000BB15F0F08AE89EE019C0E1E0EB15C0F039
:104D900081E19EE013C0F1E0FB1590F088E99DE011
:104DA0000DC08AE893E00E941930811143C18091BF
:104DB0003005811105C0B6018FE19DE00E94326788
:104DC00010E00F5F043049F6112309F433C160E0AD
:104DD0008AE89EE00E94F95261E081E19EE00E9433
:104DE000F95262E088E99DE00E94F95266E08FE1A5
:104DF0009DE00E94F9521EC160918F0E80E00E94DA
:104E0000364A6091160E81E00E94364A60919D0DEF
:104E100082E00E94364A6091240D86E00E94364A64
:104E200009C188E529D6D82E89E526D6E82E8AE557
:104E300023D6F82E85E420D6082FD11007C0E11024
:104E400005C0F11003C011E0182701C010E088E58B
:104E50005AD6882309F4C2C3BCD5112331F010926D
:104E60008F0E80E00E94254A06C08130C1F3DD200C
:104E700011F08A30A1F389E546D6882309F4B1C33D
:104E8000A8D5112331F01092160E81E00E94254A18
:104E900006C08130C1F3EE2011F08A30A1F38AE51B
:104EA00032D6882309F4A0C394D5112331F010928F
:104EB0009D0D82E00E94254A06C08130C1F3FF208B
:104EC00011F08A30A1F385E41ED6882309F48FC33C
:104ED00080D5112331F01092240D86E00E94254ADE
:104EE000A9C08823C1F3002309F4A4C08A3009F0C3
:104EF000A1C0F1CF89E407D6882319F06AD5F82E2E
:104F000001C0F12C80E4C82E82E0D82E11E000E030
:104F1000D6018D916D01B0D5882329F14AD5603C29
:104F20007F4F34F046D56034710524F442D503C078
:104F300060EC01C06FE3013041F0023061F0E1E06C
:104F4000EF1580F08AE89EE00BC0F1E0FF1550F00D
:104F500081E19EE005C021E02F1520F088E99DE069
:104F60000E94B34810E00F5F033091F6112309F45B
:104F700061C060E08AE89EE00E94C95261E081E180
:104F80009EE00E94C95262E088E99DE00E94C952F9
:104F900051C081E08093370283E5B5D5882331F095
:104FA00029D5811147C00E948E6D44C083E564D528
:104FB000F8CF0E94136A3EC0F090C9020E94704070
:104FC000FF2001F1E9EAFAE184918F010F5F1F4FA1
:104FD000882319F024D6F801F7CF84E520D66F2D69
:104FE00070E080E090E04AE0BED780E218D6E9E5C4
:104FF000F7E084918F010F5F1F4F8823D9F00FD600
:10500000F801F7CF10926602E9EAFAE184918F0184
:105010000F5F1F4F882319F002D6F801F7CF60E029
:1050200070E087E497E00E94673F8AE0F8D502C00D
:105030000E94136A1092030D0E94716DE7C26FD532
:1050400080910402882321F080E595E00E9455516B
:105050008091F00B83FDA1C0C0905C05D0905D05F0
:10506000E0905E05F0905F052091A1023091A202D0
:105070004091A3025091A402C701B6010E94A678F4
:10508000882309F48AC06091DC057091DD05809168
:10509000DE059091DF052091DB05211127C00E94DC
:1050A000EB7D209135023091360262177307F4F4DC
:1050B000C092A102D092A202E092A302F092A402B6
:1050C000E9EAFAE184918F010F5F1F4F882319F0FD
:1050D000A6D5F801F7CFE8EFF1E084918F010F5FDB
:1050E0001F4F882319F09BD5F801F7CF80905C05FE
:1050F00090905D05A0905E05B0905F052091A102A3
:105100003091A2024091A3025091A402C501B401C2
:105110000E94A67C6B017C0120E030E0A9010E9486
:10512000CD7E87FF04C0F7FAF094F7F8F094E09191
:10513000660224E0E29FF0011124EF5CFD4F208124
:10514000318142815381C701B6010E940B7920E071
:1051500030E048E453E40E94CD7E1816F4F48092C7
:10516000A1029092A202A092A302B092A402E9EA44
:10517000FAE184918F010F5F1F4F882319F04FD5FB
:10518000F801F7CFE9EDF1E084918F010F5F1F4F38
:10519000882319F044D5F801F7CF6091050270918A
:1051A0000602072E000C880B990B0E94AC78209108
:1051B00000023091010240910202509103020E94CC
:1051C0000B792AE037ED43E25CE30E940B796E8BAA
:1051D0007F8B888F998FE090660219821A821B82DA
:1051E0001C82AE014F5F5F4F6A018E010A5E1F4F46
:1051F0002CE535E048E555E064E575E080E595E0AF
:105200000E940D5380E1E0E5F5E0A5E9B2E00190F0
:105210000D928A95E1F70ECF0E94B0630C945F1A4D
:105220000E94704088E528D4882331F0179A809135
:1052300088028E7F8093880289E51ED4882331F00E
:10524000169A809188028D7F809388028AE514D413
:10525000882331F0159A809188028B7F8093880291
:1052600085E40AD4882309F4E5CE149AE3CE0E949B
:105270008341E0CE0E94CC73DDCE0E947040BC2CF6
:1052800060E08C2D0E9402460F3FBFEF1B0759F4D0
:105290008C2D0E94AB4531E020E0892B09F030E0F5
:1052A000032F122F05C00130110561F000E010E05E
:1052B0008B2D0E94AB458017910709F4BBCE0E944D
:1052C000726AF6CF01E010E0F3CF4AAD5BAD452B3B
:1052D00009F45AC1AF964CAC5DAC6EAC7FACAF97E5
:1052E000480E591E6A1E7B1EAF962CAD3DAD4EADCD
:1052F0005FADAF97281B390B4A0B5B0BCA01B90195
:105300002EA13FA148A559A50E945C7CA301920152
:105310000E947F7FD501C401820F931FA41FB51F78
:1053200084319105A105B105FCF04C015D018C3E75
:105330009105A105B1052CF05BEE852E912CA12CD9
:10534000B12C40E884169104A104B104DCF08EEF86
:1053500090E0A0E0B0E088199909AA09BB098EA3E2
:105360009FA3A8A7B9A712C044E1842E912CA12C19
:10537000B12C24E130E040E050E02EA33FA348A749
:1053800059A704C08EA29FA2A8A6B9A6E6EBF6E094
:1053900084919F012F5F3F4F882379F0ED962FAFC7
:1053A000ED97EE963FAFEE973AD4ED962FADED9791
:1053B000EE963FADEE97F901EBCFC501B40175D67E
:1053C000E1EBF6E084919F012F5F3F4F882379F056
:1053D000ED962FAFED97EE963FAFEE9720D4ED967A
:1053E0002FADED97EE963FADEE97F901EBCF6EA1A5
:1053F0007FA188A599A559D62B964FAD2B975EAD69
:1054000023966FAD23972F967FAD2F978AEA96E06C
:105410000E944A3F27964FAD279763965FAD6397EB
:1054200067966FAD67976B967FAD6B9783EA96E053
:105430000E944A3F4AAD5BAD433051050CF4A4C015
:105440006EA17FA188A599A50E94AC7820E030E0EC
:1054500040E850E40E940B796B017C012B962FAD44
:105460002B973EAD23964FAD23972F965FAD2F9789
:1054700027966FAD279763967FAD639767968FAD3D
:1054800067976B969FAD6B970E94A67C2BED3FE0D4
:1054900049E450E40E940B7920E030E040E05FE313
:1054A0000E940B799B01AC01C701B6010E94837D6C
:1054B0006B017C01C301B2010E94AC782FE632E19E
:1054C00043E85AE30E940B792B013C01B701A60186
:1054D0008DE996E00E944A3FB301A20187E996E078
:1054E0000E944A3F2AE939E949E15FE3C701B60171
:1054F0000E940B796B017C019B01AC010E94A77C8F
:10550000A30192010E94837D6F966CAF7DAF8EAF39
:105510009FAF6F97A3019201C701B6010E940B795B
:1055200020E030E040E05EE30E940B79A3966CAF90
:105530007DAF8EAF9FAFA397E7E8F6E084913F0180
:105540005FEF651A750A882319F069D3F301F6CF66
:10555000B701A60181E896E00E944A3F6F964CADE4
:105560005DAD6EAD7FAD6F978BE796E00E944A3FD1
:10557000A3964CAD5DAD6EAD7FADA39785E796E08C
:105580000E944A3F8AE04BD38EA19FA1A8A5B9A54E
:10559000880D991DAA1DBB1DB595A7959795879553
:1055A00080932E058AAD9BAD01969BAF8AAF9AA5DD
:1055B0002B969FAF2B97AEA5AEAFBAA92396BFAFE0
:1055C0002397EEA92F96EFAF2F974AA05BA06CA070
:1055D0007DA0F1E0A696FFAFA69714CA112351F063
:1055E0003ECC112351F04FCC112351F060CC11234C
:1055F00051F071CCD11033CC3ECCE11044CC4FCC27
:10560000F11055CC60CC011166CC14CDCF57DF4FD3
:105610000FB6F894DEBF0FBECDBFDF91CF911F91C3
:105620000F91FF90EF90DF90CF90BF90AF909F9041
:105630008F907F906F905F904F903F902F90089544
:105640008091F50C9091F60C891759F0E92FF0E054
:10565000EB58F34F80819F5F9F779093F60C90E01B
:1056600008958FEF9FEF0895813039F018F0823060
:1056700039F008958AE89EE005C081E19EE002C00D
:1056800088E99DE00C94AE49FF920F931F93CF934E
:10569000DF93FC0120812B3319F1D0914E04D430DB
:1056A000F8F4F62EBC01C0915F040C2F10E0F0E678
:1056B000CF9FC001112484539D4F0E94C47FF801E5
:1056C000EB55FD4FF082CF5FC43018F4C0935F04F8
:1056D00002C010925F04DF5FD0934E0481E001C0EE
:1056E00080E0DF91CF911F910F91FF900895CF92AD
:1056F000DF92EF920F931F93CF93DF9300D01F920F
:10570000CDB7DEB7E090660219821A821B821C8236
:10571000CE0101966C0100E012E021EA32E04DE991
:1057200052E069E972E085E992E00E940D530F9022
:105730000F900F900F90DF91CF911F910F91EF90ED
:10574000DF90CF9008950F931F93CF93DF9394E052
:10575000899FE00111248E01065A1D4FFE01E75773
:10576000FD4FDE01AD5BBA4F2D913D914D915C91A6
:1057700060817181828193810E94A77CF80160839E
:10578000718382839383FE01EA51F64F859195914F
:10579000A591B491FE01E05AFA4F80839183A283D0
:1057A000B383FE01EE50F64F85919591A591B4918A
:1057B000CB5DDD4F88839983AA83BB83DF91CF9133
:1057C0001F910F91089521EA32E04DE952E069E915
:1057D00072E085E992E00C94804080916F0081FB3B
:1057E000992790F981FF05C080916F008D7F80938C
:1057F0006F008091070F8093060F8093050F8093B1
:10580000040F84E68093030F28EE33E03093020CFC
:105810002093010C992329F080916F00826080937E
:105820006F0081E080930A0C0E9470400E94376DE7
:105830008CE0E7EFFCE0A5E9B2E001900D928A95DB
:10584000E1F7C1CF2F923F924F925F926F927F927A
:105850009F92AF92BF92CF92DF92EF92FF920F93FF
:105860001F93CF93DF93CDB7DEB728970FB6F89489
:10587000DEBF0FBECDBFB82E2A013B01902EA12E58
:105880006901082F10E0F801EE53F84EE491EE2480
:10589000E3941E160CF4E12CFF24F39420E030E096
:1058A000A901C301B2010E94CD7E18160CF0F12CA3
:1058B000FE2419F061E08B2DD7DE000F111F000FC1
:1058C000111FC8018B569D4F1C01FC0110821182D3
:1058D0001282138278DFF1014082518262827382E8
:1058E000E090660220E030E0A901692D7A2DC60122
:1058F0000E94A678811108C0F801EB58F84E459136
:1059000055916591749103C0492D5A2DB6014D836F
:105910005E836F83788719821A821B821C82CE0174
:1059200001966C018E010B5F1F4F21EA32E04DE9B9
:1059300052E069E972E085E992E00E940D530E940D
:105940007040FF2071F080914C04882331F0109258
:105950004C0460E08B2D88DE04C08EEF99E00E943D
:10596000446A28960FB6F894DEBF0FBECDBFDF9114
:10597000CF911F910F91FF90EF90DF90CF90BF904C
:10598000AF909F907F906F905F904F903F902F903F
:10599000089580915D0490915E04009731F04AE093
:1059A00050E060E070E00C94FA7660E070E0CB01CB
:1059B000089580915D0490915E04009731F04AE073
:1059C00050E060E070E00C94D27560E070E0CB01D4
:1059D0000895EFDF97FD0AC0ECDF6F3F7105810589
:1059E000910509F02CF4E5DF862F089580E00895F5
:1059F0008FEF089580915D0490915E04892B31F0C2
:105A0000E8DF91E0811103C090E001C091E0892FAF
:105A100008950F931F93CF9380915D0490915E043E
:105A20000097F1F0FC018F01C1912C2F2F7D89F09F
:105A3000C53411F0C536B9F7F801108260E070E0A6
:105A40000E946C74F801C083562F472F382F292FDE
:105A50000BC060E070E0CF911F910F910C946C74BB
:105A600050E040E030E020E0652F742F832F922F2C
:105A7000CF911F910F91089581548A3108F041C050
:105A8000A82FB0E04091C3025091C4026091C502BA
:105A90007091C60204C076956795579547958A958B
:105AA000D2F740FF2EC0E091730CF091740CA75513
:105AB000BD4F8C918823E9F0E80FF11D808190EDB6
:105AC000980F9A3098F08E3211F481810CC08D328B
:105AD00011F08B3271F4818190ED980F9A3030F093
