:100000000C94510E0C94820E0C94820E0C94820E61
:100010000C94820E0C94820E0C94820E0C94820E20
:100020000C94820E0C94A4230C94F2230C94CB23F6
:100030000C94820E0C94820E0C94820E0C94820E00
:100040000C94820E0C94E84A0C94820E0C94820E4E
:100050000C94820E0C94820E0C9417320C94FB5666
:100060000C94820E0C94B1160C94820E0C94820E99
:100070000C94820E0C94820E0C94820E0C94820EC0
:100080000C94820E0C94820E0C94820E0C94820EB0
:100090000C94820E0C94820E0C94820E0C94820EA0
:1000A0000C94820E0C94820E0C94820E0C94820E90
:1000B0000C94820E0C94820E0C94820E0C94820E80
:1000C0000C94820E0C94820E0C94820E0C94820E70
:1000D0000C94820E0C94820E0C94820E0C94820E60
:1000E0000C94820E78557B556A556E557455B255F1
:1000F0007F55835589558D55915597559B559F55DE
:10010000B255A555A955AD5517561C5621562B5617
:100110003556AE563F5647564F56595663566D564E
:100120007C568656AE5690569A56A456084AD73BE9
:100130003BCE016E84BCBFFDC12F3D6C74319ABDB6
:1001400056833DDA3D00C77F11BED9E4BB4C3E91DA
:100150006BAAAABE000000803F05A84CCDB2D44EC9
:10016000B93836A9020C50B9918688083CA6AAAACB
:100170002ABE000000803F004E414E494E4954596E
:10018000494E46CDCCCC3D0AD7233C17B7D1387762
:10019000CC2B329595E6241FB14F0A000020410078
:1001A00000C84200401C4620BCBE4CCA1B0E5AAEC2
:1001B000C59D74434F4D4D554E49434154494F4E93
:1001C0000044525952554E004552524F5253004925
:1001D0004E464F004543484F0047322F4733206279
:1001E000616420706172616D65746572730A0000EC
:1001F00000A0400000A0400000A04000000000253A
:1002000069730025696D20256973002569682025BB
:10021000696D20256973002569642025696820259A
:10022000696D202569730025697920256964202579
:1002300069682025696D20256973005072696E74A4
:100240002074696D653A2000D401CF01C801C10155
:10025000B3016F66660044454255473A004B494C2E
:100260004C45442E20004D3131332053006F6B003C
:1002700020573A00544845524D414C5F50524F541C
:10028000454354494F4E004155544F5245504F52EB
:10029000545F53445F53544154555300454D4552A8
:1002A00047454E43595F50415253455200434153D5
:1002B000455F4C494748545F4252494748544E4570
:1002C000535300544F47474C455F4C49474854539C
:1002D00000534F4654574152455F504F57455200C7
:1002E0004255494C445F50455243454E54004C459D
:1002F00056454C494E475F44415441005A5F505265
:100300004F4245004155544F4C4556454C005052C4
:10031000494E545F4A4F420050524F475245535343
:10032000004155544F5245504F52545F54454D5023
:1003300000564F4C554D4554524943004545505287
:100340004F4D0053455249414C5F584F4E5F584FF7
:100350004646004649524D574152455F4E414D4534
:100360003A4D61726C696E206275676669782D31ED
:100370002E312E7820284769746875622920534FE2
:10038000555243455F434F44455F55524C3A68745C
:100390007470733A2F2F6769746875622E636F6D7E
:1003A0002F4D61726C696E4669726D776172652F4F
:1003B0004D61726C696E2050524F544F434F4C5FE9
:1003C00056455253494F4E3A312E30204D41434805
:1003D000494E455F545950453A3344205072696E36
:1003E0007465722045585452554445525F434F55E9
:1003F0004E543A3120555549443A6365646532613B
:1004000032662D343161322D343734382D39623132
:10041000322D6335356336326633363766660A0009
:100420002F2F2000205400205200416363656C652B
:10043000726174696F6E3A2050002066697273743D
:100440000A005A0059005800486F6D6520000000EE
:1004500000000000000000000000546F6F20666183
:10046000722066726F6D207265666572656E636577
:1004700020706F696E740A00FFFFFF205A00205938
:1004800000580020204D61783A2000205A00205961
:1004900000580020204D696E3A20004F66660053D8
:1004A0006F667420656E6473746F70733A200020F9
:1004B000466C6F773A2000000125311D0CFFFFFFCD
:1004C0002924301C0BFFFFFF27232F1B0AFFFFFFF0
:1004D000FF43FFFF040806FFFF222B1AFFFF420421
:1004E0003803FF3620643A0020693A0020703A0051
:1004F000496E76616C6964206578747275646572A2
:100500000A0043290A0061626C656420286D696EE7
:100510002074656D702000436F6C64206578747280
:10052000756465732061726520004E6F206361738E
:1005300065206C696768740A00454550524F4D202C
:1005400064697361626C65640A004163746976650D
:100550002045787472756465723A2000496E766140
:100560006C69642065787472756465720A006F6BDB
:1005700000205A3A0020593A0020583A00656E642B
:1005800073746F7073206869743A2000656E7175BA
:10059000657565696E672022004B494C4C45442EB9
:1005A00020005072696E7465722073746F7070658C
:1005B000642064756520746F206572726F72732E8B
:1005C0002046697820746865206572726F722061B8
:1005D0006E6420757365204D39393920746F20722F
:1005E0006573746172742E202854656D7065726134
:1005F000747572652069732072657365742E20535B
:100600006574206974206166746572207265737404
:10061000617274696E67290A004E6F2043686563D2
:100620006B73756D2077697468206C696E65206ED8
:10063000756D6265722C204C617374204C696E6517
:100640003A2000636865636B73756D206D69736D27
:10065000617463682C204C617374204C696E653A38
:1006600020004C696E65204E756D6265722069735D
:10067000206E6F74204C617374204C696E65204E3F
:10068000756D6265722B312C204C617374204C693E
:100690006E653A20004D3131300020496E76616C34
:1006A00069642065787472756465722000000000CA
:1006B0000000000000000000000000A04200004810
:1006C0004300004843486F6D696E67206661696C3E
:1006D0006564002C20002C200050726F74656374D8
:1006E00065642050696E0A00205A3A0020593A0089
:1006F00020436F756E7420583A0020453A00205A06
:100700003A0020593A00583A003A004361703A00E2
:10071000526573656E643A200020746F6F206C6FB1
:100720006E6720657874727573696F6E207072657C
:1007300076656E7465640A0020636F6C642065786A
:1007400074727573696F6E2070726576656E74650C
:10075000640A0024F4D43050C38E20C2A240178211
:100760008B7011127A910D816CD90AA861E108C7CA
:10077000586607615143061E4B5D05C145A7041A23
:10078000411104093D9803713931034036DB02659C
:10079000339102D4305402802E1D02632CEE017579
:1007A0002AC501B028A001102781018F2564012BE3
:1007B000244B01E0223401AC211F018D200D01806A
:1007C0001FFC00841EED00971DDF00B81CD200E660
:1007D0001BC600201BBC00641AB200B219A8000A94
:1007E00019A0006A189900D117910040178B00B525
:1007F00016840031167E00B31579003A157300C7D0
:10080000146F0058146A00EE136600881363002505
:10081000135E00C7125B006C12570015125400C122
:1008200011510070114F0021114B00D61049008D5D
:100830001047004610440002104200C00F400080E4
:100840000F3E00420F3C00060F3B00CB0E380093DA
:100850000E37005C0E3500270E3400F30D3200C158
:100860000D3100900D3000600D2E00320D2D000571
:100870000D2C00D90C2B00AE0C2900850C29005C36
:100880000C2700350C27000E0C2600E80B2400C4B2
:100890000B2400A00B23007D0B23005A0B210039F1
:1008A0000B2100180B2000F80A1F00D90A1E00BBFC
:1008B0000A1E009D0A1D00800A1D00630A1C0047D5
:1008C0000A1B002C0A1B00110A1A00F7091A00DD86
:1008D000091900C4091900AB091900920917007B16
:1008E000091800630917004C091600360916002084
:1008F0000916000A091500F5081500E0081400CCD7
:10090000081400B8081400A4081400900813007D0F
:100910000812006B08130058081200460812003431
:10092000081100230811001208110001081100F03D
:10093000071000E0071000D0071000C0071000B03B
:10094000070F00A107100091070E0083070F007426
:10095000070F0065070E0057070E0049070E003B02
:10096000070D002E070E0020070D0013070D0006CF
:10097000070D00F9060C00ED060D00E0060C00D492
:10098000060C00C8060C00BC060C00B0060C00A447
:10099000060B0099060C008D060B0082060B0077F3
:1009A000060B006C060B0061060A0057060B004C94
:1009B000060A0042060A0038060A002E060A00242B
:1009C000060A001A060A001006090007060A00FDBA
:1009D000050900F4050900EB050900E2050900D945
:1009E000050900D0050900C7050900BE050900B5C5
:1009F000050800AD050800A50509009C0508009440
:100A00000508008C050800840508007C05080074B2
:100A10000508006C050700650508005D0507005620
:100A20000508004E05070047050700400508003887
:100A3000050700310507002A050700230507001CEC
:100A4000050600160507000F050700080506000249
:100A5000050700FB040600F5040700EE040600E8A5
:100A6000040600E2040700DB040600D5040600CFFC
:100A7000040600C9040600C3040600BD040600B74E
:100A8000040600B1040500AC040600A6040600A09C
:100A90000405009B04060095040500900406008AE6
:100AA00004050085040500800406007A040500752D
:100AB000040500700405006B040500660405006170
:100AC0000405005C04050057040500520405004DB0
:100AD00004050048040500430405003E0404003AF0
:100AE00004050035040500300404002C040500272B
:100AF000040400230405001E0404001A0404001664
:100B0000040500110404000D040400090405000498
:100B100004040000040400FC030400F8030400F4CF
:100B2000030400F0030400EC030400E8030400E401
:100B3000030400E0030400DC030400D8030400D431
:100B4000030400D0030400CC030400C8030300C561
:100B500003030024F404D9201BC40C5C0E9804C4C5
:100B6000095F0265077101F405F900FB04B3004851
:100B7000048700C10369005803550003034500BE04
:100B8000023A008402310053022A0029022500049F
:100B9000022000E4011C00C8011900AF01170098F1
:100BA0000114008401130071011000610110005153
:100BB000010E0043010D0036010B002B010B00203C
:100BC000010B00150109000C01090003010800FBDD
:100BD000000800F3000800EB000700E4000600DE58
:100BE000000600D8000600D2000600CC000500C7B1
:100BF000000500C2000500BD000400B9000400B5F6
:100C0000000400B1000400AD000400A9000400A528
:100C1000000300A20003009F0004009B0003009853
:100C20000003009500020093000300900003008D74
:100C30000002008B0003008800020086000200848E
:100C4000000300810002007F0002007D0002007BA3
:100C500000020079000200770001007600020074B3
:100C600000020072000100710002006F0002006DBE
:100C70000001006C0002006A0001006900020067C8
:100C800000010066000100650001006400020062CE
:100C900000010061000100600001005F0002005DD2
:100CA0000001005C0001005B0001005A00010059D6
:100CB00000010058000100570001005600010055D6
:100CC00000010054000100530000005300010052D5
:100CD00000010051000100500001004F0001004ED2
:100CE0000000004E0001004D0001004C0001004BCF
:100CF0000000004B0001004A0001004900010048CB
:100D000000000048000100470001004600000046C6
:100D100000010045000000450001004400010043BF
:100D200000000043000100420000004200010041B9
:100D300000000041000100400001003F0000003FB2
:100D40000001003E0000003E0001003D0000003DAB
:100D50000001003C0000003C0000003C0001003BA2
:100D60000000003B0001003A0000003A0001003999
:100D70000000003900010038000000380000003891
:100D80000001003700000037000100360000003687
:100D9000000000360001003500000035000000357D
:100DA0000001003400000034000000340001003372
:100DB0000000003300000033000100320000003268
:100DC000000000320001003100000031000000315D
:100DD0000001003000000030000000300001002F52
:100DE0000000002F0000002F0000002F0001002E47
:100DF0000000002E0000002E0001002D0000002D3C
:100E00000000002D0000002D0001002C0000002C2F
:100E10000000002C0000002C0001002B0000002B23
:100E20000000002B0000002B0001002A0000002A17
:100E30000000002A0000002A00010029000000290B
:100E400000000029000000290000002900010028FE
:100E500000000028000000280000002800000028F2
:100E600000010027000000270000002700000027E5
:100E700000000027000100260000002600000026D8
:100E800000000026000000260001002500000025CB
:100E900000000025000000250000002500000025BE
:100EA00000010024000000240000002400000024B1
:100EB00000000024000100230000002300000023A4
:100EC0000000002300000023000000230000002396
:100ED0000001002200000022000000220000002289
:100EE000000000220000002200010021000000217B
:100EF000000000210000002100000021000000216E
:100F0000000000210001002000000020000000205F
:100F10000000002000000020000000200000002051
:100F2000000000200001001F0000001F0000001F43
:100F30000000001F0000001F0000001F0000001F35
:100F40000001001E0000001E0000001E0000001E28
:100F5000000000393000003325000087190000B080
:100F60000F0000DB080000BD040000740200003F19
:100F700001000048617264636F64656420446566C3
:100F800061756C742053657474696E6773204C6F5F
:100F9000616465640A003200000032000000320023
:100FA000000032000000000020410000204100004D
:100FB0002041000020410000484400004844000057
:100FC00048440000484420204D3930360020286D28
:100FD0006D2900205430204500205A00205900205F
:100FE000580053746570706572206472697665721A
:100FF0002063757272656E743A0A002044002049BD
:101000000020204D3330312050005049442073657A
:101010007474696E67733A0A00205A0020590020E0
:10102000204D323036205800486F6D65206F66665F
:101030007365743A0A00204500205A0020590020A8
:10104000580020540020530020204D3230352051CC
:101050000020453C6D61785F655F6A65726B3E009C
:1010600020583C6D61785F785F6A65726B3E2059ED
:101070003C6D61785F795F6A65726B3E205A3C6DAA
:1010800061785F7A5F6A65726B3E00416476616E7B
:101090006365643A20513C6D696E5F7365676D6589
:1010A0006E745F74696D655F75733E20533C6D6946
:1010B0006E5F66656564726174653E20543C6D695F
:1010C0006E5F74726176656C5F666565647261748B
:1010D000653E0020540020520020204D3230342044
:1010E0005000416363656C65726174696F6E20289E
:1010F000756E6974732F7332293A20503C7072698F
:101100006E745F616363656C3E20523C72657472FD
:101110006163745F616363656C3E20543C7472610B
:1011200076656C5F616363656C3E0A002045002054
:101130005A0020590020204D3230312058004D6196
:1011400078696D756D20416363656C657261746962
:101150006F6E2028756E6974732F7332293A0A00F6
:10116000204500205A0020590020204D32303320E5
:1011700058004D6178696D756D20666565647261B2
:101180007465732028756E6974732F73293A0A0089
:10119000204500205A0020590020204D3932205887
:1011A0000053746570732070657220756E69743AAF
:1011B0000A0020204D3230302044300A0020204DDB
:1011C0003230302044002044697361626C65640AE7
:1011D0000046696C616D656E742073657474696E28
:1011E00067733A002020473231202020203B0054F2
:1011F0005249474745524544006F70656E003A209A
:10120000007A5F6D696E00795F6D696E00785F6D61
:10121000696E005265706F7274696E6720656E64E6
:1012200073746F70207374617475730A000000002A
:1012300001000000010000800055555500000040ED
:101240000033333300AAAA2A004992240000002068
:1012500000C7711C0099991900D145170055551503
:10126000003BB113002449120011111100000010BD
:10127000000F0F0F00E3380E0043790D00CCCC0CAB
:1012800000C3300C00E8A20B0064210B00AAAA0ADC
:1012900000703D0A009DD80900427B090092240994
:1012A00000DCD3080088880800104208000000080D
:1012B00000F0C107008787070075500700711C0701
:1012C000003EEB0600A1BC060069900600666606BB
:1012D00000703E06006118060017F4050074D10581
:1012E000005BB00500B2900500627205005555051F
:1012F0000078390500B81E0500050505004EEC0410
:101300000087D40400A1BD040090A7040049920402
:1013100000C17D0400EE690400C756040044440483
:10132000005C3204000821040041100400000004A5
:10133000003FF00300F8E0030026D20300C3C3031C
:1013400000CCB503003AA803000A9B0300388E03C3
:1013500000C08103009F750300D0690300505E0345
:10136000001D53030034480300913D030033330351
:101370000016290300381F030097150300300C03E3
:1013800000030303000BFA020049F10200BAE8026D
:10139000005CE002002DD802002DD0020059C802E6
:1013A00000B0C0020031B90200DAB10200AAAA02FC
:1013B00000A0A30200BC9C0200FA9502005C8F0210
:1013C00000DF88020082820200457C02002776024C
:1013D0000027700200436A02007C640200D05E02B3
:1013E000003F590200C8530200627573793A2070B9
:1013F000617573656420666F7220696E7075740A1A
:1014000000627573793A2070617573656420666F48
:101410007220757365720A00627573793A20707272
:101420006F63657373696E670A004B494C4C4544A2
:101430002E20004B494C4C2063617573656420621B
:101440007920746F6F206D75636820696E616374B5
:101450006976652074696D65202D206375727265EB
:101460006E7420636F6D6D616E643A200050726916
:101470006E7465722068616C7465642E206B696C93
:101480006C28292063616C6C6564210A002020505F
:101490006C616E6E657242756666657242797465DE
:1014A000733A20002046726565204D656D6F727934
:1014B0003A2000436F6D70696C65643A2041707228
:1014C00020313920323031390A00207C20417574B6
:1014D000686F723A20323031392D30332D31313B43
:1014E00020566F6C756D6574726963204C756D65FF
:1014F0006E20776974682045696E737920616E6427
:10150000204947555320616E64204241524943555A
:101510004441206669726D77617265204F4E0A0002
:10152000323031382D30372D333100204C61737417
:1015300020557064617465643A200062756766695D
:10154000782D312E312E780A004D61726C696E0053
:1015500020536F6674776172652052657365740AF3
:1015600000205761746368646F6720526573657407
:101570000A002042726F776E206F75742052657377
:1015800065740A002045787465726E616C2052653E
:101590007365740A00506F77657255700A00737432
:1015A0006172740A002064726976657220637572D4
:1015B00072656E743A20005761726E696E673A20E8
:1015C000486F6D696E672042756D70204469766959
:1015D000736F72203C20310A000202040000803F39
:1015E00000000000000000400000A042000048434E
:1015F0000000484370012C0190012701B001220135
:10160000C0011D01F00118011002130130020E018A
:101610006002090190020401C002FF000003FA0009
:101620004003F5008003F000D003EB002004E60047
:101630007004E100E004DC004005D700C005D200E2
:101640004006CD00D006C8008007C3003008BE00A9
:10165000F008B900C009B400B00AAF00B00BAA008E
:10166000D00CA500000EA000500F9B00C0109600EB
:101670005012910000148C00C0158700B017820032
:10168000B0197D00D01B7800001E730040206E0052
:1016900090226900F024640040275F0090295A00DE
:1016A000E02B5500102E500020304B001032460029
:1016B000E033410090353C0010373700703832007D
:1016C000A0392D00B03A2800A03B2300603C1E004A
:1016D000103D1900903D1400103E0F00703E0A00AE
:1016E000C03E0500003F0000403FFBFF803FF6FF8B
:1016F000C03FF1FF4534004533004532004531001D
:101700004530005A32005932005832005A00590010
:1017100058006265640A002C2073797374656D202B
:1017200073746F7070656421204865617465725FC1
:1017300049443A2000453120544845524D414C20FF
:1017400052554E4157415900546865726D616C2085
:1017500052756E6177617900453120486561746921
:101760006E67206661696C65640048656174696EC6
:1017700067206661696C6564004531204572723A84
:10178000204D415854454D50004D415854454D5001
:10179000207472696767657265640045312045721F
:1017A000723A204D494E54454D50004D494E5445D6
:1017B0004D502074726967676572656400202F0060
:1017C00020403A0010170E170C17091706170317B9
:1017D0000017FD16FA16F716F41674727565006692
:1017E000616C7365002074656D70657261747572EB
:1017F00065207072657761726E20747269676765C3
:101800007265643A2000207072657761726E20669E
:101810006C616720636C65617265640A0020746F97
:101820006F206C6F6E6720657874727573696F6E68
:101830002070726576656E7465640A0020636F6C53
:101840006420657874727573696F6E207072657646
:10185000656E7465640A006563686F3A0000000A8B
:101860000B02090C0D0E0807030401000000000024
:101870000000000000000000000000000000000068
:101880000000000000000000001211100000000025
:101890000000000000000000000000000000000048
:1018A0000000000000000000000000000000000038
:1018B000000000556E6B6E6F776E20636F6D6D610B
:1018C0006E643A2022000000200023002600290038
:1018D0002C002F0032000001000003010601090165
:1018E00000002200250028002B002E0031003400CB
:1018F00002010000050108010B01050505050705AA
:1019000008080808020202020A0A0808040404047B
:1019100001010101010101010303030303030303A7
:10192000040707070C0C0C0C0C0C0C0C0202020236
:1019300006060606060606060B0B0B0B0B0B0B0B1F
:1019400007070A0A0A0A0A0A050505040404080822
:1019500001021020200808102040102040800201C1
:1019600002010804020101020408102040808040A6
:1019700020100804020180040201804020100804A5
:101980000201080402010102040810204080010243
:1019900004081020408010080408801020400440F3
:1019A000801020400480FFFDFCFAF8F6F4F2F0EE1F
:1019B000ECEAE9E7E5E3E1E0DEDCDAD9D7D5D4D239
:1019C000D0CFCDCBCAC8C7C5C3C2C0BFBDBCBAB9D2
:1019D000B7B6B4B3B2B0AFADACAAA9A8A6A5A4A23D
:1019E000A1A09E9D9C9A99989795949392908F8E82
:1019F0008D8B8A8988878684838281807F7E7D7BA8
:101A00007A797877767574737271706F6E6D6C6BAE
:101A10006A696867666564636261605F5E5D5C5B9E
:101A20005A5958585756555453525150504F4E4D7D
:101A30004C4B4A4A49484746464544434242414046
:101A40003F3E3E3D3C3B3B3A3938383736353534FE
:101A50003332323130302F2E2E2D2C2B2B2A2929A8
:101A600028272726252524232322212120201F1E45
:101A70001E1D1C1C1B1B1A191918181716161515D4
:101A800014131312121111100F0F0E0E0D0D0C0C5A
:101A90000B0A0A09090808070706060505040403D6
:101AA00003020201000023646566696E65204445F7
:101AB0004641554C545F4B64200023646566696E53
:101AC000652044454641554C545F4B6920002364D2
:101AD0006566696E652044454641554C545F4B70C0
:101AE0002000504944204175746F74756E652066FE
:101AF000696E697368656421205075742074686527
:101B0000206C617374204B702C204B6920616E64D3
:101B1000204B6420636F6E7374616E747320667201
:101B20006F6D2062656C6F7720696E746F20436FF4
:101B30006E66696775726174696F6E2E680A00500F
:101B40004944204175746F74756E65206661696CD7
:101B50006564212074696D656F75740A00453120D4
:101B6000544845524D414C2052554E415741590021
:101B7000546865726D616C2052756E617761790091
:101B800045312048656174696E67206661696C65DE
:101B9000640048656174696E67206661696C65649C
:101BA00000504944204175746F74756E65206661FC
:101BB000696C6564212054656D706572617475721D
:101BC0006520746F6F20686967680A00204B643A6B
:101BD0002000204B693A2000204B703A20000A2058
:101BE000436C617373696320504944200A00205498
:101BF000753A2000204B753A2000206D61783A201C
:101C000000206D696E3A200020643A20002062694D
:101C100061733A2000504944204175746F74756EA9
:101C200065206661696C6564212054656D7065721C
:101C3000617475726520746F6F20686967680A0047
:101C4000504944204175746F74756E6520737461DA
:101C500072740A00504944204175746F74756E6542
:101C6000206661696C656421204261642065787436
:101C70007275646572206E756D6265720A0000008F
:101C80002100240027002A002D003000330001012C
:101C90000000040107010A014572726F723A0000E8
:101CA000316D11241FBECFEFD1E2DEBFCDBF00E00A
:101CB0000CBF12E0A0E0B2E0ECE8F1EF00E00BBFF7
:101CC00002C007900D92A835B107D9F72FE0A8E51B
:101CD000B2E001C01D92A931B207E1F71EE0C1E5F3
:101CE000DEE000E006C021970109802FFE010E947E
:101CF0008978C035D10780E00807A9F70E94775797
:101D00000C94C4780C940000809184059091850512
:101D1000981759F0E92FF0E0EC5FFA4F80819F5F50
:101D20009F779093850590E008958FEF9FEF08953A
:101D3000CF93DF9380E00E946B4FC6E8D5E06883C5
:101D400079838A839B8381E00E946B4F6C837D83C0
:101D50008E839F8382E00E946B4F688779878A8792
:101D60009B87DF91CF910895FF920F931F93CF939D
:101D7000DF93FC0120812B3319F1D0918204D43000
:101D8000F8F4F62EBC01C0919E040C2F10E0F0E692
:101D9000CF9FC001112480509D4F0E94B278F8015E
:101DA000EA50FD4FF082CF5FC43018F4C0939E0418
:101DB00002C010929E04DF5FD093820481E001C0D4
:101DC00080E0DF91CF911F910F91FF900895CF9206
:101DD000DF92EF920F931F93CF93DF9300D01F9268
:101DE000CDB7DEB7E090CB0C19821A821B821C8221
:101DF000CE0101966C010BE212E028ED3CE044EDCF
:101E00005CE060ED7CE08CEC9CE00E941D360F9065
:101E10000F900F900F90DF91CF911F910F91EF9046
:101E2000DF90CF9008950F931F93CF93DF9394E0AB
:101E3000899FE00111248E0103531D4FFE01EF53D2
:101E4000FD4FDE01AA57BD4F2D913D914D915C9103
:101E500060817181828193810E949575F801608310
:101E6000718382839383FE01E355F94F85919591A8
:101E7000A591B491FE01E752FD4F80839183A28327
:101E8000B383FE01E754F94F85919591A591B491E3
:101E9000CB5FDD4F88839983AA83BB83DF91CF918A
:101EA0001F910F91089528ED3CE044ED5CE060ED5A
:101EB0007CE08CEC9CE00C94694E80916F00982F34
:101EC000927081FF05C080916F008D7F80936F00BD
:101ED0008091EE0E8093ED0E8093EC0E8093EB0ECE
:101EE00084E68093EA0E28EE33E03093B20C209320
:101EF000B10C992329F080916F00826080936F006C
:101F000081E08093E20C0E94594E12DF8CE0E6E8FB
:101F1000F5E0ACECBCE001900D928A95E1F7C3CFFF
:101F20002F923F924F925F926F927F929F92AF92C9
:101F3000BF92CF92DF92EF92FF920F931F93CF93B6
:101F4000DF93CDB7DEB728970FB6F894DEBF0FBE8C
:101F5000CDBF1A012B01922EF32EC82ED12CF601E3
:101F6000E858FB4FE491AA24A3941E160CF4A12C6C
:101F7000BB24B39420E030E0A901C201B1010E946A
:101F8000BB7718160CF0B12CCC0CDD1CCC0CDD1C76
:101F9000C6018453934F3C01FC01108211821282CE
:101FA000138281DFF3012082318242825382E090EA
:101FB000CB0C20E030E0A901B801892D9F2D0E94B3
:101FC000817181110AC0F601E151FE4F8591959111
:101FD000A591B4918C019A2EFB2EC801A92DBF2D7D
:101FE0008D839E83AF83B88719821A821B821C82DD
:101FF000CE0101966C018E010B5F1F4F28ED3CE076
:1020000044ED5CE060ED7CE08CEC9CE00E941D36D1
:102010000E94594EAB1459F080918004882319F026
:102020001092800404C085EC96E00E946F2C2896E4
:102030000FB6F894DEBF0FBECDBFDF91CF911F91D9
:102040000F91FF90EF90DF90CF90BF90AF909F9057
:102050007F906F905F904F903F902F900895809168
:10206000BE029091BF02009731F04AE050E060E07C
:1020700070E00C94D56E60E070E0CB010895EFDF66
:1020800097FD0AC0ECDF6F3F71058105910509F0EE
:102090002CF4E5DF862F089580E008958FEF0895F2
:1020A0008091BE029091BF02892B31F0E8DF91E070
:1020B000811103C090E001C091E0892F08950F9332
:1020C0001F93CF938091BE029091BF02009711F1B0
:1020D000FC018F01C1912C2F2F7DA9F0C53411F087
:1020E000C536B9F7F801108260E070E08091BE0259
:1020F0009091BF020E94826DF801C083562F472F36
:10210000382F292F0BC060E070E0CF911F910F9105
:102110000C94826D50E040E030E020E0652F742F99
:10212000832F922FCF911F910F91089581548A315F
:1021300008F042C0E82FF0E0409172025091730223
:10214000609174027091750204C0769567955795F9
:1021500047958A95D2F7842F817040FF2FC0E85AA7
:10216000FD4F9081992309F1E091B90CF091BA0CDF
:10217000E90FF11D908120ED290F2A3098F09E3251
:1021800011F491810CC09D3211F09B3271F4918158
:1021900020ED290F2A3030F09E3239F4928190538D
:1021A0009A3018F42E2F9F2F02C020E090E0209349
:1021B000BE029093BF02089580E008950895B6DFAF
:1021C000882341F081E02091BE023091BF02232B91
:1021D00009F480E008959F92AF92BF92CF92DF9270
:1021E000EF92FF920F931F93CF93DF938DE3A82E6F
:1021F00082E0B82E0BEB1CE0CCECDCE09DECC92EB1
:1022000092E0D92E2AEFE22E22E0F22E912CF50157
:1022100081915F018BDF882301F151DFF70120817C
:10222000211104C02091FE02222339F02881398136
:102230004A815B810E9495750AC0F3E09F1639F0D0
:10224000F60120813181428153810E949475F80109
:10225000608371838283938309C088819981AA8175
:10226000BB81F80180839183A283B38393940C5F35
:102270001F4F2496F4E0CF0ED11C2FEFE21AF20A82
:1022800084E09812C4CF86E49ADF8823B9F017DF80
:1022900020E030E0A9010E94BB7718167CF40FDF24
:1022A00020E030E040E752E40E94717660932B0218
:1022B00070932C0280932D0290932E02DF91CF9188
:1022C0001F910F91FF90EF90DF90CF90BF90AF9054
:1022D0009F9008959091C00095FFFCCF8093C60019
:1022E00008958F929F92AF92BF92CF92DF92EF921A
:1022F000FF920F931F93CF93DF93CDB7DEB728974D
:102300000FB6F894DEBF0FBECDBF8091A00C83FD49
:10231000A1C0C090C70CD090C80CE090C90CF09040
:10232000CA0C2091D80C3091D90C4091DA0C509104
:10233000DB0CC701B6010E948171882309F48AC0B1
:1023400080918B0681112FC060918C0670918D0653
:1023500080918E0690918F060E94D9762091290255
:1023600030912A0262177307F4F4C092D80CD0920D
:10237000D90CE092DA0CF092DB0CE7E5F8E18491FD
:102380008F010F5F1F4F882319F0A4DFF801F7CFEB
:10239000E8E3F7E084918F010F5F1F4F882319F066
:1023A00099DFF801F7CF8090C70C9090C80CA090EF
:1023B000C90CB090CA0C2091D80C3091D90C409126
:1023C000DA0C5091DB0CC501B4010E9494756B01CD
:1023D0007C0120E030E0A9010E94BB7787FF04C0A8
:1023E000F7FAF094F7F8F094E091CB0C84E0E89FD2
:1023F000F0011124EB5DFD4F208131814281538139
:10240000C701B6010E94E67120E030E048E453E4E1
:102410000E94BB771816F4F48092D80C9092D90CD5
:10242000A092DA0CB092DB0CE7E5F8E184918F0121
:102430000F5F1F4F882319F04DDFF801F7CFE9E157
:10244000F7E084918F010F5F1F4F882319F042DF5F
:10245000F801F7CF60912F0270913002072E000C27
:10246000880B990B0E94877120912B0230912C02CE
:1024700040912D0250912E020E94E6712AE037ED24
:1024800043E25CE30E94E6716D837E838F839887CD
:10249000E090CB0C19821A821B821C82CE0101961D
:1024A0006C018E010B5F1F4F27EC3CE043EC5CE0BE
:1024B0006FEB7CE08BEB9CE00E941D3680E1EBEB48
:1024C000FCE0ACECBCE001900D928A95E1F7289617
:1024D0000FB6F894DEBF0FBECDBFDF91CF911F9135
:1024E0000F91FF90EF90DF90CF90BF90AF909F90B3
:1024F0008F900895CF93DF93E8E9FCE18491EF0199
:102500002196882319F0E6DEFE01F8CFE9EDF6E02A
:102510008491EF012196882319F0DCDEFE01F8CFCB
:10252000DF91CF910895CF92DF92EF92FF920F93B8
:102530001F93CF93DF9380918204843008F01BC1F6
:10254000E3DBAC0197FD17C1982F2091000D30916E
:10255000010D8A3019F09D3009F0DCC0109203059E
:102560002115310519F40E949733E5CFF901ED5596
:10257000FB4F10821092010D1092000DC3EAD4E0BF
:10258000FE018191803211F4EF01FACF8E3409F00F
:102590007EC0209709F47BC065E976E0CE010E94F9
:1025A00039718C01892B41F06EE470E0CE01049604
:1025B0000E949E78009709F4CE014AE050E060E066
:1025C00070E001960E94D56E60939F047093A00402
:1025D0008093A1049093A204C090020DD090030DAB
:1025E000E090040DF090050D2FEFC21AD20AE20A16
:1025F000F20A6C157D058E059F0529F0012B19F453
:1026000082E696E02AC06AE270E0CE010E94B978C4
:102610009C01009701F1982F9C1B10E0992339F041
:102620009150FE01E90FF11D80811827F7CF4AE094
:1026300050E060E070E0C90101960E94D56E012F64
:1026400010E020E030E0601771078207930779F00F
:1026500083E496E002C089E196E0DF91CF911F917B
:102660000F91FF90EF90DF90CF900C9445578091A1
:102670009F049091A004A091A104B091A204809322
:10268000020D9093030DA093040DB093050D80915E
:10269000130281111EC067E470E0CE010E949E7893
:1026A0000097B9F04AE050E060E070E001960E94C7
:1026B000D56E643071058105910558F4E2EAF5E0C4
:1026C00084918F010F5F1F4F882319F003DEF801FB
:1026D000F7CF68E472E0CE010E94A978892B11F44B
:1026E000109214026DE472E0CE010E94A978892B49
:1026F00021F489E995E00E946F2C62E572E0CE0139
:102700000E94A978892B09F4D8DB61E083EA94E080
:102710002BDB11CF2F3531050CF00DCF9C35B9F4E3
:10272000F3DA97FD08CF20910305211104CF209102
:10273000000D3091010DA9014F5F5F4F5093010DC6
:102740004093000DF901ED55FB4F8083F4CE9B3390
:1027500019F481E080930305809103058111EBCE8C
:10276000C90101969093010D8093000DF901ED557B
:10277000FB4F4083E0CEDF91CF911F910F91FF90EF
:10278000EF90DF90CF900895BF92CF92DF92EF92BB
:10279000FF920F931F93CF93DF93CDB7DEB76E9762
:1027A0000FB6F894DEBF0FBECDBF60919C04709150
:1027B0009D046115710551F14DE150E0CE01019686
:1027C0007C010E942A711E8EF7018F010E191F09CC
:1027D000B190BB2021F19AE0B912F7CF20C0B70128
:1027E0008CE895E00E94534C82E274DD8AE072DD51
:1027F000BB2051F10F5F1F4F80919C0490919D046D
:10280000080F191F10939D0400939C0481E02091F0
:102810009C0430919D04232BD1F480E018C0F70173
:10282000E00FF11F108260E0C7019EDA882371F388
:10283000E7E5F8E184916F019FEFC91AD90A88236F
:1028400071F248DDF601F6CF00E010E0DBCF6E96C6
:102850000FB6F894DEBF0FBECDBFDF91CF911F91B1
:102860000F91FF90EF90DF90CF90BF9008958F92DF
:102870009F92AF92BF92EF92FF920F931F93CF93CD
:10288000DF93CDB7DEB7A0970FB6F894DEBF0FBECB
:10289000CDBF611571058105910589F100E0842E98
:1028A000912CA12CB12C102FEE24E394F12CEC0EE2
:1028B000FD1EE00EF11C07FDFA94A50194010E9493
:1028C0005975F7016083B901CA010F5F6115710580
:1028D0008105910541F71F3F21F1E1E0F0E0EC0FA8
:1028E000FD1FE10FF11D17FDFA9580818A3010F070
:1028F00097E301C090E3890FEDDC1150ECCF80E34A
:10290000A0960FB6F894DEBF0FBECDBFDF91CF917A
:102910001F910F91FF90EF90BF90AF909F908F907D
:10292000D9CCA0960FB6F894DEBF0FBECDBFDF9115
:10293000CF911F910F91FF90EF90BF90AF909F901C
:102940008F900895EF92FF920F931F93CF93DF9391
:102950007C0184E534DCD82F882321F190DBC82F5B
:102960001816E4F4E7E5F8E184918F010F5F1F4F3B
:10297000882319F0AFDCF801F7CF8DE4ABDCB701A9
:1029800080E090E04AE073DF6C2FCC0F770B8AE990
:1029900096E00E943A4C8AE09DDC08C08093F502E4
:1029A000D0E004C08091CB0C8093F5028D2FDF9195
:1029B000CF911F910F91FF90EF900895CF92DF92EA
:1029C000EF92FF926B017C0197FF0AC08DE282DCDF
:1029D000F094E094D094C094C11CD11CE11CF11C73
:1029E0004AE0C701B601FF90EF90DF90CF903FCF54
:1029F000CF93DF938091840580938505E0E1F7E034
:102A00008491EF012196882319F064DCFE01F8CF50
:102A10008091020D9091030DA091040DB091050DD0
:102A2000BC01CD016F5F7F4F8F4F9F4FC7DF8AE0A3
:102A300051DCE0918104F0E0EA50FD4F8081882371
:102A400021F0DF91CF910C940629DF91CF91089569
:102A5000FF920F931F93CF93DF93F82E092F162F1A
:102A6000EBE0F7E08491EF012196882319F032DC46
:102A7000FE01F8CFEF2DF02F8491EF0121968823EE
:102A800019F028DCFE01F8CFE9E0F7E08491EF01CE
:102A90002196882319F01EDCFE01F8CF612F70E02B
:102AA00080E090E08BDF8AE0DF91CF911F910F9162
:102AB000FF9010CC4F925F926F927F928F929F9275
:102AC000AF92BF92CF92DF92EF92FF92CF93DF93BC
:102AD0002091CD023091CE024091CF025091D00290
:102AE0006091CC0C7091CD0C8091CE0C9091CF0C5C
:102AF0000E949575AB01BC0186E097E00E941D4CD9
:102B00002091D1023091D2024091D3025091D4024F
:102B10006091D00C7091D10C8091D20C9091D30C1B
:102B20000E949575AB01BC0182E097E00E941D4CAC
:102B30002091D5023091D6024091D7025091D8020F
:102B40006091D40C7091D50C8091D60C9091D70CDB
:102B50000E949575AB01BC018EEF96E00E941D4C62
:102B60004091D80C5091D90C6091DA0C7091DB0C2B
:102B70008AEF96E00E941D4C80916F00982F927012
:102B800081FF05C080916F008D7F80936F00409022
:102B9000760250907702609078027090790280906F
:102BA0007A0290907B02A0907C02B0907D02C0904F
:102BB0007E02D0907F02E0908002F0908102992303
:102BC00029F080916F00826080936F00E0EFF6E063
:102BD0008491EF012196882319F07CDBFE01F8CF68
:102BE000C301B201EBDEECEEF6E08491EF01219639
:102BF000882319F06FDBFE01F8CFC501B401DEDEDA
:102C0000E8EEF6E08491EF012196882319F062DB6B
:102C1000FE01F8CFC701B601D1DE8AE0DF91CF9186
:102C2000FF90EF90DF90CF90BF90AF909F908F90EC
:102C30007F906F905F904F904DCB8F929F92AF920D
:102C4000BF92CF92DF92EF92FF92CF936B017C0104
:102C5000B42E20E030E0A9010E94817187FF06C0F8
:102C60008DE238DBF7FAF094F7F8F094C0E060E01A
:102C700070E080E09FE3CB1541F02DEC3CEC4CEC98
:102C80005DE30E94E671CF5FF6CF9B01AC01C70107
:102C9000B6010E9495756B017C010E94DE764B01A6
:102CA0005C014AE0E4DDCC2379F1C501B4010E9466
:102CB00085719B01AC01C701B6010E9494756B013F
:102CC0007C018EE207DB20E030E040E251E4C70106
:102CD000B6010E94E6714B015C010E94D9766B013E
:102CE000770FEE08FF08C701B60168DEC701B6011D
:102CF0000E9487719B01AC01C501B4010E949475CB
:102D00006B017C01C150F9F6CF91FF90EF90DF90FD
:102D1000CF90BF90AF909F908F900895CF93DF9307
:102D200007D88BE5D7DAC6E8D5E0688179818A8152
:102D30009B8142E082DF4C815D816E817F8186EDE7
:102D400096E00E941D4C488559856A857B8583EDF8
:102D500096E00E941D4C8DE5BDDA8AE0DF91CF91AF
:102D6000B9CA1F920F920FB60F9211240BB60F9291
:102D70002F938F939F93EF93FF9320918505E0917D
:102D8000840581E08E0F8F779091C600281729F077
:102D9000F0E0EC5FFA4F9083E82FE0938405FF9119
:102DA000EF919F918F912F910F900BBE0F900FBEBF
:102DB0000F901F9018952F923F924F925F926F92B3
:102DC0007F928F929F92AF92BF92CF92DF92EF92BB
:102DD000FF920F931F93CF93DF93CDB7DEB72F975B
:102DE0000FB6F894DEBF0FBECDBFF8948FEF9FEF04
:102DF0009093890080938800BAE0DB2E1F861E86A0
:102E000078948091D6059091D705A091D805B0917E
:102E1000D905892B8A2B8B2B09F0C5C18091E20C37
:102E20008823D1F01092E20C8091E00C9091E10C9B
:102E3000892B91F0109297051092E10C1092E00C02
:102E40009091ED0E8091EE0E981731F08091EE0E7C
:102E50008F5F8F708093EE0E8091E00C9091E10C6B
:102E6000892B09F4A0C10091D2051091D3052091BE
:102E7000D4053091D5058091CE059091CF05A091D4
:102E8000D005B091D1054091C50550E060E070E0FB
:102E9000801B910BA20BB30B481759076A077B07DE
:102EA00010F4DB01CA01482F800F911FA21FB31F2E
:102EB0008093D2059093D305A093D405B093D50504
:102EC00080918400909185004C968090AC05909004
:102ED000AD05A090AE05B090AF0500919C05109196
:102EE0009D0520919E0530919F05080D191D2A1DF5
:102EF0003B1D0093AC051093AD052093AE053093B8
:102F0000AF0537FD1CC0409A009176021091770200
:102F1000209178023091790280901502082C000CE3
:102F20009908AA08BB08080D191D2A1D3B1D00930E
:102F30007602109377022093780230937902809082
:102F4000B0059090B105A090B205B090B305009186
:102F5000A0051091A1052091A2053091A305080DAF
:102F6000191D2A1D3B1D0093B0051093B105209338
:102F7000B2053093B30537FD1CC0419A00917A0227
:102F800010917B0220917C0230917D02809016028C
:102F9000082C000C9908AA08BB08080D191D2A1D49
:102FA0003B1D00937A0210937B0220937C023093A6
:102FB0007D028090B4059090B505A090B605B090C4
:102FC000B7050091A4051091A5052091A6053091A3
:102FD000A705080D191D2A1D3B1D0093B40510936C
:102FE000B5052093B6053093B70537FD1CC0429A4E
:102FF00000917E0210917F02209180023091810227
:1030000080901702082C000C9908AA08BB08080D2C
:10301000191D2A1D3B1D00937E0210937F022093F1
:103020008002309381028090B8059090B905A090FD
:10303000BA05B090BB050091A8051091A905209193
:10304000AA053091AB05080D191D2A1D3B1D0093E3
:10305000B8051093B9052093BA053093BB0537FD29
:103060001CC0439A00918202109183022091840235
:103070003091850280901802082C000C9908AA084B
:10308000BB08080D191D2A1D3B1D009382021093D9
:10309000830220938402309385020091AC05109145
:1030A000AD052091AE053091AF0537FD15C080907C
:1030B000980590909905A0909A05B0909B050819E5
:1030C00019092A093B090093AC051093AD0520931B
:1030D000AE053093AF0540980091B0051091B10551
:1030E0002091B2053091B30537FD15C08090980549
:1030F00090909905A0909A05B0909B050819190920
:103100002A093B090093B0051093B1052093B2053D
:103110003093B30541980091B4051091B505209105
:10312000B6053091B70537FD15C080909805909091
:103130009905A0909A05B0909B05081919092A09CC
:103140003B090093B4051093B5052093B605309361
:10315000B70542980091B8051091B9052091BA05BC
:103160003091BB0537FD15C080909805909099056A
:10317000A0909A05B0909B05081919092A093B09E6
:103180000093B8051093B9052093BA053093BB0599
:103190004398415041F020918400309185002817D8
:1031A0003907C8F392CE8091D6059091D705A091AA
:1031B000D805B091D905892B8A2B8B2B09F0CDC569
:1031C000E091E00CF091E10C309709F44CC780914C
:1031D000D2059091D305A091D405B091D505409129
:1031E000CE055091CF056091D0057091D10584171F
:1031F0009507A607B707D0F0109297051092E10C3B
:103200001092E00C9091ED0E8091EE0E981709F45B
:103210002AC78091EE0E8F5F8F708093EE0EA0ED27
:103220004A2EA7E05A2E612C712CE5C34091CA05A5
:103230005091CB056091CC057091CD054817590789
:103240006A077B0708F4A4C18090C6059090C70563
:10325000A090C805B090C90586A997A9A0ADB1AD49
:1032600088169906AA06BB0608F076C18114910457
:10327000A104B10449F48091930590919405A09123
:103280009505B091960564C1B0E0AC2D882D392D1F
:103290002A2DF981EA817B816C815D814E819F813C
:1032A0005091DC0C589F712D66274091DD0C489F92
:1032B000700D611D1090DE0C189E600D539F700DF7
:1032C000611D439F600D529F600DF72FE62FF79F02
:1032D000512D44279927F69F500D411D9B1FE79FB5
:1032E000500D411D9B1FE69F400D911DF42FE92FAE
:1032F000F79FA12D44279927F69FA00D411D9B1FE5
:10330000E79FA00D411D9B1FE69F400D911DF42FCF
:10331000E92F5527809193053091940520919505CB
:1033200000909B040B2A09F483C0409197044F9F9F
:1033300051198B0B3B0B2B0B909198049F9F5019AD
:1033400081093B0B2B0BA0919904AF9F8019310988
:103350002B0B4E9F501981093B0B2B0B9E9F801905
:1033600031092B0BAE9F30192109F79FA12D44275E
:103370009927F69FA00D411D9B1FE79FA00D411DA2
:103380009B1FE69F400D911DF42FE92F4091930460
:103390004F9F510D8B1F3B1F2B1F909194049F9F9C
:1033A000500D811D3B1F2B1FA0919504AF9F800DD9
:1033B000311D2B1F4E9F500D811D3B1F2B1F9E9FAC
:1033C000800D311D2B1FAE9F300D211DF79FA12DAC
:1033D00044279927F69FA00D411D9B1FE79FA00D35
:1033E000411D9B1FE69F400D911DF42FE92F409139
:1033F0008F044F9F51198B0B3B0B2B0B909190041B
:103400009F9F501981093B0B2B0BA0919104AF9FFB
:10341000801931092B0B4E9F501981093B0B2B0B47
:103420009E9F801931092B0BAE9F3019210982C054
:10343000409197044F9F510D8B1F3B1F2B1F909165
:1034400098049F9F500D811D3B1F2B1FA091990435
:10345000AF9F800D311D2B1F4E9F500D811D3B1FB7
:103460002B1F9E9F800D311D2B1FAE9F300D211DE8
:10347000F79FA12D44279927F69FA00D411D9B1F63
:10348000E79FA00D411D9B1FE69F400D911DF42F4E
:10349000E92F409193044F9F51198B0B3B0B2B0B42
:1034A000909194049F9F501981093B0B2B0BA09185
:1034B0009504AF9F801931092B0B4E9F501981093C
:1034C0003B0B2B0B9E9F801931092B0BAE9F3019A4
:1034D0002109F79FA12D44279927F69FA00D411D93
:1034E0009B1FE79FA00D411D9B1FE69F400D911D57
:1034F000F42FE92F40918F044F9F510D8B1F3B1FDD
:103500002B1F909190049F9F500D811D3B1F2B1FDF
:10351000A0919104AF9F800D311D2B1F4E9F500D28
:10352000811D3B1F2B1F9E9F800D311D2B1FAE9FAA
:10353000300D211D1124CA2EF983EA837B836C830D
:103540005D834E839F8390E0932BA0E0B0E0A22B9D
:1035500023E53FE011E011C082A993A9A4A9B5A970
:10356000F7CFB695A79597958795110F2C5F3F4F8D
:103570004FE02F36340709F445C4F90145915591C0
:1035800065917491481759076A077B0750F33AC44D
:103590004091C1055091C2056091C3057091C40569
:1035A000481759076A077B0708F0B8C18091C00522
:1035B00081111FC0DF01AE5BBF4FED90FD900D91FB
:1035C0001C9113971D962D913D914D915C9162A98F
:1035D00073A984A995A90E94284B51E05093C00576
:1035E000E091E00CF091E10C82A893A8A4A8B5A802
:1035F00086C18091BC059091BD05A091BE05B0919A
:10360000BF0542AD53AD64AD75AD84179507A607F0
:10361000B70708F06EC10097A105B10549F4809085
:10362000930590909405A0909505B090960567C17C
:1036300030E04885882E292F8A2FE9857A856B8589
:103640005C859D859091DC0C989D612D552720907F
:10365000DD0C289C600D511D1090DE0C189C500D47
:10366000929F600D511D229E500D989F500DE62F88
:10367000752FE69F912D22243324E59F900D211C68
:10368000331E769F900D211C331E759F200C311C1C
:10369000E22D732DE69F412D22243324E59F400D1A
:1036A000211C331E769F400D211C331E759F200C5C
:1036B000311CE22D732D992780909305209194055C
:1036C0008091950500909B04032A09F483C0209003
:1036D00097042E9E9119830A230B830B3090980434
:1036E0003E9E90198108230B830B409199044E9FB5
:1036F00080182109830B279E90198108230B830BC7
:10370000379E80182109830B479F20198109E69F66
:10371000412D22243324E59F400D211C331E769F2A
:10372000400D211C331E759F200C311CE22D732D82
:10373000209093042E9E910D831E231F831F309093
:1037400094043E9E900D811C231F831F409195047D
:103750004E9F800C211D831F279E900D811C231FCF
:10376000831F379E800C211D831F479F200D811DC5
:10377000E69F412D22243324E59F400D211C331E5A
:10378000769F400D211C331E759F200C311CE22DAD
:10379000732D20908F042E9E9119830A230B830B87
:1037A000309090043E9E90198108230B830B40912A
:1037B00091044E9F80182109830B279E9019810840
:1037C000230B830B379E80182109830B479F2019F9
:1037D000810982C0209097042E9E910D831E231F85
:1037E000831F309098043E9E900D811C231F831FE1
:1037F000409199044E9F800C211D831F279E900DA0
:10380000811C231F831F379E800C211D831F479F10
:10381000200D811DE69F412D22243324E59F400D7C
:10382000211C331E769F400D211C331E759F200CDA
:10383000311CE22D732D209093042E9E9119830A42
:10384000230B830B309094043E9E90198108230B28
:10385000830B409195044E9F80182109830B279E6E
:1038600090198108230B830B379E80182109830B45
:10387000479F20198109E69F412D22243324E59F8B
:10388000400D211C331E769F400D211C331E759F59
:10389000200C311CE22D732D20908F042E9E910D53
:1038A000831E231F831F309090043E9E900D811C29
:1038B000231F831F409191044E9F800C211D831F65
:1038C000279E900D811C231F831F379E800C211D76
:1038D000831F479F200D811D11244887E9877A8720
:1038E0006B875C879D87912C922AA12CB12CA82AEA
:1038F00006C0E15BFF4F80809180A280B38083E5AA
:103900009FE021E0FC014591559165917491481526
:1039100059056A057B0508F4D8C2E2C280911A02F3
:1039200090911B02A0911C02B0911D02B7FF5BC0D9
:10393000E95BFF4F80809180A280B38083E59FE0A8
:1039400021E0FC0145915591659174914815590507
:103950006A057B0550F4B694A79497948794220F38
:103960000496AFE08F369A0761F72093C505B0E261
:103970008B169104A104B10408F446C320E2821A14
:103980009108A108B108811438E09306A104B1049C
:1039900008F416C344E0949EC00111248D5A944F3C
:1039A000FC01329625913491782D6627739FA001F2
:1039B000729F410D561F0694461F561F112460E04A
:1039C00070E0FC0125913491C901A0E0B0E0841BB6
:1039D000950BA60BB70B80931A0290931B02A09332
:1039E0001C02B0931D0240901A0250901B0260907E
:1039F0001C0270901D028091E00C9091E10C892BCB
:103A000009F0A3C10E94CB4B9093E10C8093E00C92
:103A1000892B09F49AC1E091E00CF091E10C8081CE
:103A200083FF3EC085899689A789B08D80937602F1
:103A300090937702A0937802B0937902818D928D52
:103A4000A38DB48D80937A0290937B02A0937C0225
:103A5000B0937D02858D968DA78DB0A180937E0257
:103A600090937F02A0938002B093810281A192A1E2
:103A7000A3A1B4A18093820290938302A0938402B5
:103A8000B09385029091ED0E8091EE0E981709F497
:103A9000B9CF8091EE0E8F5F8F708093EE0EB2CF14
:103AA000058916892789308D81E0011511052105C9
:103AB000310509F480E0818C928CA38CB48C811444
:103AC0009104A104B10409F08260458D568D678D83
:103AD00070A1411551056105710509F0846080935D
:103AE00097051092BC051092BD051092BE0510926C
:103AF000BF051092C6051092C7051092C805109216
:103B0000C90585A196A1A7A1B0A58093CE059093E4
:103B1000CF05A093D005B093D1054424552432019C
:103B2000481A590A6A0A7B0A4092B8055092B905A8
:103B30006092BA057092BB054092B4055092B505EB
:103B40006092B6057092B7054092B0055092B105EB
:103B50006092B2057092B3054092AC055092AD05EB
:103B60006092AE057092AF05000F111F221F331F28
:103B700000939C0510939D0520939E0530939F050F
:103B8000880C991CAA1CBB1C8092A0059092A105D0
:103B9000A092A205B092A305440F551F661F771F80
:103BA0004093A4055093A5056093A6057093A705BF
:103BB00041A152A163A174A1440F551F661F771F35
:103BC0004093A8055093A9056093AA057093AB058F
:103BD000880F991FAA1FBB1F809398059093990582
:103BE000A0939A05B0939B051092D2051092D3052D
:103BF0001092D4051092D50582A593A5A4A5B5A5CC
:103C00008093CA059093CB05A093CC05B093CD05C6
:103C100086A597A5A0A9B1A98093C1059093C205D7
:103C2000A093C305B093C40541A5EA5BFF4F508143
:103C30008091920558130AC08091190290E0242FB8
:103C4000042E000C330B2817390731F050939205DE
:103C5000409319020E947A4BF0D48FEF9FEFDC0162
:103C600080931A0290931B02A0931C02B0931D0232
:103C7000E091E00CF091E10CDF01DE96ED90FD901B
:103C80000D911C9122A933A944A955A9E55BFF4FC9
:103C900060817181828193810E94284B1092C005BE
:103CA000E091E00CF091E10CE55BFF4F80809180AA
:103CB000A280B38083E59FE021E0FC01459155910E
:103CC00065917491481559056A057B0558F4B694B9
:103CD000A79497948794220F04964FE65FE04817C5
:103CE000590759F72093C50550E285169104A104A0
:103CF000B10408F4B2C190E2891A9108A108B10890
:103D00008114A8E09A06A104B10408F483C1B4E0C8
:103D10009B9EC00111248D5A944FFC01329625912F
:103D20003491782D6627739FA001729F410D561F15
:103D30000694461F561F1124FC0145905490612C97
:103D4000712C441A550A610871084092D6055092A8
:103D5000D7056092D8057092D9058091D6059091CB
:103D6000D705A091D805B091D905AC01BD01009748
:103D700021E0A207B10520F04FEF5FEF60E070E0B7
:103D8000841B950BA60BB70B8093D6059093D70594
:103D9000A093D805B093D905F894809184009091B0
:103DA00085004096DA94DD2059F0AE85BF85A40FDA
:103DB000B51FBF87AE87A817B90708F421C802C08E
:103DC0009F878E872E853F853093890020938800BA
:103DD00078942F960FB6F894DEBF0FBECDBFDF915B
:103DE000CF911F910F91FF90EF90DF90CF90BF90F8
:103DF000AF909F908F907F906F905F904F903F908B
:103E00002F9008951093C50580329105A105B10545
:103E100008F456C08097A109B109811528E09207DE
:103E2000A105B105F0F044E0949F900111242D5AB2
:103E3000344FF901329645915491EE27859FB00198
:103E4000849F610D7E1F06946E1F7E1F1124F90151
:103E500045905490612C712C461A570A61087108DC
:103E600022C0AC01BD017695679557954795FA013B
:103E7000EC7FAF014D5A584FFA0125913491FA0168
:103E80003296659174918770869FA001879F500D2F
:103E90001124F3E056954795FA95E1F72901441A64
:103EA000550A612C712C840C951CA61CB71C8092A1
:103EB000C6059092C705A092C805B092C9059BCDD2
:103EC00080E290E0A0E0B0E0A5CFB694A7949794EC
:103ED0008794220F04965FE08F36950709F012CD84
:103EE0002093C50570E287169104A104B10408F47B
:103EF00061C070E2871A9108A108B108811488E0B6
:103F00009806A104B104F8F0A4E09A9EC00111241F
:103F10008D5A944FFC01329625913491B82D662725
:103F2000B39FA001B29F410D561F0694461F561F16
:103F30001124FC0145905490612C712C441A550AAF
:103F40006108710822C0D501C401B695A79597955F
:103F50008795FC01EC7FCF018D5A984FFC0145906D
:103F60005490FC01329625913491482D4770429F20
:103F7000C001439F900D112463E0969587956A9543
:103F8000E1F7481A590A612C712C8091BC05909177
:103F9000BD05A091BE05B091BF05840D951DA61D60
:103FA000B71D8093BC059093BD05A093BE05B0934B
:103FB000BF0521CD60E2862E912CA12CB12C99CF8A
:103FC000D501C401B695A79597958795FC01EC7F1F
:103FD000CF018D5A984FFC0125913491FC01329606
:103FE00045915491682D6770649FC001659F900D45
:103FF000112443E0969587954A95E1F7281B390BE4
:10400000C901A0E0B0E0E7CC40E2842E912CA12CC5
:10401000B12CB4CCD501C401B695A79597958795D9
:10402000FC01EC7FCF018D5A984FFC0145905490D4
:10403000FC01329625913491482D4770429FC00172
:10404000439F900D1124A3E096958795AA95E1F7DB
:10405000481A590A612C712C78CE90E2892E912C45
:10406000A12CB12C48CE80ED482E87E0582E612C33
:10407000712CC8CC1F93CF93DF93182F6115710556
:1040800019F4EEEFF1E10AC0FB018491EF012196F2
:104090008823B9F30E946A11FE01F7CF8491EF01E2
:1040A0002196882321F00E946A11FE01F7CF111199
:1040B00003C0E9EFF1E102C0EFEEF1E18491EF011D
:1040C0002196882321F00E946A11FE01F7CF8AE031
:1040D000DF91CF911F910C946A11CF93DF93E6EC9F
:1040E000FFE08491EF012196882321F00E946A115C
:1040F000FE01F7CFDF91CF9108952F923F924F921B
:104100005F926F927F928F929F92AF92BF92CF9267
:10411000DF92EF92FF920F931F93CF93DF93CDB770
:10412000DEB76C970FB6F894DEBF0FBECDBF8C0123
:104130005B015A834983FC01E95BFF4F2081318198
:10414000428153812D8B3E8B4F8B588FCA01B90111
:104150000E9485716B017C01D5012D913D914D919E
:104160005C910E94E6710E945B760E94DE766D870C
:104170007E878F87988BE981FA8120813181428106
:104180005381C701B6010E94E6710E945B760E94CE
:10419000DE76698B7A8B8B8B9C8B2D853E854F854C
:1041A0005889283731054105510540F448E750E06A
:1041B00060E070E04D875E876F87788B69897A89C8
:1041C0008B899C89683771058105910540F488E7E2
:1041D00090E0A0E0B0E0898B9A8BAB8BBC8BF801B0
:1041E000ED5AFF4F20813181428153812D833E83DF
:1041F0004F835887CA01B9010E9487712B013C0186
:104200006D857E858F8598890E94857169877A87FB
:104210008B879C8720E030E0A901C301B2010E9496
:104220008171882329F1A7019601C701B6010E9477
:10423000E6714B015C0129853A854B855C85CA0195
:10424000B9010E94E6719B01AC01C501B4010E9455
:1042500094754B015C01A3019201C301B2010E945C
:1042600095759B01AC01C501B4010E94717603C034
:1042700060E070E0CB010E945B760E94DE7669838D
:104280007A838B839C836D817E818F8198859095C5
:104290008095709561957F4F8F4F9F4F0E948771DA
:1042A0004B015C0169897A898B899C890E9485719F
:1042B0006D837E838F83988720E030E0A901C5015C
:1042C000B4010E948171882349F12D813E814F8183
:1042D0005885CA01B9010E94E671698F7A8F8B8F68
:1042E0009C8FA7019601C701B6010E94E6719B0150
:1042F000AC01698D7A8D8B8D9C8D0E9494756B01BC
:104300007C01A5019401C501B4010E9495759B0132
:10431000AC01C701B6010E94717603C060E070E095
:10432000CB010E940A77D80195968D909D90AD9013
:10433000BC9098977501640129813A814B815C8119
:10434000C21AD30AE40AF50A0E94DE76C61AD70A10
:10435000E80AF90AF7FEA1C020E030E0A901C30194
:10436000B2010E948171882309F443C0C501B401E0
:104370000E9485716B017C01A3019201C301B2010E
:104380000E9495759B01AC01C701B6010E94E671C0
:104390006B017C0129853A854B855C85CA01B90191
:1043A0000E94E6719B01AC01C701B6010E949475A1
:1043B0006B017C012D813E814F815885CA01B90175
:1043C0000E94E6719B01AC01C701B6010E94957580
:1043D0006B017C0120E030E040E850E4C301B20111
:1043E0000E94E6719B01AC01C701B6010E94717683
:1043F00003C060E070E0CB010E945B767B018D839F
:10440000998320E030E0A9010E94BB77181624F0C0
:10441000E12CF12C1D821982B7018D8199810E94B6
:10442000DE7669837A838B839C8386169706A8063B
:10443000B90620F489829A82AB82BC82A3019201E0
:10444000C301B2010E9495756B017C0169817A817B
:104450008B819C810E9485719B01AC01C701B601D3
:104460000E94E6716B017C0129853A854B855C854C
:10447000CA01B9010E94E6719B01AC01C701B601F6
:104480000E9495750E9400780E94DE766D8B7E8B6F
:104490008F8B988FC12CD12C76016D897E898F8965
:1044A000988D2D853E854F855889621B730B840B33
:1044B000950B0E948571A30192010E94717620E004
:1044C00034E244EF59E40E94E6710E94DE764B012B
:1044D0005C016D897E898F89988D29893A894B89FC
:1044E0005C89621B730B840B950B0E948571A30181
:1044F00092010E94717620E034E244EF59E40E9478
:10450000E6710E94DE762B013C013FE683169104A2
:10451000A104B10480F4F401EE0FFF1FEE0FFF1FA2
:10452000E35DFD4E85919591A591B4918D83292EE2
:104530003A2EB98708C0C501B4010E946E4C6D8344
:10454000272E382E99874FE64416510461047104D2
:1045500070F4F201EE0FFF1FEE0FFF1FE35DFD4E43
:1045600045915591659174919A01CB0105C0C301A4
:10457000B2010E946E4C9B0149815A816B817C8102
:10458000D8019A964D935D936D937C939D974C0DB6
:104590005D1D6E1D7F1DF80146A757A760AB71AB6F
:1045A000E55BFF4F4D855E856F857889408351833C
:1045B00062837383D6968D929D92AD92BC92D99769
:1045C000F80142AE53AE64AE75AEFE964D814083A7
:1045D00021823282598553833496208331838283AA
:1045E00093836D897E898F89988DD2966D937D9303
:1045F0008D939C93D5973D9629893A894B895C89FF
:1046000020833183428353836C960FB6F894DEBFC8
:104610000FBECDBFDF91CF911F910F91FF90EF9013
:10462000DF90CF90BF90AF909F908F907F906F90D2
:104630005F904F903F902F9008958091A80288231B
:1046400009F457C08091DA051E9902C0816001C04B
:104650008E7F8093DA058091DA051D9902C0826011
:1046600001C08D7F8093DA058091DA051C9902C024
:10467000846001C08B7F8093DA058091970580FF6D
:1046800010C08091920580FF0CC08091DA0580FFF8
:1046900008C08091800481608093800480E00E9443
:1046A000FC548091970581FF10C08091920581FF95
:1046B0000CC08091DA0581FF08C08091800482607F
:1046C0008093800481E00E94FC548091970582FFD2
:1046D00010C08091920582FF0CC08091DA0582FFA4
:1046E00008C08091800484608093800482E00C94F0
:1046F000FC540895CF93DF93E3E1F2E184918823A2
:1047000049F0C4E1D2E10E946A11FE018491219630
:104710008111F9CF83B1C1E086FB882780F96DE074
:1047200072E18C27A7DC83B185FB882780F967E0DD
:1047300072E18C279FDC83B18295817061E072E128
:104740008C27DF91CF9196CC1F920F920FB60F92CC
:1047500011240BB60F922F933F934F935F936F9358
:104760007F938F939F93AF93BF93EF93FF9365DFF7
:10477000FF91EF91BF91AF919F918F917F916F9139
:104780005F914F913F912F910F900BBE0F900FBEF5
:104790000F901F9018951F920F920FB60F92112431
:1047A0000BB60F922F933F934F935F936F937F932B
:1047B0008F939F93AF93BF93EF93FF93C5DFFF91C9
:1047C000EF91BF91AF919F918F917F916F915F9189
:1047D0004F913F912F910F900BBE0F900FBE0F90F6
:1047E0001F9018951F920F920FB60F9211240BB6BF
:1047F0000F922F933F934F935F936F937F938F937A
:104800009F93AF93BF93EF93FF939EDFFF91EF9141
:10481000BF91AF919F918F917F916F915F914F91D8
:104820003F912F910F900BBE0F900FBE0F901F90D6
:1048300018950F931F93CF93C82F882319F0E4EE98
:10484000F1E10CC0E7E5F8E184918F010F5F1F4FA4
:104850008823A9F30E946A11F801F6CF84918F0191
:104860000F5F1F4F882321F00E946A11F801F6CFD5
:10487000EDECFFE084918F010F5F1F4F882321F043
:104880000E946A11F801F6CF8AE00E946A118AE05C
:104890000E946A11C1112CC0E7E5F8E184918F01F3
:1048A0000F5F1F4F882321F00E946A11F801F6CF95
:1048B000E1EDF1E184918F010F5F1F4F882321F01B
:1048C0000E946A11F801F6CF8091AD02882321F091
:1048D0008AE00E946A113AC0E6ECF1E184918F010E
:1048E0000F5F1F4F882391F10E946A11F801F6CFE4
:1048F0004091A9025091AA026091AB027091AC0262
:104900008DEB91E10E941D4C8AE00E946A1180911A
:10491000AD02811127C0CC2319F0E2EBF1E10CC00C
:10492000E7E5F8E184918F010F5F1F4F8823A9F31A
:104930000E946A11F801F6CF84918F010F5F1F4F1B
:10494000882381F00E946A11F801F6CFE7E5F8E1CB
:1049500084918F010F5F1F4F882351F20E946A11CB
:10496000F801F6CFC11124C0E7E5F8E184918F0189
:104970000F5F1F4F882321F00E946A11F801F6CFC4
:10498000E1EAF1E184918F010F5F1F4F882321F04D
:104990000E946A11F801F6CFE7E5F8E184918F01F2
:1049A0000F5F1F4F882321F00E946A11F801F6CF94
:1049B0004091A10C5091A20C6091A30C7091A40C99
:1049C00089E991E10E941D4C4091A50C5091A60CE3
:1049D0006091A70C7091A80C86E991E10E941D4C92
:1049E0004091A90C5091AA0C6091AB0C7091AC0C49
:1049F00083E991E10E941D4C4091AD0C5091AE0CA9
:104A00006091AF0C7091B00C80E991E10E941D4C57
:104A10008AE00E946A11C11124C0E7E5F8E184919F
:104A20008F010F5F1F4F882321F00E946A11F80148
:104A3000F6CFE2E7F1E184918F010F5F1F4F8823EA
:104A400021F00E946A11F801F6CFE7E5F8E18491C0
:104A50008F010F5F1F4F882321F00E946A11F80118
:104A6000F6CF40915B0650915C0660915D067091B7
:104A70005E0689E691E10E941D4C40915F065091CF
:104A80006006609161067091620686E691E10E947F
:104A90001D4C4091630650916406609165067091CB
:104AA000660683E691E10E941D4C40916706509195
:104AB00068066091690670916A0680E691E10E943D
:104AC0001D4C8AE00E946A11C11124C0E7E5F8E19B
:104AD00084918F010F5F1F4F882321F00E946A117C
:104AE000F801F6CFEEE3F1E184918F010F5F1F4FE4
:104AF000882321F00E946A11F801F6CFE7E5F8E17A
:104B000084918F010F5F1F4F882321F00E946A114B
:104B1000F801F6CF4091AE025091AF026091B00221
:104B20007091B10285E391E10E94004C4091B20284
:104B30005091B3026091B4027091B50282E391E1A9
:104B40000E94004C4091B6025091B7026091B802A9
:104B50007091B9028FE291E10E94004C4091BA023B
:104B60005091BB026091BC027091BD028CE291E158
:104B70000E94004C8AE00E946A11C11124C0E7E53E
:104B8000F8E184918F010F5F1F4F882321F00E946D
:104B90006A11F801F6CFE2EEF0E184918F010F5F28
:104BA0001F4F882321F00E946A11F801F6CFE7E534
:104BB000F8E184918F010F5F1F4F882321F00E943D
:104BC0006A11F801F6CF4091530650915406609156
:104BD00055067091560689ED90E10E941D4C40915A
:104BE0005706509158066091590670915A0686ED05
:104BF00090E10E941D4C40914F06509150066091EB
:104C000051067091520683ED90E10E941D4C8AE09E
:104C10000E946A11C1113FC0E7E5F8E184918F015C
:104C20000F5F1F4F882321F00E946A11F801F6CF11
:104C3000EBE8F0E184918F010F5F1F4F882321F093
:104C40000E946A11F801F6CFE0E6F0E184918F014D
:104C50000F5F1F4F882321F00E946A11F801F6CFE1
:104C6000E1E5F0E184918F010F5F1F4F882321F070
:104C70000E946A11F801F6CF8AE00E946A11E7E506
:104C8000F8E184918F010F5F1F4F882321F00E946C
:104C90006A11F801F6CF40916B0650916C06609155
:104CA0006D0670916E0688E490E10E94004C409180
:104CB000830650918406609185067091860685E48E
:104CC00090E10E941D4C40917F06509180066091BA
:104CD00081067091820682E490E10E941D4C409111
:104CE0002B0650912C0660912D0670912E068FE3B5
:104CF00090E10E941D4C40912F065091300660912A
:104D00003106709132068CE390E10E941D4C409177
:104D1000330650913406609135067091360689E36A
:104D200090E10E941D4C40913706509138066091E9
:104D3000390670913A0686E390E10E941D4C8AE0A4
:104D40000E946A11C11124C0E7E5F8E184918F0146
:104D50000F5F1F4F882321F00E946A11F801F6CFE0
:104D6000E8E2F0E184918F010F5F1F4F882321F06B
:104D70000E946A11F801F6CFE7E5F8E184918F010E
:104D80000F5F1F4F882321F00E946A11F801F6CFB0
:104D90004091C1025091C2026091C3027091C4025D
:104DA0008FE190E10E941D4C4091C5025091C602D6
:104DB0006091C7027091C8028CE190E10E941D4C85
:104DC0004091C9025091CA026091CB027091CC020D
:104DD00089E190E10E941D4C8AE00E946A11C11194
:104DE00024C0E7E5F8E184918F010F5F1F4F88230E
:104DF00021F00E946A11F801F6CFEAE0F0E1849117
:104E00008F010F5F1F4F882321F00E946A11F80164
:104E1000F6CFE7E5F8E184918F010F5F1F4F8823FC
:104E200021F00E946A11F801F6CF4091F1025091F1
:104E3000F2026091F3027091F40281E090E10E942D
:104E40001D4C2CEA35EC47E25EE36091ED02709177
:104E5000EE028091EF029091F0020E947176AB0118
:104E6000BC018EEF9FE00E941D4C2CEA35EC47E21E
:104E70005EE36091E9027091EA028091EB02909109
:104E8000EC020E94E671AB01BC018BEF9FE00E9437
:104E90001D4C8AE00E946A11C11124C0E7E5F8E1C7
:104EA00084918F010F5F1F4F882321F00E946A11A8
:104EB000F801F6CFE2EEFFE084918F010F5F1F4F04
:104EC000882321F00E946A11F801F6CFE7E5F8E1A6
:104ED00084918F010F5F1F4F882321F00E946A1178
:104EE000F801F6CFFAD86091E70E7091E80E8FEDD9
:104EF0009FE00E943A4C60916E0E70916F0E8CEDA7
:104F00009FE00E943A4C6091F50D7091F60D89ED8D
:104F10009FE00E943A4C8AE00E946A11DED86091BC
:104F20007C0D70917D0D83ED9FE00E943A4C8AE0EC
:104F30000E946A118AE0CF911F910F910C946A111F
:104F4000CF92DF92EF92FF920F931F93CF93DF9355
:104F5000CDB7DEB72C970FB6F894DEBF0FBECDBF2E
:104F600041EA5CE02BE536E0AEEAB2E080E090E0BA
:104F7000FC01EA54F04FC590D590E590F490FA0109
:104F8000C192D192E192F192AF01FC01EA55F04F4A
:104F9000C590D590E590F490F901C192D192E1923B
:104FA000F1929F01FC01EA56F04FC590D590E59033
:104FB000F490CD92DD92ED92FD92049680319105B0
:104FC000B9F680E29EE4A0E0B0E080936B06909397
:104FD0006C06A0936D06B0936E0680E090E0A8EC9E
:104FE000B2E48093530690935406A0935506B09371
:104FF00056068093570690935806A0935906B0938F
:105000005A0680934F0690935006A0935106B09392
:105010005206109283061092840610928506109212
:10502000860610927F0610928006109281061092DA
:1050300082068AE999E9A9E9BEE380932B06909359
:105040002C06A0932D06B0932E0680932F069093E6
:105050003006A0933106B0933206809333069093C6
:105060003406A0933506B093360680E090E0A0EABF
:10507000B0E48093370690933806A0933906B09336
:105080003A068CE0E1ECF2E0DF011D928A95E9F747
:105090008AE999E9A1EBB1E48093F1029093F202DD
:1050A000A093F302B093F40286EA91E3A5E3BEE392
:1050B0008093ED029093EE02A093EF02B093F00282
:1050C00080E493EFADE2B4E48093E9029093EA02C6
:1050D000A093EB02B093EC021092AD0280E090E05E
:1050E000A0E4B0E48093A9029093AA02A093AB023B
:1050F000B093AC0281E08093A8028093A7029DDA6E
:1051000064E670E080E090E00E94B75660EB74E0E7
:1051100081E79EE00E94E04860E273E088EF9DE056
:105120000E94E04860E273E08FE79DE00E94E04863
:1051300060E273E086E09DE00E94E0480E947A4BC6
:105140008091CC0C9091CD0CA091CE0CB091CF0C55
:1051500089839A83AB83BC838091D00C9091D10CCE
:10516000A091D20CB091D30C8D839E83AF83B8876E
:105170008091D40C9091D50CA091D60CB091D70C05
:1051800089879A87AB87BC870E94A04D0E94D64F23
:1051900080E00E94130F81E00E94130F82E00E94C2
:1051A000130F0E94414F4CE050E06CEC7CE0CE01CC
:1051B00001960E949178892B11F00E945A15E7E51B
:1051C000F8E184918F010F5F1F4F882321F00E9427
:1051D0006A11F801F6CFE3E7FFE084918F010F5FDA
:1051E0001F4F882321F00E946A11F801F6CF2C96F8
:1051F0000FB6F894DEBF0FBECDBFDF91CF911F91E8
:105200000F91FF90EF90DF90CF900895CF93DF93B1
:10521000EEE6F5E08491EF012196882321F00E94CB
:105220006A11FE01F7CF8AE0DF91CF910C946A11E9
:105230004F925F926F927F928F929F92AF92BF92A6
:10524000DF92EF92FF920F931F93CF93DF93D82EAD
:10525000C82FD0E0FE01E858FB4F64917E01EE0CB0
:10526000FF1CEE0CFF1CF701E851FA4E45905590DB
:1052700065907490062E000C770B880B990B0E949A
:1052800087714B015C0120E030E040EC5FE3C3013B
:10529000B2010E94E671A50194010E94E671AB0182
:1052A000BC0100E010E098018D2D0E94900FF701E5
:1052B000E452FA4E2591359145915491C501B401BE
:1052C0000E94E6714B015C0120E030E0A9010E94E0
:1052D0008171882309F447C000E010E09801B5010E
:1052E000A40170588D2D0E94900FFE01E752FA4ED6
:1052F0006491611117C0E7E5F8E18491EF0121960F
:10530000882321F00E946A11FE01F7CFE7EBF5E157
:105310008491EF012196882321F00E946A11FE01F9
:10532000F7CF6AE0F701E151FE4F45905590659047
:10533000749070E080E090E00E9487719B01AC0166
:10534000C301B2010E9471762B013C01A5019401B9
:10535000C501B4010E949575AB01BC0193018201A6
:105360008D2D0E94900F81E090E00D2C01C0880FE0
:105370000A94EAF79091A202982B9093A20290913E
:10538000C002892B8093C002F701EA57FD4F1082BB
:105390001182128213828D2D0E94130FF701E25B9E
:1053A000FB4F85919591A591B491E701C453D34FDB
:1053B00088839983AA83BB830E94530FF701E55426
:1053C000F34F88819981AA81BB8180839183A283D5
:1053D000B383DF91CF911F910F91FF90EF90DF90FA
:1053E000BF90AF909F908F907F906F905F904F9005
:1053F0000895CF93DF938A589F4FFC01C081D181DC
:10540000862FCCD6BE0185EA95E10E943A4C8AE00F
:10541000DF91CF910C946A110C94EC43EF92FF92C0
:105420000F931F93CF93DF931F921F92CDB7DEB7D9
:1054300082E08093C0001092C50087E08093C40092
:105440008091C10080618093C1008091C10088601B
:105450008093C1008091C10080688093C100EEE913
:10546000F5E184918F010F5F1F4F882321F00E9487
:105470006A11F801F6CFE7E5F8E184918F010F5F3B
:105480001F4F882321F00E946A11F801F6CF989AE5
:10549000A09A9A9AA29A809107018062809307014C
:1054A00080910801809580728093060180910701A8
:1054B00080618093070180910801809580718093BD
:1054C000060114B710FF0DC0E5E9F5E184917F01F5
:1054D0009FEFE91AF90A882321F00E946A11F70167
:1054E000F5CF11FF0DC0E4E8F5E184917F019FEF56
:1054F000E91AF90A882321F00E946A11F701F5CF11
:1055000012FF0DC0E2E7F5E184917F019FEFE91AF8
:10551000F90A882321F00E946A11F701F5CF13FFE1
:105520000DC0E1E6F5E184917F019FEFE91AF90AE8
:10553000882321F00E946A11F701F5CF15FF0CC0F6
:10554000E0E5F5E184918F010F5F1F4F882321F083
:105550000E946A11F801F6CF14BEE9E4F5E18491E6
:105560008F010F5F1F4F882321F00E946A11F801FD
:10557000F6CF80E20E946A11EBE3F5E184918F019E
:105580000F5F1F4F882321F00E946A11F801F6CFA8
:105590008AE00E946A11E7E5F8E184918F010F5FCC
:1055A0001F4F882321F00E946A11F801F6CFEBE229
:1055B000F5E184918F010F5F1F4F882321F00E9436
:1055C0006A11F801F6CFE0E2F5E184918F010F5FF7
:1055D0001F4F882321F00E946A11F801F6CFEAECF0
:1055E000F4E184918F010F5F1F4F882321F00E9407
:1055F0006A11F801F6CFE7E5F8E184918F010F5FBA
:105600001F4F882321F00E946A11F801F6CFE3EBC7
:10561000F4E184918F010F5F1F4F882321F00E94D6
:105620006A11F801F6CFE7E5F8E184918F010F5F89
:105630001F4F882321F00E946A11F801F6CF2091B4
:10564000130F3091140FCE0101962115310519F475
:1056500089519F4002C0821B930B9A838983698181
:105660007A8184EA94E10E943A4C60E176E08DE828
:1056700094E10E943A4C8AE00E946A1181E0809392
:10568000F6028093F7028093F8028093F90258DCC7
:1056900080E0CFD88CE0E1ECF2E0ACECBCE0019033
:1056A0000D928A95E1F70E94530F6D9A8091010146
:1056B00080628093010180910101886080930101E3
:1056C00087ED80937A0010927E0010927D00809189
:1056D0007E00816080937E0080E888BD80916E00AE
:1056E000846080936E006AEF70E080E090E00E943A
:1056F000B75685E090E09093E5058093E40560E07F
:1057000080911E0290911F02A6D520E030E040EA71
:1057100050E40E94817187FF0AC080911E0290911F
:105720001F02409790931F0280931E02E8CF83E1EF
:1057300091E0909324028093230260E08091E7053A
:105740009091E80588D520E030E849E853E40E94CC
:10575000BB77181654F48091E7059091E8054096C0
:105760009093E8058093E705E8CF0E94AC54269813
:105770002E9A25982D9A24982C9A80916B008064FB
:1057800080936B00D89A8091680081608093680054
:1057900080916B00806280936B00D89A8091680042
:1057A00081608093680080916B00806180936B00C2
:1057B000D89A8091680081608093680011E010930E
:1057C000A8021093A7020E941D2380910A01816004
:1057D00080930A0180910A01826080930A0180917E
:1057E0000A01846080930A0180910A018064809399
:1057F0000A010F9A179A0E9A169A0D9A159A0C9AF0
:10580000149A389A4098179A8091A2028E7F8093BA
:10581000A202399A4198169A8091A2028D7F8093B4
:10582000A2023A9A4298159A8091A2028B7F8093A5
:10583000A2023B9A4398149A809180008C7F8093B7
:10584000800080918100877E8860809381008091B4
:1058500080008F738093800080918100887F8260B8
:105860008093810080E090E4909389008093880089
:10587000109285001092840080916F008260809366
:105880006F001093A8020E941D2378940E947A4B07
:1058900098E288E10FB6F894A895809360000FBE57
:1058A000909360000F900F90DF91CF911F910F9117
:1058B000FF90EF900895179A8091A2028E7F8093B7
:1058C000A202169A8091A2028D7F8093A202159A5D
:1058D0008091A2028B7F8093A202149A0895E8E936
:1058E000FCE18491EF012196882321F00E946A1146
:1058F000FE01F7CFEDE6F4E18491EF0121968823D4
:1059000021F00E946A11FE01F7CFC8D5D4DF2FEF36
:105910008BE49DE1215080409040E1F700C0000001
:10592000F8942FEF84E39CE0215080409040E1F711
:1059300000C00000B3D5A895FECF2F923F924F92A2
:105940005F926F927F928F929F92AF92BF92CF920F
:10595000DF92EF92FF920F931F93CF93DF9300D0CC
:105960001F92CDB7DEB70E94EF566B017C0180918C
:105970000002882309F47BC08091FF02882309F488
:1059800076C04091DC055091DD056091DE05709197
:10599000DF0597018601041B150B260B370B37FD1E
:1059A00079C0833051F134F481300CF460C0E7E504
:1059B000F8E106C0843009F05AC0E7E5F8E13BC0E1
:1059C00084918F010F5F1F4F1B830A83882329F067
:1059D0000E946A11EA81FB81F3CFE8E1F4E184914E
:1059E0008F010F5F1F4F1B830A83882309F43FC079
:1059F0000E946A11EA81FB81F2CFE7E5F8E1849128
:105A00008F010F5F1F4F1B830A83882329F00E9499
:105A10006A11EA81FB81F3CFE1E0F4E184918F0127
:105A20000F5F1F4F1B830A83882309F10E946A11AD
:105A3000EA81FB81F3CF84918F010F5F1F4F1B839E
:105A40000A83882329F00E946A11EA81FB81F3CF3F
:105A5000E9EEF3E184918F010F5F1F4F1B830A83EF
:105A6000882329F00E946A11EA81FB81F3CF2091FB
:105A7000000230E0A8EEB3E00E948575C60ED71E86
:105A8000E81EF91EC092DC05D092DD05E092DE052D
:105A9000F092DF0580918204843030F40E94C413B8
:105AA000811102C00E9493120E94EF56C090A3027F
:105AB000D090A402E090A502F090A602C114D104F7
:105AC000E104F10489F100919C0210919D02209162
:105AD0009E0230919F020C0D1D1D2E1D3F1D6B015E
