:100000000C94850E0C94B60E0C94B60E0C94B60E91
:100010000C94B60E0C94B60E0C94B60E0C94B60E50
:100020000C94B60E0C94FF2B0C944D2C0C94262C97
:100030000C94B60E0C94B60E0C94B60E0C94B60E30
:100040000C94B60E0C94C04C0C94B60E0C94B60ED8
:100050000C94B60E0C94B60E0C9456350C94BB5BF7
:100060000C94B60E0C9480180C94B60E0C94B60E2C
:100070000C94B60E0C94B60E0C94B60E0C94B60EF0
:100080000C94B60E0C94B60E0C94B60E0C94B60EE0
:100090000C94B60E0C94B60E0C94B60E0C94B60ED0
:1000A0000C94B60E0C94B60E0C94B60E0C94B60EC0
:1000B0000C94B60E0C94B60E0C94B60E0C94B60EB0
:1000C0000C94B60E0C94B60E0C94B60E0C94B60EA0
:1000D0000C94B60E0C94B60E0C94B60E0C94B60E90
:1000E0000C94B60E385A3B5A2A5A2E5A345A725A1F
:1000F0003F5A435A495A4D5A515A575A5B5A5F5AB6
:10010000725A655A695A6D5AD75ADC5AE15AEB5AF3
:10011000F55A6E5BFF5A075B0F5B195B235B2D5B28
:100120003C5B465B6E5B505B5A5B645B084AD73B4B
:100130003BCE016E84BCBFFDC12F3D6C74319ABDB6
:1001400056833DDA3D00C77F11BED9E4BB4C3E91DA
:100150006BAAAABE000000803F05A84CCDB2D44EC9
:10016000B93836A9020C50B9918688083CA6AAAACB
:100170002ABE000000803F004E414E494E4954596E
:10018000494E46CDCCCC3D0AD7233C17B7D1387762
:10019000CC2B329595E6241FB14F0A000020410078
:1001A00000C84200401C4620BCBE4CCA1B0E5AAEC2
:1001B000C59D74434F4D4D554E49434154494F4E93
:1001C0000044525952554E004552524F5253004925
:1001D0004E464F004543484F0047322F4733206279
:1001E000616420706172616D65746572730A0000EC
:1001F00000A0400000A0400000A04000000000253A
:1002000069730025696D20256973002569682025BB
:10021000696D20256973002569642025696820259A
:10022000696D202569730025697920256964202579
:1002300069682025696D20256973005072696E74A4
:100240002074696D653A2000D401CF01C801C10155
:10025000B3016F66660044454255473A004B494C2E
:100260004C45442E20004D3131332053006F6B003C
:1002700020573A00544845524D414C5F50524F541C
:10028000454354494F4E004155544F5245504F52EB
:10029000545F53445F53544154555300454D4552A8
:1002A00047454E43595F50415253455200434153D5
:1002B000455F4C494748545F4252494748544E4570
:1002C000535300544F47474C455F4C49474854539C
:1002D00000534F4654574152455F504F57455200C7
:1002E0004255494C445F50455243454E54004C459D
:1002F00056454C494E475F44415441005A5F505265
:100300004F4245004155544F4C4556454C005052C4
:10031000494E545F4A4F420050524F475245535343
:10032000004155544F5245504F52545F54454D5023
:1003300000564F4C554D4554524943004545505287
:100340004F4D0053455249414C5F584F4E5F584FF7
:100350004646004649524D574152455F4E414D4534
:100360003A4D61726C696E206275676669782D31ED
:100370002E312E7820284769746875622920534FE2
:10038000555243455F434F44455F55524C3A68745C
:100390007470733A2F2F6769746875622E636F6D7E
:1003A0002F4D61726C696E4669726D776172652F4F
:1003B0004D61726C696E2050524F544F434F4C5FE9
:1003C00056455253494F4E3A312E30204D41434805
:1003D000494E455F545950453A3344205072696E36
:1003E0007465722045585452554445525F434F55E9
:1003F0004E543A3120555549443A6365646532613B
:1004000032662D343161322D343734382D39623132
:10041000322D6335356336326633363766660A0009
:100420002F2F2000205400205200416363656C652B
:10043000726174696F6E3A2050002066697273743D
:100440000A005A0059005800486F6D6520000000EE
:1004500000000000000000000000546F6F20666183
:10046000722066726F6D207265666572656E636577
:1004700020706F696E740A00FFFFFF205A00205938
:1004800000580020204D61783A2000205A00205961
:1004900000580020204D696E3A20004F66660053D8
:1004A0006F667420656E6473746F70733A200020F9
:1004B000466C6F773A2000000125311D0CFFFFFFCD
:1004C0002924301C0BFFFFFF27232F1B0AFFFFFFF0
:1004D000FF43FFFF040806FFFF222B1AFFFF420421
:1004E0003803FF3620643A0020693A0020703A0051
:1004F000496E76616C6964206578747275646572A2
:100500000A0043290A0061626C656420286D696EE7
:100510002074656D702000436F6C64206578747280
:10052000756465732061726520004E6F206361738E
:1005300065206C696768740A00454550524F4D202C
:1005400064697361626C65640A004163746976650D
:100550002045787472756465723A2000496E766140
:100560006C69642065787472756465720A006F6BDB
:1005700000205A3A0020593A0020583A00656E642B
:1005800073746F7073206869743A2000656E7175BA
:10059000657565696E672022004B494C4C45442EB9
:1005A00020005072696E7465722073746F7070658C
:1005B000642064756520746F206572726F72732E8B
:1005C0002046697820746865206572726F722061B8
:1005D0006E6420757365204D39393920746F20722F
:1005E0006573746172742E202854656D7065726134
:1005F000747572652069732072657365742E20535B
:100600006574206974206166746572207265737404
:10061000617274696E67290A004E6F2043686563D2
:100620006B73756D2077697468206C696E65206ED8
:10063000756D6265722C204C617374204C696E6517
:100640003A2000636865636B73756D206D69736D27
:10065000617463682C204C617374204C696E653A38
:1006600020004C696E65204E756D6265722069735D
:10067000206E6F74204C617374204C696E65204E3F
:10068000756D6265722B312C204C617374204C693E
:100690006E653A20004D3131300020496E76616C34
:1006A00069642065787472756465722000000000CA
:1006B0000000000000000000000000A04200004810
:1006C0004300004843486F6D696E67206661696C3E
:1006D0006564002C20002C200050726F74656374D8
:1006E00065642050696E0A0020573A00205A3A008B
:1006F00020593A0020436F756E7420583A00204507
:100700003A00205A3A0020593A00583A003A004339
:1007100061703A00526573656E643A200020746F10
:100720006F206C6F6E6720657874727573696F6E79
:100730002070726576656E7465640A0020636F6C64
:100740006420657874727573696F6E207072657657
:10075000656E7465640A0024F4D43050C38E20C2E0
:10076000A24017828B7011127A910D816CD90AA860
:1007700061E108C7586607615143061E4B5D05C11C
:1007800045A7041A411104093D980371393103400A
:1007900036DB0265339102D4305402802E1D026391
:1007A0002CEE01752AC501B028A001102781018F08
:1007B0002564012B244B01E0223401AC211F018D63
:1007C000200D01801FFC00841EED00971DDF00B886
:1007D0001CD200E61BC600201BBC00641AB200B28B
:1007E00019A8000A19A0006A189900D117910040B1
:1007F000178B00B516840031167E00B31579003AC8
:10080000157300C7146F0058146A00EE1366008851
:1008100013630025135E00C7125B006C12570015AE
:10082000125400C111510070114F0021114B00D61C
:100830001049008D1047004610440002104200C0CD
:100840000F4000800F3E00420F3C00060F3B00CBE4
:100850000E3800930E37005C0E3500270E3400F37F
:100860000D3200C10D3100900D3000600D2E0032B0
:100870000D2D00050D2C00D90C2B00AE0C29008588
:100880000C29005C0C2700350C27000E0C2600E814
:100890000B2400C40B2400A00B23007D0B23005A63
:1008A0000B2100390B2100180B2000F80A1F00D97A
:1008B0000A1E00BB0A1E009D0A1D00800A1D00635F
:1008C0000A1C00470A1B002C0A1B00110A1A00F719
:1008D000091A00DD091900C4091900AB09190092B1
:1008E0000917007B091800630917004C0916003628
:1008F000091600200916000A091500F5081500E080
:10090000081400CC081400B8081400A408140090BF
:100910000813007D0812006B0813005808120046E7
:1009200008120034081100230811001208110001F8
:10093000081100F0071000E0071000D0071000C0F9
:10094000071000B0070F00A107100091070E0083E9
:10095000070F0074070F0065070E0057070E0049C8
:10096000070E003B070D002E070E0020070D001399
:10097000070D0006070D00F9060C00ED060D00E05E
:10098000060C00D4060C00C8060C00BC060C00B017
:10099000060C00A4060B0099060C008D060B0082C5
:1009A000060B0077060B006C060B0061060A005769
:1009B000060B004C060A0042060A0038060A002E02
:1009C000060A0024060A001A060A00100609000793
:1009D000060A00FD050900F4050900EB050900E21F
:1009E000050900D9050900D0050900C7050900BEA1
:1009F000050900B5050800AD050800A50509009C1E
:100A0000050800940508008C050800840508007C92
:100A1000050800740508006C050700650508005D01
:100A2000050700560508004E05070047050700406A
:100A300005080038050700310507002A05070023CF
:100A40000507001C050600160507000F050700082E
:100A500005060002050700FB040600F5040700EE8A
:100A6000040600E8040600E2040700DB040600D5E3
:100A7000040600CF040600C9040600C3040600BD36
:100A8000040600B7040600B1040500AC040600A685
:100A9000040600A00405009B0406009504050090D0
:100AA0000406008A04050085040500800406007A17
:100AB00004050075040500700405006B040500665C
:100AC000040500610405005C04050057040500529C
:100AD0000405004D04050048040500430405003EDC
:100AE0000404003A04050035040500300404002C19
:100AF00004050027040400230405001E0404001A52
:100B000004040016040500110404000D0404000987
:100B10000405000404040000040400FC030400F8BD
:100B2000030400F4030400F0030400EC030400E8F1
:100B3000030400E4030400E0030400DC030400D821
:100B4000030400D4030400D0030400CC030400C851
:100B5000030300C503030024F404D9201BC40C5C68
:100B60000E9804C4095F0265077101F405F900FBE2
:100B700004B30048048700C103690058035500030B
:100B8000034500BE023A008402310053022A0029C4
:100B900002250004022000E4011C00C8011900AF76
:100BA0000117009801140084011300710110006105
:100BB00001100051010E0043010D0036010B002B06
:100BC000010B0020010B00150109000C01090003B5
:100BD000010800FB000800F3000800EB000700E438
:100BE000000600DE000600D8000600D2000600CC99
:100BF000000500C7000500C2000500BD000400B9E3
:100C0000000400B5000400B1000400AD000400A918
:100C1000000400A5000300A20003009F0004009B45
:100C20000003009800030095000200930003009069
:100C30000003008D0002008B000300880002008684
:100C400000020084000300810002007F0002007D9A
:100C50000002007B000200790002007700010076AC
:100C60000002007400020072000100710002006FB7
:100C70000002006D0001006C0002006A00010069C2
:100C800000020067000100660001006500010064C9
:100C90000002006200010061000100600001005FCD
:100CA0000002005D0001005C0001005B0001005AD1
:100CB00000010059000100580001005700010056D2
:100CC00000010055000100540001005300000053D2
:100CD0000001005200010051000100500001004FCE
:100CE0000001004E0000004E0001004D0001004CCC
:100CF0000001004B0000004B0001004A00010049C8
:100D000000010048000000480001004700010046C3
:100D100000000046000100450000004500010044BD
:100D200000010043000000430001004200000042B7
:100D30000001004100000041000100400001003FAF
:100D40000000003F0001003E0000003E0001003DA9
:100D50000000003D0001003C0000003C0000003CA1
:100D60000001003B0000003B0001003A0000003A97
:100D7000000100390000003900010038000000388F
:100D80000000003800010037000000370001003685
:100D9000000000360000003600010035000000357C
:100DA0000000003500010034000000340000003471
:100DB0000001003300000033000000330001003266
:100DC000000000320000003200010031000000315C
:100DD0000000003100010030000000300000003051
:100DE0000001002F0000002F0000002F0000002F46
:100DF0000001002E0000002E0000002E0001002D3A
:100E00000000002D0000002D0000002D0001002C2E
:100E10000000002C0000002C0000002C0001002B22
:100E20000000002B0000002B0000002B0001002A16
:100E30000000002A0000002A0000002A000100290A
:100E400000000029000000290000002900000029FE
:100E500000010028000000280000002800000028F1
:100E600000000028000100270000002700000027E4
:100E700000000027000000270001002600000026D7
:100E800000000026000000260000002600010025CA
:100E900000000025000000250000002500000025BE
:100EA00000000025000100240000002400000024B0
:100EB00000000024000000240001002300000023A3
:100EC0000000002300000023000000230000002396
:100ED0000000002300010022000000220000002288
:100EE000000000220000002200000022000100217A
:100EF000000000210000002100000021000000216E
:100F0000000000210000002100010020000000205E
:100F10000000002000000020000000200000002051
:100F200000000020000000200001001F0000001F42
:100F30000000001F0000001F0000001F0000001F35
:100F40000000001F0001001E0000001E0000001E27
:100F50000000001E0000003930000033250000872B
:100F6000190000B00F0000DB080000BD0400007491
:100F70000200003F010000627573793A20706175CC
:100F800073656420666F7220696E7075740A006202
:100F90007573793A2070617573656420666F72208D
:100FA000757365720A00627573793A2070726F63A7
:100FB000657373696E670A004B494C4C45442E209B
:100FC000004B494C4C206361757365642062792045
:100FD000746F6F206D75636820696E6163746976E4
:100FE000652074696D65202D2063757272656E745D
:100FF00020636F6D6D616E643A20005072696E748B
:1010000065722068616C7465642E206B696C6C2855
:10101000292063616C6C6564210A002020506C619A
:101020006E6E657242756666657242797465733A72
:1010300020002046726565204D656D6F72793A20FB
:1010400000436F6D70696C65643A204170722031A5
:101050003920323031390A00207C20417574686FA4
:10106000723A20323031392D30332D31313B205618
:101070006F6C756D6574726963204C756D656E205B
:10108000776974682045696E737920616E642049C0
:1010900047555320616E64204241524943554441B3
:1010A000206669726D77617265204F4E0A0032309A
:1010B00031382D30372D333100204C617374205579
:1010C0007064617465643A20006275676669782DA2
:1010D000312E312E780A004D61726C696E002053FA
:1010E0006F6674776172652052657365740A0020BB
:1010F0005761746368646F672052657365740A0092
:101100002042726F776E206F75742052657365741C
:101110000A002045787465726E616C2052657365B3
:10112000740A00506F77657255700A0073746172AB
:10113000740A002064726976657220637572726544
:101140006E743A20005761726E696E673A20486F7C
:101150006D696E672042756D702044697669736FA2
:1011600072203C20310A000202040000803F00008F
:101170000000000000400000A042000048430000C2
:10118000484348617264636F6465642044656661C6
:10119000756C742053657474696E6773204C6F614D
:1011A0006465640A00320000003200000032000072
:1011B000003200000000002041000020410000201B
:1011C000410000204100004844000048440000481D
:1011D000440000484420204D3930360020286D6DF1
:1011E0002900205430204500205A00205900205862
:1011F0000053746570706572206472697665722040
:1012000063757272656E743A0A00204400204900CA
:1012100020204D33303120500050494420736574F4
:1012200074696E67733A0A00205A00205900202022
:101230004D323036205800486F6D65206F666673FA
:1012400065743A0A00204500205A002059002058B1
:101250000020540020530020204D32303520510012
:1012600020453C6D61785F655F6A65726B3E00206A
:10127000583C6D61785F785F6A65726B3E20593CBF
:101280006D61785F795F6A65726B3E205A3C6D6173
:10129000785F7A5F6A65726B3E00416476616E6367
:1012A00065643A20513C6D696E5F7365676D656E6C
:1012B000745F74696D655F75733E20533C6D696E34
:1012C0005F66656564726174653E20543C6D696E4D
:1012D0005F74726176656C5F666565647261746582
:1012E0003E0020540020520020204D323034205047
:1012F00000416363656C65726174696F6E20287567
:101300006E6974732F7332293A20503C7072696E83
:10131000745F616363656C3E20523C7265747261F8
:1013200063745F616363656C3E20543C74726176E4
:10133000656C5F616363656C3E0A00204500205A5E
:101340000020590020204D3230312058004D617866
:10135000696D756D20416363656C65726174696F59
:101360006E2028756E6974732F7332293A0A002033
:101370004500205A0020590020204D32303320589B
:10138000004D6178696D756D206665656472617484
:1013900065732028756E6974732F73293A0A0020CB
:1013A0004500205A0020590020204D393220580095
:1013B00053746570732070657220756E69743A0A93
:1013C0000020204D3230302044300A0020204D32A1
:1013D00030302044002044697361626C65640A0007
:1013E00046696C616D656E742073657474696E67AF
:1013F000733A002020473231202020203B005452F5
:1014000049474745524544006F70656E003A2000D9
:101410007A5F6D696E00795F6D696E00785F6D69E6
:101420006E005265706F7274696E6720656E6473CA
:10143000746F70207374617475730A00000000018A
:1014400000000001000080005555550000004000DC
:1014500033333300AAAA2A00499224000000200056
:10146000C7711C0099991900D145170055551500F1
:101470003BB11300244912001111110000001000AB
:101480000F0F0F00E3380E0043790D00CCCC0C0099
:10149000C3300C00E8A20B0064210B00AAAA0A00CA
:1014A000703D0A009DD80900427B09009224090082
:1014B000DCD30800888808001042080000000800FB
:1014C000F0C107008787070075500700711C0700EF
:1014D0003EEB0600A1BC06006990060066660600A9
:1014E000703E06006118060017F4050074D105006F
:1014F0005BB00500B290050062720500555505000D
:1015000078390500B81E0500050505004EEC0400FD
:1015100087D40400A1BD040090A7040049920400F0
:10152000C17D0400EE690400C75604004444040071
:101530005C32040008210400411004000000040093
:101540003FF00300F8E0030026D20300C3C303000A
:10155000CCB503003AA803000A9B0300388E0300B1
:10156000C08103009F750300D0690300505E030033
:101570001D53030034480300913D0300333303003F
:1015800016290300381F030097150300300C0300D1
:10159000030303000BFA020049F10200BAE802005B
:1015A0005CE002002DD802002DD0020059C80200D4
:1015B000B0C0020031B90200DAB10200AAAA0200EA
:1015C000A0A30200BC9C0200FA9502005C8F0200FE
:1015D000DF88020082820200457C0200277602003A
:1015E00027700200436A02007C640200D05E0200A1
:1015F0003F590200C853020010006400F03F64002D
:101600004534004533004532004531004530005A2D
:1016100032005932005832005A0059005800700107
:101620002C0190012701B0012201C0011D01F00130
:1016300018011002130130020E016002090190022C
:101640000401C002FF000003FA004003F50080031C
:10165000F000D003EB002004E6007004E100E00499
:10166000DC004005D700C005D2004006CD00D00602
:10167000C8008007C3003008BE00F008B900C009E8
:10168000B400B00AAF00B00BAA00D00CA500000E49
:10169000A000500F9B00C010960050129100001443
:1016A0008C00C0158700B0178200B0197D00D01BD8
:1016B0007800001E730040206E0090226900F02424
:1016C000640040275F0090295A00E02B5500102E3F
:1016D000500020304B0010324600E033410090357E
:1016E0003C001037370070383200A0392D00B03A76
:1016F0002800A03B2300603C1E00103D1900903DD7
:101700001400103E0F00703E0A00C03E0500003F6E
:101710000000403FFBFF803FF6FFC03FF1FF453137
:1017200020544845524D414C2052554E4157415945
:101730000042454420544845524D414C2052554E9C
:101740004157415900546865726D616C2052756E45
:1017500061776179004531204572723A204D4158D8
:1017600054454D50004572723A204D415854454DF4
:101770005020424544004D415854454D502074720C
:1017800069676765726564004531204572723A2069
:101790004D494E54454D50004572723A204D494EC8
:1017A00054454D5020424544004D494E54454D50FE
:1017B0002074726967676572656400202F0020429B
:1017C000403A0020403A001C161A16181615161238
:1017D000160F160C160916061603160016747275E7
:1017E000650066616C7365002074656D706572617B
:1017F00074757265207072657761726E207472699B
:101800006767657265643A2000207072657761725F
:101810006E20666C616720636C65617265640A00A6
:1018200020746F6F206C6F6E6720657874727573AB
:10183000696F6E2070726576656E7465640A00204B
:10184000636F6C6420657874727573696F6E207055
:10185000726576656E7465640A006563686F3A0048
:1018600000000A0B02090C0D0E080703040100001A
:101870000000000000000000000000000000000068
:101880000000000000000000000000001211100025
:101890000000000000000000000000000000000048
:1018A0000000000000000000000000000000000038
:1018B000000000000000556E6B6E6F776E20636F46
:1018C0006D6D616E643A2022000000200023002626
:1018D0000029002C002F0032000001000003010647
:1018E00001090100002200250028002B002E0031F4
:1018F00000340002010000050108010B0105050587
:1019000005070508080808020202020A0A08080476
:1019100004040401010101010101010303030303A4
:10192000030303040707070C0C0C0C0C0C0C0C0233
:1019300002020206060606060606060B0B0B0B0B3A
:101940000B0B0B07070A0A0A0A0A0A050505040415
:101950000408080102102020080810204010204030
:101960008002010201080402010102040810204063
:101970008080402010080402018004020180402081
:1019800010080402010804020101020408102040AA
:1019900080010204081020408010080408801020F4
:1019A000400440801020400480FFFDFCFAF8F6F46B
:1019B000F2F0EEECEAE9E7E5E3E1E0DEDCDAD9D7E4
:1019C000D5D4D2D0CFCDCBCAC8C7C5C3C2C0BFBD86
:1019D000BCBAB9B7B6B4B3B2B0AFADACAAA9A8A6F9
:1019E000A5A4A2A1A09E9D9C9A9998979594939244
:1019F000908F8E8D8B8A8988878684838281807F71
:101A00007E7D7B7A797877767574737271706F6E7C
:101A10006D6C6B6A696867666564636261605F5E6E
:101A20005D5C5B5A59585857565554535251505053
:101A30004F4E4D4C4B4A4A4948474646454443421F
:101A40004241403F3E3E3D3C3B3B3A3938383736D9
:101A50003535343332323130302F2E2E2D2C2B2B86
:101A60002A29292827272625252423232221212026
:101A7000201F1E1E1D1C1C1B1B1A191918181716B7
:101A800016151514131312121111100F0F0E0E0D3F
:101A90000D0C0C0B0A0A09090808070706060505BC
:101AA00004040303020201000023646566696E6595
:101AB0002044454641554C545F4B642000236465E7
:101AC00066696E652044454641554C545F4B69201C
:101AD0000023646566696E652044454641554C5453
:101AE0005F4B702000504944204175746F74756ECF
:101AF000652066696E69736865642120507574207D
:101B0000746865206C617374204B702C204B6920C5
:101B1000616E64204B6420636F6E7374616E7473C6
:101B20002066726F6D2062656C6F7720696E746FCE
:101B300020436F6E66696775726174696F6E2E6897
:101B40000A00504944204175746F74756E652066B3
:101B500061696C6564212074696D656F75740A0034
:101B6000453120544845524D414C2052554E415725
:101B7000415900546865726D616C2052756E6177D1
:101B800061790045312048656174696E672066613E
:101B9000696C65640048656174696E672066616997
:101BA0006C656400504944204175746F74756E65AE
:101BB000206661696C6564212054656D7065726191
:101BC0007475726520746F6F20686967680A0020F9
:101BD0004B643A2000204B693A2000204B703A2099
:101BE000000A20436C617373696320504944200AE2
:101BF000002054753A2000204B753A2000206D617A
:101C0000783A2000206D696E3A200020643A200066
:101C100020626961733A2000504944204175746F15
:101C200074756E65206661696C6564212054656D0C
:101C3000706572617475726520746F6F2068696772
:101C4000680A00504944204175746F74756E6520B0
:101C500073746172740A00504944204175746F7442
:101C6000756E65206661696C65642120426164203F
:101C70006578747275646572206E756D6265720A3E
:101C8000006265640A002C2073797374656D20739B
:101C9000746F7070656421204865617465725F4976
:101CA000443A20004265642068656174696E67206B
:101CB0006661696C65640048656174696E67206679
:101CC00061696C65640045312048656174696E67BF
:101CD000206661696C65640048656174696E67209F
:101CE0006661696C65640000002100240027002AF9
:101CF000002D003000330001010000040107010A3B
:101D0000014572726F723A00177211241FBECFEF35
:101D1000D1E2DEBFCDBF00E00CBF12E0A0E0B2E038
:101D2000E8E5FBEF00E00BBF02C007900D92AA357B
:101D3000B107D9F72FE0AAE5B2E001C01D92A833A0
:101D4000B207E1F71EE0C5E8DEE000E006C021973B
:101D50000109802FFE010E946F7DC438D10780E009
:101D60000807A9F70E94375C0C94AA7D0C94000028
:101D700080918A0590918B05981759F0E92FF0E032
:101D8000E65FFA4F80819F5F9F7790938B0590E08D
:101D900008958FEF9FEF0895CF93DF9380E00E9427
:101DA0004351CCE8D5E0688379838A839B8381E0C3
:101DB0000E9443516C837D838E839F8382E00E94C7
:101DC0004351688779878A879B87DF91CF910895F0
:101DD000FF920F931F93CF93DF93FC0120812B334E
:101DE00019F1D0918804D430F8F4F62EBC01C091DA
:101DF000A4040C2F10E0F0E6CF9FC00111248A5FED
:101E00009C4F0E94987DF801E450FD4FF082CF5F17
:101E1000C43018F4C093A40402C01092A404DF5F7D
:101E2000D093880481E001C080E0DF91CF911F91C1
:101E30000F91FF900895CF92DF92EF920F931F932F
:101E4000CF93DF9300D01F92CDB7DEB7E090CC0CDC
:101E500019821A821B821C82CE0101966C010DE24E
:101E600012E029ED3CE045ED5CE061ED7CE08DECBD
:101E70009CE00E94F5370F900F900F900F90DF912C
:101E8000CF911F910F91EF90DF90CF9008950F9316
:101E90001F93CF93DF9394E0899FE00111248E017B
:101EA0000D521D4FFE01E953FD4FDE01A857BD4FF6
:101EB0002D913D914D915C916081718182819381E1
:101EC0000E947B7AF8016083718382839383FE0191
:101ED000E355F94F85919591A591B491FE01E15299
:101EE000FD4F80839183A283B383FE01E754F94FB2
:101EF00085919591A591B491CB5FDD4F88839983AE
:101F0000AA83BB83DF91CF911F910F91089529ED93
:101F10003CE045ED5CE061ED7CE08DEC9CE00C94F8
:101F2000415080916F00982F927081FF05C0809181
:101F30006F008D7F80936F0080910D0F80930C0F49
:101F400080930B0F80930A0F84E68093090F28EE8D
:101F500033E03093B30C2093B20C992329F0809195
:101F60006F00826080936F0081E08093E30C0E9499
:101F7000315012DF8CE0ECE8F5E0ADECBCE0019014
:101F80000D928A95E1F7C3CF2F923F924F925F92C5
:101F90006F927F929F92AF92BF92CF92DF92EF9219
:101FA000FF920F931F93CF93DF93CDB7DEB72897A0
:101FB0000FB6F894DEBF0FBECDBF1A012B01922ED3
:101FC000F32EC82ED12CF601E858FB4FE491AA2439
:101FD000A3941E160CF4A12CBB24B39420E030E093
:101FE000A901C201B1010E94A17C18160CF0B12C0C
:101FF000CC0CDD1CCC0CDD1CC6018353934F3C0183
:10200000FC01108211821282138281DFF30120828F
:10201000318242825382E090CC0C20E030E0A90172
:10202000B801892D9F2D0E94677681110AC0F601A3
:10203000E151FE4F85919591A591B4918C019A2E15
:10204000FB2EC801A92DBF2D8D839E83AF83B8873A
:1020500019821A821B821C82CE0101966C018E01AC
:102060000B5F1F4F29ED3CE045ED5CE061ED7CE04E
:102070008DEC9CE00E94F5370E943150AB1459F072
:1020800080918604882319F01092860404C085ECA0
:1020900096E00E949A2528960FB6F894DEBF0FBEF0
:1020A000CDBFDF91CF911F910F91FF90EF90DF9007
:1020B000CF90BF90AF909F907F906F905F904F9028
:1020C0003F902F9008958091C4029091C50200978F
:1020D00031F04AE050E060E070E00C94BB7360E0E7
:1020E00070E0CB010895EFDF97FD0AC0ECDF6F3F92
:1020F00071058105910509F02CF4E5DF862F08951F
:1021000080E008958FEF08958091C4029091C502F8
:10211000892B31F0E8DF91E0811103C090E001C02C
:1021200091E0892F08950F931F93CF938091C4025C
:102130009091C502009711F1FC018F01C1912C2FE4
:102140002F7DA9F0C53411F0C536B9F7F80110821A
:1021500060E070E08091C4029091C5020E946872B4
:10216000F801C083562F472F382F292F0BC060E06E
:1021700070E0CF911F910F910C94687250E040E095
:1021800030E020E0652F742F832F922FCF911F9185
:102190000F91089581548A3108F042C0E82FF0E091
:1021A00040917402509175026091760270917702AD
:1021B00004C076956795579547958A95D2F7842FF1
:1021C000817040FF2FC0E65AFD4F9081992309F19D
:1021D000E091BA0CF091BB0CE90FF11D908120ED5C
:1021E000290F2A3098F09E3211F491810CC09D3253
:1021F00011F09B3271F4918120ED290F2A3030F0DB
:102200009E3239F4928190539A3018F42E2F9F2FDA
:1022100002C020E090E02093C4029093C50208958C
:1022200080E008950895B6DF882341F081E0209191
:10223000C4023091C502232B09F480E008959F92D7
:10224000AF92BF92CF92DF92EF92FF920F931F93C4
:10225000CF93DF938FE3A82E82E0B82E0CEB1CE027
:10226000CDECDCE093EDC92E92E0D92E20E0E22EF9
:1022700023E0F22E912CF50181915F018BDF882301
:1022800001F151DFF7012081211104C020910403E5
:10229000222339F0288139814A815B810E947B7A2F
:1022A0000AC0F3E09F1639F0F601208131814281A6
:1022B00053810E947A7AF8016083718382839383C9
:1022C00009C088819981AA81BB81F80180839183AB
:1022D000A283B38393940C5F1F4F2496F4E0CF0E38
:1022E000D11C2FEFE21AF20A84E09812C4CF86E4E0
:1022F0009ADF8823B9F017DF20E030E0A9010E94BF
:10230000A17C18167CF40FDF20E030E040E752E4B7
:102310000E94577B60932D0270932E0280932F02B0
:1023200090933002DF91CF911F910F91FF90EF902A
:10233000DF90CF90BF90AF909F9008959091C00094
:1023400095FFFCCF8093C60008958F929F92AF9225
:10235000BF92CF92DF92EF92FF920F931F93CF9392
:10236000DF93CDB7DEB728970FB6F894DEBF0FBE68
:10237000CDBF8091A10C83FDA1C0C090C80CD090AE
:10238000C90CE090CA0CF090CB0C2091D90C309184
:10239000DA0C4091DB0C5091DC0CC701B6010E94B5
:1023A0006776882309F48AC080918C0681112FC03A
:1023B00060918D0670918E0680918F0690919006A7
:1023C0000E94BF7B20912B0230912C026217730771
:1023D000F4F4C092D90CD092DA0CE092DB0CF092BB
:1023E000DC0CEAE5F8E184918F010F5F1F4F882331
:1023F00019F0A4DFF801F7CFECE3F7E084918F0147
:102400000F5F1F4F882319F099DFF801F7CF8090F5
:10241000C80C9090C90CA090CA0CB090CB0C209125
:10242000D90C3091DA0C4091DB0C5091DC0CC501D9
:10243000B4010E947A7A6B017C0120E030E0A901AE
:102440000E94A17C87FF04C0F7FAF094F7F8F0949B
:10245000E091CC0C84E0E89FF0011124E95DFD4F90
:102460002081318142815381C701B6010E94CC761F
:1024700020E030E048E453E40E94A17C1816F4F414
:102480008092D90C9092DA0CA092DB0CB092DC0C0A
:10249000EAE5F8E184918F010F5F1F4F882319F05F
:1024A0004DDFF801F7CFEDE1F7E084918F010F5F89
:1024B0001F4F882319F042DFF801F7CF60913102F6
:1024C00070913202072E000C880B990B0E946D76DA
:1024D00020912D0230912E0240912F025091300216
:1024E0000E94CC762AE037ED43E25CE30E94CC7692
:1024F0006D837E838F839887E090CC0C19821A823B
:102500001B821C82CE0101966C018E010B5F1F4F56
:1025100028EC3CE044EC5CE060EC7CE08CEB9CE084
:102520000E94F53780E1ECEBFCE0ADECBCE0019003
:102530000D928A95E1F728960FB6F894DEBF0FBE8C
:10254000CDBFDF91CF911F910F91FF90EF90DF9062
:10255000CF90BF90AF909F908F900895CF93DF93CF
:10256000E1E0FDE18491EF012196882319F0E6DE98
:10257000FE01F8CFE9EDF6E08491EF012196882382
:1025800019F0DCDEFE01F8CFDF91CF910895CF92F4
:10259000DF92EF92FF920F931F93CF93DF9380917F
:1025A0008804843008F01BC1E3DBAC0197FD17C140
:1025B000982F20911F0D3091200D8A3019F09D30F9
:1025C00009F0DCC0109209052115310519F40E94AB
:1025D0007152E5CFF901E755FB4F10821092200DA3
:1025E00010921F0DC9EAD4E0FE018191803211F4EE
:1025F000EF01FACF8E3409F07EC0209709F47BC03A
:1026000065E976E0CE010E941F768C01892B41F0AE
:102610006EE470E0CE0104960E94847D009709F478
:10262000CE014AE050E060E070E001960E94BB738A
:102630006093A5047093A6048093A7049093A804C4
:10264000C090210DD090220DE090230DF090240D2C
:102650002FEFC21AD20AE20AF20A6C157D058E0526
:102660009F0529F0012B19F482E696E02AC06AE260
:1026700070E0CE010E949F7D9C01009701F1982F90
:102680009C1B10E0992339F09150FE01E90FF11DD8
:1026900080811827F7CF4AE050E060E070E0C90180
:1026A00001960E94BB73012F10E020E030E060171C
:1026B00071078207930779F083E496E002C089E10D
:1026C00096E0DF91CF911F910F91FF90EF90DF90F7
:1026D000CF900C94055C8091A5049091A604A091E4
:1026E000A704B091A8048093210D9093220DA0938C
:1026F000230DB093240D8091130281111EC067E455
:1027000070E0CE010E94847D0097B9F04AE050E06D
:1027100060E070E001960E94BB7364307105810532
:10272000910558F4E2EAF5E084918F010F5F1F4FA5
:10273000882319F003DEF801F7CF6AE472E0CE01D6
:102740000E948F7D892B11F4109214026FE472E0C5
:10275000CE010E948F7D892B21F489E995E00E94AA
:102760009A2564E572E0CE010E948F7D892B09F4E1
:10277000D8DB61E089EA94E02BDB11CF2F353105FE
:102780000CF00DCF9C35B9F4F3DA97FD08CF20910A
:102790000905211104CF20911F0D3091200DA901B1
:1027A0004F5F5F4F5093200D40931F0DF901E75588
:1027B000FB4F8083F4CE9B3319F481E080930905AD
:1027C000809109058111EBCEC90101969093200DEE
:1027D00080931F0DF901E755FB4F4083E0CEDF9159
:1027E000CF911F910F91FF90EF90DF90CF900895C0
:1027F000BF92CF92DF92EF92FF920F931F93CF93EE
:10280000DF93CDB7DEB76E970FB6F894DEBF0FBE7D
:10281000CDBF6091A2047091A3046115710551F1BF
:102820004DE150E0CE0101967C010E9410761E8E93
:10283000F7018F010E191F09B190BB2021F19AE019
:10284000B912F7CF20C0B7018CE895E00E942B4E5B
:1028500082E274DD8AE072DDBB2051F10F5F1F4F11
:102860008091A2049091A304080F191F1093A30450
:102870000093A20481E02091A2043091A304232BB1
:10288000D1F480E018C0F701E00FF11F108260E082
:10289000C7019EDA882371F3EAE5F8E184916F01BC
:1028A0009FEFC91AD90A882371F248DDF601F6CFE5
:1028B00000E010E0DBCF6E960FB6F894DEBF0FBEDF
:1028C000CDBFDF91CF911F910F91FF90EF90DF90DF
:1028D000CF90BF9008958F929F92AF92BF92EF9248
:1028E000FF920F931F93CF93DF93CDB7DEB7A097DF
:1028F0000FB6F894DEBF0FBECDBF6115710581051F
:10290000910589F100E0842E912CA12CB12C102F7F
:10291000EE24E394F12CEC0EFD1EE00EF11C07FDFD
:10292000FA94A50194010E943F7AF7016083B901EE
:10293000CA010F5F611571058105910541F71F3FC0
:1029400021F1E1E0F0E0EC0FFD1FE10FF11D17FDBB
:10295000FA9580818A3010F097E301C090E3890FE7
:10296000EDDC1150ECCF80E3A0960FB6F894DEBFFB
:102970000FBECDBFDF91CF911F910F91FF90EF90D0
:10298000BF90AF909F908F90D9CCA0960FB6F8943F
:10299000DEBF0FBECDBFDF91CF911F910F91FF9092
:1029A000EF90BF90AF909F908F900895EF92FF921D
:1029B0000F931F93CF93DF937C0184E534DCD82FF2
:1029C000882321F190DBC82F1816E4F4EAE5F8E13A
:1029D00084918F010F5F1F4F882319F0AFDCF8013E
:1029E000F7CF8DE4ABDCB70180E090E04AE073DF25
:1029F0006C2FCC0F770B8AE996E00E94124E8AE08A
:102A00009DDC08C08093FB02D0E004C08091CC0C18
:102A10008093FB028D2FDF91CF911F910F91FF903B
:102A2000EF900895CF92DF92EF92FF926B017C01BD
:102A300097FF0AC08DE282DCF094E094D094C094B9
:102A4000C11CD11CE11CF11C4AE0C701B601FF907A
:102A5000EF90DF90CF903FCFCF93DF9380918A05A7
:102A600080938B05E4E1F7E08491EF0121968823C0
:102A700019F064DCFE01F8CF8091210D9091220DB8
:102A8000A091230DB091240DBC01CD016F5F7F4F4C
:102A90008F4F9F4FC7DF8AE051DCE0918704F0E061
:102AA000E450FD4F8081882321F0DF91CF910C9479
:102AB0006131DF91CF910895FF920F931F93CF93D0
:102AC000DF93F82E092F162FEFE0F7E08491EF0146
:102AD0002196882319F032DCFE01F8CFEF2DF02F7C
:102AE0008491EF012196882319F028DCFE01F8CFAC
:102AF000EDE0F7E08491EF012196882319F01EDCC8
:102B0000FE01F8CF612F70E080E090E08BDF8AE07B
:102B1000DF91CF911F910F91FF9010CC4F925F9258
:102B20006F927F928F929F92AF92BF92CF92DF92DD
:102B3000EF92FF92CF93DF932091D3023091D40292
:102B40004091D5025091D6026091CD0C7091CE0C7F
:102B50008091CF0C9091D00C0E947B7AAB01BC018C
:102B60008AE097E00E94F54D2091D7023091D8027B
:102B70004091D9025091DA026091D10C7091D20C3F
:102B80008091D30C9091D40C0E947B7AAB01BC0154
:102B900086E097E00E94F54D2091DB023091DC0247
:102BA0004091DD025091DE026091D50C7091D60CFF
:102BB0008091D70C9091D80C0E947B7AAB01BC011C
:102BC00082E097E00E94F54D4091D90C5091DA0CCB
:102BD0006091DB0C7091DC0C8EEF96E00E94F54D5D
:102BE00080916F00982F927081FF05C080916F00D7
:102BF0008D7F80936F0040907802509079026090B2
:102C00007A0270907B0280907C0290907D02A0906E
:102C10007E02B0907F02C0908002D0908102E0904E
:102C20008202F0908302992329F080916F008260E4
:102C300080936F00E4EFF6E08491EF012196882302
:102C400019F07CDBFE01F8CFC301B201EBDEE0EF4F
:102C5000F6E08491EF012196882319F06FDBFE01E5
:102C6000F8CFC501B401DEDEECEEF6E08491EF01B1
:102C70002196882319F062DBFE01F8CFC701B60167
:102C8000D1DE8AE0DF91CF91FF90EF90DF90CF907F
:102C9000BF90AF909F908F907F906F905F904F907C
:102CA0004DCB2F923F924F925F926F927F928F9275
:102CB0009F92AF92BF92CF92DF92EF92FF920F93CB
:102CC0001F93CF93DF93CDB7DEB762970FB6F8941B
:102CD000DEBF0FBECDBF8DE690E068DE811162C120
:102CE0008091A10C83FD5EC183E59DDA8C87811103
:102CF00005C082E598DA89838823A1F014DA0E945E
:102D0000BF7BCB010E9418370EDA20E030E04AEAA0
:102D100052E40E94677618160CF43FC10E94A8592D
:102D200021E029830E94484F4981442309F43AC194
:102D300081E0809314021A821B821C821D821886F5
:102D400019861A861B8619821D865CE35E878CE1D4
:102D50008F8796E4988B312C212CA0E8A98BBFEBB0
:102D6000BA8B812C912C54016091FE057091FF0566
:102D7000072E000C880B990B0E946D767B018C014D
:102D80009B01AC01632D722D89899A890E94677617
:102D9000882329F120918D0630918E0640918F066F
:102DA000509190068C85B70181110CC0C8010E941A
:102DB0006776881F8827881F89833E2C2F2C098BD4
:102DC0001A8B0DC0C8010E94677687FF03C08091EF
:102DD0001402E8C03E2C2F2C098B1A8B19820E94FA
:102DE000AF5B6B017C01DC01CB01288539854A850D
:102DF0005B85821B930BA40BB50BB7FD37C0D701C6
:102E0000C60188519C4FAF4FBF4F88879987AA87CB
:102E1000BB870E94A233E8EEF6E084913F019FEF6A
:102E2000691A790A882319F089DAF301F6CF811437
:102E30009104A104B104B1F0D501C401805F984DA3
:102E4000AF4FBF4FBC01CD016C197D098E099F09A1
:102E500028EE33E040E050E00E943F7ACA01B90119
:102E6000E1DD02C08FE36ADA8AE068DA0E94CA25EF
:102E70000E94AF5B60939E0270939F028093A002BA
:102E80009093A102A0918D06AE83B0918E06BF8370
:102E900000918F06109190069D01A801632D722D5F
:102EA00089899A890E947A7A2B013C0120E030E0DE
:102EB000A9010E94A17C87FF04C077FA709477F87B
:102EC000709481149104A104B10459F420E030E01D
:102ED00040E85FE3C301B2010E94677687FF0DC03F
:102EE0000AC020E030E040E450E4C301B2010E9497
:102EF000A17C181614F44601570129812223A9F157
:102F00008A819B81AC81BD81892B8A2B8B2B61F0BF
:102F1000D701C6012A813B814C815D81821B930BC5
:102F2000A40BB50BB7FD21C02E813F81A8016D8593
:102F30007E858F8598890E947A7A20E030E040EC87
:102F40005FE30E94677687FD42CFD701C601805AB2
:102F50009541AF4FBF4F8A839B83AC83BD839E81D6
:102F60009D87AF81AE870F87188B809114028823CD
:102F700009F42DCF81149104A104B10409F4F4CE15
:102F8000B0E1CB1AB7E2DB0AE108F108C818D908AA
:102F9000EA08FB08F7FE1BCFE7CE0E94875931E015
:102FA0003983C0CE62960FB6F894DEBF0FBECDBF98
:102FB000DF91CF911F910F91FF90EF90DF90CF9015
:102FC000BF90AF909F908F907F906F905F904F9049
:102FD0003F902F9008958F929F92AF92BF92CF9281
:102FE000DF92EF92FF92CF936B017C01B42E20E031
:102FF00030E0A9010E94677687FF06C08DE29ED966
:10300000F7FAF094F7F8F094C0E060E070E080E048
:103010009FE3CB1541F02DEC3CEC4CEC5DE30E94C2
:10302000CC76CF5FF6CF9B01AC01C701B6010E9401
:103030007B7A6B017C010E94C47B4B015C014AE0FE
:103040004ADCCC2379F1C501B4010E946B769B0167
:10305000AC01C701B6010E947A7A6B017C018EE255
:103060006DD920E030E040E251E4C701B6010E9492
:10307000CC764B015C010E94BF7B6B01770FEE08A1
:10308000FF08C701B601CEDCC701B6010E946D760C
:103090009B01AC01C501B4010E947A7A6B017C01ED
:1030A000C150F9F6CF91FF90EF90DF90CF90BF9095
:1030B000AF909F908F900895CF93DF930E94CC0E96
:1030C0008BE53CD9CCE8D5E0688179818A819B8108
:1030D00042E081DF4C815D816E817F8186ED96E0EB
:1030E0000E94F54D488559856A857B8583ED96E07C
:1030F0000E94F54D8DE522D98AE0DF91CF911EC95E
:103100001F920F920FB60F9211240BB60F922F93AE
:103110008F939F93EF93FF9320918B05E0918A0506
:1031200081E08E0F8F779091C600281729F0F0E08C
:10313000E65FFA4F9083E82FE0938A05FF91EF91C5
:103140009F918F912F910F900BBE0F900FBE0F90FC
:103150001F9018952F923F924F925F926F927F929D
:103160008F929F92AF92BF92CF92DF92EF92FF9297
:103170000F931F93CF93DF93CDB7DEB72F970FB683
:10318000F894DEBF0FBECDBFF8948FEF9FEF909302
:10319000890080938800BAE0DB2E1F861E86789413
:1031A0008091DC059091DD05A091DE05B091DF05F1
:1031B000892B8A2B8B2B09F0C5C18091E30C8823C6
:1031C000D1F01092E30C8091E10C9091E20C892BEC
:1031D00091F010929D051092E20C1092E10C9091EA
:1031E0000C0F80910D0F981731F080910D0F8F5FAC
:1031F0008F7080930D0F8091E10C9091E20C892BE0
:1032000009F4A0C10091D8051091D9052091DA05E3
:103210003091DB058091D4059091D505A091D6051C
:10322000B091D7054091CB0550E060E070E0801B85
:10323000910BA20BB30B481759076A077B0710F4D1
:10324000DB01CA01482F800F911FA21FB31F80937B
:10325000D8059093D905A093DA05B093DB0580914A
:103260008400909185004C968090B2059090B305B3
:10327000A090B405B090B5050091A2051091A305EA
:103280002091A4053091A505080D191D2A1D3B1D8F
:103290000093B2051093B3052093B4053093B505A0
:1032A00037FD1CC0409A009178021091790220915C
:1032B0007A0230917B0280901502082C000C99084C
:1032C000AA08BB08080D191D2A1D3B1D0093780292
:1032D0001093790220937A0230937B028090B60596
:1032E0009090B705A090B805B090B9050091A605DB
:1032F0001091A7052091A8053091A905080D191D69
:103300002A1D3B1D0093B6051093B7052093B80501
:103310003093B90537FD1CC0419A00917C02109191
:103320007D0220917E0230917F0280901602082C4F
:10333000000C9908AA08BB08080D191D2A1D3B1D81
:1033400000937C0210937D0220937E0230937F02D3
:103350008090BA059090BB05A090BC05B090BD05CB
:103360000091AA051091AB052091AC053091AD05F7
:10337000080D191D2A1D3B1D0093BA051093BB05AE
:103380002093BC053093BD0537FD1CC0429A0091C7
:1033900080021091810220918202309183028090FC
:1033A0001702082C000C9908AA08BB08080D191D63
:1033B0002A1D3B1D009380021093810220938202FC
:1033C000309383028090BE059090BF05A090C00509
:1033D000B090C1050091AE051091AF052091B005E8
:1033E0003091B105080D191D2A1D3B1D0093BE0526
:1033F0001093BF052093C0053093C10537FD1CC055
:10340000439A0091840210918502209186023091A6
:10341000870280901802082C000C9908AA08BB08A3
:10342000080D191D2A1D3B1D00938402109385026F
:1034300020938602309387020091B2051091B30564
:103440002091B4053091B50537FD15C080909E05DB
:1034500090909F05A090A005B090A10508191909AA
:103460002A093B090093B2051093B3052093B405D4
:103470003093B50540980091B6051091B70520919D
:10348000B8053091B90537FD15C080909E05909024
:103490009F05A090A005B090A105081919092A0957
:1034A0003B090093B6051093B7052093B8053093F8
:1034B000B90541980091BA051091BB052091BC0552
:1034C0003091BD0537FD15C080909E0590909F05F9
:1034D000A090A005B090A105081919092A093B0977
:1034E0000093BA051093BB052093BC053093BD052E
:1034F00042980091BE051091BF052091C005309102
:10350000C10537FD15C080909E0590909F05A09045
:10351000A005B090A105081919092A093B090093D3
:10352000BE051093BF052093C0053093C105439895
:10353000415041F0209184003091850028173907CF
:10354000C8F392CE8091DC059091DD05A091DE0557
:10355000B091DF05892B8A2B8B2B09F0CEC5E0912A
:10356000E10CF091E20C309709F44DC78091D80539
:103570009091D905A091DA05B091DB054091D40571
:103580005091D5056091D6057091D70584179507A0
:10359000A607B707D0F010929D051092E20C10928A
:1035A000E10C90910C0F80910D0F981709F42BC727
:1035B00080910D0F8F5F8F7080930D0FA0ED4A2EBD
:1035C000A7E05A2E612C712CE5C34091D005509193
:1035D000D1056091D2057091D305481759076A0744
:1035E0007B0708F4A4C18090CC059090CD05A090F5
:1035F000CE05B090CF0586A997A9A0ADB1AD88162C
:103600009906AA06BB0608F076C181149104A104AC
:10361000B10449F48091990590919A05A0919B0578
:10362000B0919C0564C1B0E0AC2D882D392D2A2DB8
:10363000F981EA817B816C815D814E819F8150910E
:10364000DD0C589F712D66274091DE0C489F700D50
:10365000611D1090DF0C189E600D539F700D611D51
:10366000439F600D529F600DF72FE62FF79F512D5E
:1036700044279927F69F500D411D9B1FE79F500D32
:10368000411D9B1FE69F400D911DF42FE92FF79FD1
:10369000A12D44279927F69FA00D411D9B1FE79F51
:1036A000A00D411D9B1FE69F400D911DF42FE92F9A
:1036B00055278091990530919A0520919B0500909E
:1036C000A1040B2A09F483C040919D044F9F511916
:1036D0008B0B3B0B2B0B90919E049F9F50198109E4
:1036E0003B0B2B0BA0919F04AF9F801931092B0B33
:1036F0004E9F501981093B0B2B0B9E9F801931095E
:103700002B0BAE9F30192109F79FA12D4427992734
:10371000F69FA00D411D9B1FE79FA00D411D9B1F04
:10372000E69F400D911DF42FE92F409199044F9F82
:10373000510D8B1F3B1F2B1F90919A049F9F500D83
:10374000811D3B1F2B1FA0919B04AF9F800D311D3E
:103750002B1F4E9F500D811D3B1F2B1F9E9F800DC9
:10376000311D2B1FAE9F300D211DF79FA12D44272A
:103770009927F69FA00D411D9B1FE79FA00D411D9E
:103780009B1FE69F400D911DF42FE92F409195045A
:103790004F9F51198B0B3B0B2B0B909196049F9FC6
:1037A000501981093B0B2B0BA0919704AF9F8019F7
:1037B00031092B0B4E9F501981093B0B2B0B9E9F00
:1037C000801931092B0BAE9F3019210982C040911D
:1037D0009D044F9F510D8B1F3B1F2B1F90919E04EB
:1037E0009F9F500D811D3B1F2B1FA0919F04AF9FDA
:1037F000800D311D2B1F4E9F500D811D3B1F2B1F18
:103800009E9F800D311D2B1FAE9F300D211DF79FF8
:10381000A12D44279927F69FA00D411D9B1FE79FCF
:10382000A00D411D9B1FE69F400D911DF42FE92F18
:10383000409199044F9F51198B0B3B0B2B0B90918F
:103840009A049F9F501981093B0B2B0BA0919B045D
:10385000AF9F801931092B0B4E9F501981093B0BEB
:103860002B0B9E9F801931092B0BAE9F301921091C
:10387000F79FA12D44279927F69FA00D411D9B1F5F
:10388000E79FA00D411D9B1FE69F400D911DF42F4A
:10389000E92F409195044F9F510D8B1F3B1F2B1F0C
:1038A000909196049F9F500D811D3B1F2B1FA0914F
:1038B0009704AF9F800D311D2B1F4E9F500D811D12
:1038C0003B1F2B1F9E9F800D311D2B1FAE9F300D68
:1038D000211D1124CA2EF983EA837B836C835D83C7
:1038E0004E839F8390E0932BA0E0B0E0A22B27E5CE
:1038F0003FE011E011C082A993A9A4A9B5A9F7CF0F
:10390000B695A79597958795110F2C5F3F4F4FE080
:103910002337340709F446C4F9014591559165915F
:103920007491481759076A077B0750F33BC44091CD
:10393000C7055091C8056091C9057091CA0548171F
:1039400059076A077B0708F0B8C18091C605811145
:103950001FC0DF01AE5BBF4FED90FD900D911C913C
:1039600013971D962D913D914D915C9162A973A97C
:1039700084A995A90E94004D51E05093C605E0919D
:10398000E10CF091E20C82A893A8A4A8B5A886C186
:103990008091C2059091C305A091C405B091C50561
:1039A00042AD53AD64AD75AD84179507A607B70753
:1039B00008F06EC10097A105B10549F48090990502
:1039C00090909A05A0909B05B0909C0567C130E04F
:1039D0004885882E292F8A2FE9857A856B855C8515
:1039E0009D859091DD0C989D612D55272090DE0CD2
:1039F000289C600D511D1090DF0C189C500D929F5B
:103A0000600D511D229E500D989F500DE62F752F71
:103A1000E69F912D22243324E59F900D211C331E17
:103A2000769F900D211C331E759F200C311CE22DBA
:103A3000732DE69F412D22243324E59F400D211C48
:103A4000331E769F400D211C331E759F200C311CA8
:103A5000E22D732D99278090990520919A058091E8
:103A60009B050090A104032A09F483C020909D04C3
:103A70002E9E9119830A230B830B30909E043E9E49
:103A800090198108230B830B40919F044E9F80184F
:103A90002109830B279E90198108230B830B379EE6
:103AA00080182109830B479F20198109E69F412D2A
:103AB00022243324E59F400D211C331E769F400DA8
:103AC000211C331E759F200C311CE22D732D20907C
:103AD00099042E9E910D831E231F831F30909A04FC
:103AE0003E9E900D811C231F831F40919B044E9F7F
:103AF000800C211D831F279E900D811C231F831F77
:103B0000379E800C211D831F479F200D811DE69F3E
:103B1000412D22243324E59F400D211C331E769F26
:103B2000400D211C331E759F200C311CE22D732D7E
:103B3000209095042E9E9119830A230B830B3090BD
:103B400096043E9E90198108230B830B40919704A5
:103B50004E9F80182109830B279E90198108230B03
:103B6000830B379E80182109830B479F20198109F9
:103B700082C020909D042E9E910D831E231F831FC3
:103B800030909E043E9E900D811C231F831F409108
:103B90009F044E9F800C211D831F279E900D811C2A
:103BA000231F831F379E800C211D831F479F200DDD
:103BB000811DE69F412D22243324E59F400D211CC9
:103BC000331E769F400D211C331E759F200C311C27
:103BD000E22D732D209099042E9E9119830A230BB8
:103BE000830B30909A043E9E90198108230B830B1F
:103BF00040919B044E9F80182109830B279E9019AA
:103C00008108230B830B379E80182109830B479F64
:103C100020198109E69F412D22243324E59F400D80
:103C2000211C331E769F400D211C331E759F200CD6
:103C3000311CE22D732D209095042E9E910D831E34
:103C4000231F831F309096043E9E900D811C231FDE
:103C5000831F409197044E9F800C211D831F279E38
:103C6000900D811C231F831F379E800C211D831FF5
:103C7000479F200D811D11244887E9877A876B872C
:103C80005C879D87912C922AA12CB12CA82A06C072
:103C9000E15BFF4F80809180A280B38087E59FE049
:103CA00021E0FC01459155916591749148155905A4
:103CB0006A057B0508F4D9C2E3C280911A0290918B
:103CC0001B02A0911C02B0911D02B7FF5BC0E95B13
:103CD000FF4F80809180A280B38087E59FE021E044
:103CE000FC014591559165917491481559056A05F6
:103CF0007B0550F4B694A79497948794220F04966A
:103D0000AFE083379A0761F72093CB05B0E28B16BB
:103D10009104A104B10408F447C320E2821A910877
:103D2000A108B108811438E09306A104B10408F495
:103D300017C344E0949EC0011124895A944FFC019A
:103D4000329625913491782D6627739FA001729F3A
:103D5000410D561F0694461F561F112460E070E067
:103D6000FC0125913491C901A0E0B0E0841B950BC2
:103D7000A60BB70B80931A0290931B02A0931C0210
:103D8000B0931D0240901A0250901B0260901C02DA
:103D900070901D028091E10C9091E20C892B09F04A
:103DA000A4C10E94A34D9093E20C8093E10C892B57
:103DB00009F49BC1E091E10CF091E20C808183FF5A
:103DC0003EC085899689A789B08D809378029093AB
:103DD0007902A0937A02B0937B02818D928DA38D9C
:103DE000B48D80937C0290937D02A0937E02B09369
:103DF0007F02858D968DA78DB0A1809380029093D0
:103E00008102A0938202B093830281A192A1A3A117
:103E1000B4A18093840290938502A0938602B0930C
:103E2000870290910C0F80910D0F981709F4B9CF6C
:103E300080910D0F8F5F8F7080930D0FB2CF05892A
:103E400016892789308D81E001151105210531057D
:103E500009F480E0818C928CA38CB48C8114910441
:103E6000A104B10409F08260458D568D678D70A163
:103E7000411551056105710509F0846080939D0528
:103E80001092C2051092C3051092C4051092C50588
:103E90001092CC051092CD051092CE051092CF0550
:103EA00085A196A1A7A1B0A58093D4059093D5052F
:103EB000A093D605B093D705442455243201481A5F
:103EC000590A6A0A7B0A4092BE055092BF05609269
:103ED000C0057092C1054092BA055092BB05609230
:103EE000BC057092BD054092B6055092B705609230
:103EF000B8057092B9054092B2055092B305609230
:103F0000B4057092B505000F111F221F331F0093D7
:103F1000A2051093A3052093A4053093A505880C52
:103F2000991CAA1CBB1C8092A6059092A705A09282
:103F3000A805B092A905440F551F661F771F40932F
:103F4000AA055093AB056093AC057093AD0541A1F4
:103F500052A163A174A1440F551F661F771F4093A0
:103F6000AE055093AF056093B0057093B105880F0F
:103F7000991FAA1FBB1F80939E0590939F05A09336
:103F8000A005B093A1051092D8051092D905109202
:103F9000DA051092DB0582A593A5A4A5B5A58093AB
:103FA000D0059093D105A093D205B093D30586A5F3
:103FB00097A5A0A9B1A98093C7059093C805A09320
:103FC000C905B093CA0541A5EA5BFF4F50818091B6
:103FD000980558130AC08091190290E0242F042EEE
:103FE000000C330B2817390731F050939805409394
:103FF00019020E94524D0E94782B8FEF9FEFDC0137
:1040000080931A0290931B02A0931C02B0931D028E
:10401000E091E10CF091E20CDF01DE96ED90FD9075
:104020000D911C9122A933A944A955A9E55BFF4F25
:1040300060817181828193810E94004D1092C6053A
:10404000E091E10CF091E20CE55BFF4F8080918004
:10405000A280B38087E59FE021E0FC014591559166
:1040600065917491481559056A057B0558F4B69415
:10407000A79497948794220F049643E75FE048172C
:10408000590759F72093CB0550E285169104A104F6
:10409000B10408F4B2C190E2891A9108A108B108EC
:1040A0008114A8E09A06A104B10408F483C1B4E025
:1040B0009B9EC0011124895A944FFC013296259190
:1040C0003491782D6627739FA001729F410D561F72
:1040D0000694461F561F1124FC0145905490612CF4
:1040E000712C441A550A610871084092DC055092FF
:1040F000DD056092DE057092DF058091DC05909110
:10410000DD05A091DE05B091DF05AC01BD01009792
:1041100021E0A207B10520F04FEF5FEF60E070E013
:10412000841B950BA60BB70B8093DC059093DD05E4
:10413000A093DE05B093DF05F89480918400909100
:1041400085004096DA94DD2059F0AE85BF85A40F36
:10415000B51FBF87AE87A817B90708F420C802C0EB
:104160009F878E872E853F85309389002093880016
:1041700078942F960FB6F894DEBF0FBECDBFDF91B7
:10418000CF911F910F91FF90EF90DF90CF90BF9054
:10419000AF909F908F907F906F905F904F903F90E7
:1041A0002F9008951093CB0580329105A105B1059C
:1041B00008F456C08097A109B109811528E092073B
:1041C000A105B105F0F044E0949F90011124295A13
:1041D000344FF901329645915491EE27859FB001F5
:1041E000849F610D7E1F06946E1F7E1F1124F901AE
:1041F00045905490612C712C461A570A6108710839
:1042000022C0AC01BD017695679557954795FA0197
:10421000EC7FAF01495A584FFA0125913491FA01C8
:104220003296659174918770869FA001879F500D8B
:104230001124F3E056954795FA95E1F72901441AC0
:10424000550A612C712C840C951CA61CB71C8092FD
:10425000CC059092CD05A092CE05B092CF059ACD17
:1042600080E290E0A0E0B0E0A5CFB694A794979448
:104270008794220F04965FE08337950709F011CDEC
:104280002093CB0570E287169104A104B10408F4D1
:1042900061C070E2871A9108A108B108811488E012
:1042A0009806A104B104F8F0A4E09A9EC00111247C
:1042B000895A944FFC01329625913491B82D662786
:1042C000B39FA001B29F410D561F0694461F561F73
:1042D0001124FC0145905490612C712C441A550A0C
:1042E0006108710822C0D501C401B695A7959795BC
:1042F0008795FC01EC7FCF01895A984FFC014590CE
:104300005490FC01329625913491482D4770429F7C
:10431000C001439F900D112463E0969587956A959F
:10432000E1F7481A590A612C712C8091C2059091CD
:10433000C305A091C405B091C505840D951DA61DAA
:10434000B71D8093C2059093C305A093C405B09395
:10435000C50520CD60E2862E912CA12CB12C99CFE1
:10436000D501C401B695A79597958795FC01EC7F7B
:10437000CF01895A984FFC0125913491FC01329666
:1043800045915491682D6770649FC001659F900DA1
:10439000112443E0969587954A95E1F7281B390B40
:1043A000C901A0E0B0E0E6CC40E2842E912CA12C23
:1043B000B12CB3CCD501C401B695A7959795879537
:1043C000FC01EC7FCF01895A984FFC014590549035
:1043D000FC01329625913491482D4770429FC001CF
:1043E000439F900D1124A3E096958795AA95E1F738
:1043F000481A590A612C712C78CE90E2892E912CA2
:10440000A12CB12C48CE80ED482E87E0582E612C8F
:10441000712CC7CC4F925F926F927F928F929F9236
:10442000AF92BF92DF92EF92FF920F931F93CF93C1
:10443000DF93D82EC82FD0E0FE01E858FB4F6491DF
:104440007E01EE0CFF1CEE0CFF1CF701EA58FE4E3D
:104450004590559065907490062E000C770B880B54
:10446000990B0E946D764B015C0120E030E040EC3E
:104470005FE3C301B2010E94CC76A50194010E94C2
:10448000CC76AB01BC0100E010E098018D2D0E94BC
:10449000C40FF701E659FE4E25913591459154918F
:1044A000C501B4010E94CC764B015C0120E030E0F4
:1044B000A9010E946776882309F447C000E010E054
:1044C0009801B501A40170588D2D0E94C40FFE0102
:1044D000E959FE4E6491611117C0EAE5F8E1849153
:1044E000EF012196882321F00E949E11FE01F7CF53
:1044F000E5E4F1E18491EF012196882321F00E9407
:104500009E11FE01F7CF6AE0F701E151FE4F4590A1
:1045100055906590749070E080E090E00E946D7618
:104520009B01AC01C301B2010E94577B2B013C01EE
:10453000A5019401C501B4010E947B7AAB01BC01C5
:10454000930182018D2D0E94C40F81E090E00D2C1B
:1045500001C0880F0A94EAF79091A802982B9093D3
:10456000A8029091C602892B8093C602F701E857F2
:10457000FD4F10821182128213828D2D0E94470FEF
:10458000F701E25BFB4F85919591A591B491E7010D
:10459000C353D34F88839983AA83BB830E94870F19
:1045A000F701E454F34F88819981AA81BB8180830C
:1045B0009183A283B383DF91CF911F910F91FF90DD
:1045C000EF90DF90BF90AF909F908F907F906F9013
:1045D0005F904F900895CF93DF938A589F4FFC01CF
:1045E000C081D181862F0E94C132BE0183E391E157
:1045F0000E94124E8AE0DF91CF910C949E110C9490
:10460000C445EF92FF920F931F93CF93DF931F92B6
:104610001F92CDB7DEB782E08093C0001092C50034
:1046200087E08093C4008091C10080618093C100C5
:104630008091C10088608093C1008091C100806832
:104640008093C100ECE2F1E184918F010F5F1F4F75
:10465000882321F00E949E11F801F6CFEAE5F8E1E7
:1046600084918F010F5F1F4F882321F00E949E11BC
:10467000F801F6CF989AA09A9A9AA29A8091070187
:1046800080628093070180910801809580728093F9
:1046900006018091070180618093070180910801E4
:1046A000809580718093060114B710FF0DC0E3E27E
:1046B000F1E184917F019FEFE91AF90A882321F043
:1046C0000E949E11F701F5CF11FF0DC0E2E1F1E16B
:1046D00084917F019FEFE91AF90A882321F00E9453
:1046E0009E11F701F5CF12FF0DC0E0E0F1E18491DA
:1046F0007F019FEFE91AF90A882321F00E949E1199
:10470000F701F5CF13FF0DC0EFEEF0E184917F01CB
:104710009FEFE91AF90A882321F00E949E11F70100
:10472000F5CF15FF0CC0EEEDF0E184918F010F5F26
:104730001F4F882321F00E949E11F801F6CF14BE6E
:10474000E7EDF0E184918F010F5F1F4F882321F087
:104750000E949E11F801F6CF80E20E949E11E9ECC2
:10476000F0E184918F010F5F1F4F882321F00E9499
:104770009E11F801F6CF8AE00E949E11EAE5F8E169
:1047800084918F010F5F1F4F882321F00E949E119B
:10479000F801F6CFE9EBF0E184918F010F5F1F4F35
:1047A000882321F00E949E11F801F6CFEEEAF0E195
:1047B00084918F010F5F1F4F882321F00E949E116B
:1047C000F801F6CFE8E5F0E184918F010F5F1F4F0C
:1047D000882321F00E949E11F801F6CFEAE5F8E166
:1047E00084918F010F5F1F4F882321F00E949E113B
:1047F000F801F6CFE1E4F0E184918F010F5F1F4FE4
:10480000882321F00E949E11F801F6CFEAE5F8E135
:1048100084918F010F5F1F4F882321F00E949E110A
:10482000F801F6CF2091320F3091330FCE0101966F
:104830002115310519F488539F4002C0821B930B48
:104840009A83898369817A8182E390E10E94124E82
:1048500060E176E08BE190E10E94124E8AE00E94D6
:104860009E1181E08093FC028093FD028093FE0202
:104870008093FF020E94FB2F80E00E94742C8CE04A
:10488000E7ECF2E0ADECBCE001900D928A95E1F727
:104890000E94870F6D9A9D9A80910101806280939A
:1048A00001018091010188608093010187ED80936F
:1048B0007A0010927E0010927D0080917E008160CF
:1048C00080937E0080917E00846080937E0080E8EB
:1048D00088BD80916E00846080936E006AEF70E006
:1048E00080E090E00E94775B85E090E09093F10C8F
:1048F0008093F00C60E080912002909121020E9450
:104900000E3320E030E040EA50E40E94677687FFF3
:104910000AC0809120029091210240979093210239
:1049200080932002E7CF83E191E090932602809369
:10493000250260E08091F9059091FA050E940E33FE
:1049400020E030E849E853E40E94A17C181654F4B2
:104950008091F9059091FA0540969093FA0580931D
:10496000F905E7CF80911E0290911F020E94423705
:1049700020E030E040EA50E40E94677687FF0AC0FA
:1049800080911E0290911F02409790931F02809386
:104990001E02E8CF8091F7059091F8050E944237FA
:1049A00020E030E040EA52E40E94A17C181654F462
:1049B0008091F7059091F80540969093F8058093C3
:1049C000F705E8CF0E946C5926982E9A25982D9AC3
:1049D00024982C9A80916B00806480936B00D89A05
:1049E0008091680081608093680080916B00806294
:1049F00080936B00D89A80916800816080936800F2
:104A000080916B00806180936B00D89A80916800E0
:104A100081608093680011E01093AE021093AD02A4
:104A200067D680910A01816080930A0180910A0112
:104A3000826080930A0180910A01846080930A0158
:104A400080910A01806480930A010F9A179A0E9A46
:104A5000169A0D9A159A0C9A149A389A4098179AA1
:104A60008091A8028E7F8093A802399A4198169A65
:104A70008091A8028D7F8093A8023A9A4298159A55
:104A80008091A8028B7F8093A8023B9A4398149A46
:104A9000809180008C7F8093800080918100877E50
:104AA000886080938100809180008F738093800064
:104AB00080918100887F82608093810080E090E413
:104AC0009093890080938800109285001092840052
:104AD00080916F00826080936F001093AE0208D6C1
:104AE00078940E94524D98E288E10FB6F894A89508
:104AF000809360000FBE909360000F900F90DF9145
:104B0000CF911F910F91FF90EF900895179A809188
:104B1000A8028E7F8093A802169A8091A8028D7FAA
:104B20008093A802159A8091A8028B7F8093A80297
:104B3000149A0895E1E0FDE18491EF012196882324
:104B400021F00E949E11FE01F7CFEBEFFFE0849170
:104B5000EF012196882321F00E949E11FE01F7CFDC
:104B60000E942837D3DF2FEF8BE49DE12150804056
:104B70009040E1F700C00000F8942FEF84E39CE040
:104B8000215080409040E1F700C000000E9428378B
:104B9000A895FECF2F923F924F925F926F927F9295
:104BA0008F929F92AF92BF92CF92DF92EF92FF923D
:104BB0000F931F93CF93DF9300D01F92CDB7DEB733
:104BC0000E94AF5B6B017C0180910002882309F495
:104BD0007BC080910503882309F476C04091E105EC
:104BE0005091E2056091E3057091E405970186011B
:104BF000041B150B260B370B37FD79C0833051F1A1
:104C000034F481300CF460C0EAE5F8E106C0843089
:104C100009F05AC0EAE5F8E13BC084918F010F5FCB
:104C20001F4F1B830A83882329F00E949E11EA816B
:104C3000FB81F3CFE6EAFFE084918F010F5F1F4F06
:104C40001B830A83882309F43FC00E949E11EA81D6
:104C5000FB81F2CFEAE5F8E184918F010F5F1F4FEE
:104C60001B830A83882329F00E949E11EA81FB811D
:104C7000F3CFEFE8FFE084918F010F5F1F4F1B839D
:104C80000A83882309F10E949E11EA81FB81F3CFF8
:104C900084918F010F5F1F4F1B830A83882329F0A4
:104CA0000E949E11EA81FB81F3CFE7E7FFE0849148
:104CB0008F010F5F1F4F1B830A83882329F00E94F7
:104CC0009E11EA81FB81F3CF2091000230E0A8EE33
:104CD000B3E00E946B7AC60ED71EE81EF91EC09282
:104CE000E105D092E205E092E305F092E4058091BF
:104CF0008804843030F40E94F813811102C00E94AD
:104D0000C7120E94AF5BC090A902D090AA02E090A7
:104D1000AB02F090AC02C114D104E104F10489F1BA
:104D200000919E0210919F022091A0023091A10259
:104D30000C0D1D1D2E1D3F1D6B017C01C01AD10ADB
:104D4000E20AF30AF7FC1DC0E1E0FDE184918F0166
:104D50000F5F1F4F1B830A83882329F00E949E1137
:104D6000EA81FB81F3CF6091BA0C7091BB0C81ECAE
:104D70009FE00E942B4E8AE00E949E1188EB9FE0EC
:104D8000D9DEC0900102D0900202E0900302F090C0
:104D90000402C114D104E104F104B1F130910C0F0B
:104DA00020910D0F321749F060939E0270939F027D
:104DB0008093A0029093A10227C000919E021091BF
:104DC0009F022091A0023091A1020C0D1D1D2E1DED
:104DD0003F1DDC01CB01801B910BA20BB30BB7FD78
:104DE00013C0179A8091A8028E7F8093A802169A0A
:104DF0008091A8028D7F8093A802159A8091A802C5
:104E00008B7F8093A802149A90910C0F80910D0FC4
:104E1000981306C06091880610918A0619831DC0F8
:104E2000E0910D0F81E68E9FF0011124E851F94FBA
:104E30006081E0910D0F8E9FF0011124E651F94F32
:104E4000C080C98280910D0F80910D0F90910C0F41
:104E5000981719F08F5F8F70F9CF70E088E00E948B
:104E6000AF5AD9806D2D70E086E00E94AF5A8091D4
:104E7000F605882309F4F7C0009137021091380233
:104E8000E0903902EC82F0903A02FA826091FE05DD
:104E90007091FF056E5F7F4F072E000C880B990BFA
:104EA0000E946D769801A7010E94677687FDDBC09E
:104EB000F0900D0F212C312CE12C198280910C0FD8
:104EC0008F1509F460C08F2D90E021E6289FF00136
:104ED000299FF00D1124EF56F94F458956896789AE
:104EE000708D452B462B472B81F4418D528D638D60
:104EF000748D452B462B472B41F4458D568D678D80
:104F000070A1452B462B472BC9F141E6489F9001E4
:104F1000499F300D1124C9018F56994F6C01FC0136
:104F200061817281838194810E94E67C4B015C01E6
:104F3000F60161A172A183A194A10E946B762B015D
:104F40003C01F60165A176A187A190A50E946B7630
:104F50009B01AC01C301B2010E94577BA5019401E2
:104F60000E94CC765B016C0191014E2D59810E940B
:104F7000A17C18161CF41501EC2CD98281E08F0D50
:104F80008F70F82E9BCF20913B0230913C024091D4
:104F90003D0250913E02B1018E2D99810E94CC7646
:104FA00098014C815A810E947B7A6B017C019B01A4
:104FB000AC01B8018C819A810E94A17C1816B4F0D2
:104FC0000091330210913402F0913502FC8320915C
:104FD00036022A8398014F2F5A81B601C7010E94D9
:104FE000A17C18161CF08601EC82FA82C090E505BF
:104FF000D090E605E090E705F090E80598014C8137
:105000005A81C701B6010E94A17C1816D4F420E091
:1050100037ED43EA5CE3B8018C819A810E94CC763B
:105020004B015C0128E431EE4AE75FE3C701B601BA
:105030000E94CC76A50194010E947B7A8B018C831F
:105040009A83C801AC81BA818093E5059093E60507
:10505000A093E705B093E805B801CD010E94BF7B9E
:10506000CB010E9418370E94715280919D028823C3
:1050700009F444C00E94AF5B0091990210919A021A
:1050800020919B0230919C02DC01CB01801B910B93
:10509000A20BB30BB7FD32C00E94AF5B6B017C016A
:1050A00020919D0230E0A8EEB3E00E946B7AC60E1C
:1050B000D71EE81EF91EC0929902D0929A02E09281
:1050C0009B02F0929C020E94A2338AE00F900F9004
:1050D0000F900F90DF91CF911F910F91FF90EF9064
:1050E000DF90CF90BF90AF909F908F907F906F9008
:1050F0005F904F903F902F900C949E110F900F90C7
:105100000F900F90DF91CF911F910F91FF90EF9033
:10511000DF90CF90BF90AF909F908F907F906F90D7
:105120005F904F903F902F9008951F93CF93DF9300
:10513000182F6115710519F4EDE0F4E10AC0FB01C7
:105140008491EF0121968823B9F30E949E11FE01FC
:10515000F7CF8491EF012196882321F00E949E11C0
:10516000FE01F7CF111103C0E8E0F4E102C0EEEF59
:10517000F3E18491EF012196882321F00E949E1192
:10518000FE01F7CF8AE0DF91CF911F910C949E1121
:10519000CF93DF93E5EDF1E18491EF012196882330
:1051A00021F00E949E11FE01F7CFDF91CF9108956B
:1051B0002F923F924F925F926F927F928F929F9227
:1051C000AF92BF92CF92DF92EF92FF920F931F9315
:1051D000CF93DF93CDB7DEB76C970FB6F894DEBFF1
:1051E0000FBECDBF8C015B015A834983FC01E95B93
:1051F000FF4F20813181428153812D8B3E8B4F8B1C
:10520000588FCA01B9010E946B766B017C01D501F0
:105210002D913D914D915C910E94CC760E94417BF5
:105220000E94C47B6D877E878F87988BE981FA8186
:105230002081318142815381C701B6010E94CC7621
:105240000E94417B0E94C47B698B7A8B8B8B9C8BE9
:105250002D853E854F8558892837310541055105F3
:1052600040F448E750E060E070E04D875E876F876C
:10527000788B69897A898B899C8968377105810562
:10528000910540F488E790E0A0E0B0E0898B9A8B2C
:10529000AB8BBC8BF801ED5AFF4F208131814281ED
:1052A00053812D833E834F835887CA01B9010E94E1
:1052B0006D762B013C016D857E858F8598890E94D6
:1052C0006B7669877A878B879C8720E030E0A9011D
:1052D000C301B2010E946776882329F1A7019601D4
:1052E000C701B6010E94CC764B015C0129853A8545
:1052F0004B855C85CA01B9010E94CC769B01AC014B
:10530000C501B4010E947A7A4B015C01A3019201AC
:10531000C301B2010E947B7A9B01AC01C501B401BB
:105320000E94577B03C060E070E0CB010E94417B8C
:105330000E94C47B69837A838B839C836D817E8189
:105340008F81988590958095709561957F4F8F4F4F
:105350009F4F0E946D764B015C0169897A898B8928
:105360009C890E946B766D837E838F83988720E073
:1053700030E0A901C501B4010E946776882349F194
:105380002D813E814F815885CA01B9010E94CC769A
:10539000698F7A8F8B8F9C8FA7019601C701B60109
:1053A0000E94CC769B01AC01698D7A8D8B8D9C8D92
:1053B0000E947A7A6B017C01A5019401C501B401B8
:1053C0000E947B7A9B01AC01C701B6010E94577B0A
:1053D00003C060E070E0CB010E94F07BD80195969D
:1053E0008D909D90AD90BC90989775016401298136
:1053F0003A814B815C81C21AD30AE40AF50A0E9401
:10540000C47BC61AD70AE80AF90AF7FEA1C020E051
:1054100030E0A901C301B2010E946776882309F434
:1054200043C0C501B4010E946B766B017C01A301EE
:105430009201C301B2010E947B7A9B01AC01C701BA
:10544000B6010E94CC766B017C0129853A854B859B
:105450005C85CA01B9010E94CC769B01AC01C701F1
:10546000B6010E947A7A6B017C012D813E814F81C9
:105470005885CA01B9010E94CC769B01AC01C701D5
:10548000B6010E947B7A6B017C0120E030E040E8AD
:1054900050E4C301B2010E94CC769B01AC01C7016C
:1054A000B6010E94577B03C060E070E0CB010E9410
:1054B000417B7B018D83998320E030E0A9010E942C
:1054C000A17C181624F0E12CF12C1D821982B70161
:1054D0008D8199810E94C47B69837A838B839C83AD
:1054E00086169706A806B90620F489829A82AB82AE
:1054F000BC82A3019201C301B2010E947B7A6B01BD
:105500007C0169817A818B819C810E946B769B01F1
:10551000AC01C701B6010E94CC766B017C012985E4
:105520003A854B855C85CA01B9010E94CC769B0106
:10553000AC01C701B6010E947B7A0E94E67C0E9402
:10554000C47B6D8B7E8B8F8B988FC12CD12C760179
:105550006D897E898F89988D2D853E854F855889E7
:10556000621B730B840B950B0E946B76A301920157
:105570000E94577B20E034E244EF59E40E94CC764D
:105580000E94C47B4B015C016D897E898F89988D57
:1055900029893A894B895C89621B730B840B950BB3
:1055A0000E946B76A30192010E94577B20E034E2B7
:1055B00044EF59E40E94CC760E94C47B2B013C014D
:1055C0003FE683169104A104B10480F4F401EE0FC8
:1055D000FF1FEE0FFF1FE45CFB4E85919591A59197
:1055E000B4918D83292E3A2EB98708C0C501B40124
:1055F0000E94464E6D83272E382E99874FE644161B
:1056000051046104710470F4F201EE0FFF1FEE0FFC
:10561000FF1FE45CFB4E45915591659174919A0191
:10562000CB0105C0C301B2010E94464E9B014981D6
:105630005A816B817C81D8019A964D935D936D93CD
:105640007C939D974C0D5D1D6E1D7F1DF80146A737
:1056500057A760AB71ABE55BFF4F4D855E856F85EE
:1056600078894083518362837383D6968D929D920D
:10567000AD92BC92D997F80142AE53AE64AE75AE0E
:10568000FE964D8140832182328259855383349620
:1056900020833183828393836D897E898F89988D5E
:1056A000D2966D937D938D939C93D5973D96298942
:1056B0003A894B895C8920833183428353836C967A
:1056C0000FB6F894DEBF0FBECDBFDF91CF911F9113
:1056D0000F91FF90EF90DF90CF90BF90AF909F9091
:1056E0008F907F906F905F904F903F902F90089594
:1056F0008091AE02882309F457C08091E9051E9974
:1057000002C0816001C08E7F8093E9058091E90528
:105710001D9902C0826001C08D7F8093E905809150
:10572000E9051C9902C0846001C08B7F8093E90564
:1057300080919D0580FF10C08091980580FF0CC06E
:105740008091E90580FF08C0809186048160809384
:10575000860480E00E94BC5980919D0581FF10C0A5
:105760008091980581FF0CC08091E90581FF08C0F8
:105770008091860482608093860481E00E94BC59F7
:1057800080919D0582FF10C08091980582FF0CC01A
:105790008091E90582FF08C080918604846080932F
:1057A000860482E00C94BC590895CF93DF93E2E223
:1057B000F4E18491882349F0C3E2D4E10E949E1170
:1057C000FE01849121968111F9CF83B1C1E086FB5E
:1057D000882780F96CE174E18C27A7DC83B185FB15
:1057E000882780F966E174E18C279FDC83B182957C
:1057F000817060E174E18C27DF91CF9196CC1F928C
:105800000F920FB60F9211240BB60F922F933F9366
:105810004F935F936F937F938F939F93AF93BF93B8
:10582000EF93FF9365DFFF91EF91BF91AF919F9150
:105830008F917F916F915F914F913F912F910F9039
:105840000BBE0F900FBE0F901F9018951F920F92D6
:105850000FB60F9211240BB60F922F933F934F93D5
:105860005F936F937F938F939F93AF93BF93EF93C8
:10587000FF93C5DFFF91EF91BF91AF919F918F9102
:105880007F916F915F914F913F912F910F900BBE40
:105890000F900FBE0F901F9018951F920F920FB68A
:1058A0000F9211240BB60F922F933F934F935F9358
:1058B0006F937F938F939F93AF93BF93EF93FF93D8
:1058C0009EDFFF91EF91BF91AF919F918F917F915B
:1058D0006F915F914F913F912F910F900BBE0F9061
:1058E0000FBE0F901F9018950F931F93CF93C82F43
:1058F000882319F0E3EFF3E10CC0EAE5F8E18491C5
:105900008F010F5F1F4F8823A9F30E949E11F8019A
:10591000F6CF84918F010F5F1F4F882321F00E94E3
:105920009E11F801F6CFECEDF1E184918F010F5F4C
:105930001F4F882321F00E949E11F801F6CF8AE0C4
:105940000E949E118AE00E949E11C1112CC0EAE5BE
:10595000F8E184918F010F5F1F4F882321F00E948F
:105960009E11F801F6CFE0EEF3E184918F010F5F15
:105970001F4F882321F00E949E11F801F6CF8091DD
:10598000B302882321F08AE00E949E113AC0E5ED1F
:10599000F3E184918F010F5F1F4F882391F10E94E3
:1059A0009E11F801F6CF4091AF025091B002609184
:1059B000B1027091B2028CEC93E10E94F54D8AE045
:1059C0000E949E118091B302811127C0CC2319F04F
:1059D000E1ECF3E10CC0EAE5F8E184918F010F5F9F
:1059E0001F4F8823A9F30E949E11F801F6CF8491DE
:1059F0008F010F5F1F4F882381F00E949E11F801D5
:105A0000F6CFEAE5F8E184918F010F5F1F4F8823FD
:105A100051F20E949E11F801F6CFC11124C0EAE5AF
:105A2000F8E184918F010F5F1F4F882321F00E94BE
:105A30009E11F801F6CFE0EBF3E184918F010F5F47
:105A40001F4F882321F00E949E11F801F6CFEAE54E
:105A5000F8E184918F010F5F1F4F882321F00E948E
:105A60009E11F801F6CF4091A20C5091A30C6091C9
:105A7000A40C7091A50C88EA93E10E94F54D409129
:105A8000A60C5091A70C6091A80C7091A90C85EA06
:105A900093E10E94F54D4091AA0C5091AB0C60919E
:105AA000AC0C7091AD0C82EA93E10E94F54D4091EF
:105AB000AE0C5091AF0C6091B00C7091B10C8FE9AD
:105AC00093E10E94F54D8AE00E949E11C11124C00D
:105AD000EAE5F8E184918F010F5F1F4F882321F0E1
