:100000000C948A0E0C94BB0E0C94BB0E0C94BB0E7D
:100010000C94BB0E0C94BB0E0C94BB0E0C94BB0E3C
:100020000C94BB0E0C942F320C947D320C945632EF
:100030000C94BB0E0C94BB0E0C94BB0E0C94BB0E1C
:100040000C94BB0E0C94304E0C94BB0E0C94BB0E57
:100050000C94BB0E0C94BB0E0C94F32D0C94F15D20
:100060000C94BB0E0C9496180C94BB0E0C94BB0E07
:100070000C94BB0E0C94BB0E0C94BB0E0C94BB0EDC
:100080000C94BB0E0C94BB0E0C94BB0E0C94BB0ECC
:100090000C94BB0E0C94BB0E0C94BB0E0C94BB0EBC
:1000A0000C94BB0E0C94BB0E0C94BB0E0C94BB0EAC
:1000B0000C94BB0E0C94BB0E0C94BB0E0C94BB0E9C
:1000C0000C94BB0E0C94BB0E0C94BB0E0C94BB0E8C
:1000D0000C94BB0E0C94BB0E0C94BB0E0C94BB0E7C
:1000E0000C94BB0E6E5C715C605C645C6A5CA85CCA
:1000F000755C795C7F5C835C875C8D5C915C955CF6
:10010000A85C9B5C9F5CA35C0D5D125D175D215D2F
:100110002B5DA45D355D3D5D455D4F5D595D635D66
:10012000725D7C5DA45D865D905D9A5D084AD73BFB
:100130003BCE016E84BCBFFDC12F3D6C74319ABDB6
:1001400056833DDA3D00C77F11BED9E4BB4C3E91DA
:100150006BAAAABE000000803F05A84CCDB2D44EC9
:10016000B93836A9020C50B9918688083CA6AAAACB
:100170002ABE000000803F004E414E494E4954596E
:10018000494E46CDCCCC3D0AD7233C17B7D1387762
:10019000CC2B329595E6241FB14F0A000020410078
:1001A00000C84200401C4620BCBE4CCA1B0E5AAEC2
:1001B000C59D74434F4D4D554E49434154494F4E93
:1001C0000044525952554E004552524F5253004925
:1001D0004E464F004543484F0047322F4733206279
:1001E000616420706172616D65746572730A0025C7
:1001F00069730025696D20256973002569682025CC
:10020000696D2025697300256964202569682025AA
:10021000696D202569730025697920256964202589
:1002200069682025696D20256973005072696E74B4
:100230002074696D653A2000D401CF01C801C10165
:10024000B3016F66660044454255473A004B494C3E
:100250004C45442E20004D3131332053006F6B004C
:1002600020573A002C20002C2000544845524D4184
:100270004C5F50524F54454354494F4E00415554E2
:100280004F5245504F52545F53445F53544154555D
:100290005300454D455247454E43595F50415253D7
:1002A000455200434153455F4C494748545F4252D1
:1002B000494748544E45535300544F47474C455FB8
:1002C0004C494748545300534F4654574152455F99
:1002D000504F574552004255494C445F5045524398
:1002E000454E54004C4556454C494E475F44415499
:1002F00041005A5F50524F4245004155544F4C45C2
:1003000056454C005052494E545F4A4F420050529D
:100310004F4752455353004155544F5245504F5249
:10032000545F54454D5000564F4C554D455452491D
:100330004300454550524F4D0053455249414C5F93
:10034000584F4E5F584F4646004649524D5741520E
:10035000455F4E414D453A4D61726C696E20627544
:10036000676669782D312E312E78202847697468A8
:1003700075622920534F555243455F434F44455FB3
:1003800055524C3A68747470733A2F2F67697468C9
:1003900075622E636F6D2F4D61726C696E46697266
:1003A0006D776172652F4D61726C696E2050524F8E
:1003B000544F434F4C5F56455253494F4E3A312E9E
:1003C00030204D414348494E455F545950453A33DA
:1003D00044205072696E74657220455854525544D9
:1003E00045525F434F554E543A3120555549443A92
:1003F00063656465326132662D343161322D343784
:1004000034382D396231322D6335356336326633F7
:10041000363766660A002F2F200020540020520035
:10042000416363656C65726174696F6E3A20500058
:10043000000000000000000000000000546F6F206A
:100440006661722066726F6D207265666572656E98
:10045000636520706F696E740A00FFFFFF205A0009
:10046000205900580020204D61783A2000205A0081
:10047000205900580020204D696E3A20004F6E2010
:10048000004F666600536F667420656E6473746F08
:1004900070733A200020466C6F773A2000000125E7
:1004A000311D40FFFFFF2924301C45FFFFFF27239C
:1004B0002F1B0AFFFFFFFF43FFFF040806FFFF2279
:1004C0002B1AFFFF42043803FF3620643A002069EC
:1004D0003A0020703A00496E76616C696420657854
:1004E0007472756465720A0043290A0061626C6562
:1004F0006420286D696E2074656D702000436F6CF8
:10050000642065787472756465732061726520007B
:100510004E6F2063617365206C696768740A0045DB
:100520004550524F4D2064697361626C65640A00E6
:100530004163746976652045787472756465723AB2
:100540002000496E76616C69642065787472756408
:1005500065720A006F6B00205A3A0020593A002059
:10056000583A00656E6473746F7073206869743AEA
:100570002000656E7175657565696E672022004B98
:10058000494C4C45442E20005072696E74657220AF
:1005900073746F707065642064756520746F206576
:1005A00072726F72732E20466978207468652065B8
:1005B00072726F7220616E6420757365204D3939D7
:1005C0003920746F20726573746172742E20285400
:1005D000656D7065726174757265206973207265EE
:1005E0007365742E20536574206974206166746588
:1005F000722072657374617274696E67290A004EA5
:100600006F20436865636B73756D2077697468202C
:100610006C696E65206E756D6265722C204C61731D
:1006200074204C696E653A2000636865636B73756E
:100630006D206D69736D617463682C204C617374F7
:10064000204C696E653A20004C696E65204E756DD0
:10065000626572206973206E6F74204C6173742020
:100660004C696E65204E756D6265722B312C204C85
:10067000617374204C696E653A20004D3131300051
:1006800020496E76616C6964206578747275646562
:1006900072200000000000000000000000000000C8
:1006A000005C420000484300004843486F6D696E9B
:1006B00067206661696C65640050726F746563746D
:1006C00065642050696E0A0020573A00205A3A00AB
:1006D00020593A0020436F756E7420583A00204527
:1006E0003A00205A3A0020593A00583A003A00435A
:1006F00061703A00526573656E643A200020746F31
:100700006F206C6F6E6720657874727573696F6E99
:100710002070726576656E7465640A0020636F6C84
:100720006420657874727573696F6E207072657677
:10073000656E7465640A0024F4D43050C38E20C200
:10074000A24017828B7011127A910D816CD90AA880
:1007500061E108C7586607615143061E4B5D05C13C
:1007600045A7041A411104093D980371393103402A
:1007700036DB0265339102D4305402802E1D0263B1
:100780002CEE01752AC501B028A001102781018F28
:100790002564012B244B01E0223401AC211F018D83
:1007A000200D01801FFC00841EED00971DDF00B8A6
:1007B0001CD200E61BC600201BBC00641AB200B2AB
:1007C00019A8000A19A0006A189900D117910040D1
:1007D000178B00B516840031167E00B31579003AE8
:1007E000157300C7146F0058146A00EE1366008872
:1007F00013630025135E00C7125B006C12570015CF
:10080000125400C111510070114F0021114B00D63C
:100810001049008D1047004610440002104200C0ED
:100820000F4000800F3E00420F3C00060F3B00CB04
:100830000E3800930E37005C0E3500270E3400F39F
:100840000D3200C10D3100900D3000600D2E0032D0
:100850000D2D00050D2C00D90C2B00AE0C290085A8
:100860000C29005C0C2700350C27000E0C2600E834
:100870000B2400C40B2400A00B23007D0B23005A83
:100880000B2100390B2100180B2000F80A1F00D99A
:100890000A1E00BB0A1E009D0A1D00800A1D00637F
:1008A0000A1C00470A1B002C0A1B00110A1A00F739
:1008B000091A00DD091900C4091900AB09190092D1
:1008C0000917007B091800630917004C0916003648
:1008D000091600200916000A091500F5081500E0A0
:1008E000081400CC081400B8081400A408140090E0
:1008F0000813007D0812006B081300580812004608
:100900000812003408110023081100120811000118
:10091000081100F0071000E0071000D0071000C019
:10092000071000B0070F00A107100091070E008309
:10093000070F0074070F0065070E0057070E0049E8
:10094000070E003B070D002E070E0020070D0013B9
:10095000070D0006070D00F9060C00ED060D00E07E
:10096000060C00D4060C00C8060C00BC060C00B037
:10097000060C00A4060B0099060C008D060B0082E5
:10098000060B0077060B006C060B0061060A005789
:10099000060B004C060A0042060A0038060A002E22
:1009A000060A0024060A001A060A001006090007B3
:1009B000060A00FD050900F4050900EB050900E23F
:1009C000050900D9050900D0050900C7050900BEC1
:1009D000050900B5050800AD050800A50509009C3E
:1009E000050800940508008C050800840508007CB3
:1009F000050800740508006C050700650508005D22
:100A0000050700560508004E05070047050700408A
:100A100005080038050700310507002A05070023EF
:100A20000507001C050600160507000F050700084E
:100A300005060002050700FB040600F5040700EEAA
:100A4000040600E8040600E2040700DB040600D503
:100A5000040600CF040600C9040600C3040600BD56
:100A6000040600B7040600B1040500AC040600A6A5
:100A7000040600A00405009B0406009504050090F0
:100A80000406008A04050085040500800406007A37
:100A900004050075040500700405006B040500667C
:100AA000040500610405005C0405005704050052BC
:100AB0000405004D04050048040500430405003EFC
:100AC0000404003A04050035040500300404002C39
:100AD00004050027040400230405001E0404001A72
:100AE00004040016040500110404000D04040009A8
:100AF0000405000404040000040400FC030400F8DE
:100B0000030400F4030400F0030400EC030400E811
:100B1000030400E4030400E0030400DC030400D841
:100B2000030400D4030400D0030400CC030400C871
:100B3000030300C503030024F404D9201BC40C5C88
:100B40000E9804C4095F0265077101F405F900FB02
:100B500004B30048048700C103690058035500032B
:100B6000034500BE023A008402310053022A0029E4
:100B700002250004022000E4011C00C8011900AF96
:100B80000117009801140084011300710110006125
:100B900001100051010E0043010D0036010B002B26
:100BA000010B0020010B00150109000C01090003D5
:100BB000010800FB000800F3000800EB000700E458
:100BC000000600DE000600D8000600D2000600CCB9
:100BD000000500C7000500C2000500BD000400B903
:100BE000000400B5000400B1000400AD000400A939
:100BF000000400A5000300A20003009F0004009B66
:100C00000003009800030095000200930003009089
:100C10000003008D0002008B0003008800020086A4
:100C200000020084000300810002007F0002007DBA
:100C30000002007B000200790002007700010076CC
:100C40000002007400020072000100710002006FD7
:100C50000002006D0001006C0002006A00010069E2
:100C600000020067000100660001006500010064E9
:100C70000002006200010061000100600001005FED
:100C80000002005D0001005C0001005B0001005AF1
:100C900000010059000100580001005700010056F2
:100CA00000010055000100540001005300000053F2
:100CB0000001005200010051000100500001004FEE
:100CC0000001004E0000004E0001004D0001004CEC
:100CD0000001004B0000004B0001004A00010049E8
:100CE00000010048000000480001004700010046E4
:100CF00000000046000100450000004500010044DE
:100D000000010043000000430001004200000042D7
:100D10000001004100000041000100400001003FCF
:100D20000000003F0001003E0000003E0001003DC9
:100D30000000003D0001003C0000003C0000003CC1
:100D40000001003B0000003B0001003A0000003AB7
:100D500000010039000000390001003800000038AF
:100D600000000038000100370000003700010036A5
:100D7000000000360000003600010035000000359C
:100D80000000003500010034000000340000003491
:100D90000001003300000033000000330001003286
:100DA000000000320000003200010031000000317C
:100DB0000000003100010030000000300000003071
:100DC0000001002F0000002F0000002F0000002F66
:100DD0000001002E0000002E0000002E0001002D5A
:100DE0000000002D0000002D0000002D0001002C4F
:100DF0000000002C0000002C0000002C0001002B43
:100E00000000002B0000002B0000002B0001002A36
:100E10000000002A0000002A0000002A000100292A
:100E2000000000290000002900000029000000291E
:100E30000001002800000028000000280000002811
:100E40000000002800010027000000270000002704
:100E500000000027000000270001002600000026F7
:100E600000000026000000260000002600010025EA
:100E700000000025000000250000002500000025DE
:100E800000000025000100240000002400000024D0
:100E900000000024000000240001002300000023C3
:100EA00000000023000000230000002300000023B6
:100EB00000000023000100220000002200000022A8
:100EC000000000220000002200000022000100219A
:100ED000000000210000002100000021000000218E
:100EE000000000210000002100010020000000207F
:100EF0000000002000000020000000200000002072
:100F000000000020000000200001001F0000001F62
:100F10000000001F0000001F0000001F0000001F55
:100F20000000001F0001001E0000001E0000001E47
:100F30000000001E0000003930000033250000874B
:100F4000190000B00F0000DB080000BD04000074B1
:100F50000200003F010000627573793A20706175EC
:100F600073656420666F7220696E7075740A006222
:100F70007573793A2070617573656420666F7220AD
:100F8000757365720A00627573793A2070726F63C7
:100F9000657373696E670A004B494C4C45442E20BB
:100FA000004B494C4C206361757365642062792065
:100FB000746F6F206D75636820696E616374697604
:100FC000652074696D65202D2063757272656E747D
:100FD00020636F6D6D616E643A20005072696E74AB
:100FE00065722068616C7465642E206B696C6C2876
:100FF000292063616C6C6564210A002020506C61BB
:101000006E6E657242756666657242797465733A92
:1010100020002046726565204D656D6F72793A201B
:1010200000436F6D70696C65643A204D61722032C7
:101030003520323031390A00207C20417574686FC8
:10104000723A20323031392D30332D31313B205638
:101050006F6C756D6574726963204C756D656E207B
:10106000776974682045696E737920616E642049E0
:1010700047555320616E64204241524943554441D3
:10108000206669726D77617265204F4E0A003230BA
:1010900031382D30372D333100204C617374205599
:1010A0007064617465643A20006275676669782DC2
:1010B000312E312E780A004D61726C696E0020531A
:1010C0006F6674776172652052657365740A0020DB
:1010D0005761746368646F672052657365740A00B2
:1010E0002042726F776E206F75742052657365743D
:1010F0000A002045787465726E616C2052657365D4
:10110000740A00506F77657255700A0073746172CB
:10111000740A002064726976657220637572726564
:101120006E743A20005761726E696E673A20486F9C
:101130006D696E672042756D702044697669736FC2
:1011400072203C20310A000202040000803F0000AF
:1011500000000000004000005C4200004843000026
:10116000484370012C0190012701B0012201C00108
:101170001D01F00118011002130130020E0160027E
:10118000090190020401C002FF000003FA004003BD
:10119000F5008003F000D003EB002004E6007004AB
:1011A000E100E004DC004005D700C005D2004006A5
:1011B000CD00D006C8008007C3003008BE00F0088C
:1011C000B900C009B400B00AAF00B00BAA00D00C3F
:1011D000A500000EA000500F9B00C01096005012FA
:1011E000910000148C00C0158700B0178200B01960
:1011F0007D00D01B7800001E730040206E009022FE
:101200006900F024640040275F0090295A00E02B19
:101210005500102E500020304B0010324600E033B5
:10122000410090353C001037370070383200A0394B
:101230002D00B03A2800A03B2300603C1E00103D6A
:101240001900903D1400103E0F00703E0A00C03E91
:101250000500003F0000403FFBFF803FF6FFC03F1E
:10126000F1FF45340045330045320045310045303B
:10127000005A32005932005832005A0059005800C2
:101280004531204572723A204D415854454D500029
:101290004572723A204D415854454D5020424544C4
:1012A000004D415854454D5020747269676765720E
:1012B0006564004531204572723A204D494E5445CF
:1012C0004D50004572723A204D494E54454D5020C4
:1012D000424544004D494E54454D50207472696753
:1012E000676572656400202F002042403A0020406C
:1012F0003A007E127C127A127712741271126E12F8
:101300006B12681265126212747275650066616C08
:101310007365002074656D70657261747572652007
:101320007072657761726E20747269676765726545
:10133000643A2000207072657761726E20666C617D
:101340006720636C65617265640A0020686F6D696F
:101350006E672073656E73697469766974793A2073
:101360000048617264636F646564204465666175FA
:101370006C742053657474696E6773204C6F61647C
:1013800065640A00320000003200000032000000F4
:10139000102700000000803F0000A0400000A04097
:1013A0000000C84100002044000020440000204408
:1013B0000000204420204D3930360020286D6D2952
:1013C0000020204D39313400205A00205900205887
:1013D0000053656E736F726C65737320686F6D690F
:1013E0006E67207468726573686F6C643A0A0020D7
:1013F0005430204500205A002059002058005374D2
:1014000065707065722064726976657220637572AA
:1014100072656E743A0A0020440020490020204D75
:101420003330312050005049442073657474696E24
:1014300067733A0A00205A0020590020204D3230AC
:1014400036205800486F6D65206F66667365743A84
:101450000A00204500205A0020590020580020543E
:101460000020530020204D32303520510020453CD3
:101470006D61785F655F6A65726B3E0020583C6DF8
:1014800061785F785F6A65726B3E20593C6D617868
:101490005F795F6A65726B3E205A3C6D61785F7A56
:1014A0005F6A65726B3E00416476616E6365643AA3
:1014B00020513C6D696E5F7365676D656E745F7416
:1014C000696D655F75733E20533C6D696E5F66653F
:1014D0006564726174653E20543C6D696E5F747220
:1014E0006176656C5F66656564726174653E002057
:1014F000540020520020204D3230342050004163EF
:1015000063656C65726174696F6E2028756E6974AD
:10151000732F7332293A20503C7072696E745F6188
:101520006363656C3E20523C726574726163745FE4
:10153000616363656C3E20543C74726176656C5FD8
:10154000616363656C3E0A00204500205A00205903
:101550000020204D3230312058004D6178696D7582
:101560006D20416363656C65726174696F6E2028DC
:10157000756E6974732F7332293A0A002045002072
:101580005A0020590020204D3230332058004D6140
:1015900078696D756D206665656472617465732028
:1015A00028756E6974732F73293A0A00204500204C
:1015B0005A0020590020204D3932205800537465BC
:1015C00070732070657220756E69743A0A0020206D
:1015D0004D3230302044300A0020204D323030204F
:1015E00044002044697361626C65640A0046696C5A
:1015F000616D656E742073657474696E67733A000B
:101600002020473231202020203B005452494747B8
:1016100045524544006F70656E003A20007A5F6D58
:10162000696E00795F6D696E00785F6D696E00525A
:1016300065706F7274696E6720656E6473746F7025
:10164000207374617475730A0000000001000000CB
:101650000100008000555555000000400033333331
:1016600000AAAA2A004992240000002000C7711C89
:101670000099991900D1451700555515003BB11334
:10168000002449120011111100000010000F0F0F6B
:1016900000E3380E0043790D00CCCC0C00C3300CB5
:1016A00000E8A20B0064210B00AAAA0A00703D0A00
:1016B000009DD80900427B090092240900DCD30870
:1016C00000888808001042080000000800F0C107E8
:1016D000008787070075500700711C07003EEB0666
:1016E00000A1BC06006990060066660600703E0612
:1016F000006118060017F4050074D105005BB00501
:1017000000B2900500627205005555050078390554
:1017100000B81E0500050505004EEC040087D40442
:1017200000A1BD040090A7040049920400C17D04FB
:1017300000EE690400C7560400444404005C32040F
:10174000000821040041100400000004003FF003E1
:1017500000F8E0030026D20300C3C30300CCB503A6
:10176000003AA803000A9B0300388E0300C08103DF
:10177000009F750300D0690300505E03001D5303F2
:101780000034480300913D0300333303001629035E
:1017900000381F030097150300300C0300030303F8
:1017A000000BFA020049F10200BAE802005CE00214
:1017B000002DD802002DD0020059C80200B0C0028E
:1017C0000031B90200DAB10200AAAA0200A0A30205
:1017D00000BC9C0200FA9502005C8F0200DF8802C8
:1017E0000082820200457C020027760200277002F8
:1017F00000436A02007C640200D05E02003F59028E
:1018000000C85302002066697273740A005A0059B6
:10181000005800486F6D6520000000404000004007
:1018200040000040400000000020746F6F206C6F8B
:101830006E6720657874727573696F6E207072655B
:1018400076656E7465640A0020636F6C6420657849
:1018500074727573696F6E2070726576656E7465EB
:10186000640A006563686F3A0000000A0B02090C05
:101870000D0E080703040100000000000000000036
:101880000000000000000000000000000000000058
:101890000000000000121110000000000000000015
:1018A0000000000000000000000000000000000038
:1018B00000000000000000000000000000000055D3
:1018C0006E6B6E6F776E20636F6D6D616E643A2024
:1018D0002200000020002300260029002C002F00F9
:1018E000320000010000030106010901000022008E
:1018F000250028002B002E003100340002010000DA
:10190000050108010B01050505050705080808087C
:10191000020202020A0A0808040404040101010187
:101920000101010103030303030303030407070782
:101930000C0C0C0C0C0C0C0C020202020606060627
:10194000060606060B0B0B0B0B0B0B0B07070A0A05
:101950000A0A0A0A05050504040408080102102001
:1019600020080810204010204080020102010804D5
:101970000201010204081020408080402010080469
:1019800002018004020180402010080402010804C2
:101990000201010204081020408001020408102006
:1019A000408010080408801020400440801020402F
:1019B0000480FFFDFCFAF8F6F4F2F0EEECEAE9E759
:1019C000E5E3E1E0DEDCDAD9D7D5D4D2D0CFCDCB98
:1019D000CAC8C7C5C3C2C0BFBDBCBAB9B7B6B4B325
:1019E000B2B0AFADACAAA9A8A6A5A4A2A1A09E9D85
:1019F0009C9A99989795949392908F8E8D8B8A89C3
:101A000088878684838281807F7E7D7B7A797877E0
:101A1000767574737271706F6E6D6C6B6A696867DE
:101A2000666564636261605F5E5D5C5B5A595858CD
:101A30005756555453525150504F4E4D4C4B4A4AA5
:101A40004948474646454443424241403F3E3E3D69
:101A50003C3B3B3A3938383736353534333232311E
:101A600030302F2E2E2D2C2B2B2A292928272726C4
:101A7000252524232322212120201F1E1E1D1C1C5E
:101A80001B1B1A19191818171616151514131312EB
:101A9000121111100F0F0E0E0D0D0C0C0B0A0A096E
:101AA00009080807070606050504040303020201E6
:101AB000000023646566696E652044454641554CC7
:101AC000545F4B64200023646566696E652044455D
:101AD0004641554C545F4B69200023646566696E2E
:101AE000652044454641554C545F4B702000504999
:101AF00044204175746F74756E652066696E6973F4
:101B0000686564212050757420746865206C617369
:101B100074204B702C204B6920616E64204B642034
:101B2000636F6E7374616E74732066726F6D206282
:101B3000656C6F7720696E746F20436F6E6669679E
:101B400075726174696F6E2E680A005049442041B5
:101B500075746F74756E65206661696C65642120AB
:101B600074696D656F75740A00453120544845529B
:101B70004D414C2052554E415741590054686572B1
:101B80006D616C2052756E61776179004531204836
:101B9000656174696E67206661696C65640048659B
:101BA0006174696E67206661696C656400504944C0
:101BB000204175746F74756E65206661696C65642B
:101BC000212054656D706572617475726520746F43
:101BD0006F20686967680A00204B643A2000204B38
:101BE000693A2000204B703A20000A20436C617350
:101BF00073696320504944200A002054753A20003C
:101C0000204B753A2000206D61783A2000206D69E4
:101C10006E3A200020643A200020626961733A2005
:101C200000504944204175746F74756E652066617B
:101C3000696C6564212054656D706572617475729C
:101C40006520746F6F20686967680A0050494420F6
:101C50004175746F74756E652073746172740A00D7
:101C6000504944204175746F74756E6520666169D2
:101C70006C656421204261642065787472756465C6
:101C800072206E756D6265720A006265640A002CCE
:101C90002073797374656D2073746F70706564213F
:101CA000204865617465725F49443A2000453120DF
:101CB000544845524D414C2052554E4157415900D0
:101CC000546865726D616C2052756E617761790040
:101CD00045312048656174696E67206661696C658D
:101CE000640048656174696E67206661696C65644B
:101CF0000000002100240027002A002D00300033BE
:101D00000001010000040107010A014572726F72AF
:101D10003A000F7411241FBECFEFD1E2DEBFCDBF5A
:101D200000E00CBF12E0A0E0B2E0E8E4FFEF00E06A
:101D30000BBF02C007900D92AA35B107D9F72FE06B
:101D4000AAE5B2E001C01D92AD32B207E1F71EE094
:101D5000CAE8DEE000E006C021970109802FFE01FD
:101D60000E94677FC938D10780E00807A9F70E9461
:101D70006D5E0C94A27F0C9400008091950590916B
:101D80009605981759F0E92FF0E0EB5EFA4F808145
:101D90009F5F9F779093960590E008958FEF9FEF58
:101DA0000895813039F018F0823039F0089585E8CF
:101DB0009EE005C08CE09EE002C083E99DE00C94AB
:101DC000D82AFF920F931F93CF93DF93FC012081BA
:101DD0002B3319F1D0919304D430F8F4F62EBC01D2
:101DE000C091AF040C2F10E0F0E6CF9FC00111248A
:101DF0008F5E9C4F0E94907FF801E95FFC4FF0825C
:101E0000CF5FC43018F4C093AF0402C01092AF0487
:101E1000DF5FD093930481E001C080E0DF91CF9138
:101E20001F910F91FF900895179A8091A8028E7FBD
:101E30008093A802169A8091A8028D7F8093A802B1
:101E4000159A8091A8028B7F8093A802149A089516
:101E5000CF93DF9380E00E94B352CDEAD2E0688353
:101E600079838A839B8381E00E94B3526C837D8354
:101E70008E839F8382E00E94B352688779878A8726
:101E80009B87DF91CF910895CF92DF92EF920F93CE
:101E90001F93CF93DF9300D01F92CDB7DEB7E090B2
:101EA000BF0C19821A821B821C82CE0101966C0122
:101EB00007E212E02BE236E047E256E063E276E02A
:101EC0008FE196E00E94F6370F900F900F900F90E1
:101ED000DF91CF911F910F91EF90DF90CF900895F8
:101EE0000F931F93CF93DF9394E0899FE001112418
:101EF0008E0102521D4FFE01EE52FD4FDE01A8572A
:101F0000BD4F2D913D914D915C9160817181828198
:101F100093810E94737CF801608371838283938331
:101F2000FE01ED56F94F85919591A591B491FE0171
:101F3000E651FD4F80839183A283B383FE01E15676
:101F4000F94F85919591A591B491CB5FDD4F888331
:101F50009983AA83BB83DF91CF911F910F9108953D
:101F60002BE236E047E256E063E276E08FE196E06E
:101F70000C94B15180916F00982F927081FF05C031
:101F800080916F008D7F80936F008091020F80930E
:101F9000010F8093000F8093FF0E84E68093FE0E66
:101FA00028EE33E03093B60C2093B50C992329F03A
:101FB00080916F00826080936F0081E08093D50CE8
:101FC0000E94A15145DF8CE0EDEAF2E0AFE1B6E01E
:101FD00001900D928A95E1F7C3CF2F923F924F92D5
:101FE0005F926F927F929F92AF92BF92CF92DF9259
:101FF000EF92FF920F931F93CF93DF93CDB7DEB78E
:1020000028970FB6F894DEBF0FBECDBFA82E1A01D9
:102010002B01922EB32EC82ED12CF601E65AFB4F7F
:10202000E491EE24E3941E160CF4E12CFF24F394C7
:1020300020E030E0A901C201B1010E94997E18168A
:102040000CF0F12CFE2419F061E08A2DAADECC0CF4
:10205000DD1CCC0CDD1CC601815E994F3C01FC01EE
:1020600010821182128213827BDFF301208231827F
:1020700042825382E090BF0C20E030E0A901B80119
:10208000892D9B2D0E945F7881110AC0F601E75EC1
:10209000F74E85919591A591B4918C019A2EBB2E06
:1020A000C801A92DBB2D8D839E83AF83B88719826C
:1020B0001A821B821C82CE0101966C018E010B5F7D
:1020C0001F4F2BE236E047E256E063E276E08FE115
:1020D00096E00E94F6370E94A151FF2071F0809196
:1020E0009104882331F01092910460E08A2D59DE2A
:1020F00004C08BEA96E00E94512628960FB6F89409
:10210000DEBF0FBECDBFDF91CF911F910F91FF902A
:10211000EF90DF90CF90BF90AF909F907F906F90A7
:102120005F904F903F902F9008958091D0029091B2
:10213000D102009731F04AE050E060E070E00C948A
:10214000B37560E070E0CB010895EFDF97FD0AC042
:10215000ECDF6F3F71058105910509F02CF4E5DF97
:10216000862F089580E008958FEF08958091D00222
:102170009091D102892B31F0E8DF91E0811103C009
:1021800090E001C091E0892F08950F931F93CF93A2
:102190008091D0029091D102009711F1FC018F0142
:1021A000C1912C2F2F7DA9F0C53411F0C536B9F798
:1021B000F801108260E070E08091D0029091D1022D
:1021C0000E946074F801C083562F472F382F292FA3
:1021D0000BC060E070E0CF911F910F910C94607480
:1021E00050E040E030E020E0652F742F832F922FE5
:1021F000CF911F910F91089581548A3108F042C008
:10220000E82FF0E0409174025091750260917602DF
:102210007091770204C076956795579547958A9592
:10222000D2F7842F817040FF2FC0E65AFD4F908176
:10223000992309F1E091BD0CF091BE0CE90FF11D5D
:10224000908120ED290F2A3098F09E3211F491816F
:102250000CC09D3211F09B3271F4918120ED290F59
:102260002A3030F09E3239F4928190539A3018F42B
:102270002E2F9F2F02C020E090E02093D002909359
:10228000D102089580E008950895B6DF882341F0D3
:1022900081E02091D0023091D102232B09F480E01B
:1022A00008959F92AF92BF92CF92DF92EF92FF92EA
:1022B0000F931F93CF93DF9380E4A82E82E0B82E74
:1022C0000FE016E0CFE1D6E09EEDC92E92E0D92EC8
:1022D0002BE0E22E23E0F22E912CF50181915F019B
:1022E0008BDF882301F151DFF7012081211104C028
:1022F00020910F03222339F0288139814A815B81A3
:102300000E94737C0AC0F3E09F1639F0F601208129
:102310003181428153810E94727CF8016083718314
:102320008283938309C088819981AA81BB81F80146
:1023300080839183A283B38393940C5F1F4F249671
:10234000F4E0CF0ED11C2FEFE21AF20A84E09812CB
:10235000C4CF86E49ADF8823B9F017DF20E030E0AD
:10236000A9010E94997E18167CF40FDF20E030E06E
:1023700040E752E40E944F7D609327027093280249
:102380008093290290932A02DF91CF911F910F91A0
:10239000FF90EF90DF90CF90BF90AF909F90089507
:1023A0009091C00095FFFCCF8093C60008958F9256
:1023B0009F92AF92BF92CF92DF92EF92FF920F93D4
:1023C0001F93CF93DF93CDB7DEB728970FB6F8945E
:1023D000DEBF0FBECDBF80913102882321F08FE098
:1023E00096E00E9420228091A40C83FDA1C0C090A1
:1023F0001B06D0901C06E0901D06F0901E06209152
:102400002B0630912C0640912D0650912E06C701C7
:10241000B6010E945F78882309F48AC080918F06F4
:1024200081112FC060919006709191068091920663
:10243000909193060E94B77D20912F023091300237
:1024400062177307F4F4C0922B06D0922C06E09228
:102450002D06F0922E06E3E6F8E184918F010F5FDE
:102460001F4F882319F09CDFF801F7CFECE1F7E06C
:1024700084918F010F5F1F4F882319F091DFF801BE
:10248000F7CF80901B0690901C06A0901D06B09080
:102490001E0620912B0630912C0640912D0650915E
:1024A0002E06C501B4010E94727C6B017C0120E004
:1024B00030E0A9010E94997E87FF04C0F7FAF094EA
:1024C000F7F8F094E091BF0C84E0E89FF00111244C
:1024D000E55DFD4F2081318142815381C701B60105
:1024E0000E94C47820E030E048E453E40E94997EE2
:1024F0001816F4F480922B0690922C06A0922D06CA
:10250000B0922E06E3E6F8E184918F010F5F1F4F32
:10251000882319F045DFF801F7CFEDEFF6E084915D
:102520008F010F5F1F4F882319F03ADFF801F7CFB3
:102530006091320270913302072E000C880B990BC8
:102540000E9465782091270230912802409129024B
:1025500050912A020E94C4782AE037ED43E25CE3FE
:102560000E94C4786D837E838F839887E090BF0C30
:1025700019821A821B821C82CE0101966C018E0187
:102580000B5F1F4F2BE136E047E156E063E176E059
:102590008FE096E00E94F63780E1EFE0F6E0AFE1F1
:1025A000B6E001900D928A95E1F728960FB6F8945F
:1025B000DEBF0FBECDBFDF91CF911F910F91FF9076
:1025C000EF90DF90CF90BF90AF909F908F90089545
:1025D000CF93DF93EBE0FDE18491EF012196882317
:1025E00019F0DEDEFE01F8CFE9EBF6E08491EF01B1
:1025F0002196882319F0D4DEFE01F8CFDF91CF9128
:102600000895CF92DF92EF92FF920F931F93CF9393
:10261000DF9380919304843008F01BC1AEDBAC01E2
:1026200097FD17C1982F2091140D3091150D8A3008
:1026300019F09D3009F0DCC0109214052115310508
:1026400019F40E947554E5CFF901EC54FB4F108248
:102650001092150D1092140DC4EBD4E0FE0181917F
:10266000803211F4EF01FACF8E3409F07EC020974A
:1026700009F47BC06BE776E0CE010E9417788C01ED
:10268000892B41F06EE470E0CE0104960E947C7FBD
:10269000009709F4CE014AE050E060E070E0019656
:1026A0000E94B3756093B0047093B1048093B20438
:1026B0009093B304C090160DD090170DE090180DB4
:1026C000F090190D2FEFC21AD20AE20AF20A6C1525
:1026D0007D058E059F0529F0012B19F488E496E00D
:1026E0002AC06AE270E0CE010E94977F9C010097A9
:1026F00001F1982F9C1B10E0992339F09150FE01B5
:10270000E90FF11D80811827F7CF4AE050E060E023
:1027100070E0C90101960E94B375012F10E020E01E
:1027200030E0601771078207930779F089E296E03D
:1027300002C08FEF95E0DF91CF911F910F91FF9035
:10274000EF90DF90CF900C943B5E8091B00490911D
:10275000B104A091B204B091B3048093160D90938C
:10276000170DA093180DB093190D809113028111CC
:102770001EC067E470E0CE010E947C7F0097B9F034
:102780004AE050E060E070E001960E94B37564306A
:1027900071058105910558F4E8E8F5E084918F0111
:1027A0000F5F1F4F882319F0FBDDF801F7CF6BE4B3
:1027B00072E0CE010E94877F892B11F410921402DF
:1027C00060E572E0CE010E94877F892B21F48FE7BC
:1027D00095E00E94512665E572E0CE010E94877F58
:1027E000892B09F4C7DB61E084EB94E0EADA11CFCE
:1027F0002F3531050CF00DCF9C35B9F4BEDA97FDBD
:1028000008CF20911405211104CF2091140D30918F
:10281000150DA9014F5F5F4F5093150D4093140D97
:10282000F901EC54FB4F8083F4CE9B3319F481E023
:1028300080931405809114058111EBCEC901019696
:102840009093150D8093140DF901EC54FB4F4083C8
:10285000E0CEDF91CF911F910F91FF90EF90DF902D
:10286000CF900895BF92CF92DF92EF92FF920F9395
:102870001F93CF93DF93CDB7DEB76E970FB6F89463
:10288000DEBF0FBECDBF6091AD047091AE04611587
:10289000710551F14DE150E0CE0101967C010E949D
:1028A00008781E8EF7018F010E191F09B190BB2009
:1028B00021F19AE0B912F7CF20C0B70182E795E085
:1028C0000E949B4F82E26CDD8AE06ADDBB2051F101
:1028D0000F5F1F4F8091AD049091AE04080F191F38
:1028E0001093AE040093AD0481E02091AD043091CB
:1028F000AE04232BD1F480E018C0F701E00FF11FE4
:10290000108260E0C7015DDA882371F3E3E6F8E145
:1029100084916F019FEFC91AD90A882371F240DDB3
:10292000F601F6CF00E010E0DBCF6E960FB6F8941C
:10293000DEBF0FBECDBFDF91CF911F910F91FF90F2
:10294000EF90DF90CF90BF9008958F929F92AF92BB
:10295000BF92EF92FF920F931F93CF93DF93CDB768
:10296000DEB7A0970FB6F894DEBF0FBECDBF6115DE
:1029700071058105910589F100E0842E912CA12C2F
:10298000B12C102FEE24E394F12CEC0EFD1EE00E82
:10299000F11C07FDFA94A50194010E94377CF70110
:1029A0006083B901CA010F5F611571058105910549
:1029B00041F71F3F21F1E1E0F0E0EC0FFD1FE10FD7
:1029C000F11D17FDFA9580818A3010F097E301C060
:1029D00090E3890FE5DC1150ECCF80E3A0960FB6B1
:1029E000F894DEBF0FBECDBFDF91CF911F910F9145
:1029F000FF90EF90BF90AF909F908F90D1CCA0961A
:102A00000FB6F894DEBF0FBECDBFDF91CF911F91FF
:102A10000F91FF90EF90BF90AF909F908F9008958F
:102A2000EF92FF920F931F93CF93DF937C0184E586
:102A30002CDCD82F882321F188DBC82F1816E4F46A
:102A4000E3E6F8E184918F010F5F1F4F882319F0AF
:102A5000A7DCF801F7CF8DE4A3DCB70180E090E0BC
:102A60004AE073DF6C2FCC0F770B80E896E00E9472
:102A7000824F8AE095DC08C080930603D0E004C052
:102A80008091BF0C809306038D2FDF91CF911F9112
:102A90000F91FF90EF900895CF92DF92EF92FF9207
:102AA0006B017C0197FF0AC08DE27ADCF094E09420
:102AB000D094C094C11CD11CE11CF11C4AE0C70198
:102AC000B601FF90EF90DF90CF903FCFCF93DF9391
:102AD0008091950580939605E4EFF6E08491EF01EF
:102AE0002196882319F05CDCFE01F8CF8091160D49
:102AF0009091170DA091180DB091190DBC01CD0149
:102B00006F5F7F4F8F4F9F4FC7DF8AE049DCE091B7
:102B10009204F0E0E95FFC4F8081882321F0DF918F
:102B2000CF910C94B222DF91CF910895FF920F9331
:102B30001F93CF93DF93F82E092F162FEFEEF6E0B9
:102B40008491EF012196882319F02ADCFE01F8CF49
:102B5000EF2DF02F8491EF012196882319F020DCCE
:102B6000FE01F8CFEDEEF6E08491EF012196882387
:102B700019F016DCFE01F8CF612F70E080E090E0E4
:102B80008BDF8AE0DF91CF911F910F91FF9008CCEE
:102B90004F925F926F927F928F929F92AF92BF926D
:102BA000CF92DF92EF92FF92CF93DF932091DE02DC
:102BB0003091DF024091E0025091E10260911F06E6
:102BC0007091200680912106909122060E94737CCC
:102BD000AB01BC018AEE96E00E94654F2091E202B3
:102BE0003091E3024091E4025091E50260912306A6
:102BF0007091240680912506909126060E94737C90
:102C0000AB01BC0186EE96E00E94654F2091E60282
:102C10003091E7024091E8025091E9026091270665
:102C2000709128068091290690912A060E94737C53
:102C3000AB01BC0182EE96E00E94654F40912B06ED
:102C400050912C0660912D0670912E068EED96E027
:102C50000E94654F80916F00982F927081FF05C090
:102C600080916F008D7F80936F004090780250902C
:102C7000790260907A0270907B0280907C02909042
:102C80007D02A0907E02B0907F02C0908002D09022
:102C90008102E0908202F0908302992329F08091D2
:102CA0006F00826080936F00E4EDF6E08491EF01A5
:102CB0002196882319F074DBFE01F8CFC301B2011D
:102CC000EBDEE0EDF6E08491EF012196882319F028
:102CD00067DBFE01F8CFC501B401DEDEECECF6E007
:102CE0008491EF012196882319F05ADBFE01F8CF79
:102CF000C701B601D1DE8AE0DF91CF91FF90EF905E
:102D0000DF90CF90BF90AF909F908F907F906F900B
:102D10005F904F9045CB2F923F924F925F926F9270
:102D20007F928F929F92AF92BF92CF92DF92EF925B
:102D3000FF920F931F93CF93DF93CDB7DEB76297C8
:102D40000FB6F894DEBF0FBECDBF8DE690E068DE13
:102D5000811162C18091A40C83FD5EC183E595DA87
:102D60008C87811105C082E590DA89838823A1F0E0
:102D70000CDA0E94B77DCB010E94762E06DA20E0A5
:102D800030E04AEA52E40E945F7818160CF43FC122
:102D90000E94DE5B21E029830E94B85049814423D0
:102DA00009F43AC181E0809314021A821B821C82CA
:102DB0001D82188619861A861B8619821D865CE379
:102DC0005E878CE18F8796E4988B312C212CA0E8CC
:102DD000A98BBFEBBA8B812C912C54016091F60525
:102DE0007091F705072E000C880B990B0E946578EF
:102DF0007B018C019B01AC01632D722D89899A891D
:102E00000E945F78882329F12091900630919106E5
:102E100040919206509193068C85B70181110CC0A8
:102E2000C8010E945F78881F8827881F89833E2CED
:102E30002F2C098B1A8B0DC0C8010E945F7887FF69
:102E400003C080911402E8C03E2C2F2C098B1A8BF2
:102E500019820E94E55D6B017C01DC01CB012885B4
:102E600039854A855B85821B930BA40BB50BB7FD97
:102E700037C0D701C60188519C4FAF4FBF4F8887DD
:102E80009987AA87BB870E943F2CE8ECF6E08491E3
:102E90003F019FEF691A790A882319F081DAF3015B
:102EA000F6CF81149104A104B104B1F0D501C4019D
:102EB000805F984DAF4FBF4FBC01CD016C197D09AC
:102EC0008E099F0928EE33E040E050E00E94377CF5
:102ED000CA01B901E1DD02C08FE362DA8AE060DA9B
:102EE0000E9482260E94E55D60939E0270939F027D
:102EF0008093A0029093A102A0919006AE83B0911E
:102F00009106BF8300919206109193069D01A8013E
:102F1000632D722D89899A890E94727C2B013C0154
:102F200020E030E0A9010E94997E87FF04C077FA73
:102F3000709477F8709481149104A104B10459F449
:102F400020E030E040E85FE3C301B2010E945F7817
:102F500087FF0DC00AC020E030E040E450E4C30128
:102F6000B2010E94997E181614F446015701298176
:102F70002223A9F18A819B81AC81BD81892B8A2B77
:102F80008B2B61F0D701C6012A813B814C815D8189
:102F9000821B930BA40BB50BB7FD21C02E813F8183
:102FA000A8016D857E858F8598890E94727C20E0BE
:102FB00030E040EC5FE30E945F7887FD42CFD701AD
:102FC000C601805A9541AF4FBF4F8A839B83AC8324
:102FD000BD839E819D87AF81AE870F87188B8091BF
:102FE0001402882309F42DCF81149104A104B104A3
:102FF00009F4F4CEB0E1CB1AB7E2DB0AE108F1083C
:10300000C818D908EA08FB08F7FE1BCFE7CE0E94D4
:10301000BD5B31E03983C0CE62960FB6F894DEBF57
:103020000FBECDBFDF91CF911F910F91FF90EF9019
:10303000DF90CF90BF90AF909F908F907F906F90D8
:103040005F904F903F902F9008958F929F92AF92F4
:10305000BF92CF92DF92EF92FF92CF936B017C01F0
:10306000B42E20E030E0A9010E945F7887FF06C0FF
:103070008DE296D9F7FAF094F7F8F094C0E060E0AA
:1030800070E080E09FE3CB1541F02DEC3CEC4CEC84
:103090005DE30E94C478CF5FF6CF9B01AC01C7010E
:1030A000B6010E94737C6B017C010E94BC7D4B01C8
:1030B0005C014AE04ADCCC2379F1C501B4010E94ED
:1030C00063789B01AC01C701B6010E94727C6B0161
:1030D0007C018EE265D920E030E040E251E4C70196
:1030E000B6010E94C4784B015C010E94B77D6B0160
:1030F000770FEE08FF08C701B601CEDCC701B601A5
:103100000E9465789B01AC01C501B4010E94727CEC
:103110006B017C01C150F9F6CF91FF90EF90DF90E9
:10312000CF90BF90AF909F908F9008951F920F9275
:103130000FB60F9211240BB60F922F938F939F937C
:10314000EF93FF9320919605E091950581E08E0F16
:103150008F779091C600281729F0F0E0EB5EFA4FC8
:103160009083E82FE0939505FF91EF919F918F91C8
:103170002F910F900BBE0F900FBE0F901F901895C0
:103180002F923F924F925F926F927F928F929F9277
:10319000AF92BF92CF92DF92EF92FF920F931F9365
:1031A000CF93DF93CDB7DEB72F970FB6F894DEBF7E
:1031B0000FBECDBFF8948FEF9FEF9093890080935F
:1031C0008800BAE0DB2E1F861E8678948091DB058E
:1031D0009091DC05A091DD05B091DE05892B8A2B4D
:1031E0008B2B09F0C5C18091D50C8823D1F01092AA
:1031F000D50C8091D30C9091D40C892B91F0109226
:103200009C051092D40C1092D30C9091010F8091D8
:10321000020F981731F08091020F8F5F8F708093AB
:10322000020F8091D30C9091D40C892B09F4A0C18A
:103230000091D7051091D8052091D9053091DA0574
:103240008091D3059091D405A091D505B091D60574
:103250004091CA0550E060E070E0801B910BA20B2A
:10326000B30B481759076A077B0710F4DB01CA0143
:10327000482F800F911FA21FB31F8093D7059093F3
:10328000D805A093D905B093DA0580918400909178
:1032900085004C968090B1059090B205A090B30542
:1032A000B090B4050091A1051091A2052091A3054D
:1032B0003091A405080D191D2A1D3B1D0093B10571
:1032C0001093B2052093B3053093B40537FD1CC0AD
:1032D000409A009178021091790220917A023091FF
:1032E0007B0280901502082C000C9908AA08BB08E4
:1032F000080D191D2A1D3B1D0093780210937902B9
:1033000020937A0230937B028090B5059090B605A9
:10331000A090B705B090B8050091A5051091A6053D
:103320002091A7053091A805080D191D2A1D3B1DE8
:103330000093B5051093B6052093B7053093B805F3
:1033400037FD1CC0419A00917C0210917D022091B2
:103350007E0230917F0280901602082C000C9908A2
:10336000AA08BB08080D191D2A1D3B1D00937C02ED
:1033700010937D0220937E0230937F028090B905E6
:103380009090BA05A090BB05B090BC050091A9052E
:103390001091AA052091AB053091AC05080D191DBF
:1033A0002A1D3B1D0093B9051093BA052093BB0558
:1033B0003093BC0537FD1CC0429A009180021091E9
:1033C0008102209182023091830280901702082CA2
:1033D000000C9908AA08BB08080D191D2A1D3B1DE1
:1033E0000093800210938102209382023093830223
:1033F0008090BD059090BE05A090BF05B090C0051F
:103400000091AD051091AE052091AF053091B0054A
:10341000080D191D2A1D3B1D0093BD051093BE0507
:103420002093BF053093C00537FD1CC0439A00911F
:10343000840210918502209186023091870280904B
:103440001802082C000C9908AA08BB08080D191DC1
:103450002A1D3B1D0093840210938502209386024F
:10346000309387020091B1051091B2052091B30508
:103470003091B40537FD15C080909D0590909E0554
:10348000A0909F05B090A005081919092A093B09C9
:103490000093B1051093B2052093B3053093B405A2
:1034A00040980091B5051091B6052091B70530916F
:1034B000B80537FD15C080909D0590909E05A090A1
:1034C0009F05B090A005081919092A093B09009326
:1034D000B5051093B6052093B7053093B80541980C
:1034E0000091B9051091BA052091BB053091BC053A
:1034F00037FD15C080909D0590909E05A0909F057A
:10350000B090A005081919092A093B090093B905CB
:103510001093BA052093BB053093BC0542980091E7
:10352000BD051091BE052091BF053091C00537FD46
:1035300015C080909D0590909E05A0909F05B0902D
:10354000A005081919092A093B090093BD05109324
:10355000BE052093BF053093C0054398415041F00C
:10356000209184003091850028173907C8F392CE46
:103570008091DB059091DC05A091DD05B091DE0521
:10358000892B8A2B8B2B09F0CEC5E091D30CF091BF
:10359000D40C309709F44DC78091D7059091D80588
:1035A000A091D905B091DA054091D3055091D40589
:1035B0006091D5057091D60584179507A607B707C2
:1035C000D0F010929C051092D40C1092D30C9091D4
:1035D000010F8091020F981709F42BC78091020FF9
:1035E0008F5F8F708093020FA0ED4A2EA7E05A2EB6
:1035F000612C712CE5C34091CF055091D0056091AD
:10360000D1057091D205481759076A077B0708F45E
:10361000A4C18090CB059090CC05A090CD05B09032
:10362000CE0586A997A9A0ADB1AD88169906AA06C0
:10363000BB0608F076C181149104A104B10449F4D9
:103640008091980590919905A0919A05B0919B055C
:1036500064C1B0E0AC2D882D392D2A2DF981EA8185
:103660007B816C815D814E819F815091CF0C589FF1
:10367000712D66274091D00C489F700D611D1090F0
:10368000D10C189E600D539F700D611D439F600DFE
:10369000529F600DF72FE62FF79F512D4427992752
:1036A000F69F500D411D9B1FE79F500D411D9B1F15
:1036B000E69F400D911DF42FE92FF79FA12D442780
:1036C0009927F69FA00D411D9B1FE79FA00D411D4F
:1036D0009B1FE69F400D911DF42FE92F55278091E8
:1036E00098053091990520919A050090AC040B2A19
:1036F00009F483C04091A8044F9F51198B0B3B0BD9
:103700002B0B9091A9049F9F501981093B0B2B0B08
:10371000A091AA04AF9F801931092B0B4E9F50191D
:1037200081093B0B2B0B9E9F801931092B0BAE9F00
:1037300030192109F79FA12D44279927F69FA00D45
:10374000411D9B1FE79FA00D411D9B1FE69F400D44
:10375000911DF42FE92F4091A4044F9F510D8B1F11
:103760003B1F2B1F9091A5049F9F500D811D3B1F58
:103770002B1FA091A604AF9F800D311D2B1F4E9FC4
:10378000500D811D3B1F2B1F9E9F800D311D2B1F38
:10379000AE9F300D211DF79FA12D44279927F69F3D
:1037A000A00D411D9B1FE79FA00D411D9B1FE69F84
:1037B000400D911DF42FE92F4091A0044F9F511906
:1037C0008B0B3B0B2B0B9091A1049F9F50198109F0
:1037D0003B0B2B0BA091A204AF9F801931092B0B3F
:1037E0004E9F501981093B0B2B0B9E9F801931096D
:1037F0002B0BAE9F3019210982C04091A8044F9F26
:10380000510D8B1F3B1F2B1F9091A9049F9F500DA3
:10381000811D3B1F2B1FA091AA04AF9F800D311D5E
:103820002B1F4E9F500D811D3B1F2B1F9E9F800DF8
:10383000311D2B1FAE9F300D211DF79FA12D442759
:103840009927F69FA00D411D9B1FE79FA00D411DCD
:103850009B1FE69F400D911DF42FE92F4091A4047A
:103860004F9F51198B0B3B0B2B0B9091A5049F9FE6
:10387000501981093B0B2B0BA091A604AF9F801917
:1038800031092B0B4E9F501981093B0B2B0B9E9F2F
:10389000801931092B0BAE9F30192109F79FA12DFB
:1038A00044279927F69FA00D411D9B1FE79FA00D60
:1038B000411D9B1FE69F400D911DF42FE92F409164
:1038C000A0044F9F510D8B1F3B1F2B1F9091A104F4
:1038D0009F9F500D811D3B1F2B1FA091A204AF9FE6
:1038E000800D311D2B1F4E9F500D811D3B1F2B1F27
:1038F0009E9F800D311D2B1FAE9F300D211D112469
:10390000CA2EF983EA837B836C835D834E839F8316
:1039100090E0932BA0E0B0E0A22B27E33FE011E082
:1039200011C082A993A9A4A9B5A9F7CFB695A79567
:1039300097958795110F2C5F3F4F4FE02335340744
:1039400009F446C4F9014591559165917491481760
:1039500059076A077B0750F33BC44091C605509155
:10396000C7056091C8057091C905481759076A07CE
:103970007B0708F0B8C18091C50581111FC0DF0128
:10398000AE5BBF4FED90FD900D911C9113971D966E
:103990002D913D914D915C9162A973A984A995A93E
:1039A0000E94704E51E05093C505E091D30CF09108
:1039B000D40C82A893A8A4A8B5A886C18091C105FB
:1039C0009091C205A091C305B091C40542AD53AD1D
:1039D00064AD75AD84179507A607B70708F06EC1EB
:1039E0000097A105B10549F480909805909099053C
:1039F000A0909A05B0909B0567C130E04885882E5D
:103A0000292F8A2FE9857A856B855C859D85909124
:103A1000CF0C989D612D55272090D00C289C600DCF
:103A2000511D1090D10C189C500D929F600D511D8E
:103A3000229E500D989F500DE62F752FE69F912DD9
:103A400022243324E59F900D211C331E769F900D78
:103A5000211C331E759F200C311CE22D732DE69F17
:103A6000412D22243324E59F400D211C331E769FD7
:103A7000400D211C331E759F200C311CE22D732D2F
:103A80009927809098052091990580919A0500903A
:103A9000AC04032A09F483C02090A8042E9E911937
:103AA000830A230B830B3090A9043E9E9019810852
:103AB000230B830B4091AA044E9F80182109830B8E
:103AC000279E90198108230B830B379E80182109AC
:103AD000830B479F20198109E69F412D222433241F
:103AE000E59F400D211C331E769F400D211C331E87
:103AF000759F200C311CE22D732D2090A4042E9E66
:103B0000910D831E231F831F3090A5043E9E900DB0
:103B1000811C231F831F4091A6044E9F800C211DF2
:103B2000831F279E900D811C231F831F379E800CAF
:103B3000211D831F479F200D811DE69F412D2224BB
:103B40003324E59F400D211C331E769F400D211C20
:103B5000331E759F200C311CE22D732D2090A00484
:103B60002E9E9119830A230B830B3090A1043E9E55
:103B700090198108230B830B4091A2044E9F80185B
:103B80002109830B279E90198108230B830B379EF5
:103B900080182109830B479F2019810982C020903A
:103BA000A8042E9E910D831E231F831F3090A9040D
:103BB0003E9E900D811C231F831F4091AA044E9F9F
:103BC000800C211D831F279E900D811C231F831FA6
:103BD000379E800C211D831F479F200D811DE69F6E
:103BE000412D22243324E59F400D211C331E769F56
:103BF000400D211C331E759F200C311CE22D732DAE
:103C00002090A4042E9E9119830A230B830B3090DD
:103C1000A5043E9E90198108230B830B4091A604B6
:103C20004E9F80182109830B279E90198108230B32
:103C3000830B379E80182109830B479F2019810928
:103C4000E69F412D22243324E59F400D211C331E85
:103C5000769F400D211C331E759F200C311CE22DD8
:103C6000732D2090A0042E9E910D831E231F831F71
:103C70003090A1043E9E900D811C231F831F409114
:103C8000A2044E9F800C211D831F279E900D811C36
:103C9000231F831F379E800C211D831F479F200DEC
:103CA000811D11244887E9877A876B875C879D8708
:103CB000912C922AA12CB12CA82A06C0E15BFF4FBF
:103CC00080809180A280B38087E39FE021E0FC01A7
:103CD0004591559165917491481559056A057B0583
:103CE00008F4D9C2E3C280911A0290911B02A091FC
:103CF0001C02B0911D02B7FF5BC0E95BFF4F8080E3
:103D00009180A280B38087E39FE021E0FC01459190
:103D1000559165917491481559056A057B0550F4D4
:103D2000B694A79497948794220F0496AFE08335B6
:103D30009A0761F72093CA05B0E28B169104A1049B
:103D4000B10408F447C320E2821A9108A108B1081F
:103D5000811438E09306A104B10408F417C344E0C9
:103D6000949EC0011124895C944FFC0132962591E8
:103D70003491782D6627739FA001729F410D561FC5
:103D80000694461F561F112460E070E0FC01259147
:103D90003491C901A0E0B0E0841B950BA60BB70BD2
:103DA00080931A0290931B02A0931C02B0931D02F1
:103DB00040901A0250901B0260901C0270901D02ED
:103DC0008091D30C9091D40C892B09F0A4C10E944E
:103DD000134F9093D40C8093D30C892B09F49BC17F
:103DE000E091D30CF091D40C808183FF3EC0858993
:103DF0009689A789B08D8093780290937902A093D9
:103E00007A02B0937B02818D928DA38DB48D8093C5
:103E10007C0290937D02A0937E02B0937F02858DF9
:103E2000968DA78DB0A18093800290938102A0937C
:103E30008202B093830281A192A1A3A1B4A1809335
:103E4000840290938502A0938602B093870290919A
:103E5000010F8091020F981709F4B9CF8091020FDA
:103E60008F5F8F708093020FB2CF058916892789E3
:103E7000308D81E0011511052105310509F480E03F
:103E8000818C928CA38CB48C81149104A104B10414
:103E900009F08260458D568D678D70A141155105E1
:103EA0006105710509F0846080939C051092C1053D
:103EB0001092C2051092C3051092C4051092CB0552
:103EC0001092CC051092CD051092CE0585A196A139
:103ED000A7A1B0A58093D3059093D405A093D50551
:103EE000B093D605442455243201481A590A6A0A67
:103EF0007B0A4092BD055092BE056092BF0570924C
:103F0000C0054092B9055092BA056092BB05709207
:103F1000BC054092B5055092B6056092B705709207
:103F2000B8054092B1055092B2056092B305709207
:103F3000B405000F111F221F331F0093A10510931A
:103F4000A2052093A3053093A405880C991CAA1CF4
:103F5000BB1C8092A5059092A605A092A705B092E1
:103F6000A805440F551F661F771F4093A90550935E
:103F7000AA056093AB057093AC0541A152A163A162
:103F800074A1440F551F661F771F4093AD055093D2
:103F9000AE056093AF057093B005880F991FAA1FF7
:103FA000BB1F80939D0590939E05A0939F05B093A2
:103FB000A0051092D7051092D8051092D90510923D
:103FC000DA0582A593A5A4A5B5A58093CF05909306
:103FD000D005A093D105B093D20586A597A5A0A939
:103FE000B1A98093C6059093C705A093C805B09367
:103FF000C90541A5EA5BFF4F508180919705581391
:104000000AC08091190290E0242F042E000C330B7B
:104010002817390731F050939705409319020E94F1
:10402000C24E0E94A2318FEF9FEFDC0180931A02F3
:1040300090931B02A0931C02B0931D02E091D30C3D
:10404000F091D40CDF01DE96ED90FD900D911C9166
:1040500022A933A944A955A9E55BFF4F608171816D
:10406000828193810E94704E1092C505E091D30C1D
:10407000F091D40CE55BFF4F80809180A280B380EB
:1040800087E39FE021E0FC01459155916591749192
:10409000481559056A057B0558F4B694A79497947A
:1040A0008794220F049643E55FE04817590759F7B4
:1040B0002093CA0550E285169104A104B10408F4C6
:1040C000B2C190E2891A9108A108B1088114A8E050
:1040D0009A06A104B10408F483C1B4E09B9EC00118
:1040E0001124895C944FFC01329625913491782DEE
:1040F0006627739FA001729F410D561F0694461FAD
:10410000561F1124FC0145905490612C712C441AC7
:10411000550A610871084092DB055092DC056092F7
:10412000DD057092DE058091DB059091DC05A091A4
:10413000DD05B091DE05AC01BD01009721E0A207CD
:10414000B10520F04FEF5FEF60E070E0841B950B4E
:10415000A60BB70B8093DB059093DC05A093DD05E0
:10416000B093DE05F894809184009091850040968C
:10417000DA94DD2059F0AE85BF85A40FB51FBF8747
:10418000AE87A817B90708F420C802C09F878E879A
:104190002E853F85309389002093880078942F9650
:1041A0000FB6F894DEBF0FBECDBFDF91CF911F9148
:1041B0000F91FF90EF90DF90CF90BF90AF909F90C6
:1041C0008F907F906F905F904F903F902F900895C9
:1041D0001093CA0580329105A105B10508F456C0B7
:1041E0008097A109B109811528E09207A105B105C1
:1041F000F0F044E0949F90011124295C344FF901C0
:10420000329645915491EE27859FB001849F610DB0
:104210007E1F06946E1F7E1F1124F9014590549055
:10422000612C712C461A570A6108710822C0AC0132
:10423000BD017695679557954795FA01EC7FAF01DB
:10424000495C584FFA0125913491FA0132966591F3
:1042500074918770869FA001879F500D1124F3E011
:1042600056954795FA95E1F72901441A550A612CAC
:10427000712C840C951CA61CB71C8092CB059092C7
:10428000CC05A092CD05B092CE059ACD80E290E00B
:10429000A0E0B0E0A5CFB694A79497948794220F9E
:1042A00004965FE08335950709F011CD2093CA0588
:1042B00070E287169104A104B10408F461C070E2B1
:1042C000871A9108A108B108811488E09806A10412
:1042D000B104F8F0A4E09A9EC0011124895C944FC7
:1042E000FC01329625913491B82D6627B39FA00129
:1042F000B29F410D561F0694461F561F1124FC0104
:1043000045905490612C712C441A550A610871082B
:1043100022C0D501C401B695A79597958795FC0154
:10432000EC7FCF01895C984FFC0145905490FC01D3
:10433000329625913491482D4770429FC001439F8A
:10434000900D112463E0969587956A95E1F7481AD8
:10435000590A612C712C8091C1059091C205A091E0
:10436000C305B091C405840D951DA61DB71D80938E
:10437000C1059093C205A093C305B093C40520CD99
:1043800060E2862E912CA12CB12C99CFD501C401CD
:10439000B695A79597958795FC01EC7FCF01895C31
:1043A000984FFC0125913491FC013296459154912E
:1043B000682D6770649FC001659F900D112443E0D4
:1043C000969587954A95E1F7281B390BC901A0E01E
:1043D000B0E0E6CC40E2842E912CA12CB12CB3CCE1
:1043E000D501C401B695A79597958795FC01EC7FFB
:1043F000CF01895C984FFC0145905490FC013296A6
:1044000025913491482D4770429FC001439F900DE4
:104410001124A3E096958795AA95E1F7481A590AC1
:10442000612C712C78CE90E2892E912CA12CB12C8C
:1044300048CE80ED482E87E0582E612C712CC7CCD9
:10444000CF92DF92EF92FF92CF93DF93EC01C09077
:10445000EA02D090EB02E090EC02F090ED02A701AE
:104460009601688179818A819B810E945F7887FFAC
:1044700004C0C882D982EA82FB82C090EE02D0904A
:10448000EF02E090F002F090F102A70196016C813A
:104490007D818E819F810E945F7887FF04C0CC82DE
:1044A000DD82EE82FF82C0900502D0900602E0908D
:1044B0000702F0900802A7019601688179818A813C
:1044C0009B810E94997E181624F4C882D982EA82C0
:1044D000FB82C0900902D0900A02E0900B02F0909B
:1044E0000C02A70196016C817D818E819F810E94C3
:1044F000997E181624F4CC82DD82EE82FF82C09071
:10450000F202D090F302E090F402F090F502A701DD
:104510009601688579858A859B850E945F7887FFEB
:1045200004C0C886D986EA86FB86C0900D02D0906A
:104530000E02E0900F02F0901002A701960168852C
:1045400079858A859B850E94997E181624F4C886F1
:10455000D986EA86FB86DF91CF91FF90EF90DF90BE
:10456000CF900895CF93DF93E4E5F5E08491EF01D8
:104570002196882321F00E94D011FE01F7CF8AE016
:10458000DF91CF910C94D0114F925F926F927F92F6
:104590008F929F92AF92BF92DF92EF92FF920F9312
:1045A0001F93CF93DF93D82EC82FD0E0FE01E65A99
:1045B000FB4F64917E01EE0CFF1CEE0CFF1CF7011B
:1045C000EA5AFE4E4590559065907490062E000C68
:1045D000770B880B990B0E9465784B015C0120E0FA
:1045E00030E040EC5FE3C301B2010E94C478A50152
:1045F00094010E94C478AB01BC0100E010E0980176
:104600008D2D0E94ED0FF701E65BFE4E2591359151
:1046100045915491C501B4010E94C4784B015C01DD
:1046200020E030E0A9010E945F78882309F447C0A8
:1046300000E010E09801B501A40170588D2D0E9492
:10464000ED0FFE01E95BFE4E6491611117C0E3E6D8
:10465000F8E18491EF012196882321F00E94D01186
:10466000FE01F7CFE5E2F1E18491EF012196882385
:1046700021F00E94D011FE01F7CF6AE0F701E75E5A
:10468000F74E459055906590749070E080E090E012
:104690000E9465789B01AC01C301B2010E944F7D6D
:1046A0002B013C01A5019401C501B4010E94737C5A
:1046B000AB01BC01930182018D2D0E94ED0F81E0C1
:1046C00090E00D2C01C0880F0A94EAF79091A8029F
:1046D000982B9093A80290910E06892B80930E063A
:1046E000F701E857FD4F10821182128213828D2D3F
:1046F0000E94700FF701E05DFB4F85919591A591A8
:10470000B491E701C15ED94F88839983AA83BB83A3
:104710000E94B00FF701E15FF94F88819981AA816A
:10472000BB8180839183A283B383DF91CF911F915B
:104730000F91FF90EF90DF90BF90AF909F908F9080
:104740007F906F905F904F900895CF93DF938A583A
:104750009F4FFC01C081D181862F90D7BE0183E19C
:1047600091E10E94824F8AE0DF91CF910C94D011A9
:104770000C942C47EF92FF920F931F93CF93DF93EC
:104780001F921F92CDB7DEB782E08093C0001092D7
:10479000C50087E08093C4008091C1008061809350
:1047A000C1008091C10088608093C1008091C100E8
:1047B00080688093C100ECE0F1E184918F010F5F8C
:1047C0001F4F882321F00E94D011F801F6CFE3E6B5
:1047D000F8E184918F010F5F1F4F882321F00E9421
:1047E000D011F801F6CF989AA09A9A9AA29A80913D
:1047F0000701806280930701809108018095807293
:104800008093060180910701806180930701809168
:104810000801809580718093060114B710FF0DC0C8
:10482000E3E0F1E184917F019FEFE91AF90A88231F
:1048300021F00E94D011F701F5CF11FF0DC0E2EF7A
:10484000F0E184917F019FEFE91AF90A882321F0B2
:104850000E94D011F701F5CF12FF0DC0E0EEF0E19C
:1048600084917F019FEFE91AF90A882321F00E94C1
:10487000D011F701F5CF13FF0DC0EFECF0E18491FB
:104880007F019FEFE91AF90A882321F00E94D011D5
:10489000F701F5CF15FF0CC0EEEBF0E184918F012D
:1048A0000F5F1F4F882321F00E94D011F801F6CF2F
:1048B00014BEE7EBF0E184918F010F5F1F4F882357
:1048C00021F00E94D011F801F6CF80E20E94D011B1
:1048D000E9EAF0E184918F010F5F1F4F882321F0F7
:1048E0000E94D011F801F6CF8AE00E94D011E3E6D1
:1048F000F8E184918F010F5F1F4F882321F00E9400
:10490000D011F801F6CFE9E9F0E184918F010F5F52
:104910001F4F882321F00E94D011F801F6CFEEE856
:10492000F0E184918F010F5F1F4F882321F00E94D7
:10493000D011F801F6CFE8E3F0E184918F010F5F29
:104940001F4F882321F00E94D011F801F6CFE3E633
:10495000F8E184918F010F5F1F4F882321F00E949F
:10496000D011F801F6CFE1E2F0E184918F010F5F01
:104970001F4F882321F00E94D011F801F6CFE3E603
:10498000F8E184918F010F5F1F4F882321F00E946F
:10499000D011F801F6CF2091270F3091280FCE01CA
:1049A00001962115310519F48D529F4002C0821BDA
:1049B000930B9A83898369817A8182E190E10E94D5
:1049C000824F60E176E08BEF9FE00E94824F8AE0A9
:1049D0000E94D01181E080930703809308038093A5
:1049E000090380930A030E94823680E00E94A43269
:1049F0008CE0E2EDF2E0AFE1B6E001900D928A9535
:104A0000E1F70E94B00F6D9A9D9A8091010180623A
:104A1000809301018091010188608093010187EDFD
:104A200080937A0010927E0010927D0080917E002B
:104A3000816080937E0080917E00846080937E0000
:104A400080E888BD80916E00846080936E006AEF7C
:104A500070E080E090E00E94AD5D85E090E0909392
:104A6000E30C8093E20C60E080912002909121029F
:104A700072D620E030E040EA50E40E945F7887FF81
:104A80000AC08091200290912102409790932102C8
:104A900080932002E8CF83E191E0909326028093F7
:104AA000250260E08091F1059091F20554D620E056
:104AB00030E849E853E40E94997E181654F4809136
:104AC000F1059091F20540969093F2058093F105DF
:104AD000E8CF80911E0290911F020E94835320E034
:104AE00030E040EA50E40E945F7887FF0AC080917E
:104AF0001E0290911F02409790931F0280931E0206
:104B0000E8CF8091EF059091F0050E94835320E05B
:104B100030E046E153E40E94997E181654F48091E7
:104B2000EF059091F00540969093F0058093EF0586
:104B3000E8CF0E94A25B809107018B7F80930701E1
:104B4000809108018095847080930601809107010F
:104B50008F778093070180910801809580788093FA
:104B6000060124982C9A80916D00846080936D00DA
:104B7000DA9A8091680084608093680080916D006B
:104B8000806880936D00DA9A8091680084608093D9
:104B9000680080916B00806180936B00D89A80914F
:104BA00068008160809368001092BA021092B90286
:104BB0000E94A23180910A01816080930A01809154
:104BC0000A01826080930A0180910A0184608093C7
:104BD0000A0180910A01806480930A010F9A179A52
:104BE0000E9A169A0D9A159A0C9A149A389A409819
:104BF000179A8091A8028E7F8093A802399A4198D3
:104C0000169A8091A8028D7F8093A8023A9A4298C2
:104C1000159A8091A8028B7F8093A8023B9A4398B3
:104C2000149A809180008C7F809380008091810015
:104C3000877E886080938100809180008F7380934D
:104C4000800080918100887F82608093810080E075
:104C500090E49093890080938800109285001092D0
:104C6000840080916F00826080936F0081E0809368
:104C7000BA020E94A23178940E94C24E98E288E162
:104C80000FB6F894A895809360000FBE90936000D3
:104C90000F900F90DF91CF911F910F91FF90EF90A8
:104CA0000895EBE0FDE18491EF012196882321F046
:104CB0000E94D011FE01F7CFEBEDFFE08491EF01F0
:104CC0002196882321F00E94D011FE01F7CF0E9487
:104CD000862E0E94140F2FEF8BE49DE1215080401F
:104CE0009040E1F700C00000F8942FEF84E39CE0CF
:104CF000215080409040E1F700C000000E94862EC5
:104D0000A895FECF2F923F924F925F926F927F9223
:104D10008F929F92AF92BF92CF92DF92EF92FF92CB
:104D20000F931F93CF93DF9300D01F92CDB7DEB7C1
:104D30000E94E55D6B017C0180910002882309F4EB
:104D40007BC080911003882309F476C04091E00570
:104D50005091E1056091E2057091E30597018601AC
:104D6000041B150B260B370B37FD79C0833051F12F
:104D700034F481300CF460C0E3E6F8E106C084301E
:104D800009F05AC0E3E6F8E13BC084918F010F5F60
:104D90001F4F1B830A83882329F00E94D011EA81C8
:104DA000FB81F3CFE6E8FFE084918F010F5F1F4F97
:104DB0001B830A83882309F43FC00E94D011EA8133
:104DC000FB81F2CFE3E6F8E184918F010F5F1F4F83
:104DD0001B830A83882329F00E94D011EA81FB817A
:104DE000F3CFEFE6FFE084918F010F5F1F4F1B832E
:104DF0000A83882309F10E94D011EA81FB81F3CF55
:104E000084918F010F5F1F4F1B830A83882329F032
:104E10000E94D011EA81FB81F3CFE7E5FFE08491A6
:104E20008F010F5F1F4F1B830A83882329F00E9485
:104E3000D011EA81FB81F3CF2091000230E0A8EE8F
:104E4000B3E00E94637CC60ED71EE81EF91EC09216
:104E5000E005D092E105E092E205F092E305809151
:104E60009304843030F40E943214811102C00E94F5
:104E700001130E94E55DC090A902D090AA02E090C3
:104E8000AB02F090AC02C114D104E104F10489F149
:104E900000919E0210919F022091A0023091A102E8
:104EA0000C0D1D1D2E1D3F1D6B017C01C01AD10A6A
:104EB000E20AF30AF7FC1DC0EBE0FDE184918F01EB
:104EC0000F5F1F4F1B830A83882329F00E94D01194
:104ED000EA81FB81F3CF6091BD0C7091BE0C81EA39
:104EE0009FE00E949B4F8AE00E94D01188E99FE0DA
:104EF000D8DEC0900102D0900202E0900302F09050
:104F00000402C114D104E104F104B1F13091010FA4
:104F10002091020F321749F060939E0270939F0216
:104F20008093A0029093A10227C000919E0210914D
:104F30009F022091A0023091A1020C0D1D1D2E1D7B
:104F40003F1DDC01CB01801B910BA20BB30BB7FD06
:104F500013C0179A8091A8028E7F8093A802169A98
:104F60008091A8028D7F8093A802159A8091A80253
:104F70008B7F8093A802149A9091010F8091020F69
:104F8000981306C060918B0610918D0619831DC081
:104F9000E091020F81E68E9FF0011124E551F94F57
:104FA0006081E091020F8E9FF0011124E351F94FCF
:104FB000C080C9828091020F8091020F9091010FF1
:104FC000981719F08F5F8F70F9CF70E088E00E941A
:104FD000E55CD9806D2D70E086E00E94E55C8091F3
:104FE000EE05882309F4F6C00091380210913902C9
:104FF000E0903A02EC82F0903B02FA826091F60572
:105000007091F7056E5F7F4F072E000C880B990B90
:105010000E9465789801A7010E945F7887FDDAC039
:10502000F090020F212C312CE12C19828091010F7C
:105030008F1509F460C08F2D90E021E6289FF001C4
:10504000299FF00D1124EC56F94F4589568967893F
:10505000708D452B462B472B81F4418D528D638DEE
:10506000748D452B462B472B41F4458D568D678D0E
:1050700070A1452B462B472BC9F141E6489F900173
:10508000499F300D1124C9018C56994F6C01FC01C8
:1050900061817281838194810E94DE7E4B015C017B
:1050A000F60161A172A183A194A10E9463782B01F2
:1050B0003C01F60165A176A187A190A50E946378C5
:1050C0009B01AC01C301B2010E944F7DA501940177
:1050D0000E94C4785B016C0191014E2D59810E94A0
:1050E000997E18161CF41501EC2CD98281E08F0DE5
:1050F0008F70F82E9BCF20913C0230913D02409161
:105100003E0250913F02B1018E2D99810E94C478D8
:1051100098014C815A810E94737C6B017C019B0138
:10512000AC01B8018C819A810E94997E1816B4F066
:105130000091340210913502F0913602FC832091E7
:1051400037022A8398014F2F5A81B601C7010E9466
:10515000997E18161CF08601EC82FA82C090E40554
:10516000D090E505E090E605F090E70598014C81C8
:105170005A81C701B6010E94997E1816D4F420E026
:1051800037ED43EA5CE3B8018C819A810E94C478D0
:105190004B015C0128E431EE4AE75FE3C701B60149
:1051A0000E94C478A50194010E94737C8B018C83BA
:1051B0009A83C801AC81BA818093E4059093E50598
:1051C000A093E605B093E705B801CD010E94B77D35
:1051D000CB018CD50E94755480919D02882309F4DF
:1051E00043C00E94E55D0091990210919A022091BE
:1051F0009B0230919C02DC01CB01801B910BA20B26
:10520000B30BB7FD31C00E94E55D6B017C012091BD
:105210009D0230E0A8EEB3E00E94637CC60ED71E6C
:10522000E81EF91EC0929902D0929A02E0929B0267
:10523000F0929C0224D38AE00F900F900F900F9071
:10524000DF91CF911F910F91FF90EF90DF90CF9062
:10525000BF90AF909F908F907F906F905F904F9096
:105260003F902F900C94D0110F900F900F900F90B3
:10527000DF91CF911F910F91FF90EF90DF90CF9032
:10528000BF90AF909F908F907F906F905F904F9066
:105290003F902F9008958EBD00000DB407FEFDCF06
:1052A0008EB50895FF920F931F93CF93DF938C01D8
:1052B000EB01F42E80E20E94D0118FEFF81611F06E
:1052C00084E501C082E40E94D0118AE30E94D011DB
:1052D000F801608171818281938142E00E942518EA
:1052E000488159816A817B8186EE92E10E94654FF7
:1052F00062E070E080E090E0DF91CF911F910F912C
:10530000FF900C94AD5D8A5A9F4FFC018081918182
:10531000A281B38188279927AF77BB27CD01AA2720
:10532000BB2780340CF080580895CF92DF92EF9223
:10533000FF920F931F93CF93DF938C01D62EEA0138
:10534000FC01E858FF4F8081E62EF12C882309F4F8
:1053500060C060E0F80182850E94F94B8D2D0E94AB
:10536000D846F8018483EE0CEF2CEE1CFF08EF28E2
:1053700069F08B810E94D8468A810E94D846898133
:105380000E94D84688810E94D846D8C00E941D47F6
:105390000E941D4761E0F80182850E94F94B60E0A0
:1053A000F80182850E94F94B8D2D0E94D84680E03D
:1053B0000E94D84690E0A0E0B0E0BA2FA92F982F25
:1053C000882788839983AA83BB8380E00E94D8467C
:1053D000488159816A817B81482B762F652F542F14
:1053E0004427488359836A837B8380E00E94D846A0
:1053F000488159816A817B81482B762F652F542FF4
:105400004427488359836A837B8380E00E94D8467F
:105410008CC0CFB6F89480910C06811127C0EBE3C5
:10542000F9E18491E1E9F9E19491E82FF0E0EE0FE0
:10543000FF1FEF50F34EA591B491EC91E92321F4B5
:1054400061E085E30E94F94B61E085E30E94A95C7D
:105450008CB580618CBD8CB580648CBD61E084E3CB
:105460000E94A95C61E083E30E94A95C80910C0624
:105470008F5F80930C06CFBE8DE58CBD81E08DBD26
:1054800060E0F80182850E94F94B8D2D04DFF80160
:105490008483EE0CEF2CEE1CFF08EF2849F08B8183
:1054A000FADE8A81F8DE8981F6DE8881F4DE46C084
:1054B0000E94BB460E94BB4661E0F80182850E94C3
:1054C000F94B60E0F80182850E94F94B8D2DE3DEF7
:1054D00080E0E1DE90E0A0E0B0E0BA2FA92F982FA5
:1054E000882788839983AA83BB8380E0D4DE4881A0
:1054F00059816A817B81482B762F652F542F442751
:10550000488359836A837B8380E0C5DE4881598163
:105510006A817B81482B762F652F542F442748833F
:1055200059836A837B8380E0B6DE488159816A8132
:105530007B81482B488359836A837B8361E0F80130
:105540008285DF91CF911F910F91FF90EF90DF90B7
:10555000CF900C94F94BCF92DF92EF92FF920F9382
:105560001F93AC014A5A5F4FFA01C080D180E2809C
:10557000F380F0E8EF22062F660F110B220B330B9E
:10558000980111270027002711272F7733270C298F
:105590001D292E293F29FA01008311832283338399
:1055A0006DEE1F910F91FF90EF90DF90CF90BDCEE9
:1055B000FF920F931F93CF93DF93EC01F62E6111AF
:1055C00004C080E090E0DC0104C08FEF9FEFAFE00B
:1055D000B0E08E8F9F8FA8A3B9A3AE01425E5F4F4C
:1055E00064E9CE01A2DE8E859F85A889B989AC01C8
:1055F000BD014B7F91E09F25892F90E0A0E0B0E0B6
:1056000022E0880F991FAA1FBB1F2A95D1F784702B
:105610009927AA27BB27842B952BA62BB72B8E87E0
:105620009F87A88BB98B8E01025F1F4FA80160E88E
:10563000CE017BDE8E859F85A889B989AC01BD012D
:105640005E7F8F2D90E0A0E0B0E0BA2FA92F982FB9
:10565000882788279170AA27BB27842B952BA62BF8
:10566000B72B8E879F87A88BB98BA80160E8CE01E6
:10567000DF91CF911F910F91FF9057CECF93DF9382
:10568000880F990BFC01EE50FD4E25913491F901E4
:105690008491EF012196882321F00E94D011FE0110
:1056A000F7CFDF91CF9108951F93CF93DF93162FFC
:1056B000E5DFEBE4F3E18491EF012196882321F00B
:1056C0000E94D011FE01F7CF612F110F770B880BCD
:1056D000990B0E944C158DE00E94D0118AE0DF9159
:1056E000CF911F910C94D011CF93DF93C7DFE4E3E8
:1056F000F3E18491EF012196882321F00E94D011DB
:10570000FE01F7CFDF91CF9108951F93CF93DF93E1
:10571000162FB4DFE3E1F3E18491EF0121968823B2
:1057200021F00E94D011FE01F7CF111103C0EDE06E
:10573000F3E102C0E8E0F3E18491EF0121968823D0
:1057400021F00E94D011FE01F7CF8AE0DF91CF91C6
:105750001F910C94D0118F929F92AF92BF92CF92D3
:10576000DF92EF92FF920F931F93CF93DF93F0E4BA
:10577000FF2EE12CAE2DB0E0BD016F0D711D7595B2
:1057800067956E1511F0F6120BC0E0E6F2E1659137
:105790007491072E000C880B990B0E94657862C0EB
:1057A0009B0121503109220F331F220F331FF901B2
:1057B000EE59FE4E05911491AB01440F551F440F55
:1057C000551FFA01EE59FE4EC591D49180179107ED
:1057D00014F4F62ED1CFC817D90714F4E62ECACF89
:1057E000F901EC59FE4EE590F490FA01EC59FE4EA9
:1057F000C590D490BC01601B710B072E000C880B68
:10580000990B0E9465784B015C01B6016E197F0906
:10581000072E000C880B990B0E9465789B01AC0148
:10582000C501B4010E94C4784B015C01C01BD10BBF
:10583000BE01DD0F880B990B0E9465789B01AC01BE
:10584000C501B4010E944F7D4B015C01B701FF0C03
:10585000880B990B0E9465789B01AC01C501B401CE
:105860000E94737CDF91CF911F910F91FF90EF9079
:10587000DF90CF90BF90AF909F908F9008950F933F
:105880001F93CF93DF93CDB7DEB728970FB6F89469
:10589000DEBF0FBECDBF6091F6057091F705072EF4
:1058A000000C880B990B0E9465786D837E838F8333
:1058B00098878091900690919106A0919206B09160
:1058C000930689839A83AB83BC834DEFBE016B5FE4
:1058D0007F4FCE010196E6DC6091A6027091A7028F
:1058E000072E000C880B990B0E9465786D837E83D0
:1058F0008F8398878091A2029091A302A091A40225
:10590000B091A50289839A83AB83BC834FEFBE011C
:105910006B5F7F4FCE010196C5DCEEEEF2E1849124
:105920008F010F5F1F4F882321F00E94D011F801D3
:10593000F6CFE0910603F0E0EC50FA4F608170E0A2
:1059400080E090E00E944C15E9EEF2E184918F0135
:105950000F5F1F4F882321F00E94D011F801F6CF6E
:105960006091F50570E080E090E00E944C1528966B
:105970000FB6F894DEBF0FBECDBFDF91CF911F9160
:105980000F910895EF92FF920F931F93CF93DF93A0
:10599000809124028F3790F08F579091F405909367
:1059A0000B06992311F0759A01C075989091F50531
:1059B00090930A06992359F0A59A0AC090910B0674
:1059C000891708F0759890910A06891708F0A5982C
:1059D0008F5F809324029091090681E0892780934C
:1059E00009068091230285301CF4C1E0C80F01C074
:1059F000C0E0823009F4AFC04CF48823F9F0813064
:105A000009F0DDC010927B0080E4BBC0843009F453
:105A1000C0C00CF4B3C0853009F0D1C09091080625
:105A2000911102C0809308068091080681508093EE
:105A30000806882309F4C3C0C5E0C1C080912202D2
:105A40008F5F80311CF480932202B9C01092220231
:105A50008091F305811113C08091FE059091FF059F
:105A60009093FB058093FA058091FC059091FD05CC
:105A70009093F9058093F80581E08093F3058AE01F
:105A8000EEEFF5E0DF011D928A95E9F71092FD0532
:105A90001092FC050091FA051091FB0511950195F6
:105AA00011098091F6059091F705D1E018161906B5
:105AB0002CF08091F405811101C0D0E08091F105B6
:105AC0009091F205919581959109801791073CF489
:105AD00040E852E161EA72E180E00E94175480914F
