:100000000C94750E0C94A60E0C94A60E0C94A60ED1
:100010000C94A60E0C94A60E0C94A60E0C94A60E90
:100020000C94A60E0C9463250C94B1250C948A258F
:100030000C94A60E0C94A60E0C94A60E0C94A60E70
:100040000C94A60E0C94194C0C94A60E0C94A60EAF
:100050000C94A60E0C94A60E0C94BA4A0C94945CC4
:100060000C94A60E0C9470180C94A60E0C94A60E6C
:100070000C94A60E0C94A60E0C94A60E0C94A60E30
:100080000C94A60E0C94A60E0C94A60E0C94A60E20
:100090000C94A60E0C94A60E0C94A60E0C94A60E10
:1000A0000C94A60E0C94A60E0C94A60E0C94A60E00
:1000B0000C94A60E0C94A60E0C94A60E0C94A60EF0
:1000C0000C94A60E0C94A60E0C94A60E0C94A60EE0
:1000D0000C94A60E0C94A60E0C94A60E0C94A60ED0
:1000E0000C94A60E115B145B035B075B0D5B4B5B13
:1000F000185B1C5B225B265B2A5B305B345B385BE6
:100100004B5B3E5B425B465BB05BB55BBA5BC45B23
:10011000CE5B475CD85BE05BE85BF25BFC5B065C5C
:10012000155C1F5C475C295C335C3D5C084AD73B2F
:100130003BCE016E84BCBFFDC12F3D6C74319ABDB6
:1001400056833DDA3D00C77F11BED9E4BB4C3E91DA
:100150006BAAAABE000000803F05A84CCDB2D44EC9
:10016000B93836A9020C50B9918688083CA6AAAACB
:100170002ABE000000803F004E414E494E4954596E
:10018000494E46CDCCCC3D0AD7233C17B7D1387762
:10019000CC2B329595E6241FB14F0A000020410078
:1001A00000C84200401C4620BCBE4CCA1B0E5AAEC2
:1001B000C59D74434F4D4D554E49434154494F4E93
:1001C0000044525952554E004552524F5253004925
:1001D0004E464F004543484F0047322F4733206279
:1001E000616420706172616D65746572730A0000EC
:1001F00000A0400000A0400000A04000000000253A
:1002000069730025696D20256973002569682025BB
:10021000696D20256973002569642025696820259A
:10022000696D202569730025697920256964202579
:1002300069682025696D20256973005072696E74A4
:100240002074696D653A2000D401CF01C801C10155
:10025000B3016F66660044454255473A004B494C2E
:100260004C45442E20004D3131332053006F6B003C
:1002700020573A00544845524D414C5F50524F541C
:10028000454354494F4E004155544F5245504F52EB
:10029000545F53445F53544154555300454D4552A8
:1002A00047454E43595F50415253455200434153D5
:1002B000455F4C494748545F4252494748544E4570
:1002C000535300544F47474C455F4C49474854539C
:1002D00000534F4654574152455F504F57455200C7
:1002E0004255494C445F50455243454E54004C459D
:1002F00056454C494E475F44415441005A5F505265
:100300004F4245004155544F4C4556454C005052C4
:10031000494E545F4A4F420050524F475245535343
:10032000004155544F5245504F52545F54454D5023
:1003300000564F4C554D4554524943004545505287
:100340004F4D0053455249414C5F584F4E5F584FF7
:100350004646004649524D574152455F4E414D4534
:100360003A4D61726C696E206275676669782D31ED
:100370002E312E7820284769746875622920534FE2
:10038000555243455F434F44455F55524C3A68745C
:100390007470733A2F2F6769746875622E636F6D7E
:1003A0002F4D61726C696E4669726D776172652F4F
:1003B0004D61726C696E2050524F544F434F4C5FE9
:1003C00056455253494F4E3A312E30204D41434805
:1003D000494E455F545950453A3344205072696E36
:1003E0007465722045585452554445525F434F55E9
:1003F0004E543A3120555549443A6365646532613B
:1004000032662D343161322D343734382D39623132
:10041000322D6335356336326633363766660A0009
:100420002F2F2000205400205200416363656C652B
:10043000726174696F6E3A20500000000000000085
:10044000000000000000546F6F2066617220667229
:100450006F6D207265666572656E636520706F6989
:100460006E740A00FFFFFF205A0020590058002038
:10047000204D61783A2000205A0020590058002071
:10048000204D696E3A20004F666600536F667420F7
:10049000656E6473746F70733A200020466C6F77DA
:1004A0003A2000000125311D0CFFFFFF2924301CDC
:1004B0000BFFFFFF27232F1B0AFFFFFFFF43FFFF59
:1004C000040806FFFF222B1AFFFF42043803FF3601
:1004D00020643A0020693A0020703A00496E766143
:1004E0006C69642065787472756465720A004329CA
:1004F0000A0061626C656420286D696E2074656D08
:10050000702000436F6C6420657874727564657345
:1005100020617265200020643A0020693A00207052
:100520003A004E6F2063617365206C696768740AD6
:1005300000454550524F4D2064697361626C65649B
:100540000A00416374697665204578747275646544
:10055000723A2000496E76616C6964206578747225
:10056000756465720A006F6B00205A3A0020593A90
:100570000020583A00656E6473746F707320686968
:10058000743A2000656E7175657565696E67202225
:10059000004B494C4C45442E20005072696E7465E6
:1005A000722073746F707065642064756520746F59
:1005B000206572726F72732E2046697820746865A8
:1005C000206572726F7220616E6420757365204DB4
:1005D00039393920746F20726573746172742E20FA
:1005E0002854656D70657261747572652069732039
:1005F00072657365742E205365742069742061667A
:100600007465722072657374617274696E67290A09
:10061000004E6F20436865636B73756D2077697456
:1006200068206C696E65206E756D6265722C204C59
:10063000617374204C696E653A2000636865636B72
:1006400073756D206D69736D617463682C204C61E6
:100650007374204C696E653A20004C696E65204EBB
:10066000756D626572206973206E6F74204C6173C2
:1006700074204C696E65204E756D6265722B312C4D
:10068000204C617374204C696E653A20004D313105
:10069000300020496E76616C6964206578747275EB
:1006A00064657220000000000000000000000000EF
:1006B000000000A0420000484300004843486F6D1E
:1006C000696E67206661696C6564002C20002C20CF
:1006D0000050726F7465637465642050696E0A001F
:1006E00020573A00205A3A0020593A0020436F75AB
:1006F0006E7420583A0020453A00205A3A0020599A
:100700003A00583A003A004361703A005265736506
:100710006E643A200020746F6F206C6F6E672065E6
:100720007874727573696F6E2070726576656E7419
:1007300065640A0020636F6C642065787472757359
:10074000696F6E2070726576656E7465640A002448
:10075000F4D43050C38E20C2A24017828B70111285
:100760007A910D816CD90AA861E108C758660761C2
:100770005143061E4B5D05C145A7041A41110409EA
:100780003D9803713931034036DB0265339102D461
:10079000305402802E1D02632CEE01752AC501B073
:1007A00028A001102781018F2564012B244B01E033
:1007B000223401AC211F018D200D01801FFC00841B
:1007C0001EED00971DDF00B81CD200E61BC60020FE
:1007D0001BBC00641AB200B219A8000A19A0006A72
:1007E000189900D117910040178B00B5168400317D
:1007F000167E00B31579003A157300C7146F0058C0
:10080000146A00EE1366008813630025135E00C7A8
:10081000125B006C12570015125400C11151007088
:10082000114F0021114B00D61049008D1047004692
:1008300010440002104200C00F4000800F3E0042F2
:100840000F3C00060F3B00CB0E3800930E37005CC8
:100850000E3500270E3400F30D3200C10D3100902B
:100860000D3000600D2E00320D2D00050D2C00D92D
:100870000C2B00AE0C2900850C29005C0C270035E0
:100880000C27000E0C2600E80B2400C40B2400A04B
:100890000B23007D0B23005A0B2100390B2100187C
:1008A0000B2000F80A1F00D90A1E00BB0A1E009D7B
:1008B0000A1D00800A1D00630A1C00470A1B002C49
:1008C0000A1B00110A1A00F7091A00DD091900C4F1
:1008D000091900AB091900920917007B0918006378
:1008E0000917004C09160036091600200916000ADF
:1008F000091500F5081500E0081400CC081400B82C
:10090000081400A4081400900813007D0812006B5E
:10091000081300580812004608120034081100237A
:100920000811001208110001081100F0071000E082
:10093000071000D0071000C0071000B0070F00A17B
:1009400007100091070E0083070F0074070F006562
:10095000070E0057070E0049070E003B070D002E3B
:10096000070E0020070D0013070D0006070D00F904
:10097000060C00ED060D00E0060C00D4060C00C8C5
:10098000060C00BC060C00B0060C00A4060B009977
:10099000060C008D060B0082060B0077060B006C20
:1009A000060B0061060A0057060B004C060A0042BF
:1009B000060A0038060A002E060A0024060A001A53
:1009C000060A001006090007060A00FD050900F4E2
:1009D000050900EB050900E2050900D9050900D069
:1009E000050900C7050900BE050900B5050800ADE9
:1009F000050800A50509009C050800940508008C61
:100A0000050800840508007C050800740508006CD2
:100A1000050700650508005D050700560508004E3E
:100A200005070047050700400508003805070031A5
:100A30000507002A050700230507001C0506001608
:100A40000507000F0507000805060002050700FB63
:100A5000040600F5040700EE040600E8040600E2C0
:100A6000040700DB040600D5040600CF040600C915
:100A7000040600C3040600BD040600B7040600B166
:100A8000040500AC040600A6040600A00405009BB3
:100A900004060095040500900406008A04050085FC
:100AA000040500800406007A040500750405007042
:100AB0000405006B04050066040500610405005C84
:100AC00004050057040500520405004D04050048C4
:100AD000040500430405003E0404003A0405003503
:100AE000040500300404002C04050027040400233E
:100AF0000405001E0404001A040400160405001175
:100B00000404000D040400090405000404040000AA
:100B1000040400FC030400F8030400F4030400F0E0
:100B2000030400EC030400E8030400E4030400E011
:100B3000030400DC030400D8030400D4030400D041
:100B4000030400CC030400C8030300C5030300240E
:100B5000F404D9201BC40C5C0E9804C4095F026520
:100B6000077101F405F900FB04B30048048700C1D4
:100B70000369005803550003034500BE023A008490
:100B800002310053022A002902250004022000E459
:100B9000011C00C8011900AF01170098011400845E
:100BA000011300710110006101100051010E00439A
:100BB000010D0036010B002B010B0020010B00156D
:100BC0000109000C01090003010800FB000800F303
:100BD000000800EB000700E4000600DE000600D875
:100BE000000600D2000600CC000500C7000500C2C8
:100BF000000500BD000400B9000400B5000400B108
:100C0000000400AD000400A9000400A5000300A238
:100C10000003009F0004009B000300980003009560
:100C200000020093000300900003008D0002008B7F
:100C30000003008800020086000200840003008197
:100C40000002007F0002007D0002007B00020079AC
:100C500000020077000100760002007400020072BA
:100C6000000100710002006F0002006D0001006CC5
:100C70000002006A000100690002006700010066CE
:100C800000010065000100640002006200010061D3
:100C9000000100600001005F0002005D0001005CD7
:100CA0000001005B0001005A0001005900010058DA
:100CB00000010057000100560001005500010054DA
:100CC00000010053000000530001005200010051D8
:100CD000000100500001004F0001004E0000004ED6
:100CE0000001004D0001004C0001004B0000004BD2
:100CF0000001004A000100490001004800000048CE
:100D000000010047000100460000004600010045C8
:100D100000000045000100440001004300000043C2
:100D200000010042000000420001004100000041BB
:100D3000000100400001003F0000003F0001003EB4
:100D40000000003E0001003D0000003D0001003CAD
:100D50000000003C0000003C0001003B0000003BA4
:100D60000001003A0000003A00010039000000399B
:100D70000001003800000038000000380001003792
:100D80000000003700010036000000360000003689
:100D9000000100350000003500000035000100347E
:100DA0000000003400000034000100330000003374
:100DB0000000003300010032000000320000003269
:100DC000000100310000003100000031000100305E
:100DD00000000030000000300001002F0000002F54
:100DE0000000002F0000002F0001002E0000002E48
:100DF0000000002E0001002D0000002D0000002D3D
:100E00000000002D0001002C0000002C0000002C30
:100E10000000002C0001002B0000002B0000002B24
:100E20000000002B0001002A0000002A0000002A18
:100E30000000002A0001002900000029000000290C
:100E400000000029000000290001002800000028FF
:100E500000000028000000280000002800010027F2
:100E600000000027000000270000002700000027E6
:100E700000010026000000260000002600000026D9
:100E800000000026000100250000002500000025CC
:100E900000000025000000250000002500010024BE
:100EA00000000024000000240000002400000024B2
:100EB00000010023000000230000002300000023A5
:100EC0000000002300000023000000230001002296
:100ED000000000220000002200000022000000228A
:100EE000000000220001002100000021000000217C
:100EF000000000210000002100000021000000216E
:100F00000001002000000020000000200000002060
:100F10000000002000000020000000200000002051
:100F20000001001F0000001F0000001F0000001F44
:100F30000000001F0000001F0000001F0001001E35
:100F40000000001E0000001E0000001E000000390E
:100F50003000003325000087190000B00F0000DBCF
:100F6000080000BD040000740200003F01000048BA
:100F7000617264636F6465642044656661756C7456
:100F80002053657474696E6773204C6F6164656487
:100F90000A0032000000320000003200000032007F
:100FA000000000002041000020410000204100001E
:100FB000204100004844000048440000484400002C
:100FC000484420204D3930360020286D6D290020FE
:100FD0005430204500205A002059002058005374F6
:100FE00065707065722064726976657220637572CF
:100FF00072656E743A0A0020440020490020204D9A
:1010000033303420500020440020490020204D334C
:1010100030312050005049442073657474696E6704
:10102000733A0A00205A0020590020204D323036F1
:10103000205800486F6D65206F66667365743A0AC4
:1010400000204500205A002059002058002054005C
:1010500020530020204D32303520510020453C6D7A
:1010600061785F655F6A65726B3E0020583C6D6118
:10107000785F785F6A65726B3E20593C6D61785F7E
:10108000795F6A65726B3E205A3C6D61785F7A5F6A
:101090006A65726B3E00416476616E6365643A20F6
:1010A000513C6D696E5F7365676D656E745F7469E1
:1010B0006D655F75733E20533C6D696E5F66656557
:1010C00064726174653E20543C6D696E5F74726138
:1010D00076656C5F66656564726174653E00205478
:1010E0000020520020204D323034205000416363F4
:1010F000656C65726174696F6E2028756E697473B2
:101100002F7332293A20503C7072696E745F6163AC
:1011100063656C3E20523C726574726163745F61FA
:101120006363656C3E20543C74726176656C5F61EC
:101130006363656C3E0A00204500205A0020590078
:1011400020204D3230312058004D6178696D756D29
:1011500020416363656C65726174696F6E202875E8
:101160006E6974732F7332293A0A00204500205AA1
:101170000020590020204D3230332058004D617836
:10118000696D756D2066656564726174657320288C
:10119000756E6974732F73293A0A00204500205A2E
:1011A0000020590020204D393220580053746570BA
:1011B000732070657220756E69743A0A0020204DA4
:1011C0003230302044300A0020204D32303020446C
:1011D000002044697361626C65640A0046696C6151
:1011E0006D656E742073657474696E67733A002060
:1011F00020473231202020203B00545249474745A8
:10120000524544006F70656E003A20007A5F6D6948
:101210006E00795F6D696E00785F6D696E00526572
:10122000706F7274696E6720656E6473746F70207E
:101230007374617475730A000000000100000001FE
:101240000000800055555500000040003333330046
:10125000AAAA2A004992240000002000C7711C009D
:1012600099991900D1451700555515003BB1130048
:101270002449120011111100000010000F0F0F007F
:10128000E3380E0043790D00CCCC0C00C3300C00C9
:10129000E8A20B0064210B00AAAA0A00703D0A0014
:1012A0009DD80900427B090092240900DCD3080084
:1012B000888808001042080000000800F0C10700FC
:1012C0008787070075500700711C07003EEB06007A
:1012D000A1BC06006990060066660600703E060026
:1012E0006118060017F4050074D105005BB0050015
:1012F000B290050062720500555505007839050069
:10130000B81E0500050505004EEC040087D4040056
:10131000A1BD040090A7040049920400C17D04000F
:10132000EE690400C7560400444404005C32040023
:101330000821040041100400000004003FF00300F5
:10134000F8E0030026D20300C3C30300CCB50300BA
:101350003AA803000A9B0300388E0300C0810300F3
:101360009F750300D0690300505E03001D53030006
:1013700034480300913D0300333303001629030072
:10138000381F030097150300300C0300030303000C
:101390000BFA020049F10200BAE802005CE0020028
:1013A0002DD802002DD0020059C80200B0C00200A2
:1013B00031B90200DAB10200AAAA0200A0A3020019
:1013C000BC9C0200FA9502005C8F0200DF880200DC
:1013D00082820200457C020027760200277002000C
:1013E000436A02007C640200D05E02003F590200A2
:1013F000C85302002066697273740A005A005900CB
:101400005800486F6D65200020746F6F206C6F6E00
:101410006720657874727573696F6E207072657677
:10142000656E7465640A0020636F6C64206578746F
:10143000727573696F6E2070726576656E7465641F
:101440000A006563686F3A00627573793A207061CB
:101450007573656420666F7220696E7075740A001A
:10146000627573793A2070617573656420666F7276
:1014700020757365720A00627573793A2070726F15
:1014800063657373696E670A004B494C4C45442E83
:1014900020004B494C4C2063617573656420627970
:1014A00020746F6F206D75636820696E6163746965
:1014B00076652074696D65202D2063757272656E86
:1014C0007420636F6D6D616E643A20005072696EB6
:1014D0007465722068616C7465642E206B696C6C35
:1014E00028292063616C6C6564210A002020506CFF
:1014F000616E6E6572427566666572427974657377
:101500003A20002046726565204D656D6F72793A0C
:101510002000436F6D70696C65643A2041707220E1
:10152000313720323031390A00207C20417574680F
:101530006F723A20323031392D30332D31313B202A
:10154000566F6C756D6574726963204C756D656E50
:1015500020776974682045696E737920616E642014
:101560004947555320616E642042415249435544D6
:1015700041206669726D77617265204F4E0A0032B4
:101580003031382D30372D333100204C61737420C9
:10159000557064617465643A2000627567666978A5
:1015A0002D312E312E780A004D61726C696E00204B
:1015B000536F6674776172652052657365740A00B3
:1015C000205761746368646F672052657365740A9D
:1015D000002042726F776E206F75742052657365BC
:1015E000740A002045787465726E616C20526573D0
:1015F00065740A00506F77657255700A00737461E4
:1016000072740A0020647269766572206375727262
:10161000656E743A20005761726E696E673A2048B1
:101620006F6D696E672042756D70204469766973CD
:101630006F72203C20310A000202040000803F004B
:10164000000000000000400000A0420000484300ED
:1016500000484300000A0B02090C0D0E08070304A2
:101660000100000000000000000000000000000079
:101670000000000000000000000000000000001258
:101680001110000000000000000000000000000039
:10169000000000000000000000000000000000004A
:1016A000000000000000000000556E6B6E6F776E4A
:1016B00020636F6D6D616E643A202200000020008F
:1016C0002300260029002C002F003200000100001A
:1016D00003010601090100002200250028002B005B
:1016E0002E003100340002010000050108010B0149
:1016F00005050505070508080808020202020A0A8E
:1017000008080404040401010101010101010303AB
:10171000030303030303040707070C0C0C0C0C0C56
:101720000C0C0202020206060606060606060B0B53
:101730000B0B0B0B0B0B07070A0A0A0A0A0A050513
:1017400005040404080801021020200808102040A5
:101750001020408002010201080402010102040875
:101760001020408080402010080402018004020103
:10177000804020100804020108040201010204084C
:101780001020408001020408102040801008040846
:1017900080102040044080102040048045340045E3
:1017A00033004532004531004530005A320059328D
:1017B000005832005A005900580070012C01900165
:1017C0002701B0012201C0011D01F0011801100222
:1017D000130130020E016002090190020401C002EF
:1017E000FF000003FA004003F5008003F000D0037F
:1017F000EB002004E6007004E100E004DC0040059A
:10180000D700C005D2004006CD00D006C800800732
:10181000C3003008BE00F008B900C009B400B00A27
:10182000AF00B00BAA00D00CA500000EA000500F16
:101830009B00C01096005012910000148C00C0153F
:101840008700B0178200B0197D00D01B7800001E01
:10185000730040206E0090226900F024640040274D
:101860005F0090295A00E02B5500102E50002030C8
:101870004B0010324600E033410090353C001037F9
:10188000370070383200A0392D00B03A2800A03B54
:101890002300603C1E00103D1900903D1400103ED6
:1018A0000F00703E0A00C03E0500003F0000403FB0
:1018B000FBFF803FF6FFC03FF1FF453120457272CC
:1018C0003A204D415854454D50004572723A204DD2
:1018D000415854454D5020424544004D41585445CF
:1018E0004D502074726967676572656400453120E8
:1018F0004572723A204D494E54454D500045727222
:101900003A204D494E54454D5020424544004D49E2
:101910004E54454D50207472696767657265640066
:10192000202F002042403A0020403A00B817B61756
:10193000B417B117AE17AB17A817A517A2179F17A3
:101940009C17747275650066616C73650020746520
:101950006D70657261747572652070726577617201
:101960006E207472696767657265643A2000207042
:1019700072657761726E20666C616720636C656169
:101980007265640A00FFFDFCFAF8F6F4F2F0EEEC82
:10199000EAE9E7E5E3E1E0DEDCDAD9D7D5D4D2D075
:1019A000CFCDCBCAC8C7C5C3C2C0BFBDBCBAB9B70B
:1019B000B6B4B3B2B0AFADACAAA9A8A6A5A4A2A173
:1019C000A09E9D9C9A99989795949392908F8E8DB6
:1019D0008B8A8988878684838281807F7E7D7B7ADB
:1019E000797877767574737271706F6E6D6C6B6ADF
:1019F000696867666564636261605F5E5D5C5B5ACF
:101A00005958585756555453525150504F4E4D4CAB
:101A10004B4A4A4948474646454443424241403F73
:101A20003E3E3D3C3B3B3A3938383736353534332A
:101A300032323130302F2E2E2D2C2B2B2A292928D3
:101A4000272726252524232322212120201F1E1E6F
:101A50001D1C1C1B1B1A19191818171616151514FE
:101A6000131312121111100F0F0E0E0D0D0C0C0B83
:101A70000A0A0909080807070606050504040303FE
:101A800002020100004B64200023646566696E65F4
:101A90002044454641554C545F004B692000236467
:101AA0006566696E652044454641554C545F004B60
:101AB00070200023646566696E6520444546415583
:101AC0004C545F00504944204175746F74756E65C5
:101AD0002066696E6973686564212050757420748E
:101AE0006865206C617374204B702C204B692061F9
:101AF0006E64204B6420636F6E7374616E74732028
:101B000066726F6D2062656C6F7720696E746F20EE
:101B1000436F6E66696775726174696F6E2E680ACD
:101B200000504944204175746F74756E652066617C
:101B3000696C6564212074696D656F75740A004570
:101B40003120544845524D414C2052554E41574149
:101B50005900546865726D616C2052756E617761D1
:101B6000790045312048656174696E672066616956
:101B70006C65640048656174696E67206661696CB4
:101B8000656400504944204175746F74756E65201A
:101B90006661696C6564212054656D70657261745D
:101BA00075726520746F6F20686967680A00204B42
:101BB000643A2000204B693A2000204B703A200004
:101BC0000A20436C617373696320504944200A0002
:101BD0002054753A2000204B753A2000206D617822
:101BE0003A2000206D696E3A200020643A200020DF
:101BF000626961733A2000504944204175746F74E2
:101C0000756E65206661696C6564212054656D7030
:101C10006572617475726520746F6F20686967689A
:101C20000A00504944204175746F74756E652073C5
:101C3000746172740A00504944204175746F747560
:101C40006E65206661696C6564212042616420656F
:101C500078747275646572206E756D6265720A00C3
:101C60006265640A002C2073797374656D20737447
:101C70006F7070656421204865617465725F4944C6
:101C80003A2000453120544845524D414C20525590
:101C90004E4157415900546865726D616C20527510
:101CA0006E617761790045312048656174696E67BE
:101CB000206661696C65640048656174696E6720BF
:101CC0006661696C65640000002100240027002A19
:101CD000002D003000330001010000040107010A5B
:101CE000014572726F723A00177311241FBECFEF55
:101CF000D1E2DEBFCDBF00E00CBF12E0A0E0B2E059
:101D0000E8E5FDEF00E00BBF02C007900D92AE3595
:101D1000B107D9F72FE0AEE5B2E001C01D92A534BE
:101D2000B207E1F71EE0C5E7DEE000E006C021975C
:101D30000109802FFE010E946F7EC437D10780E029
:101D40000807A9F70E94105D0C94AA7E0C9400006D
:101D50008091990590919A05981759F0E92FF0E034
:101D6000E75EFA4F80819F5F9F7790939A0590E09E
:101D700008958FEF9FEF0895CF93DF9380E00E9447
:101D80009C50CBE9D5E0688379838A839B8381E08B
:101D90000E949C506C837D838E839F8382E00E948F
:101DA0009C50688779878A879B87DF91CF910895B8
:101DB000FF920F931F93CF93DF93FC0120812B336E
:101DC00019F1D0919704D430F8F4F62EBC01C091EB
:101DD000B3040C2F10E0F0E6CF9FC00111248B5EFE
:101DE0009C4F0E94987EF801E55FFC4FF082CF5F28
:101DF000C43018F4C093B30402C01092B304DF5F80
:101E0000D093970481E001C080E0DF91CF911F91D2
:101E10000F91FF900895CF92DF92EF920F931F934F
:101E2000CF93DF9300D01F92CDB7DEB7E090A90C1F
:101E300019821A821B821C82CE0101966C0104E277
:101E400012E026EB3CE042EB5CE06EEA7CE08AEAE2
:101E50009CE00E94402B0F900F900F900F90DF910D
:101E6000CF911F910F91EF90DF90CF9008950F9336
:101E70001F93CF93DF9394E0899FE00111248E019B
:101E80000A521D4FFE01E653FD4FDE01A457BD4F20
:101E90002D913D914D915C91608171818281938101
:101EA0000E947B7BF8016083718382839383FE01B0
:101EB000EB55F94F85919591A591B491FE01EE51A5
:101EC000FD4F80839183A283B383FE01EF54F94FCA
:101ED00085919591A591B491CB5FDD4F88839983CE
:101EE000AA83BB83DF91CF911F910F91089526EBB9
:101EF0003CE042EB5CE06EEA7CE08AEA9CE00C9419
:101F00009A4F80916F00982F927081FF05C0809149
:101F10006F008D7F80936F0080911A0F8093190F4F
:101F20008093180F8093170F84E68093160F28EE86
:101F300033E03093870C2093860C992329F080910D
:101F40006F00826080936F0081E08093E50C0E94B7
:101F50008A4F12DF8CE0EBE9F5E0AAEABCE00190E1
:101F60000D928A95E1F7C3CF2F923F924F925F92E5
:101F70006F927F929F92AF92BF92CF92DF92EF9239
:101F8000FF920F931F93CF93DF93CDB7DEB72897C0
:101F90000FB6F894DEBF0FBECDBF1A012B01922EF3
:101FA000F32EC82ED12CF601EC59FB4FE491AA2454
:101FB000A3941E160CF4A12CBB24B39420E030E0B3
:101FC000A901C201B1010E94A17D18160CF0B12C2B
:101FD000CC0CDD1CCC0CDD1CC6018655934F3C019E
:101FE000FC01108211821282138281DFF3012082B0
:101FF000318242825382E090A90C20E030E0A901B6
:10200000B801892D9F2D0E94677781110AC0F601C2
:10201000E151FE4F85919591A591B4918C019A2E35
:10202000FB2EC801A92DBF2D8D839E83AF83B8875A
:1020300019821A821B821C82CE0101966C018E01CC
:102040000B5F1F4F26EB3CE042EB5CE06EEA7CE06E
:102050008AEA9CE00E94402B0E948A4FAB1459F000
:1020600080919504882319F01092950404C08DEB9B
:1020700096E00E94F93C28960FB6F894DEBF0FBE9A
:10208000CDBFDF91CF911F910F91FF90EF90DF9027
:10209000CF90BF90AF909F907F906F905F904F9048
:1020A0003F902F9008958091C8029091C9020097A7
:1020B00031F04AE050E060E070E00C94BB7460E006
:1020C00070E0CB010895EFDF97FD0AC0ECDF6F3FB2
:1020D00071058105910509F02CF4E5DF862F08953F
:1020E00080E008958FEF08958091C8029091C90211
:1020F000892B31F0E8DF91E0811103C090E001C04D
:1021000091E0892F08950F931F93CF938091C80278
:102110009091C902009711F1FC018F01C1912C2F00
:102120002F7DA9F0C53411F0C536B9F7F80110823A
:1021300060E070E08091C8029091C9020E946873CB
:10214000F801C083562F472F382F292F0BC060E08E
:1021500070E0CF911F910F910C94687350E040E0B4
:1021600030E020E0652F742F832F922FCF911F91A5
:102170000F91089581548A3108F042C0E82FF0E0B1
:10218000409178025091790260917A0270917B02BD
:1021900004C076956795579547958A95D2F7842F11
:1021A000817040FF2FC0E25AFD4F9081992309F1C1
:1021B000E091970CF091980CE90FF11D908120EDC2
:1021C000290F2A3098F09E3211F491810CC09D3273
:1021D00011F09B3271F4918120ED290F2A3030F0FB
:1021E0009E3239F4928190539A3018F42E2F9F2FFB
:1021F00002C020E090E02093C8029093C9020895A5
:1022000080E008950895B6DF882341F081E02091B1
:10221000C8023091C902232B09F480E008959F92EF
:10222000AF92BF92CF92DF92EF92FF920F931F93E4
:10223000CF93DF938FE3A82E82E0B82E09E91CE04C
:10224000CAEADCE096EDC92E92E0D92E2FE0E22E0C
:1022500023E0F22E912CF50181915F018BDF882321
:1022600001F151DFF7012081211104C020911303F6
:10227000222339F0288139814A815B810E947B7B4E
:102280000AC0F3E09F1639F0F601208131814281C6
:1022900053810E947A7BF8016083718382839383E8
:1022A00009C088819981AA81BB81F80180839183CB
:1022B000A283B38393940C5F1F4F2496F4E0CF0E58
:1022C000D11C2FEFE21AF20A84E09812C4CF86E400
:1022D0009ADF8823B9F017DF20E030E0A9010E94DF
:1022E000A17D18167CF40FDF20E030E040E752E4D7
:1022F0000E94577C609324027093250280932602EB
:1023000090932702DF91CF911F910F91FF90EF9053
:10231000DF90CF90BF90AF909F9008959091C000B4
:1023200095FFFCCF8093C60008958F929F92AF9245
:10233000BF92CF92DF92EF92FF920F931F93CF93B2
:10234000DF93CDB7DEB728970FB6F894DEBF0FBE88
:10235000CDBF8091750C83FDA1C0C090A50CD0901D
:10236000A60CE090A70CF090A80C2091B60C309130
:10237000B70C4091B80C5091B90CC701B6010E943E
:102380006777882309F48AC08091600681112FC085
:102390006091610670916206809163069091640677
:1023A0000E94BF7C209122023091230262177307A2
:1023B000F4F4C092B60CD092B70CE092B80CF09244
:1023C000B90CE2E4F4E184918F010F5F1F4F882381
:1023D00019F0A4DFF801F7CFE4E3F7E084918F016F
:1023E0000F5F1F4F882319F099DFF801F7CF809016
:1023F000A50C9090A60CA090A70CB090A80C2091D2
:10240000B60C3091B70C4091B80C5091B90CC50185
:10241000B4010E947A7B6B017C0120E030E0A901CD
:102420000E94A17D87FF04C0F7FAF094F7F8F094BA
:10243000E091A90C84E0E89FF0011124E25EFD4FD9
:102440002081318142815381C701B6010E94CC773E
:1024500020E030E048E453E40E94A17D1816F4F433
:102460008092B60C9092B70CA092B80CB092B90CB6
:10247000E2E4F4E184918F010F5F1F4F882319F08C
:102480004DDFF801F7CFE5E1F7E084918F010F5FB1
:102490001F4F882319F042DFF801F7CF609128021F
:1024A00070912902072E000C880B990B0E946D7702
:1024B000209124023091250240912602509127025A
:1024C0000E94CC772AE037ED43E25CE30E94CC77B0
:1024D0006D837E838F839887E090A90C19821A827E
:1024E0001B821C82CE0101966C018E010B5F1F4F77
:1024F00025EA3CE041EA5CE06DE97CE089E99CE0AA
:102500000E94402B80E1E9E9FCE0AAEABCE00190EE
:102510000D928A95E1F728960FB6F894DEBF0FBEAC
:10252000CDBFDF91CF911F910F91FF90EF90DF9082
:10253000CF90BF90AF909F908F900895CF93DF93EF
:10254000E1EEFCE18491EF012196882319F0E6DEAB
:10255000FE01F8CFE1EDF6E08491EF0121968823AA
:1025600019F0DCDEFE01F8CFDF91CF910895CF9214
:10257000DF92EF92FF920F931F93CF93DF9380919F
:102580009704843008F01BC1E3DBAC0197FD17C151
:10259000982F20912C0D30912D0D8A3019F09D30FF
:1025A00009F0DCC0109218052115310519F40E94BC
:1025B000C951E5CFF901E854FB4F108210922D0D5F
:1025C00010922C0DC8EBD4E0FE018191803211F401
:1025D000EF01FACF8E3409F07EC0209709F47BC05A
:1025E0006DE876E0CE010E941F778C01892B41F0C7
:1025F0006EE470E0CE0104960E94847E009709F498
:10260000CE014AE050E060E070E001960E94BB74A9
:102610006093B4047093B5048093B6049093B704A8
:10262000C0902E0DD0902F0DE090300DF090310D18
:102630002FEFC21AD20AE20AF20A6C157D058E0546
:102640009F0529F0012B19F48AE596E02AC06AE279
:1026500070E0CE010E949F7E9C01009701F1982FAF
:102660009C1B10E0992339F09150FE01E90FF11DF8
:1026700080811827F7CF4AE050E060E070E0C901A0
:1026800001960E94BB74012F10E020E030E060173B
:1026900071078207930779F08BE396E002C081E12E
:1026A00096E0DF91CF911F910F91FF90EF90DF9017
:1026B000CF900C94DE5C8091B4049091B504A0910D
:1026C000B604B091B70480932E0D90932F0DA09374
:1026D000300DB093310D8091130281111EC067E45B
:1026E00070E0CE010E94847E0097B9F04AE050E08D
:1026F00060E070E001960E94BB7464307105810552
:10270000910558F4EAE9F5E084918F010F5F1F4FBE
:10271000882319F003DEF801F7CF6AE472E0CE01F6
:102720000E948F7E892B11F4109214026FE472E0E4
:10273000CE010E948F7E892B21F481E995E00E94D1
:10274000F93C64E572E0CE010E948F7E892B09F48A
:10275000D8DB61E088EB94E02BDB11CF2F3531051E
:102760000CF00DCF9C35B9F4F3DA97FD08CF20912A
:102770001805211104CF20912C0D30912D0DA901A8
:102780004F5F5F4F50932D0D40932C0DF901E8548E
:10279000FB4F8083F4CE9B3319F481E080931805BE
:1027A000809118058111EBCEC901019690932D0DF2
:1027B00080932C0DF901E854FB4F4083E0CEDF916C
:1027C000CF911F910F91FF90EF90DF90CF900895E0
:1027D000BF92CF92DF92EF92FF920F931F93CF930E
:1027E000DF93CDB7DEB76E970FB6F894DEBF0FBE9E
:1027F000CDBF6091B1047091B2046115710551F1C2
:102800004DE150E0CE0101967C010E9410771E8EB2
:10281000F7018F010E191F09B190BB2021F19AE039
:10282000B912F7CF20C0B70184E895E00E94844D2B
:1028300082E274DD8AE072DDBB2051F10F5F1F4F31
:102840008091B1049091B204080F191F1093B20443
:102850000093B10481E02091B1043091B204232BA4
:10286000D1F480E018C0F701E00FF11F108260E0A2
:10287000C7019EDA882371F3E2E4F4E184916F01E9
:102880009FEFC91AD90A882371F248DDF601F6CF05
:1028900000E010E0DBCF6E960FB6F894DEBF0FBEFF
:1028A000CDBFDF91CF911F910F91FF90EF90DF90FF
:1028B000CF90BF9008958F929F92AF92BF92EF9268
:1028C000FF920F931F93CF93DF93CDB7DEB7A097FF
:1028D0000FB6F894DEBF0FBECDBF6115710581053F
:1028E000910589F100E0842E912CA12CB12C102FA0
:1028F000EE24E394F12CEC0EFD1EE00EF11C07FD1E
:10290000FA94A50194010E943F7BF7016083B9010D
:10291000CA010F5F611571058105910541F71F3FE0
:1029200021F1E1E0F0E0EC0FFD1FE10FF11D17FDDB
:10293000FA9580818A3010F097E301C090E3890F07
:10294000EDDC1150ECCF80E3A0960FB6F894DEBF1B
:102950000FBECDBFDF91CF911F910F91FF90EF90F0
:10296000BF90AF909F908F90D9CCA0960FB6F8945F
:10297000DEBF0FBECDBFDF91CF911F910F91FF90B2
:10298000EF90BF90AF909F908F900895EF92FF923D
:102990000F931F93CF93DF937C0184E534DCD82F12
:1029A000882321F190DBC82F1816E4F4E2E4F4E167
:1029B00084918F010F5F1F4F882319F0AFDCF8015E
:1029C000F7CF8DE4ABDCB70180E090E04AE073DF45
:1029D0006C2FCC0F770B82E996E00E946B4D8AE05A
:1029E0009DDC08C080930A03D0E004C08091A90C4C
:1029F00080930A038D2FDF91CF911F910F91FF904C
:102A0000EF900895CF92DF92EF92FF926B017C01DD
:102A100097FF0AC08DE282DCF094E094D094C094D9
:102A2000C11CD11CE11CF11C4AE0C701B601FF909A
:102A3000EF90DF90CF903FCFCF93DF9380919905B8
:102A400080939A05ECE0F7E08491EF0121968823CA
:102A500019F064DCFE01F8CF80912E0D90912F0DBE
:102A6000A091300DB091310DBC01CD016F5F7F4F52
:102A70008F4F9F4FC7DF8AE051DCE0919604F0E072
:102A8000E55FFC4F8081882321F0DF91CF910C948A
:102A90002E2BDF91CF910895FF920F931F93CF9329
:102AA000DF93F82E092F162FE7E0F7E08491EF016E
:102AB0002196882319F032DCFE01F8CFEF2DF02F9C
:102AC0008491EF012196882319F028DCFE01F8CFCC
:102AD000E5E0F7E08491EF012196882319F01EDCF0
:102AE000FE01F8CF612F70E080E090E08BDF8AE09C
:102AF000DF91CF911F910F91FF9010CC4F925F9279
:102B00006F927F928F929F92AF92BF92CF92DF92FD
:102B1000EF92FF92CF93DF932091D6023091D702AC
:102B20004091D8025091D9026091AA0C7091AB0CDF
:102B30008091AC0C9091AD0C0E947B7BAB01BC01F1
:102B400082E097E00E944E4D2091DA023091DB0244
:102B50004091DC025091DD026091AE0C7091AF0C9F
:102B60008091B00C9091B10C0E947B7BAB01BC01B9
:102B70008EEF96E00E944E4D2091DE023091DF02F2
:102B80004091E0025091E1026091B20C7091B30C5F
:102B90008091B40C9091B50C0E947B7BAB01BC0181
:102BA0008AEF96E00E944E4D4091B60C5091B70CC2
:102BB0006091B80C7091B90C86EF96E00E944E4D72
:102BC00080916F00982F927081FF05C080916F00F7
:102BD0008D7F80936F0040907C0250907D026090CA
:102BE0007E0270907F028090800290908102A0907F
:102BF0008202B0908302C0908402D0908502E0905F
:102C00008602F0908702992329F080916F008260FC
:102C100080936F00ECEEF6E08491EF01219688231B
:102C200019F07CDBFE01F8CFC301B201EBDEE8EE68
:102C3000F6E08491EF012196882319F06FDBFE0105
:102C4000F8CFC501B401DEDEE4EEF6E08491EF01D9
:102C50002196882319F062DBFE01F8CFC701B60187
:102C6000D1DE8AE0DF91CF91FF90EF90DF90CF909F
:102C7000BF90AF909F908F907F906F905F904F909C
:102C80004DCB2F923F924F925F926F927F928F9295
:102C90009F92AF92BF92CF92DF92EF92FF920F93EB
:102CA0001F93CF93DF93CDB7DEB762970FB6F8943B
:102CB000DEBF0FBECDBF8DE690E068DE811162C140
:102CC0008091750C83FD5EC183E59DDA8C8781114F
:102CD00005C082E598DA89838823A1F014DA0E947E
:102CE000BF7CCB010E943D4B0EDA20E030E04AEA87
:102CF00052E40E94677718160CF43FC10E94815A73
:102D000021E029830E94A14E4981442309F43AC15C
:102D100081E0809314021A821B821C821D82188615
:102D200019861A861B8619821D865CE35E878CE1F4
:102D30008F8796E4988B312C212CA0E8A98BBFEBD0
:102D4000BA8B812C912C54016091C80C7091C90CE4
:102D5000072E000C880B990B0E946D777B018C016C
:102D60009B01AC01632D722D89899A890E94677736
:102D7000882329F120916106309162064091630613
:102D8000509164068C85B70181110CC0C8010E9466
:102D90006777881F8827881F89833E2C2F2C098BF3
:102DA0001A8B0DC0C8010E94677787FF03C080910E
:102DB0001402E8C03E2C2F2C098B1A8B19820E941A
:102DC000885C6B017C01DC01CB01288539854A8553
:102DD0005B85821B930BA40BB50BB7FD37C0D701E6
:102DE000C60188519C4FAF4FBF4F88879987AA87EC
:102DF000BB870E940349E0EEF6E084913F019FEF1C
:102E0000691A790A882319F089DAF301F6CF811457
:102E10009104A104B104B1F0D501C401805F984DC3
:102E2000AF4FBF4FBC01CD016C197D098E099F09C1
:102E300028EE33E040E050E00E943F7BCA01B90138
:102E4000E1DD02C08FE36ADA8AE068DA0E94293D98
:102E50000E94885C6093A2027093A3028093A402F4
:102E60009093A502A0916106AE83B0916206BF83E4
:102E700000916306109164069D01A801632D722DD7
:102E800089899A890E947A7B2B013C0120E030E0FD
:102E9000A9010E94A17D87FF04C077FA709477F89A
:102EA000709481149104A104B10459F420E030E03D
:102EB00040E85FE3C301B2010E94677787FF0DC05E
:102EC0000AC020E030E040E450E4C301B2010E94B7
:102ED000A17D181614F44601570129812223A9F176
:102EE0008A819B81AC81BD81892B8A2B8B2B61F0E0
:102EF000D701C6012A813B814C815D81821B930BE6
:102F0000A40BB50BB7FD21C02E813F81A8016D85B3
:102F10007E858F8598890E947A7B20E030E040ECA6
:102F20005FE30E94677787FD42CFD701C601805AD1
:102F30009541AF4FBF4F8A839B83AC83BD839E81F6
:102F40009D87AF81AE870F87188B809114028823ED
:102F500009F42DCF81149104A104B10409F4F4CE35
:102F6000B0E1CB1AB7E2DB0AE108F108C818D908CA
:102F7000EA08FB08F7FE1BCFE7CE0E94605A31E05B
:102F80003983C0CE62960FB6F894DEBF0FBECDBFB8
:102F9000DF91CF911F910F91FF90EF90DF90CF9035
:102FA000BF90AF909F908F907F906F905F904F9069
:102FB0003F902F9008958F929F92AF92BF92CF92A1
:102FC000DF92EF92FF92CF936B017C01B42E20E051
:102FD00030E0A9010E94677787FF06C08DE29ED985
:102FE000F7FAF094F7F8F094C0E060E070E080E069
:102FF0009FE3CB1541F02DEC3CEC4CEC5DE30E94E3
:10300000CC77CF5FF6CF9B01AC01C701B6010E9420
:103010007B7B6B017C010E94C47C4B015C014AE01C
:103020004ADCCC2379F1C501B4010E946B779B0186
:10303000AC01C701B6010E947A7B6B017C018EE274
:103040006DD920E030E040E251E4C701B6010E94B2
:10305000CC774B015C010E94BF7C6B01770FEE08BF
:10306000FF08C701B601CEDCC701B6010E946D772B
:103070009B01AC01C501B4010E947A7B6B017C010C
:10308000C150F9F6CF91FF90EF90DF90CF90BF90B5
:10309000AF909F908F900895CF93DF930E94BC0EC6
:1030A0008BE53CD9CBE9D5E0688179818A819B8128
:1030B00042E081DF4C815D816E817F818EEC96E004
:1030C0000E944E4D488559856A857B858BEC96E03C
:1030D0000E944E4D8DE522D98AE0DF91CF911EC925
:1030E0001F920F920FB60F9211240BB60F922F93CF
:1030F0008F939F93EF93FF9320919A05E091990509
:1031000081E08E0F8F779091C600281729F0F0E0AC
:10311000E75EFA4F9083E82FE0939905FF91EF91D6
:103120009F918F912F910F900BBE0F900FBE0F901C
:103130001F9018952F923F924F925F926F927F92BD
:103140008F929F92AF92BF92CF92DF92EF92FF92B7
:103150000F931F93CF93DF93CDB7DEB72F970FB6A3
:10316000F894DEBF0FBECDBFF8948FEF9FEF909322
:10317000890080938800BAE0DB2E1F861E86789433
:103180008091EB059091EC05A091ED05B091EE05D5
:10319000892B8A2B8B2B09F0C5C18091E50C8823E4
:1031A000D1F01092E50C8091E30C9091E40C892B06
:1031B00091F01092AC051092E40C1092E30C9091F7
:1031C000190F80911A0F981731F080911A0F8F5FA5
:1031D0008F7080931A0F8091E30C9091E40C892BEF
:1031E00009F4A0C10091E7051091E8052091E905D7
:1031F0003091EA058091E3059091E405A091E50501
:10320000B091E6054091DA0550E060E070E0801B87
:10321000910BA20BB30B481759076A077B0710F4F1
:10322000DB01CA01482F800F911FA21FB31F80939B
:10323000E7059093E805A093E905B093EA0580912E
:103240008400909185004C968090C1059090C205B5
:10325000A090C305B090C4050091B1051091B205CE
:103260002091B3053091B405080D191D2A1D3B1D91
:103270000093C1051093C2052093C3053093C40584
:1032800037FD1CC0409A00917C0210917D02209174
:103290007E0230917F0280901502082C000C990864
:1032A000AA08BB08080D191D2A1D3B1D00937C02AE
:1032B00010937D0220937E0230937F028090C5059B
:1032C0009090C605A090C705B090C8050091B505BF
:1032D0001091B6052091B7053091B805080D191D5C
:1032E0002A1D3B1D0093C5051093C6052093C705F5
:1032F0003093C80537FD1CC0419A0091800210919F
:103300008102209182023091830280901602082C63
:10331000000C9908AA08BB08080D191D2A1D3B1DA1
:1033200000938002109381022093820230938302E3
:103330008090C9059090CA05A090CB05B090CC05AF
:103340000091B9051091BA052091BB053091BC05DB
:10335000080D191D2A1D3B1D0093C9051093CA05B0
:103360002093CB053093CC0537FD1CC0429A0091C9
:10337000840210918502209186023091870280900C
:103380001702082C000C9908AA08BB08080D191D83
:103390002A1D3B1D00938402109385022093860210
:1033A000309387028090CD059090CE05A090CF05F8
:1033B000B090D0050091BD051091BE052091BF05CC
:1033C0003091C005080D191D2A1D3B1D0093CD0528
:1033D0001093CE052093CF053093D00537FD1CC048
:1033E000439A009188021091890220918A023091BB
:1033F0008B0280901802082C000C9908AA08BB08C0
:10340000080D191D2A1D3B1D009388021093890287
:1034100020938A0230938B020091C1051091C2055E
:103420002091C3053091C40537FD15C08090AD05CE
:103430009090AE05A090AF05B090B005081919099D
:103440002A093B090093C1051093C2052093C305C7
:103450003093C40540980091C5051091C605209190
:10346000C7053091C80537FD15C08090AD05909017
:10347000AE05A090AF05B090B005081919092A094A
:103480003B090093C5051093C6052093C7053093EB
:10349000C80541980091C9051091CA052091CB0536
:1034A0003091CC0537FD15C08090AD059090AE05EC
:1034B000A090AF05B090B005081919092A093B0979
:1034C0000093C9051093CA052093CB053093CC0512
:1034D00042980091CD051091CE052091CF053091F5
:1034E000D00537FD15C08090AD059090AE05A09039
:1034F000AF05B090B005081919092A093B090093D6
:10350000CD051093CE052093CF053093D005439879
:10351000415041F0209184003091850028173907EF
:10352000C8F392CE8091EB059091EC05A091ED054A
:10353000B091EE05892B8A2B8B2B09F0CDC5E0913C
:10354000E30CF091E40C309709F44CC78091E70547
:103550009091E805A091E905B091EA054091E30555
:103560005091E4056091E5057091E6058417950793
:10357000A607B707D0F01092AC051092E40C109299
:10358000E30C9091190F80911A0F981709F42AC72C
:1035900080911A0F8F5F8F7080931A0FA0ED4A2EC3
:1035A000A7E05A2E612C712CE5C34091DF055091A4
:1035B000E0056091E1057091E205481759076A0737
:1035C0007B0708F4A4C18090DB059090DC05A090F7
:1035D000DD05B090DE0586A997A9A0ADB1AD88162E
:1035E0009906AA06BB0608F076C181149104A104CD
:1035F000B10449F48091A8059091A905A091AA056C
:10360000B091AB0564C1B0E0AC2D882D392D2A2DC9
:10361000F981EA817B816C815D814E819F8150912E
:10362000DF0C589F712D66274091E00C489F700D6C
:10363000611D1090E10C189E600D539F700D611D6F
:10364000439F600D529F600DF72FE62FF79F512D7E
:1036500044279927F69F500D411D9B1FE79F500D52
:10366000411D9B1FE69F400D911DF42FE92FF79FF1
:10367000A12D44279927F69FA00D411D9B1FE79F71
:10368000A00D411D9B1FE69F400D911DF42FE92FBA
:1036900055278091A8053091A9052091AA05009091
:1036A000B0040B2A09F483C04091AC044F9F511918
:1036B0008B0B3B0B2B0B9091AD049F9F50198109F5
:1036C0003B0B2B0BA091AE04AF9F801931092B0B44
:1036D0004E9F501981093B0B2B0B9E9F801931097E
:1036E0002B0BAE9F30192109F79FA12D4427992755
:1036F000F69FA00D411D9B1FE79FA00D411D9B1F25
:10370000E69F400D911DF42FE92F4091A8044F9F93
:10371000510D8B1F3B1F2B1F9091A9049F9F500D94
:10372000811D3B1F2B1FA091AA04AF9F800D311D4F
:103730002B1F4E9F500D811D3B1F2B1F9E9F800DE9
:10374000311D2B1FAE9F300D211DF79FA12D44274A
:103750009927F69FA00D411D9B1FE79FA00D411DBE
:103760009B1FE69F400D911DF42FE92F4091A4046B
:103770004F9F51198B0B3B0B2B0B9091A5049F9FD7
:10378000501981093B0B2B0BA091A604AF9F801908
:1037900031092B0B4E9F501981093B0B2B0B9E9F20
:1037A000801931092B0BAE9F3019210982C040913D
:1037B000AC044F9F510D8B1F3B1F2B1F9091AD04ED
:1037C0009F9F500D811D3B1F2B1FA091AE04AF9FEB
:1037D000800D311D2B1F4E9F500D811D3B1F2B1F38
:1037E0009E9F800D311D2B1FAE9F300D211DF79F19
:1037F000A12D44279927F69FA00D411D9B1FE79FF0
:10380000A00D411D9B1FE69F400D911DF42FE92F38
:103810004091A8044F9F51198B0B3B0B2B0B9091A0
:10382000A9049F9F501981093B0B2B0BA091AA045F
:10383000AF9F801931092B0B4E9F501981093B0B0B
:103840002B0B9E9F801931092B0BAE9F301921093C
:10385000F79FA12D44279927F69FA00D411D9B1F7F
:10386000E79FA00D411D9B1FE69F400D911DF42F6A
:10387000E92F4091A4044F9F510D8B1F3B1F2B1F1D
:103880009091A5049F9F500D811D3B1F2B1FA09160
:10389000A604AF9F800D311D2B1F4E9F500D811D23
:1038A0003B1F2B1F9E9F800D311D2B1FAE9F300D88
:1038B000211D1124CA2EF983EA837B836C835D83E7
:1038C0004E839F8390E0932BA0E0B0E0A22B2FE4E7
:1038D0003FE011E011C082A993A9A4A9B5A9F7CF2F
:1038E000B695A79597958795110F2C5F3F4F4FE0A1
:1038F0002B36340709F445C4F9014591559165917A
:103900007491481759076A077B0750F33AC44091EE
:10391000D6055091D7056091D8057091D905481703
:1039200059076A077B0708F0B8C18091D505811156
:103930001FC0DF01AE5BBF4FED90FD900D911C915C
:1039400013971D962D913D914D915C9162A973A99C
:1039500084A995A90E94594C51E05093D505E09156
:10396000E30CF091E40C82A893A8A4A8B5A886C1A2
:103970008091D1059091D205A091D305B091D40545
:1039800042AD53AD64AD75AD84179507A607B70773
:1039900008F06EC10097A105B10549F48090A80513
:1039A0009090A905A090AA05B090AB0567C130E042
:1039B0004885882E292F8A2FE9857A856B855C8535
:1039C0009D859091DF0C989D612D55272090E00CEE
:1039D000289C600D511D1090E10C189C500D929F79
:1039E000600D511D229E500D989F500DE62F752F92
:1039F000E69F912D22243324E59F900D211C331E38
:103A0000769F900D211C331E759F200C311CE22DDA
:103A1000732DE69F412D22243324E59F400D211C68
:103A2000331E769F400D211C331E759F200C311CC8
:103A3000E22D732D99278090A8052091A9058091EA
:103A4000AA050090B004032A09F483C02090AC04B6
:103A50002E9E9119830A230B830B3090AD043E9E5A
:103A600090198108230B830B4091AE044E9F801860
:103A70002109830B279E90198108230B830B379E06
:103A800080182109830B479F20198109E69F412D4A
:103A900022243324E59F400D211C331E769F400DC8
:103AA000211C331E759F200C311CE22D732D20909C
:103AB000A8042E9E910D831E231F831F3090A904FE
:103AC0003E9E900D811C231F831F4091AA044E9F90
:103AD000800C211D831F279E900D811C231F831F97
:103AE000379E800C211D831F479F200D811DE69F5F
:103AF000412D22243324E59F400D211C331E769F47
:103B0000400D211C331E759F200C311CE22D732D9E
:103B10002090A4042E9E9119830A230B830B3090CE
:103B2000A5043E9E90198108230B830B4091A604A7
:103B30004E9F80182109830B279E90198108230B23
:103B4000830B379E80182109830B479F2019810919
:103B500082C02090AC042E9E910D831E231F831FD4
:103B60003090AD043E9E900D811C231F831F409119
:103B7000AE044E9F800C211D831F279E900D811C3B
:103B8000231F831F379E800C211D831F479F200DFD
:103B9000811DE69F412D22243324E59F400D211CE9
:103BA000331E769F400D211C331E759F200C311C47
:103BB000E22D732D2090A8042E9E9119830A230BC9
:103BC000830B3090A9043E9E90198108230B830B30
:103BD0004091AA044E9F80182109830B279E9019BB
:103BE0008108230B830B379E80182109830B479F85
:103BF00020198109E69F412D22243324E59F400DA1
:103C0000211C331E769F400D211C331E759F200CF6
:103C1000311CE22D732D2090A4042E9E910D831E45
:103C2000231F831F3090A5043E9E900D811C231FEF
:103C3000831F4091A6044E9F800C211D831F279E49
:103C4000900D811C231F831F379E800C211D831F15
:103C5000479F200D811D11244887E9877A876B874C
:103C60005C879D87912C922AA12CB12CA82A06C092
:103C7000E15BFF4F80809180A280B3808FE49FE062
:103C800021E0FC01459155916591749148155905C4
:103C90006A057B0508F4D8C2E2C280911A029091AD
:103CA0001B02A0911C02B0911D02B7FF5BC0E95B33
:103CB000FF4F80809180A280B3808FE49FE021E05D
:103CC000FC014591559165917491481559056A0516
:103CD0007B0550F4B694A79497948794220F04968A
:103CE000AFE08B369A0761F72093DA05B0E28B16C6
:103CF0009104A104B10408F446C320E2821A910899
:103D0000A108B108811438E09306A104B10408F4B5
:103D100016C344E0949EC0011124815B944FFC01C2
:103D2000329625913491782D6627739FA001729F5A
:103D3000410D561F0694461F561F112460E070E087
:103D4000FC0125913491C901A0E0B0E0841B950BE2
:103D5000A60BB70B80931A0290931B02A0931C0230
:103D6000B0931D0240901A0250901B0260901C02FA
:103D700070901D028091E30C9091E40C892B09F066
:103D8000A3C10E94FC4C9093E40C8093E30C892B1C
:103D900009F49AC1E091E30CF091E40C808183FF77
:103DA0003EC085899689A789B08D80937C029093C7
:103DB0007D02A0937E02B0937F02818D928DA38DB0
:103DC000B48D8093800290938102A0938202B0937D
:103DD0008302858D968DA78DB0A1809384029093E8
:103DE0008502A0938602B093870281A192A1A3A12C
:103DF000B4A18093880290938902A0938A02B09321
:103E00008B029091190F80911A0F981709F4B9CF6E
:103E100080911A0F8F5F8F7080931A0FB2CF058930
:103E200016892789308D81E001151105210531059D
:103E300009F480E0818C928CA38CB48C8114910461
:103E4000A104B10409F08260458D568D678D70A183
:103E5000411551056105710509F084608093AC0539
:103E60001092D1051092D2051092D3051092D4056C
:103E70001092DB051092DC051092DD051092DE0534
:103E800085A196A1A7A1B0A58093E3059093E40531
:103E9000A093E505B093E605442455243201481A61
:103EA000590A6A0A7B0A4092CD055092CE0560926B
:103EB000CF057092D0054092C9055092CA05609214
:103EC000CB057092CC054092C5055092C605609214
:103ED000C7057092C8054092C1055092C205609214
:103EE000C3057092C405000F111F221F331F0093DA
:103EF000B1051093B2052093B3053093B405880C37
:103F0000991CAA1CBB1C8092B5059092B605A09284
:103F1000B705B092B805440F551F661F771F409331
:103F2000B9055093BA056093BB057093BC0541A1D8
:103F300052A163A174A1440F551F661F771F4093C0
:103F4000BD055093BE056093BF057093C005880FF3
:103F5000991FAA1FBB1F8093AD059093AE05A09338
:103F6000AF05B093B0051092E7051092E8051092E6
:103F7000E9051092EA0582A593A5A4A5B5A58093AD
:103F8000DF059093E005A093E105B093E20586A5D7
:103F900097A5A0A9B1A98093D6059093D705A09322
:103FA000D805B093D90541A5EA5BFF4F50818091B8
:103FB000A70558130AC08091190290E0242F042EFF
:103FC000000C330B2817390731F05093A7054093A5
:103FD00019020E94AB4CF0D48FEF9FEFDC0180936D
:103FE0001A0290931B02A0931C02B0931D02E09151
:103FF000E30CF091E40CDF01DE96ED90FD900D9165
:104000001C9122A933A944A955A9E55BFF4F608102
:104010007181828193810E94594C1092D505E09163
:10402000E30CF091E40CE55BFF4F80809180A2806F
:10403000B3808FE49FE021E0FC01459155916591AB
:104040007491481559056A057B0558F4B694A794F0
:1040500097948794220F04964BE65FE04817590720
:1040600059F72093DA0550E285169104A104B104B2
:1040700008F4B2C190E2891A9108A108B10881142C
:10408000A8E09A06A104B10408F483C1B4E09B9EA1
:10409000C0011124815B944FFC013296259134912B
:1040A000782D6627739FA001729F410D561F0694BD
:1040B000461F561F1124FC0145905490612C712C11
:1040C000441A550A610871084092EB055092EC05BC
:1040D0006092ED057092EE058091EB059091EC05F4
:1040E000A091ED05B091EE05AC01BD01009721E076
:1040F000A207B10520F04FEF5FEF60E070E0841B96
:10410000950BA60BB70B8093EB059093EC05A09352
:10411000ED05B093EE05F8948091840090918500B0
:104120004096DA94DD2059F0AE85BF85A40FB51F07
:10413000BF87AE87A817B90708F421C802C09F87B8
:104140008E872E853F853093890020938800789450
:104150002F960FB6F894DEBF0FBECDBFDF91CF9183
:104160001F910F91FF90EF90DF90CF90BF90AF9095
:104170009F908F907F906F905F904F903F902F9087
:1041800008951093DA0580329105A105B10508F470
:1041900056C08097A109B109811528E09207A105B1
:1041A000B105F0F044E0949F90011124215B344F5D
:1041B000F901329645915491EE27859FB001849F75
:1041C000610D7E1F06946E1F7E1F1124F90145901C
:1041D0005490612C712C461A570A6108710822C04C
:1041E000AC01BD017695679557954795FA01EC7F2F
:1041F000AF01415B584FFA0125913491FA01329693
:10420000659174918770869FA001879F500D11243E
:10421000F3E056954795FA95E1F72901441A550AB6
:10422000612C712C840C951CA61CB71C8092DB059C
:104230009092DC05A092DD05B092DE059BCD80E278
:1042400090E0A0E0B0E0A5CFB694A79497948794AF
:10425000220F04965FE08B36950709F012CD20936C
:10426000DA0570E287169104A104B10408F461C074
:1042700070E2871A9108A108B108811488E09806B5
:10428000A104B104F8F0A4E09A9EC0011124815B5E
:10429000944FFC01329625913491B82D6627B39F37
:1042A000A001B29F410D561F0694461F561F1124B0
:1042B000FC0145905490612C712C441A550A6108F8
:1042C000710822C0D501C401B695A7959795879529
:1042D000FC01EC7FCF01815B984FFC01459054902D
:1042E000FC01329625913491482D4770429FC001C0
:1042F000439F900D112463E0969587956A95E1F7A9
:10430000481A590A612C712C8091D1059091D205DF
:10431000A091D305B091D405840D951DA61DB71DA0
:104320008093D1059093D205A093D305B093D40583
:1043300021CD60E2862E912CA12CB12C99CFD501F4
:10434000C401B695A79597958795FC01EC7FCF01A1
:10435000815B984FFC0125913491FC013296459187
:104360005491682D6770649FC001659F900D112462
:1043700043E0969587954A95E1F7281B390BC901CB
:10438000A0E0B0E0E7CC40E2842E912CA12CB12C2F
:10439000B4CCD501C401B695A79597958795FC0136
:1043A000EC7FCF01815B984FFC0145905490FC015C
:1043B000329625913491482D4770429FC001439F0A
:1043C000900D1124A3E096958795AA95E1F7481AD8
:1043D000590A612C712C78CE90E2892E912CA12C57
:1043E000B12C48CE80ED482E87E0582E612C712CE0
:1043F000C8CC1F93CF93DF93182F6115710519F463
:10440000E9E0F2E10AC0FB018491EF0121968823E3
:10441000B9F30E948E11FE01F7CF8491EF0121962E
:10442000882321F00E948E11FE01F7CF111103C0E5
:10443000E4E0F2E102C0EAEFF1E18491EF012196BC
:10444000882321F00E948E11FE01F7CF8AE0DF91D0
:10445000CF911F910C948E11CF93DF93E2ECFFE08C
:104460008491EF012196882321F00E948E11FE0194
:10447000F7CFDF91CF9108952F923F924F925F92A5
:104480006F927F928F929F92AF92BF92CF92DF9264
:10449000EF92FF920F931F93CF93DF93CDB7DEB7C9
:1044A0006C970FB6F894DEBF0FBECDBF8C015B01D9
:1044B0005A834983FC01E95BFF4F208131814281AE
:1044C00053812D8B3E8B4F8B588FCA01B9010E94AF
:1044D0006B776B017C01D5012D913D914D915C91E4
:1044E0000E94CC770E94417C0E94C47C6D877E87AD
:1044F0008F87988BE981FA812081318142815381B4
:10450000C701B6010E94CC770E94417C0E94C47C06
:10451000698B7A8B8B8B9C8B2D853E854F8558893B
:10452000283731054105510540F448E750E060E087
:1045300070E04D875E876F87788B69897A898B8970
:104540009C89683771058105910540F488E790E002
:10455000A0E0B0E0898B9A8BAB8BBC8BF801ED5A55
:10456000FF4F20813181428153812D833E834F83D0
:104570005887CA01B9010E946D772B013C016D85F6
:104580007E858F8598890E946B7769877A878B876C
:104590009C8720E030E0A901C301B2010E94677747
:1045A000882329F1A7019601C701B6010E94CC77A3
:1045B0004B015C0129853A854B855C85CA01B901AF
:1045C0000E94CC779B01AC01C501B4010E947A7BAB
:1045D0004B015C01A3019201C301B2010E947B7BEC
:1045E0009B01AC01C501B4010E94577C03C060E08F
:1045F00070E0CB010E94417C0E94C47C69837A8375
:104600008B839C836D817E818F8198859095809529
:10461000709561957F4F8F4F9F4F0E946D774B0133
:104620005C0169897A898B899C890E946B776D838B
:104630007E838F83988720E030E0A901C501B40113
:104640000E946777882349F12D813E814F815885EB
:10465000CA01B9010E94CC77698F7A8F8B8F9C8FAA
:10466000A7019601C701B6010E94CC779B01AC015E
:10467000698D7A8D8B8D9C8D0E947A7B6B017C017C
:10468000A5019401C501B4010E947B7B9B01AC0193
:10469000C701B6010E94577C03C060E070E0CB0107
:1046A0000E94F07CD80195968D909D90AD90BC9025
:1046B00098977501640129813A814B815C81C21A06
:1046C000D30AE40AF50A0E94C47CC61AD70AE80A8B
:1046D000F90AF7FEA1C020E030E0A901C301B20150
:1046E0000E946777882309F443C0C501B4010E9482
:1046F0006B776B017C01A3019201C301B2010E949F
:104700007B7B9B01AC01C701B6010E94CC776B019A
:104710007C0129853A854B855C85CA01B9010E94D7
:10472000CC779B01AC01C701B6010E947A7B6B017B
:104730007C012D813E814F815885CA01B9010E94BB
:10474000CC779B01AC01C701B6010E947B7B6B015A
:104750007C0120E030E040E850E4C301B2010E9457
:10476000CC779B01AC01C701B6010E94577C03C006
:1047700060E070E0CB010E94417C7B018D839983D6
:1047800020E030E0A9010E94A17D181624F0E12C60
:10479000F12C1D821982B7018D8199810E94C47C00
:1047A00069837A838B839C8386169706A806B9064D
:1047B00020F489829A82AB82BC82A3019201C30158
:1047C000B2010E947B7B6B017C0169817A818B81C4
:1047D0009C810E946B779B01AC01C701B6010E94CE
:1047E000CC776B017C0129853A854B855C85CA01B4
:1047F000B9010E94CC779B01AC01C701B6010E94B0
:104800007B7B0E94E67D0E94C47C6D8B7E8B8F8BB0
:10481000988FC12CD12C76016D897E898F89988DD6
:104820002D853E854F855889621B730B840B950B34
:104830000E946B77A30192010E94577C20E034E232
:1048400044EF59E40E94CC770E94C47C4B015C0188
:104850006D897E898F89988D29893A894B895C89F0
:10486000621B730B840B950B0E946B77A301920163
:104870000E94577C20E034E244EF59E40E94CC7758
:104880000E94C47C2B013C013FE683169104A104E5
:10489000B10480F4F401EE0FFF1FEE0FFF1FE85C80
:1048A000FD4E85919591A591B4918D83292E3A2E37
:1048B000B98708C0C501B4010E949F4D6D83272EA2
:1048C000382E99874FE6441651046104710470F440
:1048D000F201EE0FFF1FEE0FFF1FE85CFD4E45914A
:1048E0005591659174919A01CB0105C0C301B20144
:1048F0000E949F4D9B0149815A816B817C81D80127
:104900009A964D935D936D937C939D974C0D5D1D91
:104910006E1D7F1DF80146A757A760AB71ABE55B25
:10492000FF4F4D855E856F85788940835183628313
:104930007383D6968D929D92AD92BC92D997F801D1
:1049400042AE53AE64AE75AEFE964D814083218279
:1049500032825985538334962083318382839383B3
:104960006D897E898F89988DD2966D937D938D9375
:104970009C93D5973D9629893A894B895C892083F8
:104980003183428353836C960FB6F894DEBF0FBE1B
:10499000CDBFDF91CF911F910F91FF90EF90DF90EE
:1049A000CF90BF90AF909F908F907F906F905F90CF
:1049B0004F903F902F9008958091B202882309F480
:1049C00057C08091EF051E9902C0816001C08E7FA3
:1049D0008093EF058091EF051D9902C0826001C0B0
:1049E0008D7F8093EF058091EF051C9902C0846054
:1049F00001C08B7F8093EF058091AC0580FF10C0D4
:104A00008091A70580FF0CC08091EF0580FF08C052
:104A10008091950481608093950480E00E94955A6E
:104A20008091AC0581FF10C08091A70581FF0CC06B
:104A30008091EF0581FF08C080919504826080938A
:104A4000950481E00E94955A8091AC0582FF10C0C8
:104A50008091A70582FF0CC08091EF0582FF08C0FE
:104A60008091950484608093950482E00C94955A1B
:104A70000895CF93DF93EEE1F2E18491882349F02A
:104A8000CFE1D2E10E948E11FE0184912196811125
:104A9000F9CF83B1C1E086FB882780F968E172E134
:104AA0008C27A7DC83B185FB882780F962E172E15E
:104AB0008C279FDC83B1829581706CE072E18C273A
:104AC000DF91CF9196CC1F920F920FB60F921124C7
:104AD0000BB60F922F933F934F935F936F937F93F8
:104AE0008F939F93AF93BF93EF93FF9365DFFF91F6
:104AF000EF91BF91AF919F918F917F916F915F9156
:104B00004F913F912F910F900BBE0F900FBE0F90C2
:104B10001F9018951F920F920FB60F9211240BB68B
:104B20000F922F933F934F935F936F937F938F9346
:104B30009F93AF93BF93EF93FF93C5DFFF91EF91E7
:104B4000BF91AF919F918F917F916F915F914F91A5
:104B50003F912F910F900BBE0F900FBE0F901F90A3
:104B600018951F920F920FB60F9211240BB60F9249
:104B70002F933F934F935F936F937F938F939F9365
:104B8000AF93BF93EF93FF939EDFFF91EF91BF91A0
:104B9000AF919F918F917F916F915F914F913F91D5
:104BA0002F910F900BBE0F900FBE0F901F90189576
:104BB0000F931F93CF93C82F882319F0EFEEF1E1E5
:104BC0000CC0E2E4F4E184918F010F5F1F4F882352
:104BD000A9F30E948E11F801F6CF84918F010F5F27
:104BE0001F4F882321F00E948E11F801F6CFE9ECC7
:104BF000FFE084918F010F5F1F4F882321F00E94F7
:104C00008E11F801F6CF8AE00E948E118AE00E9490
:104C10008E11C1112CC0E2E4F4E184918F010F5F89
:104C20001F4F882321F00E948E11F801F6CFECED82
:104C3000F1E184918F010F5F1F4F882321F00E94C3
:104C40008E11F801F6CF8091B702882321F08AE017
:104C50000E948E113AC0E1EDF1E184918F010F5F66
:104C60001F4F882391F10E948E11F801F6CF4091D9
:104C7000B3025091B4026091B5027091B60288EC13
:104C800091E10E944E4D8AE00E948E118091B70200
:104C9000811127C0CC2319F0EDEBF1E10CC0E2E467
:104CA000F4E184918F010F5F1F4F8823A9F30E94C5
:104CB0008E11F801F6CF84918F010F5F1F4F88236B
:104CC00081F00E948E11F801F6CFE2E4F4E18491C4
:104CD0008F010F5F1F4F882351F20E948E11F80140
:104CE000F6CFC11124C0E2E4F4E184918F010F5F9B
:104CF0001F4F882321F00E948E11F801F6CFECEAB5
:104D0000F1E184918F010F5F1F4F882321F00E94F2
:104D10008E11F801F6CFE2E4F4E184918F010F5F88
:104D20001F4F882321F00E948E11F801F6CF409189
:104D3000760C5091770C6091780C7091790C84EA24
:104D400091E10E944E4D40917A0C50917B0C609104
:104D50007C0C70917D0C81EA91E10E944E4D409156
:104D60007E0C50917F0C6091800C7091810C8EE9CB
:104D700091E10E944E4D4091820C5091830C6091C4
:104D8000840C7091850C8BE991E10E944E4D8AE074
:104D90000E948E11C11124C0E2E4F4E184918F01DC
:104DA0000F5F1F4F882321F00E948E11F801F6CF6C
:104DB000EDE7F1E184918F010F5F1F4F882321F010
:104DC0000E948E11F801F6CFE2E4F4E184918F01A4
:104DD0000F5F1F4F882321F00E948E11F801F6CF3C
:104DE0004091300650913106609132067091330641
:104DF00084E791E10E944E4D409134065091350672
:104E0000609136067091370681E791E10E944E4D20
:104E1000409138065091390660913A0670913B06F0
:104E20008EE691E10E944E4D40913C0650913D0628
:104E300060913E0670913F068BE691E10E944E4DD7
:104E40008AE00E948E11C11124C0E2E4F4E1849151
:104E50008F010F5F1F4F882321F00E948E11F801F0
:104E6000F6CFE9E4F1E184918F010F5F1F4F8823B2
:104E700021F00E948E11F801F6CFE2E4F4E1849172
:104E80008F010F5F1F4F882321F00E948E11F801C0
:104E9000F6CF4091B8025091B9026091BA02709178
:104EA000BB0280E491E10E94314D4091BC025091DF
:104EB000BD026091BE027091BF028DE391E10E943C
:104EC000314D4091C0025091C1026091C202709177
:104ED000C3028AE391E10E94314D4091C402509196
:104EE000C5026091C6027091C70287E391E10E94FA
:104EF000314D8AE00E948E11C11124C0E2E4F4E138
:104F000084918F010F5F1F4F882321F00E948E1123
:104F1000F801F6CFEDEEF0E184918F010F5F1F4FA6
:104F2000882321F00E948E11F801F6CFE2E4F4E12B
:104F300084918F010F5F1F4F882321F00E948E11F3
:104F4000F801F6CF409128065091290660912A0673
:104F500070912B0684EE90E10E944E4D40912C06FC
:104F600050912D0660912E0670912F0681EE90E1F2
:104F70000E944E4D409124065091250660912606D0
:104F8000709127068EED90E10E944E4D8AE00E94BE
:104F90008E11C1113FC0E2E4F4E184918F010F5FF3
:104FA0001F4F882321F00E948E11F801F6CFE6E909
:104FB000F0E184918F010F5F1F4F882321F00E9441
:104FC0008E11F801F6CFEBE6F0E184918F010F5FCF
:104FD0001F4F882321F00E948E11F801F6CFECE5D7
:104FE000F0E184918F010F5F1F4F882321F00E9411
:104FF0008E11F801F6CF8AE00E948E11E2E4F4E10E
:1050000084918F010F5F1F4F882321F00E948E1122
:10501000F801F6CF4091400650914106609142065A
:105020007091430683E590E10E94314D409158060E
:105030005091590660915A0670915B0680E590E1A7
:105040000E944E4D4091540650915506609156066F
:10505000709157068DE490E10E944E4D40910006FC
:105060005091010660910206709103068AE490E176
:105070000E944E4D4091040650910506609106062F
:105080007091070687E490E10E944E4D409108061A
:105090005091090660910A0670910B0684E490E134
:1050A0000E944E4D40910C0650910D0660910E06E7
:1050B00070910F0681E490E10E944E4D8AE00E94BB
:1050C0008E11C11124C0E2E4F4E184918F010F5FDD
:1050D0001F4F882321F00E948E11F801F6CFE3E3E1
:1050E000F0E184918F010F5F1F4F882321F00E9410
:1050F0008E11F801F6CFE2E4F4E184918F010F5FA5
:105100001F4F882321F00E948E11F801F6CF4091A5
:10511000CA025091CB026091CC027091CD028AE21A
:1051200090E10E944E4D4091CE025091CF0260918D
:10513000D0027091D10287E290E10E944E4D4091E1
:10514000D2025091D3026091D4027091D50284E2D0
:1051500090E10E944E4D8AE00E948E11C11124C040
:10516000E2E4F4E184918F010F5F1F4F882321F067
:105170000E948E11F801F6CFE5E1F0E184918F01F4
:105180000F5F1F4F882321F00E948E11F801F6CF88
:10519000E2E4F4E184918F010F5F1F4F882321F037
:1051A0000E948E11F801F6CF4091FA025091FB0255
:1051B0006091FC027091FD028CE090E10E944E4DE6
:1051C0002CEA35EC47E25EE36091F6027091F7025B
:1051D0008091F8029091F9020E94577CAB01BC01CA
:1051E00089E090E10E944E4D2CEA35EC47E25EE307
:1051F0006091F2027091F3028091F4029091F502B5
:105200000E94CC77AB01BC0186E090E10E944E4D3C
:105210008AE00E948E11C1110CC0E2E4F4E1849195
:105220008F010F5F1F4F882321F00E948E11F8011C
:10523000F6CF4091060350910703609108037091E7
:1052400009038DEF9FE00E944E4D2CEA35EC47E2BA
:105250005EE36091020370910303809104039091D7
:1052600005030E94577CAB01BC018AEF9FE00E94BE
:105270004E4D2CEA35EC47E25EE36091FE02709100
:10528000FF0280910003909101030E94CC77AB0153
:10529000BC0187EF9FE00E944E4D8AE00E948E1174
:1052A000C11124C0E2E4F4E184918F010F5F1F4F2C
:1052B000882321F00E948E11F801F6CFEEEDFFE079
:1052C00084918F010F5F1F4F882321F00E948E1160
:1052D000F801F6CFE2E4F4E184918F010F5F1F4FF4
:1052E000882321F00E948E11F801F6CFB5D8609185
:1052F000130F7091140F8BED9FE00E946B4D609126
:105300009A0E70919B0E88ED9FE00E946B4D60910C
:10531000210E7091220E85ED9FE00E946B4D8AE078
:105320000E948E1199D86091A80D7091A90D8FECF3
:105330009FE00E946B4D8AE00E948E118AE0CF911F
:105340001F910F910C948E11CF92DF92EF92FF92EA
:105350000F931F93CF93DF93CDB7DEB72C970FB684
:10536000F894DEBF0FBECDBF46E75CE020E336E039
:10537000A8EBB2E080E090E0FC01EE54F04FC59065
:10538000D590E590F490FA01C192D192E192F19218
:10539000AF01FC01EE55F04FC590D590E590F4902B
:1053A000F901C192D192E192F1929F01FC01EE5676
:1053B000F04FC590D590E590F490CD92DD92ED92AE
:1053C000FD92049680319105B9F680E29EE4A0E05A
:1053D000B0E08093400690934106A0934206B093BC
:1053E000430680E090E0A8ECB2E480932806909316
:1053F0002906A0932A06B0932B0680932C0690933F
:105400002D06A0932E06B0932F068093240690932A
:105410002506A0932606B0932706109258061092F0
:10542000590610925A0610925B061092540610927A
:10543000550610925606109257068AE999E9A9E98D
:10544000BEE38093000690930106A0930206B093FA
:1054500003068093040690930506A0930606B09376
:1054600007068093080690930906A0930A06B09356
:105470000B0680E090E0A0EAB0E480930C069093E5
:105480000D06A0930E06B0930F068CE0EAECF2E056
:10549000DF011D928A95E9F78AE999E9A1EBB1E468
:1054A0008093FA029093FB02A093FC02B093FD025A
:1054B00086EA91E3A5E3BEE38093F6029093F702B8
:1054C000A093F802B093F90280E493EFADE2B4E464
:1054D0008093F2029093F302A093F402B093F5024A
:1054E00082E598E3A7E8B2E480930603909307036C
:1054F000A0930803B093090384EB9EEFA6E1BEE3FB
:105500008093020390930303A0930403B0930503D5
:1055100083E79FE7A3EFB5E48093FE029093FF0239
:10552000A0930003B09301031092B70280E090E0D3
:10553000A0E4B0E48093B3029093B402A093B502C8
:10554000B093B60281E08093B2028093B10234DA64
:1055500064E670E080E090E00E94505C60EB74E0F4
:105560008DE99EE00E94F24460E273E084E29EE0F6
:105570000E94F24460E273E08BEA9DE00E94F244F4
:1055800060E273E082E39DE00E94F2440E94AB4C33
:105590008091AA0C9091AB0CA091AC0CB091AD0C89
:1055A00089839A83AB83BC838091AE0C9091AF0CBE
:1055B000A091B00CB091B10C8D839E83AF83B8875E
:1055C0008091B20C9091B30CA091B40CB091B50C39
:1055D00089879A87AB87BC870E94D14E0E9407516A
:1055E00080E00E94370F81E00E94370F82E00E9426
:1055F000370F0E9472504CE050E06AEA7CE0CE0126
:1056000001960E94777E892B11F00E947E15E2E4BC
:10561000F4E184918F010F5F1F4F882321F00E94D6
:105620008E11F801F6CFEFE6FFE084918F010F5F56
:105630001F4F882321F00E948E11F801F6CF2C967F
:105640000FB6F894DEBF0FBECDBFDF91CF911F9193
:105650000F91FF90EF90DF90CF900895CF93DF935D
:10566000E6E6F5E08491EF012196882321F00E947F
:105670008E11FE01F7CF8AE0DF91CF910C948E114D
:105680002F923F924F925F926F927F928F929F9252
:10569000AF92BF92CF92DF92EF92FF920F931F9340
:1056A000CF93DF93CDB7DEB7CB56D1090FB6F894C1
:1056B000DEBF0FBECDBFE091860CF091870CEF2BC3
:1056C00009F0DEC7DEAECDAEE9AE79016A015B015D
:1056D000FC012091760C3091770C4091780C509120
:1056E000790C60817181828193810E94CC770E94C4
:1056F000AC7DA3966CAF7DAF8EAF9FAFA39720918B
:105700007A0C30917B0C40917C0C50917D0CD50132
:105710006D917D918D919C910E94CC770E94AC7D82
:10572000A7966CAF7DAF8EAF9FAFA79720917E0CF1
:1057300030917F0C4091800C5091810CF60160817A
:105740007181828193810E94CC770E94AC7DAB965F
:105750006CAF7DAF8EAF9FAFAB972091820C309135
:10576000830C4091840C5091850CD7016D917D91F3
:105770008D919C910E94CC770E94AC7D2B966CAF52
:105780007DAF8EAF9FAF2B978091750C83FF0EC0BE
:105790002B964CAC5DAC6EAC7FAC2B9740923B0F24
:1057A00050923C0F60923D0F70923E0FD8013C909A
:1057B00011964C9011974DA612965C90129759AA8B
:1057C00013962C908091190F90911A0F891B8F704E
:1057D0008F3019F40E94293DF5CF6090190FAC96D7
:1057E0006FAEAC978091190F082F10E018A70FA388
:1057F00080912F0F9091300FA091310FB091320F07
:10580000A3968CAC9DACAEACBFACA397881A990A9A
:10581000AA0ABB0A8091330F9091340FA091350FE3
:10582000B091360FA7964CAC5DAC6EAC7FACA79731
:10583000481A590A6A0A7B0A4BA25CA26DA27EA290
:105840008091370F9091380FA091390FB0913A0F96
:10585000AB964CAC5DAC6EAC7FACAB97481A590ABA
:105860006A0A7B0A49A65AA66BA67CA680913B0FC2
:1058700090913C0FA0913D0FB0913E0F2B964CACF8
:105880005DAC6EAC7FAC2B97481A590A6A0A7B0A4A
:1058900009F49DC08091600681113BC06091610652
:1058A0007091620680916306909164060E94BF7CAD
:1058B00020912202309123026217730754F52B9630
:1058C0004CAC5DAC6EAC7FAC2B9740923B0F5092D2
:1058D0003C0F60923D0F70923E0FE2E4F4E1849140
:1058E0008F010F5F1F4F811103C0E7E2F4E104C095
:1058F0000E948E11F801F3CF84918F010F5F1F4F2B
:10590000882321F00E948E11F801F6CF412C512CF2
:10591000320139AD24E0329F80011124025E1D4F17
:10592000C301B2010E946D77D8012D913D914D9137
:105930005C910E94CC776B017C0120E030E0A901F2
:105940000E94A17D87FF04C0F7FAF094F7F8F09465
:105950006091820C7091830C8091840C9091850CE5
:105960000E94BF7C9B01AC01A8ECB0E00E94617B6F
:105970000E946D77A70196010E94677787FF2AC072
:105980002B964CAC5DAC6EAC7FAC2B9740923B0F32
:1059900050923C0F60923D0F70923E0FE2E4F4E1B2
:1059A00084918F010F5F1F4F811103C0E8E0F4E184
:1059B00004C00E948E11F801F3CF84918F010F5F14
:1059C0001F4F882321F00E948E11F801F6CF412C41
:1059D000512C3201D501C4018827B7FD8395992741
:1059E000AA27BB27182F2BA13CA14DA15EA157FDD3
:1059F000126089A59AA5ABA5BCA5B7FD146077FC7C
:105A0000186009ADA4E00A9FC00111249C01225E28
:105A10003D4F7901C301B2010E946D77D7012D91ED
:105A20003D914D915C910E94CC776B017C0120E00F
:105A300030E0A9010E94A17D87FF04C0C701B60123
:105A4000905802C0C701B60120E030E040E05FE3BB
:105A50000E947B7B0E94C47C6DAB7EAB8FAB98AF0A
:105A600081E64FA058A4849DF001859DF00D11247E
:105A7000EB59F94F1082EA5BFF4F1083B501A40187
:105A8000B7FE07C044275527BA01481959096A09C2
:105A90007B0981E66FA078A4869DF001879DF00DBB
:105AA0001124EB59F94F458B568B678B708F8BA167
:105AB0009CA1ADA1BEA1B7FF07C0B095A0959095E0
:105AC00081959F4FAF4FBF4F21E60FA118A5209F93
:105AD000F001219FF00D1124EB59F94F818F928F26
