:100000000C94B70E0C94E80E0C94E80E0C94E80EC9
:100010000C94E80E0C94E80E0C94E80E0C94E80E88
:100020000C94E80E0C94FA6B0C94D26B0C94AA6BA3
:100030000C94E80E0C94E80E0C94E80E0C94E80E68
:100040000C94E80E0C94C73F0C94E80E0C94E80E48
:100050000C94E80E0C94E80E0C9481580C94AE6548
:100060000C94E80E0C94C8340C94E80E0C94E80E32
:100070000C94E80E0C94E80E0C94E80E0C94E80E28
:100080000C94E80E0C94E80E0C94E80E0C94E80E18
:100090000C94E80E0C94E80E0C94E80E0C94E80E08
:1000A0000C94E80E0C94E80E0C94E80E0C94E80EF8
:1000B0000C94E80E0C94E80E0C94E80E0C94E80EE8
:1000C0000C94E80E0C94E80E0C94E80E0C94E80ED8
:1000D0000C94E80E0C94E80E0C94E80E0C94E80EC8
:1000E0000C94E80E2B642E641D64216427646564FF
:1000F000326436643C64406444644A644E645264CE
:10010000656458645C646064CA64CF64D464DE640B
:10011000E8646165F264FA6402650C651665206541
:100120002F653965616543654D655765084AD73B5D
:100130003BCE016E84BCBFFDC12F3D6C74319ABDB6
:1001400056833DDA3D00C77F11BED9E4BB4C3E91DA
:100150006BAAAABE000000803F05A84CCDB2D44EC9
:10016000B93836A9020C50B9918688083CA6AAAACB
:100170002ABE000000803F004E414E494E4954596E
:10018000494E46CDCCCC3D0AD7233C17B7D1387762
:10019000CC2B329595E6241FB14F0A000020410078
:1001A00000C84200401C4620BCBE4CCA1B0E5AAEC2
:1001B000C59D74434F4D4D554E49434154494F4E93
:1001C0000044525952554E004552524F5253004925
:1001D0004E464F004543484F0020746F6F206C6FB0
:1001E0006E6720657874727573696F6E20707265C2
:1001F00076656E7465640A0020636F6C64206578B0
:1002000074727573696F6E2070726576656E746551
:10021000640A0047322F47332062616420706172A4
:10022000616D65746572730A00D401CF01C801C1A4
:1002300001B3016F66660044454255473A004B4999
:100240004C4C45442E20004D3131332053006F6B10
:100250000020573A002C20002C2000544845524DD5
:10026000414C5F50524F54454354494F4E00415505
:10027000544F5245504F52545F53445F535441546E
:10028000555300454D455247454E43595F504152E5
:1002900053455200434153455F4C494748545F42E0
:1002A00052494748544E45535300544F47474C45D5
:1002B0005F4C494748545300534F465457415245A9
:1002C0005F504F574552004255494C445F5045528C
:1002D00043454E54004C4556454C494E475F4441BA
:1002E0005441005A5F50524F4245004155544F4CC3
:1002F0004556454C005052494E545F4A4F420050BB
:10030000524F4752455353004155544F5245504F59
:1003100052545F54454D5000564F4C554D45545224
:10032000494300454550524F4D0053455249414CB9
:100330005F584F4E5F584F4646004649524D574111
:1003400052455F4E414D453A4D61726C696E206277
:1003500075676669782D312E312E782028476974AB
:100360006875622920534F555243455F434F4445BA
:100370005F55524C3A68747470733A2F2F676974E2
:100380006875622E636F6D2F4D61726C696E466980
:10039000726D776172652F4D61726C696E2050527B
:1003A0004F544F434F4C5F56455253494F4E3A318D
:1003B0002E30204D414348494E455F545950453AEF
:1003C0003344205072696E746572204558545255FA
:1003D0004445525F434F554E543A31205555494498
:1003E0003A63656465326132662D343161322D3491
:1003F0003734382D396231322D6335356336326604
:1004000033363766660A002F2F2000205400205212
:1004100000416363656C65726174696F6E3A205068
:10042000002066697273740A005A00590058004827
:100430006F6D652000546F6F206661722066726F69
:100440006D207265666572656E636520706F696E9A
:10045000740A00205A00205900580020204D61786D
:100460003A2000205A00205900580020204D696E83
:100470003A20004F6E20004F666600536F6674206E
:10048000656E6473746F70733A200020466C6F77EA
:100490003A2000000125311D40FFFFFF2924301CB8
:1004A00045FFFFFF27232F1B0AFFFFFFFF43FFFF2F
:1004B000040806FFFF222B1AFFFF42043803FF3611
:1004C00020643A0020693A0020703A00496E766153
:1004D0006C69642065787472756465720A004329DA
:1004E0000A0061626C656420286D696E2074656D18
:1004F000702000436F6C6420657874727564657356
:100500002061726520004B64200023646566696E7B
:10051000652044454641554C545F004B69200023FB
:10052000646566696E652044454641554C545F00DC
:100530004B70200023646566696E65204445464122
:10054000554C545F00504944204175746F74756E6A
:10055000652066696E697368656421205075742032
:10056000746865206C617374204B702C204B69207B
:10057000616E64204B6420636F6E7374616E74737C
:100580002066726F6D2062656C6F7720696E746F84
:1005900020436F6E66696775726174696F6E2E684D
:1005A0000A00504944204175746F74756E65206669
:1005B00061696C6564212074696D656F75740A00EA
:1005C000453120544845524D414C2052554E4157DB
:1005D000415900546865726D616C2052756E617787
:1005E00061790045312048656174696E67206661F4
:1005F000696C65640048656174696E67206661694D
:100600006C656400504944204175746F74756E6563
:10061000206661696C6564212054656D7065726146
:100620007475726520746F6F20686967680A0020AE
:100630004B643A2000204B693A2000204B703A204E
:10064000000A20436C617373696320504944200A97
:10065000002054753A2000204B753A2000206D612F
:10066000783A2000206D696E3A200020643A20001C
:1006700020626961733A2000504944204175746FCB
:1006800074756E65206661696C6564212054656DC2
:10069000706572617475726520746F6F2068696728
:1006A000680A00504944204175746F74756E652066
:1006B00073746172740A00504944204175746F74F8
:1006C000756E65206661696C6564212042616420F5
:1006D0006578747275646572206E756D6265720AF4
:1006E0000020643A0020693A0020703A004E6F20E2
:1006F00063617365206C696768740A0045455052F0
:100700004F4D2064697361626C65640A00416374D3
:100710006976652045787472756465723A2000497F
:100720006E76616C69642065787472756465720AAE
:1007300000656E7175657565696E672022004C698C
:100740006E65204E756D626572206973206E6F74E0
:10075000204C617374204C696E65204E756D626526
:10076000722B312C204C617374204C696E653A20D9
:10077000004B494C4C45442E20005072696E746504
:10078000722073746F707065642064756520746F77
:10079000206572726F72732E2046697820746865C6
:1007A000206572726F7220616E6420757365204DD2
:1007B00039393920746F20726573746172742E2018
:1007C0002854656D70657261747572652069732057
:1007D00072657365742E2053657420697420616698
:1007E0007465722072657374617274696E67290A28
:1007F000004E6F20436865636B73756D2077697475
:1008000068206C696E65206E756D6265722C204C77
:10081000617374204C696E653A2000636865636B90
:1008200073756D206D69736D617463682C204C6104
:100830007374204C696E653A20004D3131300020D0
:10084000496E76616C69642065787472756465724E
:100850002000000000000000000000000000000078
:10086000A0420000484300004843486F6D696E672E
:10087000206661696C6564002569730025696D20D7
:10088000256973002569682025696D202569730035
:10089000256964202569682025696D202569730014
:1008A00025697920256964202569682025696D20DE
:1008B000256973005072696E742074696D653A2001
:1008C0000050726F7465637465642050696E0A002D
:1008D00020573A00205A3A0020593A0020436F75B9
:1008E0006E7420583A0020453A00205A3A002059A8
:1008F0003A00583A003A004361703A0000000A0B8F
:1009000002090C0D0E08070304010000000000009E
:1009100000000000000000000000000000000000D7
:100920000000000000000000121110000000000094
:1009300000000000000000000000000000000000B7
:1009400000000000000000000000000000000000A7
:1009500000004B494C4C45442E2000202D20496E70
:1009600076616C6964206578747275646572206E56
:10097000756D62657220210A002020506C616E6ED8
:10098000657242756666657242797465733A2000D5
:100990002046726565204D656D6F72793A2000437F
:1009A0006F6D70696C65643A204D6172203136203C
:1009B000323031390A00207C20417574686F723AF8
:1009C00020323031392D30332D31313B20566F6C90
:1009D000756D6574726963204C756D656E207769FD
:1009E00074682045696E737920616E6420494755AB
:1009F0005320616E64204241524943554441206670
:100A000069726D77617265204F4E0A00323031385D
:100A10002D30372D333100204C61737420557064B4
:100A2000617465643A20006275676669782D312EBD
:100A3000312E780A004D61726C696E0020536F662A
:100A400074776172652052657365740A002057617E
:100A5000746368646F672052657365740A0020428E
:100A6000726F776E206F75742052657365740A001B
:100A70002045787465726E616C2052657365740AE6
:100A800000506F77657255700A0073746172740A52
:100A900000205A3A0020593A0020583A00656E6406
:100AA00073746F7073206869743A200024F4D43032
:100AB00050C38E20C2A24017828B7011127A910D02
:100AC000816CD90AA861E108C758660761514306DD
:100AD0001E4B5D05C145A7041A411104093D980349
:100AE000713931034036DB0265339102D430540250
:100AF000802E1D02632CEE01752AC501B028A001CD
:100B0000102781018F2564012B244B01E022340141
:100B1000AC211F018D200D01801FFC00841EED0003
:100B2000971DDF00B81CD200E61BC600201BBC00CE
:100B3000641AB200B219A8000A19A0006A18990034
:100B4000D117910040178B00B516840031167E0036
:100B5000B31579003A157300C7146F0058146A0072
:100B6000EE1366008813630025135E00C7125B0056
:100B70006C12570015125400C111510070114F0032
:100B800021114B00D61049008D104700461044003B
:100B900002104200C00F4000800F3E00420F3C0098
:100BA000060F3B00CB0E3800930E37005C0E35006D
:100BB000270E3400F30D3200C10D3100900D3000CE
:100BC000600D2E00320D2D00050D2C00D90C2B00D0
:100BD000AE0C2900850C29005C0C2700350C270081
:100BE0000E0C2600E80B2400C40B2400A00B2300ED
:100BF0007D0B23005A0B2100390B2100180B20001C
:100C0000F80A1F00D90A1E00BB0A1E009D0A1D001B
:100C1000800A1D00630A1C00470A1B002C0A1B00E7
:100C2000110A1A00F7091A00DD091900C409190090
:100C3000AB091900920917007B0918006309170016
:100C40004C09160036091600200916000A0915007D
:100C5000F5081500E0081400CC081400B8081400CA
:100C6000A4081400900813007D0812006B081300FC
:100C70005808120046081200340811002308110019
:100C80001208110001081100F0071000E007100021
:100C9000D0071000C0071000B0070F00A107100018
:100CA00091070E0083070F0074070F0065070E0001
:100CB00057070E0049070E003B070D002E070E00D8
:100CC00020070D0013070D0006070D00F9060C00A4
:100CD000ED060D00E0060C00D4060C00C8060C0062
:100CE000BC060C00B0060C00A4060B0099060C0014
:100CF0008D060B0082060B0077060B006C060B00BE
:100D000061060A0057060B004C060A0042060A005C
:100D100038060A002E060A0024060A001A060A00EF
:100D20001006090007060A00FD050900F405090080
:100D3000EB050900E2050900D9050900D005090005
:100D4000C7050900BE050900B5050800AD05080086
:100D5000A50509009C050800940508008C050800FD
:100D6000840508007C050800740508006C05070070
:100D7000650508005D050700560508004E050700DB
:100D80004705070040050800380507003105070042
:100D90002A050700230507001C05060016050700A5
:100DA0000F0507000805060002050700FB04060002
:100DB000F5040700EE040600E8040600E20407005C
:100DC000DB040600D5040600CF040600C9040600B3
:100DD000C3040600BD040600B7040600B104050004
:100DE000AC040600A6040600A00405009B0406004F
:100DF00095040500900406008A040500850405009A
:100E0000800406007A0405007504050070040500DE
:100E10006B04050066040500610405005C04050020
:100E200057040500520405004D0405004804050060
:100E3000430405003E0404003A040500350405009F
:100E4000300404002C0405002704040023040500DA
:100E50001E0404001A040400160405001104040012
:100E60000D04040009040500040404000004040047
:100E7000FC030400F8030400F4030400F00304007E
:100E8000EC030400E8030400E4030400E0030400AE
:100E9000DC030400D8030400D4030400D0030400DE
:100EA000CC030400C8030300C503030024F404D9E1
:100EB000201BC40C5C0E9804C4095F026507710115
:100EC000F405F900FB04B30048048700C10369007E
:100ED0005803550003034500BE023A008402310066
:100EE00053022A002902250004022000E4011C000C
:100EF000C8011900AF011700980114008401130004
:100F0000710110006101100051010E0043010D003C
:100F100036010B002B010B0020010B00150109000D
:100F20000C01090003010800FB000800F3000800A1
:100F3000EB000700E4000600DE000600D800060013
:100F4000D2000600CC000500C7000500C200050065
:100F5000BD000400B9000400B5000400B1000400A5
:100F6000AD000400A9000400A5000300A2000300D6
:100F70009F0004009B0003009800030095000200FE
:100F800093000300900003008D0002008B0003001B
:100F90008800020086000200840003008100020035
:100FA0007F0002007D0002007B0002007900020049
:100FB0007700010076000200740002007200010058
:100FC000710002006F0002006D0001006C00020061
:100FD0006A0001006900020067000100660001006C
:100FE0006500010064000200620001006100010070
:100FF000600001005F0002005D0001005C00010074
:101000005B0001005A000100590001005800010076
:101010005700010056000100550001005400010076
:101020005300000053000100520001005100010074
:10103000500001004F0001004E0000004E00010072
:101040004D0001004C0001004B0000004B0001006E
:101050004A0001004900010048000000480001006A
:101060004700010046000000460001004500000066
:10107000450001004400010043000000430001005E
:101080004200000042000100410000004100010058
:10109000400001003F0000003F0001003E00000052
:1010A0003E0001003D0000003D0001003C0000004A
:1010B0003C0000003C0001003B0000003B00010040
:1010C0003A0000003A000100390000003900010038
:1010D0003800000038000000380001003700000030
:1010E0003700010036000000360000003600010025
:1010F000350000003500000035000100340000001C
:101100003400000034000100330000003300000010
:101110003300010032000000320000003200010004
:1011200031000000310000003100010030000000FB
:1011300030000000300001002F0000002F000000F0
:101140002F0000002F0001002E0000002E000000E4
:101150002E0001002D0000002D0000002D000000D9
:101160002D0001002C0000002C0000002C000000CD
:101170002C0001002B0000002B0000002B000000C1
:101180002B0001002A0000002A0000002A000000B5
:101190002A000100290000002900000029000000A9
:1011A000290000002900010028000000280000009C
:1011B000280000002800000028000100270000008F
:1011C0002700000027000000270000002700010082
:1011D0002600000026000000260000002600000077
:1011E0002600010025000000250000002500000069
:1011F000250000002500000025000100240000005B
:10120000240000002400000024000000240001004D
:101210002300000023000000230000002300000042
:101220002300000023000000230001002200000032
:101230002200000022000000220000002200000026
:101240002200010021000000210000002100000018
:101250002100000021000000210000002100010009
:1012600020000000200000002000000020000000FE
:1012700020000000200000002000000020000100ED
:101280001F0000001F0000001F0000001F000000E2
:101290001F0000001F0000001F0001001E000000D2
:1012A0001E0000001E0000001E000000393000007B
:1012B0003325000087190000B00F0000DB08000094
:1012C000BD040000740200003F0100005452494771
:1012D0004745524544006F70656E003A20007A5FC2
:1012E0006D696E00795F6D696E00785F6D696E0083
:1012F0005265706F7274696E6720656E6473746F87
:1013000070207374617475730A00FFFDFCFAF8F6BF
:10131000F4F2F0EEECEAE9E7E5E3E1E0DEDCDAD96D
:10132000D7D5D4D2D0CFCDCBCAC8C7C5C3C2C0BF12
:10133000BDBCBAB9B7B6B4B3B2B0AFADACAAA9A888
:10134000A6A5A4A2A1A09E9D9C9A999897959493D6
:1013500092908F8E8D8B8A89888786848382818004
:101360007F7E7D7B7A797877767574737271706F12
:101370006E6D6C6B6A696867666564636261605F05
:101380005E5D5C5B5A5958585756555453525150EC
:10139000504F4E4D4C4B4A4A4948474646454443B8
:1013A000424241403F3E3E3D3C3B3B3A3938383774
:1013B000363535343332323130302F2E2E2D2C2B22
:1013C0002B2A2929282727262525242323222121C2
:1013D00020201F1E1E1D1C1C1B1B1A191918181754
:1013E0001616151514131312121111100F0F0E0EDD
:1013F0000D0D0C0C0B0A0A0909080807070606055B
:1014000005040403030202010000000000010000C3
:1014100000010000800055555500000040003333A6
:101420003300AAAA2A004992240000002000C771B4
:101430001C0099991900D1451700555515003BB16D
:1014400013002449120011111100000010000F0FA9
:101450000F00E3380E0043790D00CCCC0C00C330F4
:101460000C00E8A20B0064210B00AAAA0A00703D40
:101470000A009DD80900427B090092240900DCD3B0
:101480000800888808001042080000000800F0C129
:1014900007008787070075500700711C07003EEBA7
:1014A0000600A1BC06006990060066660600703E54
:1014B00006006118060017F4050074D105005BB042
:1014C0000500B29005006272050055550500783997
:1014D0000500B81E0500050505004EEC040087D484
:1014E0000400A1BD040090A7040049920400C17D3E
:1014F0000400EE690400C7560400444404005C3252
:1015000004000821040041100400000004003FF022
:101510000300F8E0030026D20300C3C30300CCB5E8
:1015200003003AA803000A9B0300388E0300C08121
:1015300003009F750300D0690300505E03001D5334
:10154000030034480300913D0300333303001629A0
:101550000300381F030097150300300C030003033A
:1015600003000BFA020049F10200BAE802005CE055
:1015700002002DD802002DD0020059C80200B0C0D0
:10158000020031B90200DAB10200AAAA0200A0A347
:101590000200BC9C0200FA9502005C8F0200DF880A
:1015A000020082820200457C02002776020027703A
:1015B0000200436A02007C640200D05E02003F59D0
:1015C0000200C853020020746F6F206C6F6E67209A
:1015D000657874727573696F6E2070726576656E6A
:1015E0007465640A0020636F6C642065787472759A
:1015F00073696F6E2070726576656E7465640A003B
:101600006563686F3A004534004533004532004554
:1016100031004530005A32005932005832005A0029
:10162000590058006265640A002C20737973746550
:101630006D2073746F7070656421204865617465F6
:10164000725F49443A200045312048656174696EF3
:1016500067206661696C65640048656174696E67DE
:10166000206661696C65640070012C01900127019E
:10167000B0012201C0011D01F00118011002130187
:1016800030020E016002090190020401C002FF0055
:101690000003FA004003F5008003F000D003EB00E4
:1016A0002004E6007004E100E004DC004005D700FF
:1016B000C005D2004006CD00D006C8008007C30098
:1016C0003008BE00F008B900C009B400B00AAF008D
:1016D000B00BAA00D00CA500000EA000500F9B007C
:1016E000C01096005012910000148C00C0158700A5
:1016F000B0178200B0197D00D01B7800001E730067
:1017000040206E0090226900F024640040275F00B2
:1017100090295A00E02B5500102E500020304B002D
:1017200010324600E033410090353C00103737005E
:1017300070383200A0392D00B03A2800A03B2300B9
:10174000603C1E00103D1900903D1400103E0F003B
:10175000703E0A00C03E0500003F0000403FFBFF16
:10176000803FF6FFC03FF1FF4531204572723A20BD
:101770004D415854454D50004572723A204D4158E4
:1017800054454D5020424544004D415854454D501C
:10179000207472696767657265640045312045721F
:1017A000723A204D494E54454D50004572723A20D0
:1017B0004D494E54454D5020424544004D494E54EC
:1017C000454D502074726967676572656400202F0B
:1017D000002042403A0020403A00221620161E16F1
:1017E0001B161816151612160F160C1609160616C5
:1017F0006F6B00627573793A207061757365642050
:10180000666F7220696E7075740A00627573793A3A
:101810002070617573656420666F722075736572E0
:101820000A00627573793A2070726F636573736929
:101830006E670A004B494C4C45442E20004B494CE6
:101840004C2063617573656420627920746F6F202A
:101850006D75636820696E6163746976652074696B
:101860006D65202D2063757272656E7420636F6DD7
:101870006D616E643A20005072696E746572206802
:10188000616C7465642E206B696C6C28292063611F
:101890006C6C6564210A002064726976657220634D
:1018A000757272656E743A200020686F6D696E679C
:1018B0002073656E73697469766974793A200000E3
:1018C00000000000000000000000000000A0400038
:1018D00000A0400000A040000000005761726E6947
:1018E0006E673A20486F6D696E672042756D702093
:1018F00044697669736F72203C20310A0002020449
:101900000000803F00000000000000400000A042F6
:101910000000484300004843FFFFFF4861726463D2
:101920006F6465642044656661756C7420536574EA
:1019300074696E6773204C6F616465640A003200DD
:101940000000320000003200000032000000000001
:101950002041000020410000204100002041000003
:101960004844000048440000484400004844747261
:1019700075650066616C7365002074656D706572D5
:101980006174757265207072657761726E20747211
:10199000696767657265643A2000207072657761D7
:1019A000726E20666C616720636C65617265640AA3
:1019B0000000002100240027002A002D0030003301
:1019C0000001010000040107010A01556E6B6E6FF2
:1019D000776E20636F6D6D616E643A2022000000A7
:1019E00020002300260029002C002F0032000001D7
:1019F0000000030106010901000022002500280063
:101A00002B002E0031003400020100000501080106
:101A10000B01050505050705080808080202020272
:101A20000A0A08080404040401010101010101017A
:101A30000303030303030303040707070C0C0C0C45
:101A40000C0C0C0C0202020206060606060606062E
:101A50000B0B0B0B0B0B0B0B07070A0A0A0A0A0AE4
:101A600005050504040408080102102020080810D8
:101A700020401020408002010201080402010102FE
:101A800004081020408080402010080402018004D7
:101A90000201804020100804020108040201010232
:101AA0000408102040800102040810204080100823
:101AB0000408801020400440801020400480202032
:101AC0004D3930360020286D6D290020204D3931E8
:101AD0003400205A0020590020580053656E736F5F
:101AE000726C65737320686F6D696E6720746872BD
:101AF0006573686F6C643A0A0020543020450020FA
:101B00005A00205900205800537465707065722087
:101B10006472697665722063757272656E743A0AD2
:101B20000020440020490020204D33303420500054
:101B300020440020490020204D33303120500050F7
:101B400049442073657474696E67733A0A00205AB9
:101B50000020590020204D323036205800486F6D4B
:101B600065206F66667365743A0A00204500205A46
:101B70000020590020580020540020530020204D00
:101B800032303520510020453C6D61785F655F6AD9
:101B900065726B3E0020583C6D61785F785F6A65C6
:101BA000726B3E20593C6D61785F795F6A65726B3C
:101BB0003E205A3C6D61785F7A5F6A65726B3E00C9
:101BC000416476616E6365643A20513C6D696E5F75
:101BD0007365676D656E745F74696D655F75733E7F
:101BE00020533C6D696E5F66656564726174653E25
:101BF00020543C6D696E5F74726176656C5F6665DA
:101C00006564726174653E002054002052002020FB
:101C10004D323034205000416363656C65726174ED
:101C2000696F6E2028756E6974732F7332293A209C
:101C3000503C7072696E745F616363656C3E2052E4
:101C40003C726574726163745F616363656C3E20AE
:101C5000543C74726176656C5F616363656C3E0AC7
:101C600000204500205A0020590020204D323031FC
:101C70002058004D6178696D756D20416363656C16
:101C800065726174696F6E2028756E6974732F7345
:101C900032293A0A00204500205A0020590020200D
:101CA0004D3230332058004D6178696D756D206676
:101CB00065656472617465732028756E6974732F2D
:101CC00073293A0A00204500205A0020590020209C
:101CD0004D3932205800537465707320706572203E
:101CE000756E69743A0A0020204D3230302044303D
:101CF0000A0020204D3230302044002044697361B6
:101D0000626C65640A0046696C616D656E7420736F
:101D1000657474696E67733A002020473231202061
:101D200020203B004572726F723A004531205448C2
:101D300045524D414C2052554E4157415900424564
:101D40004420544845524D414C2052554E41574134
:101D50005900546865726D616C2052756E617761CF
:101D60007900526573656E643A200000E1761124B3
:101D70001FBECFEFD1E2DEBFCDBF00E00CBF12E04F
:101D8000A0E0B2E0E4E4F5E001E00BBF02C00790A0
:101D90000D92AE35B107D9F72FE0AEE5B2E001C044
:101DA0001D92AE35B207E1F71EE0C7EBDEE000E0C2
:101DB00006C021970109802FFE010E946582C63B63
:101DC000D10780E00807A9F70E948D710C94A082CA
:101DD0000C9400002F923F924F925F926F927F92ED
:101DE0008F929F92AF92BF92CF92DF92EF92FF922B
:101DF0000F931F93CF93DF93CDB7DEB7CD57D109A4
:101E00000FB6F894DEBF0FBECDBF21E020936F0C5C
:101E1000809146038D3409F4A2C7843511F40C94E3
:101E20005828873411F00C949528809144039091A0
:101E300045038430910509F439C544F497FD8BC7F7
:101E400020912B028230910524F51EC08A35910520
:101E500009F4C3C624F44C9709F45DC57CC78B35DF
:101E6000910509F4BEC68C35910509F074C750E49C
:101E7000252E52E0352E6DE7C62E6CE0D62EE12CD5
:101E8000F12C00E010E0EAC621110C949C280C947F
:101E90009728222311F40C94972811E0029709F057
:101EA00010E00E941E2E82E50E94122E882309F463
:101EB0002AC10E94982D6B017C0140901003509024
:101EC000110360901203709013038091140390919A
:101ED0001503A0911603B09117038D8F9E8FAF8FBE
:101EE000B8A320918A0C30918B0C40918C0C5091AE
:101EF0008D0C29A33AA34BA35CA380918E0C9091E7
:101F00008F0CA091900CB091910C8DA39EA3AFA3C8
:101F1000B8A720E030E0A901C701B6010E94707B9C
:101F2000882309F4A9C4A301920169A17AA18BA114
:101F30009CA10E94707B81110DC02D8D3E8D4F8D17
:101F400058A16DA17EA18FA198A50E94707B8823C6
:101F500009F492C420E030E0A901C701B6010E9453
:101F6000707B881F8827881F181309C020E030E085
:101F700040E85FE32DAB3EAB4FAB58AF08C080E00D
:101F800090E0A0E8BFEB8DAB9EABAFABB8AFA301C9
:101F9000920169A17AA18BA19CA10E94707F6DA77B
:101FA0007EA78FA798AB2D8D3E8D4F8D58A16DA12B
:101FB0007EA18FA198A50E94707F69AB7AAB8BAB95
:101FC0009CAB2DA53EA54FA558A9CA01B9010E94F9
:101FD000D57B4B015C0129A93AA94BA95CA9CA018F
:101FE000B9010E94D57B9B01AC01C501B4010E94DF
:101FF000717F0E94DC8169A77AA78BA79CA720E04C
:1020000030E040E05FE30E94D57B4B015C01A7011B
:102010009601C701B6010E94D57B6B017C01A50129
:102020009401C501B4010E94D57B9B01AC01C7019D
:10203000B6010E94707F0E94DC819B01AC016DA9FA
:102040007EA98FA998AD0E94D57B4B015C0129A187
:102050003AA14BA15CA1C301B2010E94717F20E0B3
:1020600030E040E05FE30E94D57B6B017C0169A911
:102070007AA98BA99CA9905829A53AA54BA55CA53E
:102080000E944D809B01AC01C501B4010E94D57B2B
:102090009B01AC01C701B6010E94717FA3019201AF
:1020A0000E94707F6B017C012DA13EA14FA158A51C
:1020B0006D8D7E8D8F8D98A10E94717F20E030E024
:1020C00040E05FE30E94D57B2B013C0129A53AA5A6
:1020D0004BA55CA56DA57EA58FA598A90E944D80F6
:1020E0009B01AC01C501B4010E94D57B9B01AC01F1
:1020F000C301B2010E94717F2D8D3E8D4F8D58A17D
:102100000E94707F14C089E40E94122E882329F057
:102110000E94982D6B017C0103C0C12CD12C76014B
:102120008AE40E94122E8823D9F00E94982D6DA374
:102130007EA38FA398A720E030E0A901C701B601D4
:102140000E94707B81111AC020E030E0A9016DA1CE
:102150007EA18FA198A50E94707B81110FC08CC3B6
:1021600020E030E0A901C701B6010E94707B8823FE
:1021700009F482C31DA21EA21FA218A6A7019601E0
:1021800050582D8F3E8F4F8F58A38DA19EA1AFA188
:10219000B8A5B05889A39AA3ABA3BCA3CA01B9013F
:1021A0000E94D57B4B015C0129A13AA14BA15CA106
:1021B000CA01B9010E94D57B9B01AC01C501B401E4
:1021C0000E94717F0E94DC8125966CAF7DAF8EAF3F
:1021D0009FAF259720911003309111034091120376
:1021E0005091130329A73AA74BA75CA7A701960113
:1021F00069A57AA58BA59CA50E94717F6DAB7EAB6E
:102200008FAB98AF8091140390911503A0911603A2
:10221000B09117038DA79EA7AFA7B8AB2DA13EA184
:102220004FA158A5BC01CD010E94717F29966CAFCA
:102230007DAF8EAF9FAF299720918A0C30918B0C88
:1022400040918C0C50918D0C29AB3AAB4BAB5CABF5
:102250002DA93EA94FA958AD69A97AA98BA99CA916
:102260000E94707F6B017C0180918E0C90918F0C8D
:10227000A091900CB091910C89AF9AAFABAFBCAF6D
:1022800029962CAD3DAD4EAD5FAD2997BC01CD017A
:102290000E94707F4B015C0120911803309119035B
:1022A00040911A0350911B0321962CAF3DAF4EAFC6
:1022B0005FAF21976091920C7091930C8091940C78
:1022C0009091950C0E94707F2B013C018091960C9F
:1022D0009091970CA091980CB091990C61968CAF4D
:1022E0009DAFAEAFBFAF619720911C0330911D032E
:1022F00040911E0350911F032D962CAF3DAF4EAF62
:102300005FAF2D97A70196016D8D7E8D8F8D98A162
:102310000E94D57B65966CAF7DAF8EAF9FAF659702
:10232000A501940169A17AA18BA19CA10E94D57BF2
:102330009B01AC0165966CAD7DAD8EAD9FAD659793
:102340000E94717F65966CAF7DAF8EAF9FAF659732
:10235000A50194016D8D7E8D8F8D98A10E94D57BF6
:102360004B015C01A701960169A17AA18BA19CA1F7
:102370000E94D57B9B01AC01C501B4010E94707F16
:1023800065962CAD3DAD4EAD5FAD65970E94E47F87
:102390006B017C0120E030E0A9010E94707B87FF87
:1023A0000AC02BED3FE049EC50E4C701B6010E94A2
:1023B000717F6B017C01112351F02BED3FE049EC63
:1023C00050E4C701B6010E94707F6B017C0120E0E0
:1023D00030E0A901C701B6010E94707B811120C0C5
:1023E00029A93AA94BA95CA969A57AA58BA59CA5A1
:1023F0000E94707B811114C029AD3AAD4BAD5CAD2C
:102400006DA57EA58FA598A90E94707B811108C03B
:10241000FBEDCF2EFFE0DF2EF9ECEF2EF0E4FF2EE8
:10242000A701960125966CAD7DAD8EAD9FAD25972C
:102430000E94D57B4B015C0120E030E0A901C30183
:10244000B2010E94707B8823C9F0A5019401C501E7
:10245000B4010E94D57B4B015C01A3019201C30131
:10246000B2010E94D57B9B01AC01C501B4010E9461
:10247000717F0E94DC814B015C010DC020E030E0E7
:10248000A901C501B4010E94978187FF04C0B7FA72
:10249000B094B7F8B0942FE632E143E85AE3C501AF
:1024A000B4010E94707B87FF02C00C949728C5017D
:1024B000B4010E94E6800E94BA801B01672B19F4C8
:1024C00022242394312CB10180E090E00E94747B9F
:1024D0004B015C019B01AC01C701B6010E944D801C
:1024E00069A77AA78BA79CA7A5019401C301B20194
:1024F0000E944D8025966CAF7DAF8EAF9FAF259724
:102500002D962CAD3DAD4EAD5FAD2D9761966CAD6A
:102510007DAD8EAD9FAD61970E94707FA501940146
:102520000E944D8061966CAF7DAF8EAF9FAF61977B
:1025300029A53AA54BA55CA5CA01B9010E94D57B86
:1025400020E030E040E05FE30E94D57B9B01AC01DE
:1025500060E070E080E89FE30E94707F69AF7AAF2F
:102560008BAF9CAF21968CAD9DADAEADBFAD21972D
:1025700089879A87AB87BC872D962CAD3DAD4EAD34
:102580005FAD2D972D873E874F87588B6091050251
:1025900070910602072E000C880B990B0E94767B27
:1025A00020910002309101024091020250910302F9
:1025B0000E94D57B2AE037ED43E25CE30E94D57BA5
:1025C000698F7A8F8B8F9C8F0E94A2659B01AC01D3
:1025D00028533F4F4F4F5F4F21962CAF3DAF4EAF2B
:1025E0005FAF21974D8C5E8C6F8C78A041E050E0FE
:1025F0005AAB49AB59E15DA729A93AA92215330580
:1026000009F413C10E94115C0E94A265DC01CB0198
:1026100021962CAD3DAD4EAD5FAD2197821B930B46
:10262000A40BB50BB7FD10C00E94A2659B01AC01C5
:1026300028533F4F4F4F5F4F21962CAF3DAF4EAFCA
:102640005FAF21970E94CE603DA531503DA7332357
:10265000E9F129AD3AAD4BAD5CAD69A17AA18BA191
:102660009CA10E94D57B6B017C0129A53AA54BA5B5
:102670005CA5B201C3010E94D57BA70196010E940F
:10268000717F7B018C0129AD3AAD4BAD5CADB201E0
:10269000C3010E94D57B4B015C0129A53AA54BA53E
:1026A0005CA569A17AA18BA19CA10E94D57B9B010D
:1026B000AC01C501B4010E94707F2B013C01C70130
:1026C000D80189A39AA3ABA3BCA351C049A95AA915
:1026D000BA0180E090E00E94747B29A53AA54BA541
:1026E0005CA50E94D57B4B015C010E944A806B0176
:1026F0007C01C501B4010E94D2814B015C01A7019C
:1027000096016D8D7E8D8F8D98A10E94D57B2B01BA
:102710003C01A50194016DA17EA18FA198A50E9405
:10272000D57B9B01AC01C301B2010E94717F2B01DB
:102730003C01A50194016D8D7E8D8F8D98A10E9425
:10274000D57B4B015C01A70196016DA17EA18FA1F4
:1027500098A50E94D57B9B01AC01C501B4010E94E4
:10276000707F69A37AA38BA39CA359E15DA7920113
:10277000A3016DA97EA98FA998AD0E94717F69837D
:102780007A838B839C8329A13AA14BA15CA12996D2
:102790006CAD7DAD8EAD9FAD29970E94717F6D832D
:1027A0007E838F83988725962CAD3DAD4EAD5FAD72
:1027B000259769857A858B859C850E94717F6987BD
:1027C0007A878B879C8761962CAD3DAD4EAD5FAD12
:1027D00061976D857E858F8598890E94717F6D8751
:1027E0007E878F87988B80910402882321F0CE0109
:1027F00001960E94D45EE0906A02198A1A8A1B8AA6
:102800001C8ACE0141966C018E01075E1F4F9E010E
:10281000235F3F4FAE01475F5F4FBE016B5F7F4F4E
:1028200040970E94DB46811121C0E0906A021D8A18
:102830001E8A1F8A188EDE0155966D018E01075E75
:102840001F4F26E93CE042E95CE06EE87CE08AE864
:102850009CE00E94DB4680E1EAE8FCE0A0E1B3E016
:1028600001900D928A95E1F70C949728E9A9FAA9AD
:102870003196FAABE9ABC0CEE4E2FDE184918F0181
:102880000F5F1F4F882321F00E949E2EF801F6CF84
:10289000E3E1F2E084918F010F5F1F4F882311F471
:1028A0000C9497280E949E2EF801F4CF80E50E9498
:1028B000122E882329F00E94582D6B017C0103C041
:1028C000C12CD12C760183E50E94122E882361F061
:1028D0000E94982D20E030E04AE754E40E94D57B26
:1028E0000E94BA806B017C010E9422420E94A26574
:1028F000C60ED71EE81EF91E0E94A265DC01CB01A0
:102900008C199D09AE09BF09B7FD02C00C94972828
:102910000E94CE60F1CF809103038770873071F4FD
:102920008FE40E94122E882319F00E94892D03C083
:102930008FE40E94CB2D81110C9497280E94224293
:102940008091000290910102A0910202B0910302D5
:102950008093720290937302A0937402B0937502F5
:10296000809105029091060290937102809370020B
:1029700084E690E0909306028093050211E01093A4
:1029800002030E944D4688E50E94CB2D282E89E542
:102990000E94CB2D082F8AE50E94CB2D382E2110C6
:1029A00004C0011104C0182705C0011102C010E0C5
:1029B00001C0182F80E1E0E1F3E0AAE8BCE001905B
:1029C0000D928A95E1F782E50E94122E882369F024
:1029D0000E94982D6B017C0120E030E0A9010E944B
:1029E000707B882309F4BFC006C0C12CD12C70EACB
:1029F000E72E70E4F72E111105C0211003C000234B
:102A000009F4C2C0C092920CD092930CE092940C44
:102A1000F092950C8090180390901903A0901A03DF
:102A2000B0901B03A5019401C701B6010E949781D4
:102A300018160CF098C08091140390911503A09182
:102A40001603B09117038D8F9E8FAF8FB8A320917F
:102A5000100330911103409112035091130329A3E5
:102A60003AA34BA35CA38091000290910102A09134
:102A70000202B09103028DA39EA3AFA3B8A7E3ED1A
:102A8000F8E14590559065907490A7019601C501B5
:102A9000B4010E94707B87FF12C0409200025092E6
:102AA00001026092020270920302C0921803D09257
:102AB0001903E0921A03F0921B030E94062C85E58D
:102AC00095E5A5E0B3E48093000290930102A09302
:102AD0000202B093030229A13AA14BA15CA1209369
:102AE00010033093110340931203509313038D8D01
:102AF0009E8DAF8DB8A18093140390931503A0937E
:102B00001603B09317030E94062CA701960160914B
:102B100018037091190380911A0390911B030E946E
:102B20009781181694F4409200025092010260922C
:102B3000020270920302C0921803D0921903E0922D
:102B40001A03F0921B030E94062C0E9422422DA120
:102B50003EA14FA158A5209300023093010240935B
:102B6000020250930302111105C0211003C001118C
:102B700006C00AC080E00E94665F1123C1F381E0B5
:102B80000E94665F111102C0332019F082E00E949A
:102B9000665F0E94722C80910103809302030E9461
:102BA0004D468091720290917302A0917402B0918F
:102BB00075028093000290930102A0930202B093E9
:102BC00003028091700290917102909306028093AB
:102BD00005020E9407320C94972810926F020C9401
:102BE000972820936F020C9497280E94982D2B0110
:102BF0003C01133059F0F701E25AFD4F2081318139
:102C0000428153810E94707F2B013C01F701E05FFC
:102C1000FC4F2081318142815381C301B2010E9466
:102C2000707F4B015C012DEB37E346E855EB0E94CA
:102C3000978187FD1BC02DEB37E346E855E3C501BF
:102C4000B4010E94707B18168CF01F5FB4E0CB0EAD
:102C5000D11CE4E0EE0EF11C143039F1D1018D915C
:102C60001D010E94122E882381F3BFCF133051F42F
:102C700040921C0350921D0360921E0370921F032A
:102C800001E0E3CFA5019401F601608171818281A9
:102C900093810E94717FD6016D937D938D939C9358
:102CA0001397812F0E94322CD0CF002309F44FC0FC
:102CB00020E030E0A90160911C0370911D03809118
:102CC0001E0390911F030E94717F2091C30B3091CE
:102CD000C40B4091C50B5091C60B0E94D57B0E943E
:102CE000A2816093CA0E7093CB0E8093CC0E90930A
:102CF000CD0E9091A80E8091A90E981719F00E9400
:102D0000C44125C00E94224280916F0081FB992717
:102D100090F981FF05C080916F008D7F80936F00D7
:102D20004091CA0E5091CB0E6091CC0E7091CD0E99
:102D30004093E90B5093EA0B6093EB0B7093EC0B11
:102D4000992329F080916F00826080936F000E9428
:102D500007320C9497280E947D6B0C9497288091E1
:102D60004403909145038C38910509F477C40CF025
:102D700091C08936910509F4A4C20CF04BC08D3482
:102D8000910509F4B9C1CCF48F31910509F447C11B
:102D90004CF48131910509F43CC1429709F4D9C43E
:102DA0000C9455288B34910509F48DC10CF08FC11A
:102DB0008A9709F438C10C9455288435910509F493
:102DC000C8C4D4F48235910509F4BAC40CF0BCC46B
:102DD0008135910511F00C9455280E94405A0E94AB
:102DE000354310929E0510929D051092A0051092F9
:102DF0009F0500E010E08DC48C35910509F4F9C4FD
:102E00008836910509F47CC18535910511F00C9443
:102E10005528D4C48137910509F427C2B4F48D36FE
:102E2000910509F490C254F48B36910509F459C404
:102E30000CF430C4109207020C9497288F36910539
:102E400009F49AC10CF485C108C28637910509F4CA
:102E5000F5C56CF48337910509F492C50CF452C59D
:102E60008537910511F40C9497280C9455288837D0
:102E7000910509F434C60CF42EC68937910511F07A
:102E80000C94552810920203109201030E944D46A3
:102E90000C9497288F32F1E09F0711F40C9478225C
:102EA0000CF05BC08D3C910509F41BC73CF5883CD8
:102EB000910509F41DC66CF48B39910509F41CC207
:102EC0008E3B910511F00C9455280E94CB320C9446
:102ED00097288B3C910509F46DC60CF08AC6893C95
:102EE000910511F00C945528ADE1EA2EA5E0FA2EDB
:102EF00000E412E0B4E0DB2ED00E42C68D3D910519
:102F000011F40C94EA20CCF4833D910511F40C9457
:102F100009208C3D910511F40C94DD208E3C910527
:102F200011F00C94552860E4C62E62E0D62E74E0B1
:102F3000E72E73E0F72E10E049C78D3231E093079A
:102F400011F40C94832114F00C942422823E9105F8
:102F500011F40C9458210C945528863F51E09507A4
:102F600011F40C940E2744F58A39B1E09B0709F45B
:102F700078C19CF48336F1E09F0711F40C94D726B6
:102F8000803921E0920711F40C94EE2680339140B1
:102F900011F00C9455280C946126843F41E094076D
:102FA00011F40C94F12614F00C9408278C3A9140FB
:102FB00009F41FC70C9455288F38B3E09B0711F410
:102FC0000C9478279CF48A38F3E09F0711F40C9452
:102FD0001B278B3823E0920711F40C949728873F26
:102FE000914011F40C9411270C945528823943E038
:102FF000940711F40C94F627873E53E0950711F4DB
:103000000C9445288039934011F00C9455280C9469
:103010008D2717981698159814980C9497280E9445
:10302000A82E0C94972883E50E94122E882311F471
:103030000C9497280E94782DE82E80E50E94122E8D
:10304000882339F00E94782D182F87FF03C00C9435
:1030500097281DE089E40E94122E882349F00E94DF
:10306000892D811111C0E3E9F4E08DE28E0F07C0D4
:1030700089E40E94CB2DF5CF31968E1729F09491DB
:103080001913FACF0C94B52961E0812F0E94666470
:103090006E2D812F0E941B35F12CB701812F0E94CC
:1030A000A264163051F0183011F00C949728F09269
:1030B0009E05E0929D050C949728F092A005E09261
:1030C0009F050C9497280E94F2590C9497288091A0
:1030D0000003813011F00C94972882E08093000364
:1030E0000E94A2656093F8027093F9028093FA023D
:1030F0009093FB020C9497280E942B5A0C949728CB
:1031000088E690E00E94723181110C94972880919A
:10311000B60B83FF02C00C94972883E50E94122E01
:10312000882399F00E94982D0E94B580CB010E94BF
:10313000CE760E94982D20E030E04AEA52E40E94C8
:10314000707B181614F00E942B5A0E949E760C94E5
:1031500097288EE40E94122E882311F40C9497284D
:103160000E94682D6093BD0C7093BE0C8093BF0CC1
:103170009093C00C0C94972883E50E94CB2D882354
:1031800059F083E50E94122E882319F00E94782DB1
:1031900001C080E08093B60BE0E0F6E184918F01FE
:1031A0000F5F1F4F882321F00E949E2EF801F6CF5B
:1031B000E7E3F2E084918F010F5F1F4F882321F036
:1031C0000E949E2EF801F6CF8091B60B8823A1F1C4
:1031D00049E2C42E42E0D42EE12CF12C20E0809173
:1031E000B60B90E00E2C02C0959587950A94E2F7F5
:1031F00080FF17C0BB24B394B20E222319F08CE2D7
:103200000E949E2EF60125913491F9018491890145
:103210000F5F1F4F882321F00E949E2E9801F5CF4B
:103220002B2DFFEFEF1AFF0A32E0C30ED11C45E051
:10323000E416F104A1F60CC0E3E3F2E084918F01FF
:103240000F5F1F4F882321F00E949E2EF801F6CFBA
:103250008AE00E949E2E0C9497288EE392E00E94B2
:10326000A0600E947C2C0C94972883E50E94122E6B
:10327000882369F00E94782D8D3320F480932F02EB
:103280000C9497288CE380932F020C949728E0E00D
:10329000F6E184918F010F5F1F4F882321F00E9478
:1032A0009E2EF801F6CF40912F0250E060E070E0D2
:1032B00087E492E00E94DF408AE00E949E2E0C94F8
:1032C000972889E690E00E947231811111C0EEE4E6
:1032D000F2E084918F010F5F1F4F882321F00E943D
:1032E0009E2EF801F6CF0E94FE578AE00E949E2E85
:1032F00010926F0C0C94952B83E50E94122E88235C
:1033000011F40C9497280E94782D182F8D3308F013
:103310001CE310937C0C0E94A2656B017C01212FA1
:1033200030E0A8EEB3E00E94617FC60ED71EE81E13
:10333000F91EC092780CD092790CE0927A0CF0923F
:103340007B0C0C9497288DE690E00E9472318111DD
:103350000C9497288091B60B83FF02C00C94972899
:1033600083E50E94122E8DAB811105C082E50E947B
:10337000122E8823B1F00E94982D0E94B580CB01B7
:103380000E94CE760E94982D20E030E04AEA52E476
:103390000E94707B181614F40C9489290E942B5AF1
:1033A00081E0E7968FAFE7970E949E76E7968FAD14
:1033B000E797882311F40C94972881E08093070203
:1033C00019A21AA21BA21CA229961CAE1DAE1EAEEB
:1033D0001FAE29971D8E19AE5CE35DAF8CE12A9676
:1033E0008FAF2A9796E422969FAF2297C12CD12CBB
:1033F00020E8E22E3FEBF32E812C912C54016091BA
:10340000100C7091110C072E000C880B990B0E9468
:10341000767B162F072F782E692E262F372F482FD1
:10342000592FB601C7010E94707B8823D9F02091E3
:10343000A2053091A3054091A4055091A505612FE7
:10344000702F872D962D0E94707B881F8827881FDC
:103450008D8FADA9AA2351F0882341F080910702F6
:103460000C9497281C2D0D2D7E2C6F2C0E94A2658C
:103470006B017C01DC01CB0129962CAD3DAD4EAD3D
:103480005FAD2997821B930BA40BB50BB7FD3DC015
:10349000D701C60188519C4FAF4FBF4F29968CAFC3
:1034A0009DAFAEAFBFAF29970E94FE57E1E5F2E0B6
:1034B00084912F019FEF491A590A882321F00E9415
:1034C0009E2EF201F5CF81149104A104B104B9F04C
:1034D000D501C401805F984DAF4FBF4FBC01CD01F6
:1034E0006C197D098E099F0928EE33E040E050E019
:1034F0000E94357FCA01B9010E94AE3103C08FE33B
:103500000E949E2E8AE00E949E2E0E94CE600E9403
:10351000A2656093700C7093710C8093720C909301
:10352000730CA091A205ADA3B091A305B9A7E0913A
:10353000A405EDA7F091A505F9AB9D01AF01612FA1
:10354000702F872D962D0E94707F1B012C0120E08B
:1035500030E0A9010E94978187FF04C057FA509478
:1035600057F8509481149104A104B10459F420E057
:1035700030E040E85FE3C201B1010E94707B87FF49
:103580000DC00AC020E030E040E450E4C201B101C7
:103590000E949781181614F4460157012D8D22239D
:1035A00009F440C089A19AA1ABA1BCA1892B8A2BA7
:1035B0008B2B61F0D701C60129A13AA14BA15CA1D7
:1035C000821B930BA40BB50BB7FD2CC02DA139A505
:1035D0004DA559A969AD7DAD2A968FAD2A97229642
:1035E0009FAD22970E94707F20E030E040EC5FE3C7
:1035F0000E94707B87FD32CFD701C601805A95416A
:10360000AF4FBF4F89A39AA3ABA3BCA39DA199AF12
:10361000A9A5ADAFBDA52A96BFAF2A97E9A9229665
:10362000EFAF229780910702882309F417CF811406
:103630009104A104B10429F4C12ED02EE72CF62C5C
:10364000DECEF0E1CF1AF7E2DF0AE108F108C81890
:10365000D908EA08FB08F7FE01CFEECF8091B60B40
:1036600083FF02C00C94972883E50E94122E8823C2
:1036700011F40C9497280E94982D0E94B580673809
:10368000710514F067E870E070930F0C60930E0CF6
:103690000C94972880E50E94122E882341F00E9406
:1036A000782D182F823010F00C94972801C010E06C
:1036B00083E50E94122E882319F00E94682D02C013
:1036C0006FEF70E0E12FF0E06F3F710510F06FEFEA
:1036D00070E0EE0FFF1FE356FA4F718360830C9486
:1036E000972880E50E94122E882341F00E94682DC1
:1036F0006230710510F00C94972802C060E070E011
:10370000660F771FFB01E356FA4F118210820C946B
:10371000972862E370E080E090E00E946A650E9472
:10372000115C0F5F1F4F0331110599F762E370E0E1
:1037300080E090E00E946A650E94115C0C949728DA
:1037400010926E020C94972881E080936E020C9484
:10375000972883E50E94122E8823A1F00E94982DBD
:1037600020E030E04AE754E40E94D57B0E94BA8012
:10377000609330027093310280933202909333024F
:103780000C94972888E50E94CB2D81110C948D29EB
:1037900089E50E94CB2D81110C948D298AE50E9428
:1037A000CB2D81110C948D2985E40E94CB2D8111A4
:1037B0000C948D290E9435430C94972883E50E9430
:1037C000CB2D882311F40C9497280E94982D20E08B
:1037D00030E04AE754E40E94D57B0E94BA806093AF
:1037E000740C7093750C8093760C9093770C0C94FA
:1037F000972810E4C12E12E0D12E07EBE02E0BE04B
:10380000F02E10E0D6018D916D010E94CB2D882302
:1038100009F46DC0133009F063C00E94982D4B016C
:103820005C0120E030E040EA51E40E94707B87FFB9
:103830004EC0A50194016091C30B7091C40B80919F
:10384000C50B9091C60B0E944D802B013C019B0142
:10385000AC0160914D0570914E0580914F0590919E
:1038600050050E94D57B60934D0570934E05809363
:103870004F0590935005A301920160917D057091D1
:103880007E0580917F05909180050E94D57B609395
:103890007D0570937E0580937F05909380056091F0
:1038A0005D0570915E0580915F05909160050E94B5
:1038B000747BA30192010E94D57B0E94BA80609321
:1038C0005D0570935E0580935F059093600580921F
:1038D000C30B9092C40BA092C50BB092C60B07C04D
:1038E0000E94982DF70160837183828393831F5F09
:1038F000F4E0EF0EF11C143009F084CF0E940B436A
:103900000C9497280E94224283E50E94122E88235D
:1039100009F41DCA0E94682D6230710509F017CAAA
:103920000E948D638BE50E949E2E6091630C7091C6
:10393000640C8091650C9091660C42E00E945734B3
:103940004091670C5091680C6091690C70916A0C01
:1039500088E592E00E94FC4040916B0C50916C0C09
:1039600060916D0C70916E0C85E592E00E94FC40B8
:103970008DE50E949E2E8AE00E949E2E0C94972830
:10398000EAE3F3E084918F010F5F1F4F882321F05A
:103990000E949E2EF801F6CF60E08AE293E00E943A
:1039A000C83160E083E293E00E94C83161E088E1C1
:1039B00093E00E94C83161E088E093E00E94C83142
:1039C00060E08FEF92E00E94C83161E085EF92E005
:1039D0000E94C83160E08BEE92E00E94C83160E046
:1039E00083EE92E00E94C83160E085ED92E00E9493
:1039F000C83160E087EC92E00E94C83160E088EB5B
:103A000092E00E94C83160E08AEA92E00E94C831E8
:103A100060E084E992E00E94C83160E083E892E0CF
:103A20000E94C83160E08EE692E00E94C83160E0FA
:103A30008BE592E00E94C8310C94972800914203D4
:103A40001091430383E0D12C40E08150E9F0D8018C
:103A50009C91292F2B7F2134C1F711962C91213372
:103A6000A1F7913421F0953421F441E002C0DD2426
:103A7000D39498012E5F3F4F89012F5F3F4FF8018C
:103A800090819032C9F3E1CF442369F0E0E0F6E1A0
:103A900084917F012FEFE21AF20A882321F00E941D
:103AA0009E2EF701F5CFDD2069F0E7E0F4E0849188
:103AB0007F013FEFE31AF30A882321F00E949E2E34
:103AC000F701F5CFD8018D918D01882309F4C0CB82
:103AD0000E949E2EF7CF0E94AE460C94972881E05C
:103AE00080930203809301030E944D460C94972813
:103AF00088EC90E00E94723181110C94972884E444
:103B00000E94CB2D8823C1F10E94982D11E020E066
:103B100030E0A9010E94707B811101C010E0109378
:103B20001405112349F10E94982DE091090CB4E08D
:103B3000EB9FF0011124E75EFA4F6083718382836B
:103B4000938320E030E0A9016091190570911A0576
:103B500080911B0590911C050E94707B81110CC007
:103B600080E090E0A0E4B0E48093190590931A05FA
:103B7000A0931B05B0931C050E9473430C949728D7
:103B8000F80181918F010E94CB2D882351F00E9472
:103B9000982D0E94BA80D7016D937D938D939C934D
:103BA0001397B4E0EB0EF11CD012EACF0E945A41F9
:103BB0000C949728E1E7EE2EE5E0FE2E00E412E0FB
:103BC000F4E0DF2ED00EF80181918F010E94CB2D01
:103BD000882341F00E94982DD7016D937D938D939A
:103BE0009C931397B4E0EB0EF11CD012ECCF0C9425
:103BF000972883E50E94122E8823A1F00E94982D19
:103C00006093690570936A0580936B0590936C05CA
:103C100060936505709366058093670590936805CA
:103C200010E001C011E080E50E94122E882359F0B7
:103C30000E94982D6093690570936A0580936B05C7
:103C400090936C0510E082E50E94122E882359F0B3
:103C50000E94982D60936D0570936E0580936F059B
:103C60009093700510E084E50E94122E882361F085
:103C70000E94982D60936505709366058093670593
:103C8000909368050C949728112311F40C949728AD
:103C90004091690550916A0560916B0570916C05C2
:103CA00081E194E00E94FC4040916D0550916E05C9
:103CB00060916F05709170058EE094E00E94FC4069
:103CC00040916505509166056091670570916805A2
:103CD0008BE094E00E94FC408AE00E949E2E0C94AF
:103CE000972881E50E94CB2D882351F00E94582D02
:103CF000609381057093820580938305909384057A
:103D000083E50E94CB2D882351F00E94982D60936B
:103D1000990570939A0580939B0590939C0584E583
:103D20000E94CB2D882351F00E94982D6093950519
:103D300070939605809397059093980588E50E9467
:103D4000CB2D882351F00E94982D609341057093EC
:103D50004205809343059093440589E50E94CB2D4D
:103D6000882351F00E94982D609345057093460575
:103D700080934705909348058AE50E94CB2D8823C0
:103D800051F00E94982D6093490570934A058093E5
:103D90004B0590934C0585E40E94CB2D882311F4AC
:103DA0000C9497280E94982D60934D0570934E05B2
:103DB00080934F05909350050C9497281F5FB4E0B3
:103DC000EB0EF11C133011F40C94A716F60181913F
:103DD0006F010E94CB2D882389F30E94982DD70173
:103DE0006D937D938D939C931397812F0E94322C1A
:103DF000E5CF8091890C982F917011E0D92ED126B2
:103E000081FB002700F9012782FB882780F918270A
:103E1000D11002C0002319F0E0E0F6E114C0111146
:103E2000FBCF5FEB852E58E1952E80E193E09E8FCE
:103E30008D8FDE0111965D0108E119E11D01B3E0EE
:103E4000B00FB9A353C084917F012FEFE21AF20A99
:103E5000882321F00E949E2EF701F5CFEFE2F4E0D7
:103E600084917F013FEFE31AF30A882321F00E9437
:103E70009E2EF701F5CFDD2069F0EDE2F4E08491AC
:103E80007F014FEFE41AF40A882321F00E949E2E4E
:103E9000F701F5CF002369F0EBE2F4E084917F01B4
:103EA0005FEFE51AF50A882321F00E949E2EF701A4
:103EB000F5CF111103C0E1E2F4E00CC0E9E2F4E057
:103EC00084918F010F5F1F4F8823A9F30E949E2EBC
:103ED000F801F6CF84918F010F5F1F4F882311F4F3
:103EE0000C9497280E949E2EF801F4CFF40165915E
:103EF000759185919491ED8DFE8DC190D190E19059
:103F0000F190FE8FED8FA70196010E94707F2B012B
:103F10003C0120E030E040EA51EC0E94978187FDAF
:103F200011C020E030E040EA51E4C301B2010E9438
:103F3000707B18163CF0D1014D925D926D927C928F
:103F400013970EC0F80184911816ACF7F7FAF094A5
:103F5000F7F8F094D101CD92DD92ED92FC92139797
:103F6000D101CD90DD90ED90FD901D0120E030E07D
:103F700040EA51ECC701B6010E94978187FF03C058
:103F8000E4E2FDE10BC020E030E040EA51E4C7018B
:103F9000B6010E94707B1816CCF4F2CF84918F0189
:103FA0000F5F1F4F882321F00E949E2EF801F6CF4D
:103FB000E5E3F4E084918F010F5F1F4F882311F434
:103FC0000C9497280E949E2EF801F4CFB4E08B0E3B
:103FD000911C0F5F1F4FE9A1E01388CF44E0E42E4E
:103FE00043E0F42E10E0F50181919191A191B191FE
:103FF0005F01F70181939193A193B1937F01812F89
:104000000E94322C1F5F133071F70E9407320C940C
:104010009728E0E0F6E184918F010F5F1F4F88231E
:1040200021F00E949E2EF801F6CF83E50E94CB2D51
:10403000882321F00E94892D80930402EBE7F4E0AD
:1040400084918F010F5F1F4F882321F00E949E2EC5
:10405000F801F6CF80910402811103C0E7E7F4E094
:1040600002C0E3E7F4E084918F010F5F1F4F8823C4
:1040700021F00E949E2EF801F6CFEBE6F4E0849149
:104080008F010F5F1F4F882321F00E949E2EF801A1
:10409000F6CF40905E0250905F0260906002709098
:1040A000610220919A0C30919B0C40919C0C509194
:1040B0009D0CC301B2010E94717FAB01BC0189E676
:1040C00094E00E94FC408090620290906302A09075
:1040D0006402B090650220919E0C30919F0C40913B
:1040E000A00C5091A10CC501B4010E94717FAB01DD
:1040F000BC0186E694E00E94FC40C0906602D0902D
:104100006702E0906802F09069022091A20C309161
:10411000A30C4091A40C5091A50CC701B6010E94BC
:10412000717FAB01BC0183E694E00E94FC40EBE5AB
:10413000F4E084918F010F5F1F4F882321F00E94CC
:104140009E2EF801F6CF2091340230913502409135
:10415000360250913702C301B2010E94717FAB0158
:10416000BC0189E594E00E94FC4020913802309126
:10417000390240913A0250913B02C501B4010E94BC
:10418000717FAB01BC0186E594E00E94FC40209168
:104190003C0230913D0240913E0250913F02C701E6
:1041A000B6010E94717FAB01BC0183E594E00E94DF
:1041B000FC408AE00E949E2EBAC783E50E94122E20
:1041C000882309F4B4C70E94682D70930602609397
:1041D0000502ADC78DED90E00E9472318111A7C735
:1041E00083E50E94122E8823D9F10091090C10E07A
:1041F0000E94682D000F111FF801E95EFD4F7183C9
:1042000060838091090C90E08C01000F111F000F5A
:10421000111F98012B5D3D4F7901880F991FFC01FB
:10422000E95EFD4F60817181072E000C880B990BB0
:104230000E94767B2AE037ED43E25CE30E94D57B67
:10424000F801EB5EFA4F20813181428153810E9457
:10425000D57BD7016D937D938D939C93139767C7FF
:10426000E0E0F6E184918F010F5F1F4F882321F07A
:104270000E949E2EF801F6CF85E40E949E2E80912A
:10428000090C805D0E949E2EE091090CF0E0EE0F7B
:10429000FF1FE95EFD4F608171818BE894E00E9411
:1042A000194185E20E949E2E8AE00E949E2E3FC701
:1042B00080E50E94CB2D882309F439C70E94682D20
:1042C0006B017C0183E50E94122E882321F00E945D
:1042D000682D8B0102C00FEF1FEFC80101960397F5
:1042E00008F025C7D7FC23C79C2DE3E9F4E08DE255
:1042F0008E0F2491921711F40C94B52931968E13D8
:10430000F8CF0C94B82985E40E94122E811110C0B8
:1043100080E50E94CB2D882391F00E94982D609318
:10432000F10B7093F20B8093F30B9093F40B07C097
:104330000E94782D882361F3E4E2FDE16EC089E4F8
:104340000E94CB2D882381F00E94982D2CEA35EC19
:1043500047E25EE30E94D57B6093ED0B7093EE0B1A
:104360008093EF0B9093F00B84E40E94CB2D882375
:1043700081F00E94982D2CEA35EC47E25EE30E9422
:104380004D806093F50B7093F60B8093F70B909331
:10439000F80BE0E0F6E184918F010F5F1F4F882357
:1043A00021F00E949E2EF801F6CF4091F10B509122
:1043B000F20B6091F30B7091F40B88EC94E00E9487
:1043C000FC402CEA35EC47E25EE36091ED0B709126
:1043D000EE0B8091EF0B9091F00B0E944D80AB01A2
:1043E000BC0184EC94E00E94FC402CEA35EC47E2EE
:1043F0005EE36091F50B7091F60B8091F70B909155
:10440000F80B0E94D57BAB01BC0180EC94E00E94CC
:10441000FC408AE00E949E2E8AC684918F010F5F25
:104420001F4F882321F00E949E2EF801F6CFECEC5E
:10443000F4E084918F010F5F1F4F882309F477C642
:104440000E949E2EF801F5CF83E50E94CB2D182FF8
:10445000882371F00E94982D0E94B58070932A02E3
:104460006093290221E0672B09F020E02093A10549
:1044700080E50E94CB2D882359F0209129023091AC
:104480002A02232B11F00E94892D8093A1054FC68B
:1044900011114DC6E0E0F6E184918F010F5F1F4FCF
:1044A000882321F00E949E2EF801F6CF8091A1056D
:1044B000811103C067E472E002C064E472E083EF3C
:1044C00094E00E9432416091290270912A0282EEAA
:1044D00094E00E941941EEEDF4E084918F010F5FAA
:1044E0001F4F882309F423C60E949E2EF801F5CFA2
:1044F00085E40E94122E882321F00E94682D7B0102
:1045000002C0E12CF12C83E40E94122E882331F0AA
:104510000E94682D6C966FAF6C9704C0B5E06C96E6
:10452000BFAF6C9785E50E94122E882319F00E9478
:10453000892D03C085E50E94CB2DA8968FAFA89743
:10454000F7FC07C0812C912CA6E1AA2EA3E4BA2E79
:1045500006C0812C912CFCE8AF2EF2E4BF2E83E53F
:104560000E94122E882321F00E94982D4B015C019D
:10457000E114F10411F41092090C0E94A2652B01C0
:104580003C0181E08E0D823068F0E7EBF6E084912B
:104590008F010F5F1F4F882309F4C9C50E949E2E0B
:1045A000F801F5CFED8EE7FC12C0EE2DEE0FFF0BFC
:1045B000E45FFD4F608171816F507109072E000C1F
:1045C000880B990B0E94767B9B01AC0104C020E014
:1045D00030E047E053E4C501B401E9962FAFE99715
:1045E000EA963FAFEA97E7964FAFE797E8965FAF57
:1045F000E8970E94B580072E000C880B990B0E944B
:10460000767B69A77DA789AB9DABE9962FADE9972E
:10461000EA963FADEA97E7964FADE797E8965FAD2C
:10462000E8970E94978118166CF4E8E7F6E0849109
:104630008F010F5F1F4F882309F479C50E949E2EBA
:10464000F801F5CFE3EAF6E084917F012FEFE21A5B
:10465000F20A882321F00E949E2EF701F5CF0E94D6
:10466000405A3D8D37FF04C08FE78093080C08C087
:104670004D8DE42F440FFF0BE95FF34F8FE78083ED
:10468000D301C201805E914BAF4FBF4FE4968CAF18
:104690009DAFAEAFBFAFE49781E080930702A396D2
:1046A0004CAE5DAE6EAE7FAEA397AC964CAE5DAE3B
:1046B0006EAE7FAEAC976F961FAE6F97E0961CAE56
:1046C0001DAE1EAE1FAEE0972A961FAE2A9790E44D
:1046D00022969FAF2297ACE12E96AFAF2E97B6E40D
:1046E0006296BFAF629766961FAE669767961FAEDB
:1046F000679768961FAE689769961FAE699721966F
:104700001CAE1DAE1EAE1FAE219719AE1AAE1BAE6B
:104710001CAEC12CD12C76012FE730E040E050E0F8
:104720002DA33EA34FA358A77FE7872E912CA12C42
:10473000B12CA7961CAE1DAE1EAE1FAEA79731E0E2
:104740006E963FAF6E9727961FAE1EAE279710E06E
:10475000212C312C00E04D8D842F440F990BDC016E
:10476000A95FB34FE696BFAFAEAFE697880F991F2C
:10477000880F991FFC01EE55FA4F6B96FFAFEEAF15
:104780006B976C962FAD6C97022E000C330B6D96C9
:104790003FAF2EAF6D9780910702882309F408C1BF
:1047A0000E94A26569A37AA38BA39CA38091060CA7
:1047B000882309F4E1C00E949F593D8D37FF09C04D
:1047C00010910A0C20900B0C30900C0C00910D0CE9
:1047D0000DC06B96AEADBFAD6B971C9111962C9032
:1047E000119712963C90129713960C91212F322D0F
:1047F000432D502F66966FAD669767967FAD67978E
:1048000068968FAD689769969FAD69970E94707B97
:1048100087FF0CC066961FAF669767962FAE6797A7
:1048200068963FAE689769960FAF6997212F322D32
:10483000432D502F2A966FAD2A9722967FAD22974F
:104840002E968FAD2E9762969FAD62970E949781AC
:10485000181664F42A961FAF2A9722962FAE229735
:104860002E963FAE2E9762960FAF62976E96BFADB3
:104870006E9729A53DA549A95DA9612F722D832DAC
:10488000902FBB2309F45EC00E94978118160CF08C
:1048900073C029A13AA14BA15CA12419350946098D
:1048A0005709EE962CAF3DAF4EAF5FAFEE97DA01F2
:1048B000C90188589341A109B109B7FD5DC0D5016F
:1048C000C4012DA13EA14FA158A5821B930BA40B9F
:1048D000B50B3D8DB595A7959795879537FF03C087
:1048E0008093080C05C0E696EEADFFADE697808399
:1048F000EE962CAD3DAD4EAD5FADEE97A7962CAFCD
:104900003DAF4EAF5FAFA79739A566963FAF6697AD
:104910004DA567964FAF679759A968965FAF68979F
:104920008DA969968FAF699729A13AA14BA15CA186
:10493000A3962CAF3DAF4EAF5FAFA3976E961FAE61
:104940006E971AC00E94707B87FF16C089A19AA13A
:10495000ABA1BCA1A3962CAD3DAD4EAD5FADA39771
:10496000821B930BA40BB50BAC01BD0148585341FE
:104970006109710977FF24C520E030E040EA51E485
:1049800069A57DA589A99DA90E94717F9B01AC01A4
:10499000612F722D832D902F0E94978118167CF421
:1049A000E4E0F6E084918F010F5F1F4F811103C097
:1049B0000E94405ABCC30E949E2EF801F3CF89A1E9
:1049C0009AA1ABA1BCA1AC962CAD3DAD4EAD5FADF7
:1049D000AC97821B930BA40BB50BB7FD93C00E9441
:1049E000FE578AE00E949E2E89A19AA1ABA1BCA18C
:1049F0008053984FAF4FBF4FAC968CAF9DAFAEAFCB
:104A0000BFAFAC979D8D97FD7DC06F96AFAD6F9793
:104A1000A1115DC0E0962CAD3DAD4EAD5FADE09710
:104A2000612F722D832D902F0E9497811816D4F537
:104A300020E030E040E050E4612F722D832D902F74
:104A40000E94717FE0966CAF7DAF8EAF9FAFE09715
:104A500029A13AA14BA15CA1205E314B4F4F5F4F82
:104A6000E4962CAF3DAF4EAF5FAFE49720E030E06F
:104A700040EC50E469A57DA589A99DA90E94707F9D
:104A80009B01AC0181E06F968FAF6F97612F722D04
:104A9000832D902F0E9497811816A4F16F961FAE58
:104AA0006F9730C089A19AA1ABA1BCA1E4962CADAF
:104AB0003DAD4EAD5FADE497821B930BA40BB50BE0
:104AC000B7FD20C043EE55E065EF75E018C020E06B
:104AD00030E040EA51E469A57DA589A99DA90E941D
:104AE000707F9B01AC01612F722D832D902F0E944E
:104AF000707B87FF07C040EC55E063ED75E08D8D5E
:104B00000E94725A89A19AA1ABA1BCA1880F991FDA
:104B1000AA1FBB1FA3962CAD3DAD4EAD5FADA397B5
:104B2000821B930BA40BB50B84199509A609B70931
:104B300081389F44A241B10568F0E2EAF5E0849132
:104B40008F010F5F1F4F882309F432CF0E949E2EE2
:104B5000F801F5CF27964EAD5FAD27976D968EADD8
:104B60009FAD6D97841795070CF015CEE5E4F5E041
:104B700084918F010F5F1F4F882321F00E949E2E8A
:104B8000F801F6CF9D8D97FD03C00DE512E002C040
:104B90000BE412E0B80184E395E00E943241B701D2
:104BA000A60180E395E00E94FC408AE00E949E2ED0
:104BB000B8018FE195E00E94324149AD5AAD6BAD2D
:104BC0007CAD8BE195E00E94FC408AE00E949E2E25
:104BD000B8018AE095E00E94324121964CAD5DAD6E
:104BE0006EAD7FAD219786E095E00E94FC408AE0A3
:104BF0000E949E2EA896AFADA897AA2309F497C24B
:104C0000BD8DB7FF2FC0C092010CD092020CE09274
:104C1000030CF092040C2CEA35EC47E25EE369AD3C
:104C20007AAD8BAD9CAD0E94D57B6093FD0B7093EC
:104C3000FE0B8093FF0B9093000C2CEA35EC47E2BF
:104C40005EE321966CAD7DAD8EAD9FAD21970E9448
:104C50004D806093F90B7093FA0B8093FB0B90934C
:104C6000FC0B65C2C092F10BD092F20BE092F30BF9
:104C7000F092F40B2CEA35EC47E25EE369AD7AADD5
:104C80008BAD9CAD0E94D57B6093ED0B7093EE0BCA
:104C90008093EF0B9093F00B2CEA35EC47E25EE348
:104CA00021966CAD7DAD8EAD9FAD21970E944D805C
:104CB0006093F50B7093F60B8093F70B9093F80BC2
:104CC00036C280E568D7882349F032D76093010C5B
:104CD0007093020C8093030C9093040C89E45BD7CF
:104CE000882379F025D72CEA35EC47E25EE30E9471
:104CF000D57B6093FD0B7093FE0B8093FF0B90931D
:104D0000000C84E448D7882379F012D72CEA35ECDC
:104D100047E25EE30E944D806093F90B7093FA0BBB
:104D20008093FB0B9093FC0BE0E0F6E184918F0104
:104D30000F5F1F4F882321F00E949E2EF801F6CFAF
:104D40004091010C5091020C6091030C7091040C85
:104D500089EE96E00E94FC402CEA35EC47E25EE3E7
:104D60006091FD0B7091FE0B8091FF0B9091000CF8
:104D70000E944D80AB01BC0185EE96E00E94FC4094
:104D80002CEA35EC47E25EE36091F90B7091FA0B87
:104D90008091FB0B9091FC0B0E94D57BAB01BC0179
:104DA00081EE96E00E94FC408AE0C8D7C0C1E4E2F0
:104DB000FDE184918F010F5F1F4F882319F0BED74B
:104DC000F801F7CFEDEEF6E084918F010F5F1F4FF2
:104DD000882309F4ACC1B2D7F801F6CF0E94224271
:104DE000A6C1E4E2FDE184918F010F5F1F4F88238C
:104DF00019F0A4D7F801F7CFECEFF6E084918F011A
:104E00000F5F1F4F882309F492C198D7F801F6CF9E
:104E10000E943C5D80E00E94226C89C10E943C5D42
:104E200086C183E5B8D6882319F073D691E0892727
:104E30000E94226C7CC189E4F5D6882319F058D6EB
:104E4000B82E01C0B12C90E4892E92E0992E11E089
:104E500000E0F40181914F01E5D6882371F138D645
:104E60006B017C016115710541F1023081F0033065
:104E7000A1F0013031F0F1E0FB15F0F08CE29EE0A2
:104E800019C021E02B15C0F083EB9DE013C031E089
:104E90003B1590F08AE39DE00DC08AE893E00E9404
:104EA0007231811144C18091090C811105C0B60194
:104EB00081EC9CE00E94DF7610E00F5F043049F641
:104EC000112309F434C160E08CE29EE00E94776017
:104ED00061E083EB9DE00E94776062E08AE39DE001
:104EE0000E94776066E081EC9CE00E9477601FC1C1
:104EF0006091310E80E00E948C686091B80D81E075
:104F00000E948C6860913F0D82E00E948C686091E5
:104F1000C60C86E00E948C680AC188E53CD6D82E73
:104F200089E539D6E82E8AE536D6F82E85E433D6DB
:104F3000082FD11007C0E11005C0F11003C011E027
:104F4000182701C010E088E56DD6882309F4D5C381
:104F5000CFD5112331F01092310E80E00E947A6893
:104F600006C08130C1F3DD2011F08A30A1F389E55C
:104F700059D6882309F4C4C3BBD5112331F010924C
:104F8000B80D81E00E947A6806C08130C1F3EE203E
:104F900011F08A30A1F38AE545D6882309F4B3C31A
:104FA000A7D5112331F010923F0D82E00E947A685C
:104FB00006C08130C1F3FF2011F08A30A1F385E4EF
:104FC00031D6882309F4A2C393D5112331F010926E
:104FD000C60C86E00E947A68AAC08823C1F3002329
:104FE00009F4A5C08A3009F0A2C0F1CF89E41AD62D
:104FF000882319F07DD5F82E01C0F12C80E4C82E4D
:1050000082E0D82E11E000E0D6018D916D01C3D56C
:10501000882329F15DD5603C7F4F34F059D5603449
:10502000710524F455D503C060EC01C06FE3013075
:1050300041F0023061F0E1E0EF1580F08CE29EE09B
:105040000BC0F1E0FF1550F083EB9DE005C021E0BF
:105050002F1520F08AE39DE00E941E6710E00F5F8D
:10506000033091F6112309F462C060E08CE29EE007
:105070000E94486061E083EB9DE00E94486062E02E
:105080008AE39DE00E94486052C081E080932B0239
:1050900083E5C8D5882331F03CD5811148C00E94F2
:1050A0004A7145C083E577D5F8CF0E947D6B3FC03C
:1050B000F09044030E942242FF2009F1E0E0F6E173
:1050C00084918F010F5F1F4F882319F037D6F801A5
:1050D000F7CF84E533D66F2D70E080E090E04AE0B2
:1050E0000E940C3180E22AD6EFE1F7E084918F0133
:1050F0000F5F1F4F8823D9F021D6F801F7CF109208
:105100006A02E0E0F6E184918F010F5F1F4F882370
:1051100019F014D6F801F7CF60E070E08DE097E069
:105120000E9419418AE00AD602C00E947D6B10924B
:105130006F0C0E94C763F9C281D580910402882355
:1051400021F08AE89CE00E94D45E8091B60B83FD3A
:10515000A1C0C090960CD090970CE090980CF09065
:10516000990C20911C0330911D0340911E03509116
:105170001F03C701B6010E94707B882309F48AC00F
:105180006091A2057091A3058091A4059091A50559
:105190002091A105211127C00E94B58020912902EC
:1051A00030912A0262177307F4F4C0921C03D09264
:1051B0001D03E0921E03F0921F03E0E0F6E18491EC
:1051C0008F010F5F1F4F882319F0B8D5F801F7CF73
:1051D000E8EFF1E084918F010F5F1F4F882319F0F2
:1051E000ADD5F801F7CF8090960C9090970CA090D9
:1051F000980CB090990C20911C0330911D034091A4
:105200001E0350911F03C501B4010E94707F6B0102
:105210007C0120E030E0A9010E94978187FF04C053
:10522000F7FAF094F7F8F094E0916A0224E0E29F34
:10523000F0011124EB5DFD4F2081318142815381CA
:10524000C701B6010E94D57B20E030E048E453E47A
:105250000E9497811816F4F480921C0390921D030B
:10526000A0921E03B0921F03E0E0F6E184918F014B
:105270000F5F1F4F882319F061D5F801F7CFE9EDD3
:10528000F1E084918F010F5F1F4F882319F056D5ED
:10529000F801F7CF6091050270910602072E000C0D
:1052A000880B990B0E94767B2091000230910102BD
:1052B00040910202509103020E94D57B2AE037ED13
:1052C00043E25CE30E94D57B698B7A8B8B8B9C8B52
:1052D000E0906A0219821A821B821C82AE014F5F23
:1052E0005F4F6A018E010F5E1F4F26E93CE042E9E5
:1052F0005CE06EE87CE08AE89CE00E94DB4680E1AE
:10530000EAE8FCE0A0E1B3E001900D928A95E1F7B4
:105310000ECF0E94F2590C94D0190E94224288E5C7
:105320003AD4882331F0179A809103038E7F8093BB
:10533000030389E530D4882331F0169A8091030362
:105340008D7F809303038AE526D4882331F0159A54
:10535000809103038B7F8093030385E41CD488230F
:1053600009F4E5CE0E948B60E2CE0E947271DFCE1E
:105370000E942242BC2C60E08C2D0E9466640F3F8C
:10538000BFEF1B0759F48C2D0E94F23431E020E06E
:10539000892B09F030E0032F122F05C001301105D1
:1053A00061F000E010E08B2D0E94F234801791072D
:1053B00009F4BDCE0E94CE60F6CF01E010E0F3CF3D
:1053C00027964EAD5FAD2797452B09F45CC1A79694
:1053D0004CAC5DAC6EAC7FACA797480E591E6A1EF4
:1053E0007B1EA7962CAD3DAD4EAD5FADA797281B9C
:1053F000390B4A0B5B0BCA01B9012DA13EA14FA18C
:1054000058A50E94267FA30192010E944982D501DE
:10541000C401820F931FA41FB51F84319105A105FC
:10542000B105FCF04C015D018C3E9105A105B10573
:105430002CF05BEE852E912CA12CB12C40E884162B
:105440009104A104B104DCF08EEF90E0A0E0B0E0A4
:1054500088199909AA09BB098DA39EA3AFA3B8A770
:1054600012C044E1842E912CA12CB12C24E130E017
:1054700040E050E02DA33EA34FA358A704C08DA247
:105480009EA2AFA2B8A6E0E7F6E084919F012F5F4D
:105490003F4F882379F0E9962FAFE997EA963FAF1F
:1054A000EA974CD4E9962FADE997EA963FADEA9793
:1054B000F901EBCFC501B40151D7EBE6F6E08491D9
:1054C0009F012F5F3F4F882379F0E9962FAFE9972F
:1054D000EA963FAFEA9732D4E9962FADE997EA967C
:1054E0003FADEA97F901EBCF6DA17EA18FA198A501
:1054F00035D72A964FAD2A9722965FAD22972E96E2
:105500006FAD2E9762967FAD629784E696E00E941B
:10551000FC4066964FAD669767965FAD6797689655
:105520006FAD689769967FAD69978DE596E00E94AB
:10553000FC4027964EAD5FAD2797433051050CF4E4
:10554000A2C06DA17EA18FA198A50E94767B20E0CC
:1055500030E040E850E40E94D57B6B017C012A9644
:105560002FAD2A9722963FAD22972E964FAD2E97BC
:1055700062965FAD629766966FAD669767967FADF0
:10558000679768968FAD689769969FAD69970E94F7
:10559000707F2BED3FE049E450E40E94D57B20E092
:1055A00030E040E05FE30E94D57B9B01AC01C70186
:1055B000B6010E944D806B017C01C301B2010E94C3
:1055C000767B2FE632E143E85AE30E94D57B2B013C
:1055D0003C01B701A60187E596E00E94FC40B301BB
:1055E000A20181E596E00E94FC402AE939E949E1FF
:1055F0005FE3C701B6010E94D57B6B017C019B0173
:10560000AC010E94717FA30192010E944D8069AF9D
:105610007AAF8BAF9CAFA3019201C701B6010E9484
:10562000D57B20E030E040E05EE30E94D57B219610
:105630006CAF7DAF8EAF9FAF2197E1E4F6E0849130
:105640003F015FEF651A750A882319F077D3F301DC
:10565000F6CFB701A6018BE396E00E94FC4049AD6E
:105660005AAD6BAD7CAD85E396E00E94FC4021967F
:105670004CAD5DAD6EAD7FAD21978FE296E00E949F
:10568000FC408AE05BD38DA19EA1AFA1B8A5880D97
:10569000991DAA1DBB1DED8DB595A795979587956D
:1056A000E7FF03C08093080C05C0E696EEADFFADA2
:1056B000E697808327962EAD3FAD27972F5F3F4F0C
:1056C00027963FAF2EAF279739A52A963FAF2A9747
:1056D0004DA522964FAF229759A92E965FAF2E97D0
:1056E0008DA962968FAF629749A05AA06BA07CA04B
:1056F00091E06E969FAF6E973FC9112351F02BCC6E
:10570000112351F03CCC112351F04DCC112351F019
:105710005ECCD11020CC2BCCE11031CC3CCCF110A4
:1057200042CC4DCC011153CC02CDC358DF4F0FB644
:10573000F894DEBF0FBECDBFDF91CF911F910F91C7
:10574000FF90EF90DF90CF90BF90AF909F908F90A1
:105750007F906F905F904F903F902F900895809131
:10576000560F9091570F891759F0E92FF0E0EA5240
:10577000F14F80819F5F9F779093570F90E008953E
:105780008FEF9FEF0895813039F018F0823039F0B3
:1057900008958CE29EE005C083EB9DE002C08AE3A1
:1057A0009DE00C941968FF920F931F93CF93DF93A2
:1057B000FC0120812B3319F1D091C904D430F8F4C5
:1057C000F62EBC01C09185020C2F10E0F0E6CF9FB1
:1057D000C0011124895B9C4F0E948E82F801E05E1B
:1057E000FC4FF082CF5FC43018F4C093850202C032
:1057F00010928502DF5FD093C90481E001C080E090
:10580000DF91CF911F910F91FF900895CF92DF927A
:10581000EF920F931F93CF93DF9300D01F92CDB7DA
:10582000DEB7E0906A0219821A821B821C82CE01C6
:1058300001966C0100E012E02CE133E048E153E016
:1058400064E173E080E193E00E94DB460F900F90EB
:105850000F900F90DF91CF911F910F91EF90DF90FC
:10586000CF9008950F931F93CF93DF9394E0899F78
:10587000E00111248E01025A1D4FFE01EC5FFC4F26
:10588000DE01A358B34F2D913D914D915C91608104
:105890007181828193810E94717FF801608371839D
:1058A00082839383FE01EE5AF74F85919591A591DE
:1058B000B491FE01E656F34F80839183A283B383B4
:1058C000FE01E25AF74F85919591A591B491CC5C78
:1058D000DD4F88839983AA83BB83DF91CF911F918A
:1058E0000F9108952CE133E048E153E064E173E067
:1058F00080E193E00C94324280916F0081FB992704
:1059000090F981FF05C080916F008D7F80936F00BB
:105910008091A90E8093A80E8093A70E8093A60E67
:1059200084E68093A50E28EE33E03093C80B2093D5
:10593000C70B992329F080916F00826080936F00DC
:1059400081E08093D00B0E9422420E948D638CE004
:10595000E3E6FCE0A0E1B3E001900D928A95E1F767
:10596000C1CF2F923F924F925F926F927F929F9200
:10597000AF92BF92CF92DF92EF92FF920F931F935D
:10598000CF93DF93CDB7DEB728970FB6F894DEBF7D
:105990000FBECDBFB82E2A013B01902EA12E69016A
:1059A000082F10E0F801E85EF64EE491EE24E3944F
:1059B0001E160CF4E12CFF24F39420E030E0A90142
:1059C000C301B2010E94978118160CF0F12CFE243D
:1059D00019F061E08B2DD7DE000F111F000F111F92
:1059E000C801805F9C4F1C01FC0110821182128251
:1059F000138278DFF1014082518262827382E090EB
:105A00006A0220E030E0A901692D7A2DC6010E94CA
:105A1000707B811108C0F801E553F74E459155910F
:105A20006591749103C0492D5A2DB6014D835E8353
:105A30006F83788719821A821B821C82CE0101969D
:105A40006C018E010B5F1F4F2CE133E048E153E006
:105A500064E173E080E193E00E94DB460E94224211
:105A6000FF2071F08091C704882331F01092C704A1
:105A700060E08B2D88DE04C08AE698E00E94A0607A
:105A800028960FB6F894DEBF0FBECDBFDF91CF9141
:105A90001F910F91FF90EF90DF90CF90BF90AF904C
:105AA0009F907F906F905F904F903F902F900895C0
:105AB0008091830290918402009731F04AE050E097
:105AC00060E070E00C94C47960E070E0CB01089570
:105AD0008091830290918402009731F04AE050E077
