:100000000C94700E0C94A10E0C94A10E0C94A10EE5
:100010000C94A10E0C94A10E0C94A10E0C94A10EA4
:100020000C94A10E0C94A10E0C94A10E0C94A10E94
:100030000C94A10E0C94A10E0C94A10E0C94A10E84
:100040000C94A10E0C94BB470C94A10E0C94A10E21
:100050000C94A10E0C94A10E0C94CD3B0C94FD3687
:100060000C94A10E0C9466560C94A10E0C94A10E47
:100070000C94A10E0C94A10E0C94A10E0C94A10E44
:100080000C94A10E0C94A10E0C94A10E0C94A10E34
:100090000C94A10E0C94A10E0C94A10E0C94A10E24
:1000A0000C94A10E0C94A10E0C94A10E0C94A10E14
:1000B0000C94A10E0C94A10E0C94A10E0C94A10E04
:1000C0000C94A10E0C94A10E0C94A10E0C94A10EF4
:1000D0000C94A10E0C94A10E0C94A10E0C94A10EE4
:1000E0000C94A10EE235E735EC35F635003679365D
:1000F0000A3612361A3624362E36383647365136F8
:1001000079365B3665366F36F34EF64EE54EE94E80
:10011000EF4E2D4FFA4EFE4E044F084F0C4F124F2C
:10012000164F1A4F2D4F204F244F284F084AD73BC8
:100130003BCE016E84BCBFFDC12F3D6C74319ABDB6
:1001400056833DDA3D00C77F11BED9E4BB4C3E91DA
:100150006BAAAABE000000803F05A84CCDB2D44EC9
:10016000B93836A9020C50B9918688083CA6AAAACB
:100170002ABE000000803F004E414E494E4954596E
:10018000494E46CDCCCC3D0AD7233C17B7D1387762
:10019000CC2B329595E6241FB14F0A000020410078
:1001A00000C84200401C4620BCBE4CCA1B0E5AAEC2
:1001B000C59D74434F4D4D554E49434154494F4E93
:1001C0000044525952554E004552524F5253004925
:1001D0004E464F004543484F0020746F6F206C6FB0
:1001E0006E6720657874727573696F6E20707265C2
:1001F00076656E7465640A0020636F6C64206578B0
:1002000074727573696F6E2070726576656E746551
:10021000640A0047322F47332062616420706172A4
:10022000616D65746572730A002569730025696DD7
:1002300020256973002569682025696D202569736B
:1002400000256964202569682025696D202569736A
:100250000025697920256964202569682025696D54
:1002600020256973005072696E742074696D653A57
:100270002000D401CF01C801C101B3016F6666003F
:1002800044454255473A004B494C4C45442E2000CA
:100290004D3131332053006F6B0020573A00205707
:1002A0003A002C20002C2000544845524D414C5F10
:1002B00050524F54454354494F4E004155544F52AC
:1002C00045504F52545F53445F535441545553006B
:1002D000454D455247454E43595F50415253455253
:1002E00000434153455F4C494748545F4252494798
:1002F00048544E45535300544F47474C455F4C4973
:100300004748545300534F4654574152455F504F4E
:10031000574552004255494C445F50455243454E63
:1003200054004C4556454C494E475F4441544100AA
:100330005A5F50524F4245004155544F4C45564527
:100340004C005052494E545F4A4F420050524F4762
:1003500052455353004155544F5245504F52545FEC
:1003600054454D5000564F4C554D4554524943004D
:10037000454550524F4D0053455249414C5F584FEF
:100380004E5F584F4646004649524D574152455FD1
:100390004E414D453A4D61726C696E2062756766DB
:1003A00069782D312E312E7820284769746875625E
:1003B0002920534F555243455F434F44455F5552A3
:1003C0004C3A68747470733A2F2F67697468756259
:1003D0002E636F6D2F4D61726C696E4669726D7719
:1003E0006172652F4D61726C696E2050524F544F8F
:1003F000434F4C5F56455253494F4E3A312E3020B1
:100400004D414348494E455F545950453A33442085
:100410005072696E74657220455854525544455265
:100420005F434F554E543A3120555549443A636520
:100430006465326132662D343161322D343734389F
:100440002D396231322D63353563363266333637B6
:1004500066660A002F2F20002054002052004163BE
:1004600063656C65726174696F6E3A205000206636
:10047000697273740A005A0059005800486F6D651C
:100480002000546F6F206661722066726F6D20725B
:1004900065666572656E636520706F696E740A00CB
:1004A000205A00205900580020204D61783A200041
:1004B000205A00205900580020204D696E3A200033
:1004C0004F666600536F667420656E6473746F7058
:1004D000733A200020466C6F773A200000012531E6
:1004E0001D0C51FFFF2924301C0BFFFFFF27232F7A
:1004F0001B0AFFFFFFFF43FFFF040806FFFF222B3D
:100500001AFFFF42043803FF3620643A0020693A9C
:100510000020703A00496E76616C696420657874D9
:1005200072756465720A0043290A0061626C656431
:1005300020286D696E2074656D702000436F6C64B7
:10054000206578747275646573206172652000237C
:10055000646566696E652044454641554C545F4B61
:1005600064200023646566696E65204445464155F4
:100570004C545F4B69200023646566696E652044B6
:10058000454641554C545F4B702000504944204132
:1005900075746F74756E652066696E6973686564DD
:1005A000212050757420746865206C617374204B31
:1005B000702C204B6920616E64204B6420636F6E49
:1005C0007374616E74732066726F6D2062656C6FF8
:1005D0007720696E746F20436F6E6669677572610C
:1005E00074696F6E2E680A00504944204175746F1B
:1005F00074756E65206661696C6564212074696D2F
:10060000656F75740A00453120544845524D414C80
:100610002052554E4157415900546865726D616CC6
:100620002052756E617761790045312048656174AB
:10063000696E67206661696C65640048656174690C
:100640006E67206661696C6564005049442041759D
:10065000746F74756E65206661696C6564212054E1
:10066000656D706572617475726520746F6F206856
:100670006967680A00204B643A2000204B693A20E1
:1006800000204B703A20000A20436C617373696349
:1006900020504944200A002054753A2000204B7510
:1006A0003A2000206D61783A2000206D696E3A2072
:1006B0000020643A200020626961733A20005049AA
:1006C00044204175746F74756E65206661696C6550
:1006D00064212054656D7065726174757265207453
:1006E0006F6F20686967680A00504944204175743B
:1006F0006F74756E652073746172740A005049449A
:10070000204175746F74756E65206661696C6564EF
:100710002120426164206578747275646572206E70
:10072000756D6265720A004E6F2063617365206C9F
:10073000696768740A00454550524F4D20646973DB
:1007400061626C65640A004163746976652045786E
:100750007472756465723A2000496E76616C6964E2
:100760002065787472756465720A00526573656EEF
:10077000643A20006F6B00627573793A207061757E
:1007800073656420666F7220696E7075740A00620A
:100790007573793A2070617573656420666F722095
:1007A000757365720A00627573793A2070726F63AF
:1007B000657373696E670A004B494C4C45442E20A3
:1007C000004B494C4C20636175736564206279204D
:1007D000746F6F206D75636820696E6163746976EC
:1007E000652074696D65202D2063757272656E7465
:1007F00020636F6D6D616E643A20005072696E7493
:1008000065722068616C7465642E206B696C6C285D
:10081000292063616C6C6564210A0020647269762A
:1008200065722063757272656E743A200000000074
:100830000000000000000000000000A0400000A038
:10084000400000A040000000005761726E696E67B2
:100850003A20486F6D696E672042756D702044695B
:100860007669736F72203C20310A00020204000096
:10087000803F00000000000000400000A042000097
:10088000484300004843FFFFFF48617264636F64A0
:1008900065642044656661756C7420536574746981
:1008A0006E6773204C6F616465640A00320000005B
:1008B0003200000032000000320000000000204141
:1008C0000000204100002041000020410000484479
:1008D00000004844000048440000484420204D39AE
:1008E00030360020286D6D2900205430204500202E
:1008F0005A002059002058005374657070657220AA
:100900006472697665722063757272656E743A0AF4
:100910000020440020490020204D33303120500079
:100920005049442073657474696E67733A0A0020F5
:100930005A0020590020204D323036205800486F90
:100940006D65206F66667365743A0A002045002065
:100950005A00205900205800205400205300202025
:100960004D32303520510020453C6D61785F655F28
:100970006A65726B3E0020583C6D61785F785F6AF3
:1009800065726B3E20593C6D61785F795F6A657274
:100990006B3E205A3C6D61785F7A5F6A65726B3E90
:1009A00000416476616E6365643A20513C6D696E06
:1009B0005F7365676D656E745F74696D655F757390
:1009C0003E20533C6D696E5F666565647261746557
:1009D0003E20543C6D696E5F74726176656C5F6633
:1009E000656564726174653E0020540020520020E9
:1009F000204D323034205000416363656C65726174
:100A000074696F6E2028756E6974732F7332293A7A
:100A100020503C7072696E745F616363656C3E2048
:100A2000523C726574726163745F616363656C3EAE
:100A300020543C74726176656C5F616363656C3EE3
:100A40000A00204500205A0020590020204D323055
:100A5000312058004D6178696D756D204163636583
:100A60006C65726174696F6E2028756E6974732F7E
:100A70007332293A0A00204500205A0020590020EC
:100A8000204D3230332058004D6178696D756D20EE
:100A90006665656472617465732028756E69747328
:100AA0002F73293A0A00204500205A0020590020BF
:100AB000204D393220580053746570732070657270
:100AC00020756E69743A0A0020204D32303020447F
:100AD000300A0020204D3230302044002044697319
:100AE00061626C65640A0046696C616D656E7420B4
:100AF00073657474696E67733A0020204732312041
:100B00002020203B0010001900F03F190045340060
:100B10004533004532004531004530005A32005916
:100B200032005832005A005900580070012C0190D0
:100B3000012701B0012201C0011D01F001180110BF
:100B400002130130020E016002090190020401C08B
:100B500002FF000003FA004003F5008003F000D01C
:100B600003EB002004E6007004E100E004DC004038
:100B700005D700C005D2004006CD00D006C80080D1
:100B800007C3003008BE00F008B900C009B400B0C7
:100B90000AAF00B00BAA00D00CA500000EA00050B8
:100BA0000F9B00C01096005012910000148C00C0E2
:100BB000158700B0178200B0197D00D01B780000A7
:100BC0001E730040206E0090226900F024640040F3
:100BD000275F0090295A00E02B5500102E5000206E
:100BE000304B0010324600E033410090353C00109D
:100BF00037370070383200A0392D00B03A2800A0F5
:100C00003B2300603C1E00103D1900903D14001075
:100C10003E0F00703E0A00C03E0500003F0000404D
:100C20003FFBFF803FF6FFC03FF1FF45312045729B
:100C3000723A204D415854454D50004572723A2049
:100C40004D415854454D5020424544004D41585463
:100C5000454D50207472696767657265640045315F
:100C6000204572723A204D494E54454D5000457210
:100C7000723A204D494E54454D5020424544004D56
:100C8000494E54454D5020747269676765726564BA
:100C900000202F002042403A0020403A00290B2734
:100CA0000B250B220B1F0B1C0B190B160B130B1018
:100CB0000B0D0B747275650066616C7365002074B2
:100CC000656D7065726174757265207072657761AB
:100CD000726E207472696767657265643A200020DD
:100CE0007072657761726E20666C616720636C65F7
:100CF000617265640A0024F4D43050C38E20C2A20D
:100D00004017828B7011127A910D816CD90AA861FB
:100D1000E108C7586607615143061E4B5D05C14592
:100D2000A7041A411104093D980371393103403673
:100D3000DB0265339102D4305402802E1D02632CF5
:100D4000EE01752AC501B028A001102781018F2569
:100D500064012B244B01E0223401AC211F018D20C2
:100D60000D01801FFC00841EED00971DDF00B81CE4
:100D7000D200E61BC600201BBC00641AB200B219E8
:100D8000A8000A19A0006A189900D117910040170D
:100D90008B00B516840031167E00B31579003A1524
:100DA0007300C7146F0058146A00EE1366008813AE
:100DB000630025135E00C7125B006C12570015120A
:100DC0005400C111510070114F0021114B00D61079
:100DD00049008D1047004610440002104200C00F29
:100DE0004000800F3E00420F3C00060F3B00CB0E40
:100DF0003800930E37005C0E3500270E3400F30DDB
:100E00003200C10D3100900D3000600D2E00320D0A
:100E10002D00050D2C00D90C2B00AE0C2900850CE3
:100E200029005C0C2700350C27000E0C2600E80B6F
:100E30002400C40B2400A00B23007D0B23005A0BBD
:100E40002100390B2100180B2000F80A1F00D90AD5
:100E50001E00BB0A1E009D0A1D00800A1D00630AB9
:100E60001C00470A1B002C0A1B00110A1A00F70974
:100E70001A00DD091900C4091900AB09190092090B
:100E800017007B091800630917004C091600360982
:100E90001600200916000A091500F5081500E008DB
:100EA0001400CC081400B8081400A408140090081A
:100EB00013007D0812006B08130058081200460842
:100EC0001200340811002308110012081100010853
:100ED0001100F0071000E0071000D0071000C00755
:100EE0001000B0070F00A107100091070E00830744
:100EF0000F0074070F0065070E0057070E00490723
:100F00000E003B070D002E070E0020070D001307F3
:100F10000D0006070D00F9060C00ED060D00E006B9
:100F20000C00D4060C00C8060C00BC060C00B00671
:100F30000C00A4060B0099060C008D060B0082061F
:100F40000B0077060B006C060B0061060A005706C3
:100F50000B004C060A0042060A0038060A002E065C
:100F60000A0024060A001A060A00100609000706ED
:100F70000A00FD050900F4050900EB050900E2057A
:100F80000900D9050900D0050900C7050900BE05FB
:100F90000900B5050800AD050800A50509009C0578
:100FA0000800940508008C050800840508007C05ED
:100FB0000800740508006C050700650508005D055C
:100FC0000700560508004E050700470507004005C5
:100FD000080038050700310507002A05070023052A
:100FE00007001C050600160507000F050700080589
:100FF000060002050700FB040600F5040700EE04E6
:101000000600E8040600E2040700DB040600D5043D
:101010000600CF040600C9040600C3040600BD0490
:101020000600B7040600B1040500AC040600A604DF
:101030000600A00405009B0406009504050090042A
:1010400006008A04050085040500800406007A0471
:10105000050075040500700405006B0405006604B6
:101060000500610405005C040500570405005204F6
:1010700005004D04050048040500430405003E0436
:1010800004003A04050035040500300404002C0473
:10109000050027040400230405001E0404001A04AC
:1010A000040016040500110404000D0404000904E2
:1010B00005000404040000040400FC030400F80319
:1010C0000400F4030400F0030400EC030400E8034C
:1010D0000400E4030400E0030400DC030400D8037C
:1010E0000400D4030400D0030400CC030400C803AC
:1010F0000300C503030024F404D9201BC40C5C0EB8
:101100009804C4095F0265077101F405F900FB0446
:10111000B30048048700C103690058035500030366
:101120004500BE023A008402310053022A0029021F
:10113000250004022000E4011C00C8011900AF01D1
:10114000170098011400840113007101100061015F
:10115000100051010E0043010D0036010B002B0160
:101160000B0020010B00150109000C01090003010F
:101170000800FB000800F3000800EB000700E40093
:101180000600DE000600D8000600D2000600CC00F3
:101190000500C7000500C2000500BD000400B9003D
:1011A0000400B5000400B1000400AD000400A90073
:1011B0000400A5000300A20003009F0004009B00A0
:1011C00003009800030095000200930003009000C4
:1011D00003008D0002008B000300880002008600DF
:1011E000020084000300810002007F0002007D00F5
:1011F00002007B0002007900020077000100760007
:1012000002007400020072000100710002006F0011
:1012100002006D0001006C0002006A00010069001C
:101220000200670001006600010065000100640023
:1012300002006200010061000100600001005F0027
:1012400002005D0001005C0001005B0001005A002B
:10125000010059000100580001005700010056002C
:10126000010055000100540001005300000053002C
:1012700001005200010051000100500001004F0028
:1012800001004E0000004E0001004D0001004C0026
:1012900001004B0000004B0001004A000100490022
:1012A000010048000000480001004700010046001E
:1012B0000000460001004500000045000100440018
:1012C0000100430000004300010042000000420012
:1012D00001004100000041000100400001003F000A
:1012E00000003F0001003E0000003E0001003D0004
:1012F00000003D0001003C0000003C0000003C00FC
:1013000001003B0000003B0001003A0000003A00F1
:1013100001003900000039000100380000003800E9
:1013200000003800010037000000370001003600DF
:1013300000003600000036000100350000003500D6
:1013400000003500010034000000340000003400CB
:1013500001003300000033000000330001003200C0
:1013600000003200000032000100310000003100B6
:1013700000003100010030000000300000003000AB
:1013800001002F0000002F0000002F0000002F00A0
:1013900001002E0000002E0000002E0001002D0094
:1013A00000002D0000002D0000002D0001002C0089
:1013B00000002C0000002C0000002C0001002B007D
:1013C00000002B0000002B0000002B0001002A0071
:1013D00000002A0000002A0000002A000100290065
:1013E0000000290000002900000029000000290059
:1013F000010028000000280000002800000028004C
:10140000000028000100270000002700000027003E
:101410000000270000002700010026000000260031
:101420000000260000002600000026000100250024
:101430000000250000002500000025000000250018
:10144000000025000100240000002400000024000A
:1014500000002400000024000100230000002300FD
:1014600000002300000023000000230000002300F0
:1014700000002300010022000000220000002200E2
:1014800000002200000022000000220001002100D4
:1014900000002100000021000000210000002100C8
:1014A00000002100000021000100200000002000B9
:1014B00000002000000020000000200000002000AC
:1014C000000020000000200001001F0000001F009D
:1014D00000001F0000001F0000001F0000001F0090
:1014E00000001F0001001E0000001E0000001E0082
:1014F00000001E000000393000003325000087196D
:101500000000B00F0000DB080000BD040000740202
:1015100000003F01000054524947474552454400EE
:101520006F70656E003A20007A5F6D696E00795FBA
:101530006D696E00785F6D617800785F6D696E002F
:101540005265706F7274696E6720656E6473746F34
:1015500070207374617475730A00FFFDFCFAF8F66D
:10156000F4F2F0EEECEAE9E7E5E3E1E0DEDCDAD91B
:10157000D7D5D4D2D0CFCDCBCAC8C7C5C3C2C0BFC0
:10158000BDBCBAB9B7B6B4B3B2B0AFADACAAA9A836
:10159000A6A5A4A2A1A09E9D9C9A99989795949384
:1015A00092908F8E8D8B8A898887868483828180B2
:1015B0007F7E7D7B7A797877767574737271706FC0
:1015C0006E6D6C6B6A696867666564636261605FB3
:1015D0005E5D5C5B5A59585857565554535251509A
:1015E000504F4E4D4C4B4A4A494847464645444366
:1015F000424241403F3E3E3D3C3B3B3A3938383722
:10160000363535343332323130302F2E2E2D2C2BCF
:101610002B2A29292827272625252423232221216F
:1016200020201F1E1E1D1C1C1B1B1A191918181701
:101630001616151514131312121111100F0F0E0E8A
:101640000D0D0C0C0B0A0A09090808070706060508
:101650000504040303020201000000000001000071
:101660000001000080005555550000004000333354
:101670003300AAAA2A004992240000002000C77162
:101680001C0099991900D1451700555515003BB11B
:1016900013002449120011111100000010000F0F57
:1016A0000F00E3380E0043790D00CCCC0C00C330A2
:1016B0000C00E8A20B0064210B00AAAA0A00703DEE
:1016C0000A009DD80900427B090092240900DCD35E
:1016D0000800888808001042080000000800F0C1D7
:1016E00007008787070075500700711C07003EEB55
:1016F0000600A1BC06006990060066660600703E02
:1017000006006118060017F4050074D105005BB0EF
:101710000500B29005006272050055550500783944
:101720000500B81E0500050505004EEC040087D431
:101730000400A1BD040090A7040049920400C17DEB
:101740000400EE690400C7560400444404005C32FF
:1017500004000821040041100400000004003FF0D0
:101760000300F8E0030026D20300C3C30300CCB596
:1017700003003AA803000A9B0300388E0300C081CF
:1017800003009F750300D0690300505E03001D53E2
:10179000030034480300913D03003333030016294E
:1017A0000300381F030097150300300C03000303E8
:1017B00003000BFA020049F10200BAE802005CE003
:1017C00002002DD802002DD0020059C80200B0C07E
:1017D000020031B90200DAB10200AAAA0200A0A3F5
:1017E0000200BC9C0200FA9502005C8F0200DF88B8
:1017F000020082820200457C0200277602002770E8
:101800000200436A02007C640200D05E02003F597D
:101810000200C853020000002100240027002A0013
:101820002D003000330001010000040107010A010E
:1018300000000A0B02090C0D0E080703040100004A
:101840000000000000000000000000000000000098
:101850000000000000000000000000001211100055
:101860000000000000000000000000000000000078
:101870000000000000000000000000000000000068
:101880000000000000004B494C4C45442E20002035
:101890002D20496E76616C69642065787472756478
:1018A0006572206E756D62657220210A00202050DD
:1018B0006C616E6E657242756666657242797465BA
:1018C000733A20002046726565204D656D6F727910
:1018D0003A2000436F6D70696C65643A204A616E0E
:1018E00020323020323032300A00207C20417574A2
:1018F000686F723A20323032302D30312D32302D37
:10190000416C7068614D56620A00323031382D30BA
:10191000372D333100204C6173742055706461742D
:1019200065643A20006275676669782D312E312E24
:10193000780A004D61726C696E0020536F6674778F
:101940006172652052657365740A00205761746383
:1019500068646F672052657365740A002042726F75
:10196000776E206F75742052657365740A00204588
:10197000787465726E616C2052657365740A0050EC
:101980006F77657255700A0073746172740A002073
:101990005A3A0020593A0020583A00656E64737430
:1019A0006F7073206869743A2000656E7175657593
:1019B00065696E672022004C696E65204E756D6208
:1019C0006572206973206E6F74204C617374204CB3
:1019D000696E65204E756D6265722B312C204C61ED
:1019E0007374204C696E653A20004B494C4C454459
:1019F0002E20005072696E7465722073746F70705F
:101A000065642064756520746F206572726F7273EF
:101A10002E2046697820746865206572726F722086
:101A2000616E6420757365204D39393920746F20DB
:101A3000726573746172742E202854656D706572BE
:101A400061747572652069732072657365742E20E8
:101A500053657420697420616674657220726573C1
:101A600074617274696E67290A004E6F204368655D
:101A7000636B73756D2077697468206C696E65207F
:101A80006E756D6265722C204C617374204C696EAA
:101A9000653A2000636865636B73756D206D6973CB
:101AA0006D617463682C204C617374204C696E65A1
:101AB0003A20004D3131300020496E76616C696406
:101AC0002065787472756465722000000000000063
:101AD000000000000000000000A042000048430099
:101AE000004843486F6D696E67206661696C656484
:101AF0000050726F7465637465642050696E0A00EB
:101B0000205A3A0020593A0020436F756E742058CD
:101B10003A0020453A00205A3A0020593A00583AF3
:101B2000003A004361703A0020746F6F206C6F6E52
:101B30006720657874727573696F6E207072657650
:101B4000656E7465640A0020636F6C642065787448
:101B5000727573696F6E2070726576656E746564F8
:101B60000A006563686F3A00556E6B6E6F776E2082
:101B7000636F6D6D616E643A2022000000200023C7
:101B800000260029002C002F003200000100000375
:101B9000010601090100002200250028002B002E6B
:101BA000003100340002010000050108010B0105AD
:101BB000050505070508080808020202020A0A08C6
:101BC00008040404040101010101010101030303EC
:101BD0000303030303040707070C0C0C0C0C0C0C89
:101BE0000C0202020206060606060606060B0B0B90
:101BF0000B0B0B0B0B07070A0A0A0A0A0A05050555
:101C000004040408080102102020080810204010D5
:101C100020408002010201080402010102040810B0
:101C200020408080402010080402018004020180CE
:101C300040201008040201080402010102040810F7
:101C40002040800102040810204080100804088011
:101C500010204004408010204004806265640A0027
:101C60002C2073797374656D2073746F7070656464
:101C700021204865617465725F49443A200045310E
:101C80002048656174696E67206661696C656400EF
:101C900048656174696E67206661696C65640045BA
:101CA00072726F723A00453120544845524D414C92
:101CB0002052554E41574159004245442054484511
:101CC000524D414C2052554E415741590054686580
:101CD000726D616C2052756E6177617900001E71C2
:101CE00011241FBECFEFD1E2DEBFCDBF00E00CBF9D
:101CF00012E0A0E0B2E0EEEBF9EF00E00BBF02C0B3
:101D000007900D92AA35B107D9F72FE0AAE5B2E006
:101D100001C01D92AA33B207E1F71EE0C0E7DEE082
:101D200000E006C021970109802FFE010E94A27CDD
:101D3000CF36D10780E00807A9F70E94266C0C94E3
:101D4000DD7C0C9400002F923F924F925F926F9235
:101D50007F928F929F92AF92BF92CF92DF92EF923B
:101D6000FF920F931F93CF93DF93CDB7DEB7C15888
:101D7000D1090FB6F894DEBF0FBECDBF21E020938E
:101D80000C03809130048D3409F4A1C7843511F41B
:101D90000C945727873411F00C949A2780912E04C5
:101DA00090912F048430910509F43CC544F497FDCB
:101DB0008AC720913E028230910524F51EC08A35E3
:101DC000910509F4C2C624F44C9709F460C57BC799
:101DD0008B35910509F4BDC68C35910509F073C7A3
:101DE000FFE32F2EF2E03F2EAAE1CA2EA3E0DA2E67
:101DF000E12CF12C00E010E0E9C621110C94A127A0
:101E00000C949C27222311F40C949C2711E0029738
:101E100009F010E00E94125282E50E9406528823C7
:101E200009F42AC10E948C516B017C014090FA0395
:101E30005090FB036090FC037090FD038091FE03C3
:101E40009091FF03A0910004B09101048AA39BA389
:101E5000ACA3BDA32091270330912803409129030F
:101E600050912A032EA33FA348A759A780912B0383
:101E700090912C03A0912D03B0912E038AA79BA7CC
:101E8000ACA7BDA720E030E0A901C701B6010E94C0
:101E9000AD75882309F4ACC4A30192016EA17FA1A2
:101EA00088A599A50E94AD7581110DC02AA13BA1FD
:101EB0004CA15DA16AA57BA58CA59DA50E94AD75D1
:101EC000882309F495C420E030E0A901C701B601D8
:101ED0000E94AD75881F8827881F181309C020E04D
:101EE00030E040E85FE32AAF3BAF4CAF5DAF08C0E6
:101EF00080E090E0A0E8BFEB8AAF9BAFACAFBDAF96
:101F0000A30192016EA17FA188A599A50E94AD7938
:101F10006AAB7BAB8CAB9DAB2AA13BA14CA15DA175
:101F20006AA57BA58CA59DA50E94AD796EAB7FAB04
:101F300088AF99AF2AA93BA94CA95DA9CA01B901EB
:101F40000E9412764B015C012EA93FA948AD59AD04
:101F5000CA01B9010E9412769B01AC01C501B4010E
:101F60000E94AE790E94197C6EA77FA788AB99ABBF
:101F700020E030E040E05FE30E9412764B015C011C
:101F8000A7019601C701B6010E9412766B017C0180
:101F9000A5019401C501B4010E9412769B01AC0118
:101FA000C701B6010E94AD790E94197C9B01AC016A
:101FB0006AAD7BAD8CAD9DAD0E9412764B015C018C
:101FC0002EA13FA148A559A5C301B2010E94AE7937
:101FD00020E030E040E05FE30E9412766B017C017C
:101FE0006EA97FA988AD99AD90582EA53FA548A9A7
:101FF00059A90E948A7A9B01AC01C501B4010E94D3
:1020000012769B01AC01C701B6010E94AE79A30113
:1020100092010E94AD796B017C012AA53BA54CA5DC
:102020005DA56AA17BA18CA19DA10E94AE7920E053
:1020300030E040E05FE30E9412762B013C012EA5C8
:102040003FA548A959A96AA97BA98CA99DA90E9465
:102050008A7A9B01AC01C501B4010E9412769B01F2
:10206000AC01C301B2010E94AE792AA13BA14CA1EF
:102070005DA10E94AD7914C089E40E9406528823B4
:1020800029F00E948C516B017C0103C0C12CD12C22
:1020900076018AE40E9406528823D9F00E948C516E
:1020A0006AA77BA78CA79DA720E030E0A901C70104
:1020B000B6010E94AD7581111AC020E030E0A9017F
:1020C0006AA57BA58CA59DA50E94AD7581110FC049
:1020D0008FC320E030E0A901C701B6010E94AD75B1
:1020E000882309F485C31AA61BA61CA61DA6A70152
:1020F000960150582AA33BA34CA35DA38AA59BA598
:10210000ACA5BDA5B0588EA39FA3A8A7B9A7CA0127
:10211000B9010E9412764B015C012EA13FA148A596
:1021200059A5CA01B9010E9412769B01AC01C501F3
:10213000B4010E94AE790E94197C2A966CAF7DAFE3
:102140008EAF9FAF2A972091FA033091FB03409105
:10215000FC035091FD032EA73FA748AB59ABA70145
:1021600096016EA57FA588A999A90E94AE796AAF4C
:102170007BAF8CAF9DAF8091FE039091FF03A09148
:102180000004B09101048AAB9BABACABBDAB2AA5FC
:102190003BA54CA55DA5BC01CD010E94AE792E9654
:1021A0006CAF7DAF8EAF9FAF2E97209127033091FC
:1021B00028034091290350912A032EAB3FAB48AF2F
:1021C00059AF2AAD3BAD4CAD5DAD6EA97FA988ADD1
:1021D00099AD0E94AD796B017C0180912B039091A8
:1021E0002C03A0912D03B0912E0322968CAF9DAFAE
:1021F000AEAFBFAF22972E962CAD3DAD4EAD5FADCD
:102200002E97BC01CD010E94AD794B015C0120915C
:102210000204309103044091040450910504269671
:102220002CAF3DAF4EAF5FAF269760912F037091FB
:10223000300380913103909132030E94AD792B01DC
:102240003C018091330390913403A0913503B09108
:10225000360366968CAF9DAFAEAFBFAF6697209149
:1022600006043091070440910804509109046296D5
:102270002CAF3DAF4EAF5FAF6297A70196016AA149
:102280007BA18CA19DA10E9412766A966CAF7DAF56
:102290008EAF9FAF6A97A50194016EA17FA188A51B
:1022A00099A50E9412769B01AC016A966CAD7DAD3A
:1022B0008EAD9FAD6A970E94AE796A966CAF7DAF86
:1022C0008EAF9FAF6A97A50194016AA17BA18CA1F3
:1022D0009DA10E9412764B015C01A70196016EA19F
:1022E0007FA188A599A50E9412769B01AC01C5012A
:1022F000B4010E94AD796A962CAD3DAD4EAD5FAD97
:102300006A970E94217A6B017C0120E030E0A901EC
:102310000E94AD7587FF0AC02BED3FE049EC50E409
:10232000C701B6010E94AE796B017C01112351F007
:102330002BED3FE049EC50E4C701B6010E94AD79B6
:102340006B017C0120E030E0A901C701B6010E94C9
:10235000AD75811122C02EA93FA948AD59AD6EA51A
:102360007FA588A999A90E94AD75811116C02296F2
:102370002CAD3DAD4EAD5FAD22976AA97BA98CA96E
:102380009DA90E94AD75811108C00BEDC02E0FE014
:10239000D02E09ECE02E00E4F02EA70196012A963B
:1023A0006CAD7DAD8EAD9FAD2A970E9412764B012C
:1023B0005C0120E030E0A901C301B2010E94AD75CB
:1023C0008823C9F0A5019401C501B4010E941276C9
:1023D0004B015C01A3019201C301B2010E9412767C
:1023E0009B01AC01C501B4010E94AE790E94197C29
:1023F0004B015C010DC020E030E0A901C501B40132
:102400000E94D47B87FF04C0B7FAB094B7F8B094A9
:102410002FE632E143E85AE3C501B4010E94AD75ED
:1024200087FF02C00C949C27C501B4010E94237B46
:102430000E94F77A1B01672B19F422242394312C74
:10244000B10180E090E00E94B1754B015C019B01FD
:10245000AC01C701B6010E948A7A6EA77FA788AB3C
:1024600099ABA5019401C301B2010E948A7A2A9610
:102470006CAF7DAF8EAF9FAF2A9762962CAD3DAD0E
:102480004EAD5FAD629766966CAD7DAD8EAD9FAD86
:1024900066970E94AD79A50194010E948A7A66969A
:1024A0006CAF7DAF8EAF9FAF66972EA53FA548A9B5
:1024B00059A9CA01B9010E94127620E030E040E03B
:1024C0005FE30E9412769B01AC0160E070E080E85F
:1024D0009FE30E94AD7922966CAF7DAF8EAF9FAF28
:1024E000229726968CAD9DADAEADBFAD2697898760
:1024F0009A87AB87BC8762962CAD3DAD4EAD5FAD84
:1025000062972D873E874F87588B6091100270919C
:102510001102072E000C880B990B0E94B3752091B5
:1025200000023091010240910202509103020E9488
:1025300012762AE037ED43E25CE30E9412766E8F5A
:102540007F8F88A399A30E94F1369B01AC01285389
:102550003F4F4F4F5F4F26962CAF3DAF4EAF5FAF13
:1025600026974AA05BA06CA07DA041E050E05FAB45
:102570004EAB59E15AAB2EA93FA92215330509F4F8
:1025800010C10E9400690E94F136DC01CB01269641
:102590002CAD3DAD4EAD5FAD2697821B930BA40BCA
:1025A000B50BB7FD10C00E94F1369B01AC0128535A
:1025B0003F4F4F4F5F4F26962CAF3DAF4EAF5FAFB3
:1025C00026970E944E323AA931503AAB332309F490
:1025D00041C022962CAD3DAD4EAD5FAD22976EA1B0
:1025E0007FA188A599A50E9412766B017C012EA57A
:1025F0003FA548A959A9B201C3010E941276A701BB
:1026000096010E94AE797B018C0122962CAD3DADE6
:102610004EAD5FAD2297B201C3010E9412764B010D
:102620005C012EA53FA548A959A96EA17FA188A547
:1026300099A50E9412769B01AC01C501B4010E94CC
:10264000AD792B013C01C701D8018EA39FA3A8A798
:10265000B9A751C04EA95FA9BA0180E090E00E94DD
:10266000B1752EA53FA548A959A90E9412764B0124
:102670005C010E94877A6B017C01C501B4010E9454
:102680000F7C4B015C01A70196016AA17BA18CA183
:102690009DA10E9412762B013C01A50194016AA51F
:1026A0007BA58CA59DA50E9412769B01AC01C30160
:1026B000B2010E94AE792B013C01A50194016AA1EF
:1026C0007BA18CA19DA10E9412764B015C01A70108
:1026D00096016AA57BA58CA59DA50E9412769B01FB
:1026E000AC01C501B4010E94AD796EA37FA388A798
:1026F00099A759E15AAB9201A3016AAD7BAD8CADAC
:102700009DAD0E94AE7969837A838B839C832EA1D1
:102710003FA148A559A52E966CAD7DAD8EAD9FAD60
:102720002E970E94AE796D837E838F8398872A9639
:102730002CAD3DAD4EAD5FAD2A9769857A858B8511
:102740009C850E94AE7969877A878B879C8766967D
:102750002CAD3DAD4EAD5FAD66976D857E858F85A9
:1027600098890E94AE796D877E878F87988BE090DD
:1027700072021E8A1F8A188E198ECE0146966C012F
:102780008E01025E1F4F9E01235F3F4FAE01475FE8
:102790005F4FBE016B5F7F4F45970E94905681113E
:1027A00021C0E09072021A8E1B8E1C8E1D8EDE01DF
:1027B0005A966D018E01025E1F4F23E333E04FE214
:1027C00053E06BE273E087E293E00E94905680E171
:1027D000E7E2F3E0AAEFB3E001900D928A95E1F70A
:1027E0000C949C27EEA9FFA93196FFABEEABC3CEAC
:1027F000EFE9FCE184918F010F5F1F4F882321F0E7
:102800000E949252F801F6CFE3E1F2E084918F0149
:102810000F5F1F4F882311F40C949C270E94925243
:10282000F801F4CF80E50E940652882329F00E9427
:102830004C516B017C0103C0C12CD12C760183E586
:102840000E940652882361F00E948C5120E030E003
:102850004AE754E40E9412760E94F77A6B017C01E9
:102860000E94164A0E94F136C60ED71EE81EF91EB7
:102870000E94F136DC01CB018C199D09AE09BF091C
:10288000B7FD02C00C949C270E944E32F1CF80917C
:10289000ED038770873071F48FE40E94065288231D
:1028A00019F00E947D5103C08FE40E94BF51811135
:1028B0000C949C270E94164A80910002909101027C
:1028C000A0910202B091030280937A0290937B025E
:1028D000A0937C02B0937D0280911002909111022E
:1028E000909379028093780284E690E090931102AD
:1028F0008093100211E01093EC0388E50E94BF5111
:10290000282E89E50E94BF51082F8AE50E94BF51F9
:10291000382E211004C0011104C0182705C0011170
:1029200002C010E001C0182F80E1EAEFF3E0A7E257
:10293000B3E001900D928A95E1F782E50E9406527C
:10294000882369F00E948C516B017C0120E030E00B
:10295000A9010E94AD75882309F4BFC006C0C12C2F
:10296000D12CB0EAEB2EB0E4FB2E111105C02110E2
:1029700003C0002309F4C2C0C0922F03D0923003D9
:10298000E0923103F09232038090020490900304AD
:10299000A0900404B0900504A5019401C701B601FC
:1029A0000E94D47B18160CF098C08091FE03909181
:1029B000FF03A0910004B09101048AA39BA3ACA3E0
:1029C000BDA32091FA033091FB034091FC03509189
:1029D000FD032EA33FA348A759A780910002909121
:1029E0000102A0910202B09103028AA79BA7ACA7A3
:1029F000BDA7E1E4F8E04590559065907490A7017B
:102A00009601C501B4010E94AD7587FF12C04092C6
:102A10000002509201026092020270920302C09280
:102A20000204D0920304E0920404F09205040E9490
:102A3000085085E595E5A5E0B3E480930002909306
:102A40000102A0930202B09303022EA13FA148A568
:102A500059A52093FA033093FB034093FC03509352
:102A6000FD038AA19BA1ACA1BDA18093FE0390931D
:102A7000FF03A0930004B09301040E940850A70133
:102A80009601609102047091030480910404909176
:102A900005040E94D47B181694F4409200025092D0
:102AA00001026092020270920302C0920204D0926C
:102AB0000304E0920404F09205040E9408500E946E
:102AC000164A2AA53BA54CA55DA52093000230938C
:102AD00001024093020250930302111105C021101C
:102AE00003C0011106C00AC080E00E941431112306
:102AF000C1F381E00E941431111102C0332019F09A
:102B000082E00E9414310E9473508091EB03809305
:102B1000EC0380917A0290917B02A0917C02B091AB
:102B20007D028093000290930102A0930202B09371
:102B30000302809178029091790290931102809320
:102B400010020E9431550C949C27109277020C942D
:102B50009C27209377020C949C270E948C512B0178
:102B60003C01133059F0F701E65AFD4F20813181C5
:102B7000428153810E94AD792B013C01F701E6505F
:102B8000FC4F2081318142815381C301B2010E94F7
:102B9000AD794B015C012DEB37E346E855EB0E9424
:102BA000D47B87FD1BC02DEB37E346E855E3C50119
:102BB000B4010E94AD7518168CF01F5FB4E0CB0E07
:102BC000D11CE4E0EE0EF11C143039F1D1018D91ED
:102BD0001D010E940652882381F3BFCF133051F4A8
:102BE000409206045092070460920804709209040F
:102BF00001E0E3CFA5019401F6016081718182813A
:102C000093810E94AE79D6016D937D938D939C93B1
:102C10001397812F0E943350D0CF002309F44FC067
:102C200020E030E0A90160910604709107048091D2
:102C30000804909109040E94AE792091BD0C309156
:102C4000BE0C4091BF0C5091C00C0E9412760E94A5
:102C5000DF7B6093280F7093290F80932A0F909346
:102C60002B0F9091060F8091070F981719F00E9473
:102C7000B84925C00E94164A80916F0081FB9927B0
:102C800090F981FF05C080916F008D7F80936F0068
:102C90004091280F5091290F60912A0F70912B0FAE
:102CA0004093E60C5093E70C6093E80C7093E90CAA
:102CB000992329F080916F00826080936F000E94B9
:102CC00031550C949C270E9420670C949C2780917E
:102CD0002E0490912F048937910509F471C70CF0E7
:102CE0008EC08936910509F443C30CF04BC08D3476
:102CF000910509F458C2CCF48F31910509F447C10C
:102D00004CF48131910509F43CC1429709F493C513
:102D10000C9454278B34910509F42CC20CF02EC26C
:102D20008A9709F4D7C10C9454278435910509F486
:102D300082C5D4F48235910509F474C50CF076C5CA
:102D40008135910511F00C9454270E944E3C0E944D
:102D5000294B109298061092970610929A0610929C
:102D6000990600E010E047C58C35910509F4B3C51C
:102D70008836910509F41BC28535910511F00C9434
:102D800054278EC58037910509F4C2C2B4F48C363D
:102D9000910509F4B9C254F48A36910509F4ECC4DA
:102DA0008B36910509F40FC50C9454278E36910586
:102DB00009F426C20CF41EC336C28537910511F4FE
:102DC0000C949C2774F48237910509F40DC60CF419
:102DD000A3C28337910511F00C945427E7E8F3E080
:102DE00041C68737910509F4E0C60CF0E2C60091B0
:102DF0002C0410912D0483E0D12C40E095C68E3236
:102E0000F1E09F0711F40C948E220CF04AC08C3C28
:102E1000910509F465C7ECF48E3B910509F497C45C
:102E200054F48C38910509F476C48B39910509F472
:102E3000BAC20C945427893C910509F40FC78B3C06
:102E4000910509F42EC7883C910511F00C94542784
:102E5000BDC68C3D910511F40C94472184F48E3C41
:102E6000910511F40C94551F0CF4B2C7833D9105E4
:102E700011F00C945427E2E6FBE10C948520823E8D
:102E8000910511F40C94C2218D3231E0930711F4B5
:102E90000C94ED218D3D910511F00C9454270C9468
:102EA0005421853F41E0940711F40C9458265CF5B9
:102EB0008039A1E09A0711F40C943C267CF48F32FF
:102EC000E1E09E0711F40C94E2228336914011F068
:102ED0000C945427EFE9FCE10C9425268C3A21E070
:102EE000920711F40C94781F843F31E0930711F49A
:102EF0000C943F268A39914011F00C9454270E947B
:102F00007C500C949C278B3853E0950711F40C945B
:102F10009C2784F4873FB1E09B0711F40C94602652
:102F200014F40C945D268A38934011F40C946B26AB
:102F30000C945427803923E0920711F40C94CC268A
:102F4000873E33E0930711F40C9441278F38934068
:102F500011F00C94542760918F0E80E00E9452393A
:102F60006091160E81E00E94523960919D0D82E0C1
:102F70000E9452396091240D86E00E9452390C94CF
:102F80009C2717981698159814980C949C270E94C3
:102F9000026AECE3CE2ED12CE12CF12CA701960194
:102FA0000E947279762E672ECA01B901A701960197
:102FB0000E9472796B017C01CA01B90128E130E0FD
:102FC00040E050E00E9472794B015C01C9016DE65E
:102FD00071E00E94727C8E010F5F1F4F61157105B9
:102FE00099F06F927F92DF92CF929F928F929F93F0
:102FF0008F937F936F9381E592E09F938F931F93BD
:103000000F930E947E7526C0009789F06F927F9281
:10301000DF92CF929F928F929F938F9381E492E061
:103020009F938F931F930F930E947E7513C08114FB
:103030009104A104B104B1F06F927F92DF92CF921C
:103040009F928F9285E392E09F938F931F930F93AC
:103050000E947E750FB6F894DEBF0FBECDBFE2E6CC
:10306000FBE123C0C114D104E104F10469F06F92C3
:103070007F92DF92CF928DE292E09F938F931F9386
:103080000F930E947E75E6CF6F927F9289E292E065
:103090009F938F931F930F930E947E750F900F90B5
:1030A0000F900F900F900F90DACF84917F013FEF38
:1030B000E31AF30A882321F00E949252F701F5CF18
:1030C000B80185E692E00E9426498AE00E94925269
:1030D0000C949C2783E50E940652882311F40C94DB
:1030E0009C270E946C51E82E80E50E94065288239E
:1030F00039F00E946C51182F87FF03C00C949C2755
:103100001DE089E40E940652882349F00E947D5107
:10311000811111C0ECEDF4E08DE28E0F07C089E45F
:103120000E94BF51F5CF31968E1729F09491191353
:10313000FACF0C942F2A61E0812F0E94854F6E2DCB
:10314000812F0E94564FF12CB701812F0E94B93573
:10315000163051F0183011F00C949C27F09298061C
:10316000E09297060C949C27F0929A06E0929906BA
:103170000C949C270E94366A0C949C278091EA0349
:10318000813011F00C949C2782E08093EA030E9426
:10319000F1366093E2037093E3038093E40390932A
:1031A000E5030C949C270E946F6A0C949C2788E688
:1031B00090E00E949C5481110C949C278091B00C4B
:1031C00083FF02C00C949C2783E50E94065288234B
:1031D00099F00E948C510E94F27ACB010E94E46B1C
:1031E0000E948C5120E030E04AEA52E40E94AD7522
:1031F000181614F00E946F6A0E94F66B0C949C27BC
:103200008EE40E940652882311F40C949C270E949D
:103210005C5160931B0D70931C0D80931D0D90935A
:103220001E0D0C949C2783E50E94BF51882359F002
:1032300083E50E940652882319F00E946C5101C058
:1032400080E08093B00CE2E6FBE184918F010F5F98
:103250001F4F882321F00E949252F801F6CFE0E838
:10326000F2E084918F010F5F1F4F882321F00E94AD
:103270009252F801F6CF8091B00C8823A1F162E759
:10328000C62E62E0D62EE12CF12C20E08091B00C0D
:1032900090E00E2C02C0959587950A94E2F780FF86
:1032A00017C0BB24B394B20E222319F08CE20E9403
:1032B0009252F60125913491F901849189010F5FB1
:1032C0001F4F882321F00E9492529801F5CF2B2D99
:1032D000FFEFEF1AFF0A32E0C30ED11C45E0E416FF
:1032E000F104A1F60CC0ECE7F2E084918F010F5FCE
:1032F0001F4F882321F00E949252F801F6CF8AE0F6
:103300000E9492520C949C27109212020C949C27BB
:1033100087E892E00E941E3283E50E9406528823CD
:1033200069F00E946C518D3320F4809313020C9449
:103330009C278CE3809313020C949C27E2E6FBE12C
:1033400084918F010F5F1F4F882321F00E949252BA
:10335000F801F6CF4091130250E060E070E080E9A0
:1033600092E00E94D3488AE00E9492520C949C27DB
:1033700089E690E00E949C54811111C0E7E9F2E0D7
:1033800084918F010F5F1F4F882321F00E9492527A
:10339000F801F6CF0E94143A8AE00E9492521092ED
:1033A0000C030C94FF2B83E50E940652882311F432
:1033B0000C949C270E946C51182F8D3308F01CE34D
:1033C000109319030E94F1366B017C01212F30E02C
:1033D000A8EEB3E00E949E79C60ED71EE81EF91E25
:1033E000C0921503D0921603E0921703F0921803CF
:1033F0000C949C278DE690E00E949C5481110C94C3
:103400009C278091B00C83FF02C00C949C2783E51D
:103410000E9406528AAF811105C082E50E940652C1
:103420008823B1F00E948C510E94F27ACB010E9455
:10343000E46B0E948C5120E030E04AEA52E40E94A2
:10344000AD75181614F40C948B280E946F6A81E0F5
:10345000ED968FAFED970E94F66BED968FADED97E1
:10346000882311F40C949C2781E0809312021EA201
:103470001FA218A619A62E961CAE1DAE1EAE1FAE1C
:103480002E971AA21EAE5CE323965FAF23978CE1C2
:103490002F968FAF2F9796E427969FAF2797C12C33
:1034A000D12C40E8E42E5FEBF52E812C912C5401B9
:1034B0006091500370915103072E000C880B990BFB
:1034C0000E94B375162F072F782E692E262F372FBF
:1034D000482F592FB601C7010E94AD758823D9F036
:1034E00020919C0630919D0640919E0650919F062A
:1034F000612F702F872D962D0E94AD75881F88270C
:10350000881F8AA3AAADAA2351F0882341F0809195
:1035100012020C949C271C2D0D2D7E2C6F2C0E94CA
:10352000F1366B017C01DC01CB012E962CAD3DAD5B
:103530004EAD5FAD2E97821B930BA40BB50BB7FD61
:103540003DC0D701C60188519C4FAF4FBF4F2E964B
:103550008CAF9DAFAEAFBFAF2E970E94143AEAE991
:10356000F2E084912F019FEF491A590A882321F034
:103570000E949252F201F5CF81149104A104B1048A
:10358000B9F0D501C401805F984DAF4FBF4FBC016A
:10359000CD016C197D098E099F0928EE33E040E0CA
:1035A00050E00E947279CA01B9010E94D85403C048
:1035B0008FE30E9492528AE00E9492520E944E3201
:1035C0000E94F13660930D0370930E0380930F03F6
:1035D00090931003A0919C06AAA7B0919D06BEA748
:1035E000E0919E06EAABF0919F06FEAB9D01AF0114
:1035F000612F702F872D962D0E94AD791B012C0114
:1036000020E030E0A9010E94D47B87FF04C057FA74
:10361000509457F8509481149104A104B10459F4C2
:1036200020E030E040E85FE3C201B1010E94AD75E7
:1036300087FF0DC00AC020E030E040E450E4C20142
:10364000B1010E94D47B181614F4460157012AA137
:10365000222309F444C08EA19FA1A8A5B9A5892B56
:103660008A2B8B2B61F0D701C6012EA13FA148A563
:1036700059A5821B930BA40BB50BB7FD30C02AA52F
:103680003EA54AA95EA96EAD23967FAD23972F96DE
:103690008FAD2F9727969FAD27970E94AD7920E099
:1036A00030E040EC5FE30E94AD7587FD30CFD7017D
:1036B000C601805A9541AF4FBF4F8EA39FA3A8A7C5
:1036C000B9A79AA59EAFAEA52396AFAF2397BAA987
:1036D0002F96BFAF2F97EEA92796EFAF2797809130
:1036E0001202882309F413CF81149104A104B104B8
:1036F00029F4C12ED02EE72CF62CDACEF0E1CF1A29
:10370000F7E2DF0AE108F108C818D908EA08FB085F
:10371000F7FEFDCEEECF8091B00C83FF02C00C947B
:103720009C2783E50E940652882311F40C949C2761
:103730000E948C510E94F27A6035710514F060E5A8
:1037400070E070934F0360934E030C949C2780911C
:10375000B00C83FF02C00C949C2783E50E940652A4
:103760008AAF81110C948F2882E50E940652811144
:103770000C948F280C949C2780E50E940652882385
:1037800041F00E946C51182F823010F00C949C274D
:1037900001C010E083E50E940652882319F00E94C0
:1037A0005C5102C06FEF70E0E12FF0E06F3F7105F8
:1037B00010F06FEF70E0EE0FFF1FE956F94F7183C5
:1037C00060830C949C2780E50E940652882341F078
:1037D0000E945C516230710510F00C949C2702C06D
:1037E00060E070E0660F771FFB01E956F94F118228
:1037F00010820C949C2762E370E080E090E00E94CD
:1038000082360E9400690F5F1F4F0331110599F73F
:1038100062E370E080E090E00E9482360E940069DE
:103820000C949C27109276020C949C2781E0809344
:1038300076020C949C2783E50E9406528823A1F00F
:103840000E948C5120E030E04AE754E40E94127656
:103850000E94F77A60931402709315028093160207
:10386000909317020C949C2788E50E94BF51811108
:103870000C94042A89E50E94BF5181110C94042AFA
:103880008AE50E94BF5181110C94042A85E40E94AC
:10389000BF5181110C94042A0E94294B0C949C273F
:1038A00083E50E94BF51882311F40C949C270E9449
:1038B0008C5120E030E04AE754E40E9412760E94E6
:1038C000F77A60931103709312038093130390931C
:1038D00014030C949C271FE3C12E12E0D12E01EBA0
:1038E000E02E0CE0F02E10E0D6018D916D010E94CB
:1038F000BF51882309F46DC0133009F063C00E94E2
:103900008C514B015C0120E030E040EA51E40E9420
:10391000AD7587FF4EC0A50194016091BD0C7091FB
:10392000BE0C8091BF0C9091C00C0E948A7A2B0132
:103930003C019B01AC016091470670914806809163
:10394000490690914A060E9412766093470670934A
:1039500048068093490690934A06A301920160911C
:103960007706709178068091790690917A060E9488
:103970001276609377067093780680937906909319
:103980007A06609157067091580680915906909179
:103990005A060E94B175A30192010E9412760E94FC
:1039A000F77A609357067093580680935906909360
:1039B0005A068092BD0C9092BE0CA092BF0CB092A1
:1039C000C00C07C00E948C51F70160837183828311
:1039D00093831F5FF4E0EF0EF11C143009F084CFE5
:1039E0000E94FF4A0C949C270E94164A83E50E947D
:1039F0000652882309F463C90E945C516230710544
:103A000009F05DC90E940C358BE50E9492526091CD
:103A1000000370910103809102039091030342E03F
:103A20000E94F555409104035091050360910603EF
:103A30007091070385EA92E00E94F04840910803E4
:103A40005091090360910A0370910B0382EA92E09E
:103A50000E94F0488DE50E9492528AE00E949252A4
:103A60000C949C2784918F010F5F1F4F882321F0B6
:103A70000E949252F801F6CF60E087E793E00E943F
:103A8000F25460E080E793E00E94F25461E085E642
:103A900093E00E94F25461E085E593E00E94F254C5
:103AA00060E08CE493E00E94F25461E082E493E0F1
:103AB0000E94F25460E088E393E00E94F25460E0D8
:103AC00080E393E00E94F25460E082E293E00E947F
:103AD000F25460E084E193E00E94F25460E085E0FB
:103AE00093E00E94F25460E087EF92E00E94F2546B
:103AF00060E081EE92E00E94F25460E080ED92E09E
:103B00000E94F25460E08BEB92E00E94F25460E07D
:103B100088EA92E00E94F2540C949C27D8019C9170
:103B2000292F2B7F213419F08150C1F717C011962E
:103B30002C912133C9F7913421F0953421F441E0DF
:103B400002C0DD24D39498012E5F3F4F89012F5F7F
:103B50003F4FF80190819032C9F3E6CF442369F0DA
:103B6000E2E6FBE184917F012FEFE21AF20A88235B
:103B700021F00E949252F701F5CFDD2069F0E4E5D3
:103B8000F4E084917F013FEFE31AF30A882321F0E8
:103B90000E949252F701F5CFD8018D918D018823B3
:103BA00009F4ADCB0E949252F7CF0E94A84E0C941C
:103BB0009C2781E08093EC038093EB030C949C277B
:103BC0001092EC031092EB030C949C2788EC90E08D
:103BD0000E949C5481110C949C2784E40E94BF5144
:103BE0008823C1F10E948C5111E020E030E0A9014E
:103BF0000E94AD75811101C010E01093B90311232B
:103C000049F10E948C51E0914903B4E0EB9FF0012F
:103C10001124E254FC4F608371838283938320E0FC
:103C200030E0A9016091BE037091BF038091C00391
:103C30009091C1030E94AD7581110CC080E090E0AD
:103C4000A0E4B0E48093BE039093BF03A093C003AD
:103C5000B093C1030E94674B0C949C27A2ECEA2E00
:103C6000A3E0FA2E0FE312E0B4E0DB2ED00EF80151
:103C700081918F010E94BF51882351F00E948C5185
:103C80000E94F77AD7016D937D938D939C93139740
:103C9000B4E0EB0EF11CD012EACF0E944E490C9416
:103CA0009C27EBE6EE2EE6E0FE2E0FE312E0F4E0BA
:103CB000DF2ED00EF80181918F010E94BF51882321
:103CC00041F00E948C51D7016D937D938D939C930D
:103CD0001397B4E0EB0EF11CD012ECCF0C949C27A0
:103CE00083E50E9406528823A1F00E948C516093C4
:103CF00063067093640680936506909366066093EE
:103D00005F0670936006809361069093620610E0F0
:103D100001C011E080E50E940652882359F00E94FC
:103D20008C5160936306709364068093650690934C
:103D3000660610E082E50E940652882359F00E9430
:103D40008C51609367067093680680936906909320
:103D50006A0610E084E50E940652882361F00E9402
:103D60008C5160935F067093600680936106909318
:103D700062060C949C27112311F40C949C2740910B
:103D800063065091640660916506709166068EE543
:103D900094E00E94F0484091670650916806609157
:103DA000690670916A068BE594E00E94F0484091A4
:103DB0005F0650916006609161067091620688E529
:103DC00094E00E94F0488AE00E9492520C949C2752
:103DD00081E50E94BF51882351F00E944C516093AD
:103DE0007B0670937C0680937D0690937E0683E528
:103DF0000E94BF51882351F00E948C51609393061A
:103E000070939406809395069093960684E50E949D
:103E1000BF51882351F00E948C5160938F0670939C
:103E20009006809391069093920688E50E94BF5178
:103E3000882351F00E948C5160933B0670933C069E
:103E400080933D0690933E0689E50E94BF518823EA
:103E500051F00E948C5160933F067093400680930E
:103E60004106909342068AE50E94BF51882351F093
:103E70000E948C51609343067093440680934506DC
:103E80009093460685E40E94BF51882311F40C9458
:103E90009C270E948C51609347067093480680933C
:103EA000490690934A060C949C276FE3C62E62E065
:103EB000D62E7EEEE72E73E0F72E10E0F60181910C
:103EC0006F010E94BF51882359F00E948C51D70185
:103ED0006D937D938D939C931397812F0E94335004
:103EE0001F5FB4E0EB0EF11C133041F70C945F162A
:103EF00080912603982F917011E0D92ED12681FB55
:103F0000002700F9012782FB882780F91827D110A4
:103F100002C0002319F0E2E6FBE114C01111FBCF4F
:103F20005DE2852E58E0952E8AEF93E09BA38AA34D
:103F3000DE0111965D0106E818E01D01B3E0B00F47
:103F4000BEA352C084917F012FEFE21AF20A8823A8
:103F500021F00E949252F701F5CFECE7F4E0849152
:103F60007F013FEFE31AF30A882321F00E94925267
:103F7000F701F5CFDD2069F0EAE7F4E084917F01F5
:103F80004FEFE41AF40A882321F00E949252F701BD
:103F9000F5CF002369F0E8E7F4E084917F015FEF5B
:103FA000E51AF50A882321F00E949252F701F5CF15
:103FB000111103C0EEE6F4E00CC0E6E7F4E08491F2
:103FC0008F010F5F1F4F8823A9F30E949252F801BF
:103FD000F6CF84918F010F5F1F4F882309F4ACC780
:103FE0000E949252F801F5CFF40165917591859187
:103FF0009491EAA1FBA1C190D190E190F190FBA333
:10400000EAA3A70196010E94AD792B013C0120E0B3
:1040100030E040EA51EC0E94D47B87FD11C020E0E3
:1040200030E040EA51E4C301B2010E94AD751816B8
:104030003CF0D1014D925D926D927C9213970EC02F
:10404000F80184911816ACF7F7FAF094F7F8F094A9
:10405000D101CD92DD92ED92FC921397D101CD90DA
:10406000DD90ED90FD901D0120E030E040EA51EC44
:10407000C701B6010E94D47B87FF03C0EFE9FCE1D2
:104080000BC020E030E040EA51E4C701B6010E94D5
:10409000AD751816C4F4F2CF84918F010F5F1F4FD6
:1040A000882321F00E949252F801F6CFE2E8F4E072
:1040B00084918F010F5F1F4F882309F43DC70E9431
:1040C0009252F801F5CFB4E08B0E911C0F5F1F4F99
:1040D000EEA1E01389CF4EEEE42E43E0F42E10E083
:1040E000F50181919191A191B1915F01F7018193C6
:1040F0009193A193B1937F01812F0E9433501F5F51
:10410000133071F70E94315517C784918F010F5FEB
:104110001F4F882321F00E949252F801F6CFE4EC61
:10412000F4E084918F010F5F1F4F882321F00E94DC
:104130009252F801F6CFE0ECF4E084918F010F5F2A
:104140001F4F882321F00E949252F801F6CFE8EB2E
:10415000F4E084918F010F5F1F4F882321F00E94AC
:104160009252F801F6CF40905A0250905B02609054
:104170005C0270905D02209166023091670240916E
:10418000680250916902C301B2010E94AE79AB018D
:10419000BC0186EB94E00E94F04880905E02909013
:1041A0005F02A0906002B090610220916A0230919B
:1041B0006B0240916C0250916D02C501B4010E94E6
:1041C000AE79AB01BC0183EB94E00E94F048C09053
:1041D0006202D0906302E0906402F0906502209148
:1041E0006E0230916F024091700250917102C701CE
:1041F000B6010E94AE79AB01BC0180EB94E00E9455
:10420000F048E8EAF4E084918F010F5F1F4F8823A4
:1042100021F00E949252F801F6CF209104023091D1
:1042200005024091060250910702C301B2010E94AB
:10423000AE79AB01BC0186EA94E00E94F04820917F
:1042400008023091090240910A0250910B02C50107
:10425000B4010E94AE79AB01BC0183EA94E00E94F4
:10426000F04820910C0230910D0240910E025091C5
:104270000F02C701B6010E94AE79AB01BC0180EA12
:1042800094E00E94F0488AE00E94925255C683E56D
:104290000E940652882309F44FC60E945C51709315
:1042A00011026093100248C68DED90E00E949C546C
:1042B000811142C683E50E9406528823D9F10091FC
:1042C000490310E00E945C51000F111FF801EC5DE2
:1042D000FD4F718360838091490390E08C01000F52
:1042E000111F000F111F9801285C3D4F7901880FA5
:1042F000991FFC01EC5DFD4F60817181072E000C60
:10430000880B990B0E94B3752AE037ED43E25CE31A
:104310000E941276F801E654FC4F208131814281DF
:1043200053810E941276D7016D937D938D939C9358
:10433000139702C6E2E6FBE184918F010F5F1F4FE6
:10434000882321F00E949252F801F6CF85E40E9462
:10435000925280914903805D0E949252E0914903FC
:10436000F0E0EE0FFF1FEC5DFD4F6081718184ED89
:1043700094E00E940D4985E20E9492528AE00E94D8
:104380009252DAC580E50E94BF51882309F4D4C552
:104390000E945C516B017C0183E50E9406528823D8
:1043A00021F00E945C518B0102C00FEF1FEFC8018A
:1043B0000196039708F0C0C5D7FCBEC59C2DECED57
:1043C000F4E08DE28E0F2491921711F40C942F2AB1
:1043D00031968E13F8CF0C94322A85E40E9406524F
:1043E000811110C080E50E94BF51882391F00E9486
:1043F0008C516093EE0C7093EF0C8093F00C9093C3
:10440000F10C07C00E946C51882361F3EFE9FCE1D5
:104410006EC089E40E94BF51882381F00E948C51B4
:104420002CEA35EC47E25EE30E9412766093EA0CD8
:104430007093EB0C8093EC0C9093ED0C84E40E9451
:10444000BF51882381F00E948C512CEA35EC47E261
:104450005EE30E948A7A6093F20C7093F30C80936F
:10446000F40C9093F50CE2E6FBE184918F010F5F71
:104470001F4F882321F00E949252F801F6CF4091FD
:10448000EE0C5091EF0C6091F00C7091F10C81E109
:1044900095E00E94F0482CEA35EC47E25EE360913B
:1044A000EA0C7091EB0C8091EC0C9091ED0C0E9459
:1044B0008A7AAB01BC018DE095E00E94F0482CEABD
:1044C00035EC47E25EE36091F20C7091F30C809161
:1044D000F40C9091F50C0E941276AB01BC0189E0BE
:1044E00095E00E94F0488AE00E94925225C584918E
:1044F0008F010F5F1F4F882321F00E949252F80115
:10450000F6CFE5E1F5E084918F010F5F1F4F88231F
:1045100009F412C50E949252F801F5CF83E50E947A
:10452000BF51182F882371F00E948C510E94F27A9B
:1045300070933D0260933C0221E0672B09F020E07C
:1045400020939B0680E50E94BF51882359F020915B
:104550003C0230913D02232B11F00E947D5180934B
:104560009B06EAC41111E8C4E2E6FBE184918F01E5
:104570000F5F1F4F882321F00E949252F801F6CF5F
:1045800080919B06811103C066E472E002C063E47F
:1045900072E08CE395E00E94264960913C027091A4
:1045A0003D028BE295E00E940D49E7E2F5E084913F
:1045B0008F010F5F1F4F882309F4BEC40E949252DF
:1045C000F801F5CF85E40E940652882321F00E946D
:1045D0005C517B0102C0E12CF12C83E40E94065265
:1045E000882331F00E945C51A4966FAFA49704C059
:1045F000B5E0A496BFAFA49785E50E940652882334
:1046000019F00E947D5103C085E50E94BF51E096DC
:104610008FAFE097F7FC07C0812C912CF6E1AF2E0D
:10462000F3E4BF2E06C0812C912CECE8AE2EE2E420
:10463000BE2E83E50E940652882321F00E948C51F1
:104640004B015C01E114F10411F4109249030E9442
:10465000F1362B013C01EE2069F0EDEFF6E084919C
:104660008F010F5F1F4F882309F466C40E94925286
:10467000F801F5CFC501B4010E94F27A072E000CB3
:10468000880B990B0E94B3756AA77EA78AAB9EAB75
:1046900060913602709137026F507109072E000C3D
:1046A000880B990B0E94B3759B01AC016AA57EA58E
:1046B0008AA99EA90E94D47B18166CF4EEEBF6E052
:1046C00084918F010F5F1F4F882309F435C40E9426
:1046D0009252F801F5CFE9EEF6E084917F012FEFD9
:1046E000E21AF20A882321F00E949252F701F5CFD4
:1046F000D301C201805E914BAF4FBF4FEC968CAFA0
:104700009DAFAEAFBFAFEC970E944E3C85E2809369
:10471000470381E080931202AB964CAE5DAE6EAE65
:104720007FAEAB97E4964CAE5DAE6EAE7FAEE497D7
:10473000A7961FAEA797E8961CAE1DAE1EAE1FAE85
:10474000E8972B961FAE2B9790E49EAFACE1239693
:10475000AFAF2397B6E42F96BFAF2F9727961FAE24
:10476000279763961FAE639767961FAE67976B9602
:104770001FAE6B97A3961CAE1DAE1EAE1FAEA397C9
:104780006F961CAE1DAE1EAE1FAE6F97C12CD12C06
:10479000760125E230E040E050E02EA33FA348A799
:1047A00059A775E2872E912CA12CB12CAF961CAE87
:1047B0001DAE1EAE1FAEAF9731E0A6963FAFA697D7
:1047C0001BAE1AAE10E0212C312C00E0A4964FADA8
:1047D000A497042E000C550BA5965FAF4EAFA5977E
:1047E00080911202882309F4F1C00E94F1366AA375
:1047F0007BA38CA39DA380914603882309F4CAC0A0
:104800000E941D3D10919C0620909D0630909E06B2
:1048100000919F06212F322D432D502F27966FADEB
:10482000279763967FAD639767968FAD67976B9673
:104830009FAD6B970E94AD7587FF0CC027961FAF89
:10484000279763962FAE639767963FAE67976B96F1
:104850000FAF6B97212F322D432D502F2B966FAD1D
:104860002B977EAD23968FAD23972F969FAD2F97D5
:104870000E94D47B181654F42B961FAF2B972EAEA4
:1048800023963FAE23972F960FAF2F97A6965FAD37
:10489000A6972AA53EA54AA9552309F45CC05EA99E
:1048A000612F722D832D902F0E94D47B18160CF04F
:1048B00071C08AA19BA1ACA1BDA184199509A609CB
:1048C000B709C258DF4F88839983AA83BB83CE5729
:1048D000D04088589341A109B109B7FD5BC0D5010B
:1048E000C4012EA13FA148A559A5821B930BA40B7F
:1048F000B50BB595A7959795879580934703C258B3
:10490000DF4F88819981AA81BB81CE57D040AF9675
:104910008CAF9DAFAEAFBFAFAF979AA527969FAFB5
:104920002797AEA56396AFAF6397BAA96796BFAF57
:104930006797EEA96B96EFAF6B972AA13BA14CA1AD
:104940005DA1AB962CAF3DAF4EAF5FAFAB97A696D8
:104950001FAEA6971FC05EA9612F722D832D902FC9
:104960000E94AD7587FF16C08AA19BA1ACA1BDA115
:10497000AB962CAD3DAD4EAD5FADAB97821B930BAF
:10498000A40BB50BAC01BD01485853416109710935
:1049900077FF8FC520E030E040EA51E46AA57EA5AC
:1049A0008AA99EA90E94AE799B01AC01612F722D4C
:1049B000832D902F0E94D47B18167CF4EAE4F6E055
:1049C00084918F010F5F1F4F811103C00E944E3CE5
:1049D000B3C20E949252F801F3CF8AA19BA1ACA16D
:1049E000BDA1E4962CAD3DAD4EAD5FADE497821B0D
:1049F000930BA40BB50BB7FD90C00E94143A8AE04C
:104A00000E9492528AA19BA1ACA1BDA18053984F54
:104A1000AF4FBF4FE4968CAF9DAFAEAFBFAFE49743
:104A2000A7969FADA79791115DC0E8962CAD3DADBF
:104A30004EAD5FADE897612F722D832D902F0E94B0
:104A4000D47B1816D4F520E030E040E050E4612F2C
:104A5000722D832D902F0E94AE79E8966CAF7DAFBA
:104A60008EAF9FAFE8972AA13BA14CA15DA1205E2C
:104A7000314B4F4F5F4FEC962CAF3DAF4EAF5FAF1A
:104A8000EC9720E030E040EC50E46AA57EA58AA9CE
:104A90009EA90E94AD799B01AC0181E0A7968FAFE2
:104AA000A797612F722D832D902F0E94D47B18160B
:104AB000A4F1A7961FAEA79730C08AA19BA1ACA175
:104AC000BDA1EC962CAD3DAD4EAD5FADEC97821B1C
:104AD000930BA40BB50BB7FD20C049E256E06BE386
:104AE00076E018C020E030E040EA51E46AA57EA5F7
:104AF0008AA99EA90E94AD799B01AC01612F722DFC
:104B0000832D902F0E94AD7587FF07C046E056E0C9
:104B100069E176E080E00E9493688AA19BA1ACA144
:104B2000BDA1880F991FAA1FBB1FAB962CAD3DAD31
:104B30004EAD5FADAB97821B930BA40BB50B8419E5
:104B40009509A609B70981389F44A241B10568F0CB
:104B5000E8EEF5E084918F010F5F1F4F882309F481
:104B600035CF0E949252F801F5CF4AAD5BADA596C4
:104B70008EAD9FADA597841795070CF031CEEBE86D
:104B8000F5E084918F010F5F1F4F882321F00E9471
:104B90009252F801F6CFB701A60187E795E00E948F
:104BA000F0488AE00E9492526F964CAD5DAD6EADBA
:104BB0007FAD6F9783E695E00E94F0488AE00E94FF
:104BC0009252A3964CAD5DAD6EAD7FADA3978FE4D1
:104BD00095E00E94F0488AE00E949252E0969FADD4
:104BE000E097992309F4A8C1C092EE0CD092EF0C83
:104BF000E092F00CF092F10C2CEA35EC47E25EE327
:104C00006F966CAD7DAD8EAD9FAD6F970E941276A5
:104C10006093EA0C7093EB0C8093EC0C9093ED0C8A
:104C20002CEA35EC47E25EE3A3966CAD7DAD8EAD2C
:104C30009FADA3970E948A7A6093F20C7093F30C55
:104C40008093F40C9093F50C77C184918F010F5FE2
:104C50001F4F882321F00E949252F801F6CFE7E21D
:104C6000F7E084918F010F5F1F4F882309F464C11F
:104C70000E949252F801F5CF0E94164A5DC1EFE9F9
:104C8000FCE184918F010F5F1F4F882321F00E9468
:104C90009252F801F6CFE6E3F7E084918F010F5FBF
:104CA0001F4F882309F448C10E949252F801F5CFA2
:104CB0000E94B02F80E0CDD53FC10E94B02F3CC1F3
:104CC00083E50E94BF51882321F00E947D5191E02D
:104CD0008927BFD531C189E40E940652882321F07B
:104CE0000E946C51B82E01C0B12C8FE3882E82E057
:104CF000982E11E000E0D4018D914D010E940652E2
:104D0000882379F10E945C516B017C01611571056A
:104D100041F1023081F00330A1F0013031F0B1E017
:104D2000BB15F0F08AE89EE019C0E1E0EB15C0F099
:104D300081E19EE013C0F1E0FB1590F088E99DE071
:104D40000DC08AE893E00E949C548111F5C08091C7
:104D50004903811105C0B6018FE19DE00E94F56B0A
:104D600010E00F5F043039F6112309F4E5C060E06C
:104D70008AE89EE00E94F63161E081E19EE00E94B7
:104D8000F63162E088E99DE00E94F63166E08FE14D
:104D90009DE00E94F631D0C088E50E94BF51D82E18
:104DA00089E50E94BF51E82E8AE50E94BF51F82E86
:104DB00085E40E94BF51082FD11007C0E11005C043
:104DC000F11003C011E0182701C010E088E50E942F
:104DD0000652882309F4FBC40E946C51112331F060
:104DE00010928F0E80E00E94413906C08130C1F3DD
:104DF000DD2011F08A30A1F389E50E940652882354
:104E000009F4E8C40E946C51112331F01092160E7F
:104E100081E00E94413906C08130C1F3EE2011F0DB
:104E20008A30A1F38AE50E940652882309F4D5C48A
:104E30000E946C51112331F010929D0D82E00E946E
:104E4000413906C08130C1F3FF2011F08A30A1F34F
:104E500085E40E940652882309F4C2C40E946C5162
:104E6000112331F01092240D86E00E94413964C074
:104E70008823C1F3002309F45FC08A3009F05CC0C5
:104E8000F1CF81E080933E0283E50E9406528823A1
:104E900039F00E947D5181114FC00E9466354CC08F
:104EA00083E50E94BF51F7CF0E94206745C0F09074
:104EB0002E040E94164AFF2029F1E2E6FBE18491CC
:104EC0008F010F5F1F4F882321F00E949252F8013B
:104ED000F6CF84E50E9492526F2D70E080E090E062
:104EE0004AE00E94365480E20E949252E9E5F7E0DF
:104EF00084918F010F5F1F4F8823F1F00E9492521F
:104F0000F801F6CF10927202E2E6FBE184918F0184
:104F10000F5F1F4F882321F00E949252F801F6CFB5
:104F200060E070E087E497E00E940D498AE00E940B
:104F3000925202C00E94206710920C030E944935D1
:104F40005EC40E9412528091B00C83FDA5C0C09037
:104F50003303D0903403E0903503F0903603209172
:104F60000604309107044091080450910904C701D8
:104F7000B6010E94AD75882309F48EC060919C062D
:104F800070919D0680919E0690919F0620919B06B0
:104F9000211129C00E94F27A20913C0230913D02F9
:104FA0006217730704F5C0920604D0920704E092DA
:104FB0000804F0920904E2E6FBE184918F010F5F9F
:104FC0001F4F882321F00E949252F801F6CFE8EF9C
:104FD000F1E084918F010F5F1F4F882321F00E9421
:104FE0009252F801F6CF8090330390903403A09052
:104FF0003503B090360320910604309107044091A8
:10500000080450910904C501B4010E94AD796B01F7
:105010007C0120E030E0A9010E94D47B87FF04C01E
:10502000F7FAF094F7F8F094E091720224E0E29F2E
:10503000F0011124E85CFD4F2081318142815381D0
:10504000C701B6010E94127620E030E048E453E444
:105050000E94D47B181604F58092060490920704EF
:10506000A0920804B0920904E2E6FBE184918F016A
:105070000F5F1F4F882321F00E949252F801F6CF54
:10508000E9EDF1E084918F010F5F1F4F882321F03C
:105090000E949252F801F6CF6091100270911102B5
:1050A000072E000C880B990B0E94B375209100020B
:1050B0003091010240910202509103020E94127647
:1050C0002AE037ED43E25CE30E9412766E8B7F8B21
:1050D000888F998FE090720219821A821B821C823B
:1050E000AE014F5F5F4F6A018E010A5E1F4F23E3DF
:1050F00033E04FE253E06BE273E087E293E00E941B
:10510000905680E1E7E2F3E0AAEFB3E001900D9260
:105110008A95E1F711CF0E94366A0C94271A0E94F3
:105120008C510E94F27A603571050CF06AC170935F
:105130004F0360934E030E948C5120E030E040EA20
:1051400050E40E94D47B181614F40E94366A81E061
:105150008093120280917202809349031EA21FA2C3
:1051600018A619A62E961CAE1DAE1EAE1FAE2E970B
:105170001AA21EAE2CE323962FAF23973CE12F9665
:105180003FAF2F9746E427964FAF2797C12CD12CDE
:1051900020E8E22E3FEBF32E812C912C54016091FC
:1051A0004E0370914F03072E000C880B990B0E9441
:1051B000B375162F072F782E692E262F372F482FDD
:1051C000592FB601C7010E94AD758823D1F02091F7
:1051D0004A0330914B0340914C0350914D03612F92
:1051E000702F872D962D0E94AD75881F8827881FE8
:1051F0008AA35AAD552349F0882339F080911202D1
:105200009BCE1C2D0D2D7E2C6F2C0E94F1366B0138
:105210007C01DC01CB012E962CAD3DAD4EAD5FADDA
:105220002E97821B930BA40BB50BB7FD3DC0D70186
:10523000C60188519C4FAF4FBF4F2E968CAF9DAF8C
:10524000AEAFBFAF2E970E94143AEEE9F2E0849120
:105250002F019FEF491A590A882321F00E94925288
:10526000F201F5CF81149104A104B104B9F0D50184
:10527000C401805F984DAF4FBF4FBC01CD016C1989
:105280007D098E099F0928EE33E040E050E00E943E
:105290007279CA01B9010E94D85403C08FE30E94F9
:1052A00092528AE00E9492520E944E320E94F1363F
:1052B00060930D0370930E0380930F03909310037C
:1052C000A0914A03AAA7B0914B03BEA7E0914C035B
:1052D000EAABF0914D03FEAB9D01AF01612F702F42
:1052E000872D962D0E94AD791B012C0120E030E026
:1052F000A9010E94D47B87FF04C057FA509457F845
:10530000509481149104A104B10459F420E030E0D8
:1053100040E85FE3C201B1010E94AD7587FF0DC097
:105320000AC020E030E040E450E4C201B1010E9434
:10533000D47B181614F4460157012AA1222309F43C
:1053400044C08EA19FA1A8A5B9A5892B8A2B8B2B20
:1053500061F0D701C6012EA13FA148A559A5821B26
:10536000930BA40BB50BB7FD30C02AA53EA54AA9E7
:105370005EA96EAD23967FAD23972F968FAD2F97A5
:1053800027969FAD27970E94AD7920E030E040EC52
:105390005FE30E94AD7587FD31CFD701C601805A0A
:1053A0009541AF4FBF4F8EA39FA3A8A7B9A79AA5BA
:1053B0009EAFAEA52396AFAF2397BAA92F96BFAFE6
:1053C0002F97EEA92796EFAF279780911202882397
:1053D00009F414CF81149104A104B10429F4C12E5D
:1053E000D02EE72CF62CDBCEF0E1CF1AF7E2DF0A65
:1053F000E108F108C818D908EA08FB08F7FEFECE54
:10540000EECF60E570E093CE0E94164A88E50E94D8
:10541000BF51882331F0179A8091ED038E7F8093DE
:10542000ED0389E50E94BF51882331F0169A8091DF
:10543000ED038D7F8093ED038AE50E94BF518823A1
:1054400031F0159A8091ED038B7F8093ED0385E415
:105450000E94BF51882309F46FCDDBD76DCD0E9428
:1054600003716ACD0E94164ABC2C60E08C2D0E940C
:10547000854F0F3FBFEF1B0759F48C2D0E942E4F15
:1054800031E020E0892B09F030E0032F122F05C016
:105490000130110559F000E010E08B2D0E942E4FD5
:1054A0008017910709F448CDF9D7F7CF01E010E054
:1054B000F4CF4AAD5BAD452B09F45FC1AF964CAC60
:1054C0005DAC6EAC7FACAF97480E591E6A1E7B1E5A
:1054D000AF962CAD3DAD4EAD5FADAF97281B390BF0
:1054E0004A0B5B0BCA01B9012EA13FA148A559A5E2
:1054F0000E946379A30192010E94867CD501C401B8
:10550000820F931FA41FB51F84319105A105B1051A
:10551000F4F04C015D01C897A105B1052CF057E3EB
:10552000852E912CA12CB12C46E284169104A10465
:10553000B104DCF08AE490E0A0E0B0E088199909B9
:10554000AA09BB098EA39FA3A8A7B9A712C044E1CB
:10555000842E912CA12CB12C24E130E040E050E0CD
:105560002EA33FA348A759A704C08EA29FA2A8A616
:10557000B9A6E6EBF6E084919F012F5F3F4F8823A9
:1055800081F0ED962FAFED97EE963FAFEE970E942C
:105590009252ED962FADED97EE963FADEE97F90155
:1055A000EACFC501B4010E94D854E1EBF6E0849142
:1055B0009F012F5F3F4F882381F0ED962FAFED972E
:1055C000EE963FAFEE970E949252ED962FADED977B
:1055D000EE963FADEE97F901EACF6EA17FA188A5C7
:1055E00099A50E94D8542B964FAD2B975EAD23966C
:1055F0006FAD23972F967FAD2F978AEA96E00E9492
:10560000F04827964FAD279763965FAD63976796EF
:105610006FAD67976B967FAD6B9783EA96E00E94BC
:10562000F0484AAD5BAD433051050CF4A6C06EA105
:105630007FA188A599A50E94B37520E030E040E8DD
:1056400050E40E9412766B017C012B962FAD2B97B4
:105650003EAD23964FAD23972F965FAD2F9727969C
:105660006FAD279763967FAD639767968FAD67970A
:105670006B969FAD6B970E94AD792BED3FE049E4AF
:1056800050E40E94127620E030E040E05FE30E94A8
:1056900012769B01AC01C701B6010E948A7A6B01A8
:1056A0007C01C301B2010E94B3752FE632E143E8E9
:1056B0005AE30E9412762B013C01B701A6018DE945
:1056C00096E00E94F048B301A20187E996E00E94AB
:1056D000F0482AE939E949E15FE3C701B6010E94D0
:1056E00012766B017C019B01AC010E94AE79A30193
:1056F00092010E948A7A6F966CAF7DAF8EAF9FAF9A
:105700006F97A3019201C701B6010E94127620E0B3
:1057100030E040E05EE30E941276A3966CAF7DAF6E
:105720008EAF9FAFA397E7E8F6E084913F015FEF6C
:10573000651A750A882321F00E949252F301F5CF71
:10574000B701A60181E896E00E94F0486F964CAD43
:105750005DAD6EAD7FAD6F978BE796E00E94F04830
:10576000A3964CAD5DAD6EAD7FADA39785E796E09A
:105770000E94F0488AE00E9492528EA19FA1A8A5A3
:10578000B9A5880D991DAA1DBB1DB595A79597951F
:105790008795809347038AAD9BAD01969BAF8AAFF7
:1057A0009AA52B969FAF2B97AEA5AEAFBAA923961D
:1057B000BFAF2397EEA92F96EFAF2F974AA05BA01C
:1057C0006CA07DA0F1E0A696FFAFA697E3C81123D9
:1057D00051F006CB112351F019CB112351F02CCBF2
:1057E000112351F03FCBD110FBCA06CBE1100ECBF9
:1057F00019CBF11021CB2CCB011134CB9DCBCF5742
:10580000DF4F0FB6F894DEBF0FBECDBFDF91CF9153
:105810001F910F91FF90EF90DF90CF90BF90AF90CE
:105820009F908F907F906F905F904F903F902F90C0
:105830000895CF93DF93ECEDF8E08491EF0121968A
:10584000882321F00E949252FE01F7CFDF91CF9181
:1058500008950F931F93CF93C82F882319F0EAEF71
:10586000FAE00CC0E2E6FBE184918F010F5F1F4F6D
:105870008823A9F30E949252F801F6CF84918F01F8
:105880000F5F1F4F882321F00E949252F801F6CF3C
:10589000E3EEF8E084918F010F5F1F4F882321F022
:1058A0000E949252F801F6CF8AE00E9492528AE05A
:1058B0000E949252C1112CC0E2E6FBE184918F015B
:1058C0000F5F1F4F882321F00E949252F801F6CFFC
:1058D000E7EEFAE084918F010F5F1F4F882321F0DC
:1058E0000E949252F801F6CF8091B903882321F0EB
:1058F0008AE00E9492523AC0ECEDFAE084918F0166
:105900000F5F1F4F882391F10E949252F801F6CF4A
:105910004091BE035091BF036091C0037091C103D9
:1059200083ED9AE00E94F0488AE00E9492528091B2
:10593000B903811127C0CC2319F0E8ECFAE00CC0C0
:10594000E2E6FBE184918F010F5F1F4F8823A9F3EB
:105950000E949252F801F6CF84918F010F5F1F4F82
:10596000882381F00E949252F801F6CFE2E6FBE133
:1059700084918F010F5F1F4F882351F20E94925232
:10598000F801F6CFC11124C0E2E6FBE184918F015A
:105990000F5F1F4F882321F00E949252F801F6CF2B
:1059A000E7EBFAE084918F010F5F1F4F882321F00E
:1059B0000E949252F801F6CFE2E6FBE184918F015A
:1059C0000F5F1F4F882321F00E949252F801F6CFFB
:1059D0004091B10C5091B20C6091B30C7091B40C29
:1059E0008FEA9AE00E94F0484091B50C5091B60CB5
:1059F0006091B70C7091B80C8CEA9AE00E94F04864
:105A00004091B90C5091BA0C6091BB0C7091BC0CD8
:105A100089EA9AE00E94F0484091BD0C5091BE0C7A
:105A20006091BF0C7091C00C86EA9AE00E94F04829
:105A30008AE00E949252C11124C0E2E6FBE1849107
:105A40008F010F5F1F4F882321F00E949252F801AF
:105A5000F6CFE8E8FAE084918F010F5F1F4F8823AB
:105A600021F00E949252F801F6CFE2E6FBE1849128
:105A70008F010F5F1F4F882321F00E949252F8017F
:105A8000F6CF40916B0650916C0660916D06709157
:105A90006E068FE79AE00E94F04840916F065091A1
:105AA000700660917106709172068CE79AE00E9410
:105AB000F04840917306509174066091750670919C
:105AC000760689E79AE00E94F04840917706509167
:105AD00078066091790670917A0686E79AE00E94CE
