:100000000C94D00D0C94010E0C94010E0C94010E66
:100010000C94010E0C94010E0C94010E0C94010E24
:100020000C94010E0C94010E0C94010E0C94010E14
:100030000C94010E0C94010E0C94010E0C94010E04
:100040000C94010E0C9471460C94010E0C94010E4C
:100050000C94010E0C94010E0C944E390C94E03566
:100060000C94010E0C941C550C94010E0C94010E72
:100070000C94010E0C94010E0C94010E0C94010EC4
:100080000C94010E0C94010E0C94010E0C94010EB4
:100090000C94010E0C94010E0C94010E0C94010EA4
:1000A0000C94010E0C94010E0C94010E0C94010E94
:1000B0000C94010E0C94010E0C94010E0C94010E84
:1000C0000C94010E0C94010E0C94010E0C94010E74
:1000D0000C94010E0C94010E0C94010E0C94010E64
:1000E0000C94010EFC340135063510351A35933564
:1000F00024352C3534353E354835523561356B3530
:10010000933575357F358935A94DAC4D9B4D9F4D48
:10011000A54DE34DB04DB44DBA4DBE4DC24DC84D89
:10012000CC4DD04DE34DD64DDA4DDE4D084AD73B90
:100130003BCE016E84BCBFFDC12F3D6C74319ABDB6
:1001400056833DDA3D00C77F11BED9E4BB4C3E91DA
:100150006BAAAABE000000803F05A84CCDB2D44EC9
:10016000B93836A9020C50B9918688083CA6AAAACB
:100170002ABE000000803F004E414E494E4954596E
:10018000494E46CDCCCC3D0AD7233C17B7D1387762
:10019000CC2B329595E6241FB14F0A000020410078
:1001A00000C84200401C4620BCBE4CCA1B0E5AAEC2
:1001B000C59D74434F4D4D554E49434154494F4E93
:1001C0000044525952554E004552524F5253004925
:1001D0004E464F004543484F0020746F6F206C6FB0
:1001E0006E6720657874727573696F6E20707265C2
:1001F00076656E7465640A0020636F6C64206578B0
:1002000074727573696F6E2070726576656E746551
:10021000640A0047322F47332062616420706172A4
:10022000616D65746572730A002569730025696DD7
:1002300020256973002569682025696D202569736B
:1002400000256964202569682025696D202569736A
:100250000025697920256964202569682025696D54
:1002600020256973005072696E742074696D653A57
:100270002000D401CF01C801C101B3016F6666003F
:1002800044454255473A004B494C4C45442E2000CA
:100290004D3131332053006F6B0020573A002C2032
:1002A000002C2000544845524D414C5F50524F5451
:1002B000454354494F4E004155544F5245504F52BB
:1002C000545F53445F53544154555300454D455278
:1002D00047454E43595F50415253455200434153A5
:1002E000455F4C494748545F4252494748544E4540
:1002F000535300544F47474C455F4C49474854536C
:1003000000534F4654574152455F504F5745520096
:100310004255494C445F50455243454E54004C456C
:1003200056454C494E475F44415441005A5F505234
:100330004F4245004155544F4C4556454C00505294
:10034000494E545F4A4F420050524F475245535313
:10035000004155544F5245504F52545F54454D50F3
:1003600000564F4C554D4554524943004545505257
:100370004F4D0053455249414C5F584F4E5F584FC7
:100380004646004649524D574152455F4E414D4504
:100390003A4D61726C696E206275676669782D31BD
:1003A0002E312E7820284769746875622920534FB2
:1003B000555243455F434F44455F55524C3A68742C
:1003C0007470733A2F2F6769746875622E636F6D4E
:1003D0002F4D61726C696E4669726D776172652F1F
:1003E0004D61726C696E2050524F544F434F4C5FB9
:1003F00056455253494F4E3A312E30204D414348D5
:10040000494E455F545950453A3344205072696E05
:100410007465722045585452554445525F434F55B8
:100420004E543A3120555549443A6365646532610A
:1004300032662D343161322D343734382D39623102
:10044000322D6335356336326633363766660A00D9
:100450002F2F2000205400205200416363656C65FB
:10046000726174696F6E3A2050002066697273740D
:100470000A005A0059005800486F6D652000546FFB
:100480006F206661722066726F6D2072656665729C
:10049000656E636520706F696E740A00205A0020D3
:1004A0005900580020204D61783A2000205A002041
:1004B0005900580020204D696E3A20004F666600B2
:1004C000536F667420656E6473746F70733A2000A6
:1004D00020466C6F773A2000000125311D0C51FF3A
:1004E000FF2924301C0BFFFFFF27232F1B0AFFFFD0
:1004F000FFFF43FFFF040806FFFF222B1AFFFF4206
:10050000043803FF3620643A0020693A0020703A2C
:1005100000496E76616C69642065787472756465F3
:10052000720A0043290A0061626C656420286D69C3
:100530006E2074656D702000436F6C642065787464
:100540007275646573206172652000236465666955
:100550006E652044454641554C545F4B6420002352
:10056000646566696E652044454641554C545F4B51
:1005700069200023646566696E65204445464155DF
:100580004C545F4B702000504944204175746F7487
:10059000756E652066696E697368656421205075A3
:1005A0007420746865206C617374204B702C204B30
:1005B0006920616E64204B6420636F6E7374616E9A
:1005C00074732066726F6D2062656C6F7720696E40
:1005D000746F20436F6E66696775726174696F6EC0
:1005E0002E680A00504944204175746F74756E6519
:1005F000206661696C6564212074696D656F75742E
:100600000A00453120544845524D414C2052554E28
:100610004157415900546865726D616C2052756E86
:10062000617761790045312048656174696E6720A2
:100630006661696C65640048656174696E6720660F
:1006400061696C656400504944204175746F74752C
:100650006E65206661696C6564212054656D706506
:1006600072617475726520746F6F20686967680ABB
:1006700000204B643A2000204B693A2000204B7048
:100680003A20000A20436C61737369632050494427
:10069000200A002054753A2000204B753A20002093
:1006A0006D61783A2000206D696E3A200020643A2E
:1006B000200020626961733A20005049442041754E
:1006C000746F74756E65206661696C656421205471
:1006D000656D706572617475726520746F6F2068E6
:1006E0006967680A00504944204175746F74756EDB
:1006F000652073746172740A005049442041757416
:100700006F74756E65206661696C65642120426155
:1007100064206578747275646572206E756D6265AB
:10072000720A004E6F2063617365206C696768749C
:100730000A00454550524F4D2064697361626C65F3
:10074000640A004163746976652045787472756443
:1007500065723A2000496E76616C69642065787430
:1007600072756465720A00526573656E643A2000A2
:100770006F6B00627573793A2070617573656420E0
:10078000666F7220696E7075740A00627573793ACB
:100790002070617573656420666F72207573657271
:1007A0000A00627573793A2070726F6365737369BA
:1007B0006E670A004B494C4C45442E20004B494C77
:1007C0004C2063617573656420627920746F6F20BB
:1007D0006D75636820696E616374697665207469FC
:1007E0006D65202D2063757272656E7420636F6D68
:1007F0006D616E643A20005072696E746572206893
:10080000616C7465642E206B696C6C2829206361AF
:100810006C6C6564210A00206472697665722063DD
:10082000757272656E743A200000000000000000CE
:1008300000000000000000A0400000A0400000A058
:1008400040000000005761726E696E673A20486F81
:100850006D696E672042756D702044697669736FAB
:1008600072203C20310A000202040000803F000098
:100870000000000000400000A042000048430000CB
:100880004843FFFFFF48617264636F6465642044FE
:10089000656661756C742053657474696E67732046
:1008A0004C6F616465640A00320000003200000091
:1008B0003200000032000000000020410000204112
:1008C000000020410000204100004844000048444E
:1008D000000048440000484420204D3930360020B4
:1008E000286D6D2900205430204500205A002059E1
:1008F00000205800537465707065722064726976C8
:1009000065722063757272656E743A0A0020440045
:1009100020490020204D33303120500050494420E0
:1009200073657474696E67733A0A00205A0020591F
:100930000020204D323036205800486F6D65206F02
:1009400066667365743A0A00204500205A002059F3
:100950000020580020540020530020204D32303514
:1009600020510020453C6D61785F655F6A65726B60
:100970003E0020583C6D61785F785F6A65726B3E1F
:1009800020593C6D61785F795F6A65726B3E205AD1
:100990003C6D61785F7A5F6A65726B3E0041647698
:1009A000616E6365643A20513C6D696E5F73656783
:1009B0006D656E745F74696D655F75733E20533C41
:1009C0006D696E5F66656564726174653E20543C56
:1009D0006D696E5F74726176656C5F666565647281
:1009E0006174653E0020540020520020204D3230BA
:1009F00034205000416363656C65726174696F6E89
:100A00002028756E6974732F7332293A20503C7018
:100A100072696E745F616363656C3E20523C7265FF
:100A200074726163745F616363656C3E20543C74EF
:100A3000726176656C5F616363656C3E0A00204598
:100A400000205A0020590020204D3230312058001B
:100A50004D6178696D756D20416363656C65726188
:100A600074696F6E2028756E6974732F7332293A1A
:100A70000A00204500205A0020590020204D323025
:100A8000332058004D6178696D756D206665656429
:100A900072617465732028756E6974732F73293AB7
:100AA0000A00204500205A0020590020204D3932EC
:100AB00020580053746570732070657220756E69DC
:100AC000743A0A0020204D3230302044300A002091
:100AD000204D3230302044002044697361626C65DF
:100AE000640A0046696C616D656E74207365747488
:100AF000696E67733A002020473231202020203B66
:100B00000010001900F03F1900453400453300453E
:100B100032004531004530005A3200593200583217
:100B2000005A00590058006265640A002C2073794D
:100B30007374656D2073746F7070656421204865EF
:100B4000617465725F49443A20004531204865610F
:100B500074696E67206661696C65640048656174DC
:100B6000696E67206661696C656400453120457275
:100B7000723A204D415854454D50004D415854450E
:100B80004D50207472696767657265640045312055
:100B90004572723A204D494E54454D50004D494ED4
:100BA00054454D5020747269676765726564002012
:100BB0002F0020403A00250B230B210B1E0B1B0B93
:100BC000180B150B120B0F0B0C0B090B74727565C0
:100BD0000066616C7365002074656D706572617488
:100BE000757265207072657761726E2074726967C4
:100BF00067657265643A2000207072657761726E75
:100C000020666C616720636C65617265640A00240C
:100C1000F4D43050C38E20C2A24017828B701112C0
:100C20007A910D816CD90AA861E108C758660761FD
:100C30005143061E4B5D05C145A7041A4111040925
:100C40003D9803713931034036DB0265339102D49C
:100C5000305402802E1D02632CEE01752AC501B0AE
:100C600028A001102781018F2564012B244B01E06E
:100C7000223401AC211F018D200D01801FFC008456
:100C80001EED00971DDF00B81CD200E61BC6002039
:100C90001BBC00641AB200B219A8000A19A0006AAD
:100CA000189900D117910040178B00B516840031B8
:100CB000167E00B31579003A157300C7146F0058FB
:100CC000146A00EE1366008813630025135E00C7E4
:100CD000125B006C12570015125400C111510070C4
:100CE000114F0021114B00D61049008D10470046CE
:100CF00010440002104200C00F4000800F3E00422E
:100D00000F3C00060F3B00CB0E3800930E37005C03
:100D10000E3500270E3400F30D3200C10D31009066
:100D20000D3000600D2E00320D2D00050D2C00D968
:100D30000C2B00AE0C2900850C29005C0C2700351B
:100D40000C27000E0C2600E80B2400C40B2400A086
:100D50000B23007D0B23005A0B2100390B210018B7
:100D60000B2000F80A1F00D90A1E00BB0A1E009DB6
:100D70000A1D00800A1D00630A1C00470A1B002C84
:100D80000A1B00110A1A00F7091A00DD091900C42C
:100D9000091900AB091900920917007B09180063B3
:100DA0000917004C09160036091600200916000A1A
:100DB000091500F5081500E0081400CC081400B867
:100DC000081400A4081400900813007D0812006B9A
:100DD00008130058081200460812003408110023B6
:100DE0000811001208110001081100F0071000E0BE
:100DF000071000D0071000C0071000B0070F00A1B7
:100E000007100091070E0083070F0074070F00659D
:100E1000070E0057070E0049070E003B070D002E76
:100E2000070E0020070D0013070D0006070D00F93F
:100E3000060C00ED060D00E0060C00D4060C00C800
:100E4000060C00BC060C00B0060C00A4060B0099B2
:100E5000060C008D060B0082060B0077060B006C5B
:100E6000060B0061060A0057060B004C060A0042FA
:100E7000060A0038060A002E060A0024060A001A8E
:100E8000060A001006090007060A00FD050900F41D
:100E9000050900EB050900E2050900D9050900D0A4
:100EA000050900C7050900BE050900B5050800AD24
:100EB000050800A50509009C050800940508008C9C
:100EC000050800840508007C050800740508006C0E
:100ED000050700650508005D050700560508004E7A
:100EE00005070047050700400508003805070031E1
:100EF0000507002A050700230507001C0506001644
:100F00000507000F0507000805060002050700FB9E
:100F1000040600F5040700EE040600E8040600E2FB
:100F2000040700DB040600D5040600CF040600C950
:100F3000040600C3040600BD040600B7040600B1A1
:100F4000040500AC040600A6040600A00405009BEE
:100F500004060095040500900406008A0405008537
:100F6000040500800406007A04050075040500707D
:100F70000405006B04050066040500610405005CBF
:100F800004050057040500520405004D04050048FF
:100F9000040500430405003E0404003A040500353E
:100FA000040500300404002C040500270404002379
:100FB0000405001E0404001A0404001604050011B0
:100FC0000404000D040400090405000404040000E6
:100FD000040400FC030400F8030400F4030400F01C
:100FE000030400EC030400E8030400E4030400E04D
:100FF000030400DC030400D8030400D4030400D07D
:10100000030400CC030400C8030300C50303002449
:10101000F404D9201BC40C5C0E9804C4095F02655B
:10102000077101F405F900FB04B30048048700C10F
:101030000369005803550003034500BE023A0084CB
:1010400002310053022A002902250004022000E494
:10105000011C00C8011900AF011700980114008499
:10106000011300710110006101100051010E0043D5
:10107000010D0036010B002B010B0020010B0015A8
:101080000109000C01090003010800FB000800F33E
:10109000000800EB000700E4000600DE000600D8B0
:1010A000000600D2000600CC000500C7000500C203
:1010B000000500BD000400B9000400B5000400B143
:1010C000000400AD000400A9000400A5000300A274
:1010D0000003009F0004009B00030098000300959C
:1010E00000020093000300900003008D0002008BBB
:1010F00000030088000200860002008400030081D3
:101100000002007F0002007D0002007B00020079E7
:1011100000020077000100760002007400020072F5
:10112000000100710002006F0002006D0001006C00
:101130000002006A00010069000200670001006609
:10114000000100650001006400020062000100610E
:10115000000100600001005F0002005D0001005C12
:101160000001005B0001005A000100590001005815
:101170000001005700010056000100550001005415
:101180000001005300000053000100520001005113
:10119000000100500001004F0001004E0000004E11
:1011A0000001004D0001004C0001004B0000004B0D
:1011B0000001004A00010049000100480000004809
:1011C0000001004700010046000000460001004504
:1011D00000000045000100440001004300000043FE
:1011E00000010042000000420001004100000041F7
:1011F000000100400001003F0000003F0001003EF0
:101200000000003E0001003D0000003D0001003CE8
:101210000000003C0000003C0001003B0000003BDF
:101220000001003A0000003A0001003900000039D6
:1012300000010038000000380000003800010037CD
:1012400000000037000100360000003600000036C4
:1012500000010035000000350000003500010034B9
:1012600000000034000000340001003300000033AF
:1012700000000033000100320000003200000032A4
:101280000001003100000031000000310001003099
:1012900000000030000000300001002F0000002F8F
:1012A0000000002F0000002F0001002E0000002E83
:1012B0000000002E0001002D0000002D0000002D78
:1012C0000000002D0001002C0000002C0000002C6C
:1012D0000000002C0001002B0000002B0000002B60
:1012E0000000002B0001002A0000002A0000002A54
:1012F0000000002A00010029000000290000002948
:10130000000000290000002900010028000000283A
:10131000000000280000002800000028000100272D
:101320000000002700000027000000270000002721
:101330000001002600000026000000260000002614
:101340000000002600010025000000250000002507
:1013500000000025000000250000002500010024F9
:1013600000000024000000240000002400000024ED
:1013700000010023000000230000002300000023E0
:1013800000000023000000230000002300010022D1
:1013900000000022000000220000002200000022C5
:1013A00000000022000100210000002100000021B7
:1013B00000000021000000210000002100000021A9
:1013C000000100200000002000000020000000209C
:1013D000000000200000002000000020000000208D
:1013E0000001001F0000001F0000001F0000001F80
:1013F0000000001F0000001F0000001F0001001E71
:101400000000001E0000001E0000001E0000003949
:101410003000003325000087190000B00F0000DB0A
:10142000080000BD040000740200003F01000054E9
:101430005249474745524544006F70656E003A2057
:10144000007A5F6D696E00795F6D696E00785F6D1F
:10145000617800785F6D696E005265706F727469B3
:101460006E6720656E6473746F7020737461747539
:10147000730A00FFFDFCFAF8F6F4F2F0EEECEAE98C
:10148000E7E5E3E1E0DEDCDAD9D7D5D4D2D0CFCDC1
:10149000CBCAC8C7C5C3C2C0BFBDBCBAB9B7B6B452
:1014A000B3B2B0AFADACAAA9A8A6A5A4A2A1A09EB4
:1014B0009D9C9A99989795949392908F8E8D8B8AF4
:1014C0008988878684838281807F7E7D7B7A797814
:1014D00077767574737271706F6E6D6C6B6A696814
:1014E00067666564636261605F5E5D5C5B5A595804
:1014F000585756555453525150504F4E4D4C4B4ADD
:101500004A4948474646454443424241403F3E3EA1
:101510003D3C3B3B3A393838373635353433323257
:101520003130302F2E2E2D2C2B2B2A2929282727FE
:1015300026252524232322212120201F1E1E1D1C99
:101540001C1B1B1A19191818171616151514131326
:1015500012121111100F0F0E0E0D0D0C0C0B0A0AAA
:101560000909080807070606050504040303020223
:101570000100000000000100000001000080005593
:101580005555000000400033333300AAAA2A004911
:1015900092240000002000C7711C0099991900D105
:1015A000451700555515003BB11300244912001191
:1015B000111100000010000F0F0F00E3380E004360
:1015C000790D00CCCC0C00C3300C00E8A20B0064F9
:1015D000210B00AAAA0A00703D0A009DD80900420A
:1015E0007B090092240900DCD308008888080010D9
:1015F00042080000000800F0C10700878707007557
:10160000500700711C07003EEB0600A1BC060069F4
:1016100090060066660600703E0600611806001718
:10162000F4050074D105005BB00500B290050062BE
:101630007205005555050078390500B81E050005EE
:101640000505004EEC040087D40400A1BD04009001
:10165000A7040049920400C17D0400EE690400C79C
:10166000560400444404005C320400082104004194
:10167000100400000004003FF00300F8E00300261F
:10168000D20300C3C30300CCB503003AA803000A89
:101690009B0300388E0300C08103009F750300D0B8
:1016A000690300505E03001D53030034480300919A
:1016B0003D03003333030016290300381F0300974E
:1016C000150300300C0300030303000BFA0200496A
:1016D000F10200BAE802005CE002002DD802002D01
:1016E000D0020059C80200B0C0020031B90200DACD
:1016F000B10200AAAA0200A0A30200BC9C0200FA48
:101700009502005C8F0200DF8802008282020045A1
:101710007C02002776020027700200436A02007CE8
:10172000640200D05E02003F590200C8530200006C
:10173000002100240027002A002D00300033000182
:10174000010000040107010A0100000A0B02090C54
:101750000D0E080703040100000000000000000057
:101760000000000000000000000000000000000079
:101770000000000000121110000000000000000036
:101780000000000000000000000000000000000059
:101790000000000000000000000000000000004BFE
:1017A000494C4C45442E2000202D20496E76616C1A
:1017B0006964206578747275646572206E756D62F7
:1017C000657220210A002020506C616E6E657242A5
:1017D000756666657242797465733A2000204672B8
:1017E0006565204D656D6F72793A2000436F6D70AD
:1017F000696C65643A204A616E20323120323032A1
:10180000300A00207C20417574686F723A203230B3
:1018100032302D30322D32312D416C7068614D5691
:10182000320A00323031382D30372D333100204C20
:1018300061737420557064617465643A2000627548
:10184000676669782D312E312E780A004D61726CF1
:10185000696E0020536F66747761726520526573FC
:1018600065740A00205761746368646F672052656D
:101870007365740A002042726F776E206F75742052
:1018800052657365740A002045787465726E616CE8
:101890002052657365740A00506F77657255700A3F
:1018A0000073746172740A00205A3A0020593A0099
:1018B00020583A00656E6473746F707320686974A1
:1018C0003A2000656E7175657565696E6720220046
:1018D0004C696E65204E756D626572206973206E6D
:1018E0006F74204C617374204C696E65204E756D69
:1018F0006265722B312C204C617374204C696E65CB
:101900003A20004B494C4C45442E20005072696EE1
:101910007465722073746F707065642064756520DF
:10192000746F206572726F72732E2046697820740E
:101930006865206572726F7220616E6420757365D0
:10194000204D39393920746F207265737461727457
:101950002E202854656D70657261747572652069FA
:10196000732072657365742E20536574206974202A
:1019700061667465722072657374617274696E67F2
:10198000290A004E6F20436865636B73756D20777D
:10199000697468206C696E65206E756D6265722C65
:1019A000204C617374204C696E653A200063686551
:1019B000636B73756D206D69736D617463682C2042
:1019C0004C617374204C696E653A20004D313130A2
:1019D0000020496E76616C69642065787472756464
:1019E0006572200000000000000000000000000000
:1019F0000000A0420000484300004843486F6D6962
:101A00006E67206661696C65640050726F7465630F
:101A10007465642050696E0A00205A3A0020593AD1
:101A20000020436F756E7420583A0020453A00201C
:101A30005A3A0020593A00583A003A004361703A45
:101A40000020746F6F206C6F6E67206578747275FC
:101A500073696F6E2070726576656E7465640A00D6
:101A600020636F6C6420657874727573696F6E2083
:101A700070726576656E7465640A006563686F3AB6
:101A800000556E6B6E6F776E20636F6D6D616E6467
:101A90003A202200000020002300260029002C000C
:101AA0002F003200000100000301060109010000BF
:101AB0002200250028002B002E00310034000201F6
:101AC0000000050108010B010505050507050808CB
:101AD0000808020202020A0A0808040404040101B8
:101AE00001010101010103030303030303030407CD
:101AF00007070C0C0C0C0C0C0C0C02020202060664
:101B00000606060606060B0B0B0B0B0B0B0B07074B
:101B10000A0A0A0A0A0A050505040404080801025B
:101B200010202008081020401020408002010201EF
:101B300008040201010204081020408080402010A7
:101B40000804020180040201804020100804020100
:101B50000804020101020408102040800102040868
:101B6000102040801008040880102040044080109D
:101B7000204004804572726F723A0045312054480B
:101B800045524D414C2052554E41574159005468E1
:101B900065726D616C2052756E6177617900C16C00
:101BA00011241FBECFEFD1E2DEBFCDBF00E00CBFDE
:101BB00012E0A0E0B2E0E4E0F1EF00E00BBF02C011
:101BC00007900D92A835B107D9F72FE0A8E5B2E04C
:101BD00001C01D92A632B207E1F71DE0C0EDDDE0C5
:101BE00000E006C021970109802FFE010E94457880
:101BF000CF3CD10780E00807A9F70E94FE670C944C
:101C000080780C9400002F923F924F925F926F92D7
:101C10007F928F929F92AF92BF92CF92DF92EF927C
:101C2000FF920F931F93CF93DF93CDB7DEB7C158C9
:101C3000D1090FB6F894DEBF0FBECDBF21E02093CF
:101C40000A0380914B048D3409F4A1C7843511F443
:101C50000C949026873411F00C94D326809149047B
:101C600090914A048430910509F43CC544F497FDF1
:101C70008AC7209118028230910524F51EC08A354A
:101C8000910509F4C2C624F44C9709F460C57BC7DA
:101C90008B35910509F4BDC68C35910509F073C7E4
:101CA0006DE3262E62E0362E78E1C72E73E0D72E44
:101CB000E12CF12C00E010E0E9C621110C94DA26A9
:101CC0000C94D526222311F40C94D52611E002970A
:101CD00009F010E00E94C85082E50E94BC508823A1
:101CE00009F42AC10E9442506B017C014090150406
:101CF0005090160460901704709018048091190495
:101D000090911A04A0911B04B0911C048AA39BA378
:101D1000ACA3BDA320912503309126034091270356
:101D2000509128032EA33FA348A759A780912903C8
:101D300090912A03A0912B03B0912C038AA79BA713
:101D4000ACA7BDA720E030E0A901C701B6010E9401
:101D50005071882309F4ACC4A30192016EA17FA144
:101D600088A599A50E94507181110DC02AA13BA19F
:101D70004CA15DA16AA57BA58CA59DA50E94507173
:101D8000882309F495C420E030E0A901C701B60119
:101D90000E945071881F8827881F181309C020E0EF
:101DA00030E040E85FE32AAF3BAF4CAF5DAF08C027
:101DB00080E090E0A0E8BFEB8AAF9BAFACAFBDAFD7
:101DC000A30192016EA17FA188A599A50E945075DB
:101DD0006AAB7BAB8CAB9DAB2AA13BA14CA15DA1B7
:101DE0006AA57BA58CA59DA50E9450756EAB7FABA7
:101DF00088AF99AF2AA93BA94CA95DA9CA01B9012D
:101E00000E94B5714B015C012EA93FA948AD59ADA7
:101E1000CA01B9010E94B5719B01AC01C501B401B1
:101E20000E9451750E94BC776EA77FA788AB99ABC3
:101E300020E030E040E05FE30E94B5714B015C01BF
:101E4000A7019601C701B6010E94B5716B017C0123
:101E5000A5019401C501B4010E94B5719B01AC01BB
:101E6000C701B6010E9450750E94BC779B01AC016E
:101E70006AAD7BAD8CAD9DAD0E94B5714B015C012F
:101E80002EA13FA148A559A5C301B2010E945175D9
:101E900020E030E040E05FE30E94B5716B017C011F
:101EA0006EA97FA988AD99AD90582EA53FA548A9E8
:101EB00059A90E942D769B01AC01C501B4010E9475
:101EC000B5719B01AC01C701B6010E945175A30118
:101ED00092010E9450756B017C012AA53BA54CA57F
:101EE0005DA56AA17BA18CA19DA10E94517520E0F6
:101EF00030E040E05FE30E94B5712B013C012EA56C
:101F00003FA548A959A96AA97BA98CA99DA90E94A6
:101F10002D769B01AC01C501B4010E94B5719B01F6
:101F2000AC01C301B2010E9451752AA13BA14CA191
:101F30005DA10E94507514C089E40E94BC508823A2
:101F400029F00E9442506B017C0103C0C12CD12CAE
:101F500076018AE40E94BC508823D9F00E94425046
:101F60006AA77BA78CA79DA720E030E0A901C70145
:101F7000B6010E94507181111AC020E030E0A90121
:101F80006AA57BA58CA59DA50E94507181110FC0EB
:101F90008FC320E030E0A901C701B6010E94507153
:101FA000882309F485C31AA61BA61CA61DA6A70193
:101FB000960150582AA33BA34CA35DA38AA59BA5D9
:101FC000ACA5BDA5B0588EA39FA3A8A7B9A7CA0169
:101FD000B9010E94B5714B015C012EA13FA148A53A
:101FE00059A5CA01B9010E94B5719B01AC01C50197
:101FF000B4010E9451750E94BC772A966CAF7DAFE8
:102000008EAF9FAF2A97209115043091160440910E
:102010001704509118042EA73FA748AB59ABA7014E
:1020200096016EA57FA588A999A90E9451756AAFEE
:102030007BAF8CAF9DAF8091190490911A04A09151
:102040001B04B0911C048AAB9BABACABBDAB2AA507
:102050003BA54CA55DA5BC01CD010E9451752E96F6
:102060006CAF7DAF8EAF9FAF2E972091250330913F
:10207000260340912703509128032EAB3FAB48AF76
:1020800059AF2AAD3BAD4CAD5DAD6EA97FA988AD12
:1020900099AD0E9450756B017C018091290390914C
:1020A0002A03A0912B03B0912C0322968CAF9DAFF5
:1020B000AEAFBFAF22972E962CAD3DAD4EAD5FAD0E
:1020C0002E97BC01CD010E9450754B015C012091FF
:1020D0001D0430911E0440911F0450912004269647
:1020E0002CAF3DAF4EAF5FAF269760912D0370913F
:1020F0002E0380912F03909130030E9450752B0185
:102100003C018091310390913203A0913303B0914F
:10211000340366968CAF9DAFAEAFBFAF669720918C
:1021200021043091220440912304509124046296AA
:102130002CAF3DAF4EAF5FAF6297A70196016AA18A
:102140007BA18CA19DA10E94B5716A966CAF7DAFF9
:102150008EAF9FAF6A97A50194016EA17FA188A55C
:1021600099A50E94B5719B01AC016A966CAD7DADDD
:102170008EAD9FAD6A970E9451756A966CAF7DAF28
:102180008EAF9FAF6A97A50194016AA17BA18CA134
:102190009DA10E94B5714B015C01A70196016EA142
:1021A0007FA188A599A50E94B5719B01AC01C501CD
:1021B000B4010E9450756A962CAD3DAD4EAD5FAD39
:1021C0006A970E94C4756B017C0120E030E0A90190
:1021D0000E94507187FF0AC02BED3FE049EC50E4AC
:1021E000C701B6010E9451756B017C01112351F0AA
:1021F0002BED3FE049EC50E4C701B6010E94507559
:102200006B017C0120E030E0A901C701B6010E940A
:102210005071811122C02EA93FA948AD59AD6EA5BC
:102220007FA588A999A90E945071811116C0229694
:102230002CAD3DAD4EAD5FAD22976AA97BA98CA9AF
:102240009DA90E945071811108C0ABEDCA2EAFE06C
:10225000DA2EA9ECEA2EA0E4FA2EA70196012A961E
:102260006CAD7DAD8EAD9FAD2A970E94B5714B01CF
:102270005C0120E030E0A901C301B2010E9450716D
:102280008823C9F0A5019401C501B4010E94B5716C
:102290004B015C01A3019201C301B2010E94B5711F
:1022A0009B01AC01C501B4010E9451750E94BC772D
:1022B0004B015C010DC020E030E0A901C501B40173
:1022C0000E94777787FF04C0B7FAB094B7F8B0944C
:1022D0002FE632E143E85AE3C501B4010E94507190
:1022E00087FF02C00C94D526C501B4010E94C676B2
:1022F0000E949A761B01672B19F422242394312C17
:10230000B10180E090E00E9454714B015C019B019F
:10231000AC01C701B6010E942D766EA77FA788ABDE
:1023200099ABA5019401C301B2010E942D762A96B2
:102330006CAF7DAF8EAF9FAF2A9762962CAD3DAD4F
:102340004EAD5FAD629766966CAD7DAD8EAD9FADC7
:1023500066970E945075A50194010E942D7666969D
:102360006CAF7DAF8EAF9FAF66972EA53FA548A9F6
:1023700059A9CA01B9010E94B57120E030E040E0DE
:102380005FE30E94B5719B01AC0160E070E080E802
:102390009FE30E94507522966CAF7DAF8EAF9FAFCA
:1023A000229726968CAD9DADAEADBFAD26978987A1
:1023B0009A87AB87BC8762962CAD3DAD4EAD5FADC5
:1023C00062972D873E874F87588B609110027091DE
:1023D0001102072E000C880B990B0E945671209158
:1023E00000023091010240910202509103020E94CA
:1023F000B5712AE037ED43E25CE30E94B5716E8F60
:102400007F8F88A399A30E94D4359B01AC012853E8
:102410003F4F4F4F5F4F26962CAF3DAF4EAF5FAF54
:1024200026974AA05BA06CA07DA041E050E05FAB86
:102430004EAB59E15AAB2EA93FA92215330509F439
:1024400010C10E94473B0E94D435DC01CB01269687
:102450002CAD3DAD4EAD5FAD2697821B930BA40B0B
:10246000B50BB7FD10C00E94D4359B01AC012853B9
:102470003F4F4F4F5F4F26962CAF3DAF4EAF5FAFF4
:1024800026970E9412303AA931503AAB332309F40F
:1024900041C022962CAD3DAD4EAD5FAD22976EA1F1
:1024A0007FA188A599A50E94B5716B017C012EA51D
:1024B0003FA548A959A9B201C3010E94B571A7015E
:1024C00096010E9451757B018C0122962CAD3DAD89
:1024D0004EAD5FAD2297B201C3010E94B5714B01B1
:1024E0005C012EA53FA548A959A96EA17FA188A589
:1024F00099A50E94B5719B01AC01C501B4010E9470
:1025000050752B013C01C701D8018EA39FA3A8A73A
:10251000B9A751C04EA95FA9BA0180E090E00E941E
:1025200054712EA53FA548A959A90E94B5714B0128
:102530005C010E942A766B017C01C501B4010E94F6
:10254000B2774B015C01A70196016AA17BA18CA126
:102550009DA10E94B5712B013C01A50194016AA5C2
:102560007BA58CA59DA50E94B5719B01AC01C30103
:10257000B2010E9451752B013C01A50194016AA191
:102580007BA18CA19DA10E94B5714B015C01A701AB
:1025900096016AA57BA58CA59DA50E94B5719B019E
:1025A000AC01C501B4010E9450756EA37FA388A73A
:1025B00099A759E15AAB9201A3016AAD7BAD8CADED
:1025C0009DAD0E94517569837A838B839C832EA174
:1025D0003FA148A559A52E966CAD7DAD8EAD9FADA2
:1025E0002E970E9451756D837E838F8398872A96DC
:1025F0002CAD3DAD4EAD5FAD2A9769857A858B8553
:102600009C850E94517569877A878B879C8766961F
:102610002CAD3DAD4EAD5FAD66976D857E858F85EA
:1026200098890E9451756D877E878F87988BE0907F
:1026300070021E8A1F8A188E198ECE0146966C0172
:102640008E01025E1F4F9E01235F3F4FAE01475F29
:102650005F4FBE016B5F7F4F45970E9446558111CA
:1026600021C0E09070021A8E1B8E1C8E1D8EDE0122
:102670005A966D018E01025E1F4F21E333E04DE259
:1026800053E069E273E085E293E00E94465580E101
:10269000E5E2F3E0A5E1B4E001900D928A95E1F75F
:1026A0000C94D526EEA9FFA93196FFABEEABC3CEB5
:1026B000E4E7FBE184918F010F5F1F4F882321F036
:1026C0000E944851F801F6CFE3E1F2E084918F01D6
:1026D0000F5F1F4F882311F40C94D5260E94485198
:1026E000F801F4CF80E50E94BC50882329F00E94B5
:1026F00002506B017C0103C0C12CD12C760183E513
:102700000E94BC50882361F00E94425020E030E0DB
:102710004AE754E40E94B5710E949A766B017C01ED
:102720000E94CC480E94D435C60ED71EE81EF91E62
:102730000E94D435DC01CB018C199D09AE09BF097B
:10274000B7FD02C00C94D5260E941230F1CF8091C3
:1027500008048770873071F48FE40E94BC5088238E
:1027600019F00E94335003C08FE40E94755081110C
:102770000C94D5260E94CC488091000290910102D1
:10278000A0910202B09103028093780290937902A3
:10279000A0937A02B0937B02809110029091110273
:1027A000909377028093760284E690E090931102F2
:1027B0008093100211E01093070488E50E94755081
:1027C000282E89E50E947550082F8AE50E947550D1
:1027D000382E211004C0011104C0182705C00111B2
:1027E00002C010E001C0182F80E1E5E1F4E0A5E2AD
:1027F000B3E001900D928A95E1F782E50E94BC500A
:10280000882369F00E9442506B017C0120E030E097
:10281000A9010E945071882309F4BFC006C0C12CD1
:10282000D12CE0EAEE2EE0E4FE2E111105C02110BD
:1028300003C0002309F4C2C0C0922D03D0922E031E
:10284000E0922F03F092300380901D0490901E04BC
:10285000A0901F04B0902004A5019401C701B60107
:102860000E94777718160CF098C080911904909107
:102870001A04A0911B04B0911C048AA39BA3ACA3CF
:10288000BDA3209115043091160440911704509176
:1028900018042EA33FA348A759A780910002909146
:1028A0000102A0910202B09103028AA79BA7ACA7E4
:1028B000BDA7EDE3F8E04590559065907490A701B1
:1028C0009601C501B4010E94507187FF12C0409269
:1028D0000002509201026092020270920302C092C2
:1028E0001D04D0921E04E0921F04F09220040E9466
:1028F000BE4E85E595E5A5E0B3E480930002909394
:102900000102A0930202B09303022EA13FA148A5A9
:1029100059A520931504309316044093170450933F
:1029200018048AA19BA1ACA1BDA180931904909326
:102930001A04A0931B04B0931C040E94BE4EA7016E
:10294000960160911D0470911E0480911F04909166
:1029500020040E947777181694F440920002509257
:1029600001026092020270920302C0921D04D09292
:102970001E04E0921F04F09220040E94BE4E0E94AA
:10298000CC482AA53BA54CA55DA520930002309319
:1029900001024093020250930302111105C021105D
:1029A00003C0011106C00AC080E00E94D82E112386
:1029B000C1F381E00E94D82E111102C0332019F01A
:1029C00082E00E94D82E0E94294F809106048093B5
:1029D00007048091780290917902A0917A02B091D7
:1029E0007B028093000290930102A0930202B093B5
:1029F0000302809176029091770290931102809366
:102A000010020E94E7530C94D526109275020C9484
:102A1000D526209375020C94D5260E9442502B0196
:102A20003C01133059F0F701E85AFD4F2081318104
:102A3000428153810E9450752B013C01F701EB5EEE
:102A4000FB4F2081318142815381C301B2010E9439
:102A500050754B015C012DEB37E346E855EB0E94C6
:102A6000777787FD1BC02DEB37E346E855E3C501BB
:102A7000B4010E94507118168CF01F5FB4E0CB0EA9
:102A8000D11CE4E0EE0EF11C143039F1D1018D912E
:102A90001D010E94BC50882381F3BFCF133051F435
:102AA00040922104509222046092230470922404E4
:102AB00001E0E3CFA5019401F6016081718182817B
:102AC00093810E945175D6016D937D938D939C9354
:102AD0001397812F0E94E94ED0CF002309F44FC0F5
:102AE00020E030E0A90160912104709122048091DE
:102AF0002304909124040E9451752091D80C3091A8
:102B0000D90C4091DA0C5091DB0C0E94B5710E94F7
:102B100082776093F50E7093F60E8093F70E909384
:102B2000F80E9091D30E8091D40E981719F00E9450
:102B30006E4825C00E94CC4880916F0081FB992788
:102B400090F981FF05C080916F008D7F80936F00A9
:102B50004091F50E5091F60E6091F70E7091F80EBF
:102B600040931C0F50931D0F60931E0F70931F0F07
:102B7000992329F080916F00826080936F000E94FA
:102B8000E7530C94D5260E94D3650C94D5268091EA
:102B9000490490914A048837910509F451C70CF013
:102BA00082C08836910509F45AC20CF045C08D34B4
:102BB000910509F450C2CCF48F31910509F43FC15D
:102BC0004CF48131910509F434C1429709F47BC575
:102BD0000C948D268B34910509F424C20CF026C286
:102BE0008A9709F4CFC10C948D268335910509F499
:102BF00066C56CF48135910509F43CC582359105B3
:102C000011F00C948D26109274020C94D526853503
:102C1000910509F48DC50CF456C58C35910511F05C
:102C20000C948D261DE3C12E12E0D12E0CECE02E6B
:102C30000CE0F02E10E097C58F36910509F459C2CB
:102C4000B4F48B36910509F4FDC454F4893691052A
:102C500009F4F0C28A36910509F4CDC40C948D268E
:102C60008D36910509F428C30CF4B4C22FC2833702
:102C7000910509F436C654F48137910509F4AEC2C2
:102C80000CF0F1C587E892E00E94E22F86379105AB
:102C900009F485C60CF0D0C68537910511F40C9463
:102CA000D5260C948D268E32F1E09F0711F40C94FA
:102CB000C9210CF04FC08D3C910509F4C6C724F51D
:102CC000883C910509F4C8C654F48937910509F484
:102CD000BDC68B39910509F4C8C20C948D268B3C76
:102CE000910509F41BC70CF038C7893C910511F018
:102CF0000C948D26AFEDEA2EA3E0FA2E0DE312E040
:102D0000B4E0DB2ED00EF0C68C3D910511F40C948E
:102D1000842074F48E3C910511F40C94921E833D32
:102D2000910511F00C948D26EBE7FAE10C94C21F8B
:102D3000823E910511F40C94FF208D3231E093070F
:102D400011F40C9428218D3D910511F00C948D26E1
:102D50000C949120853F41E0940711F40C94932545
:102D600054F58039A1E09A0711F40C9477257CF48E
:102D70008F32E1E09E0711F40C941D2283369140BE
:102D800011F00C948D26E4E7FBE10C9460258C3A5D
:102D900021E0920709F4E9C7843F31E0930711F479
:102DA0000C947A258A39914011F00C948D260E945A
:102DB000324F0C94D5268B3853E0950711F40C94C0
:102DC000D52684F4873FB1E09B0711F40C94992534
:102DD00014F40C9497258A38934011F40C94A4258C
:102DE0000C948D26803923E0920711F40C9405266B
:102DF000873E33E0930711F40C947A268F38934082
:102E000011F00C948D2660915C0E80E00E943538A4
:102E10006091E30D81E00E94353860916A0D82E097
:102E20000E9435386091F10C86E00E9435380C9490
:102E3000D52617981698159814980C94D5260E94A4
:102E4000F1665CE3C52ED12CE12CF12CA701960193
:102E50000E941575762E672ECA01B901A701960149
:102E60000E9415756B017C01CA01B90128E130E0AF
:102E700040E050E00E9415754B015C01C9016DE610
:102E800071E00E9415788E010F5F1F4F611571056B
:102E900099F06F927F92DF92CF929F928F929F9341
:102EA0008F937F936F9381E592E09F938F931F930E
:102EB0000F930E94217126C0009789F06F927F9234
:102EC000DF92CF929F928F929F938F9381E492E0B3
:102ED0009F938F931F930F930E94217113C08114AE
:102EE0009104A104B104B1F06F927F92DF92CF926E
:102EF0009F928F9285E392E09F938F931F930F93FE
:102F00000E9421710FB6F894DEBF0FBECDBFEBE774
:102F1000FAE123C0C114D104E104F10469F06F9215
:102F20007F92DF92CF928DE292E09F938F931F93D7
:102F30000F930E942171E6CF6F927F9289E292E017
:102F40009F938F931F930F930E9421710F900F9067
:102F50000F900F900F900F90DACF84917F013FEF89
:102F6000E31AF30A882321F00E944851F701F5CFB4
:102F7000B80185E692E00E94DC478AE00E94485151
:102F80000C94D52683E50E94BC50882311F40C9440
:102F9000D5260E942250E82E80E50E94BC5088234E
:102FA00039F00E942250182F87FF03C00C94D526B9
:102FB0001DE089E40E94BC50882349F00E943350F0
:102FC000811111C0E8EDF4E08DE28E0F07C089E4B5
:102FD0000E947550F5CF31968E1729F094911913F0
:102FE000FACF0C94F32761E0812F0E943B4E6E2DA7
:102FF000812F0E940C4EF12CB701812F0E94D334F7
:10300000163051F0183011F00C94D526F092B3061A
:10301000E092B2060C94D526F092B506E092B40682
:103020000C94D5260E9425670C94D5268091050422
:10303000813011F00C94D52682E0809305040E9423
:10304000D4356093FD037093FE038093FF03909348
:1030500000040C94D5260E945E670C94D52688E661
:1030600090E00E94525381110C94D5268091CB0C94
:1030700083FF02C00C94D52683E50E94BC508823B0
:1030800009F10E9442500E949576209135023091BC
:1030900036022F503109261737070CF4B901709307
:1030A0004E0360934D0380E00E9485390E94425098
:1030B00020E030E04AEA52E40E945071181614F001
:1030C0000E945E670E94CE670C94D5268EE40E9413
:1030D000BC50882311F40C94D5260E9412506093A2
:1030E000E80C7093E90C8093EA0C9093EB0C0C9431
:1030F000D52683E50E947550882359F083E50E9408
:10310000BC50882319F00E94225001C080E08093B7
:10311000CB0CEBE7FAE184918F010F5F1F4F8823FF
:1031200021F00E944851F801F6CFE0E8F2E08491E6
:103130008F010F5F1F4F882321F00E944851F80133
:10314000F6CF8091CB0C8823A1F142E7C42E42E058
:10315000D42EE12CF12C20E08091CB0C90E00E2CB1
:1031600002C0959587950A94E2F780FF17C0BB24AB
:10317000B394B20E222319F08CE20E944851F6015A
:1031800025913491F901849189010F5F1F4F8823A4
:1031900021F00E9448519801F5CF2B2DFFEFEF1A37
:1031A000FF0A32E0C30ED11C45E0E416F104A1F69B
:1031B0000CC0ECE7F2E084918F010F5F1F4F882372
:1031C00021F00E944851F801F6CF8AE00E94485150
:1031D0000C94D526109212020C94D52683E50E94F9
:1031E000BC50882369F00E9422508D3320F48093D4
:1031F00013020C94D5268CE3809313020C94D526ED
:10320000EBE7FAE184918F010F5F1F4F882321F0D4
:103210000E944851F801F6CF4091130250E060E05F
:1032200070E080E992E00E9489478AE00E9448515C
:103230000C94D52689E690E00E945253811111C06A
:10324000E7E9F2E084918F010F5F1F4F882321F09F
:103250000E944851F801F6CF0E94F7388AE00E9498
:10326000485110920A030C94C32983E50E94BC5074
:10327000882311F40C94D5260E942250182F8D33E8
:1032800008F01CE3109317030E94D4356B017C01F6
:10329000212F30E0A8EEB3E00E944175C60ED71E84
:1032A000E81EF91EC0921303D0921403E092150396
:1032B000F09216030C94D5268DE690E00E945253AE
:1032C00081110C94D5268091CB0C83FF02C00C9405
:1032D000D52683E50E94BC508AAF811105C082E5E6
:1032E0000E94BC50882321F10E9442500E94957692
:1032F00020913502309136022F50310926173707B9
:103300000CF4B90170934E0360934D0380E00E946A
:1033100085390E94425020E030E04AEA52E40E949F
:103320005071181614F40C94C4270E945E6781E053
:10333000ED968FAFED970E94CE67ED968FADED972E
:10334000882311F40C94D52681E0809312021EA2EA
:103350001FA218A619A62E961CAE1DAE1EAE1FAE3D
:103360002E971AA21EAE5CE323965FAF23978CE1E3
:103370002F968FAF2F9796E427969FAF2797C12C54
:10338000D12C20E8E22E3FEBF32E812C912C54011E
:1033900060914D0370914E03072E000C880B990B22
:1033A0000E945671162F072F782E692E262F372F41
:1033B000482F592FB601C7010E9450718823D9F0B8
:1033C0002091B7063091B8064091B9065091BA06DF
:1033D000612F702F872D962D0E945071881F88278E
:1033E000881F8AA3AAADAA2351F0882341F08091B7
:1033F00012020C94D5261C2D0D2D7E2C6F2C0E94B4
:10340000D4356B017C01DC01CB012E962CAD3DAD9A
:103410004EAD5FAD2E97821B930BA40BB50BB7FD82
:103420003DC0D701C60188519C4FAF4FBF4F2E966C
:103430008CAF9DAFAEAFBFAF2E970E94F738EAE9D1
:10344000F2E084912F019FEF491A590A882321F055
:103450000E944851F201F5CF81149104A104B104F6
:10346000B9F0D501C401805F984DAF4FBF4FBC018B
:10347000CD016C197D098E099F0928EE33E040E0EB
:1034800050E00E941575CA01B9010E948E5303C015
:103490008FE30E9448518AE00E9448510E941230F6
:1034A0000E94D43560930B0370930C0380930D033B
:1034B00090930E03A091B706AAA7B091B806BEA735
:1034C000E091B906EAABF091BA06FEAB9D01AF01FF
:1034D000612F702F872D962D0E9450751B012C0196
:1034E00020E030E0A9010E94777787FF04C057FAF7
:1034F000509457F8509481149104A104B10459F4E4
:1035000020E030E040E85FE3C201B1010E94507169
:1035100087FF0DC00AC020E030E040E450E4C20163
:10352000B1010E947777181614F4460157012AA1B9
:10353000222309F444C08EA19FA1A8A5B9A5892B77
:103540008A2B8B2B61F0D701C6012EA13FA148A584
:1035500059A5821B930BA40BB50BB7FD30C02AA550
:103560003EA54AA95EA96EAD23967FAD23972F96FF
:103570008FAD2F9727969FAD27970E94507520E01B
:1035800030E040EC5FE30E94507187FD30CFD701FF
:10359000C601805A9541AF4FBF4F8EA39FA3A8A7E6
:1035A000B9A79AA59EAFAEA52396AFAF2397BAA9A8
:1035B0002F96BFAF2F97EEA92796EFAF2797809151
:1035C0001202882309F413CF81149104A104B104D9
:1035D00029F4C12ED02EE72CF62CDACEF0E1CF1A4A
:1035E000F7E2DF0AE108F108C818D908EA08FB0881
:1035F000F7FEFDCEEECF80E50E94BC50882341F05F
:103600000E942250182F823010F00C94D52601C051
:1036100010E083E50E94BC50882319F00E941250EC
:1036200002C06FEF70E0E12FF0E06F3F710510F026
:103630006FEF70E0EE0FFF1FEE54F94F7183608360
:103640000C94D52680E50E94BC50882341F00E944E
:1036500012506230710510F00C94D52602C060E063
:1036600070E0660F771FFB01EE54F94F1182108254
:103670000C94D5260E94CF390E94DF491092B306E0
:103680001092B2061092B5061092B40600E010E057
:1036900062E370E080E090E00E949C350E94473B2E
:1036A0000F5F1F4F0331110599F762E370E080E06F
:1036B00090E00E949C350E94473B0C94D5262093B5
:1036C00074020C94D52683E50E94BC508823A1F097
:1036D0000E94425020E030E04AE754E40E94B57175
:1036E0000E949A76609314027093150280931602DA
:1036F000909317020C94D52688E50E94755081118D
:103700000C94C82789E50E94755081110C94C82734
:103710008AE50E94755081110C94C82785E40E94A7
:10372000755081110C94C8270E94DF490C94D5264E
:1037300083E50E947550882311F40C94D5260E94CD
:10374000425020E030E04AE754E40E94B5710E9404
:103750009A7660930F0370931003809311039093F4
:1037600012030C94D526D6018D916D010E947550DF
:10377000882309F46DC0133009F063C00E944250E1
:103780004B015C0120E030E040EA51E40E945071BE
:1037900087FF4EC0A50194016091D80C7091D90C9F
:1037A0008091DA0C9091DB0C0E942D762B013C016C
:1037B0009B01AC0160916206709163068091640682
:1037C000909165060E94B5716093620670936306DE
:1037D0008093640690936506A3019201609192061E
:1037E0007091930680919406909195060E94B57110
:1037F0006093920670939306809394069093950637
:1038000060917206709173068091740690917506AE
:103810000E945471A30192010E94B5710E949A7690
:103820006093720670937306809374069093750686
:103830008092D80C9092D90CA092DA0CB092DB0C4A
:1038400007C00E944250F701608371838283938393
:103850001F5FF4E0EF0EF11C143009F084CF0E94DA
:10386000B5490C94D5260E94CC4883E50E94BC50F3
:10387000882309F484C90E9412506230710509F04E
:103880007EC90E94D0328BE50E9448516091FE02B1
:103890007091FF02809100039091010342E00E9429
:1038A000AB54409102035091030360910403709163
:1038B000050381EA92E00E94A647409106035091D9
:1038C000070360910803709109038EE992E00E945A
:1038D000A6478DE50E9448518AE00E9448510C9409
:1038E000D526E3E8F3E084918F010F5F1F4F882313
:1038F00021F00E944851F801F6CF60E083E793E0A1
:103900000E94A85360E08CE693E00E94A85361E017
:1039100081E693E00E94A85361E081E593E00E9474
:10392000A85360E088E493E00E94A85361E08EE32E
:1039300093E00E94A85360E084E393E00E94A853C0
:1039400060E08CE293E00E94A85360E08EE193E097
:103950000E94A85360E080E193E00E94A85360E0D9
:1039600081E093E00E94A85360E083EF92E00E9420
:10397000A85360E08DED92E00E94A85360E08CECCB
:1039800092E00E94A85360E087EB92E00E94A85367
:1039900060E084EA92E00E94A8530C94D52600913E
:1039A00047041091480483E0D12C40E08150E9F0B5
:1039B000D8019C91292F2B7F2134C1F711962C918E
:1039C0002133A1F7913421F0953421F441E002C074
:1039D000DD24D39498012E5F3F4F89012F5F3F4F25
:1039E000F80190819032C9F3E1CF442369F0EBE70D
:1039F000FAE184917F012FEFE21AF20A882321F085
:103A00000E944851F701F5CFDD2069F0E0E5F4E0D0
:103A100084917F013FEFE31AF30A882321F00E948B
:103A20004851F701F5CFD8018D918D01882309F414
:103A3000CCCB0E944851F7CF0E945E4D0C94D52606
:103A400020930704209306040C94D52610920704B3
:103A5000109206040C94D52688EC90E00E945253F4
:103A600081110C94D52684E40E9475508823C1F1FD
:103A70000E94425011E020E030E0A9010E94507104
:103A8000811101C010E01093D603112349F10E9467
:103A90004250E0914C03B4E0EB9FF0011124E55259
:103AA000FC4F608371838283938320E030E0A9011F
:103AB0006091DB037091DC038091DD039091DE0364
:103AC0000E94507181110CC080E090E0A0E4B0E44D
:103AD0008093DB039093DC03A093DD03B093DE03BC
:103AE0000E941D4A0C94D526F80181918F010E94F5
:103AF0007550882351F00E9442500E949A76D70157
:103B00006D937D938D939C931397B4E0EB0EF11C12
:103B1000D012EACF0E9404480C94D526E6E8EE2E97
:103B2000E6E0FE2E0DE312E0F4E0DF2ED00EF80109
:103B300081918F010E947550882341F00E9442506C
:103B4000D7016D937D938D939C931397B4E0EB0E07
:103B5000F11CD012ECCF0C94D52683E50E94BC500A
:103B60008823A1F00E94425060937E0670937F06E6
:103B7000809380069093810660937A0670937B060B
:103B800080937C0690937D0610E001C011E080E5F3
:103B90000E94BC50882359F00E94425060937E06D8
:103BA00070937F06809380069093810610E082E5F3
:103BB0000E94BC50882359F00E94425060938206B4
:103BC00070938306809384069093850610E084E5C5
:103BD0000E94BC50882361F00E94425060937A0694
:103BE00070937B0680937C0690937D060C94D5267B
:103BF000112311F40C94D52640917E0650917F0636
:103C000060918006709181068AE594E00E94A64743
:103C100040918206509183066091840670918506DA
:103C200087E594E00E94A64740917A0650917B0672
:103C300060917C0670917D0684E594E00E94A64721
:103C40008AE00E9448510C94D52681E50E94755067
:103C5000882351F00E940250609396067093970655
:103C6000809398069093990683E50E947550882367
:103C700051F00E9442506093AE067093AF0680935D
:103C8000B0069093B10684E50E947550882351F0E8
:103C90000E9442506093AA067093AB068093AC06D4
:103CA0009093AD0688E50E947550882351F00E94DC
:103CB000425060935606709357068093580690932F
:103CC000590689E50E947550882351F00E944250A0
:103CD00060935A0670935B0680935C0690935D0632
:103CE0008AE50E947550882351F00E9442506093EB
:103CF0005E0670935F06809360069093610685E48C
:103D00000E947550882311F40C94D5260E944250CD
:103D100060936206709363068093640690936506D1
:103D20000C94D5266DE3C62E62E0D62E79E0E72E00
:103D300074E0F72E10E0F60181916F010E9475503A
:103D4000882359F00E944250D7016D937D938D9343
:103D50009C931397812F0E94E94E1F5FB4E0EB0EF6
:103D6000F11C133041F70C94BF1580912403982F58
:103D7000917011E0D92ED12681FB002700F901278F
:103D800082FB882780F91827D11002C0002319F080
:103D9000EBE7FAE114C01111FBCF59E2852E58E090
:103DA000952E85E194E09BA38AA3DE0111965D0127
:103DB00002E818E01D01B3E0B00FBEA352C0849129
:103DC0007F012FEFE21AF20A882321F00E94485166
:103DD000F701F5CFE8E7F4E084917F013FEFE31AC4
:103DE000F30A882321F00E944851F701F5CFDD2026
:103DF00069F0E6E7F4E084917F014FEFE41AF40AFA
:103E0000882321F00E944851F701F5CF002369F083
:103E1000E4E7F4E084917F015FEFE51AF50A882377
:103E200021F00E944851F701F5CF111103C0EAE6D5
:103E3000F4E00CC0E2E7F4E084918F010F5F1F4FC4
:103E40008823A9F30E944851F801F6CF84918F018D
:103E50000F5F1F4F882309F4A8C70E944851F8013B
:103E6000F5CFF4016591759185919491EAA1FBA13B
:103E7000C190D190E190F190FBA3EAA3A701960134
:103E80000E9450752B013C0120E030E040EA51ECEB
:103E90000E94777787FD11C020E030E040EA51E4CE
:103EA000C301B2010E94507118163CF0D1014D922D
:103EB0005D926D927C9213970EC0F8018491181652
:103EC000ACF7F7FAF094F7F8F094D101CD92DD92C7
:103ED000ED92FC921397D101CD90DD90ED90FD9085
:103EE0001D0120E030E040EA51ECC701B6010E941C
:103EF000777787FF03C0E4E7FBE10BC020E030E009
:103F000040EA51E4C701B6010E9450711816C4F48A
:103F1000F2CF84918F010F5F1F4F882321F00E9401
:103F20004851F801F6CFEEE7F4E084918F010F5F7E
:103F30001F4F882309F439C70E944851F801F5CF73
:103F4000B4E08B0E911C0F5F1F4FEEA1E01389CFE1
:103F500049E0E42E44E0F42E10E0F50181919191C6
:103F6000A191B1915F01F70181939193A193B193D5
:103F70007F01812F0E94E94E1F5F133071F70E946D
:103F8000E75313C784918F010F5F1F4F882321F0E0
:103F90000E944851F801F6CFE0ECF4E084918F01E3
:103FA0000F5F1F4F882321F00E944851F801F6CF80
:103FB000ECEBF4E084918F010F5F1F4F882321F019
:103FC0000E944851F801F6CFE4EBF4E084918F01B0
:103FD0000F5F1F4F882321F00E944851F801F6CF50
:103FE000409058025090590260905A0270905B02C3
:103FF00020916402309165024091660250916702FF
:10400000C301B2010E945175AB01BC0182EB94E087
:104010000E94A64780905C0290905D02A0905E0294
:10402000B0905F02209168023091690240916A026B
:1040300050916B02C501B4010E945175AB01BC01E6
:104040008FEA94E00E94A647C0906002D09061027F
:10405000E0906202F090630220916C0230916D0258
:1040600040916E0250916F02C701B6010E945175D6
:10407000AB01BC018CEA94E00E94A647E4EAF4E0BC
:1040800084918F010F5F1F4F882321F00E944851B8
:10409000F801F6CF2091040230910502409106020A
:1040A00050910702C301B2010E945175AB01BC01DE
:1040B00082EA94E00E94A64720910802309109020A
:1040C00040910A0250910B02C501B4010E94517542
:1040D000AB01BC018FE994E00E94A64720910C023D
:1040E00030910D0240910E0250910F02C701B601AE
:1040F0000E945175AB01BC018CE994E00E94A64777
:104100008AE00E94485151C683E50E94BC50882332
:1041100009F44BC60E941250709311026093100272
:1041200044C68DED90E00E94525381113EC683E556
:104130000E94BC508823D9F100914C0310E00E94EA
:104140001250000F111FF801EB5DFD4F718360836A
:1041500080914C0390E08C01000F111F000F111F84
:104160009801295C3D4F7901880F991FFC01EB5D97
:10417000FD4F60817181072E000C880B990B0E9406
:1041800056712AE037ED43E25CE30E94B571F80115
:10419000E952FC4F20813181428153810E94B571E7
:1041A000D7016D937D938D939C931397FEC5EBE799
:1041B000FAE184918F010F5F1F4F882321F00E9445
:1041C0004851F801F6CF85E40E94485180914C0394
:1041D000805D0E944851E0914C03F0E0EE0FFF1F1C
:1041E000EB5DFD4F6081718180ED94E00E94C347DB
:1041F00085E20E9448518AE00E944851D6C580E578
:104200000E947550882309F4D0C50E9412506B019A
:104210007C0183E50E94BC50882321F00E9412504B
:104220008B0102C00FEF1FEFC8010196039708F042
:10423000BCC5D7FCBAC59C2DE8EDF4E08DE28E0F2D
:104240002491921709F4CFC631968E13F9CFCEC6BA
:1042500085E40E94BC50811110C080E50E94755019
:10426000882391F00E94425060934103709342036F
:10427000809343039093440307C00E9422508823F5
:1042800061F3E4E7FBE16EC089E40E947550882386
:1042900081F00E9442502CEA35EC47E25EE30E9436
:1042A000B57160933D0370933E0380933F039093F9
:1042B000400384E40E947550882381F00E9442509C
:1042C0002CEA35EC47E25EE30E942D7660934503CD
:1042D000709346038093470390934803EBE7FAE11A
:1042E00084918F010F5F1F4F882321F00E94485156
:1042F000F801F6CF4091410350914203609143038E
:10430000709144038DE095E00E94A6472CEA35ECBD
:1043100047E25EE360913D0370913E0380913F036D
:10432000909140030E942D76AB01BC0189E095E09D
:104330000E94A6472CEA35EC47E25EE36091450314
:104340007091460380914703909148030E94B57194
:10435000AB01BC0185E095E00E94A6478AE00E947F
:10436000485123C584918F010F5F1F4F882321F08F
:104370000E944851F801F6CFE1E1F5E084918F0108
:104380000F5F1F4F882309F410C50E944851F801A0
:10439000F5CF83E50E947550182F882371F00E9495
:1043A00042500E94957670933C0260933B0221E05C
:1043B000672B09F020E02093B60680E50E94755037
:1043C000882359F020913B0230913C02232B11F0BD
:1043D0000E9433508093B606E8C41111E6C4EBE79F
:1043E000FAE184918F010F5F1F4F882321F00E9413
:1043F0004851F801F6CF8091B606811103C064E4FC
:1044000072E002C061E472E088E395E00E94DC475C
:1044100060913B0270913C0287E295E00E94C347A5
:10442000E3E2F5E084918F010F5F1F4F882309F4C9
:10443000BCC40E944851F801F5CF85E40E94BC50ED
:10444000882321F00E9412507B0102C0E12CF12C44
:1044500083E40E94BC50882331F00E941250A4963D
:104460006FAFA49704C0B5E0A496BFAFA49785E54D
:104470000E94BC50882319F00E94335003C085E588
:104480000E947550E0968FAFE097F7FC07C0812C33
:10449000912CF6E1AF2EF3E4BF2E06C0812C912CB7
:1044A000ECE8AE2EE2E4BE2E83E50E94BC508823E9
:1044B00021F00E9442504B015C01E114F10411F41F
:1044C00010924C030E94D4352B013C01EE2069F080
:1044D000E9EFF6E084918F010F5F1F4F882309F405
:1044E00064C40E944851F801F5CFC501B4010E948F
:1044F0009576072E000C880B990B0E9456716AA7BF
:104500007EA78AAB9EAB60913502709136026F50E8
:104510007109072E000C880B990B0E9456719B01A4
:10452000AC016AA57EA58AA99EA90E947777181674
:104530006CF4EAEBF6E084918F010F5F1F4F882344
:1045400009F433C40E944851F801F5CFE5EEF6E0D6
:1045500084917F012FEFE21AF20A882321F00E9452
:104560004851F701F5CFD301C201805E914BAF4FA7
:10457000BF4FEC968CAF9DAFAEAFBFAFEC970E9434
:10458000CF3985E280934B0381E080931202AB9692
:104590004CAE5DAE6EAE7FAEAB97E4964CAE5DAE0C
:1045A0006EAE7FAEE497A7961FAEA797E8961CAEB7
:1045B0001DAE1EAE1FAEE8972B961FAE2B9790E454
:1045C0009EAFACE12396AFAF2397B6E42F96BFAF73
:1045D0002F9727961FAE279763961FAE6397679610
:1045E0001FAE67976B961FAE6B97A3961CAE1DAE62
:1045F0001EAE1FAEA3976F961CAE1DAE1EAE1FAEB5
:104600006F97C12CD12C760125E230E040E050E0DC
:104610002EA33FA348A759A775E2872E912CA12C62
:10462000B12CAF961CAE1DAE1EAE1FAEAF9731E0E3
:10463000A6963FAFA6971BAE1AAE10E0212C312CE8
:1046400000E0A4964FADA497042E000C550BA59640
:104650005FAF4EAFA59780911202882309F4F1C095
:104660000E94D4356AA37BA38CA39DA380914A03A7
:10467000882309F4CAC00E94F7391091B706209028
:10468000B8063090B9060091BA06212F322D432D7D
:10469000502F27966FAD279763967FAD63976796E8
:1046A0008FAD67976B969FAD6B970E94507187FF98
:1046B0000CC027961FAF279763962FAE6397679618
:1046C0003FAE67976B960FAF6B97212F322D432D1F
:1046D000502F2B966FAD2B977EAD23968FAD2397E2
:1046E0002F969FAD2F970E947777181654F42B962C
:1046F0001FAF2B972EAE23963FAE23972F960FAF6B
:104700002F97A6965FADA6972AA53EA54AA9552341
:1047100009F45CC05EA9612F722D832D902F0E9439
:10472000777718160CF071C08AA19BA1ACA1BDA12E
:1047300084199509A609B709C258DF4F8883998360
:10474000AA83BB83CE57D04088589341A109B109B1
:10475000B7FD5BC0D501C4012EA13FA148A559A555
:10476000821B930BA40BB50BB595A79597958795D1
:1047700080934B03C258DF4F88819981AA81BB8106
:10478000CE57D040AF968CAF9DAFAEAFBFAFAF9717
:104790009AA527969FAF2797AEA56396AFAF63976D
:1047A000BAA96796BFAF6797EEA96B96EFAF6B9705
:1047B0002AA13BA14CA15DA1AB962CAF3DAF4EAF62
:1047C0005FAFAB97A6961FAEA6971FC05EA9612FDD
:1047D000722D832D902F0E94507187FF16C08AA1E1
:1047E0009BA1ACA1BDA1AB962CAD3DAD4EAD5FADD7
:1047F000AB97821B930BA40BB50BAC01BD014858C2
:1048000053416109710977FF18C420E030E040EAA4
:1048100051E46AA57EA58AA99EA90E9451759B01B3
:10482000AC01612F722D832D902F0E94777718167F
:104830007CF4E6E4F6E084918F010F5F1F4F811155
:1048400003C00E94CF39B1C20E944851F801F3CF92
:104850008AA19BA1ACA1BDA1E4962CAD3DAD4EAD0E
:104860005FADE497821B930BA40BB50BB7FD90C013
:104870000E94F7388AE00E9448518AA19BA1ACA10E
:10488000BDA18053984FAF4FBF4FE4968CAF9DAF03
:10489000AEAFBFAFE497A7969FADA79791115DC04C
:1048A000E8962CAD3DAD4EAD5FADE897612F722D12
:1048B000832D902F0E9477771816D4F520E030E0F2
:1048C00040E050E4612F722D832D902F0E9451758E
:1048D000E8966CAF7DAF8EAF9FAFE8972AA13BA162
:1048E0004CA15DA1205E314B4F4F5F4FEC962CAF3A
:1048F0003DAF4EAF5FAFEC9720E030E040EC50E4CE
:104900006AA57EA58AA99EA90E9450759B01AC014B
:1049100081E0A7968FAFA797612F722D832D902FDF
:104920000E9477771816A4F1A7961FAEA79730C0FC
:104930008AA19BA1ACA1BDA1EC962CAD3DAD4EAD25
:104940005FADEC97821B930BA40BB50BB7FD20C09A
:1049500045E256E067E376E018C020E030E040EA48
:1049600051E46AA57EA58AA99EA90E9450759B0163
:10497000AC01612F722D832D902F0E94507187FF03
:1049800007C042E056E065E176E080E00E94093A27
:104990008AA19BA1ACA1BDA1880F991FAA1FBB1F13
:1049A000AB962CAD3DAD4EAD5FADAB97821B930B7F
:1049B000A40BB50B84199509A609B70981389F4442
:1049C000A241B10568F0E4EEF5E084918F010F5F3C
:1049D0001F4F882309F435CF0E944851F801F5CFC5
:1049E0004AAD5BADA5968EAD9FADA5978417950793
:1049F0000CF031CEE7E8F5E084918F010F5F1F4F97
:104A0000882321F00E944851F801F6CFB701A60192
:104A100083E795E00E94A6478AE00E9448516F967E
:104A20004CAD5DAD6EAD7FAD6F978FE595E00E94AB
:104A3000A6478AE00E944851A3964CAD5DAD6EAD8D
:104A40007FADA3978BE495E00E94A6478AE00E9481
:104A50004851E0969FADE097992309F4A6C1C09212
:104A60004103D0924203E0924303F09244032CEAC4
:104A700035EC47E25EE36F966CAD7DAD8EAD9FADDC
:104A80006F970E94B57160933D0370933E038093CE
:104A90003F03909340032CEA35EC47E25EE3A39694
:104AA0006CAD7DAD8EAD9FADA3970E942D766093CA
:104AB000450370934603809347039093480375C161
:104AC00084918F010F5F1F4F882321F00E9448516E
:104AD000F801F6CFE3E2F7E084918F010F5F1F4FFB
:104AE000882309F462C10E944851F801F5CF0E9461
:104AF000CC485BC1E4E7FBE184918F010F5F1F4F5E
:104B0000882321F00E944851F801F6CFE2E3F7E054
:104B100084918F010F5F1F4F882309F446C10E94C3
:104B20004851F801F5CFE0D780E057D43EC1DCD73B
:104B30003CC183E50E947550882321F00E943350C8
:104B400091E089274AD431C189E40E94BC5088236E
:104B500021F00E942250B82E01C0B12C8DE3882E86
:104B600082E0982E11E000E0D4018D914D010E9469
:104B7000BC50882379F10E9412506B017C016115B1
:104B8000710541F1023081F00330A1F0013031F0C4
:104B9000B1E0BB15F0F087E59EE019C0E1E0EB1550
:104BA000C0F08EED9DE013C0F1E0FB1590F085E6BE
:104BB0009DE00DC08AE893E00E9452538111F5C038
:104BC00080914C03811105C0B6018CEE9CE00E94DF
:104BD000F26210E00F5F043039F6112309F4E5C0EA
:104BE00060E087E59EE00E94BA2F61E08EED9DE0D7
:104BF0000E94BA2F62E085E69DE00E94BA2F66E02F
:104C00008CEE9CE00E94BA2FD0C088E50E947550BF
:104C1000D82E89E50E947550E82E8AE50E947550CD
:104C2000F82E85E40E947550082FD11007C0E110BE
:104C300005C0F11003C011E0182701C010E088E59D
:104C40000E94BC50882309F486C30E94225011237D
:104C500031F010925C0E80E00E94243806C0813052
:104C6000C1F3DD2011F08A30A1F389E50E94BC5028
:104C7000882309F473C30E942250112331F010924B
:104C8000E30D81E00E94243806C08130C1F3EE209C
:104C900011F08A30A1F38AE50E94BC50882309F400
:104CA00060C30E942250112331F010926A0D82E0FD
:104CB0000E94243806C08130C1F3FF2011F08A30F1
:104CC000A1F385E40E94BC50882309F44DC30E94DF
:104CD0002250112331F01092F10C86E00E9424380A
:104CE00064C08823C1F3002309F45FC08A3009F04F
:104CF0005CC0F1CF81E08093180283E50E94BC5034
:104D0000882339F00E94335081114FC00E942A330A
:104D10004CC083E50E947550F7CF0E94D36545C013
:104D2000F09049040E94CC48FF2029F1EBE7FAE11A
:104D300084918F010F5F1F4F882321F00E944851FB
:104D4000F801F6CF84E50E9448516F2D70E080E0B5
:104D500090E04AE00E94EC5280E20E944851E5E572
:104D6000F7E084918F010F5F1F4F8823F1F00E94BD
:104D70004851F801F6CF10927002EBE7FAE1849106
:104D80008F010F5F1F4F882321F00E944851F801C7
:104D9000F6CF60E070E083E497E00E94C3478AE0CA
:104DA0000E94485102C00E94D36510920A030E94DB
:104DB0000D33E9C20E94C8508091CB0C83FDA5C081
:104DC000C0903103D0903203E0903303F09034036D
:104DD0002091210430912204409123045091240415
:104DE000C701B6010E945071882309F48EC06091FA
:104DF000B7067091B8068091B9069091BA062091D5
:104E0000B606211129C00E94957620913B0230916F
:104E10003C026217730704F5C0922104D092220469
:104E2000E0922304F0922404EBE7FAE184918F01ED
:104E30000F5F1F4F882321F00E944851F801F6CFE1
:104E4000E8EFF1E084918F010F5F1F4F882321F07D
:104E50000E944851F801F6CF8090310390903203C0
:104E6000A0903303B09034032091210430912204A8
:104E70004091230450912404C501B4010E9450754F
:104E80006B017C0120E030E0A9010E94777787FF69
:104E900004C0F7FAF094F7F8F094E091700224E07F
:104EA000E29FF0011124E95CFD4F208131814281B4
:104EB0005381C701B6010E94B57120E030E048E49B
:104EC00053E40E947777181604F58092210490929B
:104ED0002204A0922304B0922404EBE7FAE1849127
:104EE0008F010F5F1F4F882321F00E944851F80166
:104EF000F6CFE9EDF1E084918F010F5F1F4F88231A
:104F000021F00E944851F801F6CF60911002709193
:104F10001102072E000C880B990B0E9456712091EC
:104F200000023091010240910202509103020E945E
:104F3000B5712AE037ED43E25CE30E94B5716E8BF8
:104F40007F8B888F998FE090700219821A821B8262
:104F50001C82AE014F5F5F4F6A018E010A5E1F4FD8
:104F600021E333E04DE253E069E273E085E293E050
:104F70000E94465580E1E5E2F3E0A5E1B4E001904E
:104F80000D928A95E1F711CF0E9425670C9497192D
:104F90000E94CC4888E50E947550882331F0179A0A
:104FA000809108048E7F8093080489E50E947550E3
:104FB000882331F0169A809108048D7F809308042D
:104FC0008AE50E947550882331F0159A8091080473
:104FD0008B7F8093080485E40E947550882309F430
:104FE000E4CE149AE2CE0E94A66CDFCE0E94CC489A
:104FF000BC2C60E08C2D0E943B4E0F3FBFEF1B0787
:1050000059F48C2D0E94E44D31E020E0892B09F009
:1050100030E0032F122F05C00130110559F000E0D8
:1050200010E08B2D0E94E44D8017910709F4BDCE4E
:10503000F9D7F7CF01E010E0F4CF4AAD5BAD452BD7
:1050400009F45FC1AF964CAC5DAC6EAC7FACAF9772
:10505000480E591E6A1E7B1EAF962CAD3DAD4EAD5F
:105060005FADAF97281B390B4A0B5B0BCA01B90127
:105070002EA13FA148A559A50E940675A301920142
:105080000E942978D501C401820F931FA41FB51F68
:1050900084319105A105B105F4F04C015D01C8977B
:1050A000A105B1052CF057E3852E912CA12CB12C34
:1050B00046E284169104A104B104DCF08AE490E095
:1050C000A0E0B0E088199909AA09BB098EA39FA3A3
:1050D000A8A7B9A712C044E1842E912CA12CB12C11
:1050E00024E130E040E050E02EA33FA348A759A7B9
:1050F00004C08EA29FA2A8A6B9A6E2EBF6E0849116
:105100009F012F5F3F4F882381F0ED962FAFED97E2
:10511000EE963FAFEE970E944851ED962FADED977A
:10512000EE963FADEE97F901EACFC501B4010E94BA
:105130008E53EDEAF6E084919F012F5F3F4F882365
:1051400081F0ED962FAFED97EE963FAFEE970E9470
:105150004851ED962FADED97EE963FADEE97F901E4
:10516000EACF6EA17FA188A599A50E948E532B96A8
:105170004FAD2B975EAD23966FAD23972F967FADE6
:105180002F9786EA96E00E94A64727964FAD27976D
:1051900063965FAD639767966FAD67976B967FADCC
:1051A0006B978FE996E00E94A6474AAD5BAD43300E
:1051B00051050CF4A6C06EA17FA188A599A50E94F7
:1051C000567120E030E040E850E40E94B5716B0178
:1051D0007C012B962FAD2B973EAD23964FAD239799
:1051E0002F965FAD2F9727966FAD279763967FAD6C
:1051F000639767968FAD67976B969FAD6B970E948D
:1052000050752BED3FE049E450E40E94B57120E079
:1052100030E040E05FE30E94B5719B01AC01C70143
:10522000B6010E942D766B017C01C301B2010E9480
:1052300056712FE632E143E85AE30E94B5712B0123
:105240003C01B701A60189E996E00E94A647B30197
:10525000A20183E996E00E94A6472AE939E949E1DB
:105260005FE3C701B6010E94B5716B017C019B0130
:10527000AC010E945175A30192010E942D766F9698
:105280006CAF7DAF8EAF9FAF6F97A3019201C70147
:10529000B6010E94B57120E030E040E05EE30E947C
:1052A000B571A3966CAF7DAF8EAF9FAFA397E3E8C8
:1052B000F6E084913F015FEF651A750A882321F0BB
:1052C0000E944851F301F5CFB701A6018DE796E0A2
:1052D0000E94A6476F964CAD5DAD6EAD7FAD6F97EA
:1052E00087E796E00E94A647A3964CAD5DAD6EADF4
:1052F0007FADA39781E796E00E94A6478AE00E94CF
:1053000048518EA19FA1A8A5B9A5880D991DAA1DD8
:10531000BB1DB595A7959795879580934B038AAD4F
:105320009BAD01969BAF8AAF9AA52B969FAF2B970B
:10533000AEA5AEAFBAA92396BFAF2397EEA92F961D
:10534000EFAF2F974AA05BA06CA07DA0F1E0A696DE
:10535000FFAFA6975ACA112351F07BCC112351F00D
:105360008ECC112351F0A1CC112351F0B4CCD1102B
:1053700070CC7BCCE11083CC8ECCF11096CCA1CC40
:105380000111A9CC12CDCF57DF4F0FB6F894DEBF75
:105390000FBECDBFDF91CF911F910F91FF90EF9086
:1053A000DF90CF90BF90AF909F908F907F906F9045
:1053B0005F904F903F902F900895CF93DF93E8ED4B
:1053C000F8E08491EF012196882321F00E94485152
:1053D000FE01F7CFDF91CF9108950F931F93CF93E5
:1053E000C82F882319F0E6EFFAE00CC0EBE7FAE1EA
:1053F00084918F010F5F1F4F8823A9F30E944851AA
:10540000F801F6CF84918F010F5F1F4F882321F0A1
:105410000E944851F801F6CFEFEDF8E084918F013A
:105420000F5F1F4F882321F00E944851F801F6CFEB
:105430008AE00E9448518AE00E944851C1112CC064
:10544000EBE7FAE184918F010F5F1F4F882321F072
:105450000E944851F801F6CFE3EEFAE084918F0103
:105460000F5F1F4F882321F00E944851F801F6CFAB
:105470008091D603882321F08AE00E9448513AC0E7
:10548000E8EDFAE084918F010F5F1F4F882391F1BF
:105490000E944851F801F6CF4091DB035091DC03A4
:1054A0006091DD037091DE038FEC9AE00E94A647C5
:1054B0008AE00E9448518091D603811127C0CC23F5
:1054C00019F0E4ECFAE00CC0EBE7FAE184918F010B
:1054D0000F5F1F4F8823A9F30E944851F801F6CFB0
:1054E00084918F010F5F1F4F882381F00E944851E4
:1054F000F801F6CFEBE7FAE184918F010F5F1F4FC0
:10550000882351F20E944851F801F6CFC11124C0FE
:10551000EBE7FAE184918F010F5F1F4F882321F0A1
:105520000E944851F801F6CFE3EBFAE084918F0135
:105530000F5F1F4F882321F00E944851F801F6CFDA
:10554000EBE7FAE184918F010F5F1F4F882321F071
:105550000E944851F801F6CF4091CC0C5091CD0CEF
:105560006091CE0C7091CF0C8BEA9AE00E94A64716
:105570004091D00C5091D10C6091D20C7091D30C11
:1055800088EA9AE00E94A6474091D40C5091D50C2D
:105590006091D60C7091D70C85EA9AE00E94A647DC
:1055A0004091D80C5091D90C6091DA0C7091DB0CC1
:1055B00082EA9AE00E94A6478AE00E944851C111FF
:1055C00024C0EBE7FAE184918F010F5F1F4F88231E
:1055D00021F00E944851F801F6CFE4E8FAE0849106
:1055E0008F010F5F1F4F882321F00E944851F8015F
:1055F000F6CFEBE7FAE184918F010F5F1F4F88230D
:1056000021F00E944851F801F6CF40918606509152
:10561000870660918806709189068BE79AE00E9460
:10562000A64740918A0650918B0660918C06709136
:105630008D0688E79AE00E94A64740918E06509119
:105640008F06609190067091910685E79AE00E941E
:10565000A6474091920650919306609194067091EE
:10566000950682E79AE00E94A6478AE00E94485188
:10567000C11124C0EBE7FAE184918F010F5F1F4F46
:10568000882321F00E944851F801F6CFE0E5FAE0C6
:1056900084918F010F5F1F4F882321F00E94485192
:1056A000F801F6CFEBE7FAE184918F010F5F1F4F0E
:1056B000882321F00E944851F801F6CF4091DF0382
:1056C0005091E0036091E1037091E20387E49AE076
:1056D0000E9489474091E3035091E4036091E50300
:1056E0007091E60384E49AE00E9489474091E703C1
:1056F0005091E8036091E9037091EA0381E49AE034
:105700000E9489474091EB035091EC036091ED03B7
:105710007091EE038EE39AE00E9489478AE00E942E
:105720004851C11124C0EBE7FAE184918F010F5F6A
:105730001F4F882321F00E944851F801F6CFE4EF73
:10574000F9E084918F010F5F1F4F882321F00E94A1
:105750004851F801F6CFEBE7FAE184918F010F5F32
:105760001F4F882321F00E944851F801F6CF409145
:105770007E0650917F0660918006709181068BEEC7
:1057800099E00E94A647409182065091830660915D
:1057900084067091850688EE99E00E94A6474091A4
:1057A0007A0650917B0660917C0670917D0685EEAD
:1057B00099E00E94A6478AE00E944851C1113FC06B
:1057C000EBE7FAE184918F010F5F1F4F882321F0EF
:1057D0000E944851F801F6CFEDE9F9E084918F017C
:1057E0000F5F1F4F882321F00E944851F801F6CF28
:1057F000E2E7F9E084918F010F5F1F4F882321F0CA
:105800000E944851F801F6CFE3E6F9E084918F0158
:105810000F5F1F4F882321F00E944851F801F6CFF7
:105820008AE00E944851EBE7FAE184918F010F5F13
:105830001F4F882321F00E944851F801F6CF409174
:1058400096065091970660919806709199068AE5A0
:1058500099E00E9489474091AE065091AF06609151
:10586000B0067091B10687E599E00E94A647409185
:10587000AA065091AB066091AC067091AD0684E526
:1058800099E00E94A64740915606509157066091B4
:1058900058067091590681E599E00E94A64740910B
:1058A0005A0650915B0660915C0670915D068EE42D
:1058B00099E00E94A64740915E0650915F06609174
:1058C0006006709161068BE499E00E94A6474091C2
:1058D000620650916306609164067091650688E4E3
:1058E00099E00E94A6478AE00E944851C11124C055
:1058F000EBE7FAE184918F010F5F1F4F882321F0BE
:105900000E944851F801F6CFEAE3F9E084918F0153
:105910000F5F1F4F882321F00E944851F801F6CFF6
:10592000EBE7FAE184918F010F5F1F4F882321F08D
:105930000E944851F801F6CF4091090450910A04A1
:1059400060910B0470910C0481E399E00E94A647DA
:1059500040910D0450910E0460910F047091100459
:105960008EE299E00E94A6474091110450911204E2
:1059700060911304709114048BE299E00E94A64791
:105980008AE00E944851C11124C0EBE7FAE18491FA
:105990008F010F5F1F4F882321F00E944851F801AB
:1059A000F6CFECE1F9E084918F010F5F1F4F882360
:1059B00021F00E944851F801F6CFEBE7FAE184911B
:1059C0008F010F5F1F4F882321F00E944851F8017B
:1059D000F6CF40914103509142036091430370918F
:1059E000440383E199E00E94A6472CEA35EC47E2A4
:1059F0005EE360913D0370913E0380913F0390917F
:105A000040030E942D76AB01BC0180E199E00E9429
:105A1000A6472CEA35EC47E25EE3609145037091BE
:105A2000460380914703909148030E94B571AB01F2
:105A3000BC018DE099E00E94A6478AE00E9448518F
:105A4000C11124C0EBE7FAE184918F010F5F1F4F72
:105A5000882321F00E944851F801F6CFE4EFF8E0E6
:105A600084918F010F5F1F4F882321F00E944851BE
:105A7000F801F6CFEBE7FAE184918F010F5F1F4F3A
:105A8000882321F00E944851F801F6CF96DC6091FE
:105A9000CD0E7091CE0E81EF98E00E94C3476091C9
:105AA000540E7091550E8EEE98E00E94C34760919F
:105AB000DB0D7091DC0D8BEE98E00E94C3478AE00D
:105AC0000E9448517ADC6091620D7091630D85EE01
:105AD00098E00E94C3478AE00E9448518AE0CF9133
